{
	"data": {
		"bytecode": {
			"linkReferences": {},
			"object": "608060405234801561000f575f80fd5b506103108061001d5f395ff3fe608060405234801561000f575f80fd5b5060043610610055575f3560e01c806313aadff8146100595780631ddb78a7146100895780637ad2c242146100b9578063b67d77c5146100e9578063e888b16514610119575b5f80fd5b610073600480360381019061006e9190610224565b610149565b6040516100809190610283565b60405180910390f35b6100a3600480360381019061009e919061029c565b61017a565b6040516100b09190610283565b60405180910390f35b6100d360048036038101906100ce919061029c565b610192565b6040516100e09190610283565b60405180910390f35b61010360048036038101906100fe919061029c565b6101aa565b6040516101109190610283565b60405180910390f35b610133600480360381019061012e919061029c565b6101c2565b6040516101409190610283565b60405180910390f35b5f835f811461016e5783850291508385830414610164575f80fd5b8282049150610172565b5f91505b509392505050565b5f81830190508281101561018c575f80fd5b92915050565b5f600282048084019150828383040291505092915050565b5f818310156101b7575f80fd5b818303905092915050565b5f825f81146101e257828402915082848304146101dd575f80fd5b6101e6565b5f91505b5092915050565b5f80fd5b5f819050919050565b610203816101f1565b811461020d575f80fd5b50565b5f8135905061021e816101fa565b92915050565b5f805f6060848603121561023b5761023a6101ed565b5b5f61024886828701610210565b935050602061025986828701610210565b925050604061026a86828701610210565b9150509250925092565b61027d816101f1565b82525050565b5f6020820190506102965f830184610274565b92915050565b5f80604083850312156102b2576102b16101ed565b5b5f6102bf85828601610210565b92505060206102d085828601610210565b915050925092905056fea264697066735822122079903258a842e036657b6dffb68705f33c1abc34537caacd8e97dd7caf25df7a64736f6c63430008160033",
			"opcodes": "PUSH1 0x80 PUSH1 0x40 MSTORE CALLVALUE DUP1 ISZERO PUSH2 0xF JUMPI PUSH0 DUP1 REVERT JUMPDEST POP PUSH2 0x310 DUP1 PUSH2 0x1D PUSH0 CODECOPY PUSH0 RETURN INVALID PUSH1 0x80 PUSH1 0x40 MSTORE CALLVALUE DUP1 ISZERO PUSH2 0xF JUMPI PUSH0 DUP1 REVERT JUMPDEST POP PUSH1 0x4 CALLDATASIZE LT PUSH2 0x55 JUMPI PUSH0 CALLDATALOAD PUSH1 0xE0 SHR DUP1 PUSH4 0x13AADFF8 EQ PUSH2 0x59 JUMPI DUP1 PUSH4 0x1DDB78A7 EQ PUSH2 0x89 JUMPI DUP1 PUSH4 0x7AD2C242 EQ PUSH2 0xB9 JUMPI DUP1 PUSH4 0xB67D77C5 EQ PUSH2 0xE9 JUMPI DUP1 PUSH4 0xE888B165 EQ PUSH2 0x119 JUMPI JUMPDEST PUSH0 DUP1 REVERT JUMPDEST PUSH2 0x73 PUSH1 0x4 DUP1 CALLDATASIZE SUB DUP2 ADD SWAP1 PUSH2 0x6E SWAP2 SWAP1 PUSH2 0x224 JUMP JUMPDEST PUSH2 0x149 JUMP JUMPDEST PUSH1 0x40 MLOAD PUSH2 0x80 SWAP2 SWAP1 PUSH2 0x283 JUMP JUMPDEST PUSH1 0x40 MLOAD DUP1 SWAP2 SUB SWAP1 RETURN JUMPDEST PUSH2 0xA3 PUSH1 0x4 DUP1 CALLDATASIZE SUB DUP2 ADD SWAP1 PUSH2 0x9E SWAP2 SWAP1 PUSH2 0x29C JUMP JUMPDEST PUSH2 0x17A JUMP JUMPDEST PUSH1 0x40 MLOAD PUSH2 0xB0 SWAP2 SWAP1 PUSH2 0x283 JUMP JUMPDEST PUSH1 0x40 MLOAD DUP1 SWAP2 SUB SWAP1 RETURN JUMPDEST PUSH2 0xD3 PUSH1 0x4 DUP1 CALLDATASIZE SUB DUP2 ADD SWAP1 PUSH2 0xCE SWAP2 SWAP1 PUSH2 0x29C JUMP JUMPDEST PUSH2 0x192 JUMP JUMPDEST PUSH1 0x40 MLOAD PUSH2 0xE0 SWAP2 SWAP1 PUSH2 0x283 JUMP JUMPDEST PUSH1 0x40 MLOAD DUP1 SWAP2 SUB SWAP1 RETURN JUMPDEST PUSH2 0x103 PUSH1 0x4 DUP1 CALLDATASIZE SUB DUP2 ADD SWAP1 PUSH2 0xFE SWAP2 SWAP1 PUSH2 0x29C JUMP JUMPDEST PUSH2 0x1AA JUMP JUMPDEST PUSH1 0x40 MLOAD PUSH2 0x110 SWAP2 SWAP1 PUSH2 0x283 JUMP JUMPDEST PUSH1 0x40 MLOAD DUP1 SWAP2 SUB SWAP1 RETURN JUMPDEST PUSH2 0x133 PUSH1 0x4 DUP1 CALLDATASIZE SUB DUP2 ADD SWAP1 PUSH2 0x12E SWAP2 SWAP1 PUSH2 0x29C JUMP JUMPDEST PUSH2 0x1C2 JUMP JUMPDEST PUSH1 0x40 MLOAD PUSH2 0x140 SWAP2 SWAP1 PUSH2 0x283 JUMP JUMPDEST PUSH1 0x40 MLOAD DUP1 SWAP2 SUB SWAP1 RETURN JUMPDEST PUSH0 DUP4 PUSH0 DUP2 EQ PUSH2 0x16E JUMPI DUP4 DUP6 MUL SWAP2 POP DUP4 DUP6 DUP4 DIV EQ PUSH2 0x164 JUMPI PUSH0 DUP1 REVERT JUMPDEST DUP3 DUP3 DIV SWAP2 POP PUSH2 0x172 JUMP JUMPDEST PUSH0 SWAP2 POP JUMPDEST POP SWAP4 SWAP3 POP POP POP JUMP JUMPDEST PUSH0 DUP2 DUP4 ADD SWAP1 POP DUP3 DUP2 LT ISZERO PUSH2 0x18C JUMPI PUSH0 DUP1 REVERT JUMPDEST SWAP3 SWAP2 POP POP JUMP JUMPDEST PUSH0 PUSH1 0x2 DUP3 DIV DUP1 DUP5 ADD SWAP2 POP DUP3 DUP4 DUP4 DIV MUL SWAP2 POP POP SWAP3 SWAP2 POP POP JUMP JUMPDEST PUSH0 DUP2 DUP4 LT ISZERO PUSH2 0x1B7 JUMPI PUSH0 DUP1 REVERT JUMPDEST DUP2 DUP4 SUB SWAP1 POP SWAP3 SWAP2 POP POP JUMP JUMPDEST PUSH0 DUP3 PUSH0 DUP2 EQ PUSH2 0x1E2 JUMPI DUP3 DUP5 MUL SWAP2 POP DUP3 DUP5 DUP4 DIV EQ PUSH2 0x1DD JUMPI PUSH0 DUP1 REVERT JUMPDEST PUSH2 0x1E6 JUMP JUMPDEST PUSH0 SWAP2 POP JUMPDEST POP SWAP3 SWAP2 POP POP JUMP JUMPDEST PUSH0 DUP1 REVERT JUMPDEST PUSH0 DUP2 SWAP1 POP SWAP2 SWAP1 POP JUMP JUMPDEST PUSH2 0x203 DUP2 PUSH2 0x1F1 JUMP JUMPDEST DUP2 EQ PUSH2 0x20D JUMPI PUSH0 DUP1 REVERT JUMPDEST POP JUMP JUMPDEST PUSH0 DUP2 CALLDATALOAD SWAP1 POP PUSH2 0x21E DUP2 PUSH2 0x1FA JUMP JUMPDEST SWAP3 SWAP2 POP POP JUMP JUMPDEST PUSH0 DUP1 PUSH0 PUSH1 0x60 DUP5 DUP7 SUB SLT ISZERO PUSH2 0x23B JUMPI PUSH2 0x23A PUSH2 0x1ED JUMP JUMPDEST JUMPDEST PUSH0 PUSH2 0x248 DUP7 DUP3 DUP8 ADD PUSH2 0x210 JUMP JUMPDEST SWAP4 POP POP PUSH1 0x20 PUSH2 0x259 DUP7 DUP3 DUP8 ADD PUSH2 0x210 JUMP JUMPDEST SWAP3 POP POP PUSH1 0x40 PUSH2 0x26A DUP7 DUP3 DUP8 ADD PUSH2 0x210 JUMP JUMPDEST SWAP2 POP POP SWAP3 POP SWAP3 POP SWAP3 JUMP JUMPDEST PUSH2 0x27D DUP2 PUSH2 0x1F1 JUMP JUMPDEST DUP3 MSTORE POP POP JUMP JUMPDEST PUSH0 PUSH1 0x20 DUP3 ADD SWAP1 POP PUSH2 0x296 PUSH0 DUP4 ADD DUP5 PUSH2 0x274 JUMP JUMPDEST SWAP3 SWAP2 POP POP JUMP JUMPDEST PUSH0 DUP1 PUSH1 0x40 DUP4 DUP6 SUB SLT ISZERO PUSH2 0x2B2 JUMPI PUSH2 0x2B1 PUSH2 0x1ED JUMP JUMPDEST JUMPDEST PUSH0 PUSH2 0x2BF DUP6 DUP3 DUP7 ADD PUSH2 0x210 JUMP JUMPDEST SWAP3 POP POP PUSH1 0x20 PUSH2 0x2D0 DUP6 DUP3 DUP7 ADD PUSH2 0x210 JUMP JUMPDEST SWAP2 POP POP SWAP3 POP SWAP3 SWAP1 POP JUMP INVALID LOG2 PUSH5 0x6970667358 0x22 SLT KECCAK256 PUSH26 0x903258A842E036657B6DFFB68705F33C1ABC34537CAACD8E97DD PUSH29 0xAF25DF7A64736F6C634300081600330000000000000000000000000000 "
		},
		"gasEstimates": {
			"creation": {
				"codeDepositCost": "156800",
				"executionCost": "200",
				"totalCost": "157000"
			},
			"external": {
				"fixed_point_mul(uint256,uint256,uint256)": "infinite",
				"sub(uint256,uint256)": "infinite",
				"yul_add(uint256,uint256)": "infinite",
				"yul_fixed_point_round(uint256,uint256)": "infinite",
				"yul_mul(uint256,uint256)": "infinite"
			}
		},
		"methodIdentifiers": {
			"fixed_point_mul(uint256,uint256,uint256)": "13aadff8",
			"sub(uint256,uint256)": "b67d77c5",
			"yul_add(uint256,uint256)": "1ddb78a7",
			"yul_fixed_point_round(uint256,uint256)": "7ad2c242",
			"yul_mul(uint256,uint256)": "e888b165"
		}
	},
	"abi": [
		{
			"inputs": [
				{
					"internalType": "uint256",
					"name": "x",
					"type": "uint256"
				},
				{
					"internalType": "uint256",
					"name": "y",
					"type": "uint256"
				},
				{
					"internalType": "uint256",
					"name": "b",
					"type": "uint256"
				}
			],
			"name": "fixed_point_mul",
			"outputs": [
				{
					"internalType": "uint256",
					"name": "z",
					"type": "uint256"
				}
			],
			"stateMutability": "pure",
			"type": "function"
		},
		{
			"inputs": [
				{
					"internalType": "uint256",
					"name": "x",
					"type": "uint256"
				},
				{
					"internalType": "uint256",
					"name": "y",
					"type": "uint256"
				}
			],
			"name": "sub",
			"outputs": [
				{
					"internalType": "uint256",
					"name": "z",
					"type": "uint256"
				}
			],
			"stateMutability": "pure",
			"type": "function"
		},
		{
			"inputs": [
				{
					"internalType": "uint256",
					"name": "x",
					"type": "uint256"
				},
				{
					"internalType": "uint256",
					"name": "y",
					"type": "uint256"
				}
			],
			"name": "yul_add",
			"outputs": [
				{
					"internalType": "uint256",
					"name": "z",
					"type": "uint256"
				}
			],
			"stateMutability": "pure",
			"type": "function"
		},
		{
			"inputs": [
				{
					"internalType": "uint256",
					"name": "x",
					"type": "uint256"
				},
				{
					"internalType": "uint256",
					"name": "b",
					"type": "uint256"
				}
			],
			"name": "yul_fixed_point_round",
			"outputs": [
				{
					"internalType": "uint256",
					"name": "z",
					"type": "uint256"
				}
			],
			"stateMutability": "pure",
			"type": "function"
		},
		{
			"inputs": [
				{
					"internalType": "uint256",
					"name": "x",
					"type": "uint256"
				},
				{
					"internalType": "uint256",
					"name": "y",
					"type": "uint256"
				}
			],
			"name": "yul_mul",
			"outputs": [
				{
					"internalType": "uint256",
					"name": "z",
					"type": "uint256"
				}
			],
			"stateMutability": "pure",
			"type": "function"
		}
	]
}