{
	"data": {
		"bytecode": {
			"linkReferences": {},
			"object": "608060405234801561000f575f80fd5b506101ff8061001d5f395ff3fe608060405234801561000f575f80fd5b5060043610610029575f3560e01c806367b870af1461002d575b5f80fd5b61004760048036038101906100429190610151565b61005d565b60405161005491906101b0565b60405180910390f35b5f835f81146100fc57600284065f81146100795785925061007d565b8392505b50600283046002850494505b84156100f657858602868782041461009f575f80fd5b818101818110156100ae575f80fd5b858104975060028706156100e95787850285898204141589151516156100d2575f80fd5b838101818110156100e1575f80fd5b878104965050505b5050600285049450610089565b50610112565b835f811461010c575f9250610110565b8392505b505b509392505050565b5f80fd5b5f819050919050565b6101308161011e565b811461013a575f80fd5b50565b5f8135905061014b81610127565b92915050565b5f805f606084860312156101685761016761011a565b5b5f6101758682870161013d565b93505060206101868682870161013d565b92505060406101978682870161013d565b9150509250925092565b6101aa8161011e565b82525050565b5f6020820190506101c35f8301846101a1565b9291505056fea2646970667358221220c26efa914dfba2e2a1986690023ce2ae2286dc1e21e198414a41bbc3e20fae3464736f6c63430008160033",
			"opcodes": "PUSH1 0x80 PUSH1 0x40 MSTORE CALLVALUE DUP1 ISZERO PUSH2 0xF JUMPI PUSH0 DUP1 REVERT JUMPDEST POP PUSH2 0x1FF DUP1 PUSH2 0x1D PUSH0 CODECOPY PUSH0 RETURN INVALID PUSH1 0x80 PUSH1 0x40 MSTORE CALLVALUE DUP1 ISZERO PUSH2 0xF JUMPI PUSH0 DUP1 REVERT JUMPDEST POP PUSH1 0x4 CALLDATASIZE LT PUSH2 0x29 JUMPI PUSH0 CALLDATALOAD PUSH1 0xE0 SHR DUP1 PUSH4 0x67B870AF EQ PUSH2 0x2D JUMPI JUMPDEST PUSH0 DUP1 REVERT JUMPDEST PUSH2 0x47 PUSH1 0x4 DUP1 CALLDATASIZE SUB DUP2 ADD SWAP1 PUSH2 0x42 SWAP2 SWAP1 PUSH2 0x151 JUMP JUMPDEST PUSH2 0x5D JUMP JUMPDEST PUSH1 0x40 MLOAD PUSH2 0x54 SWAP2 SWAP1 PUSH2 0x1B0 JUMP JUMPDEST PUSH1 0x40 MLOAD DUP1 SWAP2 SUB SWAP1 RETURN JUMPDEST PUSH0 DUP4 PUSH0 DUP2 EQ PUSH2 0xFC JUMPI PUSH1 0x2 DUP5 MOD PUSH0 DUP2 EQ PUSH2 0x79 JUMPI DUP6 SWAP3 POP PUSH2 0x7D JUMP JUMPDEST DUP4 SWAP3 POP JUMPDEST POP PUSH1 0x2 DUP4 DIV PUSH1 0x2 DUP6 DIV SWAP5 POP JUMPDEST DUP5 ISZERO PUSH2 0xF6 JUMPI DUP6 DUP7 MUL DUP7 DUP8 DUP3 DIV EQ PUSH2 0x9F JUMPI PUSH0 DUP1 REVERT JUMPDEST DUP2 DUP2 ADD DUP2 DUP2 LT ISZERO PUSH2 0xAE JUMPI PUSH0 DUP1 REVERT JUMPDEST DUP6 DUP2 DIV SWAP8 POP PUSH1 0x2 DUP8 MOD ISZERO PUSH2 0xE9 JUMPI DUP8 DUP6 MUL DUP6 DUP10 DUP3 DIV EQ ISZERO DUP10 ISZERO ISZERO AND ISZERO PUSH2 0xD2 JUMPI PUSH0 DUP1 REVERT JUMPDEST DUP4 DUP2 ADD DUP2 DUP2 LT ISZERO PUSH2 0xE1 JUMPI PUSH0 DUP1 REVERT JUMPDEST DUP8 DUP2 DIV SWAP7 POP POP POP JUMPDEST POP POP PUSH1 0x2 DUP6 DIV SWAP5 POP PUSH2 0x89 JUMP JUMPDEST POP PUSH2 0x112 JUMP JUMPDEST DUP4 PUSH0 DUP2 EQ PUSH2 0x10C JUMPI PUSH0 SWAP3 POP PUSH2 0x110 JUMP JUMPDEST DUP4 SWAP3 POP JUMPDEST POP JUMPDEST POP SWAP4 SWAP3 POP POP POP JUMP JUMPDEST PUSH0 DUP1 REVERT JUMPDEST PUSH0 DUP2 SWAP1 POP SWAP2 SWAP1 POP JUMP JUMPDEST PUSH2 0x130 DUP2 PUSH2 0x11E JUMP JUMPDEST DUP2 EQ PUSH2 0x13A JUMPI PUSH0 DUP1 REVERT JUMPDEST POP JUMP JUMPDEST PUSH0 DUP2 CALLDATALOAD SWAP1 POP PUSH2 0x14B DUP2 PUSH2 0x127 JUMP JUMPDEST SWAP3 SWAP2 POP POP JUMP JUMPDEST PUSH0 DUP1 PUSH0 PUSH1 0x60 DUP5 DUP7 SUB SLT ISZERO PUSH2 0x168 JUMPI PUSH2 0x167 PUSH2 0x11A JUMP JUMPDEST JUMPDEST PUSH0 PUSH2 0x175 DUP7 DUP3 DUP8 ADD PUSH2 0x13D JUMP JUMPDEST SWAP4 POP POP PUSH1 0x20 PUSH2 0x186 DUP7 DUP3 DUP8 ADD PUSH2 0x13D JUMP JUMPDEST SWAP3 POP POP PUSH1 0x40 PUSH2 0x197 DUP7 DUP3 DUP8 ADD PUSH2 0x13D JUMP JUMPDEST SWAP2 POP POP SWAP3 POP SWAP3 POP SWAP3 JUMP JUMPDEST PUSH2 0x1AA DUP2 PUSH2 0x11E JUMP JUMPDEST DUP3 MSTORE POP POP JUMP JUMPDEST PUSH0 PUSH1 0x20 DUP3 ADD SWAP1 POP PUSH2 0x1C3 PUSH0 DUP4 ADD DUP5 PUSH2 0x1A1 JUMP JUMPDEST SWAP3 SWAP2 POP POP JUMP INVALID LOG2 PUSH5 0x6970667358 0x22 SLT KECCAK256 0xC2 PUSH15 0xFA914DFBA2E2A1986690023CE2AE22 DUP7 0xDC 0x1E 0x21 0xE1 SWAP9 COINBASE 0x4A COINBASE 0xBB 0xC3 0xE2 0xF 0xAE CALLVALUE PUSH5 0x736F6C6343 STOP ADDMOD AND STOP CALLER "
		},
		"gasEstimates": {
			"creation": {
				"codeDepositCost": "102200",
				"executionCost": "145",
				"totalCost": "102345"
			},
			"external": {
				"rpow(uint256,uint256,uint256)": "infinite"
			}
		},
		"methodIdentifiers": {
			"rpow(uint256,uint256,uint256)": "67b870af"
		}
	},
	"abi": [
		{
			"inputs": [
				{
					"internalType": "uint256",
					"name": "x",
					"type": "uint256"
				},
				{
					"internalType": "uint256",
					"name": "n",
					"type": "uint256"
				},
				{
					"internalType": "uint256",
					"name": "b",
					"type": "uint256"
				}
			],
			"name": "rpow",
			"outputs": [
				{
					"internalType": "uint256",
					"name": "z",
					"type": "uint256"
				}
			],
			"stateMutability": "pure",
			"type": "function"
		}
	]
}