{
	"data": {
		"bytecode": {
			"linkReferences": {},
			"object": "608060405234801561000f575f80fd5b50604051610644380380610644833981810160405281019061003191906100d4565b805f806101000a81548173ffffffffffffffffffffffffffffffffffffffff021916908373ffffffffffffffffffffffffffffffffffffffff160217905550506100ff565b5f80fd5b5f73ffffffffffffffffffffffffffffffffffffffff82169050919050565b5f6100a38261007a565b9050919050565b6100b381610099565b81146100bd575f80fd5b50565b5f815190506100ce816100aa565b92915050565b5f602082840312156100e9576100e8610076565b5b5f6100f6848285016100c0565b91505092915050565b6105388061010c5f395ff3fe608060405260043610610058575f3560e01c8063188ec3561461006657806331a38c891461009057806378b90337146100ba578063bd4315f9146100e4578063bfa814b51461010c578063d085835a1461011657610059565b5b348015610064575f80fd5b005b348015610071575f80fd5b5061007a610140565b60405161008791906102c5565b60405180910390f35b34801561009b575f80fd5b506100a4610153565b6040516100b191906102f8565b60405180910390f35b3480156100c5575f80fd5b506100ce610165565b6040516100db91906102f8565b60405180910390f35b3480156100ef575f80fd5b5061010a6004803603810190610105919061033f565b610177565b005b610114610193565b005b348015610121575f80fd5b5061012a61028a565b60405161013791906103a9565b60405180910390f35b5f60644261014e91906103ef565b905090565b5f60159054906101000a900460ff1681565b5f60149054906101000a900460ff1681565b805f60146101000a81548160ff02191690831515021790555050565b5f8054906101000a900473ffffffffffffffffffffffffffffffffffffffff1673ffffffffffffffffffffffffffffffffffffffff163373ffffffffffffffffffffffffffffffffffffffff1614610220576040517f08c379a00000000000000000000000000000000000000000000000000000000081526004016102179061047c565b60405180910390fd5b5f60149054906101000a900460ff1661026e576040517f08c379a0000000000000000000000000000000000000000000000000000000008152600401610265906104e4565b60405180910390fd5b60015f60156101000a81548160ff021916908315150217905550565b5f8054906101000a900473ffffffffffffffffffffffffffffffffffffffff1681565b5f819050919050565b6102bf816102ad565b82525050565b5f6020820190506102d85f8301846102b6565b92915050565b5f8115159050919050565b6102f2816102de565b82525050565b5f60208201905061030b5f8301846102e9565b92915050565b5f80fd5b61031e816102de565b8114610328575f80fd5b50565b5f8135905061033981610315565b92915050565b5f6020828403121561035457610353610311565b5b5f6103618482850161032b565b91505092915050565b5f73ffffffffffffffffffffffffffffffffffffffff82169050919050565b5f6103938261036a565b9050919050565b6103a381610389565b82525050565b5f6020820190506103bc5f83018461039a565b92915050565b7f4e487b71000000000000000000000000000000000000000000000000000000005f52601160045260245ffd5b5f6103f9826102ad565b9150610404836102ad565b925082820190508082111561041c5761041b6103c2565b5b92915050565b5f82825260208201905092915050565b7f6e6f742074696d65206c6f636b000000000000000000000000000000000000005f82015250565b5f610466600d83610422565b915061047182610432565b602082019050919050565b5f6020820190508181035f8301526104938161045a565b9050919050565b7f63616e6e6f74206578656375746520746869732066756e6374696f6e000000005f82015250565b5f6104ce601c83610422565b91506104d98261049a565b602082019050919050565b5f6020820190508181035f8301526104fb816104c2565b905091905056fea2646970667358221220e49f8472b77d86238d09278849775d12c68ce6c544b8400417ef9f1f46fe9b0864736f6c63430008160033",
			"opcodes": "PUSH1 0x80 PUSH1 0x40 MSTORE CALLVALUE DUP1 ISZERO PUSH2 0xF JUMPI PUSH0 DUP1 REVERT JUMPDEST POP PUSH1 0x40 MLOAD PUSH2 0x644 CODESIZE SUB DUP1 PUSH2 0x644 DUP4 CODECOPY DUP2 DUP2 ADD PUSH1 0x40 MSTORE DUP2 ADD SWAP1 PUSH2 0x31 SWAP2 SWAP1 PUSH2 0xD4 JUMP JUMPDEST DUP1 PUSH0 DUP1 PUSH2 0x100 EXP DUP2 SLOAD DUP2 PUSH20 0xFFFFFFFFFFFFFFFFFFFFFFFFFFFFFFFFFFFFFFFF MUL NOT AND SWAP1 DUP4 PUSH20 0xFFFFFFFFFFFFFFFFFFFFFFFFFFFFFFFFFFFFFFFF AND MUL OR SWAP1 SSTORE POP POP PUSH2 0xFF JUMP JUMPDEST PUSH0 DUP1 REVERT JUMPDEST PUSH0 PUSH20 0xFFFFFFFFFFFFFFFFFFFFFFFFFFFFFFFFFFFFFFFF DUP3 AND SWAP1 POP SWAP2 SWAP1 POP JUMP JUMPDEST PUSH0 PUSH2 0xA3 DUP3 PUSH2 0x7A JUMP JUMPDEST SWAP1 POP SWAP2 SWAP1 POP JUMP JUMPDEST PUSH2 0xB3 DUP2 PUSH2 0x99 JUMP JUMPDEST DUP2 EQ PUSH2 0xBD JUMPI PUSH0 DUP1 REVERT JUMPDEST POP JUMP JUMPDEST PUSH0 DUP2 MLOAD SWAP1 POP PUSH2 0xCE DUP2 PUSH2 0xAA JUMP JUMPDEST SWAP3 SWAP2 POP POP JUMP JUMPDEST PUSH0 PUSH1 0x20 DUP3 DUP5 SUB SLT ISZERO PUSH2 0xE9 JUMPI PUSH2 0xE8 PUSH2 0x76 JUMP JUMPDEST JUMPDEST PUSH0 PUSH2 0xF6 DUP5 DUP3 DUP6 ADD PUSH2 0xC0 JUMP JUMPDEST SWAP2 POP POP SWAP3 SWAP2 POP POP JUMP JUMPDEST PUSH2 0x538 DUP1 PUSH2 0x10C PUSH0 CODECOPY PUSH0 RETURN INVALID PUSH1 0x80 PUSH1 0x40 MSTORE PUSH1 0x4 CALLDATASIZE LT PUSH2 0x58 JUMPI PUSH0 CALLDATALOAD PUSH1 0xE0 SHR DUP1 PUSH4 0x188EC356 EQ PUSH2 0x66 JUMPI DUP1 PUSH4 0x31A38C89 EQ PUSH2 0x90 JUMPI DUP1 PUSH4 0x78B90337 EQ PUSH2 0xBA JUMPI DUP1 PUSH4 0xBD4315F9 EQ PUSH2 0xE4 JUMPI DUP1 PUSH4 0xBFA814B5 EQ PUSH2 0x10C JUMPI DUP1 PUSH4 0xD085835A EQ PUSH2 0x116 JUMPI PUSH2 0x59 JUMP JUMPDEST JUMPDEST CALLVALUE DUP1 ISZERO PUSH2 0x64 JUMPI PUSH0 DUP1 REVERT JUMPDEST STOP JUMPDEST CALLVALUE DUP1 ISZERO PUSH2 0x71 JUMPI PUSH0 DUP1 REVERT JUMPDEST POP PUSH2 0x7A PUSH2 0x140 JUMP JUMPDEST PUSH1 0x40 MLOAD PUSH2 0x87 SWAP2 SWAP1 PUSH2 0x2C5 JUMP JUMPDEST PUSH1 0x40 MLOAD DUP1 SWAP2 SUB SWAP1 RETURN JUMPDEST CALLVALUE DUP1 ISZERO PUSH2 0x9B JUMPI PUSH0 DUP1 REVERT JUMPDEST POP PUSH2 0xA4 PUSH2 0x153 JUMP JUMPDEST PUSH1 0x40 MLOAD PUSH2 0xB1 SWAP2 SWAP1 PUSH2 0x2F8 JUMP JUMPDEST PUSH1 0x40 MLOAD DUP1 SWAP2 SUB SWAP1 RETURN JUMPDEST CALLVALUE DUP1 ISZERO PUSH2 0xC5 JUMPI PUSH0 DUP1 REVERT JUMPDEST POP PUSH2 0xCE PUSH2 0x165 JUMP JUMPDEST PUSH1 0x40 MLOAD PUSH2 0xDB SWAP2 SWAP1 PUSH2 0x2F8 JUMP JUMPDEST PUSH1 0x40 MLOAD DUP1 SWAP2 SUB SWAP1 RETURN JUMPDEST CALLVALUE DUP1 ISZERO PUSH2 0xEF JUMPI PUSH0 DUP1 REVERT JUMPDEST POP PUSH2 0x10A PUSH1 0x4 DUP1 CALLDATASIZE SUB DUP2 ADD SWAP1 PUSH2 0x105 SWAP2 SWAP1 PUSH2 0x33F JUMP JUMPDEST PUSH2 0x177 JUMP JUMPDEST STOP JUMPDEST PUSH2 0x114 PUSH2 0x193 JUMP JUMPDEST STOP JUMPDEST CALLVALUE DUP1 ISZERO PUSH2 0x121 JUMPI PUSH0 DUP1 REVERT JUMPDEST POP PUSH2 0x12A PUSH2 0x28A JUMP JUMPDEST PUSH1 0x40 MLOAD PUSH2 0x137 SWAP2 SWAP1 PUSH2 0x3A9 JUMP JUMPDEST PUSH1 0x40 MLOAD DUP1 SWAP2 SUB SWAP1 RETURN JUMPDEST PUSH0 PUSH1 0x64 TIMESTAMP PUSH2 0x14E SWAP2 SWAP1 PUSH2 0x3EF JUMP JUMPDEST SWAP1 POP SWAP1 JUMP JUMPDEST PUSH0 PUSH1 0x15 SWAP1 SLOAD SWAP1 PUSH2 0x100 EXP SWAP1 DIV PUSH1 0xFF AND DUP2 JUMP JUMPDEST PUSH0 PUSH1 0x14 SWAP1 SLOAD SWAP1 PUSH2 0x100 EXP SWAP1 DIV PUSH1 0xFF AND DUP2 JUMP JUMPDEST DUP1 PUSH0 PUSH1 0x14 PUSH2 0x100 EXP DUP2 SLOAD DUP2 PUSH1 0xFF MUL NOT AND SWAP1 DUP4 ISZERO ISZERO MUL OR SWAP1 SSTORE POP POP JUMP JUMPDEST PUSH0 DUP1 SLOAD SWAP1 PUSH2 0x100 EXP SWAP1 DIV PUSH20 0xFFFFFFFFFFFFFFFFFFFFFFFFFFFFFFFFFFFFFFFF AND PUSH20 0xFFFFFFFFFFFFFFFFFFFFFFFFFFFFFFFFFFFFFFFF AND CALLER PUSH20 0xFFFFFFFFFFFFFFFFFFFFFFFFFFFFFFFFFFFFFFFF AND EQ PUSH2 0x220 JUMPI PUSH1 0x40 MLOAD PUSH32 0x8C379A000000000000000000000000000000000000000000000000000000000 DUP2 MSTORE PUSH1 0x4 ADD PUSH2 0x217 SWAP1 PUSH2 0x47C JUMP JUMPDEST PUSH1 0x40 MLOAD DUP1 SWAP2 SUB SWAP1 REVERT JUMPDEST PUSH0 PUSH1 0x14 SWAP1 SLOAD SWAP1 PUSH2 0x100 EXP SWAP1 DIV PUSH1 0xFF AND PUSH2 0x26E JUMPI PUSH1 0x40 MLOAD PUSH32 0x8C379A000000000000000000000000000000000000000000000000000000000 DUP2 MSTORE PUSH1 0x4 ADD PUSH2 0x265 SWAP1 PUSH2 0x4E4 JUMP JUMPDEST PUSH1 0x40 MLOAD DUP1 SWAP2 SUB SWAP1 REVERT JUMPDEST PUSH1 0x1 PUSH0 PUSH1 0x15 PUSH2 0x100 EXP DUP2 SLOAD DUP2 PUSH1 0xFF MUL NOT AND SWAP1 DUP4 ISZERO ISZERO MUL OR SWAP1 SSTORE POP JUMP JUMPDEST PUSH0 DUP1 SLOAD SWAP1 PUSH2 0x100 EXP SWAP1 DIV PUSH20 0xFFFFFFFFFFFFFFFFFFFFFFFFFFFFFFFFFFFFFFFF AND DUP2 JUMP JUMPDEST PUSH0 DUP2 SWAP1 POP SWAP2 SWAP1 POP JUMP JUMPDEST PUSH2 0x2BF DUP2 PUSH2 0x2AD JUMP JUMPDEST DUP3 MSTORE POP POP JUMP JUMPDEST PUSH0 PUSH1 0x20 DUP3 ADD SWAP1 POP PUSH2 0x2D8 PUSH0 DUP4 ADD DUP5 PUSH2 0x2B6 JUMP JUMPDEST SWAP3 SWAP2 POP POP JUMP JUMPDEST PUSH0 DUP2 ISZERO ISZERO SWAP1 POP SWAP2 SWAP1 POP JUMP JUMPDEST PUSH2 0x2F2 DUP2 PUSH2 0x2DE JUMP JUMPDEST DUP3 MSTORE POP POP JUMP JUMPDEST PUSH0 PUSH1 0x20 DUP3 ADD SWAP1 POP PUSH2 0x30B PUSH0 DUP4 ADD DUP5 PUSH2 0x2E9 JUMP JUMPDEST SWAP3 SWAP2 POP POP JUMP JUMPDEST PUSH0 DUP1 REVERT JUMPDEST PUSH2 0x31E DUP2 PUSH2 0x2DE JUMP JUMPDEST DUP2 EQ PUSH2 0x328 JUMPI PUSH0 DUP1 REVERT JUMPDEST POP JUMP JUMPDEST PUSH0 DUP2 CALLDATALOAD SWAP1 POP PUSH2 0x339 DUP2 PUSH2 0x315 JUMP JUMPDEST SWAP3 SWAP2 POP POP JUMP JUMPDEST PUSH0 PUSH1 0x20 DUP3 DUP5 SUB SLT ISZERO PUSH2 0x354 JUMPI PUSH2 0x353 PUSH2 0x311 JUMP JUMPDEST JUMPDEST PUSH0 PUSH2 0x361 DUP5 DUP3 DUP6 ADD PUSH2 0x32B JUMP JUMPDEST SWAP2 POP POP SWAP3 SWAP2 POP POP JUMP JUMPDEST PUSH0 PUSH20 0xFFFFFFFFFFFFFFFFFFFFFFFFFFFFFFFFFFFFFFFF DUP3 AND SWAP1 POP SWAP2 SWAP1 POP JUMP JUMPDEST PUSH0 PUSH2 0x393 DUP3 PUSH2 0x36A JUMP JUMPDEST SWAP1 POP SWAP2 SWAP1 POP JUMP JUMPDEST PUSH2 0x3A3 DUP2 PUSH2 0x389 JUMP JUMPDEST DUP3 MSTORE POP POP JUMP JUMPDEST PUSH0 PUSH1 0x20 DUP3 ADD SWAP1 POP PUSH2 0x3BC PUSH0 DUP4 ADD DUP5 PUSH2 0x39A JUMP JUMPDEST SWAP3 SWAP2 POP POP JUMP JUMPDEST PUSH32 0x4E487B7100000000000000000000000000000000000000000000000000000000 PUSH0 MSTORE PUSH1 0x11 PUSH1 0x4 MSTORE PUSH1 0x24 PUSH0 REVERT JUMPDEST PUSH0 PUSH2 0x3F9 DUP3 PUSH2 0x2AD JUMP JUMPDEST SWAP2 POP PUSH2 0x404 DUP4 PUSH2 0x2AD JUMP JUMPDEST SWAP3 POP DUP3 DUP3 ADD SWAP1 POP DUP1 DUP3 GT ISZERO PUSH2 0x41C JUMPI PUSH2 0x41B PUSH2 0x3C2 JUMP JUMPDEST JUMPDEST SWAP3 SWAP2 POP POP JUMP JUMPDEST PUSH0 DUP3 DUP3 MSTORE PUSH1 0x20 DUP3 ADD SWAP1 POP SWAP3 SWAP2 POP POP JUMP JUMPDEST PUSH32 0x6E6F742074696D65206C6F636B00000000000000000000000000000000000000 PUSH0 DUP3 ADD MSTORE POP JUMP JUMPDEST PUSH0 PUSH2 0x466 PUSH1 0xD DUP4 PUSH2 0x422 JUMP JUMPDEST SWAP2 POP PUSH2 0x471 DUP3 PUSH2 0x432 JUMP JUMPDEST PUSH1 0x20 DUP3 ADD SWAP1 POP SWAP2 SWAP1 POP JUMP JUMPDEST PUSH0 PUSH1 0x20 DUP3 ADD SWAP1 POP DUP2 DUP2 SUB PUSH0 DUP4 ADD MSTORE PUSH2 0x493 DUP2 PUSH2 0x45A JUMP JUMPDEST SWAP1 POP SWAP2 SWAP1 POP JUMP JUMPDEST PUSH32 0x63616E6E6F74206578656375746520746869732066756E6374696F6E00000000 PUSH0 DUP3 ADD MSTORE POP JUMP JUMPDEST PUSH0 PUSH2 0x4CE PUSH1 0x1C DUP4 PUSH2 0x422 JUMP JUMPDEST SWAP2 POP PUSH2 0x4D9 DUP3 PUSH2 0x49A JUMP JUMPDEST PUSH1 0x20 DUP3 ADD SWAP1 POP SWAP2 SWAP1 POP JUMP JUMPDEST PUSH0 PUSH1 0x20 DUP3 ADD SWAP1 POP DUP2 DUP2 SUB PUSH0 DUP4 ADD MSTORE PUSH2 0x4FB DUP2 PUSH2 0x4C2 JUMP JUMPDEST SWAP1 POP SWAP2 SWAP1 POP JUMP INVALID LOG2 PUSH5 0x6970667358 0x22 SLT KECCAK256 0xE4 SWAP16 DUP5 PUSH19 0xB77D86238D09278849775D12C68CE6C544B840 DIV OR 0xEF SWAP16 0x1F CHAINID INVALID SWAP12 ADDMOD PUSH5 0x736F6C6343 STOP ADDMOD AND STOP CALLER "
		},
		"gasEstimates": {
			"creation": {
				"codeDepositCost": "267200",
				"executionCost": "infinite",
				"totalCost": "infinite"
			},
			"external": {
				"": "220",
				"canExecute()": "2538",
				"executed()": "2516",
				"func()": "28869",
				"getTimestamp()": "infinite",
				"setCanExecute(bool)": "24767",
				"timeLock()": "2593"
			}
		},
		"methodIdentifiers": {
			"canExecute()": "78b90337",
			"executed()": "31a38c89",
			"func()": "bfa814b5",
			"getTimestamp()": "188ec356",
			"setCanExecute(bool)": "bd4315f9",
			"timeLock()": "d085835a"
		}
	},
	"abi": [
		{
			"inputs": [
				{
					"internalType": "address",
					"name": "_timeLock",
					"type": "address"
				}
			],
			"stateMutability": "nonpayable",
			"type": "constructor"
		},
		{
			"stateMutability": "nonpayable",
			"type": "fallback"
		},
		{
			"inputs": [],
			"name": "canExecute",
			"outputs": [
				{
					"internalType": "bool",
					"name": "",
					"type": "bool"
				}
			],
			"stateMutability": "view",
			"type": "function"
		},
		{
			"inputs": [],
			"name": "executed",
			"outputs": [
				{
					"internalType": "bool",
					"name": "",
					"type": "bool"
				}
			],
			"stateMutability": "view",
			"type": "function"
		},
		{
			"inputs": [],
			"name": "func",
			"outputs": [],
			"stateMutability": "payable",
			"type": "function"
		},
		{
			"inputs": [],
			"name": "getTimestamp",
			"outputs": [
				{
					"internalType": "uint256",
					"name": "",
					"type": "uint256"
				}
			],
			"stateMutability": "view",
			"type": "function"
		},
		{
			"inputs": [
				{
					"internalType": "bool",
					"name": "_canExecute",
					"type": "bool"
				}
			],
			"name": "setCanExecute",
			"outputs": [],
			"stateMutability": "nonpayable",
			"type": "function"
		},
		{
			"inputs": [],
			"name": "timeLock",
			"outputs": [
				{
					"internalType": "address",
					"name": "",
					"type": "address"
				}
			],
			"stateMutability": "view",
			"type": "function"
		}
	]
}