{
	"Modules/Security/11. Reentrancy Guard.sol": {
		"ReentrancyGuard": {
			"abi": [
				{
					"inputs": [],
					"name": "count",
					"outputs": [
						{
							"internalType": "uint256",
							"name": "",
							"type": "uint256"
						}
					],
					"stateMutability": "view",
					"type": "function"
				},
				{
					"inputs": [
						{
							"internalType": "address",
							"name": "target",
							"type": "address"
						}
					],
					"name": "exec",
					"outputs": [],
					"stateMutability": "nonpayable",
					"type": "function"
				}
			],
			"devdoc": {
				"kind": "dev",
				"methods": {},
				"version": 1
			},
			"evm": {
				"assembly": "    /* \"Modules/Security/11. Reentrancy Guard.sol\":607:1025  contract ReentrancyGuard {... */\n  mstore(0x40, 0x80)\n  callvalue\n  dup1\n  iszero\n  tag_1\n  jumpi\n  0x00\n  dup1\n  revert\ntag_1:\n  pop\n  dataSize(sub_0)\n  dup1\n  dataOffset(sub_0)\n  0x00\n  codecopy\n  0x00\n  return\nstop\n\nsub_0: assembly {\n        /* \"Modules/Security/11. Reentrancy Guard.sol\":607:1025  contract ReentrancyGuard {... */\n      mstore(0x40, 0x80)\n      callvalue\n      dup1\n      iszero\n      tag_1\n      jumpi\n      0x00\n      dup1\n      revert\n    tag_1:\n      pop\n      jumpi(tag_2, lt(calldatasize, 0x04))\n      shr(0xe0, calldataload(0x00))\n      dup1\n      0x06661abd\n      eq\n      tag_3\n      jumpi\n      dup1\n      0x6bb6126e\n      eq\n      tag_4\n      jumpi\n    tag_2:\n      0x00\n      dup1\n      revert\n        /* \"Modules/Security/11. Reentrancy Guard.sol\":703:723  uint256 public count */\n    tag_3:\n      tag_5\n      tag_6\n      jump\t// in\n    tag_5:\n      mload(0x40)\n      tag_7\n      swap2\n      swap1\n      tag_8\n      jump\t// in\n    tag_7:\n      mload(0x40)\n      dup1\n      swap2\n      sub\n      swap1\n      return\n        /* \"Modules/Security/11. Reentrancy Guard.sol\":878:1023  function exec(address target) external lock {... */\n    tag_4:\n      tag_9\n      0x04\n      dup1\n      calldatasize\n      sub\n      dup2\n      add\n      swap1\n      tag_10\n      swap2\n      swap1\n      tag_11\n      jump\t// in\n    tag_10:\n      tag_12\n      jump\t// in\n    tag_9:\n      stop\n        /* \"Modules/Security/11. Reentrancy Guard.sol\":703:723  uint256 public count */\n    tag_6:\n      sload(0x00)\n      dup2\n      jump\t// out\n        /* \"Modules/Security/11. Reentrancy Guard.sol\":878:1023  function exec(address target) external lock {... */\n    tag_12:\n        /* \"Modules/Security/11. Reentrancy Guard.sol\":790:796  locked */\n      0x01\n      0x00\n      swap1\n      sload\n      swap1\n      0x0100\n      exp\n      swap1\n      div\n      0xff\n      and\n        /* \"Modules/Security/11. Reentrancy Guard.sol\":789:796  !locked */\n      iszero\n        /* \"Modules/Security/11. Reentrancy Guard.sol\":781:807  require(!locked, \"locked\") */\n      tag_14\n      jumpi\n      mload(0x40)\n      0x08c379a000000000000000000000000000000000000000000000000000000000\n      dup2\n      mstore\n      0x04\n      add\n      tag_15\n      swap1\n      tag_16\n      jump\t// in\n    tag_15:\n      mload(0x40)\n      dup1\n      swap2\n      sub\n      swap1\n      revert\n    tag_14:\n        /* \"Modules/Security/11. Reentrancy Guard.sol\":826:830  true */\n      0x01\n        /* \"Modules/Security/11. Reentrancy Guard.sol\":817:823  locked */\n      dup1\n      0x00\n        /* \"Modules/Security/11. Reentrancy Guard.sol\":817:830  locked = true */\n      0x0100\n      exp\n      dup2\n      sload\n      dup2\n      0xff\n      mul\n      not\n      and\n      swap1\n      dup4\n      iszero\n      iszero\n      mul\n      or\n      swap1\n      sstore\n      pop\n        /* \"Modules/Security/11. Reentrancy Guard.sol\":933:940  bool ok */\n      0x00\n        /* \"Modules/Security/11. Reentrancy Guard.sol\":945:951  target */\n      dup2\n        /* \"Modules/Security/11. Reentrancy Guard.sol\":945:956  target.call */\n      0xffffffffffffffffffffffffffffffffffffffff\n      and\n        /* \"Modules/Security/11. Reentrancy Guard.sol\":945:960  target.call(\"\") */\n      mload(0x40)\n      tag_18\n      swap1\n      tag_19\n      jump\t// in\n    tag_18:\n      0x00\n      mload(0x40)\n      dup1\n      dup4\n      sub\n      dup2\n      0x00\n      dup7\n      gas\n      call\n      swap2\n      pop\n      pop\n      returndatasize\n      dup1\n      0x00\n      dup2\n      eq\n      tag_22\n      jumpi\n      mload(0x40)\n      swap2\n      pop\n      and(add(returndatasize, 0x3f), not(0x1f))\n      dup3\n      add\n      0x40\n      mstore\n      returndatasize\n      dup3\n      mstore\n      returndatasize\n      0x00\n      0x20\n      dup5\n      add\n      returndatacopy\n      jump(tag_21)\n    tag_22:\n      0x60\n      swap2\n      pop\n    tag_21:\n      pop\n        /* \"Modules/Security/11. Reentrancy Guard.sol\":932:960  (bool ok,) = target.call(\"\") */\n      pop\n      swap1\n      pop\n        /* \"Modules/Security/11. Reentrancy Guard.sol\":978:980  ok */\n      dup1\n        /* \"Modules/Security/11. Reentrancy Guard.sol\":970:996  require(ok, \"call failed\") */\n      tag_23\n      jumpi\n      mload(0x40)\n      0x08c379a000000000000000000000000000000000000000000000000000000000\n      dup2\n      mstore\n      0x04\n      add\n      tag_24\n      swap1\n      tag_25\n      jump\t// in\n    tag_24:\n      mload(0x40)\n      dup1\n      swap2\n      sub\n      swap1\n      revert\n    tag_23:\n        /* \"Modules/Security/11. Reentrancy Guard.sol\":1015:1016  1 */\n      0x01\n        /* \"Modules/Security/11. Reentrancy Guard.sol\":1006:1011  count */\n      0x00\n      dup1\n        /* \"Modules/Security/11. Reentrancy Guard.sol\":1006:1016  count += 1 */\n      dup3\n      dup3\n      sload\n      tag_26\n      swap2\n      swap1\n      tag_27\n      jump\t// in\n    tag_26:\n      swap3\n      pop\n      pop\n      dup2\n      swap1\n      sstore\n      pop\n        /* \"Modules/Security/11. Reentrancy Guard.sol\":922:1023  {... */\n      pop\n        /* \"Modules/Security/11. Reentrancy Guard.sol\":860:865  false */\n      0x00\n        /* \"Modules/Security/11. Reentrancy Guard.sol\":851:857  locked */\n      0x01\n      0x00\n        /* \"Modules/Security/11. Reentrancy Guard.sol\":851:865  locked = false */\n      0x0100\n      exp\n      dup2\n      sload\n      dup2\n      0xff\n      mul\n      not\n      and\n      swap1\n      dup4\n      iszero\n      iszero\n      mul\n      or\n      swap1\n      sstore\n      pop\n        /* \"Modules/Security/11. Reentrancy Guard.sol\":878:1023  function exec(address target) external lock {... */\n      pop\n      jump\t// out\n        /* \"#utility.yul\":7:84   */\n    tag_28:\n        /* \"#utility.yul\":44:51   */\n      0x00\n        /* \"#utility.yul\":73:78   */\n      dup2\n        /* \"#utility.yul\":62:78   */\n      swap1\n      pop\n        /* \"#utility.yul\":7:84   */\n      swap2\n      swap1\n      pop\n      jump\t// out\n        /* \"#utility.yul\":90:208   */\n    tag_29:\n        /* \"#utility.yul\":177:201   */\n      tag_49\n        /* \"#utility.yul\":195:200   */\n      dup2\n        /* \"#utility.yul\":177:201   */\n      tag_28\n      jump\t// in\n    tag_49:\n        /* \"#utility.yul\":172:175   */\n      dup3\n        /* \"#utility.yul\":165:202   */\n      mstore\n        /* \"#utility.yul\":90:208   */\n      pop\n      pop\n      jump\t// out\n        /* \"#utility.yul\":214:436   */\n    tag_8:\n        /* \"#utility.yul\":307:311   */\n      0x00\n        /* \"#utility.yul\":345:347   */\n      0x20\n        /* \"#utility.yul\":334:343   */\n      dup3\n        /* \"#utility.yul\":330:348   */\n      add\n        /* \"#utility.yul\":322:348   */\n      swap1\n      pop\n        /* \"#utility.yul\":358:429   */\n      tag_51\n        /* \"#utility.yul\":426:427   */\n      0x00\n        /* \"#utility.yul\":415:424   */\n      dup4\n        /* \"#utility.yul\":411:428   */\n      add\n        /* \"#utility.yul\":402:408   */\n      dup5\n        /* \"#utility.yul\":358:429   */\n      tag_29\n      jump\t// in\n    tag_51:\n        /* \"#utility.yul\":214:436   */\n      swap3\n      swap2\n      pop\n      pop\n      jump\t// out\n        /* \"#utility.yul\":523:640   */\n    tag_31:\n        /* \"#utility.yul\":632:633   */\n      0x00\n        /* \"#utility.yul\":629:630   */\n      dup1\n        /* \"#utility.yul\":622:634   */\n      revert\n        /* \"#utility.yul\":769:895   */\n    tag_33:\n        /* \"#utility.yul\":806:813   */\n      0x00\n        /* \"#utility.yul\":846:888   */\n      0xffffffffffffffffffffffffffffffffffffffff\n        /* \"#utility.yul\":839:844   */\n      dup3\n        /* \"#utility.yul\":835:889   */\n      and\n        /* \"#utility.yul\":824:889   */\n      swap1\n      pop\n        /* \"#utility.yul\":769:895   */\n      swap2\n      swap1\n      pop\n      jump\t// out\n        /* \"#utility.yul\":901:997   */\n    tag_34:\n        /* \"#utility.yul\":938:945   */\n      0x00\n        /* \"#utility.yul\":967:991   */\n      tag_57\n        /* \"#utility.yul\":985:990   */\n      dup3\n        /* \"#utility.yul\":967:991   */\n      tag_33\n      jump\t// in\n    tag_57:\n        /* \"#utility.yul\":956:991   */\n      swap1\n      pop\n        /* \"#utility.yul\":901:997   */\n      swap2\n      swap1\n      pop\n      jump\t// out\n        /* \"#utility.yul\":1003:1125   */\n    tag_35:\n        /* \"#utility.yul\":1076:1100   */\n      tag_59\n        /* \"#utility.yul\":1094:1099   */\n      dup2\n        /* \"#utility.yul\":1076:1100   */\n      tag_34\n      jump\t// in\n    tag_59:\n        /* \"#utility.yul\":1069:1074   */\n      dup2\n        /* \"#utility.yul\":1066:1101   */\n      eq\n        /* \"#utility.yul\":1056:1119   */\n      tag_60\n      jumpi\n        /* \"#utility.yul\":1115:1116   */\n      0x00\n        /* \"#utility.yul\":1112:1113   */\n      dup1\n        /* \"#utility.yul\":1105:1117   */\n      revert\n        /* \"#utility.yul\":1056:1119   */\n    tag_60:\n        /* \"#utility.yul\":1003:1125   */\n      pop\n      jump\t// out\n        /* \"#utility.yul\":1131:1270   */\n    tag_36:\n        /* \"#utility.yul\":1177:1182   */\n      0x00\n        /* \"#utility.yul\":1215:1221   */\n      dup2\n        /* \"#utility.yul\":1202:1222   */\n      calldataload\n        /* \"#utility.yul\":1193:1222   */\n      swap1\n      pop\n        /* \"#utility.yul\":1231:1264   */\n      tag_62\n        /* \"#utility.yul\":1258:1263   */\n      dup2\n        /* \"#utility.yul\":1231:1264   */\n      tag_35\n      jump\t// in\n    tag_62:\n        /* \"#utility.yul\":1131:1270   */\n      swap3\n      swap2\n      pop\n      pop\n      jump\t// out\n        /* \"#utility.yul\":1276:1605   */\n    tag_11:\n        /* \"#utility.yul\":1335:1341   */\n      0x00\n        /* \"#utility.yul\":1384:1386   */\n      0x20\n        /* \"#utility.yul\":1372:1381   */\n      dup3\n        /* \"#utility.yul\":1363:1370   */\n      dup5\n        /* \"#utility.yul\":1359:1382   */\n      sub\n        /* \"#utility.yul\":1355:1387   */\n      slt\n        /* \"#utility.yul\":1352:1471   */\n      iszero\n      tag_64\n      jumpi\n        /* \"#utility.yul\":1390:1469   */\n      tag_65\n      tag_31\n      jump\t// in\n    tag_65:\n        /* \"#utility.yul\":1352:1471   */\n    tag_64:\n        /* \"#utility.yul\":1510:1511   */\n      0x00\n        /* \"#utility.yul\":1535:1588   */\n      tag_66\n        /* \"#utility.yul\":1580:1587   */\n      dup5\n        /* \"#utility.yul\":1571:1577   */\n      dup3\n        /* \"#utility.yul\":1560:1569   */\n      dup6\n        /* \"#utility.yul\":1556:1578   */\n      add\n        /* \"#utility.yul\":1535:1588   */\n      tag_36\n      jump\t// in\n    tag_66:\n        /* \"#utility.yul\":1525:1588   */\n      swap2\n      pop\n        /* \"#utility.yul\":1481:1598   */\n      pop\n        /* \"#utility.yul\":1276:1605   */\n      swap3\n      swap2\n      pop\n      pop\n      jump\t// out\n        /* \"#utility.yul\":1611:1780   */\n    tag_37:\n        /* \"#utility.yul\":1695:1706   */\n      0x00\n        /* \"#utility.yul\":1729:1735   */\n      dup3\n        /* \"#utility.yul\":1724:1727   */\n      dup3\n        /* \"#utility.yul\":1717:1736   */\n      mstore\n        /* \"#utility.yul\":1769:1773   */\n      0x20\n        /* \"#utility.yul\":1764:1767   */\n      dup3\n        /* \"#utility.yul\":1760:1774   */\n      add\n        /* \"#utility.yul\":1745:1774   */\n      swap1\n      pop\n        /* \"#utility.yul\":1611:1780   */\n      swap3\n      swap2\n      pop\n      pop\n      jump\t// out\n        /* \"#utility.yul\":1786:1942   */\n    tag_38:\n        /* \"#utility.yul\":1926:1934   */\n      0x6c6f636b65640000000000000000000000000000000000000000000000000000\n        /* \"#utility.yul\":1922:1923   */\n      0x00\n        /* \"#utility.yul\":1914:1920   */\n      dup3\n        /* \"#utility.yul\":1910:1924   */\n      add\n        /* \"#utility.yul\":1903:1935   */\n      mstore\n        /* \"#utility.yul\":1786:1942   */\n      pop\n      jump\t// out\n        /* \"#utility.yul\":1948:2313   */\n    tag_39:\n        /* \"#utility.yul\":2090:2093   */\n      0x00\n        /* \"#utility.yul\":2111:2177   */\n      tag_70\n        /* \"#utility.yul\":2175:2176   */\n      0x06\n        /* \"#utility.yul\":2170:2173   */\n      dup4\n        /* \"#utility.yul\":2111:2177   */\n      tag_37\n      jump\t// in\n    tag_70:\n        /* \"#utility.yul\":2104:2177   */\n      swap2\n      pop\n        /* \"#utility.yul\":2186:2279   */\n      tag_71\n        /* \"#utility.yul\":2275:2278   */\n      dup3\n        /* \"#utility.yul\":2186:2279   */\n      tag_38\n      jump\t// in\n    tag_71:\n        /* \"#utility.yul\":2304:2306   */\n      0x20\n        /* \"#utility.yul\":2299:2302   */\n      dup3\n        /* \"#utility.yul\":2295:2307   */\n      add\n        /* \"#utility.yul\":2288:2307   */\n      swap1\n      pop\n        /* \"#utility.yul\":1948:2313   */\n      swap2\n      swap1\n      pop\n      jump\t// out\n        /* \"#utility.yul\":2319:2738   */\n    tag_16:\n        /* \"#utility.yul\":2485:2489   */\n      0x00\n        /* \"#utility.yul\":2523:2525   */\n      0x20\n        /* \"#utility.yul\":2512:2521   */\n      dup3\n        /* \"#utility.yul\":2508:2526   */\n      add\n        /* \"#utility.yul\":2500:2526   */\n      swap1\n      pop\n        /* \"#utility.yul\":2572:2581   */\n      dup2\n        /* \"#utility.yul\":2566:2570   */\n      dup2\n        /* \"#utility.yul\":2562:2582   */\n      sub\n        /* \"#utility.yul\":2558:2559   */\n      0x00\n        /* \"#utility.yul\":2547:2556   */\n      dup4\n        /* \"#utility.yul\":2543:2560   */\n      add\n        /* \"#utility.yul\":2536:2583   */\n      mstore\n        /* \"#utility.yul\":2600:2731   */\n      tag_73\n        /* \"#utility.yul\":2726:2730   */\n      dup2\n        /* \"#utility.yul\":2600:2731   */\n      tag_39\n      jump\t// in\n    tag_73:\n        /* \"#utility.yul\":2592:2731   */\n      swap1\n      pop\n        /* \"#utility.yul\":2319:2738   */\n      swap2\n      swap1\n      pop\n      jump\t// out\n        /* \"#utility.yul\":2744:2891   */\n    tag_40:\n        /* \"#utility.yul\":2845:2856   */\n      0x00\n        /* \"#utility.yul\":2882:2885   */\n      dup2\n        /* \"#utility.yul\":2867:2885   */\n      swap1\n      pop\n        /* \"#utility.yul\":2744:2891   */\n      swap3\n      swap2\n      pop\n      pop\n      jump\t// out\n        /* \"#utility.yul\":2897:3011   */\n    tag_41:\n      pop\n      jump\t// out\n        /* \"#utility.yul\":3017:3415   */\n    tag_42:\n        /* \"#utility.yul\":3176:3179   */\n      0x00\n        /* \"#utility.yul\":3197:3280   */\n      tag_77\n        /* \"#utility.yul\":3278:3279   */\n      0x00\n        /* \"#utility.yul\":3273:3276   */\n      dup4\n        /* \"#utility.yul\":3197:3280   */\n      tag_40\n      jump\t// in\n    tag_77:\n        /* \"#utility.yul\":3190:3280   */\n      swap2\n      pop\n        /* \"#utility.yul\":3289:3382   */\n      tag_78\n        /* \"#utility.yul\":3378:3381   */\n      dup3\n        /* \"#utility.yul\":3289:3382   */\n      tag_41\n      jump\t// in\n    tag_78:\n        /* \"#utility.yul\":3407:3408   */\n      0x00\n        /* \"#utility.yul\":3402:3405   */\n      dup3\n        /* \"#utility.yul\":3398:3409   */\n      add\n        /* \"#utility.yul\":3391:3409   */\n      swap1\n      pop\n        /* \"#utility.yul\":3017:3415   */\n      swap2\n      swap1\n      pop\n      jump\t// out\n        /* \"#utility.yul\":3421:3800   */\n    tag_19:\n        /* \"#utility.yul\":3605:3608   */\n      0x00\n        /* \"#utility.yul\":3627:3774   */\n      tag_80\n        /* \"#utility.yul\":3770:3773   */\n      dup3\n        /* \"#utility.yul\":3627:3774   */\n      tag_42\n      jump\t// in\n    tag_80:\n        /* \"#utility.yul\":3620:3774   */\n      swap2\n      pop\n        /* \"#utility.yul\":3791:3794   */\n      dup2\n        /* \"#utility.yul\":3784:3794   */\n      swap1\n      pop\n        /* \"#utility.yul\":3421:3800   */\n      swap2\n      swap1\n      pop\n      jump\t// out\n        /* \"#utility.yul\":3806:3967   */\n    tag_43:\n        /* \"#utility.yul\":3946:3959   */\n      0x63616c6c206661696c6564000000000000000000000000000000000000000000\n        /* \"#utility.yul\":3942:3943   */\n      0x00\n        /* \"#utility.yul\":3934:3940   */\n      dup3\n        /* \"#utility.yul\":3930:3944   */\n      add\n        /* \"#utility.yul\":3923:3960   */\n      mstore\n        /* \"#utility.yul\":3806:3967   */\n      pop\n      jump\t// out\n        /* \"#utility.yul\":3973:4339   */\n    tag_44:\n        /* \"#utility.yul\":4115:4118   */\n      0x00\n        /* \"#utility.yul\":4136:4203   */\n      tag_83\n        /* \"#utility.yul\":4200:4202   */\n      0x0b\n        /* \"#utility.yul\":4195:4198   */\n      dup4\n        /* \"#utility.yul\":4136:4203   */\n      tag_37\n      jump\t// in\n    tag_83:\n        /* \"#utility.yul\":4129:4203   */\n      swap2\n      pop\n        /* \"#utility.yul\":4212:4305   */\n      tag_84\n        /* \"#utility.yul\":4301:4304   */\n      dup3\n        /* \"#utility.yul\":4212:4305   */\n      tag_43\n      jump\t// in\n    tag_84:\n        /* \"#utility.yul\":4330:4332   */\n      0x20\n        /* \"#utility.yul\":4325:4328   */\n      dup3\n        /* \"#utility.yul\":4321:4333   */\n      add\n        /* \"#utility.yul\":4314:4333   */\n      swap1\n      pop\n        /* \"#utility.yul\":3973:4339   */\n      swap2\n      swap1\n      pop\n      jump\t// out\n        /* \"#utility.yul\":4345:4764   */\n    tag_25:\n        /* \"#utility.yul\":4511:4515   */\n      0x00\n        /* \"#utility.yul\":4549:4551   */\n      0x20\n        /* \"#utility.yul\":4538:4547   */\n      dup3\n        /* \"#utility.yul\":4534:4552   */\n      add\n        /* \"#utility.yul\":4526:4552   */\n      swap1\n      pop\n        /* \"#utility.yul\":4598:4607   */\n      dup2\n        /* \"#utility.yul\":4592:4596   */\n      dup2\n        /* \"#utility.yul\":4588:4608   */\n      sub\n        /* \"#utility.yul\":4584:4585   */\n      0x00\n        /* \"#utility.yul\":4573:4582   */\n      dup4\n        /* \"#utility.yul\":4569:4586   */\n      add\n        /* \"#utility.yul\":4562:4609   */\n      mstore\n        /* \"#utility.yul\":4626:4757   */\n      tag_86\n        /* \"#utility.yul\":4752:4756   */\n      dup2\n        /* \"#utility.yul\":4626:4757   */\n      tag_44\n      jump\t// in\n    tag_86:\n        /* \"#utility.yul\":4618:4757   */\n      swap1\n      pop\n        /* \"#utility.yul\":4345:4764   */\n      swap2\n      swap1\n      pop\n      jump\t// out\n        /* \"#utility.yul\":4770:4950   */\n    tag_45:\n        /* \"#utility.yul\":4818:4895   */\n      0x4e487b7100000000000000000000000000000000000000000000000000000000\n        /* \"#utility.yul\":4815:4816   */\n      0x00\n        /* \"#utility.yul\":4808:4896   */\n      mstore\n        /* \"#utility.yul\":4915:4919   */\n      0x11\n        /* \"#utility.yul\":4912:4913   */\n      0x04\n        /* \"#utility.yul\":4905:4920   */\n      mstore\n        /* \"#utility.yul\":4939:4943   */\n      0x24\n        /* \"#utility.yul\":4936:4937   */\n      0x00\n        /* \"#utility.yul\":4929:4944   */\n      revert\n        /* \"#utility.yul\":4956:5147   */\n    tag_27:\n        /* \"#utility.yul\":4996:4999   */\n      0x00\n        /* \"#utility.yul\":5015:5035   */\n      tag_89\n        /* \"#utility.yul\":5033:5034   */\n      dup3\n        /* \"#utility.yul\":5015:5035   */\n      tag_28\n      jump\t// in\n    tag_89:\n        /* \"#utility.yul\":5010:5035   */\n      swap2\n      pop\n        /* \"#utility.yul\":5049:5069   */\n      tag_90\n        /* \"#utility.yul\":5067:5068   */\n      dup4\n        /* \"#utility.yul\":5049:5069   */\n      tag_28\n      jump\t// in\n    tag_90:\n        /* \"#utility.yul\":5044:5069   */\n      swap3\n      pop\n        /* \"#utility.yul\":5092:5093   */\n      dup3\n        /* \"#utility.yul\":5089:5090   */\n      dup3\n        /* \"#utility.yul\":5085:5094   */\n      add\n        /* \"#utility.yul\":5078:5094   */\n      swap1\n      pop\n        /* \"#utility.yul\":5113:5116   */\n      dup1\n        /* \"#utility.yul\":5110:5111   */\n      dup3\n        /* \"#utility.yul\":5107:5117   */\n      gt\n        /* \"#utility.yul\":5104:5140   */\n      iszero\n      tag_91\n      jumpi\n        /* \"#utility.yul\":5120:5138   */\n      tag_92\n      tag_45\n      jump\t// in\n    tag_92:\n        /* \"#utility.yul\":5104:5140   */\n    tag_91:\n        /* \"#utility.yul\":4956:5147   */\n      swap3\n      swap2\n      pop\n      pop\n      jump\t// out\n\n    auxdata: 0xa2646970667358221220783732648591640bf8f58d34cddf0671ae60d231339b44da63df906ec03d04f064736f6c63430008160033\n}\n",
				"bytecode": {
					"linkReferences": {},
					"object": "608060405234801561000f575f80fd5b5061042b8061001d5f395ff3fe608060405234801561000f575f80fd5b5060043610610034575f3560e01c806306661abd146100385780636bb6126e14610056575b5f80fd5b610040610072565b60405161004d91906101d2565b60405180910390f35b610070600480360381019061006b9190610249565b610077565b005b5f5481565b60015f9054906101000a900460ff16156100c6576040517f08c379a00000000000000000000000000000000000000000000000000000000081526004016100bd906102ce565b60405180910390fd5b6001805f6101000a81548160ff0219169083151502179055505f8173ffffffffffffffffffffffffffffffffffffffff1660405161010390610319565b5f604051808303815f865af19150503d805f811461013c576040519150601f19603f3d011682016040523d82523d5f602084013e610141565b606091505b5050905080610185576040517f08c379a000000000000000000000000000000000000000000000000000000000815260040161017c90610377565b60405180910390fd5b60015f8082825461019691906103c2565b92505081905550505f60015f6101000a81548160ff02191690831515021790555050565b5f819050919050565b6101cc816101ba565b82525050565b5f6020820190506101e55f8301846101c3565b92915050565b5f80fd5b5f73ffffffffffffffffffffffffffffffffffffffff82169050919050565b5f610218826101ef565b9050919050565b6102288161020e565b8114610232575f80fd5b50565b5f813590506102438161021f565b92915050565b5f6020828403121561025e5761025d6101eb565b5b5f61026b84828501610235565b91505092915050565b5f82825260208201905092915050565b7f6c6f636b656400000000000000000000000000000000000000000000000000005f82015250565b5f6102b8600683610274565b91506102c382610284565b602082019050919050565b5f6020820190508181035f8301526102e5816102ac565b9050919050565b5f81905092915050565b50565b5f6103045f836102ec565b915061030f826102f6565b5f82019050919050565b5f610323826102f9565b9150819050919050565b7f63616c6c206661696c65640000000000000000000000000000000000000000005f82015250565b5f610361600b83610274565b915061036c8261032d565b602082019050919050565b5f6020820190508181035f83015261038e81610355565b9050919050565b7f4e487b71000000000000000000000000000000000000000000000000000000005f52601160045260245ffd5b5f6103cc826101ba565b91506103d7836101ba565b92508282019050808211156103ef576103ee610395565b5b9291505056fea2646970667358221220783732648591640bf8f58d34cddf0671ae60d231339b44da63df906ec03d04f064736f6c63430008160033",
					"opcodes": "PUSH1 0x80 PUSH1 0x40 MSTORE CALLVALUE DUP1 ISZERO PUSH2 0xF JUMPI PUSH0 DUP1 REVERT JUMPDEST POP PUSH2 0x42B DUP1 PUSH2 0x1D PUSH0 CODECOPY PUSH0 RETURN INVALID PUSH1 0x80 PUSH1 0x40 MSTORE CALLVALUE DUP1 ISZERO PUSH2 0xF JUMPI PUSH0 DUP1 REVERT JUMPDEST POP PUSH1 0x4 CALLDATASIZE LT PUSH2 0x34 JUMPI PUSH0 CALLDATALOAD PUSH1 0xE0 SHR DUP1 PUSH4 0x6661ABD EQ PUSH2 0x38 JUMPI DUP1 PUSH4 0x6BB6126E EQ PUSH2 0x56 JUMPI JUMPDEST PUSH0 DUP1 REVERT JUMPDEST PUSH2 0x40 PUSH2 0x72 JUMP JUMPDEST PUSH1 0x40 MLOAD PUSH2 0x4D SWAP2 SWAP1 PUSH2 0x1D2 JUMP JUMPDEST PUSH1 0x40 MLOAD DUP1 SWAP2 SUB SWAP1 RETURN JUMPDEST PUSH2 0x70 PUSH1 0x4 DUP1 CALLDATASIZE SUB DUP2 ADD SWAP1 PUSH2 0x6B SWAP2 SWAP1 PUSH2 0x249 JUMP JUMPDEST PUSH2 0x77 JUMP JUMPDEST STOP JUMPDEST PUSH0 SLOAD DUP2 JUMP JUMPDEST PUSH1 0x1 PUSH0 SWAP1 SLOAD SWAP1 PUSH2 0x100 EXP SWAP1 DIV PUSH1 0xFF AND ISZERO PUSH2 0xC6 JUMPI PUSH1 0x40 MLOAD PUSH32 0x8C379A000000000000000000000000000000000000000000000000000000000 DUP2 MSTORE PUSH1 0x4 ADD PUSH2 0xBD SWAP1 PUSH2 0x2CE JUMP JUMPDEST PUSH1 0x40 MLOAD DUP1 SWAP2 SUB SWAP1 REVERT JUMPDEST PUSH1 0x1 DUP1 PUSH0 PUSH2 0x100 EXP DUP2 SLOAD DUP2 PUSH1 0xFF MUL NOT AND SWAP1 DUP4 ISZERO ISZERO MUL OR SWAP1 SSTORE POP PUSH0 DUP2 PUSH20 0xFFFFFFFFFFFFFFFFFFFFFFFFFFFFFFFFFFFFFFFF AND PUSH1 0x40 MLOAD PUSH2 0x103 SWAP1 PUSH2 0x319 JUMP JUMPDEST PUSH0 PUSH1 0x40 MLOAD DUP1 DUP4 SUB DUP2 PUSH0 DUP7 GAS CALL SWAP2 POP POP RETURNDATASIZE DUP1 PUSH0 DUP2 EQ PUSH2 0x13C JUMPI PUSH1 0x40 MLOAD SWAP2 POP PUSH1 0x1F NOT PUSH1 0x3F RETURNDATASIZE ADD AND DUP3 ADD PUSH1 0x40 MSTORE RETURNDATASIZE DUP3 MSTORE RETURNDATASIZE PUSH0 PUSH1 0x20 DUP5 ADD RETURNDATACOPY PUSH2 0x141 JUMP JUMPDEST PUSH1 0x60 SWAP2 POP JUMPDEST POP POP SWAP1 POP DUP1 PUSH2 0x185 JUMPI PUSH1 0x40 MLOAD PUSH32 0x8C379A000000000000000000000000000000000000000000000000000000000 DUP2 MSTORE PUSH1 0x4 ADD PUSH2 0x17C SWAP1 PUSH2 0x377 JUMP JUMPDEST PUSH1 0x40 MLOAD DUP1 SWAP2 SUB SWAP1 REVERT JUMPDEST PUSH1 0x1 PUSH0 DUP1 DUP3 DUP3 SLOAD PUSH2 0x196 SWAP2 SWAP1 PUSH2 0x3C2 JUMP JUMPDEST SWAP3 POP POP DUP2 SWAP1 SSTORE POP POP PUSH0 PUSH1 0x1 PUSH0 PUSH2 0x100 EXP DUP2 SLOAD DUP2 PUSH1 0xFF MUL NOT AND SWAP1 DUP4 ISZERO ISZERO MUL OR SWAP1 SSTORE POP POP JUMP JUMPDEST PUSH0 DUP2 SWAP1 POP SWAP2 SWAP1 POP JUMP JUMPDEST PUSH2 0x1CC DUP2 PUSH2 0x1BA JUMP JUMPDEST DUP3 MSTORE POP POP JUMP JUMPDEST PUSH0 PUSH1 0x20 DUP3 ADD SWAP1 POP PUSH2 0x1E5 PUSH0 DUP4 ADD DUP5 PUSH2 0x1C3 JUMP JUMPDEST SWAP3 SWAP2 POP POP JUMP JUMPDEST PUSH0 DUP1 REVERT JUMPDEST PUSH0 PUSH20 0xFFFFFFFFFFFFFFFFFFFFFFFFFFFFFFFFFFFFFFFF DUP3 AND SWAP1 POP SWAP2 SWAP1 POP JUMP JUMPDEST PUSH0 PUSH2 0x218 DUP3 PUSH2 0x1EF JUMP JUMPDEST SWAP1 POP SWAP2 SWAP1 POP JUMP JUMPDEST PUSH2 0x228 DUP2 PUSH2 0x20E JUMP JUMPDEST DUP2 EQ PUSH2 0x232 JUMPI PUSH0 DUP1 REVERT JUMPDEST POP JUMP JUMPDEST PUSH0 DUP2 CALLDATALOAD SWAP1 POP PUSH2 0x243 DUP2 PUSH2 0x21F JUMP JUMPDEST SWAP3 SWAP2 POP POP JUMP JUMPDEST PUSH0 PUSH1 0x20 DUP3 DUP5 SUB SLT ISZERO PUSH2 0x25E JUMPI PUSH2 0x25D PUSH2 0x1EB JUMP JUMPDEST JUMPDEST PUSH0 PUSH2 0x26B DUP5 DUP3 DUP6 ADD PUSH2 0x235 JUMP JUMPDEST SWAP2 POP POP SWAP3 SWAP2 POP POP JUMP JUMPDEST PUSH0 DUP3 DUP3 MSTORE PUSH1 0x20 DUP3 ADD SWAP1 POP SWAP3 SWAP2 POP POP JUMP JUMPDEST PUSH32 0x6C6F636B65640000000000000000000000000000000000000000000000000000 PUSH0 DUP3 ADD MSTORE POP JUMP JUMPDEST PUSH0 PUSH2 0x2B8 PUSH1 0x6 DUP4 PUSH2 0x274 JUMP JUMPDEST SWAP2 POP PUSH2 0x2C3 DUP3 PUSH2 0x284 JUMP JUMPDEST PUSH1 0x20 DUP3 ADD SWAP1 POP SWAP2 SWAP1 POP JUMP JUMPDEST PUSH0 PUSH1 0x20 DUP3 ADD SWAP1 POP DUP2 DUP2 SUB PUSH0 DUP4 ADD MSTORE PUSH2 0x2E5 DUP2 PUSH2 0x2AC JUMP JUMPDEST SWAP1 POP SWAP2 SWAP1 POP JUMP JUMPDEST PUSH0 DUP2 SWAP1 POP SWAP3 SWAP2 POP POP JUMP JUMPDEST POP JUMP JUMPDEST PUSH0 PUSH2 0x304 PUSH0 DUP4 PUSH2 0x2EC JUMP JUMPDEST SWAP2 POP PUSH2 0x30F DUP3 PUSH2 0x2F6 JUMP JUMPDEST PUSH0 DUP3 ADD SWAP1 POP SWAP2 SWAP1 POP JUMP JUMPDEST PUSH0 PUSH2 0x323 DUP3 PUSH2 0x2F9 JUMP JUMPDEST SWAP2 POP DUP2 SWAP1 POP SWAP2 SWAP1 POP JUMP JUMPDEST PUSH32 0x63616C6C206661696C6564000000000000000000000000000000000000000000 PUSH0 DUP3 ADD MSTORE POP JUMP JUMPDEST PUSH0 PUSH2 0x361 PUSH1 0xB DUP4 PUSH2 0x274 JUMP JUMPDEST SWAP2 POP PUSH2 0x36C DUP3 PUSH2 0x32D JUMP JUMPDEST PUSH1 0x20 DUP3 ADD SWAP1 POP SWAP2 SWAP1 POP JUMP JUMPDEST PUSH0 PUSH1 0x20 DUP3 ADD SWAP1 POP DUP2 DUP2 SUB PUSH0 DUP4 ADD MSTORE PUSH2 0x38E DUP2 PUSH2 0x355 JUMP JUMPDEST SWAP1 POP SWAP2 SWAP1 POP JUMP JUMPDEST PUSH32 0x4E487B7100000000000000000000000000000000000000000000000000000000 PUSH0 MSTORE PUSH1 0x11 PUSH1 0x4 MSTORE PUSH1 0x24 PUSH0 REVERT JUMPDEST PUSH0 PUSH2 0x3CC DUP3 PUSH2 0x1BA JUMP JUMPDEST SWAP2 POP PUSH2 0x3D7 DUP4 PUSH2 0x1BA JUMP JUMPDEST SWAP3 POP DUP3 DUP3 ADD SWAP1 POP DUP1 DUP3 GT ISZERO PUSH2 0x3EF JUMPI PUSH2 0x3EE PUSH2 0x395 JUMP JUMPDEST JUMPDEST SWAP3 SWAP2 POP POP JUMP INVALID LOG2 PUSH5 0x6970667358 0x22 SLT KECCAK256 PUSH25 0x3732648591640BF8F58D34CDDF0671AE60D231339B44DA63DF SWAP1 PUSH15 0xC03D04F064736F6C63430008160033 "
				},
				"gasEstimates": {
					"creation": {
						"codeDepositCost": "213400",
						"executionCost": "255",
						"totalCost": "213655"
					},
					"external": {
						"count()": "2402",
						"exec(address)": "infinite"
					}
				},
				"methodIdentifiers": {
					"count()": "06661abd",
					"exec(address)": "6bb6126e"
				}
			},
			"storageLayout": {
				"storage": [
					{
						"astId": 51,
						"contract": "Modules/Security/11. Reentrancy Guard.sol:ReentrancyGuard",
						"label": "count",
						"offset": 0,
						"slot": "0",
						"type": "t_uint256"
					},
					{
						"astId": 53,
						"contract": "Modules/Security/11. Reentrancy Guard.sol:ReentrancyGuard",
						"label": "locked",
						"offset": 0,
						"slot": "1",
						"type": "t_bool"
					}
				],
				"types": {
					"t_bool": {
						"encoding": "inplace",
						"label": "bool",
						"numberOfBytes": "1"
					},
					"t_uint256": {
						"encoding": "inplace",
						"label": "uint256",
						"numberOfBytes": "32"
					}
				}
			},
			"userdoc": {
				"kind": "user",
				"methods": {},
				"version": 1
			}
		}
	}
}