{
	"Modules/Security/11. Reentrancy Guard.sol": {
		"TestReentrancyGuard": {
			"abi": [
				{
					"inputs": [
						{
							"internalType": "uint256",
							"name": "_max",
							"type": "uint256"
						}
					],
					"stateMutability": "nonpayable",
					"type": "constructor"
				},
				{
					"stateMutability": "nonpayable",
					"type": "fallback"
				},
				{
					"inputs": [],
					"name": "count",
					"outputs": [
						{
							"internalType": "uint256",
							"name": "",
							"type": "uint256"
						}
					],
					"stateMutability": "view",
					"type": "function"
				},
				{
					"inputs": [],
					"name": "max",
					"outputs": [
						{
							"internalType": "uint256",
							"name": "",
							"type": "uint256"
						}
					],
					"stateMutability": "view",
					"type": "function"
				}
			],
			"devdoc": {
				"kind": "dev",
				"methods": {},
				"version": 1
			},
			"evm": {
				"assembly": "    /* \"Modules/Security/11. Reentrancy Guard.sol\":58:605  contract TestReentrancyGuard {... */\n  mstore(0x40, 0xa0)\n    /* \"Modules/Security/11. Reentrancy Guard.sol\":271:324  constructor(uint256 _max) {... */\n  callvalue\n  dup1\n  iszero\n  tag_1\n  jumpi\n  0x00\n  dup1\n  revert\ntag_1:\n  pop\n  mload(0x40)\n  sub(codesize, bytecodeSize)\n  dup1\n  bytecodeSize\n  dup4\n  codecopy\n  dup2\n  dup2\n  add\n  0x40\n  mstore\n  dup2\n  add\n  swap1\n  tag_2\n  swap2\n  swap1\n  tag_3\n  jump\t// in\ntag_2:\n    /* \"Modules/Security/11. Reentrancy Guard.sol\":313:317  _max */\n  dup1\n    /* \"Modules/Security/11. Reentrancy Guard.sol\":307:317  max = _max */\n  0x80\n  dup2\n  dup2\n  mstore\n  pop\n  pop\n    /* \"Modules/Security/11. Reentrancy Guard.sol\":271:324  constructor(uint256 _max) {... */\n  pop\n    /* \"Modules/Security/11. Reentrancy Guard.sol\":58:605  contract TestReentrancyGuard {... */\n  jump(tag_6)\n    /* \"#utility.yul\":88:205   */\ntag_8:\n    /* \"#utility.yul\":197:198   */\n  0x00\n    /* \"#utility.yul\":194:195   */\n  dup1\n    /* \"#utility.yul\":187:199   */\n  revert\n    /* \"#utility.yul\":334:411   */\ntag_10:\n    /* \"#utility.yul\":371:378   */\n  0x00\n    /* \"#utility.yul\":400:405   */\n  dup2\n    /* \"#utility.yul\":389:405   */\n  swap1\n  pop\n    /* \"#utility.yul\":334:411   */\n  swap2\n  swap1\n  pop\n  jump\t// out\n    /* \"#utility.yul\":417:539   */\ntag_11:\n    /* \"#utility.yul\":490:514   */\n  tag_19\n    /* \"#utility.yul\":508:513   */\n  dup2\n    /* \"#utility.yul\":490:514   */\n  tag_10\n  jump\t// in\ntag_19:\n    /* \"#utility.yul\":483:488   */\n  dup2\n    /* \"#utility.yul\":480:515   */\n  eq\n    /* \"#utility.yul\":470:533   */\n  tag_20\n  jumpi\n    /* \"#utility.yul\":529:530   */\n  0x00\n    /* \"#utility.yul\":526:527   */\n  dup1\n    /* \"#utility.yul\":519:531   */\n  revert\n    /* \"#utility.yul\":470:533   */\ntag_20:\n    /* \"#utility.yul\":417:539   */\n  pop\n  jump\t// out\n    /* \"#utility.yul\":545:688   */\ntag_12:\n    /* \"#utility.yul\":602:607   */\n  0x00\n    /* \"#utility.yul\":633:639   */\n  dup2\n    /* \"#utility.yul\":627:640   */\n  mload\n    /* \"#utility.yul\":618:640   */\n  swap1\n  pop\n    /* \"#utility.yul\":649:682   */\n  tag_22\n    /* \"#utility.yul\":676:681   */\n  dup2\n    /* \"#utility.yul\":649:682   */\n  tag_11\n  jump\t// in\ntag_22:\n    /* \"#utility.yul\":545:688   */\n  swap3\n  swap2\n  pop\n  pop\n  jump\t// out\n    /* \"#utility.yul\":694:1045   */\ntag_3:\n    /* \"#utility.yul\":764:770   */\n  0x00\n    /* \"#utility.yul\":813:815   */\n  0x20\n    /* \"#utility.yul\":801:810   */\n  dup3\n    /* \"#utility.yul\":792:799   */\n  dup5\n    /* \"#utility.yul\":788:811   */\n  sub\n    /* \"#utility.yul\":784:816   */\n  slt\n    /* \"#utility.yul\":781:900   */\n  iszero\n  tag_24\n  jumpi\n    /* \"#utility.yul\":819:898   */\n  tag_25\n  tag_8\n  jump\t// in\ntag_25:\n    /* \"#utility.yul\":781:900   */\ntag_24:\n    /* \"#utility.yul\":939:940   */\n  0x00\n    /* \"#utility.yul\":964:1028   */\n  tag_26\n    /* \"#utility.yul\":1020:1027   */\n  dup5\n    /* \"#utility.yul\":1011:1017   */\n  dup3\n    /* \"#utility.yul\":1000:1009   */\n  dup6\n    /* \"#utility.yul\":996:1018   */\n  add\n    /* \"#utility.yul\":964:1028   */\n  tag_12\n  jump\t// in\ntag_26:\n    /* \"#utility.yul\":954:1028   */\n  swap2\n  pop\n    /* \"#utility.yul\":910:1038   */\n  pop\n    /* \"#utility.yul\":694:1045   */\n  swap3\n  swap2\n  pop\n  pop\n  jump\t// out\n    /* \"Modules/Security/11. Reentrancy Guard.sol\":58:605  contract TestReentrancyGuard {... */\ntag_6:\n  mload(0x80)\n  codecopy(0x00, dataOffset(sub_0), dataSize(sub_0))\n  0x00\n  assignImmutable(\"0x2a80e1ef1d7842f27f2e6be0972bb708b9a135c38860dbe73c27c3486c34f4de\")\n  return(0x00, dataSize(sub_0))\nstop\n\nsub_0: assembly {\n        /* \"Modules/Security/11. Reentrancy Guard.sol\":58:605  contract TestReentrancyGuard {... */\n      mstore(0x40, 0x80)\n      callvalue\n      dup1\n      iszero\n      tag_1\n      jumpi\n      0x00\n      dup1\n      revert\n    tag_1:\n      pop\n      jumpi(tag_2, lt(calldatasize, 0x04))\n      shr(0xe0, calldataload(0x00))\n      dup1\n      0x06661abd\n      eq\n      tag_4\n      jumpi\n      dup1\n      0x6ac5db19\n      eq\n      tag_5\n      jumpi\n      jump(tag_3)\n    tag_2:\n    tag_3:\n        /* \"Modules/Security/11. Reentrancy Guard.sol\":372:375  max */\n      immutable(\"0x2a80e1ef1d7842f27f2e6be0972bb708b9a135c38860dbe73c27c3486c34f4de\")\n        /* \"Modules/Security/11. Reentrancy Guard.sol\":364:369  count */\n      sload(0x00)\n        /* \"Modules/Security/11. Reentrancy Guard.sol\":364:375  count < max */\n      lt\n        /* \"Modules/Security/11. Reentrancy Guard.sol\":360:597  if (count < max) {... */\n      iszero\n      tag_8\n      jumpi\n        /* \"Modules/Security/11. Reentrancy Guard.sol\":400:401  1 */\n      0x01\n        /* \"Modules/Security/11. Reentrancy Guard.sol\":391:396  count */\n      0x00\n      dup1\n        /* \"Modules/Security/11. Reentrancy Guard.sol\":391:401  count += 1 */\n      dup3\n      dup3\n      sload\n      tag_9\n      swap2\n      swap1\n      tag_10\n      jump\t// in\n    tag_9:\n      swap3\n      pop\n      pop\n      dup2\n      swap1\n      sstore\n      pop\n        /* \"Modules/Security/11. Reentrancy Guard.sol\":416:428  bool success */\n      0x00\n        /* \"Modules/Security/11. Reentrancy Guard.sol\":434:444  msg.sender */\n      caller\n        /* \"Modules/Security/11. Reentrancy Guard.sol\":434:449  msg.sender.call */\n      0xffffffffffffffffffffffffffffffffffffffff\n      and\n        /* \"Modules/Security/11. Reentrancy Guard.sol\":516:520  this */\n      address\n        /* \"Modules/Security/11. Reentrancy Guard.sol\":467:522  abi.encodeWithSignature(\"exec(address)\", address(this)) */\n      add(0x24, mload(0x40))\n      tag_11\n      swap2\n      swap1\n      tag_12\n      jump\t// in\n    tag_11:\n      mload(0x40)\n      0x20\n      dup2\n      dup4\n      sub\n      sub\n      dup2\n      mstore\n      swap1\n      0x40\n      mstore\n      and(not(0xffffffffffffffffffffffffffffffffffffffffffffffffffffffff), 0x6bb6126e00000000000000000000000000000000000000000000000000000000)\n      0x20\n      dup3\n      add\n      dup1\n      mload\n      0xffffffffffffffffffffffffffffffffffffffffffffffffffffffff\n      dup4\n      dup2\n      dup4\n      and\n      or\n      dup4\n      mstore\n      pop\n      pop\n      pop\n      pop\n        /* \"Modules/Security/11. Reentrancy Guard.sol\":434:536  msg.sender.call(... */\n      mload(0x40)\n      tag_13\n      swap2\n      swap1\n      tag_14\n      jump\t// in\n    tag_13:\n      0x00\n      mload(0x40)\n      dup1\n      dup4\n      sub\n      dup2\n      0x00\n      dup7\n      gas\n      call\n      swap2\n      pop\n      pop\n      returndatasize\n      dup1\n      0x00\n      dup2\n      eq\n      tag_17\n      jumpi\n      mload(0x40)\n      swap2\n      pop\n      and(add(returndatasize, 0x3f), not(0x1f))\n      dup3\n      add\n      0x40\n      mstore\n      returndatasize\n      dup3\n      mstore\n      returndatasize\n      0x00\n      0x20\n      dup5\n      add\n      returndatacopy\n      jump(tag_16)\n    tag_17:\n      0x60\n      swap2\n      pop\n    tag_16:\n      pop\n        /* \"Modules/Security/11. Reentrancy Guard.sol\":415:536  (bool success, ) = msg.sender.call(... */\n      pop\n      swap1\n      pop\n        /* \"Modules/Security/11. Reentrancy Guard.sol\":558:565  success */\n      dup1\n        /* \"Modules/Security/11. Reentrancy Guard.sol\":550:586  require(success, \"call back failed\") */\n      tag_18\n      jumpi\n      mload(0x40)\n      0x08c379a000000000000000000000000000000000000000000000000000000000\n      dup2\n      mstore\n      0x04\n      add\n      tag_19\n      swap1\n      tag_20\n      jump\t// in\n    tag_19:\n      mload(0x40)\n      dup1\n      swap2\n      sub\n      swap1\n      revert\n    tag_18:\n        /* \"Modules/Security/11. Reentrancy Guard.sol\":377:597  {... */\n      pop\n        /* \"Modules/Security/11. Reentrancy Guard.sol\":360:597  if (count < max) {... */\n    tag_8:\n        /* \"Modules/Security/11. Reentrancy Guard.sol\":58:605  contract TestReentrancyGuard {... */\n      stop\n        /* \"Modules/Security/11. Reentrancy Guard.sol\":244:264  uint256 public count */\n    tag_4:\n      tag_21\n      tag_22\n      jump\t// in\n    tag_21:\n      mload(0x40)\n      tag_23\n      swap2\n      swap1\n      tag_24\n      jump\t// in\n    tag_23:\n      mload(0x40)\n      dup1\n      swap2\n      sub\n      swap1\n      return\n        /* \"Modules/Security/11. Reentrancy Guard.sol\":159:187  uint256 public immutable max */\n    tag_5:\n      tag_25\n      tag_26\n      jump\t// in\n    tag_25:\n      mload(0x40)\n      tag_27\n      swap2\n      swap1\n      tag_24\n      jump\t// in\n    tag_27:\n      mload(0x40)\n      dup1\n      swap2\n      sub\n      swap1\n      return\n        /* \"Modules/Security/11. Reentrancy Guard.sol\":244:264  uint256 public count */\n    tag_22:\n      sload(0x00)\n      dup2\n      jump\t// out\n        /* \"Modules/Security/11. Reentrancy Guard.sol\":159:187  uint256 public immutable max */\n    tag_26:\n      immutable(\"0x2a80e1ef1d7842f27f2e6be0972bb708b9a135c38860dbe73c27c3486c34f4de\")\n      dup2\n      jump\t// out\n        /* \"#utility.yul\":7:84   */\n    tag_28:\n        /* \"#utility.yul\":44:51   */\n      0x00\n        /* \"#utility.yul\":73:78   */\n      dup2\n        /* \"#utility.yul\":62:78   */\n      swap1\n      pop\n        /* \"#utility.yul\":7:84   */\n      swap2\n      swap1\n      pop\n      jump\t// out\n        /* \"#utility.yul\":90:270   */\n    tag_29:\n        /* \"#utility.yul\":138:215   */\n      0x4e487b7100000000000000000000000000000000000000000000000000000000\n        /* \"#utility.yul\":135:136   */\n      0x00\n        /* \"#utility.yul\":128:216   */\n      mstore\n        /* \"#utility.yul\":235:239   */\n      0x11\n        /* \"#utility.yul\":232:233   */\n      0x04\n        /* \"#utility.yul\":225:240   */\n      mstore\n        /* \"#utility.yul\":259:263   */\n      0x24\n        /* \"#utility.yul\":256:257   */\n      0x00\n        /* \"#utility.yul\":249:264   */\n      revert\n        /* \"#utility.yul\":276:467   */\n    tag_10:\n        /* \"#utility.yul\":316:319   */\n      0x00\n        /* \"#utility.yul\":335:355   */\n      tag_45\n        /* \"#utility.yul\":353:354   */\n      dup3\n        /* \"#utility.yul\":335:355   */\n      tag_28\n      jump\t// in\n    tag_45:\n        /* \"#utility.yul\":330:355   */\n      swap2\n      pop\n        /* \"#utility.yul\":369:389   */\n      tag_46\n        /* \"#utility.yul\":387:388   */\n      dup4\n        /* \"#utility.yul\":369:389   */\n      tag_28\n      jump\t// in\n    tag_46:\n        /* \"#utility.yul\":364:389   */\n      swap3\n      pop\n        /* \"#utility.yul\":412:413   */\n      dup3\n        /* \"#utility.yul\":409:410   */\n      dup3\n        /* \"#utility.yul\":405:414   */\n      add\n        /* \"#utility.yul\":398:414   */\n      swap1\n      pop\n        /* \"#utility.yul\":433:436   */\n      dup1\n        /* \"#utility.yul\":430:431   */\n      dup3\n        /* \"#utility.yul\":427:437   */\n      gt\n        /* \"#utility.yul\":424:460   */\n      iszero\n      tag_47\n      jumpi\n        /* \"#utility.yul\":440:458   */\n      tag_48\n      tag_29\n      jump\t// in\n    tag_48:\n        /* \"#utility.yul\":424:460   */\n    tag_47:\n        /* \"#utility.yul\":276:467   */\n      swap3\n      swap2\n      pop\n      pop\n      jump\t// out\n        /* \"#utility.yul\":473:599   */\n    tag_30:\n        /* \"#utility.yul\":510:517   */\n      0x00\n        /* \"#utility.yul\":550:592   */\n      0xffffffffffffffffffffffffffffffffffffffff\n        /* \"#utility.yul\":543:548   */\n      dup3\n        /* \"#utility.yul\":539:593   */\n      and\n        /* \"#utility.yul\":528:593   */\n      swap1\n      pop\n        /* \"#utility.yul\":473:599   */\n      swap2\n      swap1\n      pop\n      jump\t// out\n        /* \"#utility.yul\":605:701   */\n    tag_31:\n        /* \"#utility.yul\":642:649   */\n      0x00\n        /* \"#utility.yul\":671:695   */\n      tag_51\n        /* \"#utility.yul\":689:694   */\n      dup3\n        /* \"#utility.yul\":671:695   */\n      tag_30\n      jump\t// in\n    tag_51:\n        /* \"#utility.yul\":660:695   */\n      swap1\n      pop\n        /* \"#utility.yul\":605:701   */\n      swap2\n      swap1\n      pop\n      jump\t// out\n        /* \"#utility.yul\":707:825   */\n    tag_32:\n        /* \"#utility.yul\":794:818   */\n      tag_53\n        /* \"#utility.yul\":812:817   */\n      dup2\n        /* \"#utility.yul\":794:818   */\n      tag_31\n      jump\t// in\n    tag_53:\n        /* \"#utility.yul\":789:792   */\n      dup3\n        /* \"#utility.yul\":782:819   */\n      mstore\n        /* \"#utility.yul\":707:825   */\n      pop\n      pop\n      jump\t// out\n        /* \"#utility.yul\":831:1053   */\n    tag_12:\n        /* \"#utility.yul\":924:928   */\n      0x00\n        /* \"#utility.yul\":962:964   */\n      0x20\n        /* \"#utility.yul\":951:960   */\n      dup3\n        /* \"#utility.yul\":947:965   */\n      add\n        /* \"#utility.yul\":939:965   */\n      swap1\n      pop\n        /* \"#utility.yul\":975:1046   */\n      tag_55\n        /* \"#utility.yul\":1043:1044   */\n      0x00\n        /* \"#utility.yul\":1032:1041   */\n      dup4\n        /* \"#utility.yul\":1028:1045   */\n      add\n        /* \"#utility.yul\":1019:1025   */\n      dup5\n        /* \"#utility.yul\":975:1046   */\n      tag_32\n      jump\t// in\n    tag_55:\n        /* \"#utility.yul\":831:1053   */\n      swap3\n      swap2\n      pop\n      pop\n      jump\t// out\n        /* \"#utility.yul\":1059:1157   */\n    tag_33:\n        /* \"#utility.yul\":1110:1116   */\n      0x00\n        /* \"#utility.yul\":1144:1149   */\n      dup2\n        /* \"#utility.yul\":1138:1150   */\n      mload\n        /* \"#utility.yul\":1128:1150   */\n      swap1\n      pop\n        /* \"#utility.yul\":1059:1157   */\n      swap2\n      swap1\n      pop\n      jump\t// out\n        /* \"#utility.yul\":1163:1310   */\n    tag_34:\n        /* \"#utility.yul\":1264:1275   */\n      0x00\n        /* \"#utility.yul\":1301:1304   */\n      dup2\n        /* \"#utility.yul\":1286:1304   */\n      swap1\n      pop\n        /* \"#utility.yul\":1163:1310   */\n      swap3\n      swap2\n      pop\n      pop\n      jump\t// out\n        /* \"#utility.yul\":1316:1562   */\n    tag_35:\n        /* \"#utility.yul\":1397:1398   */\n      0x00\n        /* \"#utility.yul\":1407:1520   */\n    tag_59:\n        /* \"#utility.yul\":1421:1427   */\n      dup4\n        /* \"#utility.yul\":1418:1419   */\n      dup2\n        /* \"#utility.yul\":1415:1428   */\n      lt\n        /* \"#utility.yul\":1407:1520   */\n      iszero\n      tag_61\n      jumpi\n        /* \"#utility.yul\":1506:1507   */\n      dup1\n        /* \"#utility.yul\":1501:1504   */\n      dup3\n        /* \"#utility.yul\":1497:1508   */\n      add\n        /* \"#utility.yul\":1491:1509   */\n      mload\n        /* \"#utility.yul\":1487:1488   */\n      dup2\n        /* \"#utility.yul\":1482:1485   */\n      dup5\n        /* \"#utility.yul\":1478:1489   */\n      add\n        /* \"#utility.yul\":1471:1510   */\n      mstore\n        /* \"#utility.yul\":1443:1445   */\n      0x20\n        /* \"#utility.yul\":1440:1441   */\n      dup2\n        /* \"#utility.yul\":1436:1446   */\n      add\n        /* \"#utility.yul\":1431:1446   */\n      swap1\n      pop\n        /* \"#utility.yul\":1407:1520   */\n      jump(tag_59)\n    tag_61:\n        /* \"#utility.yul\":1554:1555   */\n      0x00\n        /* \"#utility.yul\":1545:1551   */\n      dup5\n        /* \"#utility.yul\":1540:1543   */\n      dup5\n        /* \"#utility.yul\":1536:1552   */\n      add\n        /* \"#utility.yul\":1529:1556   */\n      mstore\n        /* \"#utility.yul\":1378:1562   */\n      pop\n        /* \"#utility.yul\":1316:1562   */\n      pop\n      pop\n      pop\n      jump\t// out\n        /* \"#utility.yul\":1568:1954   */\n    tag_36:\n        /* \"#utility.yul\":1672:1675   */\n      0x00\n        /* \"#utility.yul\":1700:1738   */\n      tag_63\n        /* \"#utility.yul\":1732:1737   */\n      dup3\n        /* \"#utility.yul\":1700:1738   */\n      tag_33\n      jump\t// in\n    tag_63:\n        /* \"#utility.yul\":1754:1842   */\n      tag_64\n        /* \"#utility.yul\":1835:1841   */\n      dup2\n        /* \"#utility.yul\":1830:1833   */\n      dup6\n        /* \"#utility.yul\":1754:1842   */\n      tag_34\n      jump\t// in\n    tag_64:\n        /* \"#utility.yul\":1747:1842   */\n      swap4\n      pop\n        /* \"#utility.yul\":1851:1916   */\n      tag_65\n        /* \"#utility.yul\":1909:1915   */\n      dup2\n        /* \"#utility.yul\":1904:1907   */\n      dup6\n        /* \"#utility.yul\":1897:1901   */\n      0x20\n        /* \"#utility.yul\":1890:1895   */\n      dup7\n        /* \"#utility.yul\":1886:1902   */\n      add\n        /* \"#utility.yul\":1851:1916   */\n      tag_35\n      jump\t// in\n    tag_65:\n        /* \"#utility.yul\":1941:1947   */\n      dup1\n        /* \"#utility.yul\":1936:1939   */\n      dup5\n        /* \"#utility.yul\":1932:1948   */\n      add\n        /* \"#utility.yul\":1925:1948   */\n      swap2\n      pop\n        /* \"#utility.yul\":1676:1954   */\n      pop\n        /* \"#utility.yul\":1568:1954   */\n      swap3\n      swap2\n      pop\n      pop\n      jump\t// out\n        /* \"#utility.yul\":1960:2231   */\n    tag_14:\n        /* \"#utility.yul\":2090:2093   */\n      0x00\n        /* \"#utility.yul\":2112:2205   */\n      tag_67\n        /* \"#utility.yul\":2201:2204   */\n      dup3\n        /* \"#utility.yul\":2192:2198   */\n      dup5\n        /* \"#utility.yul\":2112:2205   */\n      tag_36\n      jump\t// in\n    tag_67:\n        /* \"#utility.yul\":2105:2205   */\n      swap2\n      pop\n        /* \"#utility.yul\":2222:2225   */\n      dup2\n        /* \"#utility.yul\":2215:2225   */\n      swap1\n      pop\n        /* \"#utility.yul\":1960:2231   */\n      swap3\n      swap2\n      pop\n      pop\n      jump\t// out\n        /* \"#utility.yul\":2237:2406   */\n    tag_37:\n        /* \"#utility.yul\":2321:2332   */\n      0x00\n        /* \"#utility.yul\":2355:2361   */\n      dup3\n        /* \"#utility.yul\":2350:2353   */\n      dup3\n        /* \"#utility.yul\":2343:2362   */\n      mstore\n        /* \"#utility.yul\":2395:2399   */\n      0x20\n        /* \"#utility.yul\":2390:2393   */\n      dup3\n        /* \"#utility.yul\":2386:2400   */\n      add\n        /* \"#utility.yul\":2371:2400   */\n      swap1\n      pop\n        /* \"#utility.yul\":2237:2406   */\n      swap3\n      swap2\n      pop\n      pop\n      jump\t// out\n        /* \"#utility.yul\":2412:2578   */\n    tag_38:\n        /* \"#utility.yul\":2552:2570   */\n      0x63616c6c206261636b206661696c656400000000000000000000000000000000\n        /* \"#utility.yul\":2548:2549   */\n      0x00\n        /* \"#utility.yul\":2540:2546   */\n      dup3\n        /* \"#utility.yul\":2536:2550   */\n      add\n        /* \"#utility.yul\":2529:2571   */\n      mstore\n        /* \"#utility.yul\":2412:2578   */\n      pop\n      jump\t// out\n        /* \"#utility.yul\":2584:2950   */\n    tag_39:\n        /* \"#utility.yul\":2726:2729   */\n      0x00\n        /* \"#utility.yul\":2747:2814   */\n      tag_71\n        /* \"#utility.yul\":2811:2813   */\n      0x10\n        /* \"#utility.yul\":2806:2809   */\n      dup4\n        /* \"#utility.yul\":2747:2814   */\n      tag_37\n      jump\t// in\n    tag_71:\n        /* \"#utility.yul\":2740:2814   */\n      swap2\n      pop\n        /* \"#utility.yul\":2823:2916   */\n      tag_72\n        /* \"#utility.yul\":2912:2915   */\n      dup3\n        /* \"#utility.yul\":2823:2916   */\n      tag_38\n      jump\t// in\n    tag_72:\n        /* \"#utility.yul\":2941:2943   */\n      0x20\n        /* \"#utility.yul\":2936:2939   */\n      dup3\n        /* \"#utility.yul\":2932:2944   */\n      add\n        /* \"#utility.yul\":2925:2944   */\n      swap1\n      pop\n        /* \"#utility.yul\":2584:2950   */\n      swap2\n      swap1\n      pop\n      jump\t// out\n        /* \"#utility.yul\":2956:3375   */\n    tag_20:\n        /* \"#utility.yul\":3122:3126   */\n      0x00\n        /* \"#utility.yul\":3160:3162   */\n      0x20\n        /* \"#utility.yul\":3149:3158   */\n      dup3\n        /* \"#utility.yul\":3145:3163   */\n      add\n        /* \"#utility.yul\":3137:3163   */\n      swap1\n      pop\n        /* \"#utility.yul\":3209:3218   */\n      dup2\n        /* \"#utility.yul\":3203:3207   */\n      dup2\n        /* \"#utility.yul\":3199:3219   */\n      sub\n        /* \"#utility.yul\":3195:3196   */\n      0x00\n        /* \"#utility.yul\":3184:3193   */\n      dup4\n        /* \"#utility.yul\":3180:3197   */\n      add\n        /* \"#utility.yul\":3173:3220   */\n      mstore\n        /* \"#utility.yul\":3237:3368   */\n      tag_74\n        /* \"#utility.yul\":3363:3367   */\n      dup2\n        /* \"#utility.yul\":3237:3368   */\n      tag_39\n      jump\t// in\n    tag_74:\n        /* \"#utility.yul\":3229:3368   */\n      swap1\n      pop\n        /* \"#utility.yul\":2956:3375   */\n      swap2\n      swap1\n      pop\n      jump\t// out\n        /* \"#utility.yul\":3381:3499   */\n    tag_40:\n        /* \"#utility.yul\":3468:3492   */\n      tag_76\n        /* \"#utility.yul\":3486:3491   */\n      dup2\n        /* \"#utility.yul\":3468:3492   */\n      tag_28\n      jump\t// in\n    tag_76:\n        /* \"#utility.yul\":3463:3466   */\n      dup3\n        /* \"#utility.yul\":3456:3493   */\n      mstore\n        /* \"#utility.yul\":3381:3499   */\n      pop\n      pop\n      jump\t// out\n        /* \"#utility.yul\":3505:3727   */\n    tag_24:\n        /* \"#utility.yul\":3598:3602   */\n      0x00\n        /* \"#utility.yul\":3636:3638   */\n      0x20\n        /* \"#utility.yul\":3625:3634   */\n      dup3\n        /* \"#utility.yul\":3621:3639   */\n      add\n        /* \"#utility.yul\":3613:3639   */\n      swap1\n      pop\n        /* \"#utility.yul\":3649:3720   */\n      tag_78\n        /* \"#utility.yul\":3717:3718   */\n      0x00\n        /* \"#utility.yul\":3706:3715   */\n      dup4\n        /* \"#utility.yul\":3702:3719   */\n      add\n        /* \"#utility.yul\":3693:3699   */\n      dup5\n        /* \"#utility.yul\":3649:3720   */\n      tag_40\n      jump\t// in\n    tag_78:\n        /* \"#utility.yul\":3505:3727   */\n      swap3\n      swap2\n      pop\n      pop\n      jump\t// out\n\n    auxdata: 0xa2646970667358221220063266f33024996a1e072164ffb9c0fd2cb129722bcbca5662ee4d455c5db8e164736f6c63430008160033\n}\n",
				"bytecode": {
					"linkReferences": {},
					"object": "60a060405234801561000f575f80fd5b506040516104f03803806104f083398181016040528101906100319190610076565b8060808181525050506100a1565b5f80fd5b5f819050919050565b61005581610043565b811461005f575f80fd5b50565b5f815190506100708161004c565b92915050565b5f6020828403121561008b5761008a61003f565b5b5f61009884828501610062565b91505092915050565b6080516104316100bf5f395f8181603b01526101f601526104315ff3fe608060405234801561000f575f80fd5b5060043610610038575f3560e01c806306661abd146101b35780636ac5db19146101d157610039565b5b7f00000000000000000000000000000000000000000000000000000000000000005f5410156101b15760015f80828254610073919061024e565b925050819055505f3373ffffffffffffffffffffffffffffffffffffffff16306040516024016100a391906102c0565b6040516020818303038152906040527f6bb6126e000000000000000000000000000000000000000000000000000000007bffffffffffffffffffffffffffffffffffffffffffffffffffffffff19166020820180517bffffffffffffffffffffffffffffffffffffffffffffffffffffffff838183161783525050505060405161012d9190610345565b5f604051808303815f865af19150503d805f8114610166576040519150601f19603f3d011682016040523d82523d5f602084013e61016b565b606091505b50509050806101af576040517f08c379a00000000000000000000000000000000000000000000000000000000081526004016101a6906103b5565b60405180910390fd5b505b005b6101bb6101ef565b6040516101c891906103e2565b60405180910390f35b6101d96101f4565b6040516101e691906103e2565b60405180910390f35b5f5481565b7f000000000000000000000000000000000000000000000000000000000000000081565b5f819050919050565b7f4e487b71000000000000000000000000000000000000000000000000000000005f52601160045260245ffd5b5f61025882610218565b915061026383610218565b925082820190508082111561027b5761027a610221565b5b92915050565b5f73ffffffffffffffffffffffffffffffffffffffff82169050919050565b5f6102aa82610281565b9050919050565b6102ba816102a0565b82525050565b5f6020820190506102d35f8301846102b1565b92915050565b5f81519050919050565b5f81905092915050565b5f5b8381101561030a5780820151818401526020810190506102ef565b5f8484015250505050565b5f61031f826102d9565b61032981856102e3565b93506103398185602086016102ed565b80840191505092915050565b5f6103508284610315565b915081905092915050565b5f82825260208201905092915050565b7f63616c6c206261636b206661696c6564000000000000000000000000000000005f82015250565b5f61039f60108361035b565b91506103aa8261036b565b602082019050919050565b5f6020820190508181035f8301526103cc81610393565b9050919050565b6103dc81610218565b82525050565b5f6020820190506103f55f8301846103d3565b9291505056fea2646970667358221220063266f33024996a1e072164ffb9c0fd2cb129722bcbca5662ee4d455c5db8e164736f6c63430008160033",
					"opcodes": "PUSH1 0xA0 PUSH1 0x40 MSTORE CALLVALUE DUP1 ISZERO PUSH2 0xF JUMPI PUSH0 DUP1 REVERT JUMPDEST POP PUSH1 0x40 MLOAD PUSH2 0x4F0 CODESIZE SUB DUP1 PUSH2 0x4F0 DUP4 CODECOPY DUP2 DUP2 ADD PUSH1 0x40 MSTORE DUP2 ADD SWAP1 PUSH2 0x31 SWAP2 SWAP1 PUSH2 0x76 JUMP JUMPDEST DUP1 PUSH1 0x80 DUP2 DUP2 MSTORE POP POP POP PUSH2 0xA1 JUMP JUMPDEST PUSH0 DUP1 REVERT JUMPDEST PUSH0 DUP2 SWAP1 POP SWAP2 SWAP1 POP JUMP JUMPDEST PUSH2 0x55 DUP2 PUSH2 0x43 JUMP JUMPDEST DUP2 EQ PUSH2 0x5F JUMPI PUSH0 DUP1 REVERT JUMPDEST POP JUMP JUMPDEST PUSH0 DUP2 MLOAD SWAP1 POP PUSH2 0x70 DUP2 PUSH2 0x4C JUMP JUMPDEST SWAP3 SWAP2 POP POP JUMP JUMPDEST PUSH0 PUSH1 0x20 DUP3 DUP5 SUB SLT ISZERO PUSH2 0x8B JUMPI PUSH2 0x8A PUSH2 0x3F JUMP JUMPDEST JUMPDEST PUSH0 PUSH2 0x98 DUP5 DUP3 DUP6 ADD PUSH2 0x62 JUMP JUMPDEST SWAP2 POP POP SWAP3 SWAP2 POP POP JUMP JUMPDEST PUSH1 0x80 MLOAD PUSH2 0x431 PUSH2 0xBF PUSH0 CODECOPY PUSH0 DUP2 DUP2 PUSH1 0x3B ADD MSTORE PUSH2 0x1F6 ADD MSTORE PUSH2 0x431 PUSH0 RETURN INVALID PUSH1 0x80 PUSH1 0x40 MSTORE CALLVALUE DUP1 ISZERO PUSH2 0xF JUMPI PUSH0 DUP1 REVERT JUMPDEST POP PUSH1 0x4 CALLDATASIZE LT PUSH2 0x38 JUMPI PUSH0 CALLDATALOAD PUSH1 0xE0 SHR DUP1 PUSH4 0x6661ABD EQ PUSH2 0x1B3 JUMPI DUP1 PUSH4 0x6AC5DB19 EQ PUSH2 0x1D1 JUMPI PUSH2 0x39 JUMP JUMPDEST JUMPDEST PUSH32 0x0 PUSH0 SLOAD LT ISZERO PUSH2 0x1B1 JUMPI PUSH1 0x1 PUSH0 DUP1 DUP3 DUP3 SLOAD PUSH2 0x73 SWAP2 SWAP1 PUSH2 0x24E JUMP JUMPDEST SWAP3 POP POP DUP2 SWAP1 SSTORE POP PUSH0 CALLER PUSH20 0xFFFFFFFFFFFFFFFFFFFFFFFFFFFFFFFFFFFFFFFF AND ADDRESS PUSH1 0x40 MLOAD PUSH1 0x24 ADD PUSH2 0xA3 SWAP2 SWAP1 PUSH2 0x2C0 JUMP JUMPDEST PUSH1 0x40 MLOAD PUSH1 0x20 DUP2 DUP4 SUB SUB DUP2 MSTORE SWAP1 PUSH1 0x40 MSTORE PUSH32 0x6BB6126E00000000000000000000000000000000000000000000000000000000 PUSH28 0xFFFFFFFFFFFFFFFFFFFFFFFFFFFFFFFFFFFFFFFFFFFFFFFFFFFFFFFF NOT AND PUSH1 0x20 DUP3 ADD DUP1 MLOAD PUSH28 0xFFFFFFFFFFFFFFFFFFFFFFFFFFFFFFFFFFFFFFFFFFFFFFFFFFFFFFFF DUP4 DUP2 DUP4 AND OR DUP4 MSTORE POP POP POP POP PUSH1 0x40 MLOAD PUSH2 0x12D SWAP2 SWAP1 PUSH2 0x345 JUMP JUMPDEST PUSH0 PUSH1 0x40 MLOAD DUP1 DUP4 SUB DUP2 PUSH0 DUP7 GAS CALL SWAP2 POP POP RETURNDATASIZE DUP1 PUSH0 DUP2 EQ PUSH2 0x166 JUMPI PUSH1 0x40 MLOAD SWAP2 POP PUSH1 0x1F NOT PUSH1 0x3F RETURNDATASIZE ADD AND DUP3 ADD PUSH1 0x40 MSTORE RETURNDATASIZE DUP3 MSTORE RETURNDATASIZE PUSH0 PUSH1 0x20 DUP5 ADD RETURNDATACOPY PUSH2 0x16B JUMP JUMPDEST PUSH1 0x60 SWAP2 POP JUMPDEST POP POP SWAP1 POP DUP1 PUSH2 0x1AF JUMPI PUSH1 0x40 MLOAD PUSH32 0x8C379A000000000000000000000000000000000000000000000000000000000 DUP2 MSTORE PUSH1 0x4 ADD PUSH2 0x1A6 SWAP1 PUSH2 0x3B5 JUMP JUMPDEST PUSH1 0x40 MLOAD DUP1 SWAP2 SUB SWAP1 REVERT JUMPDEST POP JUMPDEST STOP JUMPDEST PUSH2 0x1BB PUSH2 0x1EF JUMP JUMPDEST PUSH1 0x40 MLOAD PUSH2 0x1C8 SWAP2 SWAP1 PUSH2 0x3E2 JUMP JUMPDEST PUSH1 0x40 MLOAD DUP1 SWAP2 SUB SWAP1 RETURN JUMPDEST PUSH2 0x1D9 PUSH2 0x1F4 JUMP JUMPDEST PUSH1 0x40 MLOAD PUSH2 0x1E6 SWAP2 SWAP1 PUSH2 0x3E2 JUMP JUMPDEST PUSH1 0x40 MLOAD DUP1 SWAP2 SUB SWAP1 RETURN JUMPDEST PUSH0 SLOAD DUP2 JUMP JUMPDEST PUSH32 0x0 DUP2 JUMP JUMPDEST PUSH0 DUP2 SWAP1 POP SWAP2 SWAP1 POP JUMP JUMPDEST PUSH32 0x4E487B7100000000000000000000000000000000000000000000000000000000 PUSH0 MSTORE PUSH1 0x11 PUSH1 0x4 MSTORE PUSH1 0x24 PUSH0 REVERT JUMPDEST PUSH0 PUSH2 0x258 DUP3 PUSH2 0x218 JUMP JUMPDEST SWAP2 POP PUSH2 0x263 DUP4 PUSH2 0x218 JUMP JUMPDEST SWAP3 POP DUP3 DUP3 ADD SWAP1 POP DUP1 DUP3 GT ISZERO PUSH2 0x27B JUMPI PUSH2 0x27A PUSH2 0x221 JUMP JUMPDEST JUMPDEST SWAP3 SWAP2 POP POP JUMP JUMPDEST PUSH0 PUSH20 0xFFFFFFFFFFFFFFFFFFFFFFFFFFFFFFFFFFFFFFFF DUP3 AND SWAP1 POP SWAP2 SWAP1 POP JUMP JUMPDEST PUSH0 PUSH2 0x2AA DUP3 PUSH2 0x281 JUMP JUMPDEST SWAP1 POP SWAP2 SWAP1 POP JUMP JUMPDEST PUSH2 0x2BA DUP2 PUSH2 0x2A0 JUMP JUMPDEST DUP3 MSTORE POP POP JUMP JUMPDEST PUSH0 PUSH1 0x20 DUP3 ADD SWAP1 POP PUSH2 0x2D3 PUSH0 DUP4 ADD DUP5 PUSH2 0x2B1 JUMP JUMPDEST SWAP3 SWAP2 POP POP JUMP JUMPDEST PUSH0 DUP2 MLOAD SWAP1 POP SWAP2 SWAP1 POP JUMP JUMPDEST PUSH0 DUP2 SWAP1 POP SWAP3 SWAP2 POP POP JUMP JUMPDEST PUSH0 JUMPDEST DUP4 DUP2 LT ISZERO PUSH2 0x30A JUMPI DUP1 DUP3 ADD MLOAD DUP2 DUP5 ADD MSTORE PUSH1 0x20 DUP2 ADD SWAP1 POP PUSH2 0x2EF JUMP JUMPDEST PUSH0 DUP5 DUP5 ADD MSTORE POP POP POP POP JUMP JUMPDEST PUSH0 PUSH2 0x31F DUP3 PUSH2 0x2D9 JUMP JUMPDEST PUSH2 0x329 DUP2 DUP6 PUSH2 0x2E3 JUMP JUMPDEST SWAP4 POP PUSH2 0x339 DUP2 DUP6 PUSH1 0x20 DUP7 ADD PUSH2 0x2ED JUMP JUMPDEST DUP1 DUP5 ADD SWAP2 POP POP SWAP3 SWAP2 POP POP JUMP JUMPDEST PUSH0 PUSH2 0x350 DUP3 DUP5 PUSH2 0x315 JUMP JUMPDEST SWAP2 POP DUP2 SWAP1 POP SWAP3 SWAP2 POP POP JUMP JUMPDEST PUSH0 DUP3 DUP3 MSTORE PUSH1 0x20 DUP3 ADD SWAP1 POP SWAP3 SWAP2 POP POP JUMP JUMPDEST PUSH32 0x63616C6C206261636B206661696C656400000000000000000000000000000000 PUSH0 DUP3 ADD MSTORE POP JUMP JUMPDEST PUSH0 PUSH2 0x39F PUSH1 0x10 DUP4 PUSH2 0x35B JUMP JUMPDEST SWAP2 POP PUSH2 0x3AA DUP3 PUSH2 0x36B JUMP JUMPDEST PUSH1 0x20 DUP3 ADD SWAP1 POP SWAP2 SWAP1 POP JUMP JUMPDEST PUSH0 PUSH1 0x20 DUP3 ADD SWAP1 POP DUP2 DUP2 SUB PUSH0 DUP4 ADD MSTORE PUSH2 0x3CC DUP2 PUSH2 0x393 JUMP JUMPDEST SWAP1 POP SWAP2 SWAP1 POP JUMP JUMPDEST PUSH2 0x3DC DUP2 PUSH2 0x218 JUMP JUMPDEST DUP3 MSTORE POP POP JUMP JUMPDEST PUSH0 PUSH1 0x20 DUP3 ADD SWAP1 POP PUSH2 0x3F5 PUSH0 DUP4 ADD DUP5 PUSH2 0x3D3 JUMP JUMPDEST SWAP3 SWAP2 POP POP JUMP INVALID LOG2 PUSH5 0x6970667358 0x22 SLT KECCAK256 MOD ORIGIN PUSH7 0xF33024996A1E07 0x21 PUSH5 0xFFB9C0FD2C 0xB1 0x29 PUSH19 0x2BCBCA5662EE4D455C5DB8E164736F6C634300 ADDMOD AND STOP CALLER "
				},
				"gasEstimates": {
					"creation": {
						"codeDepositCost": "214600",
						"executionCost": "infinite",
						"totalCost": "infinite"
					},
					"external": {
						"": "infinite",
						"count()": "2402",
						"max()": "infinite"
					}
				},
				"methodIdentifiers": {
					"count()": "06661abd",
					"max()": "6ac5db19"
				}
			},
			"storageLayout": {
				"storage": [
					{
						"astId": 5,
						"contract": "Modules/Security/11. Reentrancy Guard.sol:TestReentrancyGuard",
						"label": "count",
						"offset": 0,
						"slot": "0",
						"type": "t_uint256"
					}
				],
				"types": {
					"t_uint256": {
						"encoding": "inplace",
						"label": "uint256",
						"numberOfBytes": "32"
					}
				}
			},
			"userdoc": {
				"kind": "user",
				"methods": {},
				"version": 1
			}
		}
	}
}