{
	"Modules/Security/13. Function Selector Clash.sol": {
		"FunctionSelectorClash": {
			"abi": [
				{
					"inputs": [],
					"stateMutability": "payable",
					"type": "constructor"
				},
				{
					"inputs": [
						{
							"internalType": "string",
							"name": "_func",
							"type": "string"
						},
						{
							"internalType": "bytes",
							"name": "_data",
							"type": "bytes"
						}
					],
					"name": "execute",
					"outputs": [],
					"stateMutability": "nonpayable",
					"type": "function"
				},
				{
					"inputs": [
						{
							"internalType": "address payable",
							"name": "_to",
							"type": "address"
						},
						{
							"internalType": "uint256",
							"name": "_amount",
							"type": "uint256"
						}
					],
					"name": "transfer",
					"outputs": [],
					"stateMutability": "nonpayable",
					"type": "function"
				}
			],
			"devdoc": {
				"kind": "dev",
				"methods": {},
				"version": 1
			},
			"evm": {
				"assembly": "    /* \"Modules/Security/13. Function Selector Clash.sol\":58:848  contract FunctionSelectorClash {... */\n  mstore(0x40, 0x80)\n  dataSize(sub_0)\n  dup1\n  dataOffset(sub_0)\n  0x00\n  codecopy\n  0x00\n  return\nstop\n\nsub_0: assembly {\n        /* \"Modules/Security/13. Function Selector Clash.sol\":58:848  contract FunctionSelectorClash {... */\n      mstore(0x40, 0x80)\n      callvalue\n      dup1\n      iszero\n      tag_1\n      jumpi\n      0x00\n      dup1\n      revert\n    tag_1:\n      pop\n      jumpi(tag_2, lt(calldatasize, 0x04))\n      shr(0xe0, calldataload(0x00))\n      dup1\n      0x229320ca\n      eq\n      tag_3\n      jumpi\n      dup1\n      0xa9059cbb\n      eq\n      tag_4\n      jumpi\n    tag_2:\n      0x00\n      dup1\n      revert\n        /* \"Modules/Security/13. Function Selector Clash.sol\":125:492  function execute(string calldata _func, bytes calldata _data) external {... */\n    tag_3:\n      tag_5\n      0x04\n      dup1\n      calldatasize\n      sub\n      dup2\n      add\n      swap1\n      tag_6\n      swap2\n      swap1\n      tag_7\n      jump\t// in\n    tag_6:\n      tag_8\n      jump\t// in\n    tag_5:\n      stop\n        /* \"Modules/Security/13. Function Selector Clash.sol\":498:665  function transfer(address payable _to, uint256 _amount) external {... */\n    tag_4:\n      tag_9\n      0x04\n      dup1\n      calldatasize\n      sub\n      dup2\n      add\n      swap1\n      tag_10\n      swap2\n      swap1\n      tag_11\n      jump\t// in\n    tag_10:\n      tag_12\n      jump\t// in\n    tag_9:\n      stop\n        /* \"Modules/Security/13. Function Selector Clash.sol\":125:492  function execute(string calldata _func, bytes calldata _data) external {... */\n    tag_8:\n        /* \"Modules/Security/13. Function Selector Clash.sol\":228:269  equal(_func, \"transfer(address,uint256)\") */\n      tag_14\n        /* \"Modules/Security/13. Function Selector Clash.sol\":234:239  _func */\n      dup5\n      dup5\n        /* \"Modules/Security/13. Function Selector Clash.sol\":228:269  equal(_func, \"transfer(address,uint256)\") */\n      dup1\n      dup1\n      0x1f\n      add\n      0x20\n      dup1\n      swap2\n      div\n      mul\n      0x20\n      add\n      mload(0x40)\n      swap1\n      dup2\n      add\n      0x40\n      mstore\n      dup1\n      swap4\n      swap3\n      swap2\n      swap1\n      dup2\n      dup2\n      mstore\n      0x20\n      add\n      dup4\n      dup4\n      dup1\n      dup3\n      dup5\n      calldatacopy\n      0x00\n      dup2\n      dup5\n      add\n      mstore\n      not(0x1f)\n      0x1f\n      dup3\n      add\n      and\n      swap1\n      pop\n      dup1\n      dup4\n      add\n      swap3\n      pop\n      pop\n      pop\n      pop\n      pop\n      pop\n      pop\n      mload(0x40)\n      dup1\n      0x40\n      add\n      0x40\n      mstore\n      dup1\n      0x19\n      dup2\n      mstore\n      0x20\n      add\n      0x7472616e7366657228616464726573732c75696e743235362900000000000000\n      dup2\n      mstore\n      pop\n        /* \"Modules/Security/13. Function Selector Clash.sol\":228:233  equal */\n      tag_15\n        /* \"Modules/Security/13. Function Selector Clash.sol\":228:269  equal(_func, \"transfer(address,uint256)\") */\n      jump\t// in\n    tag_14:\n        /* \"Modules/Security/13. Function Selector Clash.sol\":227:269  !equal(_func, \"transfer(address,uint256)\") */\n      iszero\n        /* \"Modules/Security/13. Function Selector Clash.sol\":206:323  require(... */\n      tag_16\n      jumpi\n      mload(0x40)\n      0x08c379a000000000000000000000000000000000000000000000000000000000\n      dup2\n      mstore\n      0x04\n      add\n      tag_17\n      swap1\n      tag_18\n      jump\t// in\n    tag_17:\n      mload(0x40)\n      dup1\n      swap2\n      sub\n      swap1\n      revert\n    tag_16:\n        /* \"Modules/Security/13. Function Selector Clash.sol\":334:344  bytes4 sig */\n      0x00\n        /* \"Modules/Security/13. Function Selector Clash.sol\":370:375  _func */\n      dup5\n      dup5\n        /* \"Modules/Security/13. Function Selector Clash.sol\":354:377  keccak256(bytes(_func)) */\n      mload(0x40)\n      tag_19\n      swap3\n      swap2\n      swap1\n      tag_20\n      jump\t// in\n    tag_19:\n      mload(0x40)\n      dup1\n      swap2\n      sub\n      swap1\n      keccak256\n        /* \"Modules/Security/13. Function Selector Clash.sol\":334:378  bytes4 sig = bytes4(keccak256(bytes(_func))) */\n      swap1\n      pop\n        /* \"Modules/Security/13. Function Selector Clash.sol\":390:397  bool ok */\n      0x00\n        /* \"Modules/Security/13. Function Selector Clash.sol\":411:415  this */\n      address\n        /* \"Modules/Security/13. Function Selector Clash.sol\":403:421  address(this).call */\n      0xffffffffffffffffffffffffffffffffffffffff\n      and\n        /* \"Modules/Security/13. Function Selector Clash.sol\":439:442  sig */\n      dup3\n        /* \"Modules/Security/13. Function Selector Clash.sol\":444:449  _data */\n      dup6\n      dup6\n        /* \"Modules/Security/13. Function Selector Clash.sol\":422:450  abi.encodePacked(sig, _data) */\n      add(0x20, mload(0x40))\n      tag_21\n      swap4\n      swap3\n      swap2\n      swap1\n      tag_22\n      jump\t// in\n    tag_21:\n      mload(0x40)\n      0x20\n      dup2\n      dup4\n      sub\n      sub\n      dup2\n      mstore\n      swap1\n      0x40\n      mstore\n        /* \"Modules/Security/13. Function Selector Clash.sol\":403:451  address(this).call(abi.encodePacked(sig, _data)) */\n      mload(0x40)\n      tag_23\n      swap2\n      swap1\n      tag_24\n      jump\t// in\n    tag_23:\n      0x00\n      mload(0x40)\n      dup1\n      dup4\n      sub\n      dup2\n      0x00\n      dup7\n      gas\n      call\n      swap2\n      pop\n      pop\n      returndatasize\n      dup1\n      0x00\n      dup2\n      eq\n      tag_27\n      jumpi\n      mload(0x40)\n      swap2\n      pop\n      and(add(returndatasize, 0x3f), not(0x1f))\n      dup3\n      add\n      0x40\n      mstore\n      returndatasize\n      dup3\n      mstore\n      returndatasize\n      0x00\n      0x20\n      dup5\n      add\n      returndatacopy\n      jump(tag_26)\n    tag_27:\n      0x60\n      swap2\n      pop\n    tag_26:\n      pop\n        /* \"Modules/Security/13. Function Selector Clash.sol\":389:451  (bool ok, ) = address(this).call(abi.encodePacked(sig, _data)) */\n      pop\n      swap1\n      pop\n        /* \"Modules/Security/13. Function Selector Clash.sol\":469:471  ok */\n      dup1\n        /* \"Modules/Security/13. Function Selector Clash.sol\":461:485  require(ok, \"tx failed\") */\n      tag_28\n      jumpi\n      mload(0x40)\n      0x08c379a000000000000000000000000000000000000000000000000000000000\n      dup2\n      mstore\n      0x04\n      add\n      tag_29\n      swap1\n      tag_30\n      jump\t// in\n    tag_29:\n      mload(0x40)\n      dup1\n      swap2\n      sub\n      swap1\n      revert\n    tag_28:\n        /* \"Modules/Security/13. Function Selector Clash.sol\":196:492  {... */\n      pop\n      pop\n        /* \"Modules/Security/13. Function Selector Clash.sol\":125:492  function execute(string calldata _func, bytes calldata _data) external {... */\n      pop\n      pop\n      pop\n      pop\n      jump\t// out\n        /* \"Modules/Security/13. Function Selector Clash.sol\":498:665  function transfer(address payable _to, uint256 _amount) external {... */\n    tag_12:\n        /* \"Modules/Security/13. Function Selector Clash.sol\":603:607  this */\n      address\n        /* \"Modules/Security/13. Function Selector Clash.sol\":581:608  msg.sender == address(this) */\n      0xffffffffffffffffffffffffffffffffffffffff\n      and\n        /* \"Modules/Security/13. Function Selector Clash.sol\":581:591  msg.sender */\n      caller\n        /* \"Modules/Security/13. Function Selector Clash.sol\":581:608  msg.sender == address(this) */\n      0xffffffffffffffffffffffffffffffffffffffff\n      and\n      eq\n        /* \"Modules/Security/13. Function Selector Clash.sol\":573:627  require(msg.sender == address(this), \"not authorized\") */\n      tag_32\n      jumpi\n      mload(0x40)\n      0x08c379a000000000000000000000000000000000000000000000000000000000\n      dup2\n      mstore\n      0x04\n      add\n      tag_33\n      swap1\n      tag_34\n      jump\t// in\n    tag_33:\n      mload(0x40)\n      dup1\n      swap2\n      sub\n      swap1\n      revert\n    tag_32:\n        /* \"Modules/Security/13. Function Selector Clash.sol\":637:640  _to */\n      dup2\n        /* \"Modules/Security/13. Function Selector Clash.sol\":637:649  _to.transfer */\n      0xffffffffffffffffffffffffffffffffffffffff\n      and\n        /* \"Modules/Security/13. Function Selector Clash.sol\":637:658  _to.transfer(_amount) */\n      0x08fc\n        /* \"Modules/Security/13. Function Selector Clash.sol\":650:657  _amount */\n      dup3\n        /* \"Modules/Security/13. Function Selector Clash.sol\":637:658  _to.transfer(_amount) */\n      swap1\n      dup2\n      iszero\n      mul\n      swap1\n      mload(0x40)\n      0x00\n      mload(0x40)\n      dup1\n      dup4\n      sub\n      dup2\n      dup6\n      dup9\n      dup9\n      call\n      swap4\n      pop\n      pop\n      pop\n      pop\n      iszero\n      dup1\n      iszero\n      tag_36\n      jumpi\n      returndatasize\n      0x00\n      dup1\n      returndatacopy\n      revert(0x00, returndatasize)\n    tag_36:\n      pop\n        /* \"Modules/Security/13. Function Selector Clash.sol\":498:665  function transfer(address payable _to, uint256 _amount) external {... */\n      pop\n      pop\n      jump\t// out\n        /* \"Modules/Security/13. Function Selector Clash.sol\":671:846  function equal(... */\n    tag_15:\n        /* \"Modules/Security/13. Function Selector Clash.sol\":764:768  bool */\n      0x00\n        /* \"Modules/Security/13. Function Selector Clash.sol\":836:837  b */\n      dup2\n        /* \"Modules/Security/13. Function Selector Clash.sol\":825:838  abi.encode(b) */\n      add(0x20, mload(0x40))\n      tag_38\n      swap2\n      swap1\n      tag_39\n      jump\t// in\n    tag_38:\n      mload(0x40)\n      0x20\n      dup2\n      dup4\n      sub\n      sub\n      dup2\n      mstore\n      swap1\n      0x40\n      mstore\n        /* \"Modules/Security/13. Function Selector Clash.sol\":815:839  keccak256(abi.encode(b)) */\n      dup1\n      mload\n      swap1\n      0x20\n      add\n      keccak256\n        /* \"Modules/Security/13. Function Selector Clash.sol\":808:809  a */\n      dup4\n        /* \"Modules/Security/13. Function Selector Clash.sol\":797:810  abi.encode(a) */\n      add(0x20, mload(0x40))\n      tag_40\n      swap2\n      swap1\n      tag_39\n      jump\t// in\n    tag_40:\n      mload(0x40)\n      0x20\n      dup2\n      dup4\n      sub\n      sub\n      dup2\n      mstore\n      swap1\n      0x40\n      mstore\n        /* \"Modules/Security/13. Function Selector Clash.sol\":787:811  keccak256(abi.encode(a)) */\n      dup1\n      mload\n      swap1\n      0x20\n      add\n      keccak256\n        /* \"Modules/Security/13. Function Selector Clash.sol\":787:839  keccak256(abi.encode(a)) == keccak256(abi.encode(b)) */\n      eq\n        /* \"Modules/Security/13. Function Selector Clash.sol\":780:839  return keccak256(abi.encode(a)) == keccak256(abi.encode(b)) */\n      swap1\n      pop\n        /* \"Modules/Security/13. Function Selector Clash.sol\":671:846  function equal(... */\n      swap3\n      swap2\n      pop\n      pop\n      jump\t// out\n        /* \"#utility.yul\":88:205   */\n    tag_42:\n        /* \"#utility.yul\":197:198   */\n      0x00\n        /* \"#utility.yul\":194:195   */\n      dup1\n        /* \"#utility.yul\":187:199   */\n      revert\n        /* \"#utility.yul\":211:328   */\n    tag_43:\n        /* \"#utility.yul\":320:321   */\n      0x00\n        /* \"#utility.yul\":317:318   */\n      dup1\n        /* \"#utility.yul\":310:322   */\n      revert\n        /* \"#utility.yul\":334:451   */\n    tag_44:\n        /* \"#utility.yul\":443:444   */\n      0x00\n        /* \"#utility.yul\":440:441   */\n      dup1\n        /* \"#utility.yul\":433:445   */\n      revert\n        /* \"#utility.yul\":457:574   */\n    tag_45:\n        /* \"#utility.yul\":566:567   */\n      0x00\n        /* \"#utility.yul\":563:564   */\n      dup1\n        /* \"#utility.yul\":556:568   */\n      revert\n        /* \"#utility.yul\":580:697   */\n    tag_46:\n        /* \"#utility.yul\":689:690   */\n      0x00\n        /* \"#utility.yul\":686:687   */\n      dup1\n        /* \"#utility.yul\":679:691   */\n      revert\n        /* \"#utility.yul\":717:1270   */\n    tag_47:\n        /* \"#utility.yul\":775:783   */\n      0x00\n        /* \"#utility.yul\":785:791   */\n      dup1\n        /* \"#utility.yul\":835:838   */\n      dup4\n        /* \"#utility.yul\":828:832   */\n      0x1f\n        /* \"#utility.yul\":820:826   */\n      dup5\n        /* \"#utility.yul\":816:833   */\n      add\n        /* \"#utility.yul\":812:839   */\n      slt\n        /* \"#utility.yul\":802:924   */\n      tag_83\n      jumpi\n        /* \"#utility.yul\":843:922   */\n      tag_84\n      tag_44\n      jump\t// in\n    tag_84:\n        /* \"#utility.yul\":802:924   */\n    tag_83:\n        /* \"#utility.yul\":956:962   */\n      dup3\n        /* \"#utility.yul\":943:963   */\n      calldataload\n        /* \"#utility.yul\":933:963   */\n      swap1\n      pop\n        /* \"#utility.yul\":986:1004   */\n      0xffffffffffffffff\n        /* \"#utility.yul\":978:984   */\n      dup2\n        /* \"#utility.yul\":975:1005   */\n      gt\n        /* \"#utility.yul\":972:1089   */\n      iszero\n      tag_85\n      jumpi\n        /* \"#utility.yul\":1008:1087   */\n      tag_86\n      tag_45\n      jump\t// in\n    tag_86:\n        /* \"#utility.yul\":972:1089   */\n    tag_85:\n        /* \"#utility.yul\":1122:1126   */\n      0x20\n        /* \"#utility.yul\":1114:1120   */\n      dup4\n        /* \"#utility.yul\":1110:1127   */\n      add\n        /* \"#utility.yul\":1098:1127   */\n      swap2\n      pop\n        /* \"#utility.yul\":1176:1179   */\n      dup4\n        /* \"#utility.yul\":1168:1172   */\n      0x01\n        /* \"#utility.yul\":1160:1166   */\n      dup3\n        /* \"#utility.yul\":1156:1173   */\n      mul\n        /* \"#utility.yul\":1146:1154   */\n      dup4\n        /* \"#utility.yul\":1142:1174   */\n      add\n        /* \"#utility.yul\":1139:1180   */\n      gt\n        /* \"#utility.yul\":1136:1264   */\n      iszero\n      tag_87\n      jumpi\n        /* \"#utility.yul\":1183:1262   */\n      tag_88\n      tag_46\n      jump\t// in\n    tag_88:\n        /* \"#utility.yul\":1136:1264   */\n    tag_87:\n        /* \"#utility.yul\":717:1270   */\n      swap3\n      pop\n      swap3\n      swap1\n      pop\n      jump\t// out\n        /* \"#utility.yul\":1289:1841   */\n    tag_48:\n        /* \"#utility.yul\":1346:1354   */\n      0x00\n        /* \"#utility.yul\":1356:1362   */\n      dup1\n        /* \"#utility.yul\":1406:1409   */\n      dup4\n        /* \"#utility.yul\":1399:1403   */\n      0x1f\n        /* \"#utility.yul\":1391:1397   */\n      dup5\n        /* \"#utility.yul\":1387:1404   */\n      add\n        /* \"#utility.yul\":1383:1410   */\n      slt\n        /* \"#utility.yul\":1373:1495   */\n      tag_90\n      jumpi\n        /* \"#utility.yul\":1414:1493   */\n      tag_91\n      tag_44\n      jump\t// in\n    tag_91:\n        /* \"#utility.yul\":1373:1495   */\n    tag_90:\n        /* \"#utility.yul\":1527:1533   */\n      dup3\n        /* \"#utility.yul\":1514:1534   */\n      calldataload\n        /* \"#utility.yul\":1504:1534   */\n      swap1\n      pop\n        /* \"#utility.yul\":1557:1575   */\n      0xffffffffffffffff\n        /* \"#utility.yul\":1549:1555   */\n      dup2\n        /* \"#utility.yul\":1546:1576   */\n      gt\n        /* \"#utility.yul\":1543:1660   */\n      iszero\n      tag_92\n      jumpi\n        /* \"#utility.yul\":1579:1658   */\n      tag_93\n      tag_45\n      jump\t// in\n    tag_93:\n        /* \"#utility.yul\":1543:1660   */\n    tag_92:\n        /* \"#utility.yul\":1693:1697   */\n      0x20\n        /* \"#utility.yul\":1685:1691   */\n      dup4\n        /* \"#utility.yul\":1681:1698   */\n      add\n        /* \"#utility.yul\":1669:1698   */\n      swap2\n      pop\n        /* \"#utility.yul\":1747:1750   */\n      dup4\n        /* \"#utility.yul\":1739:1743   */\n      0x01\n        /* \"#utility.yul\":1731:1737   */\n      dup3\n        /* \"#utility.yul\":1727:1744   */\n      mul\n        /* \"#utility.yul\":1717:1725   */\n      dup4\n        /* \"#utility.yul\":1713:1745   */\n      add\n        /* \"#utility.yul\":1710:1751   */\n      gt\n        /* \"#utility.yul\":1707:1835   */\n      iszero\n      tag_94\n      jumpi\n        /* \"#utility.yul\":1754:1833   */\n      tag_95\n      tag_46\n      jump\t// in\n    tag_95:\n        /* \"#utility.yul\":1707:1835   */\n    tag_94:\n        /* \"#utility.yul\":1289:1841   */\n      swap3\n      pop\n      swap3\n      swap1\n      pop\n      jump\t// out\n        /* \"#utility.yul\":1847:2719   */\n    tag_7:\n        /* \"#utility.yul\":1938:1944   */\n      0x00\n        /* \"#utility.yul\":1946:1952   */\n      dup1\n        /* \"#utility.yul\":1954:1960   */\n      0x00\n        /* \"#utility.yul\":1962:1968   */\n      dup1\n        /* \"#utility.yul\":2011:2013   */\n      0x40\n        /* \"#utility.yul\":1999:2008   */\n      dup6\n        /* \"#utility.yul\":1990:1997   */\n      dup8\n        /* \"#utility.yul\":1986:2009   */\n      sub\n        /* \"#utility.yul\":1982:2014   */\n      slt\n        /* \"#utility.yul\":1979:2098   */\n      iszero\n      tag_97\n      jumpi\n        /* \"#utility.yul\":2017:2096   */\n      tag_98\n      tag_42\n      jump\t// in\n    tag_98:\n        /* \"#utility.yul\":1979:2098   */\n    tag_97:\n        /* \"#utility.yul\":2165:2166   */\n      0x00\n        /* \"#utility.yul\":2154:2163   */\n      dup6\n        /* \"#utility.yul\":2150:2167   */\n      add\n        /* \"#utility.yul\":2137:2168   */\n      calldataload\n        /* \"#utility.yul\":2195:2213   */\n      0xffffffffffffffff\n        /* \"#utility.yul\":2187:2193   */\n      dup2\n        /* \"#utility.yul\":2184:2214   */\n      gt\n        /* \"#utility.yul\":2181:2298   */\n      iszero\n      tag_99\n      jumpi\n        /* \"#utility.yul\":2217:2296   */\n      tag_100\n      tag_43\n      jump\t// in\n    tag_100:\n        /* \"#utility.yul\":2181:2298   */\n    tag_99:\n        /* \"#utility.yul\":2330:2395   */\n      tag_101\n        /* \"#utility.yul\":2387:2394   */\n      dup8\n        /* \"#utility.yul\":2378:2384   */\n      dup3\n        /* \"#utility.yul\":2367:2376   */\n      dup9\n        /* \"#utility.yul\":2363:2385   */\n      add\n        /* \"#utility.yul\":2330:2395   */\n      tag_47\n      jump\t// in\n    tag_101:\n        /* \"#utility.yul\":2312:2395   */\n      swap5\n      pop\n      swap5\n      pop\n        /* \"#utility.yul\":2108:2405   */\n      pop\n        /* \"#utility.yul\":2472:2474   */\n      0x20\n        /* \"#utility.yul\":2461:2470   */\n      dup6\n        /* \"#utility.yul\":2457:2475   */\n      add\n        /* \"#utility.yul\":2444:2476   */\n      calldataload\n        /* \"#utility.yul\":2503:2521   */\n      0xffffffffffffffff\n        /* \"#utility.yul\":2495:2501   */\n      dup2\n        /* \"#utility.yul\":2492:2522   */\n      gt\n        /* \"#utility.yul\":2489:2606   */\n      iszero\n      tag_102\n      jumpi\n        /* \"#utility.yul\":2525:2604   */\n      tag_103\n      tag_43\n      jump\t// in\n    tag_103:\n        /* \"#utility.yul\":2489:2606   */\n    tag_102:\n        /* \"#utility.yul\":2638:2702   */\n      tag_104\n        /* \"#utility.yul\":2694:2701   */\n      dup8\n        /* \"#utility.yul\":2685:2691   */\n      dup3\n        /* \"#utility.yul\":2674:2683   */\n      dup9\n        /* \"#utility.yul\":2670:2692   */\n      add\n        /* \"#utility.yul\":2638:2702   */\n      tag_48\n      jump\t// in\n    tag_104:\n        /* \"#utility.yul\":2620:2702   */\n      swap3\n      pop\n      swap3\n      pop\n        /* \"#utility.yul\":2415:2712   */\n      pop\n        /* \"#utility.yul\":1847:2719   */\n      swap3\n      swap6\n      swap2\n      swap5\n      pop\n      swap3\n      pop\n      jump\t// out\n        /* \"#utility.yul\":2725:2851   */\n    tag_49:\n        /* \"#utility.yul\":2762:2769   */\n      0x00\n        /* \"#utility.yul\":2802:2844   */\n      0xffffffffffffffffffffffffffffffffffffffff\n        /* \"#utility.yul\":2795:2800   */\n      dup3\n        /* \"#utility.yul\":2791:2845   */\n      and\n        /* \"#utility.yul\":2780:2845   */\n      swap1\n      pop\n        /* \"#utility.yul\":2725:2851   */\n      swap2\n      swap1\n      pop\n      jump\t// out\n        /* \"#utility.yul\":2857:2961   */\n    tag_50:\n        /* \"#utility.yul\":2902:2909   */\n      0x00\n        /* \"#utility.yul\":2931:2955   */\n      tag_107\n        /* \"#utility.yul\":2949:2954   */\n      dup3\n        /* \"#utility.yul\":2931:2955   */\n      tag_49\n      jump\t// in\n    tag_107:\n        /* \"#utility.yul\":2920:2955   */\n      swap1\n      pop\n        /* \"#utility.yul\":2857:2961   */\n      swap2\n      swap1\n      pop\n      jump\t// out\n        /* \"#utility.yul\":2967:3105   */\n    tag_51:\n        /* \"#utility.yul\":3048:3080   */\n      tag_109\n        /* \"#utility.yul\":3074:3079   */\n      dup2\n        /* \"#utility.yul\":3048:3080   */\n      tag_50\n      jump\t// in\n    tag_109:\n        /* \"#utility.yul\":3041:3046   */\n      dup2\n        /* \"#utility.yul\":3038:3081   */\n      eq\n        /* \"#utility.yul\":3028:3099   */\n      tag_110\n      jumpi\n        /* \"#utility.yul\":3095:3096   */\n      0x00\n        /* \"#utility.yul\":3092:3093   */\n      dup1\n        /* \"#utility.yul\":3085:3097   */\n      revert\n        /* \"#utility.yul\":3028:3099   */\n    tag_110:\n        /* \"#utility.yul\":2967:3105   */\n      pop\n      jump\t// out\n        /* \"#utility.yul\":3111:3266   */\n    tag_52:\n        /* \"#utility.yul\":3165:3170   */\n      0x00\n        /* \"#utility.yul\":3203:3209   */\n      dup2\n        /* \"#utility.yul\":3190:3210   */\n      calldataload\n        /* \"#utility.yul\":3181:3210   */\n      swap1\n      pop\n        /* \"#utility.yul\":3219:3260   */\n      tag_112\n        /* \"#utility.yul\":3254:3259   */\n      dup2\n        /* \"#utility.yul\":3219:3260   */\n      tag_51\n      jump\t// in\n    tag_112:\n        /* \"#utility.yul\":3111:3266   */\n      swap3\n      swap2\n      pop\n      pop\n      jump\t// out\n        /* \"#utility.yul\":3272:3349   */\n    tag_53:\n        /* \"#utility.yul\":3309:3316   */\n      0x00\n        /* \"#utility.yul\":3338:3343   */\n      dup2\n        /* \"#utility.yul\":3327:3343   */\n      swap1\n      pop\n        /* \"#utility.yul\":3272:3349   */\n      swap2\n      swap1\n      pop\n      jump\t// out\n        /* \"#utility.yul\":3355:3477   */\n    tag_54:\n        /* \"#utility.yul\":3428:3452   */\n      tag_115\n        /* \"#utility.yul\":3446:3451   */\n      dup2\n        /* \"#utility.yul\":3428:3452   */\n      tag_53\n      jump\t// in\n    tag_115:\n        /* \"#utility.yul\":3421:3426   */\n      dup2\n        /* \"#utility.yul\":3418:3453   */\n      eq\n        /* \"#utility.yul\":3408:3471   */\n      tag_116\n      jumpi\n        /* \"#utility.yul\":3467:3468   */\n      0x00\n        /* \"#utility.yul\":3464:3465   */\n      dup1\n        /* \"#utility.yul\":3457:3469   */\n      revert\n        /* \"#utility.yul\":3408:3471   */\n    tag_116:\n        /* \"#utility.yul\":3355:3477   */\n      pop\n      jump\t// out\n        /* \"#utility.yul\":3483:3622   */\n    tag_55:\n        /* \"#utility.yul\":3529:3534   */\n      0x00\n        /* \"#utility.yul\":3567:3573   */\n      dup2\n        /* \"#utility.yul\":3554:3574   */\n      calldataload\n        /* \"#utility.yul\":3545:3574   */\n      swap1\n      pop\n        /* \"#utility.yul\":3583:3616   */\n      tag_118\n        /* \"#utility.yul\":3610:3615   */\n      dup2\n        /* \"#utility.yul\":3583:3616   */\n      tag_54\n      jump\t// in\n    tag_118:\n        /* \"#utility.yul\":3483:3622   */\n      swap3\n      swap2\n      pop\n      pop\n      jump\t// out\n        /* \"#utility.yul\":3628:4118   */\n    tag_11:\n        /* \"#utility.yul\":3704:3710   */\n      0x00\n        /* \"#utility.yul\":3712:3718   */\n      dup1\n        /* \"#utility.yul\":3761:3763   */\n      0x40\n        /* \"#utility.yul\":3749:3758   */\n      dup4\n        /* \"#utility.yul\":3740:3747   */\n      dup6\n        /* \"#utility.yul\":3736:3759   */\n      sub\n        /* \"#utility.yul\":3732:3764   */\n      slt\n        /* \"#utility.yul\":3729:3848   */\n      iszero\n      tag_120\n      jumpi\n        /* \"#utility.yul\":3767:3846   */\n      tag_121\n      tag_42\n      jump\t// in\n    tag_121:\n        /* \"#utility.yul\":3729:3848   */\n    tag_120:\n        /* \"#utility.yul\":3887:3888   */\n      0x00\n        /* \"#utility.yul\":3912:3973   */\n      tag_122\n        /* \"#utility.yul\":3965:3972   */\n      dup6\n        /* \"#utility.yul\":3956:3962   */\n      dup3\n        /* \"#utility.yul\":3945:3954   */\n      dup7\n        /* \"#utility.yul\":3941:3963   */\n      add\n        /* \"#utility.yul\":3912:3973   */\n      tag_52\n      jump\t// in\n    tag_122:\n        /* \"#utility.yul\":3902:3973   */\n      swap3\n      pop\n        /* \"#utility.yul\":3858:3983   */\n      pop\n        /* \"#utility.yul\":4022:4024   */\n      0x20\n        /* \"#utility.yul\":4048:4101   */\n      tag_123\n        /* \"#utility.yul\":4093:4100   */\n      dup6\n        /* \"#utility.yul\":4084:4090   */\n      dup3\n        /* \"#utility.yul\":4073:4082   */\n      dup7\n        /* \"#utility.yul\":4069:4091   */\n      add\n        /* \"#utility.yul\":4048:4101   */\n      tag_55\n      jump\t// in\n    tag_123:\n        /* \"#utility.yul\":4038:4101   */\n      swap2\n      pop\n        /* \"#utility.yul\":3993:4111   */\n      pop\n        /* \"#utility.yul\":3628:4118   */\n      swap3\n      pop\n      swap3\n      swap1\n      pop\n      jump\t// out\n        /* \"#utility.yul\":4124:4293   */\n    tag_56:\n        /* \"#utility.yul\":4208:4219   */\n      0x00\n        /* \"#utility.yul\":4242:4248   */\n      dup3\n        /* \"#utility.yul\":4237:4240   */\n      dup3\n        /* \"#utility.yul\":4230:4249   */\n      mstore\n        /* \"#utility.yul\":4282:4286   */\n      0x20\n        /* \"#utility.yul\":4277:4280   */\n      dup3\n        /* \"#utility.yul\":4273:4287   */\n      add\n        /* \"#utility.yul\":4258:4287   */\n      swap1\n      pop\n        /* \"#utility.yul\":4124:4293   */\n      swap3\n      swap2\n      pop\n      pop\n      jump\t// out\n        /* \"#utility.yul\":4299:4477   */\n    tag_57:\n        /* \"#utility.yul\":4439:4469   */\n      0x63616c6c20746f207472616e73666572206e6f7420616c6c6f77656400000000\n        /* \"#utility.yul\":4435:4436   */\n      0x00\n        /* \"#utility.yul\":4427:4433   */\n      dup3\n        /* \"#utility.yul\":4423:4437   */\n      add\n        /* \"#utility.yul\":4416:4470   */\n      mstore\n        /* \"#utility.yul\":4299:4477   */\n      pop\n      jump\t// out\n        /* \"#utility.yul\":4483:4849   */\n    tag_58:\n        /* \"#utility.yul\":4625:4628   */\n      0x00\n        /* \"#utility.yul\":4646:4713   */\n      tag_127\n        /* \"#utility.yul\":4710:4712   */\n      0x1c\n        /* \"#utility.yul\":4705:4708   */\n      dup4\n        /* \"#utility.yul\":4646:4713   */\n      tag_56\n      jump\t// in\n    tag_127:\n        /* \"#utility.yul\":4639:4713   */\n      swap2\n      pop\n        /* \"#utility.yul\":4722:4815   */\n      tag_128\n        /* \"#utility.yul\":4811:4814   */\n      dup3\n        /* \"#utility.yul\":4722:4815   */\n      tag_57\n      jump\t// in\n    tag_128:\n        /* \"#utility.yul\":4840:4842   */\n      0x20\n        /* \"#utility.yul\":4835:4838   */\n      dup3\n        /* \"#utility.yul\":4831:4843   */\n      add\n        /* \"#utility.yul\":4824:4843   */\n      swap1\n      pop\n        /* \"#utility.yul\":4483:4849   */\n      swap2\n      swap1\n      pop\n      jump\t// out\n        /* \"#utility.yul\":4855:5274   */\n    tag_18:\n        /* \"#utility.yul\":5021:5025   */\n      0x00\n        /* \"#utility.yul\":5059:5061   */\n      0x20\n        /* \"#utility.yul\":5048:5057   */\n      dup3\n        /* \"#utility.yul\":5044:5062   */\n      add\n        /* \"#utility.yul\":5036:5062   */\n      swap1\n      pop\n        /* \"#utility.yul\":5108:5117   */\n      dup2\n        /* \"#utility.yul\":5102:5106   */\n      dup2\n        /* \"#utility.yul\":5098:5118   */\n      sub\n        /* \"#utility.yul\":5094:5095   */\n      0x00\n        /* \"#utility.yul\":5083:5092   */\n      dup4\n        /* \"#utility.yul\":5079:5096   */\n      add\n        /* \"#utility.yul\":5072:5119   */\n      mstore\n        /* \"#utility.yul\":5136:5267   */\n      tag_130\n        /* \"#utility.yul\":5262:5266   */\n      dup2\n        /* \"#utility.yul\":5136:5267   */\n      tag_58\n      jump\t// in\n    tag_130:\n        /* \"#utility.yul\":5128:5267   */\n      swap1\n      pop\n        /* \"#utility.yul\":4855:5274   */\n      swap2\n      swap1\n      pop\n      jump\t// out\n        /* \"#utility.yul\":5280:5427   */\n    tag_59:\n        /* \"#utility.yul\":5381:5392   */\n      0x00\n        /* \"#utility.yul\":5418:5421   */\n      dup2\n        /* \"#utility.yul\":5403:5421   */\n      swap1\n      pop\n        /* \"#utility.yul\":5280:5427   */\n      swap3\n      swap2\n      pop\n      pop\n      jump\t// out\n        /* \"#utility.yul\":5433:5579   */\n    tag_60:\n        /* \"#utility.yul\":5530:5536   */\n      dup3\n        /* \"#utility.yul\":5525:5528   */\n      dup2\n        /* \"#utility.yul\":5520:5523   */\n      dup4\n        /* \"#utility.yul\":5507:5537   */\n      calldatacopy\n        /* \"#utility.yul\":5571:5572   */\n      0x00\n        /* \"#utility.yul\":5562:5568   */\n      dup4\n        /* \"#utility.yul\":5557:5560   */\n      dup4\n        /* \"#utility.yul\":5553:5569   */\n      add\n        /* \"#utility.yul\":5546:5573   */\n      mstore\n        /* \"#utility.yul\":5433:5579   */\n      pop\n      pop\n      pop\n      jump\t// out\n        /* \"#utility.yul\":5607:5934   */\n    tag_61:\n        /* \"#utility.yul\":5721:5724   */\n      0x00\n        /* \"#utility.yul\":5742:5830   */\n      tag_134\n        /* \"#utility.yul\":5823:5829   */\n      dup4\n        /* \"#utility.yul\":5818:5821   */\n      dup6\n        /* \"#utility.yul\":5742:5830   */\n      tag_59\n      jump\t// in\n    tag_134:\n        /* \"#utility.yul\":5735:5830   */\n      swap4\n      pop\n        /* \"#utility.yul\":5840:5896   */\n      tag_135\n        /* \"#utility.yul\":5889:5895   */\n      dup4\n        /* \"#utility.yul\":5884:5887   */\n      dup6\n        /* \"#utility.yul\":5877:5882   */\n      dup5\n        /* \"#utility.yul\":5840:5896   */\n      tag_60\n      jump\t// in\n    tag_135:\n        /* \"#utility.yul\":5921:5927   */\n      dup3\n        /* \"#utility.yul\":5916:5919   */\n      dup5\n        /* \"#utility.yul\":5912:5928   */\n      add\n        /* \"#utility.yul\":5905:5928   */\n      swap1\n      pop\n        /* \"#utility.yul\":5607:5934   */\n      swap4\n      swap3\n      pop\n      pop\n      pop\n      jump\t// out\n        /* \"#utility.yul\":5940:6231   */\n    tag_20:\n        /* \"#utility.yul\":6080:6083   */\n      0x00\n        /* \"#utility.yul\":6102:6205   */\n      tag_137\n        /* \"#utility.yul\":6201:6204   */\n      dup3\n        /* \"#utility.yul\":6192:6198   */\n      dup5\n        /* \"#utility.yul\":6184:6190   */\n      dup7\n        /* \"#utility.yul\":6102:6205   */\n      tag_61\n      jump\t// in\n    tag_137:\n        /* \"#utility.yul\":6095:6205   */\n      swap2\n      pop\n        /* \"#utility.yul\":6222:6225   */\n      dup2\n        /* \"#utility.yul\":6215:6225   */\n      swap1\n      pop\n        /* \"#utility.yul\":5940:6231   */\n      swap4\n      swap3\n      pop\n      pop\n      pop\n      jump\t// out\n        /* \"#utility.yul\":6237:6386   */\n    tag_62:\n        /* \"#utility.yul\":6273:6280   */\n      0x00\n        /* \"#utility.yul\":6313:6379   */\n      0xffffffff00000000000000000000000000000000000000000000000000000000\n        /* \"#utility.yul\":6306:6311   */\n      dup3\n        /* \"#utility.yul\":6302:6380   */\n      and\n        /* \"#utility.yul\":6291:6380   */\n      swap1\n      pop\n        /* \"#utility.yul\":6237:6386   */\n      swap2\n      swap1\n      pop\n      jump\t// out\n        /* \"#utility.yul\":6392:6470   */\n    tag_63:\n        /* \"#utility.yul\":6430:6437   */\n      0x00\n        /* \"#utility.yul\":6459:6464   */\n      dup2\n        /* \"#utility.yul\":6448:6464   */\n      swap1\n      pop\n        /* \"#utility.yul\":6392:6470   */\n      swap2\n      swap1\n      pop\n      jump\t// out\n        /* \"#utility.yul\":6476:6629   */\n    tag_64:\n        /* \"#utility.yul\":6579:6622   */\n      tag_141\n        /* \"#utility.yul\":6598:6621   */\n      tag_142\n        /* \"#utility.yul\":6615:6620   */\n      dup3\n        /* \"#utility.yul\":6598:6621   */\n      tag_62\n      jump\t// in\n    tag_142:\n        /* \"#utility.yul\":6579:6622   */\n      tag_63\n      jump\t// in\n    tag_141:\n        /* \"#utility.yul\":6574:6577   */\n      dup3\n        /* \"#utility.yul\":6567:6623   */\n      mstore\n        /* \"#utility.yul\":6476:6629   */\n      pop\n      pop\n      jump\t// out\n        /* \"#utility.yul\":6635:7062   */\n    tag_22:\n        /* \"#utility.yul\":6801:6804   */\n      0x00\n        /* \"#utility.yul\":6816:6889   */\n      tag_144\n        /* \"#utility.yul\":6885:6888   */\n      dup3\n        /* \"#utility.yul\":6876:6882   */\n      dup7\n        /* \"#utility.yul\":6816:6889   */\n      tag_64\n      jump\t// in\n    tag_144:\n        /* \"#utility.yul\":6914:6915   */\n      0x04\n        /* \"#utility.yul\":6909:6912   */\n      dup3\n        /* \"#utility.yul\":6905:6916   */\n      add\n        /* \"#utility.yul\":6898:6916   */\n      swap2\n      pop\n        /* \"#utility.yul\":6933:7036   */\n      tag_145\n        /* \"#utility.yul\":7032:7035   */\n      dup3\n        /* \"#utility.yul\":7023:7029   */\n      dup5\n        /* \"#utility.yul\":7015:7021   */\n      dup7\n        /* \"#utility.yul\":6933:7036   */\n      tag_61\n      jump\t// in\n    tag_145:\n        /* \"#utility.yul\":6926:7036   */\n      swap2\n      pop\n        /* \"#utility.yul\":7053:7056   */\n      dup2\n        /* \"#utility.yul\":7046:7056   */\n      swap1\n      pop\n        /* \"#utility.yul\":6635:7062   */\n      swap5\n      swap4\n      pop\n      pop\n      pop\n      pop\n      jump\t// out\n        /* \"#utility.yul\":7068:7166   */\n    tag_65:\n        /* \"#utility.yul\":7119:7125   */\n      0x00\n        /* \"#utility.yul\":7153:7158   */\n      dup2\n        /* \"#utility.yul\":7147:7159   */\n      mload\n        /* \"#utility.yul\":7137:7159   */\n      swap1\n      pop\n        /* \"#utility.yul\":7068:7166   */\n      swap2\n      swap1\n      pop\n      jump\t// out\n        /* \"#utility.yul\":7172:7418   */\n    tag_66:\n        /* \"#utility.yul\":7253:7254   */\n      0x00\n        /* \"#utility.yul\":7263:7376   */\n    tag_148:\n        /* \"#utility.yul\":7277:7283   */\n      dup4\n        /* \"#utility.yul\":7274:7275   */\n      dup2\n        /* \"#utility.yul\":7271:7284   */\n      lt\n        /* \"#utility.yul\":7263:7376   */\n      iszero\n      tag_150\n      jumpi\n        /* \"#utility.yul\":7362:7363   */\n      dup1\n        /* \"#utility.yul\":7357:7360   */\n      dup3\n        /* \"#utility.yul\":7353:7364   */\n      add\n        /* \"#utility.yul\":7347:7365   */\n      mload\n        /* \"#utility.yul\":7343:7344   */\n      dup2\n        /* \"#utility.yul\":7338:7341   */\n      dup5\n        /* \"#utility.yul\":7334:7345   */\n      add\n        /* \"#utility.yul\":7327:7366   */\n      mstore\n        /* \"#utility.yul\":7299:7301   */\n      0x20\n        /* \"#utility.yul\":7296:7297   */\n      dup2\n        /* \"#utility.yul\":7292:7302   */\n      add\n        /* \"#utility.yul\":7287:7302   */\n      swap1\n      pop\n        /* \"#utility.yul\":7263:7376   */\n      jump(tag_148)\n    tag_150:\n        /* \"#utility.yul\":7410:7411   */\n      0x00\n        /* \"#utility.yul\":7401:7407   */\n      dup5\n        /* \"#utility.yul\":7396:7399   */\n      dup5\n        /* \"#utility.yul\":7392:7408   */\n      add\n        /* \"#utility.yul\":7385:7412   */\n      mstore\n        /* \"#utility.yul\":7234:7418   */\n      pop\n        /* \"#utility.yul\":7172:7418   */\n      pop\n      pop\n      pop\n      jump\t// out\n        /* \"#utility.yul\":7424:7810   */\n    tag_67:\n        /* \"#utility.yul\":7528:7531   */\n      0x00\n        /* \"#utility.yul\":7556:7594   */\n      tag_152\n        /* \"#utility.yul\":7588:7593   */\n      dup3\n        /* \"#utility.yul\":7556:7594   */\n      tag_65\n      jump\t// in\n    tag_152:\n        /* \"#utility.yul\":7610:7698   */\n      tag_153\n        /* \"#utility.yul\":7691:7697   */\n      dup2\n        /* \"#utility.yul\":7686:7689   */\n      dup6\n        /* \"#utility.yul\":7610:7698   */\n      tag_59\n      jump\t// in\n    tag_153:\n        /* \"#utility.yul\":7603:7698   */\n      swap4\n      pop\n        /* \"#utility.yul\":7707:7772   */\n      tag_154\n        /* \"#utility.yul\":7765:7771   */\n      dup2\n        /* \"#utility.yul\":7760:7763   */\n      dup6\n        /* \"#utility.yul\":7753:7757   */\n      0x20\n        /* \"#utility.yul\":7746:7751   */\n      dup7\n        /* \"#utility.yul\":7742:7758   */\n      add\n        /* \"#utility.yul\":7707:7772   */\n      tag_66\n      jump\t// in\n    tag_154:\n        /* \"#utility.yul\":7797:7803   */\n      dup1\n        /* \"#utility.yul\":7792:7795   */\n      dup5\n        /* \"#utility.yul\":7788:7804   */\n      add\n        /* \"#utility.yul\":7781:7804   */\n      swap2\n      pop\n        /* \"#utility.yul\":7532:7810   */\n      pop\n        /* \"#utility.yul\":7424:7810   */\n      swap3\n      swap2\n      pop\n      pop\n      jump\t// out\n        /* \"#utility.yul\":7816:8087   */\n    tag_24:\n        /* \"#utility.yul\":7946:7949   */\n      0x00\n        /* \"#utility.yul\":7968:8061   */\n      tag_156\n        /* \"#utility.yul\":8057:8060   */\n      dup3\n        /* \"#utility.yul\":8048:8054   */\n      dup5\n        /* \"#utility.yul\":7968:8061   */\n      tag_67\n      jump\t// in\n    tag_156:\n        /* \"#utility.yul\":7961:8061   */\n      swap2\n      pop\n        /* \"#utility.yul\":8078:8081   */\n      dup2\n        /* \"#utility.yul\":8071:8081   */\n      swap1\n      pop\n        /* \"#utility.yul\":7816:8087   */\n      swap3\n      swap2\n      pop\n      pop\n      jump\t// out\n        /* \"#utility.yul\":8093:8252   */\n    tag_68:\n        /* \"#utility.yul\":8233:8244   */\n      0x7478206661696c65640000000000000000000000000000000000000000000000\n        /* \"#utility.yul\":8229:8230   */\n      0x00\n        /* \"#utility.yul\":8221:8227   */\n      dup3\n        /* \"#utility.yul\":8217:8231   */\n      add\n        /* \"#utility.yul\":8210:8245   */\n      mstore\n        /* \"#utility.yul\":8093:8252   */\n      pop\n      jump\t// out\n        /* \"#utility.yul\":8258:8623   */\n    tag_69:\n        /* \"#utility.yul\":8400:8403   */\n      0x00\n        /* \"#utility.yul\":8421:8487   */\n      tag_159\n        /* \"#utility.yul\":8485:8486   */\n      0x09\n        /* \"#utility.yul\":8480:8483   */\n      dup4\n        /* \"#utility.yul\":8421:8487   */\n      tag_56\n      jump\t// in\n    tag_159:\n        /* \"#utility.yul\":8414:8487   */\n      swap2\n      pop\n        /* \"#utility.yul\":8496:8589   */\n      tag_160\n        /* \"#utility.yul\":8585:8588   */\n      dup3\n        /* \"#utility.yul\":8496:8589   */\n      tag_68\n      jump\t// in\n    tag_160:\n        /* \"#utility.yul\":8614:8616   */\n      0x20\n        /* \"#utility.yul\":8609:8612   */\n      dup3\n        /* \"#utility.yul\":8605:8617   */\n      add\n        /* \"#utility.yul\":8598:8617   */\n      swap1\n      pop\n        /* \"#utility.yul\":8258:8623   */\n      swap2\n      swap1\n      pop\n      jump\t// out\n        /* \"#utility.yul\":8629:9048   */\n    tag_30:\n        /* \"#utility.yul\":8795:8799   */\n      0x00\n        /* \"#utility.yul\":8833:8835   */\n      0x20\n        /* \"#utility.yul\":8822:8831   */\n      dup3\n        /* \"#utility.yul\":8818:8836   */\n      add\n        /* \"#utility.yul\":8810:8836   */\n      swap1\n      pop\n        /* \"#utility.yul\":8882:8891   */\n      dup2\n        /* \"#utility.yul\":8876:8880   */\n      dup2\n        /* \"#utility.yul\":8872:8892   */\n      sub\n        /* \"#utility.yul\":8868:8869   */\n      0x00\n        /* \"#utility.yul\":8857:8866   */\n      dup4\n        /* \"#utility.yul\":8853:8870   */\n      add\n        /* \"#utility.yul\":8846:8893   */\n      mstore\n        /* \"#utility.yul\":8910:9041   */\n      tag_162\n        /* \"#utility.yul\":9036:9040   */\n      dup2\n        /* \"#utility.yul\":8910:9041   */\n      tag_69\n      jump\t// in\n    tag_162:\n        /* \"#utility.yul\":8902:9041   */\n      swap1\n      pop\n        /* \"#utility.yul\":8629:9048   */\n      swap2\n      swap1\n      pop\n      jump\t// out\n        /* \"#utility.yul\":9054:9218   */\n    tag_70:\n        /* \"#utility.yul\":9194:9210   */\n      0x6e6f7420617574686f72697a6564000000000000000000000000000000000000\n        /* \"#utility.yul\":9190:9191   */\n      0x00\n        /* \"#utility.yul\":9182:9188   */\n      dup3\n        /* \"#utility.yul\":9178:9192   */\n      add\n        /* \"#utility.yul\":9171:9211   */\n      mstore\n        /* \"#utility.yul\":9054:9218   */\n      pop\n      jump\t// out\n        /* \"#utility.yul\":9224:9590   */\n    tag_71:\n        /* \"#utility.yul\":9366:9369   */\n      0x00\n        /* \"#utility.yul\":9387:9454   */\n      tag_165\n        /* \"#utility.yul\":9451:9453   */\n      0x0e\n        /* \"#utility.yul\":9446:9449   */\n      dup4\n        /* \"#utility.yul\":9387:9454   */\n      tag_56\n      jump\t// in\n    tag_165:\n        /* \"#utility.yul\":9380:9454   */\n      swap2\n      pop\n        /* \"#utility.yul\":9463:9556   */\n      tag_166\n        /* \"#utility.yul\":9552:9555   */\n      dup3\n        /* \"#utility.yul\":9463:9556   */\n      tag_70\n      jump\t// in\n    tag_166:\n        /* \"#utility.yul\":9581:9583   */\n      0x20\n        /* \"#utility.yul\":9576:9579   */\n      dup3\n        /* \"#utility.yul\":9572:9584   */\n      add\n        /* \"#utility.yul\":9565:9584   */\n      swap1\n      pop\n        /* \"#utility.yul\":9224:9590   */\n      swap2\n      swap1\n      pop\n      jump\t// out\n        /* \"#utility.yul\":9596:10015   */\n    tag_34:\n        /* \"#utility.yul\":9762:9766   */\n      0x00\n        /* \"#utility.yul\":9800:9802   */\n      0x20\n        /* \"#utility.yul\":9789:9798   */\n      dup3\n        /* \"#utility.yul\":9785:9803   */\n      add\n        /* \"#utility.yul\":9777:9803   */\n      swap1\n      pop\n        /* \"#utility.yul\":9849:9858   */\n      dup2\n        /* \"#utility.yul\":9843:9847   */\n      dup2\n        /* \"#utility.yul\":9839:9859   */\n      sub\n        /* \"#utility.yul\":9835:9836   */\n      0x00\n        /* \"#utility.yul\":9824:9833   */\n      dup4\n        /* \"#utility.yul\":9820:9837   */\n      add\n        /* \"#utility.yul\":9813:9860   */\n      mstore\n        /* \"#utility.yul\":9877:10008   */\n      tag_168\n        /* \"#utility.yul\":10003:10007   */\n      dup2\n        /* \"#utility.yul\":9877:10008   */\n      tag_71\n      jump\t// in\n    tag_168:\n        /* \"#utility.yul\":9869:10008   */\n      swap1\n      pop\n        /* \"#utility.yul\":9596:10015   */\n      swap2\n      swap1\n      pop\n      jump\t// out\n        /* \"#utility.yul\":10021:10120   */\n    tag_72:\n        /* \"#utility.yul\":10073:10079   */\n      0x00\n        /* \"#utility.yul\":10107:10112   */\n      dup2\n        /* \"#utility.yul\":10101:10113   */\n      mload\n        /* \"#utility.yul\":10091:10113   */\n      swap1\n      pop\n        /* \"#utility.yul\":10021:10120   */\n      swap2\n      swap1\n      pop\n      jump\t// out\n        /* \"#utility.yul\":10126:10228   */\n    tag_73:\n        /* \"#utility.yul\":10167:10173   */\n      0x00\n        /* \"#utility.yul\":10218:10220   */\n      0x1f\n        /* \"#utility.yul\":10214:10221   */\n      not\n        /* \"#utility.yul\":10209:10211   */\n      0x1f\n        /* \"#utility.yul\":10202:10207   */\n      dup4\n        /* \"#utility.yul\":10198:10212   */\n      add\n        /* \"#utility.yul\":10194:10222   */\n      and\n        /* \"#utility.yul\":10184:10222   */\n      swap1\n      pop\n        /* \"#utility.yul\":10126:10228   */\n      swap2\n      swap1\n      pop\n      jump\t// out\n        /* \"#utility.yul\":10234:10611   */\n    tag_74:\n        /* \"#utility.yul\":10322:10325   */\n      0x00\n        /* \"#utility.yul\":10350:10389   */\n      tag_172\n        /* \"#utility.yul\":10383:10388   */\n      dup3\n        /* \"#utility.yul\":10350:10389   */\n      tag_72\n      jump\t// in\n    tag_172:\n        /* \"#utility.yul\":10405:10476   */\n      tag_173\n        /* \"#utility.yul\":10469:10475   */\n      dup2\n        /* \"#utility.yul\":10464:10467   */\n      dup6\n        /* \"#utility.yul\":10405:10476   */\n      tag_56\n      jump\t// in\n    tag_173:\n        /* \"#utility.yul\":10398:10476   */\n      swap4\n      pop\n        /* \"#utility.yul\":10485:10550   */\n      tag_174\n        /* \"#utility.yul\":10543:10549   */\n      dup2\n        /* \"#utility.yul\":10538:10541   */\n      dup6\n        /* \"#utility.yul\":10531:10535   */\n      0x20\n        /* \"#utility.yul\":10524:10529   */\n      dup7\n        /* \"#utility.yul\":10520:10536   */\n      add\n        /* \"#utility.yul\":10485:10550   */\n      tag_66\n      jump\t// in\n    tag_174:\n        /* \"#utility.yul\":10575:10604   */\n      tag_175\n        /* \"#utility.yul\":10597:10603   */\n      dup2\n        /* \"#utility.yul\":10575:10604   */\n      tag_73\n      jump\t// in\n    tag_175:\n        /* \"#utility.yul\":10570:10573   */\n      dup5\n        /* \"#utility.yul\":10566:10605   */\n      add\n        /* \"#utility.yul\":10559:10605   */\n      swap2\n      pop\n        /* \"#utility.yul\":10326:10611   */\n      pop\n        /* \"#utility.yul\":10234:10611   */\n      swap3\n      swap2\n      pop\n      pop\n      jump\t// out\n        /* \"#utility.yul\":10617:10930   */\n    tag_39:\n        /* \"#utility.yul\":10730:10734   */\n      0x00\n        /* \"#utility.yul\":10768:10770   */\n      0x20\n        /* \"#utility.yul\":10757:10766   */\n      dup3\n        /* \"#utility.yul\":10753:10771   */\n      add\n        /* \"#utility.yul\":10745:10771   */\n      swap1\n      pop\n        /* \"#utility.yul\":10817:10826   */\n      dup2\n        /* \"#utility.yul\":10811:10815   */\n      dup2\n        /* \"#utility.yul\":10807:10827   */\n      sub\n        /* \"#utility.yul\":10803:10804   */\n      0x00\n        /* \"#utility.yul\":10792:10801   */\n      dup4\n        /* \"#utility.yul\":10788:10805   */\n      add\n        /* \"#utility.yul\":10781:10828   */\n      mstore\n        /* \"#utility.yul\":10845:10923   */\n      tag_177\n        /* \"#utility.yul\":10918:10922   */\n      dup2\n        /* \"#utility.yul\":10909:10915   */\n      dup5\n        /* \"#utility.yul\":10845:10923   */\n      tag_74\n      jump\t// in\n    tag_177:\n        /* \"#utility.yul\":10837:10923   */\n      swap1\n      pop\n        /* \"#utility.yul\":10617:10930   */\n      swap3\n      swap2\n      pop\n      pop\n      jump\t// out\n\n    auxdata: 0xa2646970667358221220fea1e9c4d73776d0fd3975e42e7cec1811ec6eb8d2b4650b2af285c4bf483c4964736f6c63430008160033\n}\n",
				"bytecode": {
					"linkReferences": {},
					"object": "6080604052610865806100115f395ff3fe608060405234801561000f575f80fd5b5060043610610034575f3560e01c8063229320ca14610038578063a9059cbb14610054575b5f80fd5b610052600480360381019061004d91906103ec565b610070565b005b61006e600480360381019061006991906104f7565b610220565b005b6100f284848080601f0160208091040260200160405190810160405280939291908181526020018383808284375f81840152601f19601f820116905080830192505050505050506040518060400160405280601981526020017f7472616e7366657228616464726573732c75696e7432353629000000000000008152506102d6565b15610132576040517f08c379a00000000000000000000000000000000000000000000000000000000081526004016101299061058f565b60405180910390fd5b5f84846040516101439291906105e9565b604051809103902090505f3073ffffffffffffffffffffffffffffffffffffffff1682858560405160200161017a9392919061064c565b60405160208183030381529060405260405161019691906106d7565b5f604051808303815f865af19150503d805f81146101cf576040519150601f19603f3d011682016040523d82523d5f602084013e6101d4565b606091505b5050905080610218576040517f08c379a000000000000000000000000000000000000000000000000000000000815260040161020f90610737565b60405180910390fd5b505050505050565b3073ffffffffffffffffffffffffffffffffffffffff163373ffffffffffffffffffffffffffffffffffffffff161461028e576040517f08c379a00000000000000000000000000000000000000000000000000000000081526004016102859061079f565b60405180910390fd5b8173ffffffffffffffffffffffffffffffffffffffff166108fc8290811502906040515f60405180830381858888f193505050501580156102d1573d5f803e3d5ffd5b505050565b5f816040516020016102e8919061080f565b604051602081830303815290604052805190602001208360405160200161030f919061080f565b6040516020818303038152906040528051906020012014905092915050565b5f80fd5b5f80fd5b5f80fd5b5f80fd5b5f80fd5b5f8083601f84011261035757610356610336565b5b8235905067ffffffffffffffff8111156103745761037361033a565b5b6020830191508360018202830111156103905761038f61033e565b5b9250929050565b5f8083601f8401126103ac576103ab610336565b5b8235905067ffffffffffffffff8111156103c9576103c861033a565b5b6020830191508360018202830111156103e5576103e461033e565b5b9250929050565b5f805f80604085870312156104045761040361032e565b5b5f85013567ffffffffffffffff81111561042157610420610332565b5b61042d87828801610342565b9450945050602085013567ffffffffffffffff8111156104505761044f610332565b5b61045c87828801610397565b925092505092959194509250565b5f73ffffffffffffffffffffffffffffffffffffffff82169050919050565b5f6104938261046a565b9050919050565b6104a381610489565b81146104ad575f80fd5b50565b5f813590506104be8161049a565b92915050565b5f819050919050565b6104d6816104c4565b81146104e0575f80fd5b50565b5f813590506104f1816104cd565b92915050565b5f806040838503121561050d5761050c61032e565b5b5f61051a858286016104b0565b925050602061052b858286016104e3565b9150509250929050565b5f82825260208201905092915050565b7f63616c6c20746f207472616e73666572206e6f7420616c6c6f776564000000005f82015250565b5f610579601c83610535565b915061058482610545565b602082019050919050565b5f6020820190508181035f8301526105a68161056d565b9050919050565b5f81905092915050565b828183375f83830152505050565b5f6105d083856105ad565b93506105dd8385846105b7565b82840190509392505050565b5f6105f58284866105c5565b91508190509392505050565b5f7fffffffff0000000000000000000000000000000000000000000000000000000082169050919050565b5f819050919050565b61064661064182610601565b61062c565b82525050565b5f6106578286610635565b6004820191506106688284866105c5565b9150819050949350505050565b5f81519050919050565b5f5b8381101561069c578082015181840152602081019050610681565b5f8484015250505050565b5f6106b182610675565b6106bb81856105ad565b93506106cb81856020860161067f565b80840191505092915050565b5f6106e282846106a7565b915081905092915050565b7f7478206661696c656400000000000000000000000000000000000000000000005f82015250565b5f610721600983610535565b915061072c826106ed565b602082019050919050565b5f6020820190508181035f83015261074e81610715565b9050919050565b7f6e6f7420617574686f72697a65640000000000000000000000000000000000005f82015250565b5f610789600e83610535565b915061079482610755565b602082019050919050565b5f6020820190508181035f8301526107b68161077d565b9050919050565b5f81519050919050565b5f601f19601f8301169050919050565b5f6107e1826107bd565b6107eb8185610535565b93506107fb81856020860161067f565b610804816107c7565b840191505092915050565b5f6020820190508181035f83015261082781846107d7565b90509291505056fea2646970667358221220fea1e9c4d73776d0fd3975e42e7cec1811ec6eb8d2b4650b2af285c4bf483c4964736f6c63430008160033",
					"opcodes": "PUSH1 0x80 PUSH1 0x40 MSTORE PUSH2 0x865 DUP1 PUSH2 0x11 PUSH0 CODECOPY PUSH0 RETURN INVALID PUSH1 0x80 PUSH1 0x40 MSTORE CALLVALUE DUP1 ISZERO PUSH2 0xF JUMPI PUSH0 DUP1 REVERT JUMPDEST POP PUSH1 0x4 CALLDATASIZE LT PUSH2 0x34 JUMPI PUSH0 CALLDATALOAD PUSH1 0xE0 SHR DUP1 PUSH4 0x229320CA EQ PUSH2 0x38 JUMPI DUP1 PUSH4 0xA9059CBB EQ PUSH2 0x54 JUMPI JUMPDEST PUSH0 DUP1 REVERT JUMPDEST PUSH2 0x52 PUSH1 0x4 DUP1 CALLDATASIZE SUB DUP2 ADD SWAP1 PUSH2 0x4D SWAP2 SWAP1 PUSH2 0x3EC JUMP JUMPDEST PUSH2 0x70 JUMP JUMPDEST STOP JUMPDEST PUSH2 0x6E PUSH1 0x4 DUP1 CALLDATASIZE SUB DUP2 ADD SWAP1 PUSH2 0x69 SWAP2 SWAP1 PUSH2 0x4F7 JUMP JUMPDEST PUSH2 0x220 JUMP JUMPDEST STOP JUMPDEST PUSH2 0xF2 DUP5 DUP5 DUP1 DUP1 PUSH1 0x1F ADD PUSH1 0x20 DUP1 SWAP2 DIV MUL PUSH1 0x20 ADD PUSH1 0x40 MLOAD SWAP1 DUP2 ADD PUSH1 0x40 MSTORE DUP1 SWAP4 SWAP3 SWAP2 SWAP1 DUP2 DUP2 MSTORE PUSH1 0x20 ADD DUP4 DUP4 DUP1 DUP3 DUP5 CALLDATACOPY PUSH0 DUP2 DUP5 ADD MSTORE PUSH1 0x1F NOT PUSH1 0x1F DUP3 ADD AND SWAP1 POP DUP1 DUP4 ADD SWAP3 POP POP POP POP POP POP POP PUSH1 0x40 MLOAD DUP1 PUSH1 0x40 ADD PUSH1 0x40 MSTORE DUP1 PUSH1 0x19 DUP2 MSTORE PUSH1 0x20 ADD PUSH32 0x7472616E7366657228616464726573732C75696E743235362900000000000000 DUP2 MSTORE POP PUSH2 0x2D6 JUMP JUMPDEST ISZERO PUSH2 0x132 JUMPI PUSH1 0x40 MLOAD PUSH32 0x8C379A000000000000000000000000000000000000000000000000000000000 DUP2 MSTORE PUSH1 0x4 ADD PUSH2 0x129 SWAP1 PUSH2 0x58F JUMP JUMPDEST PUSH1 0x40 MLOAD DUP1 SWAP2 SUB SWAP1 REVERT JUMPDEST PUSH0 DUP5 DUP5 PUSH1 0x40 MLOAD PUSH2 0x143 SWAP3 SWAP2 SWAP1 PUSH2 0x5E9 JUMP JUMPDEST PUSH1 0x40 MLOAD DUP1 SWAP2 SUB SWAP1 KECCAK256 SWAP1 POP PUSH0 ADDRESS PUSH20 0xFFFFFFFFFFFFFFFFFFFFFFFFFFFFFFFFFFFFFFFF AND DUP3 DUP6 DUP6 PUSH1 0x40 MLOAD PUSH1 0x20 ADD PUSH2 0x17A SWAP4 SWAP3 SWAP2 SWAP1 PUSH2 0x64C JUMP JUMPDEST PUSH1 0x40 MLOAD PUSH1 0x20 DUP2 DUP4 SUB SUB DUP2 MSTORE SWAP1 PUSH1 0x40 MSTORE PUSH1 0x40 MLOAD PUSH2 0x196 SWAP2 SWAP1 PUSH2 0x6D7 JUMP JUMPDEST PUSH0 PUSH1 0x40 MLOAD DUP1 DUP4 SUB DUP2 PUSH0 DUP7 GAS CALL SWAP2 POP POP RETURNDATASIZE DUP1 PUSH0 DUP2 EQ PUSH2 0x1CF JUMPI PUSH1 0x40 MLOAD SWAP2 POP PUSH1 0x1F NOT PUSH1 0x3F RETURNDATASIZE ADD AND DUP3 ADD PUSH1 0x40 MSTORE RETURNDATASIZE DUP3 MSTORE RETURNDATASIZE PUSH0 PUSH1 0x20 DUP5 ADD RETURNDATACOPY PUSH2 0x1D4 JUMP JUMPDEST PUSH1 0x60 SWAP2 POP JUMPDEST POP POP SWAP1 POP DUP1 PUSH2 0x218 JUMPI PUSH1 0x40 MLOAD PUSH32 0x8C379A000000000000000000000000000000000000000000000000000000000 DUP2 MSTORE PUSH1 0x4 ADD PUSH2 0x20F SWAP1 PUSH2 0x737 JUMP JUMPDEST PUSH1 0x40 MLOAD DUP1 SWAP2 SUB SWAP1 REVERT JUMPDEST POP POP POP POP POP POP JUMP JUMPDEST ADDRESS PUSH20 0xFFFFFFFFFFFFFFFFFFFFFFFFFFFFFFFFFFFFFFFF AND CALLER PUSH20 0xFFFFFFFFFFFFFFFFFFFFFFFFFFFFFFFFFFFFFFFF AND EQ PUSH2 0x28E JUMPI PUSH1 0x40 MLOAD PUSH32 0x8C379A000000000000000000000000000000000000000000000000000000000 DUP2 MSTORE PUSH1 0x4 ADD PUSH2 0x285 SWAP1 PUSH2 0x79F JUMP JUMPDEST PUSH1 0x40 MLOAD DUP1 SWAP2 SUB SWAP1 REVERT JUMPDEST DUP2 PUSH20 0xFFFFFFFFFFFFFFFFFFFFFFFFFFFFFFFFFFFFFFFF AND PUSH2 0x8FC DUP3 SWAP1 DUP2 ISZERO MUL SWAP1 PUSH1 0x40 MLOAD PUSH0 PUSH1 0x40 MLOAD DUP1 DUP4 SUB DUP2 DUP6 DUP9 DUP9 CALL SWAP4 POP POP POP POP ISZERO DUP1 ISZERO PUSH2 0x2D1 JUMPI RETURNDATASIZE PUSH0 DUP1 RETURNDATACOPY RETURNDATASIZE PUSH0 REVERT JUMPDEST POP POP POP JUMP JUMPDEST PUSH0 DUP2 PUSH1 0x40 MLOAD PUSH1 0x20 ADD PUSH2 0x2E8 SWAP2 SWAP1 PUSH2 0x80F JUMP JUMPDEST PUSH1 0x40 MLOAD PUSH1 0x20 DUP2 DUP4 SUB SUB DUP2 MSTORE SWAP1 PUSH1 0x40 MSTORE DUP1 MLOAD SWAP1 PUSH1 0x20 ADD KECCAK256 DUP4 PUSH1 0x40 MLOAD PUSH1 0x20 ADD PUSH2 0x30F SWAP2 SWAP1 PUSH2 0x80F JUMP JUMPDEST PUSH1 0x40 MLOAD PUSH1 0x20 DUP2 DUP4 SUB SUB DUP2 MSTORE SWAP1 PUSH1 0x40 MSTORE DUP1 MLOAD SWAP1 PUSH1 0x20 ADD KECCAK256 EQ SWAP1 POP SWAP3 SWAP2 POP POP JUMP JUMPDEST PUSH0 DUP1 REVERT JUMPDEST PUSH0 DUP1 REVERT JUMPDEST PUSH0 DUP1 REVERT JUMPDEST PUSH0 DUP1 REVERT JUMPDEST PUSH0 DUP1 REVERT JUMPDEST PUSH0 DUP1 DUP4 PUSH1 0x1F DUP5 ADD SLT PUSH2 0x357 JUMPI PUSH2 0x356 PUSH2 0x336 JUMP JUMPDEST JUMPDEST DUP3 CALLDATALOAD SWAP1 POP PUSH8 0xFFFFFFFFFFFFFFFF DUP2 GT ISZERO PUSH2 0x374 JUMPI PUSH2 0x373 PUSH2 0x33A JUMP JUMPDEST JUMPDEST PUSH1 0x20 DUP4 ADD SWAP2 POP DUP4 PUSH1 0x1 DUP3 MUL DUP4 ADD GT ISZERO PUSH2 0x390 JUMPI PUSH2 0x38F PUSH2 0x33E JUMP JUMPDEST JUMPDEST SWAP3 POP SWAP3 SWAP1 POP JUMP JUMPDEST PUSH0 DUP1 DUP4 PUSH1 0x1F DUP5 ADD SLT PUSH2 0x3AC JUMPI PUSH2 0x3AB PUSH2 0x336 JUMP JUMPDEST JUMPDEST DUP3 CALLDATALOAD SWAP1 POP PUSH8 0xFFFFFFFFFFFFFFFF DUP2 GT ISZERO PUSH2 0x3C9 JUMPI PUSH2 0x3C8 PUSH2 0x33A JUMP JUMPDEST JUMPDEST PUSH1 0x20 DUP4 ADD SWAP2 POP DUP4 PUSH1 0x1 DUP3 MUL DUP4 ADD GT ISZERO PUSH2 0x3E5 JUMPI PUSH2 0x3E4 PUSH2 0x33E JUMP JUMPDEST JUMPDEST SWAP3 POP SWAP3 SWAP1 POP JUMP JUMPDEST PUSH0 DUP1 PUSH0 DUP1 PUSH1 0x40 DUP6 DUP8 SUB SLT ISZERO PUSH2 0x404 JUMPI PUSH2 0x403 PUSH2 0x32E JUMP JUMPDEST JUMPDEST PUSH0 DUP6 ADD CALLDATALOAD PUSH8 0xFFFFFFFFFFFFFFFF DUP2 GT ISZERO PUSH2 0x421 JUMPI PUSH2 0x420 PUSH2 0x332 JUMP JUMPDEST JUMPDEST PUSH2 0x42D DUP8 DUP3 DUP9 ADD PUSH2 0x342 JUMP JUMPDEST SWAP5 POP SWAP5 POP POP PUSH1 0x20 DUP6 ADD CALLDATALOAD PUSH8 0xFFFFFFFFFFFFFFFF DUP2 GT ISZERO PUSH2 0x450 JUMPI PUSH2 0x44F PUSH2 0x332 JUMP JUMPDEST JUMPDEST PUSH2 0x45C DUP8 DUP3 DUP9 ADD PUSH2 0x397 JUMP JUMPDEST SWAP3 POP SWAP3 POP POP SWAP3 SWAP6 SWAP2 SWAP5 POP SWAP3 POP JUMP JUMPDEST PUSH0 PUSH20 0xFFFFFFFFFFFFFFFFFFFFFFFFFFFFFFFFFFFFFFFF DUP3 AND SWAP1 POP SWAP2 SWAP1 POP JUMP JUMPDEST PUSH0 PUSH2 0x493 DUP3 PUSH2 0x46A JUMP JUMPDEST SWAP1 POP SWAP2 SWAP1 POP JUMP JUMPDEST PUSH2 0x4A3 DUP2 PUSH2 0x489 JUMP JUMPDEST DUP2 EQ PUSH2 0x4AD JUMPI PUSH0 DUP1 REVERT JUMPDEST POP JUMP JUMPDEST PUSH0 DUP2 CALLDATALOAD SWAP1 POP PUSH2 0x4BE DUP2 PUSH2 0x49A JUMP JUMPDEST SWAP3 SWAP2 POP POP JUMP JUMPDEST PUSH0 DUP2 SWAP1 POP SWAP2 SWAP1 POP JUMP JUMPDEST PUSH2 0x4D6 DUP2 PUSH2 0x4C4 JUMP JUMPDEST DUP2 EQ PUSH2 0x4E0 JUMPI PUSH0 DUP1 REVERT JUMPDEST POP JUMP JUMPDEST PUSH0 DUP2 CALLDATALOAD SWAP1 POP PUSH2 0x4F1 DUP2 PUSH2 0x4CD JUMP JUMPDEST SWAP3 SWAP2 POP POP JUMP JUMPDEST PUSH0 DUP1 PUSH1 0x40 DUP4 DUP6 SUB SLT ISZERO PUSH2 0x50D JUMPI PUSH2 0x50C PUSH2 0x32E JUMP JUMPDEST JUMPDEST PUSH0 PUSH2 0x51A DUP6 DUP3 DUP7 ADD PUSH2 0x4B0 JUMP JUMPDEST SWAP3 POP POP PUSH1 0x20 PUSH2 0x52B DUP6 DUP3 DUP7 ADD PUSH2 0x4E3 JUMP JUMPDEST SWAP2 POP POP SWAP3 POP SWAP3 SWAP1 POP JUMP JUMPDEST PUSH0 DUP3 DUP3 MSTORE PUSH1 0x20 DUP3 ADD SWAP1 POP SWAP3 SWAP2 POP POP JUMP JUMPDEST PUSH32 0x63616C6C20746F207472616E73666572206E6F7420616C6C6F77656400000000 PUSH0 DUP3 ADD MSTORE POP JUMP JUMPDEST PUSH0 PUSH2 0x579 PUSH1 0x1C DUP4 PUSH2 0x535 JUMP JUMPDEST SWAP2 POP PUSH2 0x584 DUP3 PUSH2 0x545 JUMP JUMPDEST PUSH1 0x20 DUP3 ADD SWAP1 POP SWAP2 SWAP1 POP JUMP JUMPDEST PUSH0 PUSH1 0x20 DUP3 ADD SWAP1 POP DUP2 DUP2 SUB PUSH0 DUP4 ADD MSTORE PUSH2 0x5A6 DUP2 PUSH2 0x56D JUMP JUMPDEST SWAP1 POP SWAP2 SWAP1 POP JUMP JUMPDEST PUSH0 DUP2 SWAP1 POP SWAP3 SWAP2 POP POP JUMP JUMPDEST DUP3 DUP2 DUP4 CALLDATACOPY PUSH0 DUP4 DUP4 ADD MSTORE POP POP POP JUMP JUMPDEST PUSH0 PUSH2 0x5D0 DUP4 DUP6 PUSH2 0x5AD JUMP JUMPDEST SWAP4 POP PUSH2 0x5DD DUP4 DUP6 DUP5 PUSH2 0x5B7 JUMP JUMPDEST DUP3 DUP5 ADD SWAP1 POP SWAP4 SWAP3 POP POP POP JUMP JUMPDEST PUSH0 PUSH2 0x5F5 DUP3 DUP5 DUP7 PUSH2 0x5C5 JUMP JUMPDEST SWAP2 POP DUP2 SWAP1 POP SWAP4 SWAP3 POP POP POP JUMP JUMPDEST PUSH0 PUSH32 0xFFFFFFFF00000000000000000000000000000000000000000000000000000000 DUP3 AND SWAP1 POP SWAP2 SWAP1 POP JUMP JUMPDEST PUSH0 DUP2 SWAP1 POP SWAP2 SWAP1 POP JUMP JUMPDEST PUSH2 0x646 PUSH2 0x641 DUP3 PUSH2 0x601 JUMP JUMPDEST PUSH2 0x62C JUMP JUMPDEST DUP3 MSTORE POP POP JUMP JUMPDEST PUSH0 PUSH2 0x657 DUP3 DUP7 PUSH2 0x635 JUMP JUMPDEST PUSH1 0x4 DUP3 ADD SWAP2 POP PUSH2 0x668 DUP3 DUP5 DUP7 PUSH2 0x5C5 JUMP JUMPDEST SWAP2 POP DUP2 SWAP1 POP SWAP5 SWAP4 POP POP POP POP JUMP JUMPDEST PUSH0 DUP2 MLOAD SWAP1 POP SWAP2 SWAP1 POP JUMP JUMPDEST PUSH0 JUMPDEST DUP4 DUP2 LT ISZERO PUSH2 0x69C JUMPI DUP1 DUP3 ADD MLOAD DUP2 DUP5 ADD MSTORE PUSH1 0x20 DUP2 ADD SWAP1 POP PUSH2 0x681 JUMP JUMPDEST PUSH0 DUP5 DUP5 ADD MSTORE POP POP POP POP JUMP JUMPDEST PUSH0 PUSH2 0x6B1 DUP3 PUSH2 0x675 JUMP JUMPDEST PUSH2 0x6BB DUP2 DUP6 PUSH2 0x5AD JUMP JUMPDEST SWAP4 POP PUSH2 0x6CB DUP2 DUP6 PUSH1 0x20 DUP7 ADD PUSH2 0x67F JUMP JUMPDEST DUP1 DUP5 ADD SWAP2 POP POP SWAP3 SWAP2 POP POP JUMP JUMPDEST PUSH0 PUSH2 0x6E2 DUP3 DUP5 PUSH2 0x6A7 JUMP JUMPDEST SWAP2 POP DUP2 SWAP1 POP SWAP3 SWAP2 POP POP JUMP JUMPDEST PUSH32 0x7478206661696C65640000000000000000000000000000000000000000000000 PUSH0 DUP3 ADD MSTORE POP JUMP JUMPDEST PUSH0 PUSH2 0x721 PUSH1 0x9 DUP4 PUSH2 0x535 JUMP JUMPDEST SWAP2 POP PUSH2 0x72C DUP3 PUSH2 0x6ED JUMP JUMPDEST PUSH1 0x20 DUP3 ADD SWAP1 POP SWAP2 SWAP1 POP JUMP JUMPDEST PUSH0 PUSH1 0x20 DUP3 ADD SWAP1 POP DUP2 DUP2 SUB PUSH0 DUP4 ADD MSTORE PUSH2 0x74E DUP2 PUSH2 0x715 JUMP JUMPDEST SWAP1 POP SWAP2 SWAP1 POP JUMP JUMPDEST PUSH32 0x6E6F7420617574686F72697A6564000000000000000000000000000000000000 PUSH0 DUP3 ADD MSTORE POP JUMP JUMPDEST PUSH0 PUSH2 0x789 PUSH1 0xE DUP4 PUSH2 0x535 JUMP JUMPDEST SWAP2 POP PUSH2 0x794 DUP3 PUSH2 0x755 JUMP JUMPDEST PUSH1 0x20 DUP3 ADD SWAP1 POP SWAP2 SWAP1 POP JUMP JUMPDEST PUSH0 PUSH1 0x20 DUP3 ADD SWAP1 POP DUP2 DUP2 SUB PUSH0 DUP4 ADD MSTORE PUSH2 0x7B6 DUP2 PUSH2 0x77D JUMP JUMPDEST SWAP1 POP SWAP2 SWAP1 POP JUMP JUMPDEST PUSH0 DUP2 MLOAD SWAP1 POP SWAP2 SWAP1 POP JUMP JUMPDEST PUSH0 PUSH1 0x1F NOT PUSH1 0x1F DUP4 ADD AND SWAP1 POP SWAP2 SWAP1 POP JUMP JUMPDEST PUSH0 PUSH2 0x7E1 DUP3 PUSH2 0x7BD JUMP JUMPDEST PUSH2 0x7EB DUP2 DUP6 PUSH2 0x535 JUMP JUMPDEST SWAP4 POP PUSH2 0x7FB DUP2 DUP6 PUSH1 0x20 DUP7 ADD PUSH2 0x67F JUMP JUMPDEST PUSH2 0x804 DUP2 PUSH2 0x7C7 JUMP JUMPDEST DUP5 ADD SWAP2 POP POP SWAP3 SWAP2 POP POP JUMP JUMPDEST PUSH0 PUSH1 0x20 DUP3 ADD SWAP1 POP DUP2 DUP2 SUB PUSH0 DUP4 ADD MSTORE PUSH2 0x827 DUP2 DUP5 PUSH2 0x7D7 JUMP JUMPDEST SWAP1 POP SWAP3 SWAP2 POP POP JUMP INVALID LOG2 PUSH5 0x6970667358 0x22 SLT KECCAK256 INVALID LOG1 0xE9 0xC4 0xD7 CALLDATACOPY PUSH23 0xD0FD3975E42E7CEC1811EC6EB8D2B4650B2AF285C4BF48 EXTCODECOPY 0x49 PUSH5 0x736F6C6343 STOP ADDMOD AND STOP CALLER "
				},
				"gasEstimates": {
					"creation": {
						"codeDepositCost": "429800",
						"executionCost": "442",
						"totalCost": "430242"
					},
					"external": {
						"execute(string,bytes)": "infinite",
						"transfer(address,uint256)": "infinite"
					},
					"internal": {
						"equal(string memory,string memory)": "infinite"
					}
				},
				"methodIdentifiers": {
					"execute(string,bytes)": "229320ca",
					"transfer(address,uint256)": "a9059cbb"
				}
			},
			"storageLayout": {
				"storage": [],
				"types": null
			},
			"userdoc": {
				"kind": "user",
				"methods": {},
				"version": 1
			}
		}
	}
}