{
	"Modules/Security/8. ETH Flash Loan.sol": {
		"EthLendingPool": {
			"abi": [
				{
					"inputs": [
						{
							"internalType": "address",
							"name": "",
							"type": "address"
						}
					],
					"name": "balances",
					"outputs": [
						{
							"internalType": "uint256",
							"name": "",
							"type": "uint256"
						}
					],
					"stateMutability": "view",
					"type": "function"
				},
				{
					"inputs": [],
					"name": "deposit",
					"outputs": [],
					"stateMutability": "payable",
					"type": "function"
				},
				{
					"inputs": [
						{
							"internalType": "uint256",
							"name": "_amount",
							"type": "uint256"
						},
						{
							"internalType": "address",
							"name": "_target",
							"type": "address"
						},
						{
							"internalType": "bytes",
							"name": "_data",
							"type": "bytes"
						}
					],
					"name": "flashLoan",
					"outputs": [],
					"stateMutability": "nonpayable",
					"type": "function"
				},
				{
					"inputs": [
						{
							"internalType": "uint256",
							"name": "_amount",
							"type": "uint256"
						}
					],
					"name": "withdraw",
					"outputs": [],
					"stateMutability": "nonpayable",
					"type": "function"
				}
			],
			"devdoc": {
				"kind": "dev",
				"methods": {},
				"version": 1
			},
			"evm": {
				"assembly": "    /* \"Modules/Security/8. ETH Flash Loan.sol\":57:895  contract EthLendingPool {... */\n  mstore(0x40, 0x80)\n  callvalue\n  dup1\n  iszero\n  tag_1\n  jumpi\n  0x00\n  dup1\n  revert\ntag_1:\n  pop\n  dataSize(sub_0)\n  dup1\n  dataOffset(sub_0)\n  0x00\n  codecopy\n  0x00\n  return\nstop\n\nsub_0: assembly {\n        /* \"Modules/Security/8. ETH Flash Loan.sol\":57:895  contract EthLendingPool {... */\n      mstore(0x40, 0x80)\n      jumpi(tag_1, lt(calldatasize, 0x04))\n      shr(0xe0, calldataload(0x00))\n      dup1\n      0x27e235e3\n      eq\n      tag_2\n      jumpi\n      dup1\n      0x2bd94e9c\n      eq\n      tag_3\n      jumpi\n      dup1\n      0x2e1a7d4d\n      eq\n      tag_4\n      jumpi\n      dup1\n      0xd0e30db0\n      eq\n      tag_5\n      jumpi\n    tag_1:\n      0x00\n      dup1\n      revert\n        /* \"Modules/Security/8. ETH Flash Loan.sol\":87:130  mapping(address => uint256) public balances */\n    tag_2:\n      callvalue\n      dup1\n      iszero\n      tag_6\n      jumpi\n      0x00\n      dup1\n      revert\n    tag_6:\n      pop\n      tag_7\n      0x04\n      dup1\n      calldatasize\n      sub\n      dup2\n      add\n      swap1\n      tag_8\n      swap2\n      swap1\n      tag_9\n      jump\t// in\n    tag_8:\n      tag_10\n      jump\t// in\n    tag_7:\n      mload(0x40)\n      tag_11\n      swap2\n      swap1\n      tag_12\n      jump\t// in\n    tag_11:\n      mload(0x40)\n      dup1\n      swap2\n      sub\n      swap1\n      return\n        /* \"Modules/Security/8. ETH Flash Loan.sol\":430:893  function flashLoan(... */\n    tag_3:\n      callvalue\n      dup1\n      iszero\n      tag_13\n      jumpi\n      0x00\n      dup1\n      revert\n    tag_13:\n      pop\n      tag_14\n      0x04\n      dup1\n      calldatasize\n      sub\n      dup2\n      add\n      swap1\n      tag_15\n      swap2\n      swap1\n      tag_16\n      jump\t// in\n    tag_15:\n      tag_17\n      jump\t// in\n    tag_14:\n      stop\n        /* \"Modules/Security/8. ETH Flash Loan.sol\":229:424  function withdraw(uint256 _amount) external {... */\n    tag_4:\n      callvalue\n      dup1\n      iszero\n      tag_18\n      jumpi\n      0x00\n      dup1\n      revert\n    tag_18:\n      pop\n      tag_19\n      0x04\n      dup1\n      calldatasize\n      sub\n      dup2\n      add\n      swap1\n      tag_20\n      swap2\n      swap1\n      tag_21\n      jump\t// in\n    tag_20:\n      tag_22\n      jump\t// in\n    tag_19:\n      stop\n        /* \"Modules/Security/8. ETH Flash Loan.sol\":137:223  function deposit() external payable {... */\n    tag_5:\n      tag_23\n      tag_24\n      jump\t// in\n    tag_23:\n      stop\n        /* \"Modules/Security/8. ETH Flash Loan.sol\":87:130  mapping(address => uint256) public balances */\n    tag_10:\n      mstore(0x20, 0x00)\n      dup1\n      0x00\n      mstore\n      keccak256(0x00, 0x40)\n      0x00\n      swap2\n      pop\n      swap1\n      pop\n      sload\n      dup2\n      jump\t// out\n        /* \"Modules/Security/8. ETH Flash Loan.sol\":430:893  function flashLoan(... */\n    tag_17:\n        /* \"Modules/Security/8. ETH Flash Loan.sol\":554:571  uint256 balBefore */\n      0x00\n        /* \"Modules/Security/8. ETH Flash Loan.sol\":574:595  address(this).balance */\n      selfbalance\n        /* \"Modules/Security/8. ETH Flash Loan.sol\":554:595  uint256 balBefore = address(this).balance */\n      swap1\n      pop\n        /* \"Modules/Security/8. ETH Flash Loan.sol\":626:633  _amount */\n      dup5\n        /* \"Modules/Security/8. ETH Flash Loan.sol\":613:622  balBefore */\n      dup2\n        /* \"Modules/Security/8. ETH Flash Loan.sol\":613:633  balBefore >= _amount */\n      lt\n      iszero\n        /* \"Modules/Security/8. ETH Flash Loan.sol\":605:661  require(balBefore >= _amount, \"borrow amount > balance\") */\n      tag_26\n      jumpi\n      mload(0x40)\n      0x08c379a000000000000000000000000000000000000000000000000000000000\n      dup2\n      mstore\n      0x04\n      add\n      tag_27\n      swap1\n      tag_28\n      jump\t// in\n    tag_27:\n      mload(0x40)\n      dup1\n      swap2\n      sub\n      swap1\n      revert\n    tag_26:\n        /* \"Modules/Security/8. ETH Flash Loan.sol\":673:686  bool executed */\n      0x00\n        /* \"Modules/Security/8. ETH Flash Loan.sol\":692:699  _target */\n      dup5\n        /* \"Modules/Security/8. ETH Flash Loan.sol\":692:704  _target.call */\n      0xffffffffffffffffffffffffffffffffffffffff\n      and\n        /* \"Modules/Security/8. ETH Flash Loan.sol\":712:719  _amount */\n      dup7\n        /* \"Modules/Security/8. ETH Flash Loan.sol\":721:726  _data */\n      dup6\n      dup6\n        /* \"Modules/Security/8. ETH Flash Loan.sol\":692:727  _target.call{value: _amount}(_data) */\n      mload(0x40)\n      tag_29\n      swap3\n      swap2\n      swap1\n      tag_30\n      jump\t// in\n    tag_29:\n      0x00\n      mload(0x40)\n      dup1\n      dup4\n      sub\n      dup2\n      dup6\n      dup8\n      gas\n      call\n      swap3\n      pop\n      pop\n      pop\n      returndatasize\n      dup1\n      0x00\n      dup2\n      eq\n      tag_33\n      jumpi\n      mload(0x40)\n      swap2\n      pop\n      and(add(returndatasize, 0x3f), not(0x1f))\n      dup3\n      add\n      0x40\n      mstore\n      returndatasize\n      dup3\n      mstore\n      returndatasize\n      0x00\n      0x20\n      dup5\n      add\n      returndatacopy\n      jump(tag_32)\n    tag_33:\n      0x60\n      swap2\n      pop\n    tag_32:\n      pop\n        /* \"Modules/Security/8. ETH Flash Loan.sol\":672:727  (bool executed, ) = _target.call{value: _amount}(_data) */\n      pop\n      swap1\n      pop\n        /* \"Modules/Security/8. ETH Flash Loan.sol\":745:753  executed */\n      dup1\n        /* \"Modules/Security/8. ETH Flash Loan.sol\":737:769  require(executed, \"loan failed\") */\n      tag_34\n      jumpi\n      mload(0x40)\n      0x08c379a000000000000000000000000000000000000000000000000000000000\n      dup2\n      mstore\n      0x04\n      add\n      tag_35\n      swap1\n      tag_36\n      jump\t// in\n    tag_35:\n      mload(0x40)\n      dup1\n      swap2\n      sub\n      swap1\n      revert\n    tag_34:\n        /* \"Modules/Security/8. ETH Flash Loan.sol\":780:796  uint256 balAfter */\n      0x00\n        /* \"Modules/Security/8. ETH Flash Loan.sol\":799:820  address(this).balance */\n      selfbalance\n        /* \"Modules/Security/8. ETH Flash Loan.sol\":780:820  uint256 balAfter = address(this).balance */\n      swap1\n      pop\n        /* \"Modules/Security/8. ETH Flash Loan.sol\":850:859  balBefore */\n      dup3\n        /* \"Modules/Security/8. ETH Flash Loan.sol\":838:846  balAfter */\n      dup2\n        /* \"Modules/Security/8. ETH Flash Loan.sol\":838:859  balAfter >= balBefore */\n      lt\n      iszero\n        /* \"Modules/Security/8. ETH Flash Loan.sol\":830:886  require(balAfter >= balBefore, \"balance after < before\") */\n      tag_37\n      jumpi\n      mload(0x40)\n      0x08c379a000000000000000000000000000000000000000000000000000000000\n      dup2\n      mstore\n      0x04\n      add\n      tag_38\n      swap1\n      tag_39\n      jump\t// in\n    tag_38:\n      mload(0x40)\n      dup1\n      swap2\n      sub\n      swap1\n      revert\n    tag_37:\n        /* \"Modules/Security/8. ETH Flash Loan.sol\":544:893  {... */\n      pop\n      pop\n      pop\n        /* \"Modules/Security/8. ETH Flash Loan.sol\":430:893  function flashLoan(... */\n      pop\n      pop\n      pop\n      pop\n      jump\t// out\n        /* \"Modules/Security/8. ETH Flash Loan.sol\":229:424  function withdraw(uint256 _amount) external {... */\n    tag_22:\n        /* \"Modules/Security/8. ETH Flash Loan.sol\":307:314  _amount */\n      dup1\n        /* \"Modules/Security/8. ETH Flash Loan.sol\":283:291  balances */\n      0x00\n        /* \"Modules/Security/8. ETH Flash Loan.sol\":283:303  balances[msg.sender] */\n      dup1\n        /* \"Modules/Security/8. ETH Flash Loan.sol\":292:302  msg.sender */\n      caller\n        /* \"Modules/Security/8. ETH Flash Loan.sol\":283:303  balances[msg.sender] */\n      0xffffffffffffffffffffffffffffffffffffffff\n      and\n      0xffffffffffffffffffffffffffffffffffffffff\n      and\n      dup2\n      mstore\n      0x20\n      add\n      swap1\n      dup2\n      mstore\n      0x20\n      add\n      0x00\n      keccak256\n      0x00\n        /* \"Modules/Security/8. ETH Flash Loan.sol\":283:314  balances[msg.sender] -= _amount */\n      dup3\n      dup3\n      sload\n      tag_41\n      swap2\n      swap1\n      tag_42\n      jump\t// in\n    tag_41:\n      swap3\n      pop\n      pop\n      dup2\n      swap1\n      sstore\n      pop\n        /* \"Modules/Security/8. ETH Flash Loan.sol\":325:334  bool sent */\n      0x00\n        /* \"Modules/Security/8. ETH Flash Loan.sol\":340:350  msg.sender */\n      caller\n        /* \"Modules/Security/8. ETH Flash Loan.sol\":340:355  msg.sender.call */\n      0xffffffffffffffffffffffffffffffffffffffff\n      and\n        /* \"Modules/Security/8. ETH Flash Loan.sol\":363:370  _amount */\n      dup3\n        /* \"Modules/Security/8. ETH Flash Loan.sol\":340:375  msg.sender.call{value: _amount}(\"\") */\n      mload(0x40)\n      tag_43\n      swap1\n      tag_44\n      jump\t// in\n    tag_43:\n      0x00\n      mload(0x40)\n      dup1\n      dup4\n      sub\n      dup2\n      dup6\n      dup8\n      gas\n      call\n      swap3\n      pop\n      pop\n      pop\n      returndatasize\n      dup1\n      0x00\n      dup2\n      eq\n      tag_47\n      jumpi\n      mload(0x40)\n      swap2\n      pop\n      and(add(returndatasize, 0x3f), not(0x1f))\n      dup3\n      add\n      0x40\n      mstore\n      returndatasize\n      dup3\n      mstore\n      returndatasize\n      0x00\n      0x20\n      dup5\n      add\n      returndatacopy\n      jump(tag_46)\n    tag_47:\n      0x60\n      swap2\n      pop\n    tag_46:\n      pop\n        /* \"Modules/Security/8. ETH Flash Loan.sol\":324:375  (bool sent, ) = msg.sender.call{value: _amount}(\"\") */\n      pop\n      swap1\n      pop\n        /* \"Modules/Security/8. ETH Flash Loan.sol\":393:397  sent */\n      dup1\n        /* \"Modules/Security/8. ETH Flash Loan.sol\":385:417  require(sent, \"send ETH failed\") */\n      tag_48\n      jumpi\n      mload(0x40)\n      0x08c379a000000000000000000000000000000000000000000000000000000000\n      dup2\n      mstore\n      0x04\n      add\n      tag_49\n      swap1\n      tag_50\n      jump\t// in\n    tag_49:\n      mload(0x40)\n      dup1\n      swap2\n      sub\n      swap1\n      revert\n    tag_48:\n        /* \"Modules/Security/8. ETH Flash Loan.sol\":273:424  {... */\n      pop\n        /* \"Modules/Security/8. ETH Flash Loan.sol\":229:424  function withdraw(uint256 _amount) external {... */\n      pop\n      jump\t// out\n        /* \"Modules/Security/8. ETH Flash Loan.sol\":137:223  function deposit() external payable {... */\n    tag_24:\n        /* \"Modules/Security/8. ETH Flash Loan.sol\":207:216  msg.value */\n      callvalue\n        /* \"Modules/Security/8. ETH Flash Loan.sol\":183:191  balances */\n      0x00\n        /* \"Modules/Security/8. ETH Flash Loan.sol\":183:203  balances[msg.sender] */\n      dup1\n        /* \"Modules/Security/8. ETH Flash Loan.sol\":192:202  msg.sender */\n      caller\n        /* \"Modules/Security/8. ETH Flash Loan.sol\":183:203  balances[msg.sender] */\n      0xffffffffffffffffffffffffffffffffffffffff\n      and\n      0xffffffffffffffffffffffffffffffffffffffff\n      and\n      dup2\n      mstore\n      0x20\n      add\n      swap1\n      dup2\n      mstore\n      0x20\n      add\n      0x00\n      keccak256\n      0x00\n        /* \"Modules/Security/8. ETH Flash Loan.sol\":183:216  balances[msg.sender] += msg.value */\n      dup3\n      dup3\n      sload\n      tag_52\n      swap2\n      swap1\n      tag_53\n      jump\t// in\n    tag_52:\n      swap3\n      pop\n      pop\n      dup2\n      swap1\n      sstore\n      pop\n        /* \"Modules/Security/8. ETH Flash Loan.sol\":137:223  function deposit() external payable {... */\n      jump\t// out\n        /* \"#utility.yul\":88:205   */\n    tag_55:\n        /* \"#utility.yul\":197:198   */\n      0x00\n        /* \"#utility.yul\":194:195   */\n      dup1\n        /* \"#utility.yul\":187:199   */\n      revert\n        /* \"#utility.yul\":211:328   */\n    tag_56:\n        /* \"#utility.yul\":320:321   */\n      0x00\n        /* \"#utility.yul\":317:318   */\n      dup1\n        /* \"#utility.yul\":310:322   */\n      revert\n        /* \"#utility.yul\":334:460   */\n    tag_57:\n        /* \"#utility.yul\":371:378   */\n      0x00\n        /* \"#utility.yul\":411:453   */\n      0xffffffffffffffffffffffffffffffffffffffff\n        /* \"#utility.yul\":404:409   */\n      dup3\n        /* \"#utility.yul\":400:454   */\n      and\n        /* \"#utility.yul\":389:454   */\n      swap1\n      pop\n        /* \"#utility.yul\":334:460   */\n      swap2\n      swap1\n      pop\n      jump\t// out\n        /* \"#utility.yul\":466:562   */\n    tag_58:\n        /* \"#utility.yul\":503:510   */\n      0x00\n        /* \"#utility.yul\":532:556   */\n      tag_90\n        /* \"#utility.yul\":550:555   */\n      dup3\n        /* \"#utility.yul\":532:556   */\n      tag_57\n      jump\t// in\n    tag_90:\n        /* \"#utility.yul\":521:556   */\n      swap1\n      pop\n        /* \"#utility.yul\":466:562   */\n      swap2\n      swap1\n      pop\n      jump\t// out\n        /* \"#utility.yul\":568:690   */\n    tag_59:\n        /* \"#utility.yul\":641:665   */\n      tag_92\n        /* \"#utility.yul\":659:664   */\n      dup2\n        /* \"#utility.yul\":641:665   */\n      tag_58\n      jump\t// in\n    tag_92:\n        /* \"#utility.yul\":634:639   */\n      dup2\n        /* \"#utility.yul\":631:666   */\n      eq\n        /* \"#utility.yul\":621:684   */\n      tag_93\n      jumpi\n        /* \"#utility.yul\":680:681   */\n      0x00\n        /* \"#utility.yul\":677:678   */\n      dup1\n        /* \"#utility.yul\":670:682   */\n      revert\n        /* \"#utility.yul\":621:684   */\n    tag_93:\n        /* \"#utility.yul\":568:690   */\n      pop\n      jump\t// out\n        /* \"#utility.yul\":696:835   */\n    tag_60:\n        /* \"#utility.yul\":742:747   */\n      0x00\n        /* \"#utility.yul\":780:786   */\n      dup2\n        /* \"#utility.yul\":767:787   */\n      calldataload\n        /* \"#utility.yul\":758:787   */\n      swap1\n      pop\n        /* \"#utility.yul\":796:829   */\n      tag_95\n        /* \"#utility.yul\":823:828   */\n      dup2\n        /* \"#utility.yul\":796:829   */\n      tag_59\n      jump\t// in\n    tag_95:\n        /* \"#utility.yul\":696:835   */\n      swap3\n      swap2\n      pop\n      pop\n      jump\t// out\n        /* \"#utility.yul\":841:1170   */\n    tag_9:\n        /* \"#utility.yul\":900:906   */\n      0x00\n        /* \"#utility.yul\":949:951   */\n      0x20\n        /* \"#utility.yul\":937:946   */\n      dup3\n        /* \"#utility.yul\":928:935   */\n      dup5\n        /* \"#utility.yul\":924:947   */\n      sub\n        /* \"#utility.yul\":920:952   */\n      slt\n        /* \"#utility.yul\":917:1036   */\n      iszero\n      tag_97\n      jumpi\n        /* \"#utility.yul\":955:1034   */\n      tag_98\n      tag_55\n      jump\t// in\n    tag_98:\n        /* \"#utility.yul\":917:1036   */\n    tag_97:\n        /* \"#utility.yul\":1075:1076   */\n      0x00\n        /* \"#utility.yul\":1100:1153   */\n      tag_99\n        /* \"#utility.yul\":1145:1152   */\n      dup5\n        /* \"#utility.yul\":1136:1142   */\n      dup3\n        /* \"#utility.yul\":1125:1134   */\n      dup6\n        /* \"#utility.yul\":1121:1143   */\n      add\n        /* \"#utility.yul\":1100:1153   */\n      tag_60\n      jump\t// in\n    tag_99:\n        /* \"#utility.yul\":1090:1153   */\n      swap2\n      pop\n        /* \"#utility.yul\":1046:1163   */\n      pop\n        /* \"#utility.yul\":841:1170   */\n      swap3\n      swap2\n      pop\n      pop\n      jump\t// out\n        /* \"#utility.yul\":1176:1253   */\n    tag_61:\n        /* \"#utility.yul\":1213:1220   */\n      0x00\n        /* \"#utility.yul\":1242:1247   */\n      dup2\n        /* \"#utility.yul\":1231:1247   */\n      swap1\n      pop\n        /* \"#utility.yul\":1176:1253   */\n      swap2\n      swap1\n      pop\n      jump\t// out\n        /* \"#utility.yul\":1259:1377   */\n    tag_62:\n        /* \"#utility.yul\":1346:1370   */\n      tag_102\n        /* \"#utility.yul\":1364:1369   */\n      dup2\n        /* \"#utility.yul\":1346:1370   */\n      tag_61\n      jump\t// in\n    tag_102:\n        /* \"#utility.yul\":1341:1344   */\n      dup3\n        /* \"#utility.yul\":1334:1371   */\n      mstore\n        /* \"#utility.yul\":1259:1377   */\n      pop\n      pop\n      jump\t// out\n        /* \"#utility.yul\":1383:1605   */\n    tag_12:\n        /* \"#utility.yul\":1476:1480   */\n      0x00\n        /* \"#utility.yul\":1514:1516   */\n      0x20\n        /* \"#utility.yul\":1503:1512   */\n      dup3\n        /* \"#utility.yul\":1499:1517   */\n      add\n        /* \"#utility.yul\":1491:1517   */\n      swap1\n      pop\n        /* \"#utility.yul\":1527:1598   */\n      tag_104\n        /* \"#utility.yul\":1595:1596   */\n      0x00\n        /* \"#utility.yul\":1584:1593   */\n      dup4\n        /* \"#utility.yul\":1580:1597   */\n      add\n        /* \"#utility.yul\":1571:1577   */\n      dup5\n        /* \"#utility.yul\":1527:1598   */\n      tag_62\n      jump\t// in\n    tag_104:\n        /* \"#utility.yul\":1383:1605   */\n      swap3\n      swap2\n      pop\n      pop\n      jump\t// out\n        /* \"#utility.yul\":1611:1733   */\n    tag_63:\n        /* \"#utility.yul\":1684:1708   */\n      tag_106\n        /* \"#utility.yul\":1702:1707   */\n      dup2\n        /* \"#utility.yul\":1684:1708   */\n      tag_61\n      jump\t// in\n    tag_106:\n        /* \"#utility.yul\":1677:1682   */\n      dup2\n        /* \"#utility.yul\":1674:1709   */\n      eq\n        /* \"#utility.yul\":1664:1727   */\n      tag_107\n      jumpi\n        /* \"#utility.yul\":1723:1724   */\n      0x00\n        /* \"#utility.yul\":1720:1721   */\n      dup1\n        /* \"#utility.yul\":1713:1725   */\n      revert\n        /* \"#utility.yul\":1664:1727   */\n    tag_107:\n        /* \"#utility.yul\":1611:1733   */\n      pop\n      jump\t// out\n        /* \"#utility.yul\":1739:1878   */\n    tag_64:\n        /* \"#utility.yul\":1785:1790   */\n      0x00\n        /* \"#utility.yul\":1823:1829   */\n      dup2\n        /* \"#utility.yul\":1810:1830   */\n      calldataload\n        /* \"#utility.yul\":1801:1830   */\n      swap1\n      pop\n        /* \"#utility.yul\":1839:1872   */\n      tag_109\n        /* \"#utility.yul\":1866:1871   */\n      dup2\n        /* \"#utility.yul\":1839:1872   */\n      tag_63\n      jump\t// in\n    tag_109:\n        /* \"#utility.yul\":1739:1878   */\n      swap3\n      swap2\n      pop\n      pop\n      jump\t// out\n        /* \"#utility.yul\":1884:2001   */\n    tag_65:\n        /* \"#utility.yul\":1993:1994   */\n      0x00\n        /* \"#utility.yul\":1990:1991   */\n      dup1\n        /* \"#utility.yul\":1983:1995   */\n      revert\n        /* \"#utility.yul\":2007:2124   */\n    tag_66:\n        /* \"#utility.yul\":2116:2117   */\n      0x00\n        /* \"#utility.yul\":2113:2114   */\n      dup1\n        /* \"#utility.yul\":2106:2118   */\n      revert\n        /* \"#utility.yul\":2130:2247   */\n    tag_67:\n        /* \"#utility.yul\":2239:2240   */\n      0x00\n        /* \"#utility.yul\":2236:2237   */\n      dup1\n        /* \"#utility.yul\":2229:2241   */\n      revert\n        /* \"#utility.yul\":2266:2818   */\n    tag_68:\n        /* \"#utility.yul\":2323:2331   */\n      0x00\n        /* \"#utility.yul\":2333:2339   */\n      dup1\n        /* \"#utility.yul\":2383:2386   */\n      dup4\n        /* \"#utility.yul\":2376:2380   */\n      0x1f\n        /* \"#utility.yul\":2368:2374   */\n      dup5\n        /* \"#utility.yul\":2364:2381   */\n      add\n        /* \"#utility.yul\":2360:2387   */\n      slt\n        /* \"#utility.yul\":2350:2472   */\n      tag_114\n      jumpi\n        /* \"#utility.yul\":2391:2470   */\n      tag_115\n      tag_65\n      jump\t// in\n    tag_115:\n        /* \"#utility.yul\":2350:2472   */\n    tag_114:\n        /* \"#utility.yul\":2504:2510   */\n      dup3\n        /* \"#utility.yul\":2491:2511   */\n      calldataload\n        /* \"#utility.yul\":2481:2511   */\n      swap1\n      pop\n        /* \"#utility.yul\":2534:2552   */\n      0xffffffffffffffff\n        /* \"#utility.yul\":2526:2532   */\n      dup2\n        /* \"#utility.yul\":2523:2553   */\n      gt\n        /* \"#utility.yul\":2520:2637   */\n      iszero\n      tag_116\n      jumpi\n        /* \"#utility.yul\":2556:2635   */\n      tag_117\n      tag_66\n      jump\t// in\n    tag_117:\n        /* \"#utility.yul\":2520:2637   */\n    tag_116:\n        /* \"#utility.yul\":2670:2674   */\n      0x20\n        /* \"#utility.yul\":2662:2668   */\n      dup4\n        /* \"#utility.yul\":2658:2675   */\n      add\n        /* \"#utility.yul\":2646:2675   */\n      swap2\n      pop\n        /* \"#utility.yul\":2724:2727   */\n      dup4\n        /* \"#utility.yul\":2716:2720   */\n      0x01\n        /* \"#utility.yul\":2708:2714   */\n      dup3\n        /* \"#utility.yul\":2704:2721   */\n      mul\n        /* \"#utility.yul\":2694:2702   */\n      dup4\n        /* \"#utility.yul\":2690:2722   */\n      add\n        /* \"#utility.yul\":2687:2728   */\n      gt\n        /* \"#utility.yul\":2684:2812   */\n      iszero\n      tag_118\n      jumpi\n        /* \"#utility.yul\":2731:2810   */\n      tag_119\n      tag_67\n      jump\t// in\n    tag_119:\n        /* \"#utility.yul\":2684:2812   */\n    tag_118:\n        /* \"#utility.yul\":2266:2818   */\n      swap3\n      pop\n      swap3\n      swap1\n      pop\n      jump\t// out\n        /* \"#utility.yul\":2824:3641   */\n    tag_16:\n        /* \"#utility.yul\":2912:2918   */\n      0x00\n        /* \"#utility.yul\":2920:2926   */\n      dup1\n        /* \"#utility.yul\":2928:2934   */\n      0x00\n        /* \"#utility.yul\":2936:2942   */\n      dup1\n        /* \"#utility.yul\":2985:2987   */\n      0x60\n        /* \"#utility.yul\":2973:2982   */\n      dup6\n        /* \"#utility.yul\":2964:2971   */\n      dup8\n        /* \"#utility.yul\":2960:2983   */\n      sub\n        /* \"#utility.yul\":2956:2988   */\n      slt\n        /* \"#utility.yul\":2953:3072   */\n      iszero\n      tag_121\n      jumpi\n        /* \"#utility.yul\":2991:3070   */\n      tag_122\n      tag_55\n      jump\t// in\n    tag_122:\n        /* \"#utility.yul\":2953:3072   */\n    tag_121:\n        /* \"#utility.yul\":3111:3112   */\n      0x00\n        /* \"#utility.yul\":3136:3189   */\n      tag_123\n        /* \"#utility.yul\":3181:3188   */\n      dup8\n        /* \"#utility.yul\":3172:3178   */\n      dup3\n        /* \"#utility.yul\":3161:3170   */\n      dup9\n        /* \"#utility.yul\":3157:3179   */\n      add\n        /* \"#utility.yul\":3136:3189   */\n      tag_64\n      jump\t// in\n    tag_123:\n        /* \"#utility.yul\":3126:3189   */\n      swap5\n      pop\n        /* \"#utility.yul\":3082:3199   */\n      pop\n        /* \"#utility.yul\":3238:3240   */\n      0x20\n        /* \"#utility.yul\":3264:3317   */\n      tag_124\n        /* \"#utility.yul\":3309:3316   */\n      dup8\n        /* \"#utility.yul\":3300:3306   */\n      dup3\n        /* \"#utility.yul\":3289:3298   */\n      dup9\n        /* \"#utility.yul\":3285:3307   */\n      add\n        /* \"#utility.yul\":3264:3317   */\n      tag_60\n      jump\t// in\n    tag_124:\n        /* \"#utility.yul\":3254:3317   */\n      swap4\n      pop\n        /* \"#utility.yul\":3209:3327   */\n      pop\n        /* \"#utility.yul\":3394:3396   */\n      0x40\n        /* \"#utility.yul\":3383:3392   */\n      dup6\n        /* \"#utility.yul\":3379:3397   */\n      add\n        /* \"#utility.yul\":3366:3398   */\n      calldataload\n        /* \"#utility.yul\":3425:3443   */\n      0xffffffffffffffff\n        /* \"#utility.yul\":3417:3423   */\n      dup2\n        /* \"#utility.yul\":3414:3444   */\n      gt\n        /* \"#utility.yul\":3411:3528   */\n      iszero\n      tag_125\n      jumpi\n        /* \"#utility.yul\":3447:3526   */\n      tag_126\n      tag_56\n      jump\t// in\n    tag_126:\n        /* \"#utility.yul\":3411:3528   */\n    tag_125:\n        /* \"#utility.yul\":3560:3624   */\n      tag_127\n        /* \"#utility.yul\":3616:3623   */\n      dup8\n        /* \"#utility.yul\":3607:3613   */\n      dup3\n        /* \"#utility.yul\":3596:3605   */\n      dup9\n        /* \"#utility.yul\":3592:3614   */\n      add\n        /* \"#utility.yul\":3560:3624   */\n      tag_68\n      jump\t// in\n    tag_127:\n        /* \"#utility.yul\":3542:3624   */\n      swap3\n      pop\n      swap3\n      pop\n        /* \"#utility.yul\":3337:3634   */\n      pop\n        /* \"#utility.yul\":2824:3641   */\n      swap3\n      swap6\n      swap2\n      swap5\n      pop\n      swap3\n      pop\n      jump\t// out\n        /* \"#utility.yul\":3647:3976   */\n    tag_21:\n        /* \"#utility.yul\":3706:3712   */\n      0x00\n        /* \"#utility.yul\":3755:3757   */\n      0x20\n        /* \"#utility.yul\":3743:3752   */\n      dup3\n        /* \"#utility.yul\":3734:3741   */\n      dup5\n        /* \"#utility.yul\":3730:3753   */\n      sub\n        /* \"#utility.yul\":3726:3758   */\n      slt\n        /* \"#utility.yul\":3723:3842   */\n      iszero\n      tag_129\n      jumpi\n        /* \"#utility.yul\":3761:3840   */\n      tag_130\n      tag_55\n      jump\t// in\n    tag_130:\n        /* \"#utility.yul\":3723:3842   */\n    tag_129:\n        /* \"#utility.yul\":3881:3882   */\n      0x00\n        /* \"#utility.yul\":3906:3959   */\n      tag_131\n        /* \"#utility.yul\":3951:3958   */\n      dup5\n        /* \"#utility.yul\":3942:3948   */\n      dup3\n        /* \"#utility.yul\":3931:3940   */\n      dup6\n        /* \"#utility.yul\":3927:3949   */\n      add\n        /* \"#utility.yul\":3906:3959   */\n      tag_64\n      jump\t// in\n    tag_131:\n        /* \"#utility.yul\":3896:3959   */\n      swap2\n      pop\n        /* \"#utility.yul\":3852:3969   */\n      pop\n        /* \"#utility.yul\":3647:3976   */\n      swap3\n      swap2\n      pop\n      pop\n      jump\t// out\n        /* \"#utility.yul\":3982:4151   */\n    tag_69:\n        /* \"#utility.yul\":4066:4077   */\n      0x00\n        /* \"#utility.yul\":4100:4106   */\n      dup3\n        /* \"#utility.yul\":4095:4098   */\n      dup3\n        /* \"#utility.yul\":4088:4107   */\n      mstore\n        /* \"#utility.yul\":4140:4144   */\n      0x20\n        /* \"#utility.yul\":4135:4138   */\n      dup3\n        /* \"#utility.yul\":4131:4145   */\n      add\n        /* \"#utility.yul\":4116:4145   */\n      swap1\n      pop\n        /* \"#utility.yul\":3982:4151   */\n      swap3\n      swap2\n      pop\n      pop\n      jump\t// out\n        /* \"#utility.yul\":4157:4330   */\n    tag_70:\n        /* \"#utility.yul\":4297:4322   */\n      0x626f72726f7720616d6f756e74203e2062616c616e6365000000000000000000\n        /* \"#utility.yul\":4293:4294   */\n      0x00\n        /* \"#utility.yul\":4285:4291   */\n      dup3\n        /* \"#utility.yul\":4281:4295   */\n      add\n        /* \"#utility.yul\":4274:4323   */\n      mstore\n        /* \"#utility.yul\":4157:4330   */\n      pop\n      jump\t// out\n        /* \"#utility.yul\":4336:4702   */\n    tag_71:\n        /* \"#utility.yul\":4478:4481   */\n      0x00\n        /* \"#utility.yul\":4499:4566   */\n      tag_135\n        /* \"#utility.yul\":4563:4565   */\n      0x17\n        /* \"#utility.yul\":4558:4561   */\n      dup4\n        /* \"#utility.yul\":4499:4566   */\n      tag_69\n      jump\t// in\n    tag_135:\n        /* \"#utility.yul\":4492:4566   */\n      swap2\n      pop\n        /* \"#utility.yul\":4575:4668   */\n      tag_136\n        /* \"#utility.yul\":4664:4667   */\n      dup3\n        /* \"#utility.yul\":4575:4668   */\n      tag_70\n      jump\t// in\n    tag_136:\n        /* \"#utility.yul\":4693:4695   */\n      0x20\n        /* \"#utility.yul\":4688:4691   */\n      dup3\n        /* \"#utility.yul\":4684:4696   */\n      add\n        /* \"#utility.yul\":4677:4696   */\n      swap1\n      pop\n        /* \"#utility.yul\":4336:4702   */\n      swap2\n      swap1\n      pop\n      jump\t// out\n        /* \"#utility.yul\":4708:5127   */\n    tag_28:\n        /* \"#utility.yul\":4874:4878   */\n      0x00\n        /* \"#utility.yul\":4912:4914   */\n      0x20\n        /* \"#utility.yul\":4901:4910   */\n      dup3\n        /* \"#utility.yul\":4897:4915   */\n      add\n        /* \"#utility.yul\":4889:4915   */\n      swap1\n      pop\n        /* \"#utility.yul\":4961:4970   */\n      dup2\n        /* \"#utility.yul\":4955:4959   */\n      dup2\n        /* \"#utility.yul\":4951:4971   */\n      sub\n        /* \"#utility.yul\":4947:4948   */\n      0x00\n        /* \"#utility.yul\":4936:4945   */\n      dup4\n        /* \"#utility.yul\":4932:4949   */\n      add\n        /* \"#utility.yul\":4925:4972   */\n      mstore\n        /* \"#utility.yul\":4989:5120   */\n      tag_138\n        /* \"#utility.yul\":5115:5119   */\n      dup2\n        /* \"#utility.yul\":4989:5120   */\n      tag_71\n      jump\t// in\n    tag_138:\n        /* \"#utility.yul\":4981:5120   */\n      swap1\n      pop\n        /* \"#utility.yul\":4708:5127   */\n      swap2\n      swap1\n      pop\n      jump\t// out\n        /* \"#utility.yul\":5133:5280   */\n    tag_72:\n        /* \"#utility.yul\":5234:5245   */\n      0x00\n        /* \"#utility.yul\":5271:5274   */\n      dup2\n        /* \"#utility.yul\":5256:5274   */\n      swap1\n      pop\n        /* \"#utility.yul\":5133:5280   */\n      swap3\n      swap2\n      pop\n      pop\n      jump\t// out\n        /* \"#utility.yul\":5286:5432   */\n    tag_73:\n        /* \"#utility.yul\":5383:5389   */\n      dup3\n        /* \"#utility.yul\":5378:5381   */\n      dup2\n        /* \"#utility.yul\":5373:5376   */\n      dup4\n        /* \"#utility.yul\":5360:5390   */\n      calldatacopy\n        /* \"#utility.yul\":5424:5425   */\n      0x00\n        /* \"#utility.yul\":5415:5421   */\n      dup4\n        /* \"#utility.yul\":5410:5413   */\n      dup4\n        /* \"#utility.yul\":5406:5422   */\n      add\n        /* \"#utility.yul\":5399:5426   */\n      mstore\n        /* \"#utility.yul\":5286:5432   */\n      pop\n      pop\n      pop\n      jump\t// out\n        /* \"#utility.yul\":5460:5787   */\n    tag_74:\n        /* \"#utility.yul\":5574:5577   */\n      0x00\n        /* \"#utility.yul\":5595:5683   */\n      tag_142\n        /* \"#utility.yul\":5676:5682   */\n      dup4\n        /* \"#utility.yul\":5671:5674   */\n      dup6\n        /* \"#utility.yul\":5595:5683   */\n      tag_72\n      jump\t// in\n    tag_142:\n        /* \"#utility.yul\":5588:5683   */\n      swap4\n      pop\n        /* \"#utility.yul\":5693:5749   */\n      tag_143\n        /* \"#utility.yul\":5742:5748   */\n      dup4\n        /* \"#utility.yul\":5737:5740   */\n      dup6\n        /* \"#utility.yul\":5730:5735   */\n      dup5\n        /* \"#utility.yul\":5693:5749   */\n      tag_73\n      jump\t// in\n    tag_143:\n        /* \"#utility.yul\":5774:5780   */\n      dup3\n        /* \"#utility.yul\":5769:5772   */\n      dup5\n        /* \"#utility.yul\":5765:5781   */\n      add\n        /* \"#utility.yul\":5758:5781   */\n      swap1\n      pop\n        /* \"#utility.yul\":5460:5787   */\n      swap4\n      swap3\n      pop\n      pop\n      pop\n      jump\t// out\n        /* \"#utility.yul\":5793:6084   */\n    tag_30:\n        /* \"#utility.yul\":5933:5936   */\n      0x00\n        /* \"#utility.yul\":5955:6058   */\n      tag_145\n        /* \"#utility.yul\":6054:6057   */\n      dup3\n        /* \"#utility.yul\":6045:6051   */\n      dup5\n        /* \"#utility.yul\":6037:6043   */\n      dup7\n        /* \"#utility.yul\":5955:6058   */\n      tag_74\n      jump\t// in\n    tag_145:\n        /* \"#utility.yul\":5948:6058   */\n      swap2\n      pop\n        /* \"#utility.yul\":6075:6078   */\n      dup2\n        /* \"#utility.yul\":6068:6078   */\n      swap1\n      pop\n        /* \"#utility.yul\":5793:6084   */\n      swap4\n      swap3\n      pop\n      pop\n      pop\n      jump\t// out\n        /* \"#utility.yul\":6090:6251   */\n    tag_75:\n        /* \"#utility.yul\":6230:6243   */\n      0x6c6f616e206661696c6564000000000000000000000000000000000000000000\n        /* \"#utility.yul\":6226:6227   */\n      0x00\n        /* \"#utility.yul\":6218:6224   */\n      dup3\n        /* \"#utility.yul\":6214:6228   */\n      add\n        /* \"#utility.yul\":6207:6244   */\n      mstore\n        /* \"#utility.yul\":6090:6251   */\n      pop\n      jump\t// out\n        /* \"#utility.yul\":6257:6623   */\n    tag_76:\n        /* \"#utility.yul\":6399:6402   */\n      0x00\n        /* \"#utility.yul\":6420:6487   */\n      tag_148\n        /* \"#utility.yul\":6484:6486   */\n      0x0b\n        /* \"#utility.yul\":6479:6482   */\n      dup4\n        /* \"#utility.yul\":6420:6487   */\n      tag_69\n      jump\t// in\n    tag_148:\n        /* \"#utility.yul\":6413:6487   */\n      swap2\n      pop\n        /* \"#utility.yul\":6496:6589   */\n      tag_149\n        /* \"#utility.yul\":6585:6588   */\n      dup3\n        /* \"#utility.yul\":6496:6589   */\n      tag_75\n      jump\t// in\n    tag_149:\n        /* \"#utility.yul\":6614:6616   */\n      0x20\n        /* \"#utility.yul\":6609:6612   */\n      dup3\n        /* \"#utility.yul\":6605:6617   */\n      add\n        /* \"#utility.yul\":6598:6617   */\n      swap1\n      pop\n        /* \"#utility.yul\":6257:6623   */\n      swap2\n      swap1\n      pop\n      jump\t// out\n        /* \"#utility.yul\":6629:7048   */\n    tag_36:\n        /* \"#utility.yul\":6795:6799   */\n      0x00\n        /* \"#utility.yul\":6833:6835   */\n      0x20\n        /* \"#utility.yul\":6822:6831   */\n      dup3\n        /* \"#utility.yul\":6818:6836   */\n      add\n        /* \"#utility.yul\":6810:6836   */\n      swap1\n      pop\n        /* \"#utility.yul\":6882:6891   */\n      dup2\n        /* \"#utility.yul\":6876:6880   */\n      dup2\n        /* \"#utility.yul\":6872:6892   */\n      sub\n        /* \"#utility.yul\":6868:6869   */\n      0x00\n        /* \"#utility.yul\":6857:6866   */\n      dup4\n        /* \"#utility.yul\":6853:6870   */\n      add\n        /* \"#utility.yul\":6846:6893   */\n      mstore\n        /* \"#utility.yul\":6910:7041   */\n      tag_151\n        /* \"#utility.yul\":7036:7040   */\n      dup2\n        /* \"#utility.yul\":6910:7041   */\n      tag_76\n      jump\t// in\n    tag_151:\n        /* \"#utility.yul\":6902:7041   */\n      swap1\n      pop\n        /* \"#utility.yul\":6629:7048   */\n      swap2\n      swap1\n      pop\n      jump\t// out\n        /* \"#utility.yul\":7054:7226   */\n    tag_77:\n        /* \"#utility.yul\":7194:7218   */\n      0x62616c616e6365206166746572203c206265666f726500000000000000000000\n        /* \"#utility.yul\":7190:7191   */\n      0x00\n        /* \"#utility.yul\":7182:7188   */\n      dup3\n        /* \"#utility.yul\":7178:7192   */\n      add\n        /* \"#utility.yul\":7171:7219   */\n      mstore\n        /* \"#utility.yul\":7054:7226   */\n      pop\n      jump\t// out\n        /* \"#utility.yul\":7232:7598   */\n    tag_78:\n        /* \"#utility.yul\":7374:7377   */\n      0x00\n        /* \"#utility.yul\":7395:7462   */\n      tag_154\n        /* \"#utility.yul\":7459:7461   */\n      0x16\n        /* \"#utility.yul\":7454:7457   */\n      dup4\n        /* \"#utility.yul\":7395:7462   */\n      tag_69\n      jump\t// in\n    tag_154:\n        /* \"#utility.yul\":7388:7462   */\n      swap2\n      pop\n        /* \"#utility.yul\":7471:7564   */\n      tag_155\n        /* \"#utility.yul\":7560:7563   */\n      dup3\n        /* \"#utility.yul\":7471:7564   */\n      tag_77\n      jump\t// in\n    tag_155:\n        /* \"#utility.yul\":7589:7591   */\n      0x20\n        /* \"#utility.yul\":7584:7587   */\n      dup3\n        /* \"#utility.yul\":7580:7592   */\n      add\n        /* \"#utility.yul\":7573:7592   */\n      swap1\n      pop\n        /* \"#utility.yul\":7232:7598   */\n      swap2\n      swap1\n      pop\n      jump\t// out\n        /* \"#utility.yul\":7604:8023   */\n    tag_39:\n        /* \"#utility.yul\":7770:7774   */\n      0x00\n        /* \"#utility.yul\":7808:7810   */\n      0x20\n        /* \"#utility.yul\":7797:7806   */\n      dup3\n        /* \"#utility.yul\":7793:7811   */\n      add\n        /* \"#utility.yul\":7785:7811   */\n      swap1\n      pop\n        /* \"#utility.yul\":7857:7866   */\n      dup2\n        /* \"#utility.yul\":7851:7855   */\n      dup2\n        /* \"#utility.yul\":7847:7867   */\n      sub\n        /* \"#utility.yul\":7843:7844   */\n      0x00\n        /* \"#utility.yul\":7832:7841   */\n      dup4\n        /* \"#utility.yul\":7828:7845   */\n      add\n        /* \"#utility.yul\":7821:7868   */\n      mstore\n        /* \"#utility.yul\":7885:8016   */\n      tag_157\n        /* \"#utility.yul\":8011:8015   */\n      dup2\n        /* \"#utility.yul\":7885:8016   */\n      tag_78\n      jump\t// in\n    tag_157:\n        /* \"#utility.yul\":7877:8016   */\n      swap1\n      pop\n        /* \"#utility.yul\":7604:8023   */\n      swap2\n      swap1\n      pop\n      jump\t// out\n        /* \"#utility.yul\":8029:8209   */\n    tag_79:\n        /* \"#utility.yul\":8077:8154   */\n      0x4e487b7100000000000000000000000000000000000000000000000000000000\n        /* \"#utility.yul\":8074:8075   */\n      0x00\n        /* \"#utility.yul\":8067:8155   */\n      mstore\n        /* \"#utility.yul\":8174:8178   */\n      0x11\n        /* \"#utility.yul\":8171:8172   */\n      0x04\n        /* \"#utility.yul\":8164:8179   */\n      mstore\n        /* \"#utility.yul\":8198:8202   */\n      0x24\n        /* \"#utility.yul\":8195:8196   */\n      0x00\n        /* \"#utility.yul\":8188:8203   */\n      revert\n        /* \"#utility.yul\":8215:8409   */\n    tag_42:\n        /* \"#utility.yul\":8255:8259   */\n      0x00\n        /* \"#utility.yul\":8275:8295   */\n      tag_160\n        /* \"#utility.yul\":8293:8294   */\n      dup3\n        /* \"#utility.yul\":8275:8295   */\n      tag_61\n      jump\t// in\n    tag_160:\n        /* \"#utility.yul\":8270:8295   */\n      swap2\n      pop\n        /* \"#utility.yul\":8309:8329   */\n      tag_161\n        /* \"#utility.yul\":8327:8328   */\n      dup4\n        /* \"#utility.yul\":8309:8329   */\n      tag_61\n      jump\t// in\n    tag_161:\n        /* \"#utility.yul\":8304:8329   */\n      swap3\n      pop\n        /* \"#utility.yul\":8353:8354   */\n      dup3\n        /* \"#utility.yul\":8350:8351   */\n      dup3\n        /* \"#utility.yul\":8346:8355   */\n      sub\n        /* \"#utility.yul\":8338:8355   */\n      swap1\n      pop\n        /* \"#utility.yul\":8377:8378   */\n      dup2\n        /* \"#utility.yul\":8371:8375   */\n      dup2\n        /* \"#utility.yul\":8368:8379   */\n      gt\n        /* \"#utility.yul\":8365:8402   */\n      iszero\n      tag_162\n      jumpi\n        /* \"#utility.yul\":8382:8400   */\n      tag_163\n      tag_79\n      jump\t// in\n    tag_163:\n        /* \"#utility.yul\":8365:8402   */\n    tag_162:\n        /* \"#utility.yul\":8215:8409   */\n      swap3\n      swap2\n      pop\n      pop\n      jump\t// out\n        /* \"#utility.yul\":8415:8529   */\n    tag_80:\n      pop\n      jump\t// out\n        /* \"#utility.yul\":8535:8933   */\n    tag_81:\n        /* \"#utility.yul\":8694:8697   */\n      0x00\n        /* \"#utility.yul\":8715:8798   */\n      tag_166\n        /* \"#utility.yul\":8796:8797   */\n      0x00\n        /* \"#utility.yul\":8791:8794   */\n      dup4\n        /* \"#utility.yul\":8715:8798   */\n      tag_72\n      jump\t// in\n    tag_166:\n        /* \"#utility.yul\":8708:8798   */\n      swap2\n      pop\n        /* \"#utility.yul\":8807:8900   */\n      tag_167\n        /* \"#utility.yul\":8896:8899   */\n      dup3\n        /* \"#utility.yul\":8807:8900   */\n      tag_80\n      jump\t// in\n    tag_167:\n        /* \"#utility.yul\":8925:8926   */\n      0x00\n        /* \"#utility.yul\":8920:8923   */\n      dup3\n        /* \"#utility.yul\":8916:8927   */\n      add\n        /* \"#utility.yul\":8909:8927   */\n      swap1\n      pop\n        /* \"#utility.yul\":8535:8933   */\n      swap2\n      swap1\n      pop\n      jump\t// out\n        /* \"#utility.yul\":8939:9318   */\n    tag_44:\n        /* \"#utility.yul\":9123:9126   */\n      0x00\n        /* \"#utility.yul\":9145:9292   */\n      tag_169\n        /* \"#utility.yul\":9288:9291   */\n      dup3\n        /* \"#utility.yul\":9145:9292   */\n      tag_81\n      jump\t// in\n    tag_169:\n        /* \"#utility.yul\":9138:9292   */\n      swap2\n      pop\n        /* \"#utility.yul\":9309:9312   */\n      dup2\n        /* \"#utility.yul\":9302:9312   */\n      swap1\n      pop\n        /* \"#utility.yul\":8939:9318   */\n      swap2\n      swap1\n      pop\n      jump\t// out\n        /* \"#utility.yul\":9324:9489   */\n    tag_82:\n        /* \"#utility.yul\":9464:9481   */\n      0x73656e6420455448206661696c65640000000000000000000000000000000000\n        /* \"#utility.yul\":9460:9461   */\n      0x00\n        /* \"#utility.yul\":9452:9458   */\n      dup3\n        /* \"#utility.yul\":9448:9462   */\n      add\n        /* \"#utility.yul\":9441:9482   */\n      mstore\n        /* \"#utility.yul\":9324:9489   */\n      pop\n      jump\t// out\n        /* \"#utility.yul\":9495:9861   */\n    tag_83:\n        /* \"#utility.yul\":9637:9640   */\n      0x00\n        /* \"#utility.yul\":9658:9725   */\n      tag_172\n        /* \"#utility.yul\":9722:9724   */\n      0x0f\n        /* \"#utility.yul\":9717:9720   */\n      dup4\n        /* \"#utility.yul\":9658:9725   */\n      tag_69\n      jump\t// in\n    tag_172:\n        /* \"#utility.yul\":9651:9725   */\n      swap2\n      pop\n        /* \"#utility.yul\":9734:9827   */\n      tag_173\n        /* \"#utility.yul\":9823:9826   */\n      dup3\n        /* \"#utility.yul\":9734:9827   */\n      tag_82\n      jump\t// in\n    tag_173:\n        /* \"#utility.yul\":9852:9854   */\n      0x20\n        /* \"#utility.yul\":9847:9850   */\n      dup3\n        /* \"#utility.yul\":9843:9855   */\n      add\n        /* \"#utility.yul\":9836:9855   */\n      swap1\n      pop\n        /* \"#utility.yul\":9495:9861   */\n      swap2\n      swap1\n      pop\n      jump\t// out\n        /* \"#utility.yul\":9867:10286   */\n    tag_50:\n        /* \"#utility.yul\":10033:10037   */\n      0x00\n        /* \"#utility.yul\":10071:10073   */\n      0x20\n        /* \"#utility.yul\":10060:10069   */\n      dup3\n        /* \"#utility.yul\":10056:10074   */\n      add\n        /* \"#utility.yul\":10048:10074   */\n      swap1\n      pop\n        /* \"#utility.yul\":10120:10129   */\n      dup2\n        /* \"#utility.yul\":10114:10118   */\n      dup2\n        /* \"#utility.yul\":10110:10130   */\n      sub\n        /* \"#utility.yul\":10106:10107   */\n      0x00\n        /* \"#utility.yul\":10095:10104   */\n      dup4\n        /* \"#utility.yul\":10091:10108   */\n      add\n        /* \"#utility.yul\":10084:10131   */\n      mstore\n        /* \"#utility.yul\":10148:10279   */\n      tag_175\n        /* \"#utility.yul\":10274:10278   */\n      dup2\n        /* \"#utility.yul\":10148:10279   */\n      tag_83\n      jump\t// in\n    tag_175:\n        /* \"#utility.yul\":10140:10279   */\n      swap1\n      pop\n        /* \"#utility.yul\":9867:10286   */\n      swap2\n      swap1\n      pop\n      jump\t// out\n        /* \"#utility.yul\":10292:10483   */\n    tag_53:\n        /* \"#utility.yul\":10332:10335   */\n      0x00\n        /* \"#utility.yul\":10351:10371   */\n      tag_177\n        /* \"#utility.yul\":10369:10370   */\n      dup3\n        /* \"#utility.yul\":10351:10371   */\n      tag_61\n      jump\t// in\n    tag_177:\n        /* \"#utility.yul\":10346:10371   */\n      swap2\n      pop\n        /* \"#utility.yul\":10385:10405   */\n      tag_178\n        /* \"#utility.yul\":10403:10404   */\n      dup4\n        /* \"#utility.yul\":10385:10405   */\n      tag_61\n      jump\t// in\n    tag_178:\n        /* \"#utility.yul\":10380:10405   */\n      swap3\n      pop\n        /* \"#utility.yul\":10428:10429   */\n      dup3\n        /* \"#utility.yul\":10425:10426   */\n      dup3\n        /* \"#utility.yul\":10421:10430   */\n      add\n        /* \"#utility.yul\":10414:10430   */\n      swap1\n      pop\n        /* \"#utility.yul\":10449:10452   */\n      dup1\n        /* \"#utility.yul\":10446:10447   */\n      dup3\n        /* \"#utility.yul\":10443:10453   */\n      gt\n        /* \"#utility.yul\":10440:10476   */\n      iszero\n      tag_179\n      jumpi\n        /* \"#utility.yul\":10456:10474   */\n      tag_180\n      tag_79\n      jump\t// in\n    tag_180:\n        /* \"#utility.yul\":10440:10476   */\n    tag_179:\n        /* \"#utility.yul\":10292:10483   */\n      swap3\n      swap2\n      pop\n      pop\n      jump\t// out\n\n    auxdata: 0xa26469706673582212206916f77778eb92de20340084f292a36854dd1a870e5287e2583dbe7a686244eb64736f6c63430008160033\n}\n",
				"bytecode": {
					"linkReferences": {},
					"object": "608060405234801561000f575f80fd5b5061086a8061001d5f395ff3fe60806040526004361061003e575f3560e01c806327e235e3146100425780632bd94e9c1461007e5780632e1a7d4d146100a6578063d0e30db0146100ce575b5f80fd5b34801561004d575f80fd5b50610068600480360381019061006391906103e3565b6100d8565b6040516100759190610426565b60405180910390f35b348015610089575f80fd5b506100a4600480360381019061009f91906104ca565b6100ec565b005b3480156100b1575f80fd5b506100cc60048036038101906100c7919061053b565b61022f565b005b6100d661032d565b005b5f602052805f5260405f205f915090505481565b5f47905084811015610133576040517f08c379a000000000000000000000000000000000000000000000000000000000815260040161012a906105c0565b60405180910390fd5b5f8473ffffffffffffffffffffffffffffffffffffffff1686858560405161015c92919061061a565b5f6040518083038185875af1925050503d805f8114610196576040519150601f19603f3d011682016040523d82523d5f602084013e61019b565b606091505b50509050806101df576040517f08c379a00000000000000000000000000000000000000000000000000000000081526004016101d69061067c565b60405180910390fd5b5f47905082811015610226576040517f08c379a000000000000000000000000000000000000000000000000000000000815260040161021d906106e4565b60405180910390fd5b50505050505050565b805f803373ffffffffffffffffffffffffffffffffffffffff1673ffffffffffffffffffffffffffffffffffffffff1681526020019081526020015f205f82825461027a919061072f565b925050819055505f3373ffffffffffffffffffffffffffffffffffffffff16826040516102a690610785565b5f6040518083038185875af1925050503d805f81146102e0576040519150601f19603f3d011682016040523d82523d5f602084013e6102e5565b606091505b5050905080610329576040517f08c379a0000000000000000000000000000000000000000000000000000000008152600401610320906107e3565b60405180910390fd5b5050565b345f803373ffffffffffffffffffffffffffffffffffffffff1673ffffffffffffffffffffffffffffffffffffffff1681526020019081526020015f205f8282546103789190610801565b92505081905550565b5f80fd5b5f80fd5b5f73ffffffffffffffffffffffffffffffffffffffff82169050919050565b5f6103b282610389565b9050919050565b6103c2816103a8565b81146103cc575f80fd5b50565b5f813590506103dd816103b9565b92915050565b5f602082840312156103f8576103f7610381565b5b5f610405848285016103cf565b91505092915050565b5f819050919050565b6104208161040e565b82525050565b5f6020820190506104395f830184610417565b92915050565b6104488161040e565b8114610452575f80fd5b50565b5f813590506104638161043f565b92915050565b5f80fd5b5f80fd5b5f80fd5b5f8083601f84011261048a57610489610469565b5b8235905067ffffffffffffffff8111156104a7576104a661046d565b5b6020830191508360018202830111156104c3576104c2610471565b5b9250929050565b5f805f80606085870312156104e2576104e1610381565b5b5f6104ef87828801610455565b9450506020610500878288016103cf565b935050604085013567ffffffffffffffff81111561052157610520610385565b5b61052d87828801610475565b925092505092959194509250565b5f602082840312156105505761054f610381565b5b5f61055d84828501610455565b91505092915050565b5f82825260208201905092915050565b7f626f72726f7720616d6f756e74203e2062616c616e63650000000000000000005f82015250565b5f6105aa601783610566565b91506105b582610576565b602082019050919050565b5f6020820190508181035f8301526105d78161059e565b9050919050565b5f81905092915050565b828183375f83830152505050565b5f61060183856105de565b935061060e8385846105e8565b82840190509392505050565b5f6106268284866105f6565b91508190509392505050565b7f6c6f616e206661696c65640000000000000000000000000000000000000000005f82015250565b5f610666600b83610566565b915061067182610632565b602082019050919050565b5f6020820190508181035f8301526106938161065a565b9050919050565b7f62616c616e6365206166746572203c206265666f7265000000000000000000005f82015250565b5f6106ce601683610566565b91506106d98261069a565b602082019050919050565b5f6020820190508181035f8301526106fb816106c2565b9050919050565b7f4e487b71000000000000000000000000000000000000000000000000000000005f52601160045260245ffd5b5f6107398261040e565b91506107448361040e565b925082820390508181111561075c5761075b610702565b5b92915050565b50565b5f6107705f836105de565b915061077b82610762565b5f82019050919050565b5f61078f82610765565b9150819050919050565b7f73656e6420455448206661696c656400000000000000000000000000000000005f82015250565b5f6107cd600f83610566565b91506107d882610799565b602082019050919050565b5f6020820190508181035f8301526107fa816107c1565b9050919050565b5f61080b8261040e565b91506108168361040e565b925082820190508082111561082e5761082d610702565b5b9291505056fea26469706673582212206916f77778eb92de20340084f292a36854dd1a870e5287e2583dbe7a686244eb64736f6c63430008160033",
					"opcodes": "PUSH1 0x80 PUSH1 0x40 MSTORE CALLVALUE DUP1 ISZERO PUSH2 0xF JUMPI PUSH0 DUP1 REVERT JUMPDEST POP PUSH2 0x86A DUP1 PUSH2 0x1D PUSH0 CODECOPY PUSH0 RETURN INVALID PUSH1 0x80 PUSH1 0x40 MSTORE PUSH1 0x4 CALLDATASIZE LT PUSH2 0x3E JUMPI PUSH0 CALLDATALOAD PUSH1 0xE0 SHR DUP1 PUSH4 0x27E235E3 EQ PUSH2 0x42 JUMPI DUP1 PUSH4 0x2BD94E9C EQ PUSH2 0x7E JUMPI DUP1 PUSH4 0x2E1A7D4D EQ PUSH2 0xA6 JUMPI DUP1 PUSH4 0xD0E30DB0 EQ PUSH2 0xCE JUMPI JUMPDEST PUSH0 DUP1 REVERT JUMPDEST CALLVALUE DUP1 ISZERO PUSH2 0x4D JUMPI PUSH0 DUP1 REVERT JUMPDEST POP PUSH2 0x68 PUSH1 0x4 DUP1 CALLDATASIZE SUB DUP2 ADD SWAP1 PUSH2 0x63 SWAP2 SWAP1 PUSH2 0x3E3 JUMP JUMPDEST PUSH2 0xD8 JUMP JUMPDEST PUSH1 0x40 MLOAD PUSH2 0x75 SWAP2 SWAP1 PUSH2 0x426 JUMP JUMPDEST PUSH1 0x40 MLOAD DUP1 SWAP2 SUB SWAP1 RETURN JUMPDEST CALLVALUE DUP1 ISZERO PUSH2 0x89 JUMPI PUSH0 DUP1 REVERT JUMPDEST POP PUSH2 0xA4 PUSH1 0x4 DUP1 CALLDATASIZE SUB DUP2 ADD SWAP1 PUSH2 0x9F SWAP2 SWAP1 PUSH2 0x4CA JUMP JUMPDEST PUSH2 0xEC JUMP JUMPDEST STOP JUMPDEST CALLVALUE DUP1 ISZERO PUSH2 0xB1 JUMPI PUSH0 DUP1 REVERT JUMPDEST POP PUSH2 0xCC PUSH1 0x4 DUP1 CALLDATASIZE SUB DUP2 ADD SWAP1 PUSH2 0xC7 SWAP2 SWAP1 PUSH2 0x53B JUMP JUMPDEST PUSH2 0x22F JUMP JUMPDEST STOP JUMPDEST PUSH2 0xD6 PUSH2 0x32D JUMP JUMPDEST STOP JUMPDEST PUSH0 PUSH1 0x20 MSTORE DUP1 PUSH0 MSTORE PUSH1 0x40 PUSH0 KECCAK256 PUSH0 SWAP2 POP SWAP1 POP SLOAD DUP2 JUMP JUMPDEST PUSH0 SELFBALANCE SWAP1 POP DUP5 DUP2 LT ISZERO PUSH2 0x133 JUMPI PUSH1 0x40 MLOAD PUSH32 0x8C379A000000000000000000000000000000000000000000000000000000000 DUP2 MSTORE PUSH1 0x4 ADD PUSH2 0x12A SWAP1 PUSH2 0x5C0 JUMP JUMPDEST PUSH1 0x40 MLOAD DUP1 SWAP2 SUB SWAP1 REVERT JUMPDEST PUSH0 DUP5 PUSH20 0xFFFFFFFFFFFFFFFFFFFFFFFFFFFFFFFFFFFFFFFF AND DUP7 DUP6 DUP6 PUSH1 0x40 MLOAD PUSH2 0x15C SWAP3 SWAP2 SWAP1 PUSH2 0x61A JUMP JUMPDEST PUSH0 PUSH1 0x40 MLOAD DUP1 DUP4 SUB DUP2 DUP6 DUP8 GAS CALL SWAP3 POP POP POP RETURNDATASIZE DUP1 PUSH0 DUP2 EQ PUSH2 0x196 JUMPI PUSH1 0x40 MLOAD SWAP2 POP PUSH1 0x1F NOT PUSH1 0x3F RETURNDATASIZE ADD AND DUP3 ADD PUSH1 0x40 MSTORE RETURNDATASIZE DUP3 MSTORE RETURNDATASIZE PUSH0 PUSH1 0x20 DUP5 ADD RETURNDATACOPY PUSH2 0x19B JUMP JUMPDEST PUSH1 0x60 SWAP2 POP JUMPDEST POP POP SWAP1 POP DUP1 PUSH2 0x1DF JUMPI PUSH1 0x40 MLOAD PUSH32 0x8C379A000000000000000000000000000000000000000000000000000000000 DUP2 MSTORE PUSH1 0x4 ADD PUSH2 0x1D6 SWAP1 PUSH2 0x67C JUMP JUMPDEST PUSH1 0x40 MLOAD DUP1 SWAP2 SUB SWAP1 REVERT JUMPDEST PUSH0 SELFBALANCE SWAP1 POP DUP3 DUP2 LT ISZERO PUSH2 0x226 JUMPI PUSH1 0x40 MLOAD PUSH32 0x8C379A000000000000000000000000000000000000000000000000000000000 DUP2 MSTORE PUSH1 0x4 ADD PUSH2 0x21D SWAP1 PUSH2 0x6E4 JUMP JUMPDEST PUSH1 0x40 MLOAD DUP1 SWAP2 SUB SWAP1 REVERT JUMPDEST POP POP POP POP POP POP POP JUMP JUMPDEST DUP1 PUSH0 DUP1 CALLER PUSH20 0xFFFFFFFFFFFFFFFFFFFFFFFFFFFFFFFFFFFFFFFF AND PUSH20 0xFFFFFFFFFFFFFFFFFFFFFFFFFFFFFFFFFFFFFFFF AND DUP2 MSTORE PUSH1 0x20 ADD SWAP1 DUP2 MSTORE PUSH1 0x20 ADD PUSH0 KECCAK256 PUSH0 DUP3 DUP3 SLOAD PUSH2 0x27A SWAP2 SWAP1 PUSH2 0x72F JUMP JUMPDEST SWAP3 POP POP DUP2 SWAP1 SSTORE POP PUSH0 CALLER PUSH20 0xFFFFFFFFFFFFFFFFFFFFFFFFFFFFFFFFFFFFFFFF AND DUP3 PUSH1 0x40 MLOAD PUSH2 0x2A6 SWAP1 PUSH2 0x785 JUMP JUMPDEST PUSH0 PUSH1 0x40 MLOAD DUP1 DUP4 SUB DUP2 DUP6 DUP8 GAS CALL SWAP3 POP POP POP RETURNDATASIZE DUP1 PUSH0 DUP2 EQ PUSH2 0x2E0 JUMPI PUSH1 0x40 MLOAD SWAP2 POP PUSH1 0x1F NOT PUSH1 0x3F RETURNDATASIZE ADD AND DUP3 ADD PUSH1 0x40 MSTORE RETURNDATASIZE DUP3 MSTORE RETURNDATASIZE PUSH0 PUSH1 0x20 DUP5 ADD RETURNDATACOPY PUSH2 0x2E5 JUMP JUMPDEST PUSH1 0x60 SWAP2 POP JUMPDEST POP POP SWAP1 POP DUP1 PUSH2 0x329 JUMPI PUSH1 0x40 MLOAD PUSH32 0x8C379A000000000000000000000000000000000000000000000000000000000 DUP2 MSTORE PUSH1 0x4 ADD PUSH2 0x320 SWAP1 PUSH2 0x7E3 JUMP JUMPDEST PUSH1 0x40 MLOAD DUP1 SWAP2 SUB SWAP1 REVERT JUMPDEST POP POP JUMP JUMPDEST CALLVALUE PUSH0 DUP1 CALLER PUSH20 0xFFFFFFFFFFFFFFFFFFFFFFFFFFFFFFFFFFFFFFFF AND PUSH20 0xFFFFFFFFFFFFFFFFFFFFFFFFFFFFFFFFFFFFFFFF AND DUP2 MSTORE PUSH1 0x20 ADD SWAP1 DUP2 MSTORE PUSH1 0x20 ADD PUSH0 KECCAK256 PUSH0 DUP3 DUP3 SLOAD PUSH2 0x378 SWAP2 SWAP1 PUSH2 0x801 JUMP JUMPDEST SWAP3 POP POP DUP2 SWAP1 SSTORE POP JUMP JUMPDEST PUSH0 DUP1 REVERT JUMPDEST PUSH0 DUP1 REVERT JUMPDEST PUSH0 PUSH20 0xFFFFFFFFFFFFFFFFFFFFFFFFFFFFFFFFFFFFFFFF DUP3 AND SWAP1 POP SWAP2 SWAP1 POP JUMP JUMPDEST PUSH0 PUSH2 0x3B2 DUP3 PUSH2 0x389 JUMP JUMPDEST SWAP1 POP SWAP2 SWAP1 POP JUMP JUMPDEST PUSH2 0x3C2 DUP2 PUSH2 0x3A8 JUMP JUMPDEST DUP2 EQ PUSH2 0x3CC JUMPI PUSH0 DUP1 REVERT JUMPDEST POP JUMP JUMPDEST PUSH0 DUP2 CALLDATALOAD SWAP1 POP PUSH2 0x3DD DUP2 PUSH2 0x3B9 JUMP JUMPDEST SWAP3 SWAP2 POP POP JUMP JUMPDEST PUSH0 PUSH1 0x20 DUP3 DUP5 SUB SLT ISZERO PUSH2 0x3F8 JUMPI PUSH2 0x3F7 PUSH2 0x381 JUMP JUMPDEST JUMPDEST PUSH0 PUSH2 0x405 DUP5 DUP3 DUP6 ADD PUSH2 0x3CF JUMP JUMPDEST SWAP2 POP POP SWAP3 SWAP2 POP POP JUMP JUMPDEST PUSH0 DUP2 SWAP1 POP SWAP2 SWAP1 POP JUMP JUMPDEST PUSH2 0x420 DUP2 PUSH2 0x40E JUMP JUMPDEST DUP3 MSTORE POP POP JUMP JUMPDEST PUSH0 PUSH1 0x20 DUP3 ADD SWAP1 POP PUSH2 0x439 PUSH0 DUP4 ADD DUP5 PUSH2 0x417 JUMP JUMPDEST SWAP3 SWAP2 POP POP JUMP JUMPDEST PUSH2 0x448 DUP2 PUSH2 0x40E JUMP JUMPDEST DUP2 EQ PUSH2 0x452 JUMPI PUSH0 DUP1 REVERT JUMPDEST POP JUMP JUMPDEST PUSH0 DUP2 CALLDATALOAD SWAP1 POP PUSH2 0x463 DUP2 PUSH2 0x43F JUMP JUMPDEST SWAP3 SWAP2 POP POP JUMP JUMPDEST PUSH0 DUP1 REVERT JUMPDEST PUSH0 DUP1 REVERT JUMPDEST PUSH0 DUP1 REVERT JUMPDEST PUSH0 DUP1 DUP4 PUSH1 0x1F DUP5 ADD SLT PUSH2 0x48A JUMPI PUSH2 0x489 PUSH2 0x469 JUMP JUMPDEST JUMPDEST DUP3 CALLDATALOAD SWAP1 POP PUSH8 0xFFFFFFFFFFFFFFFF DUP2 GT ISZERO PUSH2 0x4A7 JUMPI PUSH2 0x4A6 PUSH2 0x46D JUMP JUMPDEST JUMPDEST PUSH1 0x20 DUP4 ADD SWAP2 POP DUP4 PUSH1 0x1 DUP3 MUL DUP4 ADD GT ISZERO PUSH2 0x4C3 JUMPI PUSH2 0x4C2 PUSH2 0x471 JUMP JUMPDEST JUMPDEST SWAP3 POP SWAP3 SWAP1 POP JUMP JUMPDEST PUSH0 DUP1 PUSH0 DUP1 PUSH1 0x60 DUP6 DUP8 SUB SLT ISZERO PUSH2 0x4E2 JUMPI PUSH2 0x4E1 PUSH2 0x381 JUMP JUMPDEST JUMPDEST PUSH0 PUSH2 0x4EF DUP8 DUP3 DUP9 ADD PUSH2 0x455 JUMP JUMPDEST SWAP5 POP POP PUSH1 0x20 PUSH2 0x500 DUP8 DUP3 DUP9 ADD PUSH2 0x3CF JUMP JUMPDEST SWAP4 POP POP PUSH1 0x40 DUP6 ADD CALLDATALOAD PUSH8 0xFFFFFFFFFFFFFFFF DUP2 GT ISZERO PUSH2 0x521 JUMPI PUSH2 0x520 PUSH2 0x385 JUMP JUMPDEST JUMPDEST PUSH2 0x52D DUP8 DUP3 DUP9 ADD PUSH2 0x475 JUMP JUMPDEST SWAP3 POP SWAP3 POP POP SWAP3 SWAP6 SWAP2 SWAP5 POP SWAP3 POP JUMP JUMPDEST PUSH0 PUSH1 0x20 DUP3 DUP5 SUB SLT ISZERO PUSH2 0x550 JUMPI PUSH2 0x54F PUSH2 0x381 JUMP JUMPDEST JUMPDEST PUSH0 PUSH2 0x55D DUP5 DUP3 DUP6 ADD PUSH2 0x455 JUMP JUMPDEST SWAP2 POP POP SWAP3 SWAP2 POP POP JUMP JUMPDEST PUSH0 DUP3 DUP3 MSTORE PUSH1 0x20 DUP3 ADD SWAP1 POP SWAP3 SWAP2 POP POP JUMP JUMPDEST PUSH32 0x626F72726F7720616D6F756E74203E2062616C616E6365000000000000000000 PUSH0 DUP3 ADD MSTORE POP JUMP JUMPDEST PUSH0 PUSH2 0x5AA PUSH1 0x17 DUP4 PUSH2 0x566 JUMP JUMPDEST SWAP2 POP PUSH2 0x5B5 DUP3 PUSH2 0x576 JUMP JUMPDEST PUSH1 0x20 DUP3 ADD SWAP1 POP SWAP2 SWAP1 POP JUMP JUMPDEST PUSH0 PUSH1 0x20 DUP3 ADD SWAP1 POP DUP2 DUP2 SUB PUSH0 DUP4 ADD MSTORE PUSH2 0x5D7 DUP2 PUSH2 0x59E JUMP JUMPDEST SWAP1 POP SWAP2 SWAP1 POP JUMP JUMPDEST PUSH0 DUP2 SWAP1 POP SWAP3 SWAP2 POP POP JUMP JUMPDEST DUP3 DUP2 DUP4 CALLDATACOPY PUSH0 DUP4 DUP4 ADD MSTORE POP POP POP JUMP JUMPDEST PUSH0 PUSH2 0x601 DUP4 DUP6 PUSH2 0x5DE JUMP JUMPDEST SWAP4 POP PUSH2 0x60E DUP4 DUP6 DUP5 PUSH2 0x5E8 JUMP JUMPDEST DUP3 DUP5 ADD SWAP1 POP SWAP4 SWAP3 POP POP POP JUMP JUMPDEST PUSH0 PUSH2 0x626 DUP3 DUP5 DUP7 PUSH2 0x5F6 JUMP JUMPDEST SWAP2 POP DUP2 SWAP1 POP SWAP4 SWAP3 POP POP POP JUMP JUMPDEST PUSH32 0x6C6F616E206661696C6564000000000000000000000000000000000000000000 PUSH0 DUP3 ADD MSTORE POP JUMP JUMPDEST PUSH0 PUSH2 0x666 PUSH1 0xB DUP4 PUSH2 0x566 JUMP JUMPDEST SWAP2 POP PUSH2 0x671 DUP3 PUSH2 0x632 JUMP JUMPDEST PUSH1 0x20 DUP3 ADD SWAP1 POP SWAP2 SWAP1 POP JUMP JUMPDEST PUSH0 PUSH1 0x20 DUP3 ADD SWAP1 POP DUP2 DUP2 SUB PUSH0 DUP4 ADD MSTORE PUSH2 0x693 DUP2 PUSH2 0x65A JUMP JUMPDEST SWAP1 POP SWAP2 SWAP1 POP JUMP JUMPDEST PUSH32 0x62616C616E6365206166746572203C206265666F726500000000000000000000 PUSH0 DUP3 ADD MSTORE POP JUMP JUMPDEST PUSH0 PUSH2 0x6CE PUSH1 0x16 DUP4 PUSH2 0x566 JUMP JUMPDEST SWAP2 POP PUSH2 0x6D9 DUP3 PUSH2 0x69A JUMP JUMPDEST PUSH1 0x20 DUP3 ADD SWAP1 POP SWAP2 SWAP1 POP JUMP JUMPDEST PUSH0 PUSH1 0x20 DUP3 ADD SWAP1 POP DUP2 DUP2 SUB PUSH0 DUP4 ADD MSTORE PUSH2 0x6FB DUP2 PUSH2 0x6C2 JUMP JUMPDEST SWAP1 POP SWAP2 SWAP1 POP JUMP JUMPDEST PUSH32 0x4E487B7100000000000000000000000000000000000000000000000000000000 PUSH0 MSTORE PUSH1 0x11 PUSH1 0x4 MSTORE PUSH1 0x24 PUSH0 REVERT JUMPDEST PUSH0 PUSH2 0x739 DUP3 PUSH2 0x40E JUMP JUMPDEST SWAP2 POP PUSH2 0x744 DUP4 PUSH2 0x40E JUMP JUMPDEST SWAP3 POP DUP3 DUP3 SUB SWAP1 POP DUP2 DUP2 GT ISZERO PUSH2 0x75C JUMPI PUSH2 0x75B PUSH2 0x702 JUMP JUMPDEST JUMPDEST SWAP3 SWAP2 POP POP JUMP JUMPDEST POP JUMP JUMPDEST PUSH0 PUSH2 0x770 PUSH0 DUP4 PUSH2 0x5DE JUMP JUMPDEST SWAP2 POP PUSH2 0x77B DUP3 PUSH2 0x762 JUMP JUMPDEST PUSH0 DUP3 ADD SWAP1 POP SWAP2 SWAP1 POP JUMP JUMPDEST PUSH0 PUSH2 0x78F DUP3 PUSH2 0x765 JUMP JUMPDEST SWAP2 POP DUP2 SWAP1 POP SWAP2 SWAP1 POP JUMP JUMPDEST PUSH32 0x73656E6420455448206661696C65640000000000000000000000000000000000 PUSH0 DUP3 ADD MSTORE POP JUMP JUMPDEST PUSH0 PUSH2 0x7CD PUSH1 0xF DUP4 PUSH2 0x566 JUMP JUMPDEST SWAP2 POP PUSH2 0x7D8 DUP3 PUSH2 0x799 JUMP JUMPDEST PUSH1 0x20 DUP3 ADD SWAP1 POP SWAP2 SWAP1 POP JUMP JUMPDEST PUSH0 PUSH1 0x20 DUP3 ADD SWAP1 POP DUP2 DUP2 SUB PUSH0 DUP4 ADD MSTORE PUSH2 0x7FA DUP2 PUSH2 0x7C1 JUMP JUMPDEST SWAP1 POP SWAP2 SWAP1 POP JUMP JUMPDEST PUSH0 PUSH2 0x80B DUP3 PUSH2 0x40E JUMP JUMPDEST SWAP2 POP PUSH2 0x816 DUP4 PUSH2 0x40E JUMP JUMPDEST SWAP3 POP DUP3 DUP3 ADD SWAP1 POP DUP1 DUP3 GT ISZERO PUSH2 0x82E JUMPI PUSH2 0x82D PUSH2 0x702 JUMP JUMPDEST JUMPDEST SWAP3 SWAP2 POP POP JUMP INVALID LOG2 PUSH5 0x6970667358 0x22 SLT KECCAK256 PUSH10 0x16F77778EB92DE203400 DUP5 CALLCODE SWAP3 LOG3 PUSH9 0x54DD1A870E5287E258 RETURNDATASIZE 0xBE PUSH27 0x686244EB64736F6C63430008160033000000000000000000000000 "
				},
				"gasEstimates": {
					"creation": {
						"codeDepositCost": "430800",
						"executionCost": "466",
						"totalCost": "431266"
					},
					"external": {
						"balances(address)": "2779",
						"deposit()": "infinite",
						"flashLoan(uint256,address,bytes)": "infinite",
						"withdraw(uint256)": "infinite"
					}
				},
				"methodIdentifiers": {
					"balances(address)": "27e235e3",
					"deposit()": "d0e30db0",
					"flashLoan(uint256,address,bytes)": "2bd94e9c",
					"withdraw(uint256)": "2e1a7d4d"
				}
			},
			"storageLayout": {
				"storage": [
					{
						"astId": 5,
						"contract": "Modules/Security/8. ETH Flash Loan.sol:EthLendingPool",
						"label": "balances",
						"offset": 0,
						"slot": "0",
						"type": "t_mapping(t_address,t_uint256)"
					}
				],
				"types": {
					"t_address": {
						"encoding": "inplace",
						"label": "address",
						"numberOfBytes": "20"
					},
					"t_mapping(t_address,t_uint256)": {
						"encoding": "mapping",
						"key": "t_address",
						"label": "mapping(address => uint256)",
						"numberOfBytes": "32",
						"value": "t_uint256"
					},
					"t_uint256": {
						"encoding": "inplace",
						"label": "uint256",
						"numberOfBytes": "32"
					}
				}
			},
			"userdoc": {
				"kind": "user",
				"methods": {},
				"version": 1
			}
		}
	}
}