{
	"contracts/47. Access Control.sol": {
		"AccessControl": {
			"abi": [
				{
					"inputs": [],
					"stateMutability": "nonpayable",
					"type": "constructor"
				},
				{
					"anonymous": false,
					"inputs": [
						{
							"indexed": true,
							"internalType": "bytes32",
							"name": "role",
							"type": "bytes32"
						},
						{
							"indexed": true,
							"internalType": "address",
							"name": "account",
							"type": "address"
						}
					],
					"name": "GrantRole",
					"type": "event"
				},
				{
					"anonymous": false,
					"inputs": [
						{
							"indexed": true,
							"internalType": "bytes32",
							"name": "role",
							"type": "bytes32"
						},
						{
							"indexed": true,
							"internalType": "address",
							"name": "account",
							"type": "address"
						}
					],
					"name": "RevokeRole",
					"type": "event"
				},
				{
					"inputs": [],
					"name": "ADMIN",
					"outputs": [
						{
							"internalType": "bytes32",
							"name": "",
							"type": "bytes32"
						}
					],
					"stateMutability": "view",
					"type": "function"
				},
				{
					"inputs": [
						{
							"internalType": "bytes32",
							"name": "role",
							"type": "bytes32"
						},
						{
							"internalType": "address",
							"name": "account",
							"type": "address"
						}
					],
					"name": "grantRole",
					"outputs": [],
					"stateMutability": "nonpayable",
					"type": "function"
				},
				{
					"inputs": [
						{
							"internalType": "bytes32",
							"name": "role",
							"type": "bytes32"
						},
						{
							"internalType": "address",
							"name": "account",
							"type": "address"
						}
					],
					"name": "revokeRole",
					"outputs": [],
					"stateMutability": "nonpayable",
					"type": "function"
				},
				{
					"inputs": [
						{
							"internalType": "bytes32",
							"name": "",
							"type": "bytes32"
						},
						{
							"internalType": "address",
							"name": "",
							"type": "address"
						}
					],
					"name": "roles",
					"outputs": [
						{
							"internalType": "bool",
							"name": "",
							"type": "bool"
						}
					],
					"stateMutability": "view",
					"type": "function"
				}
			],
			"devdoc": {
				"kind": "dev",
				"methods": {},
				"version": 1
			},
			"evm": {
				"assembly": "    /* \"contracts/47. Access Control.sol\":58:1307  contract AccessControl {... */\n  mstore(0x40, 0x80)\n    /* \"contracts/47. Access Control.sol\":901:961  constructor() {... */\n  callvalue\n  dup1\n  iszero\n  tag_1\n  jumpi\n  0x00\n  dup1\n  revert\ntag_1:\n  pop\n    /* \"contracts/47. Access Control.sol\":925:954  _grantRole(ADMIN, msg.sender) */\n  tag_4\n    /* \"contracts/47. Access Control.sol\":469:494  abi.encodePacked(\"ADMIN\") */\n  add(0x20, mload(0x40))\n  tag_5\n  swap1\n  tag_6\n  jump\t// in\ntag_5:\n  mload(0x40)\n  0x20\n  dup2\n  dup4\n  sub\n  sub\n  dup2\n  mstore\n  swap1\n  0x40\n  mstore\n    /* \"contracts/47. Access Control.sol\":459:495  keccak256(abi.encodePacked(\"ADMIN\")) */\n  dup1\n  mload\n  swap1\n  0x20\n  add\n  keccak256\n    /* \"contracts/47. Access Control.sol\":943:953  msg.sender */\n  caller\n    /* \"contracts/47. Access Control.sol\":925:935  _grantRole */\n  shl(0x20, tag_7)\n    /* \"contracts/47. Access Control.sol\":925:954  _grantRole(ADMIN, msg.sender) */\n  0x20\n  shr\n  jump\t// in\ntag_4:\n    /* \"contracts/47. Access Control.sol\":58:1307  contract AccessControl {... */\n  jump(tag_8)\n    /* \"contracts/47. Access Control.sol\":724:895  function _grantRole(bytes32 role, address account) internal {... */\ntag_7:\n    /* \"contracts/47. Access Control.sol\":844:848  true */\n  0x01\n    /* \"contracts/47. Access Control.sol\":821:826  roles */\n  0x00\n    /* \"contracts/47. Access Control.sol\":821:832  roles[role] */\n  dup1\n    /* \"contracts/47. Access Control.sol\":827:831  role */\n  dup5\n    /* \"contracts/47. Access Control.sol\":821:832  roles[role] */\n  dup2\n  mstore\n  0x20\n  add\n  swap1\n  dup2\n  mstore\n  0x20\n  add\n  0x00\n  keccak256\n    /* \"contracts/47. Access Control.sol\":821:841  roles[role][account] */\n  0x00\n    /* \"contracts/47. Access Control.sol\":833:840  account */\n  dup4\n    /* \"contracts/47. Access Control.sol\":821:841  roles[role][account] */\n  0xffffffffffffffffffffffffffffffffffffffff\n  and\n  0xffffffffffffffffffffffffffffffffffffffff\n  and\n  dup2\n  mstore\n  0x20\n  add\n  swap1\n  dup2\n  mstore\n  0x20\n  add\n  0x00\n  keccak256\n  0x00\n    /* \"contracts/47. Access Control.sol\":821:848  roles[role][account] = true */\n  0x0100\n  exp\n  dup2\n  sload\n  dup2\n  0xff\n  mul\n  not\n  and\n  swap1\n  dup4\n  iszero\n  iszero\n  mul\n  or\n  swap1\n  sstore\n  pop\n    /* \"contracts/47. Access Control.sol\":879:886  account */\n  dup1\n    /* \"contracts/47. Access Control.sol\":863:887  GrantRole(role, account) */\n  0xffffffffffffffffffffffffffffffffffffffff\n  and\n    /* \"contracts/47. Access Control.sol\":873:877  role */\n  dup3\n    /* \"contracts/47. Access Control.sol\":863:887  GrantRole(role, account) */\n  0x5a06360d65acf95e98445dc834f205063424c636e65418d928cdfabc33a95399\n  mload(0x40)\n  mload(0x40)\n  dup1\n  swap2\n  sub\n  swap1\n  log3\n    /* \"contracts/47. Access Control.sol\":724:895  function _grantRole(bytes32 role, address account) internal {... */\n  pop\n  pop\n  jump\t// out\n    /* \"#utility.yul\":7:155   */\ntag_10:\n    /* \"#utility.yul\":109:120   */\n  0x00\n    /* \"#utility.yul\":146:149   */\n  dup2\n    /* \"#utility.yul\":131:149   */\n  swap1\n  pop\n    /* \"#utility.yul\":7:155   */\n  swap3\n  swap2\n  pop\n  pop\n  jump\t// out\n    /* \"#utility.yul\":161:316   */\ntag_11:\n    /* \"#utility.yul\":301:308   */\n  0x41444d494e000000000000000000000000000000000000000000000000000000\n    /* \"#utility.yul\":297:298   */\n  0x00\n    /* \"#utility.yul\":289:295   */\n  dup3\n    /* \"#utility.yul\":285:299   */\n  add\n    /* \"#utility.yul\":278:309   */\n  mstore\n    /* \"#utility.yul\":161:316   */\n  pop\n  jump\t// out\n    /* \"#utility.yul\":322:722   */\ntag_12:\n    /* \"#utility.yul\":482:485   */\n  0x00\n    /* \"#utility.yul\":503:587   */\n  tag_17\n    /* \"#utility.yul\":585:586   */\n  0x05\n    /* \"#utility.yul\":580:583   */\n  dup4\n    /* \"#utility.yul\":503:587   */\n  tag_10\n  jump\t// in\ntag_17:\n    /* \"#utility.yul\":496:587   */\n  swap2\n  pop\n    /* \"#utility.yul\":596:689   */\n  tag_18\n    /* \"#utility.yul\":685:688   */\n  dup3\n    /* \"#utility.yul\":596:689   */\n  tag_11\n  jump\t// in\ntag_18:\n    /* \"#utility.yul\":714:715   */\n  0x05\n    /* \"#utility.yul\":709:712   */\n  dup3\n    /* \"#utility.yul\":705:716   */\n  add\n    /* \"#utility.yul\":698:716   */\n  swap1\n  pop\n    /* \"#utility.yul\":322:722   */\n  swap2\n  swap1\n  pop\n  jump\t// out\n    /* \"#utility.yul\":728:1109   */\ntag_6:\n    /* \"#utility.yul\":913:916   */\n  0x00\n    /* \"#utility.yul\":935:1083   */\n  tag_20\n    /* \"#utility.yul\":1079:1082   */\n  dup3\n    /* \"#utility.yul\":935:1083   */\n  tag_12\n  jump\t// in\ntag_20:\n    /* \"#utility.yul\":928:1083   */\n  swap2\n  pop\n    /* \"#utility.yul\":1100:1103   */\n  dup2\n    /* \"#utility.yul\":1093:1103   */\n  swap1\n  pop\n    /* \"#utility.yul\":728:1109   */\n  swap2\n  swap1\n  pop\n  jump\t// out\n    /* \"contracts/47. Access Control.sol\":58:1307  contract AccessControl {... */\ntag_8:\n  dataSize(sub_0)\n  dup1\n  dataOffset(sub_0)\n  0x00\n  codecopy\n  0x00\n  return\nstop\n\nsub_0: assembly {\n        /* \"contracts/47. Access Control.sol\":58:1307  contract AccessControl {... */\n      mstore(0x40, 0x80)\n      callvalue\n      dup1\n      iszero\n      tag_1\n      jumpi\n      0x00\n      dup1\n      revert\n    tag_1:\n      pop\n      jumpi(tag_2, lt(calldatasize, 0x04))\n      shr(0xe0, calldataload(0x00))\n      dup1\n      0x2a0acc6a\n      eq\n      tag_3\n      jumpi\n      dup1\n      0x2f2ff15d\n      eq\n      tag_4\n      jumpi\n      dup1\n      0xd547741f\n      eq\n      tag_5\n      jumpi\n      dup1\n      0xf8fc08b9\n      eq\n      tag_6\n      jumpi\n    tag_2:\n      0x00\n      dup1\n      revert\n        /* \"contracts/47. Access Control.sol\":427:495  bytes32 public constant ADMIN = keccak256(abi.encodePacked(\"ADMIN\")) */\n    tag_3:\n      tag_7\n      tag_8\n      jump\t// in\n    tag_7:\n      mload(0x40)\n      tag_9\n      swap2\n      swap1\n      tag_10\n      jump\t// in\n    tag_9:\n      mload(0x40)\n      dup1\n      swap2\n      sub\n      swap1\n      return\n        /* \"contracts/47. Access Control.sol\":967:1111  function grantRole(bytes32 role, address account) external onlyRole(ADMIN) {... */\n    tag_4:\n      tag_11\n      0x04\n      dup1\n      calldatasize\n      sub\n      dup2\n      add\n      swap1\n      tag_12\n      swap2\n      swap1\n      tag_13\n      jump\t// in\n    tag_12:\n      tag_14\n      jump\t// in\n    tag_11:\n      stop\n        /* \"contracts/47. Access Control.sol\":1117:1305  function revokeRole(bytes32 role, address account) external onlyRole(ADMIN) {... */\n    tag_5:\n      tag_15\n      0x04\n      dup1\n      calldatasize\n      sub\n      dup2\n      add\n      swap1\n      tag_16\n      swap2\n      swap1\n      tag_13\n      jump\t// in\n    tag_16:\n      tag_17\n      jump\t// in\n    tag_15:\n      stop\n        /* \"contracts/47. Access Control.sol\":281:338  mapping(bytes32 => mapping(address => bool)) public roles */\n    tag_6:\n      tag_18\n      0x04\n      dup1\n      calldatasize\n      sub\n      dup2\n      add\n      swap1\n      tag_19\n      swap2\n      swap1\n      tag_13\n      jump\t// in\n    tag_19:\n      tag_20\n      jump\t// in\n    tag_18:\n      mload(0x40)\n      tag_21\n      swap2\n      swap1\n      tag_22\n      jump\t// in\n    tag_21:\n      mload(0x40)\n      dup1\n      swap2\n      sub\n      swap1\n      return\n        /* \"contracts/47. Access Control.sol\":427:495  bytes32 public constant ADMIN = keccak256(abi.encodePacked(\"ADMIN\")) */\n    tag_8:\n        /* \"contracts/47. Access Control.sol\":469:494  abi.encodePacked(\"ADMIN\") */\n      add(0x20, mload(0x40))\n      tag_23\n      swap1\n      tag_24\n      jump\t// in\n    tag_23:\n      mload(0x40)\n      0x20\n      dup2\n      dup4\n      sub\n      sub\n      dup2\n      mstore\n      swap1\n      0x40\n      mstore\n        /* \"contracts/47. Access Control.sol\":459:495  keccak256(abi.encodePacked(\"ADMIN\")) */\n      dup1\n      mload\n      swap1\n      0x20\n      add\n      keccak256\n        /* \"contracts/47. Access Control.sol\":427:495  bytes32 public constant ADMIN = keccak256(abi.encodePacked(\"ADMIN\")) */\n      dup2\n      jump\t// out\n        /* \"contracts/47. Access Control.sol\":967:1111  function grantRole(bytes32 role, address account) external onlyRole(ADMIN) {... */\n    tag_14:\n        /* \"contracts/47. Access Control.sol\":469:494  abi.encodePacked(\"ADMIN\") */\n      add(0x20, mload(0x40))\n      tag_25\n      swap1\n      tag_24\n      jump\t// in\n    tag_25:\n      mload(0x40)\n      0x20\n      dup2\n      dup4\n      sub\n      sub\n      dup2\n      mstore\n      swap1\n      0x40\n      mstore\n        /* \"contracts/47. Access Control.sol\":459:495  keccak256(abi.encodePacked(\"ADMIN\")) */\n      dup1\n      mload\n      swap1\n      0x20\n      add\n      keccak256\n        /* \"contracts/47. Access Control.sol\":658:663  roles */\n      0x00\n        /* \"contracts/47. Access Control.sol\":658:669  roles[role] */\n      dup1\n        /* \"contracts/47. Access Control.sol\":664:668  role */\n      dup3\n        /* \"contracts/47. Access Control.sol\":658:669  roles[role] */\n      dup2\n      mstore\n      0x20\n      add\n      swap1\n      dup2\n      mstore\n      0x20\n      add\n      0x00\n      keccak256\n        /* \"contracts/47. Access Control.sol\":658:681  roles[role][msg.sender] */\n      0x00\n        /* \"contracts/47. Access Control.sol\":670:680  msg.sender */\n      caller\n        /* \"contracts/47. Access Control.sol\":658:681  roles[role][msg.sender] */\n      0xffffffffffffffffffffffffffffffffffffffff\n      and\n      0xffffffffffffffffffffffffffffffffffffffff\n      and\n      dup2\n      mstore\n      0x20\n      add\n      swap1\n      dup2\n      mstore\n      0x20\n      add\n      0x00\n      keccak256\n      0x00\n      swap1\n      sload\n      swap1\n      0x0100\n      exp\n      swap1\n      div\n      0xff\n      and\n        /* \"contracts/47. Access Control.sol\":650:700  require(roles[role][msg.sender], \"not authorized\") */\n      tag_27\n      jumpi\n      mload(0x40)\n      0x08c379a000000000000000000000000000000000000000000000000000000000\n      dup2\n      mstore\n      0x04\n      add\n      tag_28\n      swap1\n      tag_29\n      jump\t// in\n    tag_28:\n      mload(0x40)\n      dup1\n      swap2\n      sub\n      swap1\n      revert\n    tag_27:\n        /* \"contracts/47. Access Control.sol\":1079:1104  _grantRole(role, account) */\n      tag_31\n        /* \"contracts/47. Access Control.sol\":1090:1094  role */\n      dup4\n        /* \"contracts/47. Access Control.sol\":1096:1103  account */\n      dup4\n        /* \"contracts/47. Access Control.sol\":1079:1089  _grantRole */\n      tag_32\n        /* \"contracts/47. Access Control.sol\":1079:1104  _grantRole(role, account) */\n      jump\t// in\n    tag_31:\n        /* \"contracts/47. Access Control.sol\":967:1111  function grantRole(bytes32 role, address account) external onlyRole(ADMIN) {... */\n      pop\n      pop\n      pop\n      jump\t// out\n        /* \"contracts/47. Access Control.sol\":1117:1305  function revokeRole(bytes32 role, address account) external onlyRole(ADMIN) {... */\n    tag_17:\n        /* \"contracts/47. Access Control.sol\":469:494  abi.encodePacked(\"ADMIN\") */\n      add(0x20, mload(0x40))\n      tag_33\n      swap1\n      tag_24\n      jump\t// in\n    tag_33:\n      mload(0x40)\n      0x20\n      dup2\n      dup4\n      sub\n      sub\n      dup2\n      mstore\n      swap1\n      0x40\n      mstore\n        /* \"contracts/47. Access Control.sol\":459:495  keccak256(abi.encodePacked(\"ADMIN\")) */\n      dup1\n      mload\n      swap1\n      0x20\n      add\n      keccak256\n        /* \"contracts/47. Access Control.sol\":658:663  roles */\n      0x00\n        /* \"contracts/47. Access Control.sol\":658:669  roles[role] */\n      dup1\n        /* \"contracts/47. Access Control.sol\":664:668  role */\n      dup3\n        /* \"contracts/47. Access Control.sol\":658:669  roles[role] */\n      dup2\n      mstore\n      0x20\n      add\n      swap1\n      dup2\n      mstore\n      0x20\n      add\n      0x00\n      keccak256\n        /* \"contracts/47. Access Control.sol\":658:681  roles[role][msg.sender] */\n      0x00\n        /* \"contracts/47. Access Control.sol\":670:680  msg.sender */\n      caller\n        /* \"contracts/47. Access Control.sol\":658:681  roles[role][msg.sender] */\n      0xffffffffffffffffffffffffffffffffffffffff\n      and\n      0xffffffffffffffffffffffffffffffffffffffff\n      and\n      dup2\n      mstore\n      0x20\n      add\n      swap1\n      dup2\n      mstore\n      0x20\n      add\n      0x00\n      keccak256\n      0x00\n      swap1\n      sload\n      swap1\n      0x0100\n      exp\n      swap1\n      div\n      0xff\n      and\n        /* \"contracts/47. Access Control.sol\":650:700  require(roles[role][msg.sender], \"not authorized\") */\n      tag_35\n      jumpi\n      mload(0x40)\n      0x08c379a000000000000000000000000000000000000000000000000000000000\n      dup2\n      mstore\n      0x04\n      add\n      tag_36\n      swap1\n      tag_29\n      jump\t// in\n    tag_36:\n      mload(0x40)\n      dup1\n      swap2\n      sub\n      swap1\n      revert\n    tag_35:\n        /* \"contracts/47. Access Control.sol\":1253:1258  false */\n      0x00\n        /* \"contracts/47. Access Control.sol\":1230:1235  roles */\n      dup1\n        /* \"contracts/47. Access Control.sol\":1230:1241  roles[role] */\n      0x00\n        /* \"contracts/47. Access Control.sol\":1236:1240  role */\n      dup6\n        /* \"contracts/47. Access Control.sol\":1230:1241  roles[role] */\n      dup2\n      mstore\n      0x20\n      add\n      swap1\n      dup2\n      mstore\n      0x20\n      add\n      0x00\n      keccak256\n        /* \"contracts/47. Access Control.sol\":1230:1250  roles[role][account] */\n      0x00\n        /* \"contracts/47. Access Control.sol\":1242:1249  account */\n      dup5\n        /* \"contracts/47. Access Control.sol\":1230:1250  roles[role][account] */\n      0xffffffffffffffffffffffffffffffffffffffff\n      and\n      0xffffffffffffffffffffffffffffffffffffffff\n      and\n      dup2\n      mstore\n      0x20\n      add\n      swap1\n      dup2\n      mstore\n      0x20\n      add\n      0x00\n      keccak256\n      0x00\n        /* \"contracts/47. Access Control.sol\":1230:1258  roles[role][account] = false */\n      0x0100\n      exp\n      dup2\n      sload\n      dup2\n      0xff\n      mul\n      not\n      and\n      swap1\n      dup4\n      iszero\n      iszero\n      mul\n      or\n      swap1\n      sstore\n      pop\n        /* \"contracts/47. Access Control.sol\":1290:1297  account */\n      dup2\n        /* \"contracts/47. Access Control.sol\":1273:1298  RevokeRole(role, account) */\n      0xffffffffffffffffffffffffffffffffffffffff\n      and\n        /* \"contracts/47. Access Control.sol\":1284:1288  role */\n      dup4\n        /* \"contracts/47. Access Control.sol\":1273:1298  RevokeRole(role, account) */\n      0x76e6093c136cd7faa5a6d92b2b633f3b4595abd4a529b7a13917398355fea694\n      mload(0x40)\n      mload(0x40)\n      dup1\n      swap2\n      sub\n      swap1\n      log3\n        /* \"contracts/47. Access Control.sol\":1117:1305  function revokeRole(bytes32 role, address account) external onlyRole(ADMIN) {... */\n      pop\n      pop\n      pop\n      jump\t// out\n        /* \"contracts/47. Access Control.sol\":281:338  mapping(bytes32 => mapping(address => bool)) public roles */\n    tag_20:\n      mstore(0x20, 0x00)\n      dup2\n      0x00\n      mstore\n      mstore(0x20, keccak256(0x00, 0x40))\n      dup1\n      0x00\n      mstore\n      keccak256(0x00, 0x40)\n      0x00\n      swap2\n      pop\n      swap2\n      pop\n      swap1\n      sload\n      swap1\n      0x0100\n      exp\n      swap1\n      div\n      0xff\n      and\n      dup2\n      jump\t// out\n        /* \"contracts/47. Access Control.sol\":724:895  function _grantRole(bytes32 role, address account) internal {... */\n    tag_32:\n        /* \"contracts/47. Access Control.sol\":844:848  true */\n      0x01\n        /* \"contracts/47. Access Control.sol\":821:826  roles */\n      0x00\n        /* \"contracts/47. Access Control.sol\":821:832  roles[role] */\n      dup1\n        /* \"contracts/47. Access Control.sol\":827:831  role */\n      dup5\n        /* \"contracts/47. Access Control.sol\":821:832  roles[role] */\n      dup2\n      mstore\n      0x20\n      add\n      swap1\n      dup2\n      mstore\n      0x20\n      add\n      0x00\n      keccak256\n        /* \"contracts/47. Access Control.sol\":821:841  roles[role][account] */\n      0x00\n        /* \"contracts/47. Access Control.sol\":833:840  account */\n      dup4\n        /* \"contracts/47. Access Control.sol\":821:841  roles[role][account] */\n      0xffffffffffffffffffffffffffffffffffffffff\n      and\n      0xffffffffffffffffffffffffffffffffffffffff\n      and\n      dup2\n      mstore\n      0x20\n      add\n      swap1\n      dup2\n      mstore\n      0x20\n      add\n      0x00\n      keccak256\n      0x00\n        /* \"contracts/47. Access Control.sol\":821:848  roles[role][account] = true */\n      0x0100\n      exp\n      dup2\n      sload\n      dup2\n      0xff\n      mul\n      not\n      and\n      swap1\n      dup4\n      iszero\n      iszero\n      mul\n      or\n      swap1\n      sstore\n      pop\n        /* \"contracts/47. Access Control.sol\":879:886  account */\n      dup1\n        /* \"contracts/47. Access Control.sol\":863:887  GrantRole(role, account) */\n      0xffffffffffffffffffffffffffffffffffffffff\n      and\n        /* \"contracts/47. Access Control.sol\":873:877  role */\n      dup3\n        /* \"contracts/47. Access Control.sol\":863:887  GrantRole(role, account) */\n      0x5a06360d65acf95e98445dc834f205063424c636e65418d928cdfabc33a95399\n      mload(0x40)\n      mload(0x40)\n      dup1\n      swap2\n      sub\n      swap1\n      log3\n        /* \"contracts/47. Access Control.sol\":724:895  function _grantRole(bytes32 role, address account) internal {... */\n      pop\n      pop\n      jump\t// out\n        /* \"#utility.yul\":7:84   */\n    tag_39:\n        /* \"#utility.yul\":44:51   */\n      0x00\n        /* \"#utility.yul\":73:78   */\n      dup2\n        /* \"#utility.yul\":62:78   */\n      swap1\n      pop\n        /* \"#utility.yul\":7:84   */\n      swap2\n      swap1\n      pop\n      jump\t// out\n        /* \"#utility.yul\":90:208   */\n    tag_40:\n        /* \"#utility.yul\":177:201   */\n      tag_61\n        /* \"#utility.yul\":195:200   */\n      dup2\n        /* \"#utility.yul\":177:201   */\n      tag_39\n      jump\t// in\n    tag_61:\n        /* \"#utility.yul\":172:175   */\n      dup3\n        /* \"#utility.yul\":165:202   */\n      mstore\n        /* \"#utility.yul\":90:208   */\n      pop\n      pop\n      jump\t// out\n        /* \"#utility.yul\":214:436   */\n    tag_10:\n        /* \"#utility.yul\":307:311   */\n      0x00\n        /* \"#utility.yul\":345:347   */\n      0x20\n        /* \"#utility.yul\":334:343   */\n      dup3\n        /* \"#utility.yul\":330:348   */\n      add\n        /* \"#utility.yul\":322:348   */\n      swap1\n      pop\n        /* \"#utility.yul\":358:429   */\n      tag_63\n        /* \"#utility.yul\":426:427   */\n      0x00\n        /* \"#utility.yul\":415:424   */\n      dup4\n        /* \"#utility.yul\":411:428   */\n      add\n        /* \"#utility.yul\":402:408   */\n      dup5\n        /* \"#utility.yul\":358:429   */\n      tag_40\n      jump\t// in\n    tag_63:\n        /* \"#utility.yul\":214:436   */\n      swap3\n      swap2\n      pop\n      pop\n      jump\t// out\n        /* \"#utility.yul\":523:640   */\n    tag_42:\n        /* \"#utility.yul\":632:633   */\n      0x00\n        /* \"#utility.yul\":629:630   */\n      dup1\n        /* \"#utility.yul\":622:634   */\n      revert\n        /* \"#utility.yul\":769:891   */\n    tag_44:\n        /* \"#utility.yul\":842:866   */\n      tag_68\n        /* \"#utility.yul\":860:865   */\n      dup2\n        /* \"#utility.yul\":842:866   */\n      tag_39\n      jump\t// in\n    tag_68:\n        /* \"#utility.yul\":835:840   */\n      dup2\n        /* \"#utility.yul\":832:867   */\n      eq\n        /* \"#utility.yul\":822:885   */\n      tag_69\n      jumpi\n        /* \"#utility.yul\":881:882   */\n      0x00\n        /* \"#utility.yul\":878:879   */\n      dup1\n        /* \"#utility.yul\":871:883   */\n      revert\n        /* \"#utility.yul\":822:885   */\n    tag_69:\n        /* \"#utility.yul\":769:891   */\n      pop\n      jump\t// out\n        /* \"#utility.yul\":897:1036   */\n    tag_45:\n        /* \"#utility.yul\":943:948   */\n      0x00\n        /* \"#utility.yul\":981:987   */\n      dup2\n        /* \"#utility.yul\":968:988   */\n      calldataload\n        /* \"#utility.yul\":959:988   */\n      swap1\n      pop\n        /* \"#utility.yul\":997:1030   */\n      tag_71\n        /* \"#utility.yul\":1024:1029   */\n      dup2\n        /* \"#utility.yul\":997:1030   */\n      tag_44\n      jump\t// in\n    tag_71:\n        /* \"#utility.yul\":897:1036   */\n      swap3\n      swap2\n      pop\n      pop\n      jump\t// out\n        /* \"#utility.yul\":1042:1168   */\n    tag_46:\n        /* \"#utility.yul\":1079:1086   */\n      0x00\n        /* \"#utility.yul\":1119:1161   */\n      0xffffffffffffffffffffffffffffffffffffffff\n        /* \"#utility.yul\":1112:1117   */\n      dup3\n        /* \"#utility.yul\":1108:1162   */\n      and\n        /* \"#utility.yul\":1097:1162   */\n      swap1\n      pop\n        /* \"#utility.yul\":1042:1168   */\n      swap2\n      swap1\n      pop\n      jump\t// out\n        /* \"#utility.yul\":1174:1270   */\n    tag_47:\n        /* \"#utility.yul\":1211:1218   */\n      0x00\n        /* \"#utility.yul\":1240:1264   */\n      tag_74\n        /* \"#utility.yul\":1258:1263   */\n      dup3\n        /* \"#utility.yul\":1240:1264   */\n      tag_46\n      jump\t// in\n    tag_74:\n        /* \"#utility.yul\":1229:1264   */\n      swap1\n      pop\n        /* \"#utility.yul\":1174:1270   */\n      swap2\n      swap1\n      pop\n      jump\t// out\n        /* \"#utility.yul\":1276:1398   */\n    tag_48:\n        /* \"#utility.yul\":1349:1373   */\n      tag_76\n        /* \"#utility.yul\":1367:1372   */\n      dup2\n        /* \"#utility.yul\":1349:1373   */\n      tag_47\n      jump\t// in\n    tag_76:\n        /* \"#utility.yul\":1342:1347   */\n      dup2\n        /* \"#utility.yul\":1339:1374   */\n      eq\n        /* \"#utility.yul\":1329:1392   */\n      tag_77\n      jumpi\n        /* \"#utility.yul\":1388:1389   */\n      0x00\n        /* \"#utility.yul\":1385:1386   */\n      dup1\n        /* \"#utility.yul\":1378:1390   */\n      revert\n        /* \"#utility.yul\":1329:1392   */\n    tag_77:\n        /* \"#utility.yul\":1276:1398   */\n      pop\n      jump\t// out\n        /* \"#utility.yul\":1404:1543   */\n    tag_49:\n        /* \"#utility.yul\":1450:1455   */\n      0x00\n        /* \"#utility.yul\":1488:1494   */\n      dup2\n        /* \"#utility.yul\":1475:1495   */\n      calldataload\n        /* \"#utility.yul\":1466:1495   */\n      swap1\n      pop\n        /* \"#utility.yul\":1504:1537   */\n      tag_79\n        /* \"#utility.yul\":1531:1536   */\n      dup2\n        /* \"#utility.yul\":1504:1537   */\n      tag_48\n      jump\t// in\n    tag_79:\n        /* \"#utility.yul\":1404:1543   */\n      swap3\n      swap2\n      pop\n      pop\n      jump\t// out\n        /* \"#utility.yul\":1549:2023   */\n    tag_13:\n        /* \"#utility.yul\":1617:1623   */\n      0x00\n        /* \"#utility.yul\":1625:1631   */\n      dup1\n        /* \"#utility.yul\":1674:1676   */\n      0x40\n        /* \"#utility.yul\":1662:1671   */\n      dup4\n        /* \"#utility.yul\":1653:1660   */\n      dup6\n        /* \"#utility.yul\":1649:1672   */\n      sub\n        /* \"#utility.yul\":1645:1677   */\n      slt\n        /* \"#utility.yul\":1642:1761   */\n      iszero\n      tag_81\n      jumpi\n        /* \"#utility.yul\":1680:1759   */\n      tag_82\n      tag_42\n      jump\t// in\n    tag_82:\n        /* \"#utility.yul\":1642:1761   */\n    tag_81:\n        /* \"#utility.yul\":1800:1801   */\n      0x00\n        /* \"#utility.yul\":1825:1878   */\n      tag_83\n        /* \"#utility.yul\":1870:1877   */\n      dup6\n        /* \"#utility.yul\":1861:1867   */\n      dup3\n        /* \"#utility.yul\":1850:1859   */\n      dup7\n        /* \"#utility.yul\":1846:1868   */\n      add\n        /* \"#utility.yul\":1825:1878   */\n      tag_45\n      jump\t// in\n    tag_83:\n        /* \"#utility.yul\":1815:1878   */\n      swap3\n      pop\n        /* \"#utility.yul\":1771:1888   */\n      pop\n        /* \"#utility.yul\":1927:1929   */\n      0x20\n        /* \"#utility.yul\":1953:2006   */\n      tag_84\n        /* \"#utility.yul\":1998:2005   */\n      dup6\n        /* \"#utility.yul\":1989:1995   */\n      dup3\n        /* \"#utility.yul\":1978:1987   */\n      dup7\n        /* \"#utility.yul\":1974:1996   */\n      add\n        /* \"#utility.yul\":1953:2006   */\n      tag_49\n      jump\t// in\n    tag_84:\n        /* \"#utility.yul\":1943:2006   */\n      swap2\n      pop\n        /* \"#utility.yul\":1898:2016   */\n      pop\n        /* \"#utility.yul\":1549:2023   */\n      swap3\n      pop\n      swap3\n      swap1\n      pop\n      jump\t// out\n        /* \"#utility.yul\":2029:2119   */\n    tag_50:\n        /* \"#utility.yul\":2063:2070   */\n      0x00\n        /* \"#utility.yul\":2106:2111   */\n      dup2\n        /* \"#utility.yul\":2099:2112   */\n      iszero\n        /* \"#utility.yul\":2092:2113   */\n      iszero\n        /* \"#utility.yul\":2081:2113   */\n      swap1\n      pop\n        /* \"#utility.yul\":2029:2119   */\n      swap2\n      swap1\n      pop\n      jump\t// out\n        /* \"#utility.yul\":2125:2234   */\n    tag_51:\n        /* \"#utility.yul\":2206:2227   */\n      tag_87\n        /* \"#utility.yul\":2221:2226   */\n      dup2\n        /* \"#utility.yul\":2206:2227   */\n      tag_50\n      jump\t// in\n    tag_87:\n        /* \"#utility.yul\":2201:2204   */\n      dup3\n        /* \"#utility.yul\":2194:2228   */\n      mstore\n        /* \"#utility.yul\":2125:2234   */\n      pop\n      pop\n      jump\t// out\n        /* \"#utility.yul\":2240:2450   */\n    tag_22:\n        /* \"#utility.yul\":2327:2331   */\n      0x00\n        /* \"#utility.yul\":2365:2367   */\n      0x20\n        /* \"#utility.yul\":2354:2363   */\n      dup3\n        /* \"#utility.yul\":2350:2368   */\n      add\n        /* \"#utility.yul\":2342:2368   */\n      swap1\n      pop\n        /* \"#utility.yul\":2378:2443   */\n      tag_89\n        /* \"#utility.yul\":2440:2441   */\n      0x00\n        /* \"#utility.yul\":2429:2438   */\n      dup4\n        /* \"#utility.yul\":2425:2442   */\n      add\n        /* \"#utility.yul\":2416:2422   */\n      dup5\n        /* \"#utility.yul\":2378:2443   */\n      tag_51\n      jump\t// in\n    tag_89:\n        /* \"#utility.yul\":2240:2450   */\n      swap3\n      swap2\n      pop\n      pop\n      jump\t// out\n        /* \"#utility.yul\":2456:2604   */\n    tag_52:\n        /* \"#utility.yul\":2558:2569   */\n      0x00\n        /* \"#utility.yul\":2595:2598   */\n      dup2\n        /* \"#utility.yul\":2580:2598   */\n      swap1\n      pop\n        /* \"#utility.yul\":2456:2604   */\n      swap3\n      swap2\n      pop\n      pop\n      jump\t// out\n        /* \"#utility.yul\":2610:2765   */\n    tag_53:\n        /* \"#utility.yul\":2750:2757   */\n      0x41444d494e000000000000000000000000000000000000000000000000000000\n        /* \"#utility.yul\":2746:2747   */\n      0x00\n        /* \"#utility.yul\":2738:2744   */\n      dup3\n        /* \"#utility.yul\":2734:2748   */\n      add\n        /* \"#utility.yul\":2727:2758   */\n      mstore\n        /* \"#utility.yul\":2610:2765   */\n      pop\n      jump\t// out\n        /* \"#utility.yul\":2771:3171   */\n    tag_54:\n        /* \"#utility.yul\":2931:2934   */\n      0x00\n        /* \"#utility.yul\":2952:3036   */\n      tag_93\n        /* \"#utility.yul\":3034:3035   */\n      0x05\n        /* \"#utility.yul\":3029:3032   */\n      dup4\n        /* \"#utility.yul\":2952:3036   */\n      tag_52\n      jump\t// in\n    tag_93:\n        /* \"#utility.yul\":2945:3036   */\n      swap2\n      pop\n        /* \"#utility.yul\":3045:3138   */\n      tag_94\n        /* \"#utility.yul\":3134:3137   */\n      dup3\n        /* \"#utility.yul\":3045:3138   */\n      tag_53\n      jump\t// in\n    tag_94:\n        /* \"#utility.yul\":3163:3164   */\n      0x05\n        /* \"#utility.yul\":3158:3161   */\n      dup3\n        /* \"#utility.yul\":3154:3165   */\n      add\n        /* \"#utility.yul\":3147:3165   */\n      swap1\n      pop\n        /* \"#utility.yul\":2771:3171   */\n      swap2\n      swap1\n      pop\n      jump\t// out\n        /* \"#utility.yul\":3177:3558   */\n    tag_24:\n        /* \"#utility.yul\":3362:3365   */\n      0x00\n        /* \"#utility.yul\":3384:3532   */\n      tag_96\n        /* \"#utility.yul\":3528:3531   */\n      dup3\n        /* \"#utility.yul\":3384:3532   */\n      tag_54\n      jump\t// in\n    tag_96:\n        /* \"#utility.yul\":3377:3532   */\n      swap2\n      pop\n        /* \"#utility.yul\":3549:3552   */\n      dup2\n        /* \"#utility.yul\":3542:3552   */\n      swap1\n      pop\n        /* \"#utility.yul\":3177:3558   */\n      swap2\n      swap1\n      pop\n      jump\t// out\n        /* \"#utility.yul\":3564:3733   */\n    tag_55:\n        /* \"#utility.yul\":3648:3659   */\n      0x00\n        /* \"#utility.yul\":3682:3688   */\n      dup3\n        /* \"#utility.yul\":3677:3680   */\n      dup3\n        /* \"#utility.yul\":3670:3689   */\n      mstore\n        /* \"#utility.yul\":3722:3726   */\n      0x20\n        /* \"#utility.yul\":3717:3720   */\n      dup3\n        /* \"#utility.yul\":3713:3727   */\n      add\n        /* \"#utility.yul\":3698:3727   */\n      swap1\n      pop\n        /* \"#utility.yul\":3564:3733   */\n      swap3\n      swap2\n      pop\n      pop\n      jump\t// out\n        /* \"#utility.yul\":3739:3903   */\n    tag_56:\n        /* \"#utility.yul\":3879:3895   */\n      0x6e6f7420617574686f72697a6564000000000000000000000000000000000000\n        /* \"#utility.yul\":3875:3876   */\n      0x00\n        /* \"#utility.yul\":3867:3873   */\n      dup3\n        /* \"#utility.yul\":3863:3877   */\n      add\n        /* \"#utility.yul\":3856:3896   */\n      mstore\n        /* \"#utility.yul\":3739:3903   */\n      pop\n      jump\t// out\n        /* \"#utility.yul\":3909:4275   */\n    tag_57:\n        /* \"#utility.yul\":4051:4054   */\n      0x00\n        /* \"#utility.yul\":4072:4139   */\n      tag_100\n        /* \"#utility.yul\":4136:4138   */\n      0x0e\n        /* \"#utility.yul\":4131:4134   */\n      dup4\n        /* \"#utility.yul\":4072:4139   */\n      tag_55\n      jump\t// in\n    tag_100:\n        /* \"#utility.yul\":4065:4139   */\n      swap2\n      pop\n        /* \"#utility.yul\":4148:4241   */\n      tag_101\n        /* \"#utility.yul\":4237:4240   */\n      dup3\n        /* \"#utility.yul\":4148:4241   */\n      tag_56\n      jump\t// in\n    tag_101:\n        /* \"#utility.yul\":4266:4268   */\n      0x20\n        /* \"#utility.yul\":4261:4264   */\n      dup3\n        /* \"#utility.yul\":4257:4269   */\n      add\n        /* \"#utility.yul\":4250:4269   */\n      swap1\n      pop\n        /* \"#utility.yul\":3909:4275   */\n      swap2\n      swap1\n      pop\n      jump\t// out\n        /* \"#utility.yul\":4281:4700   */\n    tag_29:\n        /* \"#utility.yul\":4447:4451   */\n      0x00\n        /* \"#utility.yul\":4485:4487   */\n      0x20\n        /* \"#utility.yul\":4474:4483   */\n      dup3\n        /* \"#utility.yul\":4470:4488   */\n      add\n        /* \"#utility.yul\":4462:4488   */\n      swap1\n      pop\n        /* \"#utility.yul\":4534:4543   */\n      dup2\n        /* \"#utility.yul\":4528:4532   */\n      dup2\n        /* \"#utility.yul\":4524:4544   */\n      sub\n        /* \"#utility.yul\":4520:4521   */\n      0x00\n        /* \"#utility.yul\":4509:4518   */\n      dup4\n        /* \"#utility.yul\":4505:4522   */\n      add\n        /* \"#utility.yul\":4498:4545   */\n      mstore\n        /* \"#utility.yul\":4562:4693   */\n      tag_103\n        /* \"#utility.yul\":4688:4692   */\n      dup2\n        /* \"#utility.yul\":4562:4693   */\n      tag_57\n      jump\t// in\n    tag_103:\n        /* \"#utility.yul\":4554:4693   */\n      swap1\n      pop\n        /* \"#utility.yul\":4281:4700   */\n      swap2\n      swap1\n      pop\n      jump\t// out\n\n    auxdata: 0xa26469706673582212209303550075887595f28938a2888c35e01f24b20ec84d1019464d9ba2da10ad7f64736f6c63430008160033\n}\n",
				"bytecode": {
					"linkReferences": {},
					"object": "608060405234801561000f575f80fd5b5061004460405160200161002290610148565b604051602081830303815290604052805190602001203361004960201b60201c565b61015c565b60015f808481526020019081526020015f205f8373ffffffffffffffffffffffffffffffffffffffff1673ffffffffffffffffffffffffffffffffffffffff1681526020019081526020015f205f6101000a81548160ff0219169083151502179055508073ffffffffffffffffffffffffffffffffffffffff16827f5a06360d65acf95e98445dc834f205063424c636e65418d928cdfabc33a9539960405160405180910390a35050565b5f81905092915050565b7f41444d494e0000000000000000000000000000000000000000000000000000005f82015250565b5f6101326005836100f4565b915061013d826100fe565b600582019050919050565b5f61015282610126565b9150819050919050565b610642806101695f395ff3fe608060405234801561000f575f80fd5b506004361061004a575f3560e01c80632a0acc6a1461004e5780632f2ff15d1461006c578063d547741f14610088578063f8fc08b9146100a4575b5f80fd5b6100566100d4565b604051610063919061041a565b60405180910390f35b610086600480360381019061008191906104bb565b6100fc565b005b6100a2600480360381019061009d91906104bb565b6101c7565b005b6100be60048036038101906100b991906104bb565b61032e565b6040516100cb9190610513565b60405180910390f35b6040516020016100e390610580565b6040516020818303038152906040528051906020012081565b60405160200161010b90610580565b604051602081830303815290604052805190602001205f808281526020019081526020015f205f3373ffffffffffffffffffffffffffffffffffffffff1673ffffffffffffffffffffffffffffffffffffffff1681526020019081526020015f205f9054906101000a900460ff166101b8576040517f08c379a00000000000000000000000000000000000000000000000000000000081526004016101af906105ee565b60405180910390fd5b6101c28383610357565b505050565b6040516020016101d690610580565b604051602081830303815290604052805190602001205f808281526020019081526020015f205f3373ffffffffffffffffffffffffffffffffffffffff1673ffffffffffffffffffffffffffffffffffffffff1681526020019081526020015f205f9054906101000a900460ff16610283576040517f08c379a000000000000000000000000000000000000000000000000000000000815260040161027a906105ee565b60405180910390fd5b5f805f8581526020019081526020015f205f8473ffffffffffffffffffffffffffffffffffffffff1673ffffffffffffffffffffffffffffffffffffffff1681526020019081526020015f205f6101000a81548160ff0219169083151502179055508173ffffffffffffffffffffffffffffffffffffffff16837f76e6093c136cd7faa5a6d92b2b633f3b4595abd4a529b7a13917398355fea69460405160405180910390a3505050565b5f602052815f5260405f20602052805f5260405f205f915091509054906101000a900460ff1681565b60015f808481526020019081526020015f205f8373ffffffffffffffffffffffffffffffffffffffff1673ffffffffffffffffffffffffffffffffffffffff1681526020019081526020015f205f6101000a81548160ff0219169083151502179055508073ffffffffffffffffffffffffffffffffffffffff16827f5a06360d65acf95e98445dc834f205063424c636e65418d928cdfabc33a9539960405160405180910390a35050565b5f819050919050565b61041481610402565b82525050565b5f60208201905061042d5f83018461040b565b92915050565b5f80fd5b61044081610402565b811461044a575f80fd5b50565b5f8135905061045b81610437565b92915050565b5f73ffffffffffffffffffffffffffffffffffffffff82169050919050565b5f61048a82610461565b9050919050565b61049a81610480565b81146104a4575f80fd5b50565b5f813590506104b581610491565b92915050565b5f80604083850312156104d1576104d0610433565b5b5f6104de8582860161044d565b92505060206104ef858286016104a7565b9150509250929050565b5f8115159050919050565b61050d816104f9565b82525050565b5f6020820190506105265f830184610504565b92915050565b5f81905092915050565b7f41444d494e0000000000000000000000000000000000000000000000000000005f82015250565b5f61056a60058361052c565b915061057582610536565b600582019050919050565b5f61058a8261055e565b9150819050919050565b5f82825260208201905092915050565b7f6e6f7420617574686f72697a65640000000000000000000000000000000000005f82015250565b5f6105d8600e83610594565b91506105e3826105a4565b602082019050919050565b5f6020820190508181035f830152610605816105cc565b905091905056fea26469706673582212209303550075887595f28938a2888c35e01f24b20ec84d1019464d9ba2da10ad7f64736f6c63430008160033",
					"opcodes": "PUSH1 0x80 PUSH1 0x40 MSTORE CALLVALUE DUP1 ISZERO PUSH2 0xF JUMPI PUSH0 DUP1 REVERT JUMPDEST POP PUSH2 0x44 PUSH1 0x40 MLOAD PUSH1 0x20 ADD PUSH2 0x22 SWAP1 PUSH2 0x148 JUMP JUMPDEST PUSH1 0x40 MLOAD PUSH1 0x20 DUP2 DUP4 SUB SUB DUP2 MSTORE SWAP1 PUSH1 0x40 MSTORE DUP1 MLOAD SWAP1 PUSH1 0x20 ADD KECCAK256 CALLER PUSH2 0x49 PUSH1 0x20 SHL PUSH1 0x20 SHR JUMP JUMPDEST PUSH2 0x15C JUMP JUMPDEST PUSH1 0x1 PUSH0 DUP1 DUP5 DUP2 MSTORE PUSH1 0x20 ADD SWAP1 DUP2 MSTORE PUSH1 0x20 ADD PUSH0 KECCAK256 PUSH0 DUP4 PUSH20 0xFFFFFFFFFFFFFFFFFFFFFFFFFFFFFFFFFFFFFFFF AND PUSH20 0xFFFFFFFFFFFFFFFFFFFFFFFFFFFFFFFFFFFFFFFF AND DUP2 MSTORE PUSH1 0x20 ADD SWAP1 DUP2 MSTORE PUSH1 0x20 ADD PUSH0 KECCAK256 PUSH0 PUSH2 0x100 EXP DUP2 SLOAD DUP2 PUSH1 0xFF MUL NOT AND SWAP1 DUP4 ISZERO ISZERO MUL OR SWAP1 SSTORE POP DUP1 PUSH20 0xFFFFFFFFFFFFFFFFFFFFFFFFFFFFFFFFFFFFFFFF AND DUP3 PUSH32 0x5A06360D65ACF95E98445DC834F205063424C636E65418D928CDFABC33A95399 PUSH1 0x40 MLOAD PUSH1 0x40 MLOAD DUP1 SWAP2 SUB SWAP1 LOG3 POP POP JUMP JUMPDEST PUSH0 DUP2 SWAP1 POP SWAP3 SWAP2 POP POP JUMP JUMPDEST PUSH32 0x41444D494E000000000000000000000000000000000000000000000000000000 PUSH0 DUP3 ADD MSTORE POP JUMP JUMPDEST PUSH0 PUSH2 0x132 PUSH1 0x5 DUP4 PUSH2 0xF4 JUMP JUMPDEST SWAP2 POP PUSH2 0x13D DUP3 PUSH2 0xFE JUMP JUMPDEST PUSH1 0x5 DUP3 ADD SWAP1 POP SWAP2 SWAP1 POP JUMP JUMPDEST PUSH0 PUSH2 0x152 DUP3 PUSH2 0x126 JUMP JUMPDEST SWAP2 POP DUP2 SWAP1 POP SWAP2 SWAP1 POP JUMP JUMPDEST PUSH2 0x642 DUP1 PUSH2 0x169 PUSH0 CODECOPY PUSH0 RETURN INVALID PUSH1 0x80 PUSH1 0x40 MSTORE CALLVALUE DUP1 ISZERO PUSH2 0xF JUMPI PUSH0 DUP1 REVERT JUMPDEST POP PUSH1 0x4 CALLDATASIZE LT PUSH2 0x4A JUMPI PUSH0 CALLDATALOAD PUSH1 0xE0 SHR DUP1 PUSH4 0x2A0ACC6A EQ PUSH2 0x4E JUMPI DUP1 PUSH4 0x2F2FF15D EQ PUSH2 0x6C JUMPI DUP1 PUSH4 0xD547741F EQ PUSH2 0x88 JUMPI DUP1 PUSH4 0xF8FC08B9 EQ PUSH2 0xA4 JUMPI JUMPDEST PUSH0 DUP1 REVERT JUMPDEST PUSH2 0x56 PUSH2 0xD4 JUMP JUMPDEST PUSH1 0x40 MLOAD PUSH2 0x63 SWAP2 SWAP1 PUSH2 0x41A JUMP JUMPDEST PUSH1 0x40 MLOAD DUP1 SWAP2 SUB SWAP1 RETURN JUMPDEST PUSH2 0x86 PUSH1 0x4 DUP1 CALLDATASIZE SUB DUP2 ADD SWAP1 PUSH2 0x81 SWAP2 SWAP1 PUSH2 0x4BB JUMP JUMPDEST PUSH2 0xFC JUMP JUMPDEST STOP JUMPDEST PUSH2 0xA2 PUSH1 0x4 DUP1 CALLDATASIZE SUB DUP2 ADD SWAP1 PUSH2 0x9D SWAP2 SWAP1 PUSH2 0x4BB JUMP JUMPDEST PUSH2 0x1C7 JUMP JUMPDEST STOP JUMPDEST PUSH2 0xBE PUSH1 0x4 DUP1 CALLDATASIZE SUB DUP2 ADD SWAP1 PUSH2 0xB9 SWAP2 SWAP1 PUSH2 0x4BB JUMP JUMPDEST PUSH2 0x32E JUMP JUMPDEST PUSH1 0x40 MLOAD PUSH2 0xCB SWAP2 SWAP1 PUSH2 0x513 JUMP JUMPDEST PUSH1 0x40 MLOAD DUP1 SWAP2 SUB SWAP1 RETURN JUMPDEST PUSH1 0x40 MLOAD PUSH1 0x20 ADD PUSH2 0xE3 SWAP1 PUSH2 0x580 JUMP JUMPDEST PUSH1 0x40 MLOAD PUSH1 0x20 DUP2 DUP4 SUB SUB DUP2 MSTORE SWAP1 PUSH1 0x40 MSTORE DUP1 MLOAD SWAP1 PUSH1 0x20 ADD KECCAK256 DUP2 JUMP JUMPDEST PUSH1 0x40 MLOAD PUSH1 0x20 ADD PUSH2 0x10B SWAP1 PUSH2 0x580 JUMP JUMPDEST PUSH1 0x40 MLOAD PUSH1 0x20 DUP2 DUP4 SUB SUB DUP2 MSTORE SWAP1 PUSH1 0x40 MSTORE DUP1 MLOAD SWAP1 PUSH1 0x20 ADD KECCAK256 PUSH0 DUP1 DUP3 DUP2 MSTORE PUSH1 0x20 ADD SWAP1 DUP2 MSTORE PUSH1 0x20 ADD PUSH0 KECCAK256 PUSH0 CALLER PUSH20 0xFFFFFFFFFFFFFFFFFFFFFFFFFFFFFFFFFFFFFFFF AND PUSH20 0xFFFFFFFFFFFFFFFFFFFFFFFFFFFFFFFFFFFFFFFF AND DUP2 MSTORE PUSH1 0x20 ADD SWAP1 DUP2 MSTORE PUSH1 0x20 ADD PUSH0 KECCAK256 PUSH0 SWAP1 SLOAD SWAP1 PUSH2 0x100 EXP SWAP1 DIV PUSH1 0xFF AND PUSH2 0x1B8 JUMPI PUSH1 0x40 MLOAD PUSH32 0x8C379A000000000000000000000000000000000000000000000000000000000 DUP2 MSTORE PUSH1 0x4 ADD PUSH2 0x1AF SWAP1 PUSH2 0x5EE JUMP JUMPDEST PUSH1 0x40 MLOAD DUP1 SWAP2 SUB SWAP1 REVERT JUMPDEST PUSH2 0x1C2 DUP4 DUP4 PUSH2 0x357 JUMP JUMPDEST POP POP POP JUMP JUMPDEST PUSH1 0x40 MLOAD PUSH1 0x20 ADD PUSH2 0x1D6 SWAP1 PUSH2 0x580 JUMP JUMPDEST PUSH1 0x40 MLOAD PUSH1 0x20 DUP2 DUP4 SUB SUB DUP2 MSTORE SWAP1 PUSH1 0x40 MSTORE DUP1 MLOAD SWAP1 PUSH1 0x20 ADD KECCAK256 PUSH0 DUP1 DUP3 DUP2 MSTORE PUSH1 0x20 ADD SWAP1 DUP2 MSTORE PUSH1 0x20 ADD PUSH0 KECCAK256 PUSH0 CALLER PUSH20 0xFFFFFFFFFFFFFFFFFFFFFFFFFFFFFFFFFFFFFFFF AND PUSH20 0xFFFFFFFFFFFFFFFFFFFFFFFFFFFFFFFFFFFFFFFF AND DUP2 MSTORE PUSH1 0x20 ADD SWAP1 DUP2 MSTORE PUSH1 0x20 ADD PUSH0 KECCAK256 PUSH0 SWAP1 SLOAD SWAP1 PUSH2 0x100 EXP SWAP1 DIV PUSH1 0xFF AND PUSH2 0x283 JUMPI PUSH1 0x40 MLOAD PUSH32 0x8C379A000000000000000000000000000000000000000000000000000000000 DUP2 MSTORE PUSH1 0x4 ADD PUSH2 0x27A SWAP1 PUSH2 0x5EE JUMP JUMPDEST PUSH1 0x40 MLOAD DUP1 SWAP2 SUB SWAP1 REVERT JUMPDEST PUSH0 DUP1 PUSH0 DUP6 DUP2 MSTORE PUSH1 0x20 ADD SWAP1 DUP2 MSTORE PUSH1 0x20 ADD PUSH0 KECCAK256 PUSH0 DUP5 PUSH20 0xFFFFFFFFFFFFFFFFFFFFFFFFFFFFFFFFFFFFFFFF AND PUSH20 0xFFFFFFFFFFFFFFFFFFFFFFFFFFFFFFFFFFFFFFFF AND DUP2 MSTORE PUSH1 0x20 ADD SWAP1 DUP2 MSTORE PUSH1 0x20 ADD PUSH0 KECCAK256 PUSH0 PUSH2 0x100 EXP DUP2 SLOAD DUP2 PUSH1 0xFF MUL NOT AND SWAP1 DUP4 ISZERO ISZERO MUL OR SWAP1 SSTORE POP DUP2 PUSH20 0xFFFFFFFFFFFFFFFFFFFFFFFFFFFFFFFFFFFFFFFF AND DUP4 PUSH32 0x76E6093C136CD7FAA5A6D92B2B633F3B4595ABD4A529B7A13917398355FEA694 PUSH1 0x40 MLOAD PUSH1 0x40 MLOAD DUP1 SWAP2 SUB SWAP1 LOG3 POP POP POP JUMP JUMPDEST PUSH0 PUSH1 0x20 MSTORE DUP2 PUSH0 MSTORE PUSH1 0x40 PUSH0 KECCAK256 PUSH1 0x20 MSTORE DUP1 PUSH0 MSTORE PUSH1 0x40 PUSH0 KECCAK256 PUSH0 SWAP2 POP SWAP2 POP SWAP1 SLOAD SWAP1 PUSH2 0x100 EXP SWAP1 DIV PUSH1 0xFF AND DUP2 JUMP JUMPDEST PUSH1 0x1 PUSH0 DUP1 DUP5 DUP2 MSTORE PUSH1 0x20 ADD SWAP1 DUP2 MSTORE PUSH1 0x20 ADD PUSH0 KECCAK256 PUSH0 DUP4 PUSH20 0xFFFFFFFFFFFFFFFFFFFFFFFFFFFFFFFFFFFFFFFF AND PUSH20 0xFFFFFFFFFFFFFFFFFFFFFFFFFFFFFFFFFFFFFFFF AND DUP2 MSTORE PUSH1 0x20 ADD SWAP1 DUP2 MSTORE PUSH1 0x20 ADD PUSH0 KECCAK256 PUSH0 PUSH2 0x100 EXP DUP2 SLOAD DUP2 PUSH1 0xFF MUL NOT AND SWAP1 DUP4 ISZERO ISZERO MUL OR SWAP1 SSTORE POP DUP1 PUSH20 0xFFFFFFFFFFFFFFFFFFFFFFFFFFFFFFFFFFFFFFFF AND DUP3 PUSH32 0x5A06360D65ACF95E98445DC834F205063424C636E65418D928CDFABC33A95399 PUSH1 0x40 MLOAD PUSH1 0x40 MLOAD DUP1 SWAP2 SUB SWAP1 LOG3 POP POP JUMP JUMPDEST PUSH0 DUP2 SWAP1 POP SWAP2 SWAP1 POP JUMP JUMPDEST PUSH2 0x414 DUP2 PUSH2 0x402 JUMP JUMPDEST DUP3 MSTORE POP POP JUMP JUMPDEST PUSH0 PUSH1 0x20 DUP3 ADD SWAP1 POP PUSH2 0x42D PUSH0 DUP4 ADD DUP5 PUSH2 0x40B JUMP JUMPDEST SWAP3 SWAP2 POP POP JUMP JUMPDEST PUSH0 DUP1 REVERT JUMPDEST PUSH2 0x440 DUP2 PUSH2 0x402 JUMP JUMPDEST DUP2 EQ PUSH2 0x44A JUMPI PUSH0 DUP1 REVERT JUMPDEST POP JUMP JUMPDEST PUSH0 DUP2 CALLDATALOAD SWAP1 POP PUSH2 0x45B DUP2 PUSH2 0x437 JUMP JUMPDEST SWAP3 SWAP2 POP POP JUMP JUMPDEST PUSH0 PUSH20 0xFFFFFFFFFFFFFFFFFFFFFFFFFFFFFFFFFFFFFFFF DUP3 AND SWAP1 POP SWAP2 SWAP1 POP JUMP JUMPDEST PUSH0 PUSH2 0x48A DUP3 PUSH2 0x461 JUMP JUMPDEST SWAP1 POP SWAP2 SWAP1 POP JUMP JUMPDEST PUSH2 0x49A DUP2 PUSH2 0x480 JUMP JUMPDEST DUP2 EQ PUSH2 0x4A4 JUMPI PUSH0 DUP1 REVERT JUMPDEST POP JUMP JUMPDEST PUSH0 DUP2 CALLDATALOAD SWAP1 POP PUSH2 0x4B5 DUP2 PUSH2 0x491 JUMP JUMPDEST SWAP3 SWAP2 POP POP JUMP JUMPDEST PUSH0 DUP1 PUSH1 0x40 DUP4 DUP6 SUB SLT ISZERO PUSH2 0x4D1 JUMPI PUSH2 0x4D0 PUSH2 0x433 JUMP JUMPDEST JUMPDEST PUSH0 PUSH2 0x4DE DUP6 DUP3 DUP7 ADD PUSH2 0x44D JUMP JUMPDEST SWAP3 POP POP PUSH1 0x20 PUSH2 0x4EF DUP6 DUP3 DUP7 ADD PUSH2 0x4A7 JUMP JUMPDEST SWAP2 POP POP SWAP3 POP SWAP3 SWAP1 POP JUMP JUMPDEST PUSH0 DUP2 ISZERO ISZERO SWAP1 POP SWAP2 SWAP1 POP JUMP JUMPDEST PUSH2 0x50D DUP2 PUSH2 0x4F9 JUMP JUMPDEST DUP3 MSTORE POP POP JUMP JUMPDEST PUSH0 PUSH1 0x20 DUP3 ADD SWAP1 POP PUSH2 0x526 PUSH0 DUP4 ADD DUP5 PUSH2 0x504 JUMP JUMPDEST SWAP3 SWAP2 POP POP JUMP JUMPDEST PUSH0 DUP2 SWAP1 POP SWAP3 SWAP2 POP POP JUMP JUMPDEST PUSH32 0x41444D494E000000000000000000000000000000000000000000000000000000 PUSH0 DUP3 ADD MSTORE POP JUMP JUMPDEST PUSH0 PUSH2 0x56A PUSH1 0x5 DUP4 PUSH2 0x52C JUMP JUMPDEST SWAP2 POP PUSH2 0x575 DUP3 PUSH2 0x536 JUMP JUMPDEST PUSH1 0x5 DUP3 ADD SWAP1 POP SWAP2 SWAP1 POP JUMP JUMPDEST PUSH0 PUSH2 0x58A DUP3 PUSH2 0x55E JUMP JUMPDEST SWAP2 POP DUP2 SWAP1 POP SWAP2 SWAP1 POP JUMP JUMPDEST PUSH0 DUP3 DUP3 MSTORE PUSH1 0x20 DUP3 ADD SWAP1 POP SWAP3 SWAP2 POP POP JUMP JUMPDEST PUSH32 0x6E6F7420617574686F72697A6564000000000000000000000000000000000000 PUSH0 DUP3 ADD MSTORE POP JUMP JUMPDEST PUSH0 PUSH2 0x5D8 PUSH1 0xE DUP4 PUSH2 0x594 JUMP JUMPDEST SWAP2 POP PUSH2 0x5E3 DUP3 PUSH2 0x5A4 JUMP JUMPDEST PUSH1 0x20 DUP3 ADD SWAP1 POP SWAP2 SWAP1 POP JUMP JUMPDEST PUSH0 PUSH1 0x20 DUP3 ADD SWAP1 POP DUP2 DUP2 SUB PUSH0 DUP4 ADD MSTORE PUSH2 0x605 DUP2 PUSH2 0x5CC JUMP JUMPDEST SWAP1 POP SWAP2 SWAP1 POP JUMP INVALID LOG2 PUSH5 0x6970667358 0x22 SLT KECCAK256 SWAP4 SUB SSTORE STOP PUSH22 0x887595F28938A2888C35E01F24B20EC84D1019464D9B LOG2 0xDA LT 0xAD PUSH32 0x64736F6C63430008160033000000000000000000000000000000000000000000 "
				},
				"gasEstimates": {
					"creation": {
						"codeDepositCost": "320400",
						"executionCost": "infinite",
						"totalCost": "infinite"
					},
					"external": {
						"ADMIN()": "604",
						"grantRole(bytes32,address)": "29247",
						"revokeRole(bytes32,address)": "29234",
						"roles(bytes32,address)": "3114"
					},
					"internal": {
						"_grantRole(bytes32,address)": "25991"
					}
				},
				"methodIdentifiers": {
					"ADMIN()": "2a0acc6a",
					"grantRole(bytes32,address)": "2f2ff15d",
					"revokeRole(bytes32,address)": "d547741f",
					"roles(bytes32,address)": "f8fc08b9"
				}
			},
			"storageLayout": {
				"storage": [
					{
						"astId": 19,
						"contract": "contracts/47. Access Control.sol:AccessControl",
						"label": "roles",
						"offset": 0,
						"slot": "0",
						"type": "t_mapping(t_bytes32,t_mapping(t_address,t_bool))"
					}
				],
				"types": {
					"t_address": {
						"encoding": "inplace",
						"label": "address",
						"numberOfBytes": "20"
					},
					"t_bool": {
						"encoding": "inplace",
						"label": "bool",
						"numberOfBytes": "1"
					},
					"t_bytes32": {
						"encoding": "inplace",
						"label": "bytes32",
						"numberOfBytes": "32"
					},
					"t_mapping(t_address,t_bool)": {
						"encoding": "mapping",
						"key": "t_address",
						"label": "mapping(address => bool)",
						"numberOfBytes": "32",
						"value": "t_bool"
					},
					"t_mapping(t_bytes32,t_mapping(t_address,t_bool))": {
						"encoding": "mapping",
						"key": "t_bytes32",
						"label": "mapping(bytes32 => mapping(address => bool))",
						"numberOfBytes": "32",
						"value": "t_mapping(t_address,t_bool)"
					}
				}
			},
			"userdoc": {
				"kind": "user",
				"methods": {},
				"version": 1
			}
		}
	}
}