{
	"contracts/39. Calling other Contracts.sol": {
		"TestContract": {
			"abi": [
				{
					"inputs": [],
					"name": "getValue",
					"outputs": [
						{
							"internalType": "uint256",
							"name": "",
							"type": "uint256"
						}
					],
					"stateMutability": "view",
					"type": "function"
				},
				{
					"inputs": [],
					"name": "getX",
					"outputs": [
						{
							"internalType": "uint256",
							"name": "",
							"type": "uint256"
						}
					],
					"stateMutability": "view",
					"type": "function"
				},
				{
					"inputs": [],
					"name": "getXandValue",
					"outputs": [
						{
							"internalType": "uint256",
							"name": "",
							"type": "uint256"
						},
						{
							"internalType": "uint256",
							"name": "",
							"type": "uint256"
						}
					],
					"stateMutability": "view",
					"type": "function"
				},
				{
					"inputs": [
						{
							"internalType": "uint256",
							"name": "_x",
							"type": "uint256"
						}
					],
					"name": "setX",
					"outputs": [],
					"stateMutability": "nonpayable",
					"type": "function"
				},
				{
					"inputs": [
						{
							"internalType": "uint256",
							"name": "_x",
							"type": "uint256"
						}
					],
					"name": "setXandReceiveEther",
					"outputs": [],
					"stateMutability": "payable",
					"type": "function"
				},
				{
					"inputs": [],
					"name": "setXtoValue",
					"outputs": [],
					"stateMutability": "payable",
					"type": "function"
				},
				{
					"inputs": [],
					"name": "value",
					"outputs": [
						{
							"internalType": "uint256",
							"name": "",
							"type": "uint256"
						}
					],
					"stateMutability": "view",
					"type": "function"
				},
				{
					"inputs": [],
					"name": "x",
					"outputs": [
						{
							"internalType": "uint256",
							"name": "",
							"type": "uint256"
						}
					],
					"stateMutability": "view",
					"type": "function"
				}
			],
			"devdoc": {
				"kind": "dev",
				"methods": {},
				"version": 1
			},
			"evm": {
				"assembly": "    /* \"contracts/39. Calling other Contracts.sol\":58:662  contract TestContract {... */\n  mstore(0x40, 0x80)\n    /* \"contracts/39. Calling other Contracts.sol\":131:134  123 */\n  0x7b\n    /* \"contracts/39. Calling other Contracts.sol\":108:134  uint256 public value = 123 */\n  0x01\n  sstore\n    /* \"contracts/39. Calling other Contracts.sol\":58:662  contract TestContract {... */\n  callvalue\n  dup1\n  iszero\n  tag_1\n  jumpi\n  0x00\n  dup1\n  revert\ntag_1:\n  pop\n  dataSize(sub_0)\n  dup1\n  dataOffset(sub_0)\n  0x00\n  codecopy\n  0x00\n  return\nstop\n\nsub_0: assembly {\n        /* \"contracts/39. Calling other Contracts.sol\":58:662  contract TestContract {... */\n      mstore(0x40, 0x80)\n      jumpi(tag_1, lt(calldatasize, 0x04))\n      shr(0xe0, calldataload(0x00))\n      dup1\n      0x4018d9aa\n      gt\n      tag_10\n      jumpi\n      dup1\n      0x4018d9aa\n      eq\n      tag_6\n      jumpi\n      dup1\n      0x5197c7aa\n      eq\n      tag_7\n      jumpi\n      dup1\n      0x9b24d371\n      eq\n      tag_8\n      jumpi\n      dup1\n      0xd6c7a3be\n      eq\n      tag_9\n      jumpi\n      jump(tag_1)\n    tag_10:\n      dup1\n      0x02f42be9\n      eq\n      tag_2\n      jumpi\n      dup1\n      0x0c55699c\n      eq\n      tag_3\n      jumpi\n      dup1\n      0x20965255\n      eq\n      tag_4\n      jumpi\n      dup1\n      0x3fa4f245\n      eq\n      tag_5\n      jumpi\n    tag_1:\n      0x00\n      dup1\n      revert\n        /* \"contracts/39. Calling other Contracts.sol\":284:392  function setXandReceiveEther(uint256 _x) external payable {... */\n    tag_2:\n      tag_11\n      0x04\n      dup1\n      calldatasize\n      sub\n      dup2\n      add\n      swap1\n      tag_12\n      swap2\n      swap1\n      tag_13\n      jump\t// in\n    tag_12:\n      tag_14\n      jump\t// in\n    tag_11:\n      stop\n        /* \"contracts/39. Calling other Contracts.sol\":86:102  uint256 public x */\n    tag_3:\n      callvalue\n      dup1\n      iszero\n      tag_15\n      jumpi\n      0x00\n      dup1\n      revert\n    tag_15:\n      pop\n      tag_16\n      tag_17\n      jump\t// in\n    tag_16:\n      mload(0x40)\n      tag_18\n      swap2\n      swap1\n      tag_19\n      jump\t// in\n    tag_18:\n      mload(0x40)\n      dup1\n      swap2\n      sub\n      swap1\n      return\n        /* \"contracts/39. Calling other Contracts.sol\":579:660  function getValue() external view returns (uint256) {... */\n    tag_4:\n      callvalue\n      dup1\n      iszero\n      tag_20\n      jumpi\n      0x00\n      dup1\n      revert\n    tag_20:\n      pop\n      tag_21\n      tag_22\n      jump\t// in\n    tag_21:\n      mload(0x40)\n      tag_23\n      swap2\n      swap1\n      tag_19\n      jump\t// in\n    tag_23:\n      mload(0x40)\n      dup1\n      swap2\n      sub\n      swap1\n      return\n        /* \"contracts/39. Calling other Contracts.sol\":108:134  uint256 public value = 123 */\n    tag_5:\n      callvalue\n      dup1\n      iszero\n      tag_24\n      jumpi\n      0x00\n      dup1\n      revert\n    tag_24:\n      pop\n      tag_25\n      tag_26\n      jump\t// in\n    tag_25:\n      mload(0x40)\n      tag_27\n      swap2\n      swap1\n      tag_19\n      jump\t// in\n    tag_27:\n      mload(0x40)\n      dup1\n      swap2\n      sub\n      swap1\n      return\n        /* \"contracts/39. Calling other Contracts.sol\":141:199  function setX(uint256 _x) external {... */\n    tag_6:\n      callvalue\n      dup1\n      iszero\n      tag_28\n      jumpi\n      0x00\n      dup1\n      revert\n    tag_28:\n      pop\n      tag_29\n      0x04\n      dup1\n      calldatasize\n      sub\n      dup2\n      add\n      swap1\n      tag_30\n      swap2\n      swap1\n      tag_13\n      jump\t// in\n    tag_30:\n      tag_31\n      jump\t// in\n    tag_29:\n      stop\n        /* \"contracts/39. Calling other Contracts.sol\":205:278  function getX() external view returns (uint256) {... */\n    tag_7:\n      callvalue\n      dup1\n      iszero\n      tag_32\n      jumpi\n      0x00\n      dup1\n      revert\n    tag_32:\n      pop\n      tag_33\n      tag_34\n      jump\t// in\n    tag_33:\n      mload(0x40)\n      tag_35\n      swap2\n      swap1\n      tag_19\n      jump\t// in\n    tag_35:\n      mload(0x40)\n      dup1\n      swap2\n      sub\n      swap1\n      return\n        /* \"contracts/39. Calling other Contracts.sol\":503:573  function setXtoValue() external payable {... */\n    tag_8:\n      tag_36\n      tag_37\n      jump\t// in\n    tag_36:\n      stop\n        /* \"contracts/39. Calling other Contracts.sol\":398:497  function getXandValue() external view returns (uint256, uint256) {... */\n    tag_9:\n      callvalue\n      dup1\n      iszero\n      tag_38\n      jumpi\n      0x00\n      dup1\n      revert\n    tag_38:\n      pop\n      tag_39\n      tag_40\n      jump\t// in\n    tag_39:\n      mload(0x40)\n      tag_41\n      swap3\n      swap2\n      swap1\n      tag_42\n      jump\t// in\n    tag_41:\n      mload(0x40)\n      dup1\n      swap2\n      sub\n      swap1\n      return\n        /* \"contracts/39. Calling other Contracts.sol\":284:392  function setXandReceiveEther(uint256 _x) external payable {... */\n    tag_14:\n        /* \"contracts/39. Calling other Contracts.sol\":356:358  _x */\n      dup1\n        /* \"contracts/39. Calling other Contracts.sol\":352:353  x */\n      0x00\n        /* \"contracts/39. Calling other Contracts.sol\":352:358  x = _x */\n      dup2\n      swap1\n      sstore\n      pop\n        /* \"contracts/39. Calling other Contracts.sol\":376:385  msg.value */\n      callvalue\n        /* \"contracts/39. Calling other Contracts.sol\":368:373  value */\n      0x01\n        /* \"contracts/39. Calling other Contracts.sol\":368:385  value = msg.value */\n      dup2\n      swap1\n      sstore\n      pop\n        /* \"contracts/39. Calling other Contracts.sol\":284:392  function setXandReceiveEther(uint256 _x) external payable {... */\n      pop\n      jump\t// out\n        /* \"contracts/39. Calling other Contracts.sol\":86:102  uint256 public x */\n    tag_17:\n      sload(0x00)\n      dup2\n      jump\t// out\n        /* \"contracts/39. Calling other Contracts.sol\":579:660  function getValue() external view returns (uint256) {... */\n    tag_22:\n        /* \"contracts/39. Calling other Contracts.sol\":622:629  uint256 */\n      0x00\n        /* \"contracts/39. Calling other Contracts.sol\":648:653  value */\n      sload(0x01)\n        /* \"contracts/39. Calling other Contracts.sol\":641:653  return value */\n      swap1\n      pop\n        /* \"contracts/39. Calling other Contracts.sol\":579:660  function getValue() external view returns (uint256) {... */\n      swap1\n      jump\t// out\n        /* \"contracts/39. Calling other Contracts.sol\":108:134  uint256 public value = 123 */\n    tag_26:\n      sload(0x01)\n      dup2\n      jump\t// out\n        /* \"contracts/39. Calling other Contracts.sol\":141:199  function setX(uint256 _x) external {... */\n    tag_31:\n        /* \"contracts/39. Calling other Contracts.sol\":190:192  _x */\n      dup1\n        /* \"contracts/39. Calling other Contracts.sol\":186:187  x */\n      0x00\n        /* \"contracts/39. Calling other Contracts.sol\":186:192  x = _x */\n      dup2\n      swap1\n      sstore\n      pop\n        /* \"contracts/39. Calling other Contracts.sol\":141:199  function setX(uint256 _x) external {... */\n      pop\n      jump\t// out\n        /* \"contracts/39. Calling other Contracts.sol\":205:278  function getX() external view returns (uint256) {... */\n    tag_34:\n        /* \"contracts/39. Calling other Contracts.sol\":244:251  uint256 */\n      0x00\n        /* \"contracts/39. Calling other Contracts.sol\":270:271  x */\n      dup1\n      sload\n        /* \"contracts/39. Calling other Contracts.sol\":263:271  return x */\n      swap1\n      pop\n        /* \"contracts/39. Calling other Contracts.sol\":205:278  function getX() external view returns (uint256) {... */\n      swap1\n      jump\t// out\n        /* \"contracts/39. Calling other Contracts.sol\":503:573  function setXtoValue() external payable {... */\n    tag_37:\n        /* \"contracts/39. Calling other Contracts.sol\":557:566  msg.value */\n      callvalue\n        /* \"contracts/39. Calling other Contracts.sol\":553:554  x */\n      0x00\n        /* \"contracts/39. Calling other Contracts.sol\":553:566  x = msg.value */\n      dup2\n      swap1\n      sstore\n      pop\n        /* \"contracts/39. Calling other Contracts.sol\":503:573  function setXtoValue() external payable {... */\n      jump\t// out\n        /* \"contracts/39. Calling other Contracts.sol\":398:497  function getXandValue() external view returns (uint256, uint256) {... */\n    tag_40:\n        /* \"contracts/39. Calling other Contracts.sol\":445:452  uint256 */\n      0x00\n        /* \"contracts/39. Calling other Contracts.sol\":454:461  uint256 */\n      dup1\n        /* \"contracts/39. Calling other Contracts.sol\":481:482  x */\n      sload(0x00)\n        /* \"contracts/39. Calling other Contracts.sol\":484:489  value */\n      sload(0x01)\n        /* \"contracts/39. Calling other Contracts.sol\":473:490  return (x, value) */\n      swap2\n      pop\n      swap2\n      pop\n        /* \"contracts/39. Calling other Contracts.sol\":398:497  function getXandValue() external view returns (uint256, uint256) {... */\n      swap1\n      swap2\n      jump\t// out\n        /* \"#utility.yul\":88:205   */\n    tag_50:\n        /* \"#utility.yul\":197:198   */\n      0x00\n        /* \"#utility.yul\":194:195   */\n      dup1\n        /* \"#utility.yul\":187:199   */\n      revert\n        /* \"#utility.yul\":334:411   */\n    tag_52:\n        /* \"#utility.yul\":371:378   */\n      0x00\n        /* \"#utility.yul\":400:405   */\n      dup2\n        /* \"#utility.yul\":389:405   */\n      swap1\n      pop\n        /* \"#utility.yul\":334:411   */\n      swap2\n      swap1\n      pop\n      jump\t// out\n        /* \"#utility.yul\":417:539   */\n    tag_53:\n        /* \"#utility.yul\":490:514   */\n      tag_62\n        /* \"#utility.yul\":508:513   */\n      dup2\n        /* \"#utility.yul\":490:514   */\n      tag_52\n      jump\t// in\n    tag_62:\n        /* \"#utility.yul\":483:488   */\n      dup2\n        /* \"#utility.yul\":480:515   */\n      eq\n        /* \"#utility.yul\":470:533   */\n      tag_63\n      jumpi\n        /* \"#utility.yul\":529:530   */\n      0x00\n        /* \"#utility.yul\":526:527   */\n      dup1\n        /* \"#utility.yul\":519:531   */\n      revert\n        /* \"#utility.yul\":470:533   */\n    tag_63:\n        /* \"#utility.yul\":417:539   */\n      pop\n      jump\t// out\n        /* \"#utility.yul\":545:684   */\n    tag_54:\n        /* \"#utility.yul\":591:596   */\n      0x00\n        /* \"#utility.yul\":629:635   */\n      dup2\n        /* \"#utility.yul\":616:636   */\n      calldataload\n        /* \"#utility.yul\":607:636   */\n      swap1\n      pop\n        /* \"#utility.yul\":645:678   */\n      tag_65\n        /* \"#utility.yul\":672:677   */\n      dup2\n        /* \"#utility.yul\":645:678   */\n      tag_53\n      jump\t// in\n    tag_65:\n        /* \"#utility.yul\":545:684   */\n      swap3\n      swap2\n      pop\n      pop\n      jump\t// out\n        /* \"#utility.yul\":690:1019   */\n    tag_13:\n        /* \"#utility.yul\":749:755   */\n      0x00\n        /* \"#utility.yul\":798:800   */\n      0x20\n        /* \"#utility.yul\":786:795   */\n      dup3\n        /* \"#utility.yul\":777:784   */\n      dup5\n        /* \"#utility.yul\":773:796   */\n      sub\n        /* \"#utility.yul\":769:801   */\n      slt\n        /* \"#utility.yul\":766:885   */\n      iszero\n      tag_67\n      jumpi\n        /* \"#utility.yul\":804:883   */\n      tag_68\n      tag_50\n      jump\t// in\n    tag_68:\n        /* \"#utility.yul\":766:885   */\n    tag_67:\n        /* \"#utility.yul\":924:925   */\n      0x00\n        /* \"#utility.yul\":949:1002   */\n      tag_69\n        /* \"#utility.yul\":994:1001   */\n      dup5\n        /* \"#utility.yul\":985:991   */\n      dup3\n        /* \"#utility.yul\":974:983   */\n      dup6\n        /* \"#utility.yul\":970:992   */\n      add\n        /* \"#utility.yul\":949:1002   */\n      tag_54\n      jump\t// in\n    tag_69:\n        /* \"#utility.yul\":939:1002   */\n      swap2\n      pop\n        /* \"#utility.yul\":895:1012   */\n      pop\n        /* \"#utility.yul\":690:1019   */\n      swap3\n      swap2\n      pop\n      pop\n      jump\t// out\n        /* \"#utility.yul\":1025:1143   */\n    tag_55:\n        /* \"#utility.yul\":1112:1136   */\n      tag_71\n        /* \"#utility.yul\":1130:1135   */\n      dup2\n        /* \"#utility.yul\":1112:1136   */\n      tag_52\n      jump\t// in\n    tag_71:\n        /* \"#utility.yul\":1107:1110   */\n      dup3\n        /* \"#utility.yul\":1100:1137   */\n      mstore\n        /* \"#utility.yul\":1025:1143   */\n      pop\n      pop\n      jump\t// out\n        /* \"#utility.yul\":1149:1371   */\n    tag_19:\n        /* \"#utility.yul\":1242:1246   */\n      0x00\n        /* \"#utility.yul\":1280:1282   */\n      0x20\n        /* \"#utility.yul\":1269:1278   */\n      dup3\n        /* \"#utility.yul\":1265:1283   */\n      add\n        /* \"#utility.yul\":1257:1283   */\n      swap1\n      pop\n        /* \"#utility.yul\":1293:1364   */\n      tag_73\n        /* \"#utility.yul\":1361:1362   */\n      0x00\n        /* \"#utility.yul\":1350:1359   */\n      dup4\n        /* \"#utility.yul\":1346:1363   */\n      add\n        /* \"#utility.yul\":1337:1343   */\n      dup5\n        /* \"#utility.yul\":1293:1364   */\n      tag_55\n      jump\t// in\n    tag_73:\n        /* \"#utility.yul\":1149:1371   */\n      swap3\n      swap2\n      pop\n      pop\n      jump\t// out\n        /* \"#utility.yul\":1377:1709   */\n    tag_42:\n        /* \"#utility.yul\":1498:1502   */\n      0x00\n        /* \"#utility.yul\":1536:1538   */\n      0x40\n        /* \"#utility.yul\":1525:1534   */\n      dup3\n        /* \"#utility.yul\":1521:1539   */\n      add\n        /* \"#utility.yul\":1513:1539   */\n      swap1\n      pop\n        /* \"#utility.yul\":1549:1620   */\n      tag_75\n        /* \"#utility.yul\":1617:1618   */\n      0x00\n        /* \"#utility.yul\":1606:1615   */\n      dup4\n        /* \"#utility.yul\":1602:1619   */\n      add\n        /* \"#utility.yul\":1593:1599   */\n      dup6\n        /* \"#utility.yul\":1549:1620   */\n      tag_55\n      jump\t// in\n    tag_75:\n        /* \"#utility.yul\":1630:1702   */\n      tag_76\n        /* \"#utility.yul\":1698:1700   */\n      0x20\n        /* \"#utility.yul\":1687:1696   */\n      dup4\n        /* \"#utility.yul\":1683:1701   */\n      add\n        /* \"#utility.yul\":1674:1680   */\n      dup5\n        /* \"#utility.yul\":1630:1702   */\n      tag_55\n      jump\t// in\n    tag_76:\n        /* \"#utility.yul\":1377:1709   */\n      swap4\n      swap3\n      pop\n      pop\n      pop\n      jump\t// out\n\n    auxdata: 0xa2646970667358221220289e2bd5ca705a3abd9fabc26a1f386359b99e40adf293013316bc9d619c179a64736f6c63430008160033\n}\n",
				"bytecode": {
					"linkReferences": {},
					"object": "6080604052607b600155348015610014575f80fd5b506102d2806100225f395ff3fe60806040526004361061007a575f3560e01c80634018d9aa1161004d5780634018d9aa146101185780635197c7aa146101405780639b24d3711461016a578063d6c7a3be146101745761007a565b806302f42be91461007e5780630c55699c1461009a57806320965255146100c45780633fa4f245146100ee575b5f80fd5b61009860048036038101906100939190610222565b61019f565b005b3480156100a5575f80fd5b506100ae6101af565b6040516100bb919061025c565b60405180910390f35b3480156100cf575f80fd5b506100d86101b4565b6040516100e5919061025c565b60405180910390f35b3480156100f9575f80fd5b506101026101bd565b60405161010f919061025c565b60405180910390f35b348015610123575f80fd5b5061013e60048036038101906101399190610222565b6101c3565b005b34801561014b575f80fd5b506101546101cc565b604051610161919061025c565b60405180910390f35b6101726101d4565b005b34801561017f575f80fd5b506101886101dc565b604051610196929190610275565b60405180910390f35b805f819055503460018190555050565b5f5481565b5f600154905090565b60015481565b805f8190555050565b5f8054905090565b345f81905550565b5f805f54600154915091509091565b5f80fd5b5f819050919050565b610201816101ef565b811461020b575f80fd5b50565b5f8135905061021c816101f8565b92915050565b5f60208284031215610237576102366101eb565b5b5f6102448482850161020e565b91505092915050565b610256816101ef565b82525050565b5f60208201905061026f5f83018461024d565b92915050565b5f6040820190506102885f83018561024d565b610295602083018461024d565b939250505056fea2646970667358221220289e2bd5ca705a3abd9fabc26a1f386359b99e40adf293013316bc9d619c179a64736f6c63430008160033",
					"opcodes": "PUSH1 0x80 PUSH1 0x40 MSTORE PUSH1 0x7B PUSH1 0x1 SSTORE CALLVALUE DUP1 ISZERO PUSH2 0x14 JUMPI PUSH0 DUP1 REVERT JUMPDEST POP PUSH2 0x2D2 DUP1 PUSH2 0x22 PUSH0 CODECOPY PUSH0 RETURN INVALID PUSH1 0x80 PUSH1 0x40 MSTORE PUSH1 0x4 CALLDATASIZE LT PUSH2 0x7A JUMPI PUSH0 CALLDATALOAD PUSH1 0xE0 SHR DUP1 PUSH4 0x4018D9AA GT PUSH2 0x4D JUMPI DUP1 PUSH4 0x4018D9AA EQ PUSH2 0x118 JUMPI DUP1 PUSH4 0x5197C7AA EQ PUSH2 0x140 JUMPI DUP1 PUSH4 0x9B24D371 EQ PUSH2 0x16A JUMPI DUP1 PUSH4 0xD6C7A3BE EQ PUSH2 0x174 JUMPI PUSH2 0x7A JUMP JUMPDEST DUP1 PUSH4 0x2F42BE9 EQ PUSH2 0x7E JUMPI DUP1 PUSH4 0xC55699C EQ PUSH2 0x9A JUMPI DUP1 PUSH4 0x20965255 EQ PUSH2 0xC4 JUMPI DUP1 PUSH4 0x3FA4F245 EQ PUSH2 0xEE JUMPI JUMPDEST PUSH0 DUP1 REVERT JUMPDEST PUSH2 0x98 PUSH1 0x4 DUP1 CALLDATASIZE SUB DUP2 ADD SWAP1 PUSH2 0x93 SWAP2 SWAP1 PUSH2 0x222 JUMP JUMPDEST PUSH2 0x19F JUMP JUMPDEST STOP JUMPDEST CALLVALUE DUP1 ISZERO PUSH2 0xA5 JUMPI PUSH0 DUP1 REVERT JUMPDEST POP PUSH2 0xAE PUSH2 0x1AF JUMP JUMPDEST PUSH1 0x40 MLOAD PUSH2 0xBB SWAP2 SWAP1 PUSH2 0x25C JUMP JUMPDEST PUSH1 0x40 MLOAD DUP1 SWAP2 SUB SWAP1 RETURN JUMPDEST CALLVALUE DUP1 ISZERO PUSH2 0xCF JUMPI PUSH0 DUP1 REVERT JUMPDEST POP PUSH2 0xD8 PUSH2 0x1B4 JUMP JUMPDEST PUSH1 0x40 MLOAD PUSH2 0xE5 SWAP2 SWAP1 PUSH2 0x25C JUMP JUMPDEST PUSH1 0x40 MLOAD DUP1 SWAP2 SUB SWAP1 RETURN JUMPDEST CALLVALUE DUP1 ISZERO PUSH2 0xF9 JUMPI PUSH0 DUP1 REVERT JUMPDEST POP PUSH2 0x102 PUSH2 0x1BD JUMP JUMPDEST PUSH1 0x40 MLOAD PUSH2 0x10F SWAP2 SWAP1 PUSH2 0x25C JUMP JUMPDEST PUSH1 0x40 MLOAD DUP1 SWAP2 SUB SWAP1 RETURN JUMPDEST CALLVALUE DUP1 ISZERO PUSH2 0x123 JUMPI PUSH0 DUP1 REVERT JUMPDEST POP PUSH2 0x13E PUSH1 0x4 DUP1 CALLDATASIZE SUB DUP2 ADD SWAP1 PUSH2 0x139 SWAP2 SWAP1 PUSH2 0x222 JUMP JUMPDEST PUSH2 0x1C3 JUMP JUMPDEST STOP JUMPDEST CALLVALUE DUP1 ISZERO PUSH2 0x14B JUMPI PUSH0 DUP1 REVERT JUMPDEST POP PUSH2 0x154 PUSH2 0x1CC JUMP JUMPDEST PUSH1 0x40 MLOAD PUSH2 0x161 SWAP2 SWAP1 PUSH2 0x25C JUMP JUMPDEST PUSH1 0x40 MLOAD DUP1 SWAP2 SUB SWAP1 RETURN JUMPDEST PUSH2 0x172 PUSH2 0x1D4 JUMP JUMPDEST STOP JUMPDEST CALLVALUE DUP1 ISZERO PUSH2 0x17F JUMPI PUSH0 DUP1 REVERT JUMPDEST POP PUSH2 0x188 PUSH2 0x1DC JUMP JUMPDEST PUSH1 0x40 MLOAD PUSH2 0x196 SWAP3 SWAP2 SWAP1 PUSH2 0x275 JUMP JUMPDEST PUSH1 0x40 MLOAD DUP1 SWAP2 SUB SWAP1 RETURN JUMPDEST DUP1 PUSH0 DUP2 SWAP1 SSTORE POP CALLVALUE PUSH1 0x1 DUP2 SWAP1 SSTORE POP POP JUMP JUMPDEST PUSH0 SLOAD DUP2 JUMP JUMPDEST PUSH0 PUSH1 0x1 SLOAD SWAP1 POP SWAP1 JUMP JUMPDEST PUSH1 0x1 SLOAD DUP2 JUMP JUMPDEST DUP1 PUSH0 DUP2 SWAP1 SSTORE POP POP JUMP JUMPDEST PUSH0 DUP1 SLOAD SWAP1 POP SWAP1 JUMP JUMPDEST CALLVALUE PUSH0 DUP2 SWAP1 SSTORE POP JUMP JUMPDEST PUSH0 DUP1 PUSH0 SLOAD PUSH1 0x1 SLOAD SWAP2 POP SWAP2 POP SWAP1 SWAP2 JUMP JUMPDEST PUSH0 DUP1 REVERT JUMPDEST PUSH0 DUP2 SWAP1 POP SWAP2 SWAP1 POP JUMP JUMPDEST PUSH2 0x201 DUP2 PUSH2 0x1EF JUMP JUMPDEST DUP2 EQ PUSH2 0x20B JUMPI PUSH0 DUP1 REVERT JUMPDEST POP JUMP JUMPDEST PUSH0 DUP2 CALLDATALOAD SWAP1 POP PUSH2 0x21C DUP2 PUSH2 0x1F8 JUMP JUMPDEST SWAP3 SWAP2 POP POP JUMP JUMPDEST PUSH0 PUSH1 0x20 DUP3 DUP5 SUB SLT ISZERO PUSH2 0x237 JUMPI PUSH2 0x236 PUSH2 0x1EB JUMP JUMPDEST JUMPDEST PUSH0 PUSH2 0x244 DUP5 DUP3 DUP6 ADD PUSH2 0x20E JUMP JUMPDEST SWAP2 POP POP SWAP3 SWAP2 POP POP JUMP JUMPDEST PUSH2 0x256 DUP2 PUSH2 0x1EF JUMP JUMPDEST DUP3 MSTORE POP POP JUMP JUMPDEST PUSH0 PUSH1 0x20 DUP3 ADD SWAP1 POP PUSH2 0x26F PUSH0 DUP4 ADD DUP5 PUSH2 0x24D JUMP JUMPDEST SWAP3 SWAP2 POP POP JUMP JUMPDEST PUSH0 PUSH1 0x40 DUP3 ADD SWAP1 POP PUSH2 0x288 PUSH0 DUP4 ADD DUP6 PUSH2 0x24D JUMP JUMPDEST PUSH2 0x295 PUSH1 0x20 DUP4 ADD DUP5 PUSH2 0x24D JUMP JUMPDEST SWAP4 SWAP3 POP POP POP JUMP INVALID LOG2 PUSH5 0x6970667358 0x22 SLT KECCAK256 0x28 SWAP15 0x2B 0xD5 0xCA PUSH17 0x5A3ABD9FABC26A1F386359B99E40ADF293 ADD CALLER AND 0xBC SWAP14 PUSH2 0x9C17 SWAP11 PUSH5 0x736F6C6343 STOP ADDMOD AND STOP CALLER "
				},
				"gasEstimates": {
					"creation": {
						"codeDepositCost": "144400",
						"executionCost": "22294",
						"totalCost": "166694"
					},
					"external": {
						"getValue()": "2477",
						"getX()": "2454",
						"getXandValue()": "infinite",
						"setX(uint256)": "22514",
						"setXandReceiveEther(uint256)": "44604",
						"setXtoValue()": "22275",
						"value()": "2492",
						"x()": "2447"
					}
				},
				"methodIdentifiers": {
					"getValue()": "20965255",
					"getX()": "5197c7aa",
					"getXandValue()": "d6c7a3be",
					"setX(uint256)": "4018d9aa",
					"setXandReceiveEther(uint256)": "02f42be9",
					"setXtoValue()": "9b24d371",
					"value()": "3fa4f245",
					"x()": "0c55699c"
				}
			},
			"storageLayout": {
				"storage": [
					{
						"astId": 3,
						"contract": "contracts/39. Calling other Contracts.sol:TestContract",
						"label": "x",
						"offset": 0,
						"slot": "0",
						"type": "t_uint256"
					},
					{
						"astId": 6,
						"contract": "contracts/39. Calling other Contracts.sol:TestContract",
						"label": "value",
						"offset": 0,
						"slot": "1",
						"type": "t_uint256"
					}
				],
				"types": {
					"t_uint256": {
						"encoding": "inplace",
						"label": "uint256",
						"numberOfBytes": "32"
					}
				}
			},
			"userdoc": {
				"kind": "user",
				"methods": {},
				"version": 1
			}
		}
	}
}