{
	"contracts/52. Re-entrancy.sol": {
		"EthBankExploit": {
			"abi": [
				{
					"inputs": [
						{
							"internalType": "address",
							"name": "_bank",
							"type": "address"
						}
					],
					"stateMutability": "nonpayable",
					"type": "constructor"
				},
				{
					"inputs": [],
					"name": "bank",
					"outputs": [
						{
							"internalType": "contract IEthBank",
							"name": "",
							"type": "address"
						}
					],
					"stateMutability": "view",
					"type": "function"
				},
				{
					"inputs": [],
					"name": "getBalance",
					"outputs": [
						{
							"internalType": "uint256",
							"name": "",
							"type": "uint256"
						}
					],
					"stateMutability": "view",
					"type": "function"
				},
				{
					"inputs": [],
					"name": "pwn",
					"outputs": [],
					"stateMutability": "payable",
					"type": "function"
				},
				{
					"stateMutability": "payable",
					"type": "receive"
				}
			],
			"devdoc": {
				"kind": "dev",
				"methods": {},
				"version": 1
			},
			"evm": {
				"assembly": "    /* \"contracts/52. Re-entrancy.sol\":532:916  contract EthBankExploit {... */\n  mstore(0x40, 0x80)\n    /* \"contracts/52. Re-entrancy.sol\":623:689  constructor(address _bank) {... */\n  callvalue\n  dup1\n  iszero\n  tag_1\n  jumpi\n  0x00\n  dup1\n  revert\ntag_1:\n  pop\n  mload(0x40)\n  sub(codesize, bytecodeSize)\n  dup1\n  bytecodeSize\n  dup4\n  codecopy\n  dup2\n  dup2\n  add\n  0x40\n  mstore\n  dup2\n  add\n  swap1\n  tag_2\n  swap2\n  swap1\n  tag_3\n  jump\t// in\ntag_2:\n    /* \"contracts/52. Re-entrancy.sol\":676:681  _bank */\n  dup1\n    /* \"contracts/52. Re-entrancy.sol\":660:664  bank */\n  0x00\n  dup1\n    /* \"contracts/52. Re-entrancy.sol\":660:682  bank = IEthBank(_bank) */\n  0x0100\n  exp\n  dup2\n  sload\n  dup2\n  0xffffffffffffffffffffffffffffffffffffffff\n  mul\n  not\n  and\n  swap1\n  dup4\n  0xffffffffffffffffffffffffffffffffffffffff\n  and\n  mul\n  or\n  swap1\n  sstore\n  pop\n    /* \"contracts/52. Re-entrancy.sol\":623:689  constructor(address _bank) {... */\n  pop\n    /* \"contracts/52. Re-entrancy.sol\":532:916  contract EthBankExploit {... */\n  jump(tag_6)\n    /* \"#utility.yul\":88:205   */\ntag_8:\n    /* \"#utility.yul\":197:198   */\n  0x00\n    /* \"#utility.yul\":194:195   */\n  dup1\n    /* \"#utility.yul\":187:199   */\n  revert\n    /* \"#utility.yul\":334:460   */\ntag_10:\n    /* \"#utility.yul\":371:378   */\n  0x00\n    /* \"#utility.yul\":411:453   */\n  0xffffffffffffffffffffffffffffffffffffffff\n    /* \"#utility.yul\":404:409   */\n  dup3\n    /* \"#utility.yul\":400:454   */\n  and\n    /* \"#utility.yul\":389:454   */\n  swap1\n  pop\n    /* \"#utility.yul\":334:460   */\n  swap2\n  swap1\n  pop\n  jump\t// out\n    /* \"#utility.yul\":466:562   */\ntag_11:\n    /* \"#utility.yul\":503:510   */\n  0x00\n    /* \"#utility.yul\":532:556   */\n  tag_20\n    /* \"#utility.yul\":550:555   */\n  dup3\n    /* \"#utility.yul\":532:556   */\n  tag_10\n  jump\t// in\ntag_20:\n    /* \"#utility.yul\":521:556   */\n  swap1\n  pop\n    /* \"#utility.yul\":466:562   */\n  swap2\n  swap1\n  pop\n  jump\t// out\n    /* \"#utility.yul\":568:690   */\ntag_12:\n    /* \"#utility.yul\":641:665   */\n  tag_22\n    /* \"#utility.yul\":659:664   */\n  dup2\n    /* \"#utility.yul\":641:665   */\n  tag_11\n  jump\t// in\ntag_22:\n    /* \"#utility.yul\":634:639   */\n  dup2\n    /* \"#utility.yul\":631:666   */\n  eq\n    /* \"#utility.yul\":621:684   */\n  tag_23\n  jumpi\n    /* \"#utility.yul\":680:681   */\n  0x00\n    /* \"#utility.yul\":677:678   */\n  dup1\n    /* \"#utility.yul\":670:682   */\n  revert\n    /* \"#utility.yul\":621:684   */\ntag_23:\n    /* \"#utility.yul\":568:690   */\n  pop\n  jump\t// out\n    /* \"#utility.yul\":696:839   */\ntag_13:\n    /* \"#utility.yul\":753:758   */\n  0x00\n    /* \"#utility.yul\":784:790   */\n  dup2\n    /* \"#utility.yul\":778:791   */\n  mload\n    /* \"#utility.yul\":769:791   */\n  swap1\n  pop\n    /* \"#utility.yul\":800:833   */\n  tag_25\n    /* \"#utility.yul\":827:832   */\n  dup2\n    /* \"#utility.yul\":800:833   */\n  tag_12\n  jump\t// in\ntag_25:\n    /* \"#utility.yul\":696:839   */\n  swap3\n  swap2\n  pop\n  pop\n  jump\t// out\n    /* \"#utility.yul\":845:1196   */\ntag_3:\n    /* \"#utility.yul\":915:921   */\n  0x00\n    /* \"#utility.yul\":964:966   */\n  0x20\n    /* \"#utility.yul\":952:961   */\n  dup3\n    /* \"#utility.yul\":943:950   */\n  dup5\n    /* \"#utility.yul\":939:962   */\n  sub\n    /* \"#utility.yul\":935:967   */\n  slt\n    /* \"#utility.yul\":932:1051   */\n  iszero\n  tag_27\n  jumpi\n    /* \"#utility.yul\":970:1049   */\n  tag_28\n  tag_8\n  jump\t// in\ntag_28:\n    /* \"#utility.yul\":932:1051   */\ntag_27:\n    /* \"#utility.yul\":1090:1091   */\n  0x00\n    /* \"#utility.yul\":1115:1179   */\n  tag_29\n    /* \"#utility.yul\":1171:1178   */\n  dup5\n    /* \"#utility.yul\":1162:1168   */\n  dup3\n    /* \"#utility.yul\":1151:1160   */\n  dup6\n    /* \"#utility.yul\":1147:1169   */\n  add\n    /* \"#utility.yul\":1115:1179   */\n  tag_13\n  jump\t// in\ntag_29:\n    /* \"#utility.yul\":1105:1179   */\n  swap2\n  pop\n    /* \"#utility.yul\":1061:1189   */\n  pop\n    /* \"#utility.yul\":845:1196   */\n  swap3\n  swap2\n  pop\n  pop\n  jump\t// out\n    /* \"contracts/52. Re-entrancy.sol\":532:916  contract EthBankExploit {... */\ntag_6:\n  dataSize(sub_0)\n  dup1\n  dataOffset(sub_0)\n  0x00\n  codecopy\n  0x00\n  return\nstop\n\nsub_0: assembly {\n        /* \"contracts/52. Re-entrancy.sol\":532:916  contract EthBankExploit {... */\n      mstore(0x40, 0x80)\n      jumpi(tag_1, lt(calldatasize, 0x04))\n      shr(0xe0, calldataload(0x00))\n      dup1\n      0x12065fe0\n      eq\n      tag_3\n      jumpi\n      dup1\n      0x76cdb03b\n      eq\n      tag_4\n      jumpi\n      dup1\n      0xdd365b8b\n      eq\n      tag_5\n      jumpi\n      jump(tag_2)\n    tag_1:\n      jumpi(tag_2, calldatasize)\n      stop\n    tag_2:\n      0x00\n      dup1\n      revert\n        /* \"contracts/52. Re-entrancy.sol\":819:913  function getBalance() public view returns (uint) {... */\n    tag_3:\n      callvalue\n      dup1\n      iszero\n      tag_8\n      jumpi\n      0x00\n      dup1\n      revert\n    tag_8:\n      pop\n      tag_9\n      tag_10\n      jump\t// in\n    tag_9:\n      mload(0x40)\n      tag_11\n      swap2\n      swap1\n      tag_12\n      jump\t// in\n    tag_11:\n      mload(0x40)\n      dup1\n      swap2\n      sub\n      swap1\n      return\n        /* \"contracts/52. Re-entrancy.sol\":562:582  IEthBank public bank */\n    tag_4:\n      callvalue\n      dup1\n      iszero\n      tag_13\n      jumpi\n      0x00\n      dup1\n      revert\n    tag_13:\n      pop\n      tag_14\n      tag_15\n      jump\t// in\n    tag_14:\n      mload(0x40)\n      tag_16\n      swap2\n      swap1\n      tag_17\n      jump\t// in\n    tag_16:\n      mload(0x40)\n      dup1\n      swap2\n      sub\n      swap1\n      return\n        /* \"contracts/52. Re-entrancy.sol\":695:813  function pwn() external payable {... */\n    tag_5:\n      tag_18\n      tag_19\n      jump\t// in\n    tag_18:\n      stop\n        /* \"contracts/52. Re-entrancy.sol\":819:913  function getBalance() public view returns (uint) {... */\n    tag_10:\n        /* \"contracts/52. Re-entrancy.sol\":862:866  uint */\n      0x00\n        /* \"contracts/52. Re-entrancy.sol\":893:897  bank */\n      dup1\n      0x00\n      swap1\n      sload\n      swap1\n      0x0100\n      exp\n      swap1\n      div\n      0xffffffffffffffffffffffffffffffffffffffff\n      and\n        /* \"contracts/52. Re-entrancy.sol\":885:906  address(bank).balance */\n      0xffffffffffffffffffffffffffffffffffffffff\n      and\n      balance\n        /* \"contracts/52. Re-entrancy.sol\":878:906  return address(bank).balance */\n      swap1\n      pop\n        /* \"contracts/52. Re-entrancy.sol\":819:913  function getBalance() public view returns (uint) {... */\n      swap1\n      jump\t// out\n        /* \"contracts/52. Re-entrancy.sol\":562:582  IEthBank public bank */\n    tag_15:\n      0x00\n      dup1\n      sload\n      swap1\n      0x0100\n      exp\n      swap1\n      div\n      0xffffffffffffffffffffffffffffffffffffffff\n      and\n      dup2\n      jump\t// out\n        /* \"contracts/52. Re-entrancy.sol\":695:813  function pwn() external payable {... */\n    tag_19:\n        /* \"contracts/52. Re-entrancy.sol\":738:747  bool sent */\n      0x00\n        /* \"contracts/52. Re-entrancy.sol\":761:765  bank */\n      dup1\n      0x00\n      swap1\n      sload\n      swap1\n      0x0100\n      exp\n      swap1\n      div\n      0xffffffffffffffffffffffffffffffffffffffff\n      and\n        /* \"contracts/52. Re-entrancy.sol\":753:771  address(bank).call */\n      0xffffffffffffffffffffffffffffffffffffffff\n      and\n        /* \"contracts/52. Re-entrancy.sol\":779:791  getBalance() */\n      tag_22\n        /* \"contracts/52. Re-entrancy.sol\":779:789  getBalance */\n      tag_10\n        /* \"contracts/52. Re-entrancy.sol\":779:791  getBalance() */\n      jump\t// in\n    tag_22:\n        /* \"contracts/52. Re-entrancy.sol\":753:796  address(bank).call{value: getBalance()}(\"\") */\n      mload(0x40)\n      tag_23\n      swap1\n      tag_24\n      jump\t// in\n    tag_23:\n      0x00\n      mload(0x40)\n      dup1\n      dup4\n      sub\n      dup2\n      dup6\n      dup8\n      gas\n      call\n      swap3\n      pop\n      pop\n      pop\n      returndatasize\n      dup1\n      0x00\n      dup2\n      eq\n      tag_27\n      jumpi\n      mload(0x40)\n      swap2\n      pop\n      and(add(returndatasize, 0x3f), not(0x1f))\n      dup3\n      add\n      0x40\n      mstore\n      returndatasize\n      dup3\n      mstore\n      returndatasize\n      0x00\n      0x20\n      dup5\n      add\n      returndatacopy\n      jump(tag_26)\n    tag_27:\n      0x60\n      swap2\n      pop\n    tag_26:\n      pop\n        /* \"contracts/52. Re-entrancy.sol\":737:796  (bool sent, ) = address(bank).call{value: getBalance()}(\"\") */\n      pop\n      swap1\n      pop\n        /* \"contracts/52. Re-entrancy.sol\":727:813  {... */\n      pop\n        /* \"contracts/52. Re-entrancy.sol\":695:813  function pwn() external payable {... */\n      jump\t// out\n        /* \"#utility.yul\":7:84   */\n    tag_28:\n        /* \"#utility.yul\":44:51   */\n      0x00\n        /* \"#utility.yul\":73:78   */\n      dup2\n        /* \"#utility.yul\":62:78   */\n      swap1\n      pop\n        /* \"#utility.yul\":7:84   */\n      swap2\n      swap1\n      pop\n      jump\t// out\n        /* \"#utility.yul\":90:208   */\n    tag_29:\n        /* \"#utility.yul\":177:201   */\n      tag_42\n        /* \"#utility.yul\":195:200   */\n      dup2\n        /* \"#utility.yul\":177:201   */\n      tag_28\n      jump\t// in\n    tag_42:\n        /* \"#utility.yul\":172:175   */\n      dup3\n        /* \"#utility.yul\":165:202   */\n      mstore\n        /* \"#utility.yul\":90:208   */\n      pop\n      pop\n      jump\t// out\n        /* \"#utility.yul\":214:436   */\n    tag_12:\n        /* \"#utility.yul\":307:311   */\n      0x00\n        /* \"#utility.yul\":345:347   */\n      0x20\n        /* \"#utility.yul\":334:343   */\n      dup3\n        /* \"#utility.yul\":330:348   */\n      add\n        /* \"#utility.yul\":322:348   */\n      swap1\n      pop\n        /* \"#utility.yul\":358:429   */\n      tag_44\n        /* \"#utility.yul\":426:427   */\n      0x00\n        /* \"#utility.yul\":415:424   */\n      dup4\n        /* \"#utility.yul\":411:428   */\n      add\n        /* \"#utility.yul\":402:408   */\n      dup5\n        /* \"#utility.yul\":358:429   */\n      tag_29\n      jump\t// in\n    tag_44:\n        /* \"#utility.yul\":214:436   */\n      swap3\n      swap2\n      pop\n      pop\n      jump\t// out\n        /* \"#utility.yul\":442:568   */\n    tag_30:\n        /* \"#utility.yul\":479:486   */\n      0x00\n        /* \"#utility.yul\":519:561   */\n      0xffffffffffffffffffffffffffffffffffffffff\n        /* \"#utility.yul\":512:517   */\n      dup3\n        /* \"#utility.yul\":508:562   */\n      and\n        /* \"#utility.yul\":497:562   */\n      swap1\n      pop\n        /* \"#utility.yul\":442:568   */\n      swap2\n      swap1\n      pop\n      jump\t// out\n        /* \"#utility.yul\":574:634   */\n    tag_31:\n        /* \"#utility.yul\":602:605   */\n      0x00\n        /* \"#utility.yul\":623:628   */\n      dup2\n        /* \"#utility.yul\":616:628   */\n      swap1\n      pop\n        /* \"#utility.yul\":574:634   */\n      swap2\n      swap1\n      pop\n      jump\t// out\n        /* \"#utility.yul\":640:782   */\n    tag_32:\n        /* \"#utility.yul\":690:699   */\n      0x00\n        /* \"#utility.yul\":723:776   */\n      tag_48\n        /* \"#utility.yul\":741:775   */\n      tag_49\n        /* \"#utility.yul\":750:774   */\n      tag_50\n        /* \"#utility.yul\":768:773   */\n      dup5\n        /* \"#utility.yul\":750:774   */\n      tag_30\n      jump\t// in\n    tag_50:\n        /* \"#utility.yul\":741:775   */\n      tag_31\n      jump\t// in\n    tag_49:\n        /* \"#utility.yul\":723:776   */\n      tag_30\n      jump\t// in\n    tag_48:\n        /* \"#utility.yul\":710:776   */\n      swap1\n      pop\n        /* \"#utility.yul\":640:782   */\n      swap2\n      swap1\n      pop\n      jump\t// out\n        /* \"#utility.yul\":788:914   */\n    tag_33:\n        /* \"#utility.yul\":838:847   */\n      0x00\n        /* \"#utility.yul\":871:908   */\n      tag_52\n        /* \"#utility.yul\":902:907   */\n      dup3\n        /* \"#utility.yul\":871:908   */\n      tag_32\n      jump\t// in\n    tag_52:\n        /* \"#utility.yul\":858:908   */\n      swap1\n      pop\n        /* \"#utility.yul\":788:914   */\n      swap2\n      swap1\n      pop\n      jump\t// out\n        /* \"#utility.yul\":920:1061   */\n    tag_34:\n        /* \"#utility.yul\":985:994   */\n      0x00\n        /* \"#utility.yul\":1018:1055   */\n      tag_54\n        /* \"#utility.yul\":1049:1054   */\n      dup3\n        /* \"#utility.yul\":1018:1055   */\n      tag_33\n      jump\t// in\n    tag_54:\n        /* \"#utility.yul\":1005:1055   */\n      swap1\n      pop\n        /* \"#utility.yul\":920:1061   */\n      swap2\n      swap1\n      pop\n      jump\t// out\n        /* \"#utility.yul\":1067:1228   */\n    tag_35:\n        /* \"#utility.yul\":1169:1221   */\n      tag_56\n        /* \"#utility.yul\":1215:1220   */\n      dup2\n        /* \"#utility.yul\":1169:1221   */\n      tag_34\n      jump\t// in\n    tag_56:\n        /* \"#utility.yul\":1164:1167   */\n      dup3\n        /* \"#utility.yul\":1157:1222   */\n      mstore\n        /* \"#utility.yul\":1067:1228   */\n      pop\n      pop\n      jump\t// out\n        /* \"#utility.yul\":1234:1486   */\n    tag_17:\n        /* \"#utility.yul\":1342:1346   */\n      0x00\n        /* \"#utility.yul\":1380:1382   */\n      0x20\n        /* \"#utility.yul\":1369:1378   */\n      dup3\n        /* \"#utility.yul\":1365:1383   */\n      add\n        /* \"#utility.yul\":1357:1383   */\n      swap1\n      pop\n        /* \"#utility.yul\":1393:1479   */\n      tag_58\n        /* \"#utility.yul\":1476:1477   */\n      0x00\n        /* \"#utility.yul\":1465:1474   */\n      dup4\n        /* \"#utility.yul\":1461:1478   */\n      add\n        /* \"#utility.yul\":1452:1458   */\n      dup5\n        /* \"#utility.yul\":1393:1479   */\n      tag_35\n      jump\t// in\n    tag_58:\n        /* \"#utility.yul\":1234:1486   */\n      swap3\n      swap2\n      pop\n      pop\n      jump\t// out\n        /* \"#utility.yul\":1492:1639   */\n    tag_36:\n        /* \"#utility.yul\":1593:1604   */\n      0x00\n        /* \"#utility.yul\":1630:1633   */\n      dup2\n        /* \"#utility.yul\":1615:1633   */\n      swap1\n      pop\n        /* \"#utility.yul\":1492:1639   */\n      swap3\n      swap2\n      pop\n      pop\n      jump\t// out\n        /* \"#utility.yul\":1645:1759   */\n    tag_37:\n      pop\n      jump\t// out\n        /* \"#utility.yul\":1765:2163   */\n    tag_38:\n        /* \"#utility.yul\":1924:1927   */\n      0x00\n        /* \"#utility.yul\":1945:2028   */\n      tag_62\n        /* \"#utility.yul\":2026:2027   */\n      0x00\n        /* \"#utility.yul\":2021:2024   */\n      dup4\n        /* \"#utility.yul\":1945:2028   */\n      tag_36\n      jump\t// in\n    tag_62:\n        /* \"#utility.yul\":1938:2028   */\n      swap2\n      pop\n        /* \"#utility.yul\":2037:2130   */\n      tag_63\n        /* \"#utility.yul\":2126:2129   */\n      dup3\n        /* \"#utility.yul\":2037:2130   */\n      tag_37\n      jump\t// in\n    tag_63:\n        /* \"#utility.yul\":2155:2156   */\n      0x00\n        /* \"#utility.yul\":2150:2153   */\n      dup3\n        /* \"#utility.yul\":2146:2157   */\n      add\n        /* \"#utility.yul\":2139:2157   */\n      swap1\n      pop\n        /* \"#utility.yul\":1765:2163   */\n      swap2\n      swap1\n      pop\n      jump\t// out\n        /* \"#utility.yul\":2169:2548   */\n    tag_24:\n        /* \"#utility.yul\":2353:2356   */\n      0x00\n        /* \"#utility.yul\":2375:2522   */\n      tag_65\n        /* \"#utility.yul\":2518:2521   */\n      dup3\n        /* \"#utility.yul\":2375:2522   */\n      tag_38\n      jump\t// in\n    tag_65:\n        /* \"#utility.yul\":2368:2522   */\n      swap2\n      pop\n        /* \"#utility.yul\":2539:2542   */\n      dup2\n        /* \"#utility.yul\":2532:2542   */\n      swap1\n      pop\n        /* \"#utility.yul\":2169:2548   */\n      swap2\n      swap1\n      pop\n      jump\t// out\n\n    auxdata: 0xa2646970667358221220529bb6fcc7d10242bdf9e3fe0a050d72d75e932d3cf0d23c300c2acc1dc9693f64736f6c63430008160033\n}\n",
				"bytecode": {
					"linkReferences": {},
					"object": "608060405234801561000f575f80fd5b506040516103da3803806103da833981810160405281019061003191906100d4565b805f806101000a81548173ffffffffffffffffffffffffffffffffffffffff021916908373ffffffffffffffffffffffffffffffffffffffff160217905550506100ff565b5f80fd5b5f73ffffffffffffffffffffffffffffffffffffffff82169050919050565b5f6100a38261007a565b9050919050565b6100b381610099565b81146100bd575f80fd5b50565b5f815190506100ce816100aa565b92915050565b5f602082840312156100e9576100e8610076565b5b5f6100f6848285016100c0565b91505092915050565b6102ce8061010c5f395ff3fe608060405260043610610037575f3560e01c806312065fe01461004257806376cdb03b1461006c578063dd365b8b146100965761003e565b3661003e57005b5f80fd5b34801561004d575f80fd5b506100566100a0565b60405161006391906101ab565b60405180910390f35b348015610077575f80fd5b506100806100de565b60405161008d919061023e565b60405180910390f35b61009e610101565b005b5f805f9054906101000a900473ffffffffffffffffffffffffffffffffffffffff1673ffffffffffffffffffffffffffffffffffffffff1631905090565b5f8054906101000a900473ffffffffffffffffffffffffffffffffffffffff1681565b5f805f9054906101000a900473ffffffffffffffffffffffffffffffffffffffff1673ffffffffffffffffffffffffffffffffffffffff166101416100a0565b60405161014d90610284565b5f6040518083038185875af1925050503d805f8114610187576040519150601f19603f3d011682016040523d82523d5f602084013e61018c565b606091505b5050905050565b5f819050919050565b6101a581610193565b82525050565b5f6020820190506101be5f83018461019c565b92915050565b5f73ffffffffffffffffffffffffffffffffffffffff82169050919050565b5f819050919050565b5f6102066102016101fc846101c4565b6101e3565b6101c4565b9050919050565b5f610217826101ec565b9050919050565b5f6102288261020d565b9050919050565b6102388161021e565b82525050565b5f6020820190506102515f83018461022f565b92915050565b5f81905092915050565b50565b5f61026f5f83610257565b915061027a82610261565b5f82019050919050565b5f61028e82610264565b915081905091905056fea2646970667358221220529bb6fcc7d10242bdf9e3fe0a050d72d75e932d3cf0d23c300c2acc1dc9693f64736f6c63430008160033",
					"opcodes": "PUSH1 0x80 PUSH1 0x40 MSTORE CALLVALUE DUP1 ISZERO PUSH2 0xF JUMPI PUSH0 DUP1 REVERT JUMPDEST POP PUSH1 0x40 MLOAD PUSH2 0x3DA CODESIZE SUB DUP1 PUSH2 0x3DA DUP4 CODECOPY DUP2 DUP2 ADD PUSH1 0x40 MSTORE DUP2 ADD SWAP1 PUSH2 0x31 SWAP2 SWAP1 PUSH2 0xD4 JUMP JUMPDEST DUP1 PUSH0 DUP1 PUSH2 0x100 EXP DUP2 SLOAD DUP2 PUSH20 0xFFFFFFFFFFFFFFFFFFFFFFFFFFFFFFFFFFFFFFFF MUL NOT AND SWAP1 DUP4 PUSH20 0xFFFFFFFFFFFFFFFFFFFFFFFFFFFFFFFFFFFFFFFF AND MUL OR SWAP1 SSTORE POP POP PUSH2 0xFF JUMP JUMPDEST PUSH0 DUP1 REVERT JUMPDEST PUSH0 PUSH20 0xFFFFFFFFFFFFFFFFFFFFFFFFFFFFFFFFFFFFFFFF DUP3 AND SWAP1 POP SWAP2 SWAP1 POP JUMP JUMPDEST PUSH0 PUSH2 0xA3 DUP3 PUSH2 0x7A JUMP JUMPDEST SWAP1 POP SWAP2 SWAP1 POP JUMP JUMPDEST PUSH2 0xB3 DUP2 PUSH2 0x99 JUMP JUMPDEST DUP2 EQ PUSH2 0xBD JUMPI PUSH0 DUP1 REVERT JUMPDEST POP JUMP JUMPDEST PUSH0 DUP2 MLOAD SWAP1 POP PUSH2 0xCE DUP2 PUSH2 0xAA JUMP JUMPDEST SWAP3 SWAP2 POP POP JUMP JUMPDEST PUSH0 PUSH1 0x20 DUP3 DUP5 SUB SLT ISZERO PUSH2 0xE9 JUMPI PUSH2 0xE8 PUSH2 0x76 JUMP JUMPDEST JUMPDEST PUSH0 PUSH2 0xF6 DUP5 DUP3 DUP6 ADD PUSH2 0xC0 JUMP JUMPDEST SWAP2 POP POP SWAP3 SWAP2 POP POP JUMP JUMPDEST PUSH2 0x2CE DUP1 PUSH2 0x10C PUSH0 CODECOPY PUSH0 RETURN INVALID PUSH1 0x80 PUSH1 0x40 MSTORE PUSH1 0x4 CALLDATASIZE LT PUSH2 0x37 JUMPI PUSH0 CALLDATALOAD PUSH1 0xE0 SHR DUP1 PUSH4 0x12065FE0 EQ PUSH2 0x42 JUMPI DUP1 PUSH4 0x76CDB03B EQ PUSH2 0x6C JUMPI DUP1 PUSH4 0xDD365B8B EQ PUSH2 0x96 JUMPI PUSH2 0x3E JUMP JUMPDEST CALLDATASIZE PUSH2 0x3E JUMPI STOP JUMPDEST PUSH0 DUP1 REVERT JUMPDEST CALLVALUE DUP1 ISZERO PUSH2 0x4D JUMPI PUSH0 DUP1 REVERT JUMPDEST POP PUSH2 0x56 PUSH2 0xA0 JUMP JUMPDEST PUSH1 0x40 MLOAD PUSH2 0x63 SWAP2 SWAP1 PUSH2 0x1AB JUMP JUMPDEST PUSH1 0x40 MLOAD DUP1 SWAP2 SUB SWAP1 RETURN JUMPDEST CALLVALUE DUP1 ISZERO PUSH2 0x77 JUMPI PUSH0 DUP1 REVERT JUMPDEST POP PUSH2 0x80 PUSH2 0xDE JUMP JUMPDEST PUSH1 0x40 MLOAD PUSH2 0x8D SWAP2 SWAP1 PUSH2 0x23E JUMP JUMPDEST PUSH1 0x40 MLOAD DUP1 SWAP2 SUB SWAP1 RETURN JUMPDEST PUSH2 0x9E PUSH2 0x101 JUMP JUMPDEST STOP JUMPDEST PUSH0 DUP1 PUSH0 SWAP1 SLOAD SWAP1 PUSH2 0x100 EXP SWAP1 DIV PUSH20 0xFFFFFFFFFFFFFFFFFFFFFFFFFFFFFFFFFFFFFFFF AND PUSH20 0xFFFFFFFFFFFFFFFFFFFFFFFFFFFFFFFFFFFFFFFF AND BALANCE SWAP1 POP SWAP1 JUMP JUMPDEST PUSH0 DUP1 SLOAD SWAP1 PUSH2 0x100 EXP SWAP1 DIV PUSH20 0xFFFFFFFFFFFFFFFFFFFFFFFFFFFFFFFFFFFFFFFF AND DUP2 JUMP JUMPDEST PUSH0 DUP1 PUSH0 SWAP1 SLOAD SWAP1 PUSH2 0x100 EXP SWAP1 DIV PUSH20 0xFFFFFFFFFFFFFFFFFFFFFFFFFFFFFFFFFFFFFFFF AND PUSH20 0xFFFFFFFFFFFFFFFFFFFFFFFFFFFFFFFFFFFFFFFF AND PUSH2 0x141 PUSH2 0xA0 JUMP JUMPDEST PUSH1 0x40 MLOAD PUSH2 0x14D SWAP1 PUSH2 0x284 JUMP JUMPDEST PUSH0 PUSH1 0x40 MLOAD DUP1 DUP4 SUB DUP2 DUP6 DUP8 GAS CALL SWAP3 POP POP POP RETURNDATASIZE DUP1 PUSH0 DUP2 EQ PUSH2 0x187 JUMPI PUSH1 0x40 MLOAD SWAP2 POP PUSH1 0x1F NOT PUSH1 0x3F RETURNDATASIZE ADD AND DUP3 ADD PUSH1 0x40 MSTORE RETURNDATASIZE DUP3 MSTORE RETURNDATASIZE PUSH0 PUSH1 0x20 DUP5 ADD RETURNDATACOPY PUSH2 0x18C JUMP JUMPDEST PUSH1 0x60 SWAP2 POP JUMPDEST POP POP SWAP1 POP POP JUMP JUMPDEST PUSH0 DUP2 SWAP1 POP SWAP2 SWAP1 POP JUMP JUMPDEST PUSH2 0x1A5 DUP2 PUSH2 0x193 JUMP JUMPDEST DUP3 MSTORE POP POP JUMP JUMPDEST PUSH0 PUSH1 0x20 DUP3 ADD SWAP1 POP PUSH2 0x1BE PUSH0 DUP4 ADD DUP5 PUSH2 0x19C JUMP JUMPDEST SWAP3 SWAP2 POP POP JUMP JUMPDEST PUSH0 PUSH20 0xFFFFFFFFFFFFFFFFFFFFFFFFFFFFFFFFFFFFFFFF DUP3 AND SWAP1 POP SWAP2 SWAP1 POP JUMP JUMPDEST PUSH0 DUP2 SWAP1 POP SWAP2 SWAP1 POP JUMP JUMPDEST PUSH0 PUSH2 0x206 PUSH2 0x201 PUSH2 0x1FC DUP5 PUSH2 0x1C4 JUMP JUMPDEST PUSH2 0x1E3 JUMP JUMPDEST PUSH2 0x1C4 JUMP JUMPDEST SWAP1 POP SWAP2 SWAP1 POP JUMP JUMPDEST PUSH0 PUSH2 0x217 DUP3 PUSH2 0x1EC JUMP JUMPDEST SWAP1 POP SWAP2 SWAP1 POP JUMP JUMPDEST PUSH0 PUSH2 0x228 DUP3 PUSH2 0x20D JUMP JUMPDEST SWAP1 POP SWAP2 SWAP1 POP JUMP JUMPDEST PUSH2 0x238 DUP2 PUSH2 0x21E JUMP JUMPDEST DUP3 MSTORE POP POP JUMP JUMPDEST PUSH0 PUSH1 0x20 DUP3 ADD SWAP1 POP PUSH2 0x251 PUSH0 DUP4 ADD DUP5 PUSH2 0x22F JUMP JUMPDEST SWAP3 SWAP2 POP POP JUMP JUMPDEST PUSH0 DUP2 SWAP1 POP SWAP3 SWAP2 POP POP JUMP JUMPDEST POP JUMP JUMPDEST PUSH0 PUSH2 0x26F PUSH0 DUP4 PUSH2 0x257 JUMP JUMPDEST SWAP2 POP PUSH2 0x27A DUP3 PUSH2 0x261 JUMP JUMPDEST PUSH0 DUP3 ADD SWAP1 POP SWAP2 SWAP1 POP JUMP JUMPDEST PUSH0 PUSH2 0x28E DUP3 PUSH2 0x264 JUMP JUMPDEST SWAP2 POP DUP2 SWAP1 POP SWAP2 SWAP1 POP JUMP INVALID LOG2 PUSH5 0x6970667358 0x22 SLT KECCAK256 MSTORE SWAP12 0xB6 0xFC 0xC7 0xD1 MUL TIMESTAMP 0xBD 0xF9 0xE3 INVALID EXP SDIV 0xD PUSH19 0xD75E932D3CF0D23C300C2ACC1DC9693F64736F PUSH13 0x63430008160033000000000000 "
				},
				"gasEstimates": {
					"creation": {
						"codeDepositCost": "143600",
						"executionCost": "infinite",
						"totalCost": "infinite"
					},
					"external": {
						"bank()": "infinite",
						"getBalance()": "5051",
						"pwn()": "infinite"
					}
				},
				"methodIdentifiers": {
					"bank()": "76cdb03b",
					"getBalance()": "12065fe0",
					"pwn()": "dd365b8b"
				}
			},
			"storageLayout": {
				"storage": [
					{
						"astId": 57,
						"contract": "contracts/52. Re-entrancy.sol:EthBankExploit",
						"label": "bank",
						"offset": 0,
						"slot": "0",
						"type": "t_contract(IEthBank)54"
					}
				],
				"types": {
					"t_contract(IEthBank)54": {
						"encoding": "inplace",
						"label": "contract IEthBank",
						"numberOfBytes": "20"
					}
				}
			},
			"userdoc": {
				"kind": "user",
				"methods": {},
				"version": 1
			}
		}
	}
}