{
	"contracts/33. Visibility.sol": {
		"VisibilityChild": {
			"abi": [
				{
					"inputs": [],
					"name": "add",
					"outputs": [
						{
							"internalType": "uint256",
							"name": "",
							"type": "uint256"
						}
					],
					"stateMutability": "view",
					"type": "function"
				},
				{
					"inputs": [],
					"name": "examples",
					"outputs": [],
					"stateMutability": "view",
					"type": "function"
				},
				{
					"inputs": [],
					"name": "examples2",
					"outputs": [],
					"stateMutability": "view",
					"type": "function"
				},
				{
					"inputs": [],
					"name": "externalFunc",
					"outputs": [
						{
							"internalType": "uint256",
							"name": "",
							"type": "uint256"
						}
					],
					"stateMutability": "pure",
					"type": "function"
				},
				{
					"inputs": [],
					"name": "publicFunc",
					"outputs": [
						{
							"internalType": "uint256",
							"name": "",
							"type": "uint256"
						}
					],
					"stateMutability": "pure",
					"type": "function"
				},
				{
					"inputs": [],
					"name": "z",
					"outputs": [
						{
							"internalType": "uint256",
							"name": "",
							"type": "uint256"
						}
					],
					"stateMutability": "view",
					"type": "function"
				}
			],
			"devdoc": {
				"kind": "dev",
				"methods": {},
				"version": 1
			},
			"evm": {
				"assembly": "    /* \"contracts/33. Visibility.sol\":2105:2478  contract VisibilityChild is VisibilityBase {... */\n  mstore(0x40, 0x80)\n    /* \"contracts/33. Visibility.sol\":672:673  0 */\n  0x00\n    /* \"contracts/33. Visibility.sol\":652:673  uint256 private x = 0 */\n  dup1\n  sstore\n    /* \"contracts/33. Visibility.sol\":700:701  1 */\n  0x01\n    /* \"contracts/33. Visibility.sol\":679:701  uint256 internal y = 1 */\n  dup1\n  sstore\n    /* \"contracts/33. Visibility.sol\":726:727  2 */\n  0x02\n    /* \"contracts/33. Visibility.sol\":707:727  uint256 public z = 2 */\n  dup1\n  sstore\n    /* \"contracts/33. Visibility.sol\":2105:2478  contract VisibilityChild is VisibilityBase {... */\n  callvalue\n  dup1\n  iszero\n  tag_1\n  jumpi\n  0x00\n  dup1\n  revert\ntag_1:\n  pop\n  dataSize(sub_0)\n  dup1\n  dataOffset(sub_0)\n  0x00\n  codecopy\n  0x00\n  return\nstop\n\nsub_0: assembly {\n        /* \"contracts/33. Visibility.sol\":2105:2478  contract VisibilityChild is VisibilityBase {... */\n      mstore(0x40, 0x80)\n      callvalue\n      dup1\n      iszero\n      tag_1\n      jumpi\n      0x00\n      dup1\n      revert\n    tag_1:\n      pop\n      jumpi(tag_2, lt(calldatasize, 0x04))\n      shr(0xe0, calldataload(0x00))\n      dup1\n      0x335d00c2\n      eq\n      tag_3\n      jumpi\n      dup1\n      0x42b148aa\n      eq\n      tag_4\n      jumpi\n      dup1\n      0x4b73383f\n      eq\n      tag_5\n      jumpi\n      dup1\n      0x4f2be91f\n      eq\n      tag_6\n      jumpi\n      dup1\n      0xc3be8e2c\n      eq\n      tag_7\n      jumpi\n      dup1\n      0xc5d7802e\n      eq\n      tag_8\n      jumpi\n    tag_2:\n      0x00\n      dup1\n      revert\n        /* \"contracts/33. Visibility.sol\":1596:2101  function examples() external view {... */\n    tag_3:\n      tag_9\n      tag_10\n      jump\t// in\n    tag_9:\n      stop\n        /* \"contracts/33. Visibility.sol\":1507:1590  function externalFunc() external pure returns (uint256) {... */\n    tag_4:\n      tag_11\n      tag_12\n      jump\t// in\n    tag_11:\n      mload(0x40)\n      tag_13\n      swap2\n      swap1\n      tag_14\n      jump\t// in\n    tag_13:\n      mload(0x40)\n      dup1\n      swap2\n      sub\n      swap1\n      return\n        /* \"contracts/33. Visibility.sol\":1336:1415  function publicFunc() public pure returns (uint256) {... */\n    tag_5:\n      tag_15\n      tag_16\n      jump\t// in\n    tag_15:\n      mload(0x40)\n      tag_17\n      swap2\n      swap1\n      tag_14\n      jump\t// in\n    tag_17:\n      mload(0x40)\n      dup1\n      swap2\n      sub\n      swap1\n      return\n        /* \"contracts/33. Visibility.sol\":2368:2476  function add() external view returns (uint256) {... */\n    tag_6:\n      tag_18\n      tag_19\n      jump\t// in\n    tag_18:\n      mload(0x40)\n      tag_20\n      swap2\n      swap1\n      tag_14\n      jump\t// in\n    tag_20:\n      mload(0x40)\n      dup1\n      swap2\n      sub\n      swap1\n      return\n        /* \"contracts/33. Visibility.sol\":2154:2362  function examples2() external view {... */\n    tag_7:\n      tag_21\n      tag_22\n      jump\t// in\n    tag_21:\n      stop\n        /* \"contracts/33. Visibility.sol\":707:727  uint256 public z = 2 */\n    tag_8:\n      tag_23\n      tag_24\n      jump\t// in\n    tag_23:\n      mload(0x40)\n      tag_25\n      swap2\n      swap1\n      tag_14\n      jump\t// in\n    tag_25:\n      mload(0x40)\n      dup1\n      swap2\n      sub\n      swap1\n      return\n        /* \"contracts/33. Visibility.sol\":1596:2101  function examples() external view {... */\n    tag_10:\n        /* \"contracts/33. Visibility.sol\":1682:1683  z */\n      sload(0x02)\n        /* \"contracts/33. Visibility.sol\":1678:1679  y */\n      sload(0x01)\n        /* \"contracts/33. Visibility.sol\":1674:1675  x */\n      sload(0x00)\n        /* \"contracts/33. Visibility.sol\":1674:1679  x + y */\n      tag_27\n      swap2\n      swap1\n      tag_28\n      jump\t// in\n    tag_27:\n        /* \"contracts/33. Visibility.sol\":1674:1683  x + y + z */\n      tag_29\n      swap2\n      swap1\n      tag_28\n      jump\t// in\n    tag_29:\n      pop\n        /* \"contracts/33. Visibility.sol\":1748:1761  privateFunc() */\n      tag_30\n        /* \"contracts/33. Visibility.sol\":1748:1759  privateFunc */\n      tag_31\n        /* \"contracts/33. Visibility.sol\":1748:1761  privateFunc() */\n      jump\t// in\n    tag_30:\n      pop\n        /* \"contracts/33. Visibility.sol\":1771:1785  internalFunc() */\n      tag_32\n        /* \"contracts/33. Visibility.sol\":1771:1783  internalFunc */\n      tag_33\n        /* \"contracts/33. Visibility.sol\":1771:1785  internalFunc() */\n      jump\t// in\n    tag_32:\n      pop\n        /* \"contracts/33. Visibility.sol\":1795:1807  publicFunc() */\n      tag_34\n        /* \"contracts/33. Visibility.sol\":1795:1805  publicFunc */\n      tag_16\n        /* \"contracts/33. Visibility.sol\":1795:1807  publicFunc() */\n      jump\t// in\n    tag_34:\n      pop\n        /* \"contracts/33. Visibility.sol\":2075:2079  this */\n      address\n        /* \"contracts/33. Visibility.sol\":2075:2092  this.externalFunc */\n      0xffffffffffffffffffffffffffffffffffffffff\n      and\n      0x42b148aa\n        /* \"contracts/33. Visibility.sol\":2075:2094  this.externalFunc() */\n      mload(0x40)\n      dup2\n      0xffffffff\n      and\n      0xe0\n      shl\n      dup2\n      mstore\n      0x04\n      add\n      0x20\n      mload(0x40)\n      dup1\n      dup4\n      sub\n      dup2\n      dup7\n      gas\n      staticcall\n      iszero\n      dup1\n      iszero\n      tag_36\n      jumpi\n      returndatasize\n      0x00\n      dup1\n      returndatacopy\n      revert(0x00, returndatasize)\n    tag_36:\n      pop\n      pop\n      pop\n      pop\n      mload(0x40)\n      returndatasize\n      not(0x1f)\n      0x1f\n      dup3\n      add\n      and\n      dup3\n      add\n      dup1\n      0x40\n      mstore\n      pop\n      dup2\n      add\n      swap1\n      tag_37\n      swap2\n      swap1\n      tag_38\n      jump\t// in\n    tag_37:\n      pop\n        /* \"contracts/33. Visibility.sol\":1596:2101  function examples() external view {... */\n      jump\t// out\n        /* \"contracts/33. Visibility.sol\":1507:1590  function externalFunc() external pure returns (uint256) {... */\n    tag_12:\n        /* \"contracts/33. Visibility.sol\":1554:1561  uint256 */\n      0x00\n        /* \"contracts/33. Visibility.sol\":1580:1583  300 */\n      0x012c\n        /* \"contracts/33. Visibility.sol\":1573:1583  return 300 */\n      swap1\n      pop\n        /* \"contracts/33. Visibility.sol\":1507:1590  function externalFunc() external pure returns (uint256) {... */\n      swap1\n      jump\t// out\n        /* \"contracts/33. Visibility.sol\":1336:1415  function publicFunc() public pure returns (uint256) {... */\n    tag_16:\n        /* \"contracts/33. Visibility.sol\":1379:1386  uint256 */\n      0x00\n        /* \"contracts/33. Visibility.sol\":1405:1408  200 */\n      0xc8\n        /* \"contracts/33. Visibility.sol\":1398:1408  return 200 */\n      swap1\n      pop\n        /* \"contracts/33. Visibility.sol\":1336:1415  function publicFunc() public pure returns (uint256) {... */\n      swap1\n      jump\t// out\n        /* \"contracts/33. Visibility.sol\":2368:2476  function add() external view returns (uint256) {... */\n    tag_19:\n        /* \"contracts/33. Visibility.sol\":2406:2413  uint256 */\n      0x00\n        /* \"contracts/33. Visibility.sol\":2457:2469  publicFunc() */\n      tag_42\n        /* \"contracts/33. Visibility.sol\":2457:2467  publicFunc */\n      tag_16\n        /* \"contracts/33. Visibility.sol\":2457:2469  publicFunc() */\n      jump\t// in\n    tag_42:\n        /* \"contracts/33. Visibility.sol\":2440:2454  internalFunc() */\n      tag_43\n        /* \"contracts/33. Visibility.sol\":2440:2452  internalFunc */\n      tag_33\n        /* \"contracts/33. Visibility.sol\":2440:2454  internalFunc() */\n      jump\t// in\n    tag_43:\n        /* \"contracts/33. Visibility.sol\":2436:2437  z */\n      sload(0x02)\n        /* \"contracts/33. Visibility.sol\":2432:2433  y */\n      sload(0x01)\n        /* \"contracts/33. Visibility.sol\":2432:2437  y + z */\n      tag_44\n      swap2\n      swap1\n      tag_28\n      jump\t// in\n    tag_44:\n        /* \"contracts/33. Visibility.sol\":2432:2454  y + z + internalFunc() */\n      tag_45\n      swap2\n      swap1\n      tag_28\n      jump\t// in\n    tag_45:\n        /* \"contracts/33. Visibility.sol\":2432:2469  y + z + internalFunc() + publicFunc() */\n      tag_46\n      swap2\n      swap1\n      tag_28\n      jump\t// in\n    tag_46:\n        /* \"contracts/33. Visibility.sol\":2425:2469  return y + z + internalFunc() + publicFunc() */\n      swap1\n      pop\n        /* \"contracts/33. Visibility.sol\":2368:2476  function add() external view returns (uint256) {... */\n      swap1\n      jump\t// out\n        /* \"contracts/33. Visibility.sol\":2154:2362  function examples2() external view {... */\n    tag_22:\n        /* \"contracts/33. Visibility.sol\":2259:2260  z */\n      sload(0x02)\n        /* \"contracts/33. Visibility.sol\":2255:2256  y */\n      sload(0x01)\n        /* \"contracts/33. Visibility.sol\":2255:2260  y + z */\n      tag_48\n      swap2\n      swap1\n      tag_28\n      jump\t// in\n    tag_48:\n      pop\n        /* \"contracts/33. Visibility.sol\":2319:2333  internalFunc() */\n      tag_49\n        /* \"contracts/33. Visibility.sol\":2319:2331  internalFunc */\n      tag_33\n        /* \"contracts/33. Visibility.sol\":2319:2333  internalFunc() */\n      jump\t// in\n    tag_49:\n      pop\n        /* \"contracts/33. Visibility.sol\":2343:2355  publicFunc() */\n      tag_50\n        /* \"contracts/33. Visibility.sol\":2343:2353  publicFunc */\n      tag_16\n        /* \"contracts/33. Visibility.sol\":2343:2355  publicFunc() */\n      jump\t// in\n    tag_50:\n      pop\n        /* \"contracts/33. Visibility.sol\":2154:2362  function examples2() external view {... */\n      jump\t// out\n        /* \"contracts/33. Visibility.sol\":707:727  uint256 public z = 2 */\n    tag_24:\n      sload(0x02)\n      dup2\n      jump\t// out\n        /* \"contracts/33. Visibility.sol\":878:957  function privateFunc() private pure returns (uint256) {... */\n    tag_31:\n        /* \"contracts/33. Visibility.sol\":923:930  uint256 */\n      0x00\n        /* \"contracts/33. Visibility.sol\":878:957  function privateFunc() private pure returns (uint256) {... */\n      swap1\n      jump\t// out\n        /* \"contracts/33. Visibility.sol\":1085:1168  function internalFunc() internal pure returns (uint256) {... */\n    tag_33:\n        /* \"contracts/33. Visibility.sol\":1132:1139  uint256 */\n      0x00\n        /* \"contracts/33. Visibility.sol\":1158:1161  100 */\n      0x64\n        /* \"contracts/33. Visibility.sol\":1151:1161  return 100 */\n      swap1\n      pop\n        /* \"contracts/33. Visibility.sol\":1085:1168  function internalFunc() internal pure returns (uint256) {... */\n      swap1\n      jump\t// out\n        /* \"#utility.yul\":7:84   */\n    tag_53:\n        /* \"#utility.yul\":44:51   */\n      0x00\n        /* \"#utility.yul\":73:78   */\n      dup2\n        /* \"#utility.yul\":62:78   */\n      swap1\n      pop\n        /* \"#utility.yul\":7:84   */\n      swap2\n      swap1\n      pop\n      jump\t// out\n        /* \"#utility.yul\":90:208   */\n    tag_54:\n        /* \"#utility.yul\":177:201   */\n      tag_64\n        /* \"#utility.yul\":195:200   */\n      dup2\n        /* \"#utility.yul\":177:201   */\n      tag_53\n      jump\t// in\n    tag_64:\n        /* \"#utility.yul\":172:175   */\n      dup3\n        /* \"#utility.yul\":165:202   */\n      mstore\n        /* \"#utility.yul\":90:208   */\n      pop\n      pop\n      jump\t// out\n        /* \"#utility.yul\":214:436   */\n    tag_14:\n        /* \"#utility.yul\":307:311   */\n      0x00\n        /* \"#utility.yul\":345:347   */\n      0x20\n        /* \"#utility.yul\":334:343   */\n      dup3\n        /* \"#utility.yul\":330:348   */\n      add\n        /* \"#utility.yul\":322:348   */\n      swap1\n      pop\n        /* \"#utility.yul\":358:429   */\n      tag_66\n        /* \"#utility.yul\":426:427   */\n      0x00\n        /* \"#utility.yul\":415:424   */\n      dup4\n        /* \"#utility.yul\":411:428   */\n      add\n        /* \"#utility.yul\":402:408   */\n      dup5\n        /* \"#utility.yul\":358:429   */\n      tag_54\n      jump\t// in\n    tag_66:\n        /* \"#utility.yul\":214:436   */\n      swap3\n      swap2\n      pop\n      pop\n      jump\t// out\n        /* \"#utility.yul\":442:622   */\n    tag_55:\n        /* \"#utility.yul\":490:567   */\n      0x4e487b7100000000000000000000000000000000000000000000000000000000\n        /* \"#utility.yul\":487:488   */\n      0x00\n        /* \"#utility.yul\":480:568   */\n      mstore\n        /* \"#utility.yul\":587:591   */\n      0x11\n        /* \"#utility.yul\":584:585   */\n      0x04\n        /* \"#utility.yul\":577:592   */\n      mstore\n        /* \"#utility.yul\":611:615   */\n      0x24\n        /* \"#utility.yul\":608:609   */\n      0x00\n        /* \"#utility.yul\":601:616   */\n      revert\n        /* \"#utility.yul\":628:819   */\n    tag_28:\n        /* \"#utility.yul\":668:671   */\n      0x00\n        /* \"#utility.yul\":687:707   */\n      tag_69\n        /* \"#utility.yul\":705:706   */\n      dup3\n        /* \"#utility.yul\":687:707   */\n      tag_53\n      jump\t// in\n    tag_69:\n        /* \"#utility.yul\":682:707   */\n      swap2\n      pop\n        /* \"#utility.yul\":721:741   */\n      tag_70\n        /* \"#utility.yul\":739:740   */\n      dup4\n        /* \"#utility.yul\":721:741   */\n      tag_53\n      jump\t// in\n    tag_70:\n        /* \"#utility.yul\":716:741   */\n      swap3\n      pop\n        /* \"#utility.yul\":764:765   */\n      dup3\n        /* \"#utility.yul\":761:762   */\n      dup3\n        /* \"#utility.yul\":757:766   */\n      add\n        /* \"#utility.yul\":750:766   */\n      swap1\n      pop\n        /* \"#utility.yul\":785:788   */\n      dup1\n        /* \"#utility.yul\":782:783   */\n      dup3\n        /* \"#utility.yul\":779:789   */\n      gt\n        /* \"#utility.yul\":776:812   */\n      iszero\n      tag_71\n      jumpi\n        /* \"#utility.yul\":792:810   */\n      tag_72\n      tag_55\n      jump\t// in\n    tag_72:\n        /* \"#utility.yul\":776:812   */\n    tag_71:\n        /* \"#utility.yul\":628:819   */\n      swap3\n      swap2\n      pop\n      pop\n      jump\t// out\n        /* \"#utility.yul\":906:1023   */\n    tag_57:\n        /* \"#utility.yul\":1015:1016   */\n      0x00\n        /* \"#utility.yul\":1012:1013   */\n      dup1\n        /* \"#utility.yul\":1005:1017   */\n      revert\n        /* \"#utility.yul\":1152:1274   */\n    tag_59:\n        /* \"#utility.yul\":1225:1249   */\n      tag_77\n        /* \"#utility.yul\":1243:1248   */\n      dup2\n        /* \"#utility.yul\":1225:1249   */\n      tag_53\n      jump\t// in\n    tag_77:\n        /* \"#utility.yul\":1218:1223   */\n      dup2\n        /* \"#utility.yul\":1215:1250   */\n      eq\n        /* \"#utility.yul\":1205:1268   */\n      tag_78\n      jumpi\n        /* \"#utility.yul\":1264:1265   */\n      0x00\n        /* \"#utility.yul\":1261:1262   */\n      dup1\n        /* \"#utility.yul\":1254:1266   */\n      revert\n        /* \"#utility.yul\":1205:1268   */\n    tag_78:\n        /* \"#utility.yul\":1152:1274   */\n      pop\n      jump\t// out\n        /* \"#utility.yul\":1280:1423   */\n    tag_60:\n        /* \"#utility.yul\":1337:1342   */\n      0x00\n        /* \"#utility.yul\":1368:1374   */\n      dup2\n        /* \"#utility.yul\":1362:1375   */\n      mload\n        /* \"#utility.yul\":1353:1375   */\n      swap1\n      pop\n        /* \"#utility.yul\":1384:1417   */\n      tag_80\n        /* \"#utility.yul\":1411:1416   */\n      dup2\n        /* \"#utility.yul\":1384:1417   */\n      tag_59\n      jump\t// in\n    tag_80:\n        /* \"#utility.yul\":1280:1423   */\n      swap3\n      swap2\n      pop\n      pop\n      jump\t// out\n        /* \"#utility.yul\":1429:1780   */\n    tag_38:\n        /* \"#utility.yul\":1499:1505   */\n      0x00\n        /* \"#utility.yul\":1548:1550   */\n      0x20\n        /* \"#utility.yul\":1536:1545   */\n      dup3\n        /* \"#utility.yul\":1527:1534   */\n      dup5\n        /* \"#utility.yul\":1523:1546   */\n      sub\n        /* \"#utility.yul\":1519:1551   */\n      slt\n        /* \"#utility.yul\":1516:1635   */\n      iszero\n      tag_82\n      jumpi\n        /* \"#utility.yul\":1554:1633   */\n      tag_83\n      tag_57\n      jump\t// in\n    tag_83:\n        /* \"#utility.yul\":1516:1635   */\n    tag_82:\n        /* \"#utility.yul\":1674:1675   */\n      0x00\n        /* \"#utility.yul\":1699:1763   */\n      tag_84\n        /* \"#utility.yul\":1755:1762   */\n      dup5\n        /* \"#utility.yul\":1746:1752   */\n      dup3\n        /* \"#utility.yul\":1735:1744   */\n      dup6\n        /* \"#utility.yul\":1731:1753   */\n      add\n        /* \"#utility.yul\":1699:1763   */\n      tag_60\n      jump\t// in\n    tag_84:\n        /* \"#utility.yul\":1689:1763   */\n      swap2\n      pop\n        /* \"#utility.yul\":1645:1773   */\n      pop\n        /* \"#utility.yul\":1429:1780   */\n      swap3\n      swap2\n      pop\n      pop\n      jump\t// out\n\n    auxdata: 0xa26469706673582212205bf2d8b0e98856eea4c37a443288fe8844d2c5ac75d91f1d00c4e16fc69df69c64736f6c63430008160033\n}\n",
				"bytecode": {
					"linkReferences": {},
					"object": "60806040525f8055600180556002805534801561001a575f80fd5b5061033a806100285f395ff3fe608060405234801561000f575f80fd5b5060043610610060575f3560e01c8063335d00c21461006457806342b148aa1461006e5780634b73383f1461008c5780634f2be91f146100aa578063c3be8e2c146100c8578063c5d7802e146100d2575b5f80fd5b61006c6100f0565b005b610076610198565b6040516100839190610232565b60405180910390f35b6100946101a1565b6040516100a19190610232565b60405180910390f35b6100b26101a9565b6040516100bf9190610232565b60405180910390f35b6100d06101e3565b005b6100da610208565b6040516100e79190610232565b60405180910390f35b6002546001545f546101029190610278565b61010c9190610278565b5061011561020e565b5061011e610212565b506101276101a1565b503073ffffffffffffffffffffffffffffffffffffffff166342b148aa6040518163ffffffff1660e01b8152600401602060405180830381865afa158015610171573d5f803e3d5ffd5b505050506040513d601f19601f8201168201806040525081019061019591906102d9565b50565b5f61012c905090565b5f60c8905090565b5f6101b26101a1565b6101ba610212565b6002546001546101ca9190610278565b6101d49190610278565b6101de9190610278565b905090565b6002546001546101f39190610278565b506101fc610212565b506102056101a1565b50565b60025481565b5f90565b5f6064905090565b5f819050919050565b61022c8161021a565b82525050565b5f6020820190506102455f830184610223565b92915050565b7f4e487b71000000000000000000000000000000000000000000000000000000005f52601160045260245ffd5b5f6102828261021a565b915061028d8361021a565b92508282019050808211156102a5576102a461024b565b5b92915050565b5f80fd5b6102b88161021a565b81146102c2575f80fd5b50565b5f815190506102d3816102af565b92915050565b5f602082840312156102ee576102ed6102ab565b5b5f6102fb848285016102c5565b9150509291505056fea26469706673582212205bf2d8b0e98856eea4c37a443288fe8844d2c5ac75d91f1d00c4e16fc69df69c64736f6c63430008160033",
					"opcodes": "PUSH1 0x80 PUSH1 0x40 MSTORE PUSH0 DUP1 SSTORE PUSH1 0x1 DUP1 SSTORE PUSH1 0x2 DUP1 SSTORE CALLVALUE DUP1 ISZERO PUSH2 0x1A JUMPI PUSH0 DUP1 REVERT JUMPDEST POP PUSH2 0x33A DUP1 PUSH2 0x28 PUSH0 CODECOPY PUSH0 RETURN INVALID PUSH1 0x80 PUSH1 0x40 MSTORE CALLVALUE DUP1 ISZERO PUSH2 0xF JUMPI PUSH0 DUP1 REVERT JUMPDEST POP PUSH1 0x4 CALLDATASIZE LT PUSH2 0x60 JUMPI PUSH0 CALLDATALOAD PUSH1 0xE0 SHR DUP1 PUSH4 0x335D00C2 EQ PUSH2 0x64 JUMPI DUP1 PUSH4 0x42B148AA EQ PUSH2 0x6E JUMPI DUP1 PUSH4 0x4B73383F EQ PUSH2 0x8C JUMPI DUP1 PUSH4 0x4F2BE91F EQ PUSH2 0xAA JUMPI DUP1 PUSH4 0xC3BE8E2C EQ PUSH2 0xC8 JUMPI DUP1 PUSH4 0xC5D7802E EQ PUSH2 0xD2 JUMPI JUMPDEST PUSH0 DUP1 REVERT JUMPDEST PUSH2 0x6C PUSH2 0xF0 JUMP JUMPDEST STOP JUMPDEST PUSH2 0x76 PUSH2 0x198 JUMP JUMPDEST PUSH1 0x40 MLOAD PUSH2 0x83 SWAP2 SWAP1 PUSH2 0x232 JUMP JUMPDEST PUSH1 0x40 MLOAD DUP1 SWAP2 SUB SWAP1 RETURN JUMPDEST PUSH2 0x94 PUSH2 0x1A1 JUMP JUMPDEST PUSH1 0x40 MLOAD PUSH2 0xA1 SWAP2 SWAP1 PUSH2 0x232 JUMP JUMPDEST PUSH1 0x40 MLOAD DUP1 SWAP2 SUB SWAP1 RETURN JUMPDEST PUSH2 0xB2 PUSH2 0x1A9 JUMP JUMPDEST PUSH1 0x40 MLOAD PUSH2 0xBF SWAP2 SWAP1 PUSH2 0x232 JUMP JUMPDEST PUSH1 0x40 MLOAD DUP1 SWAP2 SUB SWAP1 RETURN JUMPDEST PUSH2 0xD0 PUSH2 0x1E3 JUMP JUMPDEST STOP JUMPDEST PUSH2 0xDA PUSH2 0x208 JUMP JUMPDEST PUSH1 0x40 MLOAD PUSH2 0xE7 SWAP2 SWAP1 PUSH2 0x232 JUMP JUMPDEST PUSH1 0x40 MLOAD DUP1 SWAP2 SUB SWAP1 RETURN JUMPDEST PUSH1 0x2 SLOAD PUSH1 0x1 SLOAD PUSH0 SLOAD PUSH2 0x102 SWAP2 SWAP1 PUSH2 0x278 JUMP JUMPDEST PUSH2 0x10C SWAP2 SWAP1 PUSH2 0x278 JUMP JUMPDEST POP PUSH2 0x115 PUSH2 0x20E JUMP JUMPDEST POP PUSH2 0x11E PUSH2 0x212 JUMP JUMPDEST POP PUSH2 0x127 PUSH2 0x1A1 JUMP JUMPDEST POP ADDRESS PUSH20 0xFFFFFFFFFFFFFFFFFFFFFFFFFFFFFFFFFFFFFFFF AND PUSH4 0x42B148AA PUSH1 0x40 MLOAD DUP2 PUSH4 0xFFFFFFFF AND PUSH1 0xE0 SHL DUP2 MSTORE PUSH1 0x4 ADD PUSH1 0x20 PUSH1 0x40 MLOAD DUP1 DUP4 SUB DUP2 DUP7 GAS STATICCALL ISZERO DUP1 ISZERO PUSH2 0x171 JUMPI RETURNDATASIZE PUSH0 DUP1 RETURNDATACOPY RETURNDATASIZE PUSH0 REVERT JUMPDEST POP POP POP POP PUSH1 0x40 MLOAD RETURNDATASIZE PUSH1 0x1F NOT PUSH1 0x1F DUP3 ADD AND DUP3 ADD DUP1 PUSH1 0x40 MSTORE POP DUP2 ADD SWAP1 PUSH2 0x195 SWAP2 SWAP1 PUSH2 0x2D9 JUMP JUMPDEST POP JUMP JUMPDEST PUSH0 PUSH2 0x12C SWAP1 POP SWAP1 JUMP JUMPDEST PUSH0 PUSH1 0xC8 SWAP1 POP SWAP1 JUMP JUMPDEST PUSH0 PUSH2 0x1B2 PUSH2 0x1A1 JUMP JUMPDEST PUSH2 0x1BA PUSH2 0x212 JUMP JUMPDEST PUSH1 0x2 SLOAD PUSH1 0x1 SLOAD PUSH2 0x1CA SWAP2 SWAP1 PUSH2 0x278 JUMP JUMPDEST PUSH2 0x1D4 SWAP2 SWAP1 PUSH2 0x278 JUMP JUMPDEST PUSH2 0x1DE SWAP2 SWAP1 PUSH2 0x278 JUMP JUMPDEST SWAP1 POP SWAP1 JUMP JUMPDEST PUSH1 0x2 SLOAD PUSH1 0x1 SLOAD PUSH2 0x1F3 SWAP2 SWAP1 PUSH2 0x278 JUMP JUMPDEST POP PUSH2 0x1FC PUSH2 0x212 JUMP JUMPDEST POP PUSH2 0x205 PUSH2 0x1A1 JUMP JUMPDEST POP JUMP JUMPDEST PUSH1 0x2 SLOAD DUP2 JUMP JUMPDEST PUSH0 SWAP1 JUMP JUMPDEST PUSH0 PUSH1 0x64 SWAP1 POP SWAP1 JUMP JUMPDEST PUSH0 DUP2 SWAP1 POP SWAP2 SWAP1 POP JUMP JUMPDEST PUSH2 0x22C DUP2 PUSH2 0x21A JUMP JUMPDEST DUP3 MSTORE POP POP JUMP JUMPDEST PUSH0 PUSH1 0x20 DUP3 ADD SWAP1 POP PUSH2 0x245 PUSH0 DUP4 ADD DUP5 PUSH2 0x223 JUMP JUMPDEST SWAP3 SWAP2 POP POP JUMP JUMPDEST PUSH32 0x4E487B7100000000000000000000000000000000000000000000000000000000 PUSH0 MSTORE PUSH1 0x11 PUSH1 0x4 MSTORE PUSH1 0x24 PUSH0 REVERT JUMPDEST PUSH0 PUSH2 0x282 DUP3 PUSH2 0x21A JUMP JUMPDEST SWAP2 POP PUSH2 0x28D DUP4 PUSH2 0x21A JUMP JUMPDEST SWAP3 POP DUP3 DUP3 ADD SWAP1 POP DUP1 DUP3 GT ISZERO PUSH2 0x2A5 JUMPI PUSH2 0x2A4 PUSH2 0x24B JUMP JUMPDEST JUMPDEST SWAP3 SWAP2 POP POP JUMP JUMPDEST PUSH0 DUP1 REVERT JUMPDEST PUSH2 0x2B8 DUP2 PUSH2 0x21A JUMP JUMPDEST DUP2 EQ PUSH2 0x2C2 JUMPI PUSH0 DUP1 REVERT JUMPDEST POP JUMP JUMPDEST PUSH0 DUP2 MLOAD SWAP1 POP PUSH2 0x2D3 DUP2 PUSH2 0x2AF JUMP JUMPDEST SWAP3 SWAP2 POP POP JUMP JUMPDEST PUSH0 PUSH1 0x20 DUP3 DUP5 SUB SLT ISZERO PUSH2 0x2EE JUMPI PUSH2 0x2ED PUSH2 0x2AB JUMP JUMPDEST JUMPDEST PUSH0 PUSH2 0x2FB DUP5 DUP3 DUP6 ADD PUSH2 0x2C5 JUMP JUMPDEST SWAP2 POP POP SWAP3 SWAP2 POP POP JUMP INVALID LOG2 PUSH5 0x6970667358 0x22 SLT KECCAK256 JUMPDEST CALLCODE 0xD8 0xB0 0xE9 DUP9 JUMP 0xEE LOG4 0xC3 PUSH27 0x443288FE8844D2C5AC75D91F1D00C4E16FC69DF69C64736F6C6343 STOP ADDMOD AND STOP CALLER "
				},
				"gasEstimates": {
					"creation": {
						"codeDepositCost": "165200",
						"executionCost": "49423",
						"totalCost": "214623"
					},
					"external": {
						"add()": "infinite",
						"examples()": "infinite",
						"examples2()": "infinite",
						"externalFunc()": "332",
						"publicFunc()": "354",
						"z()": "2513"
					}
				},
				"methodIdentifiers": {
					"add()": "4f2be91f",
					"examples()": "335d00c2",
					"examples2()": "c3be8e2c",
					"externalFunc()": "42b148aa",
					"publicFunc()": "4b73383f",
					"z()": "c5d7802e"
				}
			},
			"storageLayout": {
				"storage": [
					{
						"astId": 4,
						"contract": "contracts/33. Visibility.sol:VisibilityChild",
						"label": "x",
						"offset": 0,
						"slot": "0",
						"type": "t_uint256"
					},
					{
						"astId": 7,
						"contract": "contracts/33. Visibility.sol:VisibilityChild",
						"label": "y",
						"offset": 0,
						"slot": "1",
						"type": "t_uint256"
					},
					{
						"astId": 10,
						"contract": "contracts/33. Visibility.sol:VisibilityChild",
						"label": "z",
						"offset": 0,
						"slot": "2",
						"type": "t_uint256"
					}
				],
				"types": {
					"t_uint256": {
						"encoding": "inplace",
						"label": "uint256",
						"numberOfBytes": "32"
					}
				}
			},
			"userdoc": {
				"kind": "user",
				"methods": {},
				"version": 1
			}
		}
	}
}