{
	"contracts/45. Hash Function.sol": {
		"HashFunc": {
			"abi": [
				{
					"inputs": [
						{
							"internalType": "string",
							"name": "text0",
							"type": "string"
						},
						{
							"internalType": "string",
							"name": "text1",
							"type": "string"
						}
					],
					"name": "collision",
					"outputs": [
						{
							"internalType": "bytes32",
							"name": "",
							"type": "bytes32"
						}
					],
					"stateMutability": "pure",
					"type": "function"
				},
				{
					"inputs": [
						{
							"internalType": "address",
							"name": "addr",
							"type": "address"
						},
						{
							"internalType": "uint256",
							"name": "num",
							"type": "uint256"
						}
					],
					"name": "getHash",
					"outputs": [
						{
							"internalType": "bytes32",
							"name": "",
							"type": "bytes32"
						}
					],
					"stateMutability": "pure",
					"type": "function"
				},
				{
					"inputs": [
						{
							"internalType": "string",
							"name": "text",
							"type": "string"
						},
						{
							"internalType": "uint256",
							"name": "num",
							"type": "uint256"
						},
						{
							"internalType": "address",
							"name": "addr",
							"type": "address"
						}
					],
					"name": "hash",
					"outputs": [
						{
							"internalType": "bytes32",
							"name": "",
							"type": "bytes32"
						}
					],
					"stateMutability": "pure",
					"type": "function"
				}
			],
			"devdoc": {
				"kind": "dev",
				"methods": {},
				"version": 1
			},
			"evm": {
				"assembly": "    /* \"contracts/45. Hash Function.sol\":444:1284  contract HashFunc {... */\n  mstore(0x40, 0x80)\n  callvalue\n  dup1\n  iszero\n  tag_1\n  jumpi\n  0x00\n  dup1\n  revert\ntag_1:\n  pop\n  dataSize(sub_0)\n  dup1\n  dataOffset(sub_0)\n  0x00\n  codecopy\n  0x00\n  return\nstop\n\nsub_0: assembly {\n        /* \"contracts/45. Hash Function.sol\":444:1284  contract HashFunc {... */\n      mstore(0x40, 0x80)\n      callvalue\n      dup1\n      iszero\n      tag_1\n      jumpi\n      0x00\n      dup1\n      revert\n    tag_1:\n      pop\n      jumpi(tag_2, lt(calldatasize, 0x04))\n      shr(0xe0, calldataload(0x00))\n      dup1\n      0x5dda416e\n      eq\n      tag_3\n      jumpi\n      dup1\n      0x7b7fb982\n      eq\n      tag_4\n      jumpi\n      dup1\n      0xed05582b\n      eq\n      tag_5\n      jumpi\n    tag_2:\n      0x00\n      dup1\n      revert\n        /* \"contracts/45. Hash Function.sol\":468:706  function hash(string memory text, uint256 num, address addr)... */\n    tag_3:\n      tag_6\n      0x04\n      dup1\n      calldatasize\n      sub\n      dup2\n      add\n      swap1\n      tag_7\n      swap2\n      swap1\n      tag_8\n      jump\t// in\n    tag_7:\n      tag_9\n      jump\t// in\n    tag_6:\n      mload(0x40)\n      tag_10\n      swap2\n      swap1\n      tag_11\n      jump\t// in\n    tag_10:\n      mload(0x40)\n      dup1\n      swap2\n      sub\n      swap1\n      return\n        /* \"contracts/45. Hash Function.sol\":883:1281  function collision(string memory text0, string memory text1) external pure returns(bytes32) {... */\n    tag_4:\n      tag_12\n      0x04\n      dup1\n      calldatasize\n      sub\n      dup2\n      add\n      swap1\n      tag_13\n      swap2\n      swap1\n      tag_14\n      jump\t// in\n    tag_13:\n      tag_15\n      jump\t// in\n    tag_12:\n      mload(0x40)\n      tag_16\n      swap2\n      swap1\n      tag_11\n      jump\t// in\n    tag_16:\n      mload(0x40)\n      dup1\n      swap2\n      sub\n      swap1\n      return\n        /* \"contracts/45. Hash Function.sol\":712:877  function getHash(address addr, uint256 num)... */\n    tag_5:\n      tag_17\n      0x04\n      dup1\n      calldatasize\n      sub\n      dup2\n      add\n      swap1\n      tag_18\n      swap2\n      swap1\n      tag_19\n      jump\t// in\n    tag_18:\n      tag_20\n      jump\t// in\n    tag_17:\n      mload(0x40)\n      tag_21\n      swap2\n      swap1\n      tag_11\n      jump\t// in\n    tag_21:\n      mload(0x40)\n      dup1\n      swap2\n      sub\n      swap1\n      return\n        /* \"contracts/45. Hash Function.sol\":468:706  function hash(string memory text, uint256 num, address addr)... */\n    tag_9:\n        /* \"contracts/45. Hash Function.sol\":576:583  bytes32 */\n      0x00\n        /* \"contracts/45. Hash Function.sol\":633:637  text */\n      dup4\n        /* \"contracts/45. Hash Function.sol\":639:642  num */\n      dup4\n        /* \"contracts/45. Hash Function.sol\":644:648  addr */\n      dup4\n        /* \"contracts/45. Hash Function.sol\":616:649  abi.encodePacked(text, num, addr) */\n      add(0x20, mload(0x40))\n      tag_23\n      swap4\n      swap3\n      swap2\n      swap1\n      tag_24\n      jump\t// in\n    tag_23:\n      mload(0x40)\n      0x20\n      dup2\n      dup4\n      sub\n      sub\n      dup2\n      mstore\n      swap1\n      0x40\n      mstore\n        /* \"contracts/45. Hash Function.sol\":606:650  keccak256(abi.encodePacked(text, num, addr)) */\n      dup1\n      mload\n      swap1\n      0x20\n      add\n      keccak256\n        /* \"contracts/45. Hash Function.sol\":599:650  return keccak256(abi.encodePacked(text, num, addr)) */\n      swap1\n      pop\n        /* \"contracts/45. Hash Function.sol\":468:706  function hash(string memory text, uint256 num, address addr)... */\n      swap4\n      swap3\n      pop\n      pop\n      pop\n      jump\t// out\n        /* \"contracts/45. Hash Function.sol\":883:1281  function collision(string memory text0, string memory text1) external pure returns(bytes32) {... */\n    tag_15:\n        /* \"contracts/45. Hash Function.sol\":966:973  bytes32 */\n      0x00\n        /* \"contracts/45. Hash Function.sol\":1019:1024  text0 */\n      dup3\n        /* \"contracts/45. Hash Function.sol\":1025:1030  text1 */\n      dup3\n        /* \"contracts/45. Hash Function.sol\":1002:1031  abi.encodePacked(text0,text1) */\n      add(0x20, mload(0x40))\n      tag_26\n      swap3\n      swap2\n      swap1\n      tag_27\n      jump\t// in\n    tag_26:\n      mload(0x40)\n      0x20\n      dup2\n      dup4\n      sub\n      sub\n      dup2\n      mstore\n      swap1\n      0x40\n      mstore\n        /* \"contracts/45. Hash Function.sol\":992:1032  keccak256(abi.encodePacked(text0,text1)) */\n      dup1\n      mload\n      swap1\n      0x20\n      add\n      keccak256\n        /* \"contracts/45. Hash Function.sol\":985:1032  return keccak256(abi.encodePacked(text0,text1)) */\n      swap1\n      pop\n        /* \"contracts/45. Hash Function.sol\":883:1281  function collision(string memory text0, string memory text1) external pure returns(bytes32) {... */\n      swap3\n      swap2\n      pop\n      pop\n      jump\t// out\n        /* \"contracts/45. Hash Function.sol\":712:877  function getHash(address addr, uint256 num)... */\n    tag_20:\n        /* \"contracts/45. Hash Function.sol\":803:810  bytes32 */\n      0x00\n        /* \"contracts/45. Hash Function.sol\":860:864  addr */\n      dup3\n        /* \"contracts/45. Hash Function.sol\":865:868  num */\n      dup3\n        /* \"contracts/45. Hash Function.sol\":843:869  abi.encodePacked(addr,num) */\n      add(0x20, mload(0x40))\n      tag_29\n      swap3\n      swap2\n      swap1\n      tag_30\n      jump\t// in\n    tag_29:\n      mload(0x40)\n      0x20\n      dup2\n      dup4\n      sub\n      sub\n      dup2\n      mstore\n      swap1\n      0x40\n      mstore\n        /* \"contracts/45. Hash Function.sol\":833:870  keccak256(abi.encodePacked(addr,num)) */\n      dup1\n      mload\n      swap1\n      0x20\n      add\n      keccak256\n        /* \"contracts/45. Hash Function.sol\":826:870  return keccak256(abi.encodePacked(addr,num)) */\n      swap1\n      pop\n        /* \"contracts/45. Hash Function.sol\":712:877  function getHash(address addr, uint256 num)... */\n      swap3\n      swap2\n      pop\n      pop\n      jump\t// out\n        /* \"#utility.yul\":7:82   */\n    tag_31:\n        /* \"#utility.yul\":40:46   */\n      0x00\n        /* \"#utility.yul\":73:75   */\n      0x40\n        /* \"#utility.yul\":67:76   */\n      mload\n        /* \"#utility.yul\":57:76   */\n      swap1\n      pop\n        /* \"#utility.yul\":7:82   */\n      swap1\n      jump\t// out\n        /* \"#utility.yul\":88:205   */\n    tag_32:\n        /* \"#utility.yul\":197:198   */\n      0x00\n        /* \"#utility.yul\":194:195   */\n      dup1\n        /* \"#utility.yul\":187:199   */\n      revert\n        /* \"#utility.yul\":211:328   */\n    tag_33:\n        /* \"#utility.yul\":320:321   */\n      0x00\n        /* \"#utility.yul\":317:318   */\n      dup1\n        /* \"#utility.yul\":310:322   */\n      revert\n        /* \"#utility.yul\":334:451   */\n    tag_34:\n        /* \"#utility.yul\":443:444   */\n      0x00\n        /* \"#utility.yul\":440:441   */\n      dup1\n        /* \"#utility.yul\":433:445   */\n      revert\n        /* \"#utility.yul\":457:574   */\n    tag_35:\n        /* \"#utility.yul\":566:567   */\n      0x00\n        /* \"#utility.yul\":563:564   */\n      dup1\n        /* \"#utility.yul\":556:568   */\n      revert\n        /* \"#utility.yul\":580:682   */\n    tag_36:\n        /* \"#utility.yul\":621:627   */\n      0x00\n        /* \"#utility.yul\":672:674   */\n      0x1f\n        /* \"#utility.yul\":668:675   */\n      not\n        /* \"#utility.yul\":663:665   */\n      0x1f\n        /* \"#utility.yul\":656:661   */\n      dup4\n        /* \"#utility.yul\":652:666   */\n      add\n        /* \"#utility.yul\":648:676   */\n      and\n        /* \"#utility.yul\":638:676   */\n      swap1\n      pop\n        /* \"#utility.yul\":580:682   */\n      swap2\n      swap1\n      pop\n      jump\t// out\n        /* \"#utility.yul\":688:868   */\n    tag_37:\n        /* \"#utility.yul\":736:813   */\n      0x4e487b7100000000000000000000000000000000000000000000000000000000\n        /* \"#utility.yul\":733:734   */\n      0x00\n        /* \"#utility.yul\":726:814   */\n      mstore\n        /* \"#utility.yul\":833:837   */\n      0x41\n        /* \"#utility.yul\":830:831   */\n      0x04\n        /* \"#utility.yul\":823:838   */\n      mstore\n        /* \"#utility.yul\":857:861   */\n      0x24\n        /* \"#utility.yul\":854:855   */\n      0x00\n        /* \"#utility.yul\":847:862   */\n      revert\n        /* \"#utility.yul\":874:1155   */\n    tag_38:\n        /* \"#utility.yul\":957:984   */\n      tag_72\n        /* \"#utility.yul\":979:983   */\n      dup3\n        /* \"#utility.yul\":957:984   */\n      tag_36\n      jump\t// in\n    tag_72:\n        /* \"#utility.yul\":949:955   */\n      dup2\n        /* \"#utility.yul\":945:985   */\n      add\n        /* \"#utility.yul\":1087:1093   */\n      dup2\n        /* \"#utility.yul\":1075:1085   */\n      dup2\n        /* \"#utility.yul\":1072:1094   */\n      lt\n        /* \"#utility.yul\":1051:1069   */\n      0xffffffffffffffff\n        /* \"#utility.yul\":1039:1049   */\n      dup3\n        /* \"#utility.yul\":1036:1070   */\n      gt\n        /* \"#utility.yul\":1033:1095   */\n      or\n        /* \"#utility.yul\":1030:1118   */\n      iszero\n      tag_73\n      jumpi\n        /* \"#utility.yul\":1098:1116   */\n      tag_74\n      tag_37\n      jump\t// in\n    tag_74:\n        /* \"#utility.yul\":1030:1118   */\n    tag_73:\n        /* \"#utility.yul\":1138:1148   */\n      dup1\n        /* \"#utility.yul\":1134:1136   */\n      0x40\n        /* \"#utility.yul\":1127:1149   */\n      mstore\n        /* \"#utility.yul\":917:1155   */\n      pop\n        /* \"#utility.yul\":874:1155   */\n      pop\n      pop\n      jump\t// out\n        /* \"#utility.yul\":1161:1290   */\n    tag_39:\n        /* \"#utility.yul\":1195:1201   */\n      0x00\n        /* \"#utility.yul\":1222:1242   */\n      tag_76\n      tag_31\n      jump\t// in\n    tag_76:\n        /* \"#utility.yul\":1212:1242   */\n      swap1\n      pop\n        /* \"#utility.yul\":1251:1284   */\n      tag_77\n        /* \"#utility.yul\":1279:1283   */\n      dup3\n        /* \"#utility.yul\":1271:1277   */\n      dup3\n        /* \"#utility.yul\":1251:1284   */\n      tag_38\n      jump\t// in\n    tag_77:\n        /* \"#utility.yul\":1161:1290   */\n      swap2\n      swap1\n      pop\n      jump\t// out\n        /* \"#utility.yul\":1296:1604   */\n    tag_40:\n        /* \"#utility.yul\":1358:1362   */\n      0x00\n        /* \"#utility.yul\":1448:1466   */\n      0xffffffffffffffff\n        /* \"#utility.yul\":1440:1446   */\n      dup3\n        /* \"#utility.yul\":1437:1467   */\n      gt\n        /* \"#utility.yul\":1434:1490   */\n      iszero\n      tag_79\n      jumpi\n        /* \"#utility.yul\":1470:1488   */\n      tag_80\n      tag_37\n      jump\t// in\n    tag_80:\n        /* \"#utility.yul\":1434:1490   */\n    tag_79:\n        /* \"#utility.yul\":1508:1537   */\n      tag_81\n        /* \"#utility.yul\":1530:1536   */\n      dup3\n        /* \"#utility.yul\":1508:1537   */\n      tag_36\n      jump\t// in\n    tag_81:\n        /* \"#utility.yul\":1500:1537   */\n      swap1\n      pop\n        /* \"#utility.yul\":1592:1596   */\n      0x20\n        /* \"#utility.yul\":1586:1590   */\n      dup2\n        /* \"#utility.yul\":1582:1597   */\n      add\n        /* \"#utility.yul\":1574:1597   */\n      swap1\n      pop\n        /* \"#utility.yul\":1296:1604   */\n      swap2\n      swap1\n      pop\n      jump\t// out\n        /* \"#utility.yul\":1610:1756   */\n    tag_41:\n        /* \"#utility.yul\":1707:1713   */\n      dup3\n        /* \"#utility.yul\":1702:1705   */\n      dup2\n        /* \"#utility.yul\":1697:1700   */\n      dup4\n        /* \"#utility.yul\":1684:1714   */\n      calldatacopy\n        /* \"#utility.yul\":1748:1749   */\n      0x00\n        /* \"#utility.yul\":1739:1745   */\n      dup4\n        /* \"#utility.yul\":1734:1737   */\n      dup4\n        /* \"#utility.yul\":1730:1746   */\n      add\n        /* \"#utility.yul\":1723:1750   */\n      mstore\n        /* \"#utility.yul\":1610:1756   */\n      pop\n      pop\n      pop\n      jump\t// out\n        /* \"#utility.yul\":1762:2187   */\n    tag_42:\n        /* \"#utility.yul\":1840:1845   */\n      0x00\n        /* \"#utility.yul\":1865:1931   */\n      tag_84\n        /* \"#utility.yul\":1881:1930   */\n      tag_85\n        /* \"#utility.yul\":1923:1929   */\n      dup5\n        /* \"#utility.yul\":1881:1930   */\n      tag_40\n      jump\t// in\n    tag_85:\n        /* \"#utility.yul\":1865:1931   */\n      tag_39\n      jump\t// in\n    tag_84:\n        /* \"#utility.yul\":1856:1931   */\n      swap1\n      pop\n        /* \"#utility.yul\":1954:1960   */\n      dup3\n        /* \"#utility.yul\":1947:1952   */\n      dup2\n        /* \"#utility.yul\":1940:1961   */\n      mstore\n        /* \"#utility.yul\":1992:1996   */\n      0x20\n        /* \"#utility.yul\":1985:1990   */\n      dup2\n        /* \"#utility.yul\":1981:1997   */\n      add\n        /* \"#utility.yul\":2030:2033   */\n      dup5\n        /* \"#utility.yul\":2021:2027   */\n      dup5\n        /* \"#utility.yul\":2016:2019   */\n      dup5\n        /* \"#utility.yul\":2012:2028   */\n      add\n        /* \"#utility.yul\":2009:2034   */\n      gt\n        /* \"#utility.yul\":2006:2118   */\n      iszero\n      tag_86\n      jumpi\n        /* \"#utility.yul\":2037:2116   */\n      tag_87\n      tag_35\n      jump\t// in\n    tag_87:\n        /* \"#utility.yul\":2006:2118   */\n    tag_86:\n        /* \"#utility.yul\":2127:2181   */\n      tag_88\n        /* \"#utility.yul\":2174:2180   */\n      dup5\n        /* \"#utility.yul\":2169:2172   */\n      dup3\n        /* \"#utility.yul\":2164:2167   */\n      dup6\n        /* \"#utility.yul\":2127:2181   */\n      tag_41\n      jump\t// in\n    tag_88:\n        /* \"#utility.yul\":1846:2187   */\n      pop\n        /* \"#utility.yul\":1762:2187   */\n      swap4\n      swap3\n      pop\n      pop\n      pop\n      jump\t// out\n        /* \"#utility.yul\":2207:2547   */\n    tag_43:\n        /* \"#utility.yul\":2263:2268   */\n      0x00\n        /* \"#utility.yul\":2312:2315   */\n      dup3\n        /* \"#utility.yul\":2305:2309   */\n      0x1f\n        /* \"#utility.yul\":2297:2303   */\n      dup4\n        /* \"#utility.yul\":2293:2310   */\n      add\n        /* \"#utility.yul\":2289:2316   */\n      slt\n        /* \"#utility.yul\":2279:2401   */\n      tag_90\n      jumpi\n        /* \"#utility.yul\":2320:2399   */\n      tag_91\n      tag_34\n      jump\t// in\n    tag_91:\n        /* \"#utility.yul\":2279:2401   */\n    tag_90:\n        /* \"#utility.yul\":2437:2443   */\n      dup2\n        /* \"#utility.yul\":2424:2444   */\n      calldataload\n        /* \"#utility.yul\":2462:2541   */\n      tag_92\n        /* \"#utility.yul\":2537:2540   */\n      dup5\n        /* \"#utility.yul\":2529:2535   */\n      dup3\n        /* \"#utility.yul\":2522:2526   */\n      0x20\n        /* \"#utility.yul\":2514:2520   */\n      dup7\n        /* \"#utility.yul\":2510:2527   */\n      add\n        /* \"#utility.yul\":2462:2541   */\n      tag_42\n      jump\t// in\n    tag_92:\n        /* \"#utility.yul\":2453:2541   */\n      swap2\n      pop\n        /* \"#utility.yul\":2269:2547   */\n      pop\n        /* \"#utility.yul\":2207:2547   */\n      swap3\n      swap2\n      pop\n      pop\n      jump\t// out\n        /* \"#utility.yul\":2553:2630   */\n    tag_44:\n        /* \"#utility.yul\":2590:2597   */\n      0x00\n        /* \"#utility.yul\":2619:2624   */\n      dup2\n        /* \"#utility.yul\":2608:2624   */\n      swap1\n      pop\n        /* \"#utility.yul\":2553:2630   */\n      swap2\n      swap1\n      pop\n      jump\t// out\n        /* \"#utility.yul\":2636:2758   */\n    tag_45:\n        /* \"#utility.yul\":2709:2733   */\n      tag_95\n        /* \"#utility.yul\":2727:2732   */\n      dup2\n        /* \"#utility.yul\":2709:2733   */\n      tag_44\n      jump\t// in\n    tag_95:\n        /* \"#utility.yul\":2702:2707   */\n      dup2\n        /* \"#utility.yul\":2699:2734   */\n      eq\n        /* \"#utility.yul\":2689:2752   */\n      tag_96\n      jumpi\n        /* \"#utility.yul\":2748:2749   */\n      0x00\n        /* \"#utility.yul\":2745:2746   */\n      dup1\n        /* \"#utility.yul\":2738:2750   */\n      revert\n        /* \"#utility.yul\":2689:2752   */\n    tag_96:\n        /* \"#utility.yul\":2636:2758   */\n      pop\n      jump\t// out\n        /* \"#utility.yul\":2764:2903   */\n    tag_46:\n        /* \"#utility.yul\":2810:2815   */\n      0x00\n        /* \"#utility.yul\":2848:2854   */\n      dup2\n        /* \"#utility.yul\":2835:2855   */\n      calldataload\n        /* \"#utility.yul\":2826:2855   */\n      swap1\n      pop\n        /* \"#utility.yul\":2864:2897   */\n      tag_98\n        /* \"#utility.yul\":2891:2896   */\n      dup2\n        /* \"#utility.yul\":2864:2897   */\n      tag_45\n      jump\t// in\n    tag_98:\n        /* \"#utility.yul\":2764:2903   */\n      swap3\n      swap2\n      pop\n      pop\n      jump\t// out\n        /* \"#utility.yul\":2909:3035   */\n    tag_47:\n        /* \"#utility.yul\":2946:2953   */\n      0x00\n        /* \"#utility.yul\":2986:3028   */\n      0xffffffffffffffffffffffffffffffffffffffff\n        /* \"#utility.yul\":2979:2984   */\n      dup3\n        /* \"#utility.yul\":2975:3029   */\n      and\n        /* \"#utility.yul\":2964:3029   */\n      swap1\n      pop\n        /* \"#utility.yul\":2909:3035   */\n      swap2\n      swap1\n      pop\n      jump\t// out\n        /* \"#utility.yul\":3041:3137   */\n    tag_48:\n        /* \"#utility.yul\":3078:3085   */\n      0x00\n        /* \"#utility.yul\":3107:3131   */\n      tag_101\n        /* \"#utility.yul\":3125:3130   */\n      dup3\n        /* \"#utility.yul\":3107:3131   */\n      tag_47\n      jump\t// in\n    tag_101:\n        /* \"#utility.yul\":3096:3131   */\n      swap1\n      pop\n        /* \"#utility.yul\":3041:3137   */\n      swap2\n      swap1\n      pop\n      jump\t// out\n        /* \"#utility.yul\":3143:3265   */\n    tag_49:\n        /* \"#utility.yul\":3216:3240   */\n      tag_103\n        /* \"#utility.yul\":3234:3239   */\n      dup2\n        /* \"#utility.yul\":3216:3240   */\n      tag_48\n      jump\t// in\n    tag_103:\n        /* \"#utility.yul\":3209:3214   */\n      dup2\n        /* \"#utility.yul\":3206:3241   */\n      eq\n        /* \"#utility.yul\":3196:3259   */\n      tag_104\n      jumpi\n        /* \"#utility.yul\":3255:3256   */\n      0x00\n        /* \"#utility.yul\":3252:3253   */\n      dup1\n        /* \"#utility.yul\":3245:3257   */\n      revert\n        /* \"#utility.yul\":3196:3259   */\n    tag_104:\n        /* \"#utility.yul\":3143:3265   */\n      pop\n      jump\t// out\n        /* \"#utility.yul\":3271:3410   */\n    tag_50:\n        /* \"#utility.yul\":3317:3322   */\n      0x00\n        /* \"#utility.yul\":3355:3361   */\n      dup2\n        /* \"#utility.yul\":3342:3362   */\n      calldataload\n        /* \"#utility.yul\":3333:3362   */\n      swap1\n      pop\n        /* \"#utility.yul\":3371:3404   */\n      tag_106\n        /* \"#utility.yul\":3398:3403   */\n      dup2\n        /* \"#utility.yul\":3371:3404   */\n      tag_49\n      jump\t// in\n    tag_106:\n        /* \"#utility.yul\":3271:3410   */\n      swap3\n      swap2\n      pop\n      pop\n      jump\t// out\n        /* \"#utility.yul\":3416:4215   */\n    tag_8:\n        /* \"#utility.yul\":3503:3509   */\n      0x00\n        /* \"#utility.yul\":3511:3517   */\n      dup1\n        /* \"#utility.yul\":3519:3525   */\n      0x00\n        /* \"#utility.yul\":3568:3570   */\n      0x60\n        /* \"#utility.yul\":3556:3565   */\n      dup5\n        /* \"#utility.yul\":3547:3554   */\n      dup7\n        /* \"#utility.yul\":3543:3566   */\n      sub\n        /* \"#utility.yul\":3539:3571   */\n      slt\n        /* \"#utility.yul\":3536:3655   */\n      iszero\n      tag_108\n      jumpi\n        /* \"#utility.yul\":3574:3653   */\n      tag_109\n      tag_32\n      jump\t// in\n    tag_109:\n        /* \"#utility.yul\":3536:3655   */\n    tag_108:\n        /* \"#utility.yul\":3722:3723   */\n      0x00\n        /* \"#utility.yul\":3711:3720   */\n      dup5\n        /* \"#utility.yul\":3707:3724   */\n      add\n        /* \"#utility.yul\":3694:3725   */\n      calldataload\n        /* \"#utility.yul\":3752:3770   */\n      0xffffffffffffffff\n        /* \"#utility.yul\":3744:3750   */\n      dup2\n        /* \"#utility.yul\":3741:3771   */\n      gt\n        /* \"#utility.yul\":3738:3855   */\n      iszero\n      tag_110\n      jumpi\n        /* \"#utility.yul\":3774:3853   */\n      tag_111\n      tag_33\n      jump\t// in\n    tag_111:\n        /* \"#utility.yul\":3738:3855   */\n    tag_110:\n        /* \"#utility.yul\":3879:3942   */\n      tag_112\n        /* \"#utility.yul\":3934:3941   */\n      dup7\n        /* \"#utility.yul\":3925:3931   */\n      dup3\n        /* \"#utility.yul\":3914:3923   */\n      dup8\n        /* \"#utility.yul\":3910:3932   */\n      add\n        /* \"#utility.yul\":3879:3942   */\n      tag_43\n      jump\t// in\n    tag_112:\n        /* \"#utility.yul\":3869:3942   */\n      swap4\n      pop\n        /* \"#utility.yul\":3665:3952   */\n      pop\n        /* \"#utility.yul\":3991:3993   */\n      0x20\n        /* \"#utility.yul\":4017:4070   */\n      tag_113\n        /* \"#utility.yul\":4062:4069   */\n      dup7\n        /* \"#utility.yul\":4053:4059   */\n      dup3\n        /* \"#utility.yul\":4042:4051   */\n      dup8\n        /* \"#utility.yul\":4038:4060   */\n      add\n        /* \"#utility.yul\":4017:4070   */\n      tag_46\n      jump\t// in\n    tag_113:\n        /* \"#utility.yul\":4007:4070   */\n      swap3\n      pop\n        /* \"#utility.yul\":3962:4080   */\n      pop\n        /* \"#utility.yul\":4119:4121   */\n      0x40\n        /* \"#utility.yul\":4145:4198   */\n      tag_114\n        /* \"#utility.yul\":4190:4197   */\n      dup7\n        /* \"#utility.yul\":4181:4187   */\n      dup3\n        /* \"#utility.yul\":4170:4179   */\n      dup8\n        /* \"#utility.yul\":4166:4188   */\n      add\n        /* \"#utility.yul\":4145:4198   */\n      tag_50\n      jump\t// in\n    tag_114:\n        /* \"#utility.yul\":4135:4198   */\n      swap2\n      pop\n        /* \"#utility.yul\":4090:4208   */\n      pop\n        /* \"#utility.yul\":3416:4215   */\n      swap3\n      pop\n      swap3\n      pop\n      swap3\n      jump\t// out\n        /* \"#utility.yul\":4221:4298   */\n    tag_51:\n        /* \"#utility.yul\":4258:4265   */\n      0x00\n        /* \"#utility.yul\":4287:4292   */\n      dup2\n        /* \"#utility.yul\":4276:4292   */\n      swap1\n      pop\n        /* \"#utility.yul\":4221:4298   */\n      swap2\n      swap1\n      pop\n      jump\t// out\n        /* \"#utility.yul\":4304:4422   */\n    tag_52:\n        /* \"#utility.yul\":4391:4415   */\n      tag_117\n        /* \"#utility.yul\":4409:4414   */\n      dup2\n        /* \"#utility.yul\":4391:4415   */\n      tag_51\n      jump\t// in\n    tag_117:\n        /* \"#utility.yul\":4386:4389   */\n      dup3\n        /* \"#utility.yul\":4379:4416   */\n      mstore\n        /* \"#utility.yul\":4304:4422   */\n      pop\n      pop\n      jump\t// out\n        /* \"#utility.yul\":4428:4650   */\n    tag_11:\n        /* \"#utility.yul\":4521:4525   */\n      0x00\n        /* \"#utility.yul\":4559:4561   */\n      0x20\n        /* \"#utility.yul\":4548:4557   */\n      dup3\n        /* \"#utility.yul\":4544:4562   */\n      add\n        /* \"#utility.yul\":4536:4562   */\n      swap1\n      pop\n        /* \"#utility.yul\":4572:4643   */\n      tag_119\n        /* \"#utility.yul\":4640:4641   */\n      0x00\n        /* \"#utility.yul\":4629:4638   */\n      dup4\n        /* \"#utility.yul\":4625:4642   */\n      add\n        /* \"#utility.yul\":4616:4622   */\n      dup5\n        /* \"#utility.yul\":4572:4643   */\n      tag_52\n      jump\t// in\n    tag_119:\n        /* \"#utility.yul\":4428:4650   */\n      swap3\n      swap2\n      pop\n      pop\n      jump\t// out\n        /* \"#utility.yul\":4656:5490   */\n    tag_14:\n        /* \"#utility.yul\":4744:4750   */\n      0x00\n        /* \"#utility.yul\":4752:4758   */\n      dup1\n        /* \"#utility.yul\":4801:4803   */\n      0x40\n        /* \"#utility.yul\":4789:4798   */\n      dup4\n        /* \"#utility.yul\":4780:4787   */\n      dup6\n        /* \"#utility.yul\":4776:4799   */\n      sub\n        /* \"#utility.yul\":4772:4804   */\n      slt\n        /* \"#utility.yul\":4769:4888   */\n      iszero\n      tag_121\n      jumpi\n        /* \"#utility.yul\":4807:4886   */\n      tag_122\n      tag_32\n      jump\t// in\n    tag_122:\n        /* \"#utility.yul\":4769:4888   */\n    tag_121:\n        /* \"#utility.yul\":4955:4956   */\n      0x00\n        /* \"#utility.yul\":4944:4953   */\n      dup4\n        /* \"#utility.yul\":4940:4957   */\n      add\n        /* \"#utility.yul\":4927:4958   */\n      calldataload\n        /* \"#utility.yul\":4985:5003   */\n      0xffffffffffffffff\n        /* \"#utility.yul\":4977:4983   */\n      dup2\n        /* \"#utility.yul\":4974:5004   */\n      gt\n        /* \"#utility.yul\":4971:5088   */\n      iszero\n      tag_123\n      jumpi\n        /* \"#utility.yul\":5007:5086   */\n      tag_124\n      tag_33\n      jump\t// in\n    tag_124:\n        /* \"#utility.yul\":4971:5088   */\n    tag_123:\n        /* \"#utility.yul\":5112:5175   */\n      tag_125\n        /* \"#utility.yul\":5167:5174   */\n      dup6\n        /* \"#utility.yul\":5158:5164   */\n      dup3\n        /* \"#utility.yul\":5147:5156   */\n      dup7\n        /* \"#utility.yul\":5143:5165   */\n      add\n        /* \"#utility.yul\":5112:5175   */\n      tag_43\n      jump\t// in\n    tag_125:\n        /* \"#utility.yul\":5102:5175   */\n      swap3\n      pop\n        /* \"#utility.yul\":4898:5185   */\n      pop\n        /* \"#utility.yul\":5252:5254   */\n      0x20\n        /* \"#utility.yul\":5241:5250   */\n      dup4\n        /* \"#utility.yul\":5237:5255   */\n      add\n        /* \"#utility.yul\":5224:5256   */\n      calldataload\n        /* \"#utility.yul\":5283:5301   */\n      0xffffffffffffffff\n        /* \"#utility.yul\":5275:5281   */\n      dup2\n        /* \"#utility.yul\":5272:5302   */\n      gt\n        /* \"#utility.yul\":5269:5386   */\n      iszero\n      tag_126\n      jumpi\n        /* \"#utility.yul\":5305:5384   */\n      tag_127\n      tag_33\n      jump\t// in\n    tag_127:\n        /* \"#utility.yul\":5269:5386   */\n    tag_126:\n        /* \"#utility.yul\":5410:5473   */\n      tag_128\n        /* \"#utility.yul\":5465:5472   */\n      dup6\n        /* \"#utility.yul\":5456:5462   */\n      dup3\n        /* \"#utility.yul\":5445:5454   */\n      dup7\n        /* \"#utility.yul\":5441:5463   */\n      add\n        /* \"#utility.yul\":5410:5473   */\n      tag_43\n      jump\t// in\n    tag_128:\n        /* \"#utility.yul\":5400:5473   */\n      swap2\n      pop\n        /* \"#utility.yul\":5195:5483   */\n      pop\n        /* \"#utility.yul\":4656:5490   */\n      swap3\n      pop\n      swap3\n      swap1\n      pop\n      jump\t// out\n        /* \"#utility.yul\":5496:5970   */\n    tag_19:\n        /* \"#utility.yul\":5564:5570   */\n      0x00\n        /* \"#utility.yul\":5572:5578   */\n      dup1\n        /* \"#utility.yul\":5621:5623   */\n      0x40\n        /* \"#utility.yul\":5609:5618   */\n      dup4\n        /* \"#utility.yul\":5600:5607   */\n      dup6\n        /* \"#utility.yul\":5596:5619   */\n      sub\n        /* \"#utility.yul\":5592:5624   */\n      slt\n        /* \"#utility.yul\":5589:5708   */\n      iszero\n      tag_130\n      jumpi\n        /* \"#utility.yul\":5627:5706   */\n      tag_131\n      tag_32\n      jump\t// in\n    tag_131:\n        /* \"#utility.yul\":5589:5708   */\n    tag_130:\n        /* \"#utility.yul\":5747:5748   */\n      0x00\n        /* \"#utility.yul\":5772:5825   */\n      tag_132\n        /* \"#utility.yul\":5817:5824   */\n      dup6\n        /* \"#utility.yul\":5808:5814   */\n      dup3\n        /* \"#utility.yul\":5797:5806   */\n      dup7\n        /* \"#utility.yul\":5793:5815   */\n      add\n        /* \"#utility.yul\":5772:5825   */\n      tag_50\n      jump\t// in\n    tag_132:\n        /* \"#utility.yul\":5762:5825   */\n      swap3\n      pop\n        /* \"#utility.yul\":5718:5835   */\n      pop\n        /* \"#utility.yul\":5874:5876   */\n      0x20\n        /* \"#utility.yul\":5900:5953   */\n      tag_133\n        /* \"#utility.yul\":5945:5952   */\n      dup6\n        /* \"#utility.yul\":5936:5942   */\n      dup3\n        /* \"#utility.yul\":5925:5934   */\n      dup7\n        /* \"#utility.yul\":5921:5943   */\n      add\n        /* \"#utility.yul\":5900:5953   */\n      tag_46\n      jump\t// in\n    tag_133:\n        /* \"#utility.yul\":5890:5953   */\n      swap2\n      pop\n        /* \"#utility.yul\":5845:5963   */\n      pop\n        /* \"#utility.yul\":5496:5970   */\n      swap3\n      pop\n      swap3\n      swap1\n      pop\n      jump\t// out\n        /* \"#utility.yul\":5976:6075   */\n    tag_53:\n        /* \"#utility.yul\":6028:6034   */\n      0x00\n        /* \"#utility.yul\":6062:6067   */\n      dup2\n        /* \"#utility.yul\":6056:6068   */\n      mload\n        /* \"#utility.yul\":6046:6068   */\n      swap1\n      pop\n        /* \"#utility.yul\":5976:6075   */\n      swap2\n      swap1\n      pop\n      jump\t// out\n        /* \"#utility.yul\":6081:6229   */\n    tag_54:\n        /* \"#utility.yul\":6183:6194   */\n      0x00\n        /* \"#utility.yul\":6220:6223   */\n      dup2\n        /* \"#utility.yul\":6205:6223   */\n      swap1\n      pop\n        /* \"#utility.yul\":6081:6229   */\n      swap3\n      swap2\n      pop\n      pop\n      jump\t// out\n        /* \"#utility.yul\":6235:6481   */\n    tag_55:\n        /* \"#utility.yul\":6316:6317   */\n      0x00\n        /* \"#utility.yul\":6326:6439   */\n    tag_137:\n        /* \"#utility.yul\":6340:6346   */\n      dup4\n        /* \"#utility.yul\":6337:6338   */\n      dup2\n        /* \"#utility.yul\":6334:6347   */\n      lt\n        /* \"#utility.yul\":6326:6439   */\n      iszero\n      tag_139\n      jumpi\n        /* \"#utility.yul\":6425:6426   */\n      dup1\n        /* \"#utility.yul\":6420:6423   */\n      dup3\n        /* \"#utility.yul\":6416:6427   */\n      add\n        /* \"#utility.yul\":6410:6428   */\n      mload\n        /* \"#utility.yul\":6406:6407   */\n      dup2\n        /* \"#utility.yul\":6401:6404   */\n      dup5\n        /* \"#utility.yul\":6397:6408   */\n      add\n        /* \"#utility.yul\":6390:6429   */\n      mstore\n        /* \"#utility.yul\":6362:6364   */\n      0x20\n        /* \"#utility.yul\":6359:6360   */\n      dup2\n        /* \"#utility.yul\":6355:6365   */\n      add\n        /* \"#utility.yul\":6350:6365   */\n      swap1\n      pop\n        /* \"#utility.yul\":6326:6439   */\n      jump(tag_137)\n    tag_139:\n        /* \"#utility.yul\":6473:6474   */\n      0x00\n        /* \"#utility.yul\":6464:6470   */\n      dup5\n        /* \"#utility.yul\":6459:6462   */\n      dup5\n        /* \"#utility.yul\":6455:6471   */\n      add\n        /* \"#utility.yul\":6448:6475   */\n      mstore\n        /* \"#utility.yul\":6297:6481   */\n      pop\n        /* \"#utility.yul\":6235:6481   */\n      pop\n      pop\n      pop\n      jump\t// out\n        /* \"#utility.yul\":6487:6877   */\n    tag_56:\n        /* \"#utility.yul\":6593:6596   */\n      0x00\n        /* \"#utility.yul\":6621:6660   */\n      tag_141\n        /* \"#utility.yul\":6654:6659   */\n      dup3\n        /* \"#utility.yul\":6621:6660   */\n      tag_53\n      jump\t// in\n    tag_141:\n        /* \"#utility.yul\":6676:6765   */\n      tag_142\n        /* \"#utility.yul\":6758:6764   */\n      dup2\n        /* \"#utility.yul\":6753:6756   */\n      dup6\n        /* \"#utility.yul\":6676:6765   */\n      tag_54\n      jump\t// in\n    tag_142:\n        /* \"#utility.yul\":6669:6765   */\n      swap4\n      pop\n        /* \"#utility.yul\":6774:6839   */\n      tag_143\n        /* \"#utility.yul\":6832:6838   */\n      dup2\n        /* \"#utility.yul\":6827:6830   */\n      dup6\n        /* \"#utility.yul\":6820:6824   */\n      0x20\n        /* \"#utility.yul\":6813:6818   */\n      dup7\n        /* \"#utility.yul\":6809:6825   */\n      add\n        /* \"#utility.yul\":6774:6839   */\n      tag_55\n      jump\t// in\n    tag_143:\n        /* \"#utility.yul\":6864:6870   */\n      dup1\n        /* \"#utility.yul\":6859:6862   */\n      dup5\n        /* \"#utility.yul\":6855:6871   */\n      add\n        /* \"#utility.yul\":6848:6871   */\n      swap2\n      pop\n        /* \"#utility.yul\":6597:6877   */\n      pop\n        /* \"#utility.yul\":6487:6877   */\n      swap3\n      swap2\n      pop\n      pop\n      jump\t// out\n        /* \"#utility.yul\":6883:6962   */\n    tag_57:\n        /* \"#utility.yul\":6922:6929   */\n      0x00\n        /* \"#utility.yul\":6951:6956   */\n      dup2\n        /* \"#utility.yul\":6940:6956   */\n      swap1\n      pop\n        /* \"#utility.yul\":6883:6962   */\n      swap2\n      swap1\n      pop\n      jump\t// out\n        /* \"#utility.yul\":6968:7125   */\n    tag_58:\n        /* \"#utility.yul\":7073:7118   */\n      tag_146\n        /* \"#utility.yul\":7093:7117   */\n      tag_147\n        /* \"#utility.yul\":7111:7116   */\n      dup3\n        /* \"#utility.yul\":7093:7117   */\n      tag_44\n      jump\t// in\n    tag_147:\n        /* \"#utility.yul\":7073:7118   */\n      tag_57\n      jump\t// in\n    tag_146:\n        /* \"#utility.yul\":7068:7071   */\n      dup3\n        /* \"#utility.yul\":7061:7119   */\n      mstore\n        /* \"#utility.yul\":6968:7125   */\n      pop\n      pop\n      jump\t// out\n        /* \"#utility.yul\":7131:7225   */\n    tag_59:\n        /* \"#utility.yul\":7164:7172   */\n      0x00\n        /* \"#utility.yul\":7212:7217   */\n      dup2\n        /* \"#utility.yul\":7208:7210   */\n      0x60\n        /* \"#utility.yul\":7204:7218   */\n      shl\n        /* \"#utility.yul\":7183:7218   */\n      swap1\n      pop\n        /* \"#utility.yul\":7131:7225   */\n      swap2\n      swap1\n      pop\n      jump\t// out\n        /* \"#utility.yul\":7231:7325   */\n    tag_60:\n        /* \"#utility.yul\":7270:7277   */\n      0x00\n        /* \"#utility.yul\":7299:7319   */\n      tag_150\n        /* \"#utility.yul\":7313:7318   */\n      dup3\n        /* \"#utility.yul\":7299:7319   */\n      tag_59\n      jump\t// in\n    tag_150:\n        /* \"#utility.yul\":7288:7319   */\n      swap1\n      pop\n        /* \"#utility.yul\":7231:7325   */\n      swap2\n      swap1\n      pop\n      jump\t// out\n        /* \"#utility.yul\":7331:7431   */\n    tag_61:\n        /* \"#utility.yul\":7370:7377   */\n      0x00\n        /* \"#utility.yul\":7399:7425   */\n      tag_152\n        /* \"#utility.yul\":7419:7424   */\n      dup3\n        /* \"#utility.yul\":7399:7425   */\n      tag_60\n      jump\t// in\n    tag_152:\n        /* \"#utility.yul\":7388:7425   */\n      swap1\n      pop\n        /* \"#utility.yul\":7331:7431   */\n      swap2\n      swap1\n      pop\n      jump\t// out\n        /* \"#utility.yul\":7437:7594   */\n    tag_62:\n        /* \"#utility.yul\":7542:7587   */\n      tag_154\n        /* \"#utility.yul\":7562:7586   */\n      tag_155\n        /* \"#utility.yul\":7580:7585   */\n      dup3\n        /* \"#utility.yul\":7562:7586   */\n      tag_48\n      jump\t// in\n    tag_155:\n        /* \"#utility.yul\":7542:7587   */\n      tag_61\n      jump\t// in\n    tag_154:\n        /* \"#utility.yul\":7537:7540   */\n      dup3\n        /* \"#utility.yul\":7530:7588   */\n      mstore\n        /* \"#utility.yul\":7437:7594   */\n      pop\n      pop\n      jump\t// out\n        /* \"#utility.yul\":7600:8157   */\n    tag_24:\n        /* \"#utility.yul\":7788:7791   */\n      0x00\n        /* \"#utility.yul\":7810:7905   */\n      tag_157\n        /* \"#utility.yul\":7901:7904   */\n      dup3\n        /* \"#utility.yul\":7892:7898   */\n      dup7\n        /* \"#utility.yul\":7810:7905   */\n      tag_56\n      jump\t// in\n    tag_157:\n        /* \"#utility.yul\":7803:7905   */\n      swap2\n      pop\n        /* \"#utility.yul\":7915:7990   */\n      tag_158\n        /* \"#utility.yul\":7986:7989   */\n      dup3\n        /* \"#utility.yul\":7977:7983   */\n      dup6\n        /* \"#utility.yul\":7915:7990   */\n      tag_58\n      jump\t// in\n    tag_158:\n        /* \"#utility.yul\":8015:8017   */\n      0x20\n        /* \"#utility.yul\":8010:8013   */\n      dup3\n        /* \"#utility.yul\":8006:8018   */\n      add\n        /* \"#utility.yul\":7999:8018   */\n      swap2\n      pop\n        /* \"#utility.yul\":8028:8103   */\n      tag_159\n        /* \"#utility.yul\":8099:8102   */\n      dup3\n        /* \"#utility.yul\":8090:8096   */\n      dup5\n        /* \"#utility.yul\":8028:8103   */\n      tag_62\n      jump\t// in\n    tag_159:\n        /* \"#utility.yul\":8128:8130   */\n      0x14\n        /* \"#utility.yul\":8123:8126   */\n      dup3\n        /* \"#utility.yul\":8119:8131   */\n      add\n        /* \"#utility.yul\":8112:8131   */\n      swap2\n      pop\n        /* \"#utility.yul\":8148:8151   */\n      dup2\n        /* \"#utility.yul\":8141:8151   */\n      swap1\n      pop\n        /* \"#utility.yul\":7600:8157   */\n      swap5\n      swap4\n      pop\n      pop\n      pop\n      pop\n      jump\t// out\n        /* \"#utility.yul\":8163:8598   */\n    tag_27:\n        /* \"#utility.yul\":8343:8346   */\n      0x00\n        /* \"#utility.yul\":8365:8460   */\n      tag_161\n        /* \"#utility.yul\":8456:8459   */\n      dup3\n        /* \"#utility.yul\":8447:8453   */\n      dup6\n        /* \"#utility.yul\":8365:8460   */\n      tag_56\n      jump\t// in\n    tag_161:\n        /* \"#utility.yul\":8358:8460   */\n      swap2\n      pop\n        /* \"#utility.yul\":8477:8572   */\n      tag_162\n        /* \"#utility.yul\":8568:8571   */\n      dup3\n        /* \"#utility.yul\":8559:8565   */\n      dup5\n        /* \"#utility.yul\":8477:8572   */\n      tag_56\n      jump\t// in\n    tag_162:\n        /* \"#utility.yul\":8470:8572   */\n      swap2\n      pop\n        /* \"#utility.yul\":8589:8592   */\n      dup2\n        /* \"#utility.yul\":8582:8592   */\n      swap1\n      pop\n        /* \"#utility.yul\":8163:8598   */\n      swap4\n      swap3\n      pop\n      pop\n      pop\n      jump\t// out\n        /* \"#utility.yul\":8604:9001   */\n    tag_30:\n        /* \"#utility.yul\":8744:8747   */\n      0x00\n        /* \"#utility.yul\":8759:8834   */\n      tag_164\n        /* \"#utility.yul\":8830:8833   */\n      dup3\n        /* \"#utility.yul\":8821:8827   */\n      dup6\n        /* \"#utility.yul\":8759:8834   */\n      tag_62\n      jump\t// in\n    tag_164:\n        /* \"#utility.yul\":8859:8861   */\n      0x14\n        /* \"#utility.yul\":8854:8857   */\n      dup3\n        /* \"#utility.yul\":8850:8862   */\n      add\n        /* \"#utility.yul\":8843:8862   */\n      swap2\n      pop\n        /* \"#utility.yul\":8872:8947   */\n      tag_165\n        /* \"#utility.yul\":8943:8946   */\n      dup3\n        /* \"#utility.yul\":8934:8940   */\n      dup5\n        /* \"#utility.yul\":8872:8947   */\n      tag_58\n      jump\t// in\n    tag_165:\n        /* \"#utility.yul\":8972:8974   */\n      0x20\n        /* \"#utility.yul\":8967:8970   */\n      dup3\n        /* \"#utility.yul\":8963:8975   */\n      add\n        /* \"#utility.yul\":8956:8975   */\n      swap2\n      pop\n        /* \"#utility.yul\":8992:8995   */\n      dup2\n        /* \"#utility.yul\":8985:8995   */\n      swap1\n      pop\n        /* \"#utility.yul\":8604:9001   */\n      swap4\n      swap3\n      pop\n      pop\n      pop\n      jump\t// out\n\n    auxdata: 0xa26469706673582212206aa383fb6ac84208d24157a20af31ed82cea5a186b5b8d92b5fb82e8dc937ad764736f6c63430008160033\n}\n",
				"bytecode": {
					"linkReferences": {},
					"object": "608060405234801561000f575f80fd5b506106248061001d5f395ff3fe608060405234801561000f575f80fd5b506004361061003f575f3560e01c80635dda416e146100435780637b7fb98214610073578063ed05582b146100a3575b5f80fd5b61005d60048036038101906100589190610346565b6100d3565b60405161006a91906103ca565b60405180910390f35b61008d600480360381019061008891906103e3565b610108565b60405161009a91906103ca565b60405180910390f35b6100bd60048036038101906100b89190610459565b61013a565b6040516100ca91906103ca565b60405180910390f35b5f8383836040516020016100e993929190610568565b6040516020818303038152906040528051906020012090509392505050565b5f828260405160200161011c9291906105a0565b60405160208183030381529060405280519060200120905092915050565b5f828260405160200161014e9291906105c3565b60405160208183030381529060405280519060200120905092915050565b5f604051905090565b5f80fd5b5f80fd5b5f80fd5b5f80fd5b5f601f19601f8301169050919050565b7f4e487b71000000000000000000000000000000000000000000000000000000005f52604160045260245ffd5b6101cb82610185565b810181811067ffffffffffffffff821117156101ea576101e9610195565b5b80604052505050565b5f6101fc61016c565b905061020882826101c2565b919050565b5f67ffffffffffffffff82111561022757610226610195565b5b61023082610185565b9050602081019050919050565b828183375f83830152505050565b5f61025d6102588461020d565b6101f3565b90508281526020810184848401111561027957610278610181565b5b61028484828561023d565b509392505050565b5f82601f8301126102a05761029f61017d565b5b81356102b084826020860161024b565b91505092915050565b5f819050919050565b6102cb816102b9565b81146102d5575f80fd5b50565b5f813590506102e6816102c2565b92915050565b5f73ffffffffffffffffffffffffffffffffffffffff82169050919050565b5f610315826102ec565b9050919050565b6103258161030b565b811461032f575f80fd5b50565b5f813590506103408161031c565b92915050565b5f805f6060848603121561035d5761035c610175565b5b5f84013567ffffffffffffffff81111561037a57610379610179565b5b6103868682870161028c565b9350506020610397868287016102d8565b92505060406103a886828701610332565b9150509250925092565b5f819050919050565b6103c4816103b2565b82525050565b5f6020820190506103dd5f8301846103bb565b92915050565b5f80604083850312156103f9576103f8610175565b5b5f83013567ffffffffffffffff81111561041657610415610179565b5b6104228582860161028c565b925050602083013567ffffffffffffffff81111561044357610442610179565b5b61044f8582860161028c565b9150509250929050565b5f806040838503121561046f5761046e610175565b5b5f61047c85828601610332565b925050602061048d858286016102d8565b9150509250929050565b5f81519050919050565b5f81905092915050565b5f5b838110156104c85780820151818401526020810190506104ad565b5f8484015250505050565b5f6104dd82610497565b6104e781856104a1565b93506104f78185602086016104ab565b80840191505092915050565b5f819050919050565b61051d610518826102b9565b610503565b82525050565b5f8160601b9050919050565b5f61053982610523565b9050919050565b5f61054a8261052f565b9050919050565b61056261055d8261030b565b610540565b82525050565b5f61057382866104d3565b915061057f828561050c565b60208201915061058f8284610551565b601482019150819050949350505050565b5f6105ab82856104d3565b91506105b782846104d3565b91508190509392505050565b5f6105ce8285610551565b6014820191506105de828461050c565b602082019150819050939250505056fea26469706673582212206aa383fb6ac84208d24157a20af31ed82cea5a186b5b8d92b5fb82e8dc937ad764736f6c63430008160033",
					"opcodes": "PUSH1 0x80 PUSH1 0x40 MSTORE CALLVALUE DUP1 ISZERO PUSH2 0xF JUMPI PUSH0 DUP1 REVERT JUMPDEST POP PUSH2 0x624 DUP1 PUSH2 0x1D PUSH0 CODECOPY PUSH0 RETURN INVALID PUSH1 0x80 PUSH1 0x40 MSTORE CALLVALUE DUP1 ISZERO PUSH2 0xF JUMPI PUSH0 DUP1 REVERT JUMPDEST POP PUSH1 0x4 CALLDATASIZE LT PUSH2 0x3F JUMPI PUSH0 CALLDATALOAD PUSH1 0xE0 SHR DUP1 PUSH4 0x5DDA416E EQ PUSH2 0x43 JUMPI DUP1 PUSH4 0x7B7FB982 EQ PUSH2 0x73 JUMPI DUP1 PUSH4 0xED05582B EQ PUSH2 0xA3 JUMPI JUMPDEST PUSH0 DUP1 REVERT JUMPDEST PUSH2 0x5D PUSH1 0x4 DUP1 CALLDATASIZE SUB DUP2 ADD SWAP1 PUSH2 0x58 SWAP2 SWAP1 PUSH2 0x346 JUMP JUMPDEST PUSH2 0xD3 JUMP JUMPDEST PUSH1 0x40 MLOAD PUSH2 0x6A SWAP2 SWAP1 PUSH2 0x3CA JUMP JUMPDEST PUSH1 0x40 MLOAD DUP1 SWAP2 SUB SWAP1 RETURN JUMPDEST PUSH2 0x8D PUSH1 0x4 DUP1 CALLDATASIZE SUB DUP2 ADD SWAP1 PUSH2 0x88 SWAP2 SWAP1 PUSH2 0x3E3 JUMP JUMPDEST PUSH2 0x108 JUMP JUMPDEST PUSH1 0x40 MLOAD PUSH2 0x9A SWAP2 SWAP1 PUSH2 0x3CA JUMP JUMPDEST PUSH1 0x40 MLOAD DUP1 SWAP2 SUB SWAP1 RETURN JUMPDEST PUSH2 0xBD PUSH1 0x4 DUP1 CALLDATASIZE SUB DUP2 ADD SWAP1 PUSH2 0xB8 SWAP2 SWAP1 PUSH2 0x459 JUMP JUMPDEST PUSH2 0x13A JUMP JUMPDEST PUSH1 0x40 MLOAD PUSH2 0xCA SWAP2 SWAP1 PUSH2 0x3CA JUMP JUMPDEST PUSH1 0x40 MLOAD DUP1 SWAP2 SUB SWAP1 RETURN JUMPDEST PUSH0 DUP4 DUP4 DUP4 PUSH1 0x40 MLOAD PUSH1 0x20 ADD PUSH2 0xE9 SWAP4 SWAP3 SWAP2 SWAP1 PUSH2 0x568 JUMP JUMPDEST PUSH1 0x40 MLOAD PUSH1 0x20 DUP2 DUP4 SUB SUB DUP2 MSTORE SWAP1 PUSH1 0x40 MSTORE DUP1 MLOAD SWAP1 PUSH1 0x20 ADD KECCAK256 SWAP1 POP SWAP4 SWAP3 POP POP POP JUMP JUMPDEST PUSH0 DUP3 DUP3 PUSH1 0x40 MLOAD PUSH1 0x20 ADD PUSH2 0x11C SWAP3 SWAP2 SWAP1 PUSH2 0x5A0 JUMP JUMPDEST PUSH1 0x40 MLOAD PUSH1 0x20 DUP2 DUP4 SUB SUB DUP2 MSTORE SWAP1 PUSH1 0x40 MSTORE DUP1 MLOAD SWAP1 PUSH1 0x20 ADD KECCAK256 SWAP1 POP SWAP3 SWAP2 POP POP JUMP JUMPDEST PUSH0 DUP3 DUP3 PUSH1 0x40 MLOAD PUSH1 0x20 ADD PUSH2 0x14E SWAP3 SWAP2 SWAP1 PUSH2 0x5C3 JUMP JUMPDEST PUSH1 0x40 MLOAD PUSH1 0x20 DUP2 DUP4 SUB SUB DUP2 MSTORE SWAP1 PUSH1 0x40 MSTORE DUP1 MLOAD SWAP1 PUSH1 0x20 ADD KECCAK256 SWAP1 POP SWAP3 SWAP2 POP POP JUMP JUMPDEST PUSH0 PUSH1 0x40 MLOAD SWAP1 POP SWAP1 JUMP JUMPDEST PUSH0 DUP1 REVERT JUMPDEST PUSH0 DUP1 REVERT JUMPDEST PUSH0 DUP1 REVERT JUMPDEST PUSH0 DUP1 REVERT JUMPDEST PUSH0 PUSH1 0x1F NOT PUSH1 0x1F DUP4 ADD AND SWAP1 POP SWAP2 SWAP1 POP JUMP JUMPDEST PUSH32 0x4E487B7100000000000000000000000000000000000000000000000000000000 PUSH0 MSTORE PUSH1 0x41 PUSH1 0x4 MSTORE PUSH1 0x24 PUSH0 REVERT JUMPDEST PUSH2 0x1CB DUP3 PUSH2 0x185 JUMP JUMPDEST DUP2 ADD DUP2 DUP2 LT PUSH8 0xFFFFFFFFFFFFFFFF DUP3 GT OR ISZERO PUSH2 0x1EA JUMPI PUSH2 0x1E9 PUSH2 0x195 JUMP JUMPDEST JUMPDEST DUP1 PUSH1 0x40 MSTORE POP POP POP JUMP JUMPDEST PUSH0 PUSH2 0x1FC PUSH2 0x16C JUMP JUMPDEST SWAP1 POP PUSH2 0x208 DUP3 DUP3 PUSH2 0x1C2 JUMP JUMPDEST SWAP2 SWAP1 POP JUMP JUMPDEST PUSH0 PUSH8 0xFFFFFFFFFFFFFFFF DUP3 GT ISZERO PUSH2 0x227 JUMPI PUSH2 0x226 PUSH2 0x195 JUMP JUMPDEST JUMPDEST PUSH2 0x230 DUP3 PUSH2 0x185 JUMP JUMPDEST SWAP1 POP PUSH1 0x20 DUP2 ADD SWAP1 POP SWAP2 SWAP1 POP JUMP JUMPDEST DUP3 DUP2 DUP4 CALLDATACOPY PUSH0 DUP4 DUP4 ADD MSTORE POP POP POP JUMP JUMPDEST PUSH0 PUSH2 0x25D PUSH2 0x258 DUP5 PUSH2 0x20D JUMP JUMPDEST PUSH2 0x1F3 JUMP JUMPDEST SWAP1 POP DUP3 DUP2 MSTORE PUSH1 0x20 DUP2 ADD DUP5 DUP5 DUP5 ADD GT ISZERO PUSH2 0x279 JUMPI PUSH2 0x278 PUSH2 0x181 JUMP JUMPDEST JUMPDEST PUSH2 0x284 DUP5 DUP3 DUP6 PUSH2 0x23D JUMP JUMPDEST POP SWAP4 SWAP3 POP POP POP JUMP JUMPDEST PUSH0 DUP3 PUSH1 0x1F DUP4 ADD SLT PUSH2 0x2A0 JUMPI PUSH2 0x29F PUSH2 0x17D JUMP JUMPDEST JUMPDEST DUP2 CALLDATALOAD PUSH2 0x2B0 DUP5 DUP3 PUSH1 0x20 DUP7 ADD PUSH2 0x24B JUMP JUMPDEST SWAP2 POP POP SWAP3 SWAP2 POP POP JUMP JUMPDEST PUSH0 DUP2 SWAP1 POP SWAP2 SWAP1 POP JUMP JUMPDEST PUSH2 0x2CB DUP2 PUSH2 0x2B9 JUMP JUMPDEST DUP2 EQ PUSH2 0x2D5 JUMPI PUSH0 DUP1 REVERT JUMPDEST POP JUMP JUMPDEST PUSH0 DUP2 CALLDATALOAD SWAP1 POP PUSH2 0x2E6 DUP2 PUSH2 0x2C2 JUMP JUMPDEST SWAP3 SWAP2 POP POP JUMP JUMPDEST PUSH0 PUSH20 0xFFFFFFFFFFFFFFFFFFFFFFFFFFFFFFFFFFFFFFFF DUP3 AND SWAP1 POP SWAP2 SWAP1 POP JUMP JUMPDEST PUSH0 PUSH2 0x315 DUP3 PUSH2 0x2EC JUMP JUMPDEST SWAP1 POP SWAP2 SWAP1 POP JUMP JUMPDEST PUSH2 0x325 DUP2 PUSH2 0x30B JUMP JUMPDEST DUP2 EQ PUSH2 0x32F JUMPI PUSH0 DUP1 REVERT JUMPDEST POP JUMP JUMPDEST PUSH0 DUP2 CALLDATALOAD SWAP1 POP PUSH2 0x340 DUP2 PUSH2 0x31C JUMP JUMPDEST SWAP3 SWAP2 POP POP JUMP JUMPDEST PUSH0 DUP1 PUSH0 PUSH1 0x60 DUP5 DUP7 SUB SLT ISZERO PUSH2 0x35D JUMPI PUSH2 0x35C PUSH2 0x175 JUMP JUMPDEST JUMPDEST PUSH0 DUP5 ADD CALLDATALOAD PUSH8 0xFFFFFFFFFFFFFFFF DUP2 GT ISZERO PUSH2 0x37A JUMPI PUSH2 0x379 PUSH2 0x179 JUMP JUMPDEST JUMPDEST PUSH2 0x386 DUP7 DUP3 DUP8 ADD PUSH2 0x28C JUMP JUMPDEST SWAP4 POP POP PUSH1 0x20 PUSH2 0x397 DUP7 DUP3 DUP8 ADD PUSH2 0x2D8 JUMP JUMPDEST SWAP3 POP POP PUSH1 0x40 PUSH2 0x3A8 DUP7 DUP3 DUP8 ADD PUSH2 0x332 JUMP JUMPDEST SWAP2 POP POP SWAP3 POP SWAP3 POP SWAP3 JUMP JUMPDEST PUSH0 DUP2 SWAP1 POP SWAP2 SWAP1 POP JUMP JUMPDEST PUSH2 0x3C4 DUP2 PUSH2 0x3B2 JUMP JUMPDEST DUP3 MSTORE POP POP JUMP JUMPDEST PUSH0 PUSH1 0x20 DUP3 ADD SWAP1 POP PUSH2 0x3DD PUSH0 DUP4 ADD DUP5 PUSH2 0x3BB JUMP JUMPDEST SWAP3 SWAP2 POP POP JUMP JUMPDEST PUSH0 DUP1 PUSH1 0x40 DUP4 DUP6 SUB SLT ISZERO PUSH2 0x3F9 JUMPI PUSH2 0x3F8 PUSH2 0x175 JUMP JUMPDEST JUMPDEST PUSH0 DUP4 ADD CALLDATALOAD PUSH8 0xFFFFFFFFFFFFFFFF DUP2 GT ISZERO PUSH2 0x416 JUMPI PUSH2 0x415 PUSH2 0x179 JUMP JUMPDEST JUMPDEST PUSH2 0x422 DUP6 DUP3 DUP7 ADD PUSH2 0x28C JUMP JUMPDEST SWAP3 POP POP PUSH1 0x20 DUP4 ADD CALLDATALOAD PUSH8 0xFFFFFFFFFFFFFFFF DUP2 GT ISZERO PUSH2 0x443 JUMPI PUSH2 0x442 PUSH2 0x179 JUMP JUMPDEST JUMPDEST PUSH2 0x44F DUP6 DUP3 DUP7 ADD PUSH2 0x28C JUMP JUMPDEST SWAP2 POP POP SWAP3 POP SWAP3 SWAP1 POP JUMP JUMPDEST PUSH0 DUP1 PUSH1 0x40 DUP4 DUP6 SUB SLT ISZERO PUSH2 0x46F JUMPI PUSH2 0x46E PUSH2 0x175 JUMP JUMPDEST JUMPDEST PUSH0 PUSH2 0x47C DUP6 DUP3 DUP7 ADD PUSH2 0x332 JUMP JUMPDEST SWAP3 POP POP PUSH1 0x20 PUSH2 0x48D DUP6 DUP3 DUP7 ADD PUSH2 0x2D8 JUMP JUMPDEST SWAP2 POP POP SWAP3 POP SWAP3 SWAP1 POP JUMP JUMPDEST PUSH0 DUP2 MLOAD SWAP1 POP SWAP2 SWAP1 POP JUMP JUMPDEST PUSH0 DUP2 SWAP1 POP SWAP3 SWAP2 POP POP JUMP JUMPDEST PUSH0 JUMPDEST DUP4 DUP2 LT ISZERO PUSH2 0x4C8 JUMPI DUP1 DUP3 ADD MLOAD DUP2 DUP5 ADD MSTORE PUSH1 0x20 DUP2 ADD SWAP1 POP PUSH2 0x4AD JUMP JUMPDEST PUSH0 DUP5 DUP5 ADD MSTORE POP POP POP POP JUMP JUMPDEST PUSH0 PUSH2 0x4DD DUP3 PUSH2 0x497 JUMP JUMPDEST PUSH2 0x4E7 DUP2 DUP6 PUSH2 0x4A1 JUMP JUMPDEST SWAP4 POP PUSH2 0x4F7 DUP2 DUP6 PUSH1 0x20 DUP7 ADD PUSH2 0x4AB JUMP JUMPDEST DUP1 DUP5 ADD SWAP2 POP POP SWAP3 SWAP2 POP POP JUMP JUMPDEST PUSH0 DUP2 SWAP1 POP SWAP2 SWAP1 POP JUMP JUMPDEST PUSH2 0x51D PUSH2 0x518 DUP3 PUSH2 0x2B9 JUMP JUMPDEST PUSH2 0x503 JUMP JUMPDEST DUP3 MSTORE POP POP JUMP JUMPDEST PUSH0 DUP2 PUSH1 0x60 SHL SWAP1 POP SWAP2 SWAP1 POP JUMP JUMPDEST PUSH0 PUSH2 0x539 DUP3 PUSH2 0x523 JUMP JUMPDEST SWAP1 POP SWAP2 SWAP1 POP JUMP JUMPDEST PUSH0 PUSH2 0x54A DUP3 PUSH2 0x52F JUMP JUMPDEST SWAP1 POP SWAP2 SWAP1 POP JUMP JUMPDEST PUSH2 0x562 PUSH2 0x55D DUP3 PUSH2 0x30B JUMP JUMPDEST PUSH2 0x540 JUMP JUMPDEST DUP3 MSTORE POP POP JUMP JUMPDEST PUSH0 PUSH2 0x573 DUP3 DUP7 PUSH2 0x4D3 JUMP JUMPDEST SWAP2 POP PUSH2 0x57F DUP3 DUP6 PUSH2 0x50C JUMP JUMPDEST PUSH1 0x20 DUP3 ADD SWAP2 POP PUSH2 0x58F DUP3 DUP5 PUSH2 0x551 JUMP JUMPDEST PUSH1 0x14 DUP3 ADD SWAP2 POP DUP2 SWAP1 POP SWAP5 SWAP4 POP POP POP POP JUMP JUMPDEST PUSH0 PUSH2 0x5AB DUP3 DUP6 PUSH2 0x4D3 JUMP JUMPDEST SWAP2 POP PUSH2 0x5B7 DUP3 DUP5 PUSH2 0x4D3 JUMP JUMPDEST SWAP2 POP DUP2 SWAP1 POP SWAP4 SWAP3 POP POP POP JUMP JUMPDEST PUSH0 PUSH2 0x5CE DUP3 DUP6 PUSH2 0x551 JUMP JUMPDEST PUSH1 0x14 DUP3 ADD SWAP2 POP PUSH2 0x5DE DUP3 DUP5 PUSH2 0x50C JUMP JUMPDEST PUSH1 0x20 DUP3 ADD SWAP2 POP DUP2 SWAP1 POP SWAP4 SWAP3 POP POP POP JUMP INVALID LOG2 PUSH5 0x6970667358 0x22 SLT KECCAK256 PUSH11 0xA383FB6AC84208D24157A2 EXP RETURN 0x1E 0xD8 0x2C 0xEA GAS XOR PUSH12 0x5B8D92B5FB82E8DC937AD764 PUSH20 0x6F6C634300081600330000000000000000000000 "
				},
				"gasEstimates": {
					"creation": {
						"codeDepositCost": "314400",
						"executionCost": "353",
						"totalCost": "314753"
					},
					"external": {
						"collision(string,string)": "infinite",
						"getHash(address,uint256)": "infinite",
						"hash(string,uint256,address)": "infinite"
					}
				},
				"methodIdentifiers": {
					"collision(string,string)": "7b7fb982",
					"getHash(address,uint256)": "ed05582b",
					"hash(string,uint256,address)": "5dda416e"
				}
			},
			"storageLayout": {
				"storage": [],
				"types": null
			},
			"userdoc": {
				"kind": "user",
				"methods": {},
				"version": 1
			}
		}
	}
}