{
	"contracts/20. Structs.sol": {
		"Structs": {
			"abi": [
				{
					"inputs": [],
					"name": "car",
					"outputs": [
						{
							"internalType": "string",
							"name": "model",
							"type": "string"
						},
						{
							"internalType": "uint256",
							"name": "year",
							"type": "uint256"
						},
						{
							"internalType": "address",
							"name": "owner",
							"type": "address"
						}
					],
					"stateMutability": "view",
					"type": "function"
				},
				{
					"inputs": [
						{
							"internalType": "uint256",
							"name": "",
							"type": "uint256"
						}
					],
					"name": "cars",
					"outputs": [
						{
							"internalType": "string",
							"name": "model",
							"type": "string"
						},
						{
							"internalType": "uint256",
							"name": "year",
							"type": "uint256"
						},
						{
							"internalType": "address",
							"name": "owner",
							"type": "address"
						}
					],
					"stateMutability": "view",
					"type": "function"
				},
				{
					"inputs": [
						{
							"internalType": "address",
							"name": "",
							"type": "address"
						},
						{
							"internalType": "uint256",
							"name": "",
							"type": "uint256"
						}
					],
					"name": "carsByOwner",
					"outputs": [
						{
							"internalType": "string",
							"name": "model",
							"type": "string"
						},
						{
							"internalType": "uint256",
							"name": "year",
							"type": "uint256"
						},
						{
							"internalType": "address",
							"name": "owner",
							"type": "address"
						}
					],
					"stateMutability": "view",
					"type": "function"
				},
				{
					"inputs": [],
					"name": "examples",
					"outputs": [],
					"stateMutability": "nonpayable",
					"type": "function"
				}
			],
			"devdoc": {
				"kind": "dev",
				"methods": {},
				"version": 1
			},
			"evm": {
				"assembly": "    /* \"contracts/20. Structs.sol\":57:817  contract Structs {... */\n  mstore(0x40, 0x80)\n  callvalue\n  dup1\n  iszero\n  tag_1\n  jumpi\n  0x00\n  dup1\n  revert\ntag_1:\n  pop\n  dataSize(sub_0)\n  dup1\n  dataOffset(sub_0)\n  0x00\n  codecopy\n  0x00\n  return\nstop\n\nsub_0: assembly {\n        /* \"contracts/20. Structs.sol\":57:817  contract Structs {... */\n      mstore(0x40, 0x80)\n      callvalue\n      dup1\n      iszero\n      tag_1\n      jumpi\n      0x00\n      dup1\n      revert\n    tag_1:\n      pop\n      jumpi(tag_2, lt(calldatasize, 0x04))\n      shr(0xe0, calldataload(0x00))\n      dup1\n      0x335d00c2\n      eq\n      tag_3\n      jumpi\n      dup1\n      0xaa9fb6c8\n      eq\n      tag_4\n      jumpi\n      dup1\n      0xee26fac3\n      eq\n      tag_5\n      jumpi\n      dup1\n      0xf7746e36\n      eq\n      tag_6\n      jumpi\n    tag_2:\n      0x00\n      dup1\n      revert\n        /* \"contracts/20. Structs.sol\":262:815  function examples() external {... */\n    tag_3:\n      tag_7\n      tag_8\n      jump\t// in\n    tag_7:\n      stop\n        /* \"contracts/20. Structs.sol\":211:255  mapping(address => Car[]) public carsByOwner */\n    tag_4:\n      tag_9\n      0x04\n      dup1\n      calldatasize\n      sub\n      dup2\n      add\n      swap1\n      tag_10\n      swap2\n      swap1\n      tag_11\n      jump\t// in\n    tag_10:\n      tag_12\n      jump\t// in\n    tag_9:\n      mload(0x40)\n      tag_13\n      swap4\n      swap3\n      swap2\n      swap1\n      tag_14\n      jump\t// in\n    tag_13:\n      mload(0x40)\n      dup1\n      swap2\n      sub\n      swap1\n      return\n        /* \"contracts/20. Structs.sol\":168:182  Car public car */\n    tag_5:\n      tag_15\n      tag_16\n      jump\t// in\n    tag_15:\n      mload(0x40)\n      tag_17\n      swap4\n      swap3\n      swap2\n      swap1\n      tag_14\n      jump\t// in\n    tag_17:\n      mload(0x40)\n      dup1\n      swap2\n      sub\n      swap1\n      return\n        /* \"contracts/20. Structs.sol\":188:205  Car[] public cars */\n    tag_6:\n      tag_18\n      0x04\n      dup1\n      calldatasize\n      sub\n      dup2\n      add\n      swap1\n      tag_19\n      swap2\n      swap1\n      tag_20\n      jump\t// in\n    tag_19:\n      tag_21\n      jump\t// in\n    tag_18:\n      mload(0x40)\n      tag_22\n      swap4\n      swap3\n      swap2\n      swap1\n      tag_14\n      jump\t// in\n    tag_22:\n      mload(0x40)\n      dup1\n      swap2\n      sub\n      swap1\n      return\n        /* \"contracts/20. Structs.sol\":262:815  function examples() external {... */\n    tag_8:\n        /* \"contracts/20. Structs.sol\":301:318  Car memory toyota */\n      0x00\n        /* \"contracts/20. Structs.sol\":321:352  Car(\"toyota\", 1990, msg.sender) */\n      mload(0x40)\n      dup1\n      0x60\n      add\n      0x40\n      mstore\n      dup1\n      mload(0x40)\n      dup1\n      0x40\n      add\n      0x40\n      mstore\n      dup1\n      0x06\n      dup2\n      mstore\n      0x20\n      add\n      0x746f796f74610000000000000000000000000000000000000000000000000000\n      dup2\n      mstore\n      pop\n      dup2\n      mstore\n      0x20\n      add\n        /* \"contracts/20. Structs.sol\":335:339  1990 */\n      0x07c6\n        /* \"contracts/20. Structs.sol\":321:352  Car(\"toyota\", 1990, msg.sender) */\n      dup2\n      mstore\n      0x20\n      add\n        /* \"contracts/20. Structs.sol\":341:351  msg.sender */\n      caller\n        /* \"contracts/20. Structs.sol\":321:352  Car(\"toyota\", 1990, msg.sender) */\n      0xffffffffffffffffffffffffffffffffffffffff\n      and\n      dup2\n      mstore\n      pop\n        /* \"contracts/20. Structs.sol\":301:352  Car memory toyota = Car(\"toyota\", 1990, msg.sender) */\n      swap1\n      pop\n        /* \"contracts/20. Structs.sol\":363:379  Car memory lambo */\n      0x00\n        /* \"contracts/20. Structs.sol\":382:439  Car({model:\"lamborghini\", year: 1980, owner: msg.sender}) */\n      mload(0x40)\n      dup1\n      0x60\n      add\n      0x40\n      mstore\n      dup1\n      mload(0x40)\n      dup1\n      0x40\n      add\n      0x40\n      mstore\n      dup1\n      0x0b\n      dup2\n      mstore\n      0x20\n      add\n      0x6c616d626f726768696e69000000000000000000000000000000000000000000\n      dup2\n      mstore\n      pop\n      dup2\n      mstore\n      0x20\n      add\n        /* \"contracts/20. Structs.sol\":414:418  1980 */\n      0x07bc\n        /* \"contracts/20. Structs.sol\":382:439  Car({model:\"lamborghini\", year: 1980, owner: msg.sender}) */\n      dup2\n      mstore\n      0x20\n      add\n        /* \"contracts/20. Structs.sol\":427:437  msg.sender */\n      caller\n        /* \"contracts/20. Structs.sol\":382:439  Car({model:\"lamborghini\", year: 1980, owner: msg.sender}) */\n      0xffffffffffffffffffffffffffffffffffffffff\n      and\n      dup2\n      mstore\n      pop\n        /* \"contracts/20. Structs.sol\":363:439  Car memory lambo = Car({model:\"lamborghini\", year: 1980, owner: msg.sender}) */\n      swap1\n      pop\n        /* \"contracts/20. Structs.sol\":450:466  Car memory tesla */\n      tag_24\n      tag_25\n      jump\t// in\n    tag_24:\n        /* \"contracts/20. Structs.sol\":476:497  tesla.model = \"tesla\" */\n      mload(0x40)\n      dup1\n      0x40\n      add\n      0x40\n      mstore\n      dup1\n      0x05\n      dup2\n      mstore\n      0x20\n      add\n      0x7465736c61000000000000000000000000000000000000000000000000000000\n      dup2\n      mstore\n      pop\n        /* \"contracts/20. Structs.sol\":476:481  tesla */\n      dup2\n        /* \"contracts/20. Structs.sol\":476:487  tesla.model */\n      0x00\n      add\n        /* \"contracts/20. Structs.sol\":476:497  tesla.model = \"tesla\" */\n      dup2\n      swap1\n      mstore\n      pop\n        /* \"contracts/20. Structs.sol\":520:524  1910 */\n      0x0776\n        /* \"contracts/20. Structs.sol\":507:512  tesla */\n      dup2\n        /* \"contracts/20. Structs.sol\":507:517  tesla.year */\n      0x20\n      add\n        /* \"contracts/20. Structs.sol\":507:524  tesla.year = 1910 */\n      dup2\n      dup2\n      mstore\n      pop\n      pop\n        /* \"contracts/20. Structs.sol\":548:558  msg.sender */\n      caller\n        /* \"contracts/20. Structs.sol\":534:539  tesla */\n      dup2\n        /* \"contracts/20. Structs.sol\":534:545  tesla.owner */\n      0x40\n      add\n        /* \"contracts/20. Structs.sol\":534:558  tesla.owner = msg.sender */\n      swap1\n      0xffffffffffffffffffffffffffffffffffffffff\n      and\n      swap1\n      dup2\n      0xffffffffffffffffffffffffffffffffffffffff\n      and\n      dup2\n      mstore\n      pop\n      pop\n        /* \"contracts/20. Structs.sol\":570:574  cars */\n      0x03\n        /* \"contracts/20. Structs.sol\":580:586  toyota */\n      dup4\n        /* \"contracts/20. Structs.sol\":570:587  cars.push(toyota) */\n      swap1\n      dup1\n      0x01\n      dup2\n      sload\n      add\n      dup1\n      dup3\n      sstore\n      dup1\n      swap2\n      pop\n      pop\n      0x01\n      swap1\n      sub\n      swap1\n      0x00\n      mstore\n      keccak256(0x00, 0x20)\n      swap1\n      0x03\n      mul\n      add\n      0x00\n      swap1\n      swap2\n      swap1\n      swap2\n      swap1\n      swap2\n      pop\n      0x00\n      dup3\n      add\n      mload\n      dup2\n      0x00\n      add\n      swap1\n      dup2\n      tag_27\n      swap2\n      swap1\n      tag_28\n      jump\t// in\n    tag_27:\n      pop\n      0x20\n      dup3\n      add\n      mload\n      dup2\n      0x01\n      add\n      sstore\n      0x40\n      dup3\n      add\n      mload\n      dup2\n      0x02\n      add\n      exp(0x0100, 0x00)\n      dup2\n      sload\n      dup2\n      0xffffffffffffffffffffffffffffffffffffffff\n      mul\n      not\n      and\n      swap1\n      dup4\n      0xffffffffffffffffffffffffffffffffffffffff\n      and\n      mul\n      or\n      swap1\n      sstore\n      pop\n      pop\n      pop\n        /* \"contracts/20. Structs.sol\":597:601  cars */\n      0x03\n        /* \"contracts/20. Structs.sol\":607:612  lambo */\n      dup3\n        /* \"contracts/20. Structs.sol\":597:613  cars.push(lambo) */\n      swap1\n      dup1\n      0x01\n      dup2\n      sload\n      add\n      dup1\n      dup3\n      sstore\n      dup1\n      swap2\n      pop\n      pop\n      0x01\n      swap1\n      sub\n      swap1\n      0x00\n      mstore\n      keccak256(0x00, 0x20)\n      swap1\n      0x03\n      mul\n      add\n      0x00\n      swap1\n      swap2\n      swap1\n      swap2\n      swap1\n      swap2\n      pop\n      0x00\n      dup3\n      add\n      mload\n      dup2\n      0x00\n      add\n      swap1\n      dup2\n      tag_30\n      swap2\n      swap1\n      tag_28\n      jump\t// in\n    tag_30:\n      pop\n      0x20\n      dup3\n      add\n      mload\n      dup2\n      0x01\n      add\n      sstore\n      0x40\n      dup3\n      add\n      mload\n      dup2\n      0x02\n      add\n      exp(0x0100, 0x00)\n      dup2\n      sload\n      dup2\n      0xffffffffffffffffffffffffffffffffffffffff\n      mul\n      not\n      and\n      swap1\n      dup4\n      0xffffffffffffffffffffffffffffffffffffffff\n      and\n      mul\n      or\n      swap1\n      sstore\n      pop\n      pop\n      pop\n        /* \"contracts/20. Structs.sol\":623:627  cars */\n      0x03\n        /* \"contracts/20. Structs.sol\":633:638  tesla */\n      dup2\n        /* \"contracts/20. Structs.sol\":623:639  cars.push(tesla) */\n      swap1\n      dup1\n      0x01\n      dup2\n      sload\n      add\n      dup1\n      dup3\n      sstore\n      dup1\n      swap2\n      pop\n      pop\n      0x01\n      swap1\n      sub\n      swap1\n      0x00\n      mstore\n      keccak256(0x00, 0x20)\n      swap1\n      0x03\n      mul\n      add\n      0x00\n      swap1\n      swap2\n      swap1\n      swap2\n      swap1\n      swap2\n      pop\n      0x00\n      dup3\n      add\n      mload\n      dup2\n      0x00\n      add\n      swap1\n      dup2\n      tag_32\n      swap2\n      swap1\n      tag_28\n      jump\t// in\n    tag_32:\n      pop\n      0x20\n      dup3\n      add\n      mload\n      dup2\n      0x01\n      add\n      sstore\n      0x40\n      dup3\n      add\n      mload\n      dup2\n      0x02\n      add\n      exp(0x0100, 0x00)\n      dup2\n      sload\n      dup2\n      0xffffffffffffffffffffffffffffffffffffffff\n      mul\n      not\n      and\n      swap1\n      dup4\n      0xffffffffffffffffffffffffffffffffffffffff\n      and\n      mul\n      or\n      swap1\n      sstore\n      pop\n      pop\n      pop\n        /* \"contracts/20. Structs.sol\":650:654  cars */\n      0x03\n        /* \"contracts/20. Structs.sol\":660:692  Car(\"Ferrari\", 1920, msg.sender) */\n      mload(0x40)\n      dup1\n      0x60\n      add\n      0x40\n      mstore\n      dup1\n      mload(0x40)\n      dup1\n      0x40\n      add\n      0x40\n      mstore\n      dup1\n      0x07\n      dup2\n      mstore\n      0x20\n      add\n      0x4665727261726900000000000000000000000000000000000000000000000000\n      dup2\n      mstore\n      pop\n      dup2\n      mstore\n      0x20\n      add\n        /* \"contracts/20. Structs.sol\":675:679  1920 */\n      0x0780\n        /* \"contracts/20. Structs.sol\":660:692  Car(\"Ferrari\", 1920, msg.sender) */\n      dup2\n      mstore\n      0x20\n      add\n        /* \"contracts/20. Structs.sol\":681:691  msg.sender */\n      caller\n        /* \"contracts/20. Structs.sol\":660:692  Car(\"Ferrari\", 1920, msg.sender) */\n      0xffffffffffffffffffffffffffffffffffffffff\n      and\n      dup2\n      mstore\n      pop\n        /* \"contracts/20. Structs.sol\":650:693  cars.push(Car(\"Ferrari\", 1920, msg.sender)) */\n      swap1\n      dup1\n      0x01\n      dup2\n      sload\n      add\n      dup1\n      dup3\n      sstore\n      dup1\n      swap2\n      pop\n      pop\n      0x01\n      swap1\n      sub\n      swap1\n      0x00\n      mstore\n      keccak256(0x00, 0x20)\n      swap1\n      0x03\n      mul\n      add\n      0x00\n      swap1\n      swap2\n      swap1\n      swap2\n      swap1\n      swap2\n      pop\n      0x00\n      dup3\n      add\n      mload\n      dup2\n      0x00\n      add\n      swap1\n      dup2\n      tag_34\n      swap2\n      swap1\n      tag_28\n      jump\t// in\n    tag_34:\n      pop\n      0x20\n      dup3\n      add\n      mload\n      dup2\n      0x01\n      add\n      sstore\n      0x40\n      dup3\n      add\n      mload\n      dup2\n      0x02\n      add\n      exp(0x0100, 0x00)\n      dup2\n      sload\n      dup2\n      0xffffffffffffffffffffffffffffffffffffffff\n      mul\n      not\n      and\n      swap1\n      dup4\n      0xffffffffffffffffffffffffffffffffffffffff\n      and\n      mul\n      or\n      swap1\n      sstore\n      pop\n      pop\n      pop\n        /* \"contracts/20. Structs.sol\":704:720  Car storage _car */\n      0x00\n        /* \"contracts/20. Structs.sol\":723:727  cars */\n      0x03\n        /* \"contracts/20. Structs.sol\":728:729  0 */\n      0x00\n        /* \"contracts/20. Structs.sol\":723:730  cars[0] */\n      dup2\n      sload\n      dup2\n      lt\n      tag_35\n      jumpi\n      tag_36\n      tag_37\n      jump\t// in\n    tag_36:\n    tag_35:\n      swap1\n      0x00\n      mstore\n      keccak256(0x00, 0x20)\n      swap1\n      0x03\n      mul\n      add\n        /* \"contracts/20. Structs.sol\":704:730  Car storage _car = cars[0] */\n      swap1\n      pop\n        /* \"contracts/20. Structs.sol\":752:756  1930 */\n      0x078a\n        /* \"contracts/20. Structs.sol\":740:744  _car */\n      dup2\n        /* \"contracts/20. Structs.sol\":740:749  _car.year */\n      0x01\n      add\n        /* \"contracts/20. Structs.sol\":740:756  _car.year = 1930 */\n      dup2\n      swap1\n      sstore\n      pop\n        /* \"contracts/20. Structs.sol\":774:778  _car */\n      dup1\n        /* \"contracts/20. Structs.sol\":774:784  _car.owner */\n      0x02\n      add\n      0x00\n        /* \"contracts/20. Structs.sol\":767:784  delete _car.owner */\n      0x0100\n      exp\n      dup2\n      sload\n      swap1\n      0xffffffffffffffffffffffffffffffffffffffff\n      mul\n      not\n      and\n      swap1\n      sstore\n        /* \"contracts/20. Structs.sol\":801:805  cars */\n      0x03\n        /* \"contracts/20. Structs.sol\":806:807  1 */\n      0x01\n        /* \"contracts/20. Structs.sol\":801:808  cars[1] */\n      dup2\n      sload\n      dup2\n      lt\n      tag_39\n      jumpi\n      tag_40\n      tag_37\n      jump\t// in\n    tag_40:\n    tag_39:\n      swap1\n      0x00\n      mstore\n      keccak256(0x00, 0x20)\n      swap1\n      0x03\n      mul\n      add\n      0x00\n        /* \"contracts/20. Structs.sol\":794:808  delete cars[1] */\n      dup1\n      dup3\n      add\n      0x00\n      tag_42\n      swap2\n      swap1\n      tag_43\n      jump\t// in\n    tag_42:\n      0x01\n      dup3\n      add\n      0x00\n      swap1\n      sstore\n      0x02\n      dup3\n      add\n      exp(0x0100, 0x00)\n      dup2\n      sload\n      swap1\n      0xffffffffffffffffffffffffffffffffffffffff\n      mul\n      not\n      and\n      swap1\n      sstore\n      pop\n      pop\n        /* \"contracts/20. Structs.sol\":291:815  {... */\n      pop\n      pop\n      pop\n      pop\n        /* \"contracts/20. Structs.sol\":262:815  function examples() external {... */\n      jump\t// out\n        /* \"contracts/20. Structs.sol\":211:255  mapping(address => Car[]) public carsByOwner */\n    tag_12:\n      mstore(0x20, 0x04)\n      dup2\n      0x00\n      mstore\n      keccak256(0x00, 0x40)\n      dup2\n      dup2\n      sload\n      dup2\n      lt\n      tag_44\n      jumpi\n      0x00\n      dup1\n      revert\n    tag_44:\n      swap1\n      0x00\n      mstore\n      keccak256(0x00, 0x20)\n      swap1\n      0x03\n      mul\n      add\n      0x00\n      swap2\n      pop\n      swap2\n      pop\n      pop\n      dup1\n      0x00\n      add\n      dup1\n      sload\n      tag_46\n      swap1\n      tag_47\n      jump\t// in\n    tag_46:\n      dup1\n      0x1f\n      add\n      0x20\n      dup1\n      swap2\n      div\n      mul\n      0x20\n      add\n      mload(0x40)\n      swap1\n      dup2\n      add\n      0x40\n      mstore\n      dup1\n      swap3\n      swap2\n      swap1\n      dup2\n      dup2\n      mstore\n      0x20\n      add\n      dup3\n      dup1\n      sload\n      tag_48\n      swap1\n      tag_47\n      jump\t// in\n    tag_48:\n      dup1\n      iszero\n      tag_49\n      jumpi\n      dup1\n      0x1f\n      lt\n      tag_50\n      jumpi\n      0x0100\n      dup1\n      dup4\n      sload\n      div\n      mul\n      dup4\n      mstore\n      swap2\n      0x20\n      add\n      swap2\n      jump(tag_49)\n    tag_50:\n      dup3\n      add\n      swap2\n      swap1\n      0x00\n      mstore\n      keccak256(0x00, 0x20)\n      swap1\n    tag_51:\n      dup2\n      sload\n      dup2\n      mstore\n      swap1\n      0x01\n      add\n      swap1\n      0x20\n      add\n      dup1\n      dup4\n      gt\n      tag_51\n      jumpi\n      dup3\n      swap1\n      sub\n      0x1f\n      and\n      dup3\n      add\n      swap2\n    tag_49:\n      pop\n      pop\n      pop\n      pop\n      pop\n      swap1\n      dup1\n      0x01\n      add\n      sload\n      swap1\n      dup1\n      0x02\n      add\n      0x00\n      swap1\n      sload\n      swap1\n      0x0100\n      exp\n      swap1\n      div\n      0xffffffffffffffffffffffffffffffffffffffff\n      and\n      swap1\n      pop\n      dup4\n      jump\t// out\n        /* \"contracts/20. Structs.sol\":168:182  Car public car */\n    tag_16:\n      0x00\n      dup1\n      0x00\n      add\n      dup1\n      sload\n      tag_52\n      swap1\n      tag_47\n      jump\t// in\n    tag_52:\n      dup1\n      0x1f\n      add\n      0x20\n      dup1\n      swap2\n      div\n      mul\n      0x20\n      add\n      mload(0x40)\n      swap1\n      dup2\n      add\n      0x40\n      mstore\n      dup1\n      swap3\n      swap2\n      swap1\n      dup2\n      dup2\n      mstore\n      0x20\n      add\n      dup3\n      dup1\n      sload\n      tag_53\n      swap1\n      tag_47\n      jump\t// in\n    tag_53:\n      dup1\n      iszero\n      tag_54\n      jumpi\n      dup1\n      0x1f\n      lt\n      tag_55\n      jumpi\n      0x0100\n      dup1\n      dup4\n      sload\n      div\n      mul\n      dup4\n      mstore\n      swap2\n      0x20\n      add\n      swap2\n      jump(tag_54)\n    tag_55:\n      dup3\n      add\n      swap2\n      swap1\n      0x00\n      mstore\n      keccak256(0x00, 0x20)\n      swap1\n    tag_56:\n      dup2\n      sload\n      dup2\n      mstore\n      swap1\n      0x01\n      add\n      swap1\n      0x20\n      add\n      dup1\n      dup4\n      gt\n      tag_56\n      jumpi\n      dup3\n      swap1\n      sub\n      0x1f\n      and\n      dup3\n      add\n      swap2\n    tag_54:\n      pop\n      pop\n      pop\n      pop\n      pop\n      swap1\n      dup1\n      0x01\n      add\n      sload\n      swap1\n      dup1\n      0x02\n      add\n      0x00\n      swap1\n      sload\n      swap1\n      0x0100\n      exp\n      swap1\n      div\n      0xffffffffffffffffffffffffffffffffffffffff\n      and\n      swap1\n      pop\n      dup4\n      jump\t// out\n        /* \"contracts/20. Structs.sol\":188:205  Car[] public cars */\n    tag_21:\n      0x03\n      dup2\n      dup2\n      sload\n      dup2\n      lt\n      tag_57\n      jumpi\n      0x00\n      dup1\n      revert\n    tag_57:\n      swap1\n      0x00\n      mstore\n      keccak256(0x00, 0x20)\n      swap1\n      0x03\n      mul\n      add\n      0x00\n      swap2\n      pop\n      swap1\n      pop\n      dup1\n      0x00\n      add\n      dup1\n      sload\n      tag_59\n      swap1\n      tag_47\n      jump\t// in\n    tag_59:\n      dup1\n      0x1f\n      add\n      0x20\n      dup1\n      swap2\n      div\n      mul\n      0x20\n      add\n      mload(0x40)\n      swap1\n      dup2\n      add\n      0x40\n      mstore\n      dup1\n      swap3\n      swap2\n      swap1\n      dup2\n      dup2\n      mstore\n      0x20\n      add\n      dup3\n      dup1\n      sload\n      tag_60\n      swap1\n      tag_47\n      jump\t// in\n    tag_60:\n      dup1\n      iszero\n      tag_61\n      jumpi\n      dup1\n      0x1f\n      lt\n      tag_62\n      jumpi\n      0x0100\n      dup1\n      dup4\n      sload\n      div\n      mul\n      dup4\n      mstore\n      swap2\n      0x20\n      add\n      swap2\n      jump(tag_61)\n    tag_62:\n      dup3\n      add\n      swap2\n      swap1\n      0x00\n      mstore\n      keccak256(0x00, 0x20)\n      swap1\n    tag_63:\n      dup2\n      sload\n      dup2\n      mstore\n      swap1\n      0x01\n      add\n      swap1\n      0x20\n      add\n      dup1\n      dup4\n      gt\n      tag_63\n      jumpi\n      dup3\n      swap1\n      sub\n      0x1f\n      and\n      dup3\n      add\n      swap2\n    tag_61:\n      pop\n      pop\n      pop\n      pop\n      pop\n      swap1\n      dup1\n      0x01\n      add\n      sload\n      swap1\n      dup1\n      0x02\n      add\n      0x00\n      swap1\n      sload\n      swap1\n      0x0100\n      exp\n      swap1\n      div\n      0xffffffffffffffffffffffffffffffffffffffff\n      and\n      swap1\n      pop\n      dup4\n      jump\t// out\n    tag_25:\n      mload(0x40)\n      dup1\n      0x60\n      add\n      0x40\n      mstore\n      dup1\n      0x60\n      dup2\n      mstore\n      0x20\n      add\n      0x00\n      dup2\n      mstore\n      0x20\n      add\n      and(0xffffffffffffffffffffffffffffffffffffffff, 0x00)\n      dup2\n      mstore\n      pop\n      swap1\n      jump\t// out\n    tag_43:\n      pop\n      dup1\n      sload\n      tag_64\n      swap1\n      tag_47\n      jump\t// in\n    tag_64:\n      0x00\n      dup3\n      sstore\n      dup1\n      0x1f\n      lt\n      tag_66\n      jumpi\n      pop\n      jump(tag_65)\n    tag_66:\n      0x1f\n      add\n      0x20\n      swap1\n      div\n      swap1\n      0x00\n      mstore\n      keccak256(0x00, 0x20)\n      swap1\n      dup2\n      add\n      swap1\n      tag_67\n      swap2\n      swap1\n      tag_68\n      jump\t// in\n    tag_67:\n    tag_65:\n      pop\n      jump\t// out\n    tag_68:\n    tag_69:\n      dup1\n      dup3\n      gt\n      iszero\n      tag_70\n      jumpi\n      0x00\n      dup2\n      0x00\n      swap1\n      sstore\n      pop\n      0x01\n      add\n      jump(tag_69)\n    tag_70:\n      pop\n      swap1\n      jump\t// out\n        /* \"#utility.yul\":88:205   */\n    tag_72:\n        /* \"#utility.yul\":197:198   */\n      0x00\n        /* \"#utility.yul\":194:195   */\n      dup1\n        /* \"#utility.yul\":187:199   */\n      revert\n        /* \"#utility.yul\":334:460   */\n    tag_74:\n        /* \"#utility.yul\":371:378   */\n      0x00\n        /* \"#utility.yul\":411:453   */\n      0xffffffffffffffffffffffffffffffffffffffff\n        /* \"#utility.yul\":404:409   */\n      dup3\n        /* \"#utility.yul\":400:454   */\n      and\n        /* \"#utility.yul\":389:454   */\n      swap1\n      pop\n        /* \"#utility.yul\":334:460   */\n      swap2\n      swap1\n      pop\n      jump\t// out\n        /* \"#utility.yul\":466:562   */\n    tag_75:\n        /* \"#utility.yul\":503:510   */\n      0x00\n        /* \"#utility.yul\":532:556   */\n      tag_111\n        /* \"#utility.yul\":550:555   */\n      dup3\n        /* \"#utility.yul\":532:556   */\n      tag_74\n      jump\t// in\n    tag_111:\n        /* \"#utility.yul\":521:556   */\n      swap1\n      pop\n        /* \"#utility.yul\":466:562   */\n      swap2\n      swap1\n      pop\n      jump\t// out\n        /* \"#utility.yul\":568:690   */\n    tag_76:\n        /* \"#utility.yul\":641:665   */\n      tag_113\n        /* \"#utility.yul\":659:664   */\n      dup2\n        /* \"#utility.yul\":641:665   */\n      tag_75\n      jump\t// in\n    tag_113:\n        /* \"#utility.yul\":634:639   */\n      dup2\n        /* \"#utility.yul\":631:666   */\n      eq\n        /* \"#utility.yul\":621:684   */\n      tag_114\n      jumpi\n        /* \"#utility.yul\":680:681   */\n      0x00\n        /* \"#utility.yul\":677:678   */\n      dup1\n        /* \"#utility.yul\":670:682   */\n      revert\n        /* \"#utility.yul\":621:684   */\n    tag_114:\n        /* \"#utility.yul\":568:690   */\n      pop\n      jump\t// out\n        /* \"#utility.yul\":696:835   */\n    tag_77:\n        /* \"#utility.yul\":742:747   */\n      0x00\n        /* \"#utility.yul\":780:786   */\n      dup2\n        /* \"#utility.yul\":767:787   */\n      calldataload\n        /* \"#utility.yul\":758:787   */\n      swap1\n      pop\n        /* \"#utility.yul\":796:829   */\n      tag_116\n        /* \"#utility.yul\":823:828   */\n      dup2\n        /* \"#utility.yul\":796:829   */\n      tag_76\n      jump\t// in\n    tag_116:\n        /* \"#utility.yul\":696:835   */\n      swap3\n      swap2\n      pop\n      pop\n      jump\t// out\n        /* \"#utility.yul\":841:918   */\n    tag_78:\n        /* \"#utility.yul\":878:885   */\n      0x00\n        /* \"#utility.yul\":907:912   */\n      dup2\n        /* \"#utility.yul\":896:912   */\n      swap1\n      pop\n        /* \"#utility.yul\":841:918   */\n      swap2\n      swap1\n      pop\n      jump\t// out\n        /* \"#utility.yul\":924:1046   */\n    tag_79:\n        /* \"#utility.yul\":997:1021   */\n      tag_119\n        /* \"#utility.yul\":1015:1020   */\n      dup2\n        /* \"#utility.yul\":997:1021   */\n      tag_78\n      jump\t// in\n    tag_119:\n        /* \"#utility.yul\":990:995   */\n      dup2\n        /* \"#utility.yul\":987:1022   */\n      eq\n        /* \"#utility.yul\":977:1040   */\n      tag_120\n      jumpi\n        /* \"#utility.yul\":1036:1037   */\n      0x00\n        /* \"#utility.yul\":1033:1034   */\n      dup1\n        /* \"#utility.yul\":1026:1038   */\n      revert\n        /* \"#utility.yul\":977:1040   */\n    tag_120:\n        /* \"#utility.yul\":924:1046   */\n      pop\n      jump\t// out\n        /* \"#utility.yul\":1052:1191   */\n    tag_80:\n        /* \"#utility.yul\":1098:1103   */\n      0x00\n        /* \"#utility.yul\":1136:1142   */\n      dup2\n        /* \"#utility.yul\":1123:1143   */\n      calldataload\n        /* \"#utility.yul\":1114:1143   */\n      swap1\n      pop\n        /* \"#utility.yul\":1152:1185   */\n      tag_122\n        /* \"#utility.yul\":1179:1184   */\n      dup2\n        /* \"#utility.yul\":1152:1185   */\n      tag_79\n      jump\t// in\n    tag_122:\n        /* \"#utility.yul\":1052:1191   */\n      swap3\n      swap2\n      pop\n      pop\n      jump\t// out\n        /* \"#utility.yul\":1197:1671   */\n    tag_11:\n        /* \"#utility.yul\":1265:1271   */\n      0x00\n        /* \"#utility.yul\":1273:1279   */\n      dup1\n        /* \"#utility.yul\":1322:1324   */\n      0x40\n        /* \"#utility.yul\":1310:1319   */\n      dup4\n        /* \"#utility.yul\":1301:1308   */\n      dup6\n        /* \"#utility.yul\":1297:1320   */\n      sub\n        /* \"#utility.yul\":1293:1325   */\n      slt\n        /* \"#utility.yul\":1290:1409   */\n      iszero\n      tag_124\n      jumpi\n        /* \"#utility.yul\":1328:1407   */\n      tag_125\n      tag_72\n      jump\t// in\n    tag_125:\n        /* \"#utility.yul\":1290:1409   */\n    tag_124:\n        /* \"#utility.yul\":1448:1449   */\n      0x00\n        /* \"#utility.yul\":1473:1526   */\n      tag_126\n        /* \"#utility.yul\":1518:1525   */\n      dup6\n        /* \"#utility.yul\":1509:1515   */\n      dup3\n        /* \"#utility.yul\":1498:1507   */\n      dup7\n        /* \"#utility.yul\":1494:1516   */\n      add\n        /* \"#utility.yul\":1473:1526   */\n      tag_77\n      jump\t// in\n    tag_126:\n        /* \"#utility.yul\":1463:1526   */\n      swap3\n      pop\n        /* \"#utility.yul\":1419:1536   */\n      pop\n        /* \"#utility.yul\":1575:1577   */\n      0x20\n        /* \"#utility.yul\":1601:1654   */\n      tag_127\n        /* \"#utility.yul\":1646:1653   */\n      dup6\n        /* \"#utility.yul\":1637:1643   */\n      dup3\n        /* \"#utility.yul\":1626:1635   */\n      dup7\n        /* \"#utility.yul\":1622:1644   */\n      add\n        /* \"#utility.yul\":1601:1654   */\n      tag_80\n      jump\t// in\n    tag_127:\n        /* \"#utility.yul\":1591:1654   */\n      swap2\n      pop\n        /* \"#utility.yul\":1546:1664   */\n      pop\n        /* \"#utility.yul\":1197:1671   */\n      swap3\n      pop\n      swap3\n      swap1\n      pop\n      jump\t// out\n        /* \"#utility.yul\":1677:1776   */\n    tag_81:\n        /* \"#utility.yul\":1729:1735   */\n      0x00\n        /* \"#utility.yul\":1763:1768   */\n      dup2\n        /* \"#utility.yul\":1757:1769   */\n      mload\n        /* \"#utility.yul\":1747:1769   */\n      swap1\n      pop\n        /* \"#utility.yul\":1677:1776   */\n      swap2\n      swap1\n      pop\n      jump\t// out\n        /* \"#utility.yul\":1782:1951   */\n    tag_82:\n        /* \"#utility.yul\":1866:1877   */\n      0x00\n        /* \"#utility.yul\":1900:1906   */\n      dup3\n        /* \"#utility.yul\":1895:1898   */\n      dup3\n        /* \"#utility.yul\":1888:1907   */\n      mstore\n        /* \"#utility.yul\":1940:1944   */\n      0x20\n        /* \"#utility.yul\":1935:1938   */\n      dup3\n        /* \"#utility.yul\":1931:1945   */\n      add\n        /* \"#utility.yul\":1916:1945   */\n      swap1\n      pop\n        /* \"#utility.yul\":1782:1951   */\n      swap3\n      swap2\n      pop\n      pop\n      jump\t// out\n        /* \"#utility.yul\":1957:2203   */\n    tag_83:\n        /* \"#utility.yul\":2038:2039   */\n      0x00\n        /* \"#utility.yul\":2048:2161   */\n    tag_131:\n        /* \"#utility.yul\":2062:2068   */\n      dup4\n        /* \"#utility.yul\":2059:2060   */\n      dup2\n        /* \"#utility.yul\":2056:2069   */\n      lt\n        /* \"#utility.yul\":2048:2161   */\n      iszero\n      tag_133\n      jumpi\n        /* \"#utility.yul\":2147:2148   */\n      dup1\n        /* \"#utility.yul\":2142:2145   */\n      dup3\n        /* \"#utility.yul\":2138:2149   */\n      add\n        /* \"#utility.yul\":2132:2150   */\n      mload\n        /* \"#utility.yul\":2128:2129   */\n      dup2\n        /* \"#utility.yul\":2123:2126   */\n      dup5\n        /* \"#utility.yul\":2119:2130   */\n      add\n        /* \"#utility.yul\":2112:2151   */\n      mstore\n        /* \"#utility.yul\":2084:2086   */\n      0x20\n        /* \"#utility.yul\":2081:2082   */\n      dup2\n        /* \"#utility.yul\":2077:2087   */\n      add\n        /* \"#utility.yul\":2072:2087   */\n      swap1\n      pop\n        /* \"#utility.yul\":2048:2161   */\n      jump(tag_131)\n    tag_133:\n        /* \"#utility.yul\":2195:2196   */\n      0x00\n        /* \"#utility.yul\":2186:2192   */\n      dup5\n        /* \"#utility.yul\":2181:2184   */\n      dup5\n        /* \"#utility.yul\":2177:2193   */\n      add\n        /* \"#utility.yul\":2170:2197   */\n      mstore\n        /* \"#utility.yul\":2019:2203   */\n      pop\n        /* \"#utility.yul\":1957:2203   */\n      pop\n      pop\n      pop\n      jump\t// out\n        /* \"#utility.yul\":2209:2311   */\n    tag_84:\n        /* \"#utility.yul\":2250:2256   */\n      0x00\n        /* \"#utility.yul\":2301:2303   */\n      0x1f\n        /* \"#utility.yul\":2297:2304   */\n      not\n        /* \"#utility.yul\":2292:2294   */\n      0x1f\n        /* \"#utility.yul\":2285:2290   */\n      dup4\n        /* \"#utility.yul\":2281:2295   */\n      add\n        /* \"#utility.yul\":2277:2305   */\n      and\n        /* \"#utility.yul\":2267:2305   */\n      swap1\n      pop\n        /* \"#utility.yul\":2209:2311   */\n      swap2\n      swap1\n      pop\n      jump\t// out\n        /* \"#utility.yul\":2317:2694   */\n    tag_85:\n        /* \"#utility.yul\":2405:2408   */\n      0x00\n        /* \"#utility.yul\":2433:2472   */\n      tag_136\n        /* \"#utility.yul\":2466:2471   */\n      dup3\n        /* \"#utility.yul\":2433:2472   */\n      tag_81\n      jump\t// in\n    tag_136:\n        /* \"#utility.yul\":2488:2559   */\n      tag_137\n        /* \"#utility.yul\":2552:2558   */\n      dup2\n        /* \"#utility.yul\":2547:2550   */\n      dup6\n        /* \"#utility.yul\":2488:2559   */\n      tag_82\n      jump\t// in\n    tag_137:\n        /* \"#utility.yul\":2481:2559   */\n      swap4\n      pop\n        /* \"#utility.yul\":2568:2633   */\n      tag_138\n        /* \"#utility.yul\":2626:2632   */\n      dup2\n        /* \"#utility.yul\":2621:2624   */\n      dup6\n        /* \"#utility.yul\":2614:2618   */\n      0x20\n        /* \"#utility.yul\":2607:2612   */\n      dup7\n        /* \"#utility.yul\":2603:2619   */\n      add\n        /* \"#utility.yul\":2568:2633   */\n      tag_83\n      jump\t// in\n    tag_138:\n        /* \"#utility.yul\":2658:2687   */\n      tag_139\n        /* \"#utility.yul\":2680:2686   */\n      dup2\n        /* \"#utility.yul\":2658:2687   */\n      tag_84\n      jump\t// in\n    tag_139:\n        /* \"#utility.yul\":2653:2656   */\n      dup5\n        /* \"#utility.yul\":2649:2688   */\n      add\n        /* \"#utility.yul\":2642:2688   */\n      swap2\n      pop\n        /* \"#utility.yul\":2409:2694   */\n      pop\n        /* \"#utility.yul\":2317:2694   */\n      swap3\n      swap2\n      pop\n      pop\n      jump\t// out\n        /* \"#utility.yul\":2700:2818   */\n    tag_86:\n        /* \"#utility.yul\":2787:2811   */\n      tag_141\n        /* \"#utility.yul\":2805:2810   */\n      dup2\n        /* \"#utility.yul\":2787:2811   */\n      tag_78\n      jump\t// in\n    tag_141:\n        /* \"#utility.yul\":2782:2785   */\n      dup3\n        /* \"#utility.yul\":2775:2812   */\n      mstore\n        /* \"#utility.yul\":2700:2818   */\n      pop\n      pop\n      jump\t// out\n        /* \"#utility.yul\":2824:2942   */\n    tag_87:\n        /* \"#utility.yul\":2911:2935   */\n      tag_143\n        /* \"#utility.yul\":2929:2934   */\n      dup2\n        /* \"#utility.yul\":2911:2935   */\n      tag_75\n      jump\t// in\n    tag_143:\n        /* \"#utility.yul\":2906:2909   */\n      dup3\n        /* \"#utility.yul\":2899:2936   */\n      mstore\n        /* \"#utility.yul\":2824:2942   */\n      pop\n      pop\n      jump\t// out\n        /* \"#utility.yul\":2948:3481   */\n    tag_14:\n        /* \"#utility.yul\":3117:3121   */\n      0x00\n        /* \"#utility.yul\":3155:3157   */\n      0x60\n        /* \"#utility.yul\":3144:3153   */\n      dup3\n        /* \"#utility.yul\":3140:3158   */\n      add\n        /* \"#utility.yul\":3132:3158   */\n      swap1\n      pop\n        /* \"#utility.yul\":3204:3213   */\n      dup2\n        /* \"#utility.yul\":3198:3202   */\n      dup2\n        /* \"#utility.yul\":3194:3214   */\n      sub\n        /* \"#utility.yul\":3190:3191   */\n      0x00\n        /* \"#utility.yul\":3179:3188   */\n      dup4\n        /* \"#utility.yul\":3175:3192   */\n      add\n        /* \"#utility.yul\":3168:3215   */\n      mstore\n        /* \"#utility.yul\":3232:3310   */\n      tag_145\n        /* \"#utility.yul\":3305:3309   */\n      dup2\n        /* \"#utility.yul\":3296:3302   */\n      dup7\n        /* \"#utility.yul\":3232:3310   */\n      tag_85\n      jump\t// in\n    tag_145:\n        /* \"#utility.yul\":3224:3310   */\n      swap1\n      pop\n        /* \"#utility.yul\":3320:3392   */\n      tag_146\n        /* \"#utility.yul\":3388:3390   */\n      0x20\n        /* \"#utility.yul\":3377:3386   */\n      dup4\n        /* \"#utility.yul\":3373:3391   */\n      add\n        /* \"#utility.yul\":3364:3370   */\n      dup6\n        /* \"#utility.yul\":3320:3392   */\n      tag_86\n      jump\t// in\n    tag_146:\n        /* \"#utility.yul\":3402:3474   */\n      tag_147\n        /* \"#utility.yul\":3470:3472   */\n      0x40\n        /* \"#utility.yul\":3459:3468   */\n      dup4\n        /* \"#utility.yul\":3455:3473   */\n      add\n        /* \"#utility.yul\":3446:3452   */\n      dup5\n        /* \"#utility.yul\":3402:3474   */\n      tag_87\n      jump\t// in\n    tag_147:\n        /* \"#utility.yul\":2948:3481   */\n      swap5\n      swap4\n      pop\n      pop\n      pop\n      pop\n      jump\t// out\n        /* \"#utility.yul\":3487:3816   */\n    tag_20:\n        /* \"#utility.yul\":3546:3552   */\n      0x00\n        /* \"#utility.yul\":3595:3597   */\n      0x20\n        /* \"#utility.yul\":3583:3592   */\n      dup3\n        /* \"#utility.yul\":3574:3581   */\n      dup5\n        /* \"#utility.yul\":3570:3593   */\n      sub\n        /* \"#utility.yul\":3566:3598   */\n      slt\n        /* \"#utility.yul\":3563:3682   */\n      iszero\n      tag_149\n      jumpi\n        /* \"#utility.yul\":3601:3680   */\n      tag_150\n      tag_72\n      jump\t// in\n    tag_150:\n        /* \"#utility.yul\":3563:3682   */\n    tag_149:\n        /* \"#utility.yul\":3721:3722   */\n      0x00\n        /* \"#utility.yul\":3746:3799   */\n      tag_151\n        /* \"#utility.yul\":3791:3798   */\n      dup5\n        /* \"#utility.yul\":3782:3788   */\n      dup3\n        /* \"#utility.yul\":3771:3780   */\n      dup6\n        /* \"#utility.yul\":3767:3789   */\n      add\n        /* \"#utility.yul\":3746:3799   */\n      tag_80\n      jump\t// in\n    tag_151:\n        /* \"#utility.yul\":3736:3799   */\n      swap2\n      pop\n        /* \"#utility.yul\":3692:3809   */\n      pop\n        /* \"#utility.yul\":3487:3816   */\n      swap3\n      swap2\n      pop\n      pop\n      jump\t// out\n        /* \"#utility.yul\":3822:4002   */\n    tag_88:\n        /* \"#utility.yul\":3870:3947   */\n      0x4e487b7100000000000000000000000000000000000000000000000000000000\n        /* \"#utility.yul\":3867:3868   */\n      0x00\n        /* \"#utility.yul\":3860:3948   */\n      mstore\n        /* \"#utility.yul\":3967:3971   */\n      0x41\n        /* \"#utility.yul\":3964:3965   */\n      0x04\n        /* \"#utility.yul\":3957:3972   */\n      mstore\n        /* \"#utility.yul\":3991:3995   */\n      0x24\n        /* \"#utility.yul\":3988:3989   */\n      0x00\n        /* \"#utility.yul\":3981:3996   */\n      revert\n        /* \"#utility.yul\":4008:4188   */\n    tag_89:\n        /* \"#utility.yul\":4056:4133   */\n      0x4e487b7100000000000000000000000000000000000000000000000000000000\n        /* \"#utility.yul\":4053:4054   */\n      0x00\n        /* \"#utility.yul\":4046:4134   */\n      mstore\n        /* \"#utility.yul\":4153:4157   */\n      0x22\n        /* \"#utility.yul\":4150:4151   */\n      0x04\n        /* \"#utility.yul\":4143:4158   */\n      mstore\n        /* \"#utility.yul\":4177:4181   */\n      0x24\n        /* \"#utility.yul\":4174:4175   */\n      0x00\n        /* \"#utility.yul\":4167:4182   */\n      revert\n        /* \"#utility.yul\":4194:4514   */\n    tag_47:\n        /* \"#utility.yul\":4238:4244   */\n      0x00\n        /* \"#utility.yul\":4275:4276   */\n      0x02\n        /* \"#utility.yul\":4269:4273   */\n      dup3\n        /* \"#utility.yul\":4265:4277   */\n      div\n        /* \"#utility.yul\":4255:4277   */\n      swap1\n      pop\n        /* \"#utility.yul\":4322:4323   */\n      0x01\n        /* \"#utility.yul\":4316:4320   */\n      dup3\n        /* \"#utility.yul\":4312:4324   */\n      and\n        /* \"#utility.yul\":4343:4361   */\n      dup1\n        /* \"#utility.yul\":4333:4414   */\n      tag_155\n      jumpi\n        /* \"#utility.yul\":4399:4403   */\n      0x7f\n        /* \"#utility.yul\":4391:4397   */\n      dup3\n        /* \"#utility.yul\":4387:4404   */\n      and\n        /* \"#utility.yul\":4377:4404   */\n      swap2\n      pop\n        /* \"#utility.yul\":4333:4414   */\n    tag_155:\n        /* \"#utility.yul\":4461:4463   */\n      0x20\n        /* \"#utility.yul\":4453:4459   */\n      dup3\n        /* \"#utility.yul\":4450:4464   */\n      lt\n        /* \"#utility.yul\":4430:4448   */\n      dup2\n        /* \"#utility.yul\":4427:4465   */\n      sub\n        /* \"#utility.yul\":4424:4508   */\n      tag_156\n      jumpi\n        /* \"#utility.yul\":4480:4498   */\n      tag_157\n      tag_89\n      jump\t// in\n    tag_157:\n        /* \"#utility.yul\":4424:4508   */\n    tag_156:\n        /* \"#utility.yul\":4245:4514   */\n      pop\n        /* \"#utility.yul\":4194:4514   */\n      swap2\n      swap1\n      pop\n      jump\t// out\n        /* \"#utility.yul\":4520:4661   */\n    tag_90:\n        /* \"#utility.yul\":4569:4573   */\n      0x00\n        /* \"#utility.yul\":4592:4595   */\n      dup2\n        /* \"#utility.yul\":4584:4595   */\n      swap1\n      pop\n        /* \"#utility.yul\":4615:4618   */\n      dup2\n        /* \"#utility.yul\":4612:4613   */\n      0x00\n        /* \"#utility.yul\":4605:4619   */\n      mstore\n        /* \"#utility.yul\":4649:4653   */\n      0x20\n        /* \"#utility.yul\":4646:4647   */\n      0x00\n        /* \"#utility.yul\":4636:4654   */\n      keccak256\n        /* \"#utility.yul\":4628:4654   */\n      swap1\n      pop\n        /* \"#utility.yul\":4520:4661   */\n      swap2\n      swap1\n      pop\n      jump\t// out\n        /* \"#utility.yul\":4667:4760   */\n    tag_91:\n        /* \"#utility.yul\":4704:4710   */\n      0x00\n        /* \"#utility.yul\":4751:4753   */\n      0x20\n        /* \"#utility.yul\":4746:4748   */\n      0x1f\n        /* \"#utility.yul\":4739:4744   */\n      dup4\n        /* \"#utility.yul\":4735:4749   */\n      add\n        /* \"#utility.yul\":4731:4754   */\n      div\n        /* \"#utility.yul\":4721:4754   */\n      swap1\n      pop\n        /* \"#utility.yul\":4667:4760   */\n      swap2\n      swap1\n      pop\n      jump\t// out\n        /* \"#utility.yul\":4766:4873   */\n    tag_92:\n        /* \"#utility.yul\":4810:4818   */\n      0x00\n        /* \"#utility.yul\":4860:4865   */\n      dup3\n        /* \"#utility.yul\":4854:4858   */\n      dup3\n        /* \"#utility.yul\":4850:4866   */\n      shl\n        /* \"#utility.yul\":4829:4866   */\n      swap1\n      pop\n        /* \"#utility.yul\":4766:4873   */\n      swap3\n      swap2\n      pop\n      pop\n      jump\t// out\n        /* \"#utility.yul\":4879:5272   */\n    tag_93:\n        /* \"#utility.yul\":4948:4954   */\n      0x00\n        /* \"#utility.yul\":4998:4999   */\n      0x08\n        /* \"#utility.yul\":4986:4996   */\n      dup4\n        /* \"#utility.yul\":4982:5000   */\n      mul\n        /* \"#utility.yul\":5021:5118   */\n      tag_162\n        /* \"#utility.yul\":5051:5117   */\n      0xffffffffffffffffffffffffffffffffffffffffffffffffffffffffffffffff\n        /* \"#utility.yul\":5040:5049   */\n      dup3\n        /* \"#utility.yul\":5021:5118   */\n      tag_92\n      jump\t// in\n    tag_162:\n        /* \"#utility.yul\":5139:5178   */\n      tag_163\n        /* \"#utility.yul\":5169:5177   */\n      dup7\n        /* \"#utility.yul\":5158:5167   */\n      dup4\n        /* \"#utility.yul\":5139:5178   */\n      tag_92\n      jump\t// in\n    tag_163:\n        /* \"#utility.yul\":5127:5178   */\n      swap6\n      pop\n        /* \"#utility.yul\":5211:5215   */\n      dup1\n        /* \"#utility.yul\":5207:5216   */\n      not\n        /* \"#utility.yul\":5200:5205   */\n      dup5\n        /* \"#utility.yul\":5196:5217   */\n      and\n        /* \"#utility.yul\":5187:5217   */\n      swap4\n      pop\n        /* \"#utility.yul\":5260:5264   */\n      dup1\n        /* \"#utility.yul\":5250:5258   */\n      dup7\n        /* \"#utility.yul\":5246:5265   */\n      and\n        /* \"#utility.yul\":5239:5244   */\n      dup5\n        /* \"#utility.yul\":5236:5266   */\n      or\n        /* \"#utility.yul\":5226:5266   */\n      swap3\n      pop\n        /* \"#utility.yul\":4955:5272   */\n      pop\n      pop\n        /* \"#utility.yul\":4879:5272   */\n      swap4\n      swap3\n      pop\n      pop\n      pop\n      jump\t// out\n        /* \"#utility.yul\":5278:5338   */\n    tag_94:\n        /* \"#utility.yul\":5306:5309   */\n      0x00\n        /* \"#utility.yul\":5327:5332   */\n      dup2\n        /* \"#utility.yul\":5320:5332   */\n      swap1\n      pop\n        /* \"#utility.yul\":5278:5338   */\n      swap2\n      swap1\n      pop\n      jump\t// out\n        /* \"#utility.yul\":5344:5486   */\n    tag_95:\n        /* \"#utility.yul\":5394:5403   */\n      0x00\n        /* \"#utility.yul\":5427:5480   */\n      tag_166\n        /* \"#utility.yul\":5445:5479   */\n      tag_167\n        /* \"#utility.yul\":5454:5478   */\n      tag_168\n        /* \"#utility.yul\":5472:5477   */\n      dup5\n        /* \"#utility.yul\":5454:5478   */\n      tag_78\n      jump\t// in\n    tag_168:\n        /* \"#utility.yul\":5445:5479   */\n      tag_94\n      jump\t// in\n    tag_167:\n        /* \"#utility.yul\":5427:5480   */\n      tag_78\n      jump\t// in\n    tag_166:\n        /* \"#utility.yul\":5414:5480   */\n      swap1\n      pop\n        /* \"#utility.yul\":5344:5486   */\n      swap2\n      swap1\n      pop\n      jump\t// out\n        /* \"#utility.yul\":5492:5567   */\n    tag_96:\n        /* \"#utility.yul\":5535:5538   */\n      0x00\n        /* \"#utility.yul\":5556:5561   */\n      dup2\n        /* \"#utility.yul\":5549:5561   */\n      swap1\n      pop\n        /* \"#utility.yul\":5492:5567   */\n      swap2\n      swap1\n      pop\n      jump\t// out\n        /* \"#utility.yul\":5573:5842   */\n    tag_97:\n        /* \"#utility.yul\":5683:5722   */\n      tag_171\n        /* \"#utility.yul\":5714:5721   */\n      dup4\n        /* \"#utility.yul\":5683:5722   */\n      tag_95\n      jump\t// in\n    tag_171:\n        /* \"#utility.yul\":5744:5835   */\n      tag_172\n        /* \"#utility.yul\":5793:5834   */\n      tag_173\n        /* \"#utility.yul\":5817:5833   */\n      dup3\n        /* \"#utility.yul\":5793:5834   */\n      tag_96\n      jump\t// in\n    tag_173:\n        /* \"#utility.yul\":5785:5791   */\n      dup5\n        /* \"#utility.yul\":5778:5782   */\n      dup5\n        /* \"#utility.yul\":5772:5783   */\n      sload\n        /* \"#utility.yul\":5744:5835   */\n      tag_93\n      jump\t// in\n    tag_172:\n        /* \"#utility.yul\":5738:5742   */\n      dup3\n        /* \"#utility.yul\":5731:5836   */\n      sstore\n        /* \"#utility.yul\":5649:5842   */\n      pop\n        /* \"#utility.yul\":5573:5842   */\n      pop\n      pop\n      pop\n      jump\t// out\n        /* \"#utility.yul\":5848:5921   */\n    tag_98:\n        /* \"#utility.yul\":5893:5896   */\n      0x00\n        /* \"#utility.yul\":5848:5921   */\n      swap1\n      jump\t// out\n        /* \"#utility.yul\":5927:6116   */\n    tag_99:\n        /* \"#utility.yul\":6004:6036   */\n      tag_176\n      tag_98\n      jump\t// in\n    tag_176:\n        /* \"#utility.yul\":6045:6110   */\n      tag_177\n        /* \"#utility.yul\":6103:6109   */\n      dup2\n        /* \"#utility.yul\":6095:6101   */\n      dup5\n        /* \"#utility.yul\":6089:6093   */\n      dup5\n        /* \"#utility.yul\":6045:6110   */\n      tag_97\n      jump\t// in\n    tag_177:\n        /* \"#utility.yul\":5980:6116   */\n      pop\n        /* \"#utility.yul\":5927:6116   */\n      pop\n      pop\n      jump\t// out\n        /* \"#utility.yul\":6122:6308   */\n    tag_100:\n        /* \"#utility.yul\":6182:6302   */\n    tag_179:\n        /* \"#utility.yul\":6199:6202   */\n      dup2\n        /* \"#utility.yul\":6192:6197   */\n      dup2\n        /* \"#utility.yul\":6189:6203   */\n      lt\n        /* \"#utility.yul\":6182:6302   */\n      iszero\n      tag_181\n      jumpi\n        /* \"#utility.yul\":6253:6292   */\n      tag_182\n        /* \"#utility.yul\":6290:6291   */\n      0x00\n        /* \"#utility.yul\":6283:6288   */\n      dup3\n        /* \"#utility.yul\":6253:6292   */\n      tag_99\n      jump\t// in\n    tag_182:\n        /* \"#utility.yul\":6226:6227   */\n      0x01\n        /* \"#utility.yul\":6219:6224   */\n      dup2\n        /* \"#utility.yul\":6215:6228   */\n      add\n        /* \"#utility.yul\":6206:6228   */\n      swap1\n      pop\n        /* \"#utility.yul\":6182:6302   */\n      jump(tag_179)\n    tag_181:\n        /* \"#utility.yul\":6122:6308   */\n      pop\n      pop\n      jump\t// out\n        /* \"#utility.yul\":6314:6857   */\n    tag_101:\n        /* \"#utility.yul\":6415:6417   */\n      0x1f\n        /* \"#utility.yul\":6410:6413   */\n      dup3\n        /* \"#utility.yul\":6407:6418   */\n      gt\n        /* \"#utility.yul\":6404:6850   */\n      iszero\n      tag_184\n      jumpi\n        /* \"#utility.yul\":6449:6487   */\n      tag_185\n        /* \"#utility.yul\":6481:6486   */\n      dup2\n        /* \"#utility.yul\":6449:6487   */\n      tag_90\n      jump\t// in\n    tag_185:\n        /* \"#utility.yul\":6533:6562   */\n      tag_186\n        /* \"#utility.yul\":6551:6561   */\n      dup5\n        /* \"#utility.yul\":6533:6562   */\n      tag_91\n      jump\t// in\n    tag_186:\n        /* \"#utility.yul\":6523:6531   */\n      dup2\n        /* \"#utility.yul\":6519:6563   */\n      add\n        /* \"#utility.yul\":6716:6718   */\n      0x20\n        /* \"#utility.yul\":6704:6714   */\n      dup6\n        /* \"#utility.yul\":6701:6719   */\n      lt\n        /* \"#utility.yul\":6698:6747   */\n      iszero\n      tag_187\n      jumpi\n        /* \"#utility.yul\":6737:6745   */\n      dup2\n        /* \"#utility.yul\":6722:6745   */\n      swap1\n      pop\n        /* \"#utility.yul\":6698:6747   */\n    tag_187:\n        /* \"#utility.yul\":6760:6840   */\n      tag_188\n        /* \"#utility.yul\":6816:6838   */\n      tag_189\n        /* \"#utility.yul\":6834:6837   */\n      dup6\n        /* \"#utility.yul\":6816:6838   */\n      tag_91\n      jump\t// in\n    tag_189:\n        /* \"#utility.yul\":6806:6814   */\n      dup4\n        /* \"#utility.yul\":6802:6839   */\n      add\n        /* \"#utility.yul\":6789:6800   */\n      dup3\n        /* \"#utility.yul\":6760:6840   */\n      tag_100\n      jump\t// in\n    tag_188:\n        /* \"#utility.yul\":6419:6850   */\n      pop\n      pop\n        /* \"#utility.yul\":6404:6850   */\n    tag_184:\n        /* \"#utility.yul\":6314:6857   */\n      pop\n      pop\n      pop\n      jump\t// out\n        /* \"#utility.yul\":6863:6980   */\n    tag_102:\n        /* \"#utility.yul\":6917:6925   */\n      0x00\n        /* \"#utility.yul\":6967:6972   */\n      dup3\n        /* \"#utility.yul\":6961:6965   */\n      dup3\n        /* \"#utility.yul\":6957:6973   */\n      shr\n        /* \"#utility.yul\":6936:6973   */\n      swap1\n      pop\n        /* \"#utility.yul\":6863:6980   */\n      swap3\n      swap2\n      pop\n      pop\n      jump\t// out\n        /* \"#utility.yul\":6986:7155   */\n    tag_103:\n        /* \"#utility.yul\":7030:7036   */\n      0x00\n        /* \"#utility.yul\":7063:7114   */\n      tag_192\n        /* \"#utility.yul\":7111:7112   */\n      0x00\n        /* \"#utility.yul\":7107:7113   */\n      not\n        /* \"#utility.yul\":7099:7104   */\n      dup5\n        /* \"#utility.yul\":7096:7097   */\n      0x08\n        /* \"#utility.yul\":7092:7105   */\n      mul\n        /* \"#utility.yul\":7063:7114   */\n      tag_102\n      jump\t// in\n    tag_192:\n        /* \"#utility.yul\":7059:7115   */\n      not\n        /* \"#utility.yul\":7144:7148   */\n      dup1\n        /* \"#utility.yul\":7138:7142   */\n      dup4\n        /* \"#utility.yul\":7134:7149   */\n      and\n        /* \"#utility.yul\":7124:7149   */\n      swap2\n      pop\n        /* \"#utility.yul\":7037:7155   */\n      pop\n        /* \"#utility.yul\":6986:7155   */\n      swap3\n      swap2\n      pop\n      pop\n      jump\t// out\n        /* \"#utility.yul\":7160:7455   */\n    tag_104:\n        /* \"#utility.yul\":7236:7240   */\n      0x00\n        /* \"#utility.yul\":7382:7411   */\n      tag_194\n        /* \"#utility.yul\":7407:7410   */\n      dup4\n        /* \"#utility.yul\":7401:7405   */\n      dup4\n        /* \"#utility.yul\":7382:7411   */\n      tag_103\n      jump\t// in\n    tag_194:\n        /* \"#utility.yul\":7374:7411   */\n      swap2\n      pop\n        /* \"#utility.yul\":7444:7447   */\n      dup3\n        /* \"#utility.yul\":7441:7442   */\n      0x02\n        /* \"#utility.yul\":7437:7448   */\n      mul\n        /* \"#utility.yul\":7431:7435   */\n      dup3\n        /* \"#utility.yul\":7428:7449   */\n      or\n        /* \"#utility.yul\":7420:7449   */\n      swap1\n      pop\n        /* \"#utility.yul\":7160:7455   */\n      swap3\n      swap2\n      pop\n      pop\n      jump\t// out\n        /* \"#utility.yul\":7460:8855   */\n    tag_28:\n        /* \"#utility.yul\":7577:7614   */\n      tag_196\n        /* \"#utility.yul\":7610:7613   */\n      dup3\n        /* \"#utility.yul\":7577:7614   */\n      tag_81\n      jump\t// in\n    tag_196:\n        /* \"#utility.yul\":7679:7697   */\n      0xffffffffffffffff\n        /* \"#utility.yul\":7671:7677   */\n      dup2\n        /* \"#utility.yul\":7668:7698   */\n      gt\n        /* \"#utility.yul\":7665:7721   */\n      iszero\n      tag_197\n      jumpi\n        /* \"#utility.yul\":7701:7719   */\n      tag_198\n      tag_88\n      jump\t// in\n    tag_198:\n        /* \"#utility.yul\":7665:7721   */\n    tag_197:\n        /* \"#utility.yul\":7745:7783   */\n      tag_199\n        /* \"#utility.yul\":7777:7781   */\n      dup3\n        /* \"#utility.yul\":7771:7782   */\n      sload\n        /* \"#utility.yul\":7745:7783   */\n      tag_47\n      jump\t// in\n    tag_199:\n        /* \"#utility.yul\":7830:7897   */\n      tag_200\n        /* \"#utility.yul\":7890:7896   */\n      dup3\n        /* \"#utility.yul\":7882:7888   */\n      dup3\n        /* \"#utility.yul\":7876:7880   */\n      dup6\n        /* \"#utility.yul\":7830:7897   */\n      tag_101\n      jump\t// in\n    tag_200:\n        /* \"#utility.yul\":7924:7925   */\n      0x00\n        /* \"#utility.yul\":7948:7952   */\n      0x20\n        /* \"#utility.yul\":7935:7952   */\n      swap1\n      pop\n        /* \"#utility.yul\":7980:7982   */\n      0x1f\n        /* \"#utility.yul\":7972:7978   */\n      dup4\n        /* \"#utility.yul\":7969:7983   */\n      gt\n        /* \"#utility.yul\":7997:7998   */\n      0x01\n        /* \"#utility.yul\":7992:8610   */\n      dup2\n      eq\n      tag_202\n      jumpi\n        /* \"#utility.yul\":8654:8655   */\n      0x00\n        /* \"#utility.yul\":8671:8677   */\n      dup5\n        /* \"#utility.yul\":8668:8745   */\n      iszero\n      tag_203\n      jumpi\n        /* \"#utility.yul\":8720:8729   */\n      dup3\n        /* \"#utility.yul\":8715:8718   */\n      dup8\n        /* \"#utility.yul\":8711:8730   */\n      add\n        /* \"#utility.yul\":8705:8731   */\n      mload\n        /* \"#utility.yul\":8696:8731   */\n      swap1\n      pop\n        /* \"#utility.yul\":8668:8745   */\n    tag_203:\n        /* \"#utility.yul\":8771:8838   */\n      tag_204\n        /* \"#utility.yul\":8831:8837   */\n      dup6\n        /* \"#utility.yul\":8824:8829   */\n      dup3\n        /* \"#utility.yul\":8771:8838   */\n      tag_104\n      jump\t// in\n    tag_204:\n        /* \"#utility.yul\":8765:8769   */\n      dup7\n        /* \"#utility.yul\":8758:8839   */\n      sstore\n        /* \"#utility.yul\":8627:8849   */\n      pop\n        /* \"#utility.yul\":7962:8849   */\n      jump(tag_201)\n        /* \"#utility.yul\":7992:8610   */\n    tag_202:\n        /* \"#utility.yul\":8044:8048   */\n      0x1f\n        /* \"#utility.yul\":8040:8049   */\n      not\n        /* \"#utility.yul\":8032:8038   */\n      dup5\n        /* \"#utility.yul\":8028:8050   */\n      and\n        /* \"#utility.yul\":8078:8115   */\n      tag_205\n        /* \"#utility.yul\":8110:8114   */\n      dup7\n        /* \"#utility.yul\":8078:8115   */\n      tag_90\n      jump\t// in\n    tag_205:\n        /* \"#utility.yul\":8137:8138   */\n      0x00\n        /* \"#utility.yul\":8151:8359   */\n    tag_206:\n        /* \"#utility.yul\":8165:8172   */\n      dup3\n        /* \"#utility.yul\":8162:8163   */\n      dup2\n        /* \"#utility.yul\":8159:8173   */\n      lt\n        /* \"#utility.yul\":8151:8359   */\n      iszero\n      tag_208\n      jumpi\n        /* \"#utility.yul\":8244:8253   */\n      dup5\n        /* \"#utility.yul\":8239:8242   */\n      dup10\n        /* \"#utility.yul\":8235:8254   */\n      add\n        /* \"#utility.yul\":8229:8255   */\n      mload\n        /* \"#utility.yul\":8221:8227   */\n      dup3\n        /* \"#utility.yul\":8214:8256   */\n      sstore\n        /* \"#utility.yul\":8295:8296   */\n      0x01\n        /* \"#utility.yul\":8287:8293   */\n      dup3\n        /* \"#utility.yul\":8283:8297   */\n      add\n        /* \"#utility.yul\":8273:8297   */\n      swap2\n      pop\n        /* \"#utility.yul\":8342:8344   */\n      0x20\n        /* \"#utility.yul\":8331:8340   */\n      dup6\n        /* \"#utility.yul\":8327:8345   */\n      add\n        /* \"#utility.yul\":8314:8345   */\n      swap5\n      pop\n        /* \"#utility.yul\":8188:8192   */\n      0x20\n        /* \"#utility.yul\":8185:8186   */\n      dup2\n        /* \"#utility.yul\":8181:8193   */\n      add\n        /* \"#utility.yul\":8176:8193   */\n      swap1\n      pop\n        /* \"#utility.yul\":8151:8359   */\n      jump(tag_206)\n    tag_208:\n        /* \"#utility.yul\":8387:8393   */\n      dup7\n        /* \"#utility.yul\":8378:8385   */\n      dup4\n        /* \"#utility.yul\":8375:8394   */\n      lt\n        /* \"#utility.yul\":8372:8551   */\n      iszero\n      tag_209\n      jumpi\n        /* \"#utility.yul\":8445:8454   */\n      dup5\n        /* \"#utility.yul\":8440:8443   */\n      dup10\n        /* \"#utility.yul\":8436:8455   */\n      add\n        /* \"#utility.yul\":8430:8456   */\n      mload\n        /* \"#utility.yul\":8488:8536   */\n      tag_210\n        /* \"#utility.yul\":8530:8534   */\n      0x1f\n        /* \"#utility.yul\":8522:8528   */\n      dup10\n        /* \"#utility.yul\":8518:8535   */\n      and\n        /* \"#utility.yul\":8507:8516   */\n      dup3\n        /* \"#utility.yul\":8488:8536   */\n      tag_103\n      jump\t// in\n    tag_210:\n        /* \"#utility.yul\":8480:8486   */\n      dup4\n        /* \"#utility.yul\":8473:8537   */\n      sstore\n        /* \"#utility.yul\":8395:8551   */\n      pop\n        /* \"#utility.yul\":8372:8551   */\n    tag_209:\n        /* \"#utility.yul\":8597:8598   */\n      0x01\n        /* \"#utility.yul\":8593:8594   */\n      0x02\n        /* \"#utility.yul\":8585:8591   */\n      dup9\n        /* \"#utility.yul\":8581:8595   */\n      mul\n        /* \"#utility.yul\":8577:8599   */\n      add\n        /* \"#utility.yul\":8571:8575   */\n      dup9\n        /* \"#utility.yul\":8564:8600   */\n      sstore\n        /* \"#utility.yul\":7999:8610   */\n      pop\n      pop\n      pop\n        /* \"#utility.yul\":7962:8849   */\n    tag_201:\n      pop\n        /* \"#utility.yul\":7552:8855   */\n      pop\n      pop\n      pop\n        /* \"#utility.yul\":7460:8855   */\n      pop\n      pop\n      jump\t// out\n        /* \"#utility.yul\":8861:9041   */\n    tag_37:\n        /* \"#utility.yul\":8909:8986   */\n      0x4e487b7100000000000000000000000000000000000000000000000000000000\n        /* \"#utility.yul\":8906:8907   */\n      0x00\n        /* \"#utility.yul\":8899:8987   */\n      mstore\n        /* \"#utility.yul\":9006:9010   */\n      0x32\n        /* \"#utility.yul\":9003:9004   */\n      0x04\n        /* \"#utility.yul\":8996:9011   */\n      mstore\n        /* \"#utility.yul\":9030:9034   */\n      0x24\n        /* \"#utility.yul\":9027:9028   */\n      0x00\n        /* \"#utility.yul\":9020:9035   */\n      revert\n\n    auxdata: 0xa26469706673582212200c97c6d1f0c6b8f124a55e888726e74417f184cc0e66a6628be49ee3c15095f564736f6c63430008160033\n}\n",
				"bytecode": {
					"linkReferences": {},
					"object": "608060405234801561000f575f80fd5b50610dd58061001d5f395ff3fe608060405234801561000f575f80fd5b506004361061004a575f3560e01c8063335d00c21461004e578063aa9fb6c814610058578063ee26fac31461008a578063f7746e36146100aa575b5f80fd5b6100566100dc565b005b610072600480360381019061006d919061092f565b610597565b60405161008193929190610a15565b60405180910390f35b61009261067c565b6040516100a193929190610a15565b60405180910390f35b6100c460048036038101906100bf9190610a51565b610737565b6040516100d393929190610a15565b60405180910390f35b5f60405180606001604052806040518060400160405280600681526020017f746f796f7461000000000000000000000000000000000000000000000000000081525081526020016107c681526020013373ffffffffffffffffffffffffffffffffffffffff1681525090505f60405180606001604052806040518060400160405280600b81526020017f6c616d626f726768696e6900000000000000000000000000000000000000000081525081526020016107bc81526020013373ffffffffffffffffffffffffffffffffffffffff1681525090506101ba610811565b6040518060400160405280600581526020017f7465736c61000000000000000000000000000000000000000000000000000000815250815f018190525061077681602001818152505033816040019073ffffffffffffffffffffffffffffffffffffffff16908173ffffffffffffffffffffffffffffffffffffffff1681525050600383908060018154018082558091505060019003905f5260205f2090600302015f909190919091505f820151815f0190816102779190610ca3565b50602082015181600101556040820151816002015f6101000a81548173ffffffffffffffffffffffffffffffffffffffff021916908373ffffffffffffffffffffffffffffffffffffffff1602179055505050600382908060018154018082558091505060019003905f5260205f2090600302015f909190919091505f820151815f0190816103069190610ca3565b50602082015181600101556040820151816002015f6101000a81548173ffffffffffffffffffffffffffffffffffffffff021916908373ffffffffffffffffffffffffffffffffffffffff1602179055505050600381908060018154018082558091505060019003905f5260205f2090600302015f909190919091505f820151815f0190816103959190610ca3565b50602082015181600101556040820151816002015f6101000a81548173ffffffffffffffffffffffffffffffffffffffff021916908373ffffffffffffffffffffffffffffffffffffffff1602179055505050600360405180606001604052806040518060400160405280600781526020017f4665727261726900000000000000000000000000000000000000000000000000815250815260200161078081526020013373ffffffffffffffffffffffffffffffffffffffff16815250908060018154018082558091505060019003905f5260205f2090600302015f909190919091505f820151815f01908161048b9190610ca3565b50602082015181600101556040820151816002015f6101000a81548173ffffffffffffffffffffffffffffffffffffffff021916908373ffffffffffffffffffffffffffffffffffffffff16021790555050505f60035f815481106104f3576104f2610d72565b5b905f5260205f209060030201905061078a8160010181905550806002015f6101000a81549073ffffffffffffffffffffffffffffffffffffffff0219169055600360018154811061054757610546610d72565b5b905f5260205f2090600302015f8082015f6105629190610846565b600182015f9055600282015f6101000a81549073ffffffffffffffffffffffffffffffffffffffff0219169055505050505050565b6004602052815f5260405f2081815481106105b0575f80fd5b905f5260205f2090600302015f9150915050805f0180546105d090610ad6565b80601f01602080910402602001604051908101604052809291908181526020018280546105fc90610ad6565b80156106475780601f1061061e57610100808354040283529160200191610647565b820191905f5260205f20905b81548152906001019060200180831161062a57829003601f168201915b505050505090806001015490806002015f9054906101000a900473ffffffffffffffffffffffffffffffffffffffff16905083565b5f805f01805461068b90610ad6565b80601f01602080910402602001604051908101604052809291908181526020018280546106b790610ad6565b80156107025780601f106106d957610100808354040283529160200191610702565b820191905f5260205f20905b8154815290600101906020018083116106e557829003601f168201915b505050505090806001015490806002015f9054906101000a900473ffffffffffffffffffffffffffffffffffffffff16905083565b60038181548110610746575f80fd5b905f5260205f2090600302015f91509050805f01805461076590610ad6565b80601f016020809104026020016040519081016040528092919081815260200182805461079190610ad6565b80156107dc5780601f106107b3576101008083540402835291602001916107dc565b820191905f5260205f20905b8154815290600101906020018083116107bf57829003601f168201915b505050505090806001015490806002015f9054906101000a900473ffffffffffffffffffffffffffffffffffffffff16905083565b6040518060600160405280606081526020015f81526020015f73ffffffffffffffffffffffffffffffffffffffff1681525090565b50805461085290610ad6565b5f825580601f106108635750610880565b601f0160209004905f5260205f209081019061087f9190610883565b5b50565b5b8082111561089a575f815f905550600101610884565b5090565b5f80fd5b5f73ffffffffffffffffffffffffffffffffffffffff82169050919050565b5f6108cb826108a2565b9050919050565b6108db816108c1565b81146108e5575f80fd5b50565b5f813590506108f6816108d2565b92915050565b5f819050919050565b61090e816108fc565b8114610918575f80fd5b50565b5f8135905061092981610905565b92915050565b5f80604083850312156109455761094461089e565b5b5f610952858286016108e8565b92505060206109638582860161091b565b9150509250929050565b5f81519050919050565b5f82825260208201905092915050565b5f5b838110156109a4578082015181840152602081019050610989565b5f8484015250505050565b5f601f19601f8301169050919050565b5f6109c98261096d565b6109d38185610977565b93506109e3818560208601610987565b6109ec816109af565b840191505092915050565b610a00816108fc565b82525050565b610a0f816108c1565b82525050565b5f6060820190508181035f830152610a2d81866109bf565b9050610a3c60208301856109f7565b610a496040830184610a06565b949350505050565b5f60208284031215610a6657610a6561089e565b5b5f610a738482850161091b565b91505092915050565b7f4e487b71000000000000000000000000000000000000000000000000000000005f52604160045260245ffd5b7f4e487b71000000000000000000000000000000000000000000000000000000005f52602260045260245ffd5b5f6002820490506001821680610aed57607f821691505b602082108103610b0057610aff610aa9565b5b50919050565b5f819050815f5260205f209050919050565b5f6020601f8301049050919050565b5f82821b905092915050565b5f60088302610b627fffffffffffffffffffffffffffffffffffffffffffffffffffffffffffffffff82610b27565b610b6c8683610b27565b95508019841693508086168417925050509392505050565b5f819050919050565b5f610ba7610ba2610b9d846108fc565b610b84565b6108fc565b9050919050565b5f819050919050565b610bc083610b8d565b610bd4610bcc82610bae565b848454610b33565b825550505050565b5f90565b610be8610bdc565b610bf3818484610bb7565b505050565b5b81811015610c1657610c0b5f82610be0565b600181019050610bf9565b5050565b601f821115610c5b57610c2c81610b06565b610c3584610b18565b81016020851015610c44578190505b610c58610c5085610b18565b830182610bf8565b50505b505050565b5f82821c905092915050565b5f610c7b5f1984600802610c60565b1980831691505092915050565b5f610c938383610c6c565b9150826002028217905092915050565b610cac8261096d565b67ffffffffffffffff811115610cc557610cc4610a7c565b5b610ccf8254610ad6565b610cda828285610c1a565b5f60209050601f831160018114610d0b575f8415610cf9578287015190505b610d038582610c88565b865550610d6a565b601f198416610d1986610b06565b5f5b82811015610d4057848901518255600182019150602085019450602081019050610d1b565b86831015610d5d5784890151610d59601f891682610c6c565b8355505b6001600288020188555050505b505050505050565b7f4e487b71000000000000000000000000000000000000000000000000000000005f52603260045260245ffdfea26469706673582212200c97c6d1f0c6b8f124a55e888726e74417f184cc0e66a6628be49ee3c15095f564736f6c63430008160033",
					"opcodes": "PUSH1 0x80 PUSH1 0x40 MSTORE CALLVALUE DUP1 ISZERO PUSH2 0xF JUMPI PUSH0 DUP1 REVERT JUMPDEST POP PUSH2 0xDD5 DUP1 PUSH2 0x1D PUSH0 CODECOPY PUSH0 RETURN INVALID PUSH1 0x80 PUSH1 0x40 MSTORE CALLVALUE DUP1 ISZERO PUSH2 0xF JUMPI PUSH0 DUP1 REVERT JUMPDEST POP PUSH1 0x4 CALLDATASIZE LT PUSH2 0x4A JUMPI PUSH0 CALLDATALOAD PUSH1 0xE0 SHR DUP1 PUSH4 0x335D00C2 EQ PUSH2 0x4E JUMPI DUP1 PUSH4 0xAA9FB6C8 EQ PUSH2 0x58 JUMPI DUP1 PUSH4 0xEE26FAC3 EQ PUSH2 0x8A JUMPI DUP1 PUSH4 0xF7746E36 EQ PUSH2 0xAA JUMPI JUMPDEST PUSH0 DUP1 REVERT JUMPDEST PUSH2 0x56 PUSH2 0xDC JUMP JUMPDEST STOP JUMPDEST PUSH2 0x72 PUSH1 0x4 DUP1 CALLDATASIZE SUB DUP2 ADD SWAP1 PUSH2 0x6D SWAP2 SWAP1 PUSH2 0x92F JUMP JUMPDEST PUSH2 0x597 JUMP JUMPDEST PUSH1 0x40 MLOAD PUSH2 0x81 SWAP4 SWAP3 SWAP2 SWAP1 PUSH2 0xA15 JUMP JUMPDEST PUSH1 0x40 MLOAD DUP1 SWAP2 SUB SWAP1 RETURN JUMPDEST PUSH2 0x92 PUSH2 0x67C JUMP JUMPDEST PUSH1 0x40 MLOAD PUSH2 0xA1 SWAP4 SWAP3 SWAP2 SWAP1 PUSH2 0xA15 JUMP JUMPDEST PUSH1 0x40 MLOAD DUP1 SWAP2 SUB SWAP1 RETURN JUMPDEST PUSH2 0xC4 PUSH1 0x4 DUP1 CALLDATASIZE SUB DUP2 ADD SWAP1 PUSH2 0xBF SWAP2 SWAP1 PUSH2 0xA51 JUMP JUMPDEST PUSH2 0x737 JUMP JUMPDEST PUSH1 0x40 MLOAD PUSH2 0xD3 SWAP4 SWAP3 SWAP2 SWAP1 PUSH2 0xA15 JUMP JUMPDEST PUSH1 0x40 MLOAD DUP1 SWAP2 SUB SWAP1 RETURN JUMPDEST PUSH0 PUSH1 0x40 MLOAD DUP1 PUSH1 0x60 ADD PUSH1 0x40 MSTORE DUP1 PUSH1 0x40 MLOAD DUP1 PUSH1 0x40 ADD PUSH1 0x40 MSTORE DUP1 PUSH1 0x6 DUP2 MSTORE PUSH1 0x20 ADD PUSH32 0x746F796F74610000000000000000000000000000000000000000000000000000 DUP2 MSTORE POP DUP2 MSTORE PUSH1 0x20 ADD PUSH2 0x7C6 DUP2 MSTORE PUSH1 0x20 ADD CALLER PUSH20 0xFFFFFFFFFFFFFFFFFFFFFFFFFFFFFFFFFFFFFFFF AND DUP2 MSTORE POP SWAP1 POP PUSH0 PUSH1 0x40 MLOAD DUP1 PUSH1 0x60 ADD PUSH1 0x40 MSTORE DUP1 PUSH1 0x40 MLOAD DUP1 PUSH1 0x40 ADD PUSH1 0x40 MSTORE DUP1 PUSH1 0xB DUP2 MSTORE PUSH1 0x20 ADD PUSH32 0x6C616D626F726768696E69000000000000000000000000000000000000000000 DUP2 MSTORE POP DUP2 MSTORE PUSH1 0x20 ADD PUSH2 0x7BC DUP2 MSTORE PUSH1 0x20 ADD CALLER PUSH20 0xFFFFFFFFFFFFFFFFFFFFFFFFFFFFFFFFFFFFFFFF AND DUP2 MSTORE POP SWAP1 POP PUSH2 0x1BA PUSH2 0x811 JUMP JUMPDEST PUSH1 0x40 MLOAD DUP1 PUSH1 0x40 ADD PUSH1 0x40 MSTORE DUP1 PUSH1 0x5 DUP2 MSTORE PUSH1 0x20 ADD PUSH32 0x7465736C61000000000000000000000000000000000000000000000000000000 DUP2 MSTORE POP DUP2 PUSH0 ADD DUP2 SWAP1 MSTORE POP PUSH2 0x776 DUP2 PUSH1 0x20 ADD DUP2 DUP2 MSTORE POP POP CALLER DUP2 PUSH1 0x40 ADD SWAP1 PUSH20 0xFFFFFFFFFFFFFFFFFFFFFFFFFFFFFFFFFFFFFFFF AND SWAP1 DUP2 PUSH20 0xFFFFFFFFFFFFFFFFFFFFFFFFFFFFFFFFFFFFFFFF AND DUP2 MSTORE POP POP PUSH1 0x3 DUP4 SWAP1 DUP1 PUSH1 0x1 DUP2 SLOAD ADD DUP1 DUP3 SSTORE DUP1 SWAP2 POP POP PUSH1 0x1 SWAP1 SUB SWAP1 PUSH0 MSTORE PUSH1 0x20 PUSH0 KECCAK256 SWAP1 PUSH1 0x3 MUL ADD PUSH0 SWAP1 SWAP2 SWAP1 SWAP2 SWAP1 SWAP2 POP PUSH0 DUP3 ADD MLOAD DUP2 PUSH0 ADD SWAP1 DUP2 PUSH2 0x277 SWAP2 SWAP1 PUSH2 0xCA3 JUMP JUMPDEST POP PUSH1 0x20 DUP3 ADD MLOAD DUP2 PUSH1 0x1 ADD SSTORE PUSH1 0x40 DUP3 ADD MLOAD DUP2 PUSH1 0x2 ADD PUSH0 PUSH2 0x100 EXP DUP2 SLOAD DUP2 PUSH20 0xFFFFFFFFFFFFFFFFFFFFFFFFFFFFFFFFFFFFFFFF MUL NOT AND SWAP1 DUP4 PUSH20 0xFFFFFFFFFFFFFFFFFFFFFFFFFFFFFFFFFFFFFFFF AND MUL OR SWAP1 SSTORE POP POP POP PUSH1 0x3 DUP3 SWAP1 DUP1 PUSH1 0x1 DUP2 SLOAD ADD DUP1 DUP3 SSTORE DUP1 SWAP2 POP POP PUSH1 0x1 SWAP1 SUB SWAP1 PUSH0 MSTORE PUSH1 0x20 PUSH0 KECCAK256 SWAP1 PUSH1 0x3 MUL ADD PUSH0 SWAP1 SWAP2 SWAP1 SWAP2 SWAP1 SWAP2 POP PUSH0 DUP3 ADD MLOAD DUP2 PUSH0 ADD SWAP1 DUP2 PUSH2 0x306 SWAP2 SWAP1 PUSH2 0xCA3 JUMP JUMPDEST POP PUSH1 0x20 DUP3 ADD MLOAD DUP2 PUSH1 0x1 ADD SSTORE PUSH1 0x40 DUP3 ADD MLOAD DUP2 PUSH1 0x2 ADD PUSH0 PUSH2 0x100 EXP DUP2 SLOAD DUP2 PUSH20 0xFFFFFFFFFFFFFFFFFFFFFFFFFFFFFFFFFFFFFFFF MUL NOT AND SWAP1 DUP4 PUSH20 0xFFFFFFFFFFFFFFFFFFFFFFFFFFFFFFFFFFFFFFFF AND MUL OR SWAP1 SSTORE POP POP POP PUSH1 0x3 DUP2 SWAP1 DUP1 PUSH1 0x1 DUP2 SLOAD ADD DUP1 DUP3 SSTORE DUP1 SWAP2 POP POP PUSH1 0x1 SWAP1 SUB SWAP1 PUSH0 MSTORE PUSH1 0x20 PUSH0 KECCAK256 SWAP1 PUSH1 0x3 MUL ADD PUSH0 SWAP1 SWAP2 SWAP1 SWAP2 SWAP1 SWAP2 POP PUSH0 DUP3 ADD MLOAD DUP2 PUSH0 ADD SWAP1 DUP2 PUSH2 0x395 SWAP2 SWAP1 PUSH2 0xCA3 JUMP JUMPDEST POP PUSH1 0x20 DUP3 ADD MLOAD DUP2 PUSH1 0x1 ADD SSTORE PUSH1 0x40 DUP3 ADD MLOAD DUP2 PUSH1 0x2 ADD PUSH0 PUSH2 0x100 EXP DUP2 SLOAD DUP2 PUSH20 0xFFFFFFFFFFFFFFFFFFFFFFFFFFFFFFFFFFFFFFFF MUL NOT AND SWAP1 DUP4 PUSH20 0xFFFFFFFFFFFFFFFFFFFFFFFFFFFFFFFFFFFFFFFF AND MUL OR SWAP1 SSTORE POP POP POP PUSH1 0x3 PUSH1 0x40 MLOAD DUP1 PUSH1 0x60 ADD PUSH1 0x40 MSTORE DUP1 PUSH1 0x40 MLOAD DUP1 PUSH1 0x40 ADD PUSH1 0x40 MSTORE DUP1 PUSH1 0x7 DUP2 MSTORE PUSH1 0x20 ADD PUSH32 0x4665727261726900000000000000000000000000000000000000000000000000 DUP2 MSTORE POP DUP2 MSTORE PUSH1 0x20 ADD PUSH2 0x780 DUP2 MSTORE PUSH1 0x20 ADD CALLER PUSH20 0xFFFFFFFFFFFFFFFFFFFFFFFFFFFFFFFFFFFFFFFF AND DUP2 MSTORE POP SWAP1 DUP1 PUSH1 0x1 DUP2 SLOAD ADD DUP1 DUP3 SSTORE DUP1 SWAP2 POP POP PUSH1 0x1 SWAP1 SUB SWAP1 PUSH0 MSTORE PUSH1 0x20 PUSH0 KECCAK256 SWAP1 PUSH1 0x3 MUL ADD PUSH0 SWAP1 SWAP2 SWAP1 SWAP2 SWAP1 SWAP2 POP PUSH0 DUP3 ADD MLOAD DUP2 PUSH0 ADD SWAP1 DUP2 PUSH2 0x48B SWAP2 SWAP1 PUSH2 0xCA3 JUMP JUMPDEST POP PUSH1 0x20 DUP3 ADD MLOAD DUP2 PUSH1 0x1 ADD SSTORE PUSH1 0x40 DUP3 ADD MLOAD DUP2 PUSH1 0x2 ADD PUSH0 PUSH2 0x100 EXP DUP2 SLOAD DUP2 PUSH20 0xFFFFFFFFFFFFFFFFFFFFFFFFFFFFFFFFFFFFFFFF MUL NOT AND SWAP1 DUP4 PUSH20 0xFFFFFFFFFFFFFFFFFFFFFFFFFFFFFFFFFFFFFFFF AND MUL OR SWAP1 SSTORE POP POP POP PUSH0 PUSH1 0x3 PUSH0 DUP2 SLOAD DUP2 LT PUSH2 0x4F3 JUMPI PUSH2 0x4F2 PUSH2 0xD72 JUMP JUMPDEST JUMPDEST SWAP1 PUSH0 MSTORE PUSH1 0x20 PUSH0 KECCAK256 SWAP1 PUSH1 0x3 MUL ADD SWAP1 POP PUSH2 0x78A DUP2 PUSH1 0x1 ADD DUP2 SWAP1 SSTORE POP DUP1 PUSH1 0x2 ADD PUSH0 PUSH2 0x100 EXP DUP2 SLOAD SWAP1 PUSH20 0xFFFFFFFFFFFFFFFFFFFFFFFFFFFFFFFFFFFFFFFF MUL NOT AND SWAP1 SSTORE PUSH1 0x3 PUSH1 0x1 DUP2 SLOAD DUP2 LT PUSH2 0x547 JUMPI PUSH2 0x546 PUSH2 0xD72 JUMP JUMPDEST JUMPDEST SWAP1 PUSH0 MSTORE PUSH1 0x20 PUSH0 KECCAK256 SWAP1 PUSH1 0x3 MUL ADD PUSH0 DUP1 DUP3 ADD PUSH0 PUSH2 0x562 SWAP2 SWAP1 PUSH2 0x846 JUMP JUMPDEST PUSH1 0x1 DUP3 ADD PUSH0 SWAP1 SSTORE PUSH1 0x2 DUP3 ADD PUSH0 PUSH2 0x100 EXP DUP2 SLOAD SWAP1 PUSH20 0xFFFFFFFFFFFFFFFFFFFFFFFFFFFFFFFFFFFFFFFF MUL NOT AND SWAP1 SSTORE POP POP POP POP POP POP JUMP JUMPDEST PUSH1 0x4 PUSH1 0x20 MSTORE DUP2 PUSH0 MSTORE PUSH1 0x40 PUSH0 KECCAK256 DUP2 DUP2 SLOAD DUP2 LT PUSH2 0x5B0 JUMPI PUSH0 DUP1 REVERT JUMPDEST SWAP1 PUSH0 MSTORE PUSH1 0x20 PUSH0 KECCAK256 SWAP1 PUSH1 0x3 MUL ADD PUSH0 SWAP2 POP SWAP2 POP POP DUP1 PUSH0 ADD DUP1 SLOAD PUSH2 0x5D0 SWAP1 PUSH2 0xAD6 JUMP JUMPDEST DUP1 PUSH1 0x1F ADD PUSH1 0x20 DUP1 SWAP2 DIV MUL PUSH1 0x20 ADD PUSH1 0x40 MLOAD SWAP1 DUP2 ADD PUSH1 0x40 MSTORE DUP1 SWAP3 SWAP2 SWAP1 DUP2 DUP2 MSTORE PUSH1 0x20 ADD DUP3 DUP1 SLOAD PUSH2 0x5FC SWAP1 PUSH2 0xAD6 JUMP JUMPDEST DUP1 ISZERO PUSH2 0x647 JUMPI DUP1 PUSH1 0x1F LT PUSH2 0x61E JUMPI PUSH2 0x100 DUP1 DUP4 SLOAD DIV MUL DUP4 MSTORE SWAP2 PUSH1 0x20 ADD SWAP2 PUSH2 0x647 JUMP JUMPDEST DUP3 ADD SWAP2 SWAP1 PUSH0 MSTORE PUSH1 0x20 PUSH0 KECCAK256 SWAP1 JUMPDEST DUP2 SLOAD DUP2 MSTORE SWAP1 PUSH1 0x1 ADD SWAP1 PUSH1 0x20 ADD DUP1 DUP4 GT PUSH2 0x62A JUMPI DUP3 SWAP1 SUB PUSH1 0x1F AND DUP3 ADD SWAP2 JUMPDEST POP POP POP POP POP SWAP1 DUP1 PUSH1 0x1 ADD SLOAD SWAP1 DUP1 PUSH1 0x2 ADD PUSH0 SWAP1 SLOAD SWAP1 PUSH2 0x100 EXP SWAP1 DIV PUSH20 0xFFFFFFFFFFFFFFFFFFFFFFFFFFFFFFFFFFFFFFFF AND SWAP1 POP DUP4 JUMP JUMPDEST PUSH0 DUP1 PUSH0 ADD DUP1 SLOAD PUSH2 0x68B SWAP1 PUSH2 0xAD6 JUMP JUMPDEST DUP1 PUSH1 0x1F ADD PUSH1 0x20 DUP1 SWAP2 DIV MUL PUSH1 0x20 ADD PUSH1 0x40 MLOAD SWAP1 DUP2 ADD PUSH1 0x40 MSTORE DUP1 SWAP3 SWAP2 SWAP1 DUP2 DUP2 MSTORE PUSH1 0x20 ADD DUP3 DUP1 SLOAD PUSH2 0x6B7 SWAP1 PUSH2 0xAD6 JUMP JUMPDEST DUP1 ISZERO PUSH2 0x702 JUMPI DUP1 PUSH1 0x1F LT PUSH2 0x6D9 JUMPI PUSH2 0x100 DUP1 DUP4 SLOAD DIV MUL DUP4 MSTORE SWAP2 PUSH1 0x20 ADD SWAP2 PUSH2 0x702 JUMP JUMPDEST DUP3 ADD SWAP2 SWAP1 PUSH0 MSTORE PUSH1 0x20 PUSH0 KECCAK256 SWAP1 JUMPDEST DUP2 SLOAD DUP2 MSTORE SWAP1 PUSH1 0x1 ADD SWAP1 PUSH1 0x20 ADD DUP1 DUP4 GT PUSH2 0x6E5 JUMPI DUP3 SWAP1 SUB PUSH1 0x1F AND DUP3 ADD SWAP2 JUMPDEST POP POP POP POP POP SWAP1 DUP1 PUSH1 0x1 ADD SLOAD SWAP1 DUP1 PUSH1 0x2 ADD PUSH0 SWAP1 SLOAD SWAP1 PUSH2 0x100 EXP SWAP1 DIV PUSH20 0xFFFFFFFFFFFFFFFFFFFFFFFFFFFFFFFFFFFFFFFF AND SWAP1 POP DUP4 JUMP JUMPDEST PUSH1 0x3 DUP2 DUP2 SLOAD DUP2 LT PUSH2 0x746 JUMPI PUSH0 DUP1 REVERT JUMPDEST SWAP1 PUSH0 MSTORE PUSH1 0x20 PUSH0 KECCAK256 SWAP1 PUSH1 0x3 MUL ADD PUSH0 SWAP2 POP SWAP1 POP DUP1 PUSH0 ADD DUP1 SLOAD PUSH2 0x765 SWAP1 PUSH2 0xAD6 JUMP JUMPDEST DUP1 PUSH1 0x1F ADD PUSH1 0x20 DUP1 SWAP2 DIV MUL PUSH1 0x20 ADD PUSH1 0x40 MLOAD SWAP1 DUP2 ADD PUSH1 0x40 MSTORE DUP1 SWAP3 SWAP2 SWAP1 DUP2 DUP2 MSTORE PUSH1 0x20 ADD DUP3 DUP1 SLOAD PUSH2 0x791 SWAP1 PUSH2 0xAD6 JUMP JUMPDEST DUP1 ISZERO PUSH2 0x7DC JUMPI DUP1 PUSH1 0x1F LT PUSH2 0x7B3 JUMPI PUSH2 0x100 DUP1 DUP4 SLOAD DIV MUL DUP4 MSTORE SWAP2 PUSH1 0x20 ADD SWAP2 PUSH2 0x7DC JUMP JUMPDEST DUP3 ADD SWAP2 SWAP1 PUSH0 MSTORE PUSH1 0x20 PUSH0 KECCAK256 SWAP1 JUMPDEST DUP2 SLOAD DUP2 MSTORE SWAP1 PUSH1 0x1 ADD SWAP1 PUSH1 0x20 ADD DUP1 DUP4 GT PUSH2 0x7BF JUMPI DUP3 SWAP1 SUB PUSH1 0x1F AND DUP3 ADD SWAP2 JUMPDEST POP POP POP POP POP SWAP1 DUP1 PUSH1 0x1 ADD SLOAD SWAP1 DUP1 PUSH1 0x2 ADD PUSH0 SWAP1 SLOAD SWAP1 PUSH2 0x100 EXP SWAP1 DIV PUSH20 0xFFFFFFFFFFFFFFFFFFFFFFFFFFFFFFFFFFFFFFFF AND SWAP1 POP DUP4 JUMP JUMPDEST PUSH1 0x40 MLOAD DUP1 PUSH1 0x60 ADD PUSH1 0x40 MSTORE DUP1 PUSH1 0x60 DUP2 MSTORE PUSH1 0x20 ADD PUSH0 DUP2 MSTORE PUSH1 0x20 ADD PUSH0 PUSH20 0xFFFFFFFFFFFFFFFFFFFFFFFFFFFFFFFFFFFFFFFF AND DUP2 MSTORE POP SWAP1 JUMP JUMPDEST POP DUP1 SLOAD PUSH2 0x852 SWAP1 PUSH2 0xAD6 JUMP JUMPDEST PUSH0 DUP3 SSTORE DUP1 PUSH1 0x1F LT PUSH2 0x863 JUMPI POP PUSH2 0x880 JUMP JUMPDEST PUSH1 0x1F ADD PUSH1 0x20 SWAP1 DIV SWAP1 PUSH0 MSTORE PUSH1 0x20 PUSH0 KECCAK256 SWAP1 DUP2 ADD SWAP1 PUSH2 0x87F SWAP2 SWAP1 PUSH2 0x883 JUMP JUMPDEST JUMPDEST POP JUMP JUMPDEST JUMPDEST DUP1 DUP3 GT ISZERO PUSH2 0x89A JUMPI PUSH0 DUP2 PUSH0 SWAP1 SSTORE POP PUSH1 0x1 ADD PUSH2 0x884 JUMP JUMPDEST POP SWAP1 JUMP JUMPDEST PUSH0 DUP1 REVERT JUMPDEST PUSH0 PUSH20 0xFFFFFFFFFFFFFFFFFFFFFFFFFFFFFFFFFFFFFFFF DUP3 AND SWAP1 POP SWAP2 SWAP1 POP JUMP JUMPDEST PUSH0 PUSH2 0x8CB DUP3 PUSH2 0x8A2 JUMP JUMPDEST SWAP1 POP SWAP2 SWAP1 POP JUMP JUMPDEST PUSH2 0x8DB DUP2 PUSH2 0x8C1 JUMP JUMPDEST DUP2 EQ PUSH2 0x8E5 JUMPI PUSH0 DUP1 REVERT JUMPDEST POP JUMP JUMPDEST PUSH0 DUP2 CALLDATALOAD SWAP1 POP PUSH2 0x8F6 DUP2 PUSH2 0x8D2 JUMP JUMPDEST SWAP3 SWAP2 POP POP JUMP JUMPDEST PUSH0 DUP2 SWAP1 POP SWAP2 SWAP1 POP JUMP JUMPDEST PUSH2 0x90E DUP2 PUSH2 0x8FC JUMP JUMPDEST DUP2 EQ PUSH2 0x918 JUMPI PUSH0 DUP1 REVERT JUMPDEST POP JUMP JUMPDEST PUSH0 DUP2 CALLDATALOAD SWAP1 POP PUSH2 0x929 DUP2 PUSH2 0x905 JUMP JUMPDEST SWAP3 SWAP2 POP POP JUMP JUMPDEST PUSH0 DUP1 PUSH1 0x40 DUP4 DUP6 SUB SLT ISZERO PUSH2 0x945 JUMPI PUSH2 0x944 PUSH2 0x89E JUMP JUMPDEST JUMPDEST PUSH0 PUSH2 0x952 DUP6 DUP3 DUP7 ADD PUSH2 0x8E8 JUMP JUMPDEST SWAP3 POP POP PUSH1 0x20 PUSH2 0x963 DUP6 DUP3 DUP7 ADD PUSH2 0x91B JUMP JUMPDEST SWAP2 POP POP SWAP3 POP SWAP3 SWAP1 POP JUMP JUMPDEST PUSH0 DUP2 MLOAD SWAP1 POP SWAP2 SWAP1 POP JUMP JUMPDEST PUSH0 DUP3 DUP3 MSTORE PUSH1 0x20 DUP3 ADD SWAP1 POP SWAP3 SWAP2 POP POP JUMP JUMPDEST PUSH0 JUMPDEST DUP4 DUP2 LT ISZERO PUSH2 0x9A4 JUMPI DUP1 DUP3 ADD MLOAD DUP2 DUP5 ADD MSTORE PUSH1 0x20 DUP2 ADD SWAP1 POP PUSH2 0x989 JUMP JUMPDEST PUSH0 DUP5 DUP5 ADD MSTORE POP POP POP POP JUMP JUMPDEST PUSH0 PUSH1 0x1F NOT PUSH1 0x1F DUP4 ADD AND SWAP1 POP SWAP2 SWAP1 POP JUMP JUMPDEST PUSH0 PUSH2 0x9C9 DUP3 PUSH2 0x96D JUMP JUMPDEST PUSH2 0x9D3 DUP2 DUP6 PUSH2 0x977 JUMP JUMPDEST SWAP4 POP PUSH2 0x9E3 DUP2 DUP6 PUSH1 0x20 DUP7 ADD PUSH2 0x987 JUMP JUMPDEST PUSH2 0x9EC DUP2 PUSH2 0x9AF JUMP JUMPDEST DUP5 ADD SWAP2 POP POP SWAP3 SWAP2 POP POP JUMP JUMPDEST PUSH2 0xA00 DUP2 PUSH2 0x8FC JUMP JUMPDEST DUP3 MSTORE POP POP JUMP JUMPDEST PUSH2 0xA0F DUP2 PUSH2 0x8C1 JUMP JUMPDEST DUP3 MSTORE POP POP JUMP JUMPDEST PUSH0 PUSH1 0x60 DUP3 ADD SWAP1 POP DUP2 DUP2 SUB PUSH0 DUP4 ADD MSTORE PUSH2 0xA2D DUP2 DUP7 PUSH2 0x9BF JUMP JUMPDEST SWAP1 POP PUSH2 0xA3C PUSH1 0x20 DUP4 ADD DUP6 PUSH2 0x9F7 JUMP JUMPDEST PUSH2 0xA49 PUSH1 0x40 DUP4 ADD DUP5 PUSH2 0xA06 JUMP JUMPDEST SWAP5 SWAP4 POP POP POP POP JUMP JUMPDEST PUSH0 PUSH1 0x20 DUP3 DUP5 SUB SLT ISZERO PUSH2 0xA66 JUMPI PUSH2 0xA65 PUSH2 0x89E JUMP JUMPDEST JUMPDEST PUSH0 PUSH2 0xA73 DUP5 DUP3 DUP6 ADD PUSH2 0x91B JUMP JUMPDEST SWAP2 POP POP SWAP3 SWAP2 POP POP JUMP JUMPDEST PUSH32 0x4E487B7100000000000000000000000000000000000000000000000000000000 PUSH0 MSTORE PUSH1 0x41 PUSH1 0x4 MSTORE PUSH1 0x24 PUSH0 REVERT JUMPDEST PUSH32 0x4E487B7100000000000000000000000000000000000000000000000000000000 PUSH0 MSTORE PUSH1 0x22 PUSH1 0x4 MSTORE PUSH1 0x24 PUSH0 REVERT JUMPDEST PUSH0 PUSH1 0x2 DUP3 DIV SWAP1 POP PUSH1 0x1 DUP3 AND DUP1 PUSH2 0xAED JUMPI PUSH1 0x7F DUP3 AND SWAP2 POP JUMPDEST PUSH1 0x20 DUP3 LT DUP2 SUB PUSH2 0xB00 JUMPI PUSH2 0xAFF PUSH2 0xAA9 JUMP JUMPDEST JUMPDEST POP SWAP2 SWAP1 POP JUMP JUMPDEST PUSH0 DUP2 SWAP1 POP DUP2 PUSH0 MSTORE PUSH1 0x20 PUSH0 KECCAK256 SWAP1 POP SWAP2 SWAP1 POP JUMP JUMPDEST PUSH0 PUSH1 0x20 PUSH1 0x1F DUP4 ADD DIV SWAP1 POP SWAP2 SWAP1 POP JUMP JUMPDEST PUSH0 DUP3 DUP3 SHL SWAP1 POP SWAP3 SWAP2 POP POP JUMP JUMPDEST PUSH0 PUSH1 0x8 DUP4 MUL PUSH2 0xB62 PUSH32 0xFFFFFFFFFFFFFFFFFFFFFFFFFFFFFFFFFFFFFFFFFFFFFFFFFFFFFFFFFFFFFFFF DUP3 PUSH2 0xB27 JUMP JUMPDEST PUSH2 0xB6C DUP7 DUP4 PUSH2 0xB27 JUMP JUMPDEST SWAP6 POP DUP1 NOT DUP5 AND SWAP4 POP DUP1 DUP7 AND DUP5 OR SWAP3 POP POP POP SWAP4 SWAP3 POP POP POP JUMP JUMPDEST PUSH0 DUP2 SWAP1 POP SWAP2 SWAP1 POP JUMP JUMPDEST PUSH0 PUSH2 0xBA7 PUSH2 0xBA2 PUSH2 0xB9D DUP5 PUSH2 0x8FC JUMP JUMPDEST PUSH2 0xB84 JUMP JUMPDEST PUSH2 0x8FC JUMP JUMPDEST SWAP1 POP SWAP2 SWAP1 POP JUMP JUMPDEST PUSH0 DUP2 SWAP1 POP SWAP2 SWAP1 POP JUMP JUMPDEST PUSH2 0xBC0 DUP4 PUSH2 0xB8D JUMP JUMPDEST PUSH2 0xBD4 PUSH2 0xBCC DUP3 PUSH2 0xBAE JUMP JUMPDEST DUP5 DUP5 SLOAD PUSH2 0xB33 JUMP JUMPDEST DUP3 SSTORE POP POP POP POP JUMP JUMPDEST PUSH0 SWAP1 JUMP JUMPDEST PUSH2 0xBE8 PUSH2 0xBDC JUMP JUMPDEST PUSH2 0xBF3 DUP2 DUP5 DUP5 PUSH2 0xBB7 JUMP JUMPDEST POP POP POP JUMP JUMPDEST JUMPDEST DUP2 DUP2 LT ISZERO PUSH2 0xC16 JUMPI PUSH2 0xC0B PUSH0 DUP3 PUSH2 0xBE0 JUMP JUMPDEST PUSH1 0x1 DUP2 ADD SWAP1 POP PUSH2 0xBF9 JUMP JUMPDEST POP POP JUMP JUMPDEST PUSH1 0x1F DUP3 GT ISZERO PUSH2 0xC5B JUMPI PUSH2 0xC2C DUP2 PUSH2 0xB06 JUMP JUMPDEST PUSH2 0xC35 DUP5 PUSH2 0xB18 JUMP JUMPDEST DUP2 ADD PUSH1 0x20 DUP6 LT ISZERO PUSH2 0xC44 JUMPI DUP2 SWAP1 POP JUMPDEST PUSH2 0xC58 PUSH2 0xC50 DUP6 PUSH2 0xB18 JUMP JUMPDEST DUP4 ADD DUP3 PUSH2 0xBF8 JUMP JUMPDEST POP POP JUMPDEST POP POP POP JUMP JUMPDEST PUSH0 DUP3 DUP3 SHR SWAP1 POP SWAP3 SWAP2 POP POP JUMP JUMPDEST PUSH0 PUSH2 0xC7B PUSH0 NOT DUP5 PUSH1 0x8 MUL PUSH2 0xC60 JUMP JUMPDEST NOT DUP1 DUP4 AND SWAP2 POP POP SWAP3 SWAP2 POP POP JUMP JUMPDEST PUSH0 PUSH2 0xC93 DUP4 DUP4 PUSH2 0xC6C JUMP JUMPDEST SWAP2 POP DUP3 PUSH1 0x2 MUL DUP3 OR SWAP1 POP SWAP3 SWAP2 POP POP JUMP JUMPDEST PUSH2 0xCAC DUP3 PUSH2 0x96D JUMP JUMPDEST PUSH8 0xFFFFFFFFFFFFFFFF DUP2 GT ISZERO PUSH2 0xCC5 JUMPI PUSH2 0xCC4 PUSH2 0xA7C JUMP JUMPDEST JUMPDEST PUSH2 0xCCF DUP3 SLOAD PUSH2 0xAD6 JUMP JUMPDEST PUSH2 0xCDA DUP3 DUP3 DUP6 PUSH2 0xC1A JUMP JUMPDEST PUSH0 PUSH1 0x20 SWAP1 POP PUSH1 0x1F DUP4 GT PUSH1 0x1 DUP2 EQ PUSH2 0xD0B JUMPI PUSH0 DUP5 ISZERO PUSH2 0xCF9 JUMPI DUP3 DUP8 ADD MLOAD SWAP1 POP JUMPDEST PUSH2 0xD03 DUP6 DUP3 PUSH2 0xC88 JUMP JUMPDEST DUP7 SSTORE POP PUSH2 0xD6A JUMP JUMPDEST PUSH1 0x1F NOT DUP5 AND PUSH2 0xD19 DUP7 PUSH2 0xB06 JUMP JUMPDEST PUSH0 JUMPDEST DUP3 DUP2 LT ISZERO PUSH2 0xD40 JUMPI DUP5 DUP10 ADD MLOAD DUP3 SSTORE PUSH1 0x1 DUP3 ADD SWAP2 POP PUSH1 0x20 DUP6 ADD SWAP5 POP PUSH1 0x20 DUP2 ADD SWAP1 POP PUSH2 0xD1B JUMP JUMPDEST DUP7 DUP4 LT ISZERO PUSH2 0xD5D JUMPI DUP5 DUP10 ADD MLOAD PUSH2 0xD59 PUSH1 0x1F DUP10 AND DUP3 PUSH2 0xC6C JUMP JUMPDEST DUP4 SSTORE POP JUMPDEST PUSH1 0x1 PUSH1 0x2 DUP9 MUL ADD DUP9 SSTORE POP POP POP JUMPDEST POP POP POP POP POP POP JUMP JUMPDEST PUSH32 0x4E487B7100000000000000000000000000000000000000000000000000000000 PUSH0 MSTORE PUSH1 0x32 PUSH1 0x4 MSTORE PUSH1 0x24 PUSH0 REVERT INVALID LOG2 PUSH5 0x6970667358 0x22 SLT KECCAK256 0xC SWAP8 0xC6 0xD1 CREATE 0xC6 0xB8 CALL 0x24 0xA5 0x5E DUP9 DUP8 0x26 0xE7 PREVRANDAO OR CALL DUP5 0xCC 0xE PUSH7 0xA6628BE49EE3C1 POP SWAP6 CREATE2 PUSH5 0x736F6C6343 STOP ADDMOD AND STOP CALLER "
				},
				"gasEstimates": {
					"creation": {
						"codeDepositCost": "708200",
						"executionCost": "739",
						"totalCost": "708939"
					},
					"external": {
						"car()": "infinite",
						"cars(uint256)": "infinite",
						"carsByOwner(address,uint256)": "infinite",
						"examples()": "infinite"
					}
				},
				"methodIdentifiers": {
					"car()": "ee26fac3",
					"cars(uint256)": "f7746e36",
					"carsByOwner(address,uint256)": "aa9fb6c8",
					"examples()": "335d00c2"
				}
			},
			"storageLayout": {
				"storage": [
					{
						"astId": 11,
						"contract": "contracts/20. Structs.sol:Structs",
						"label": "car",
						"offset": 0,
						"slot": "0",
						"type": "t_struct(Car)8_storage"
					},
					{
						"astId": 15,
						"contract": "contracts/20. Structs.sol:Structs",
						"label": "cars",
						"offset": 0,
						"slot": "3",
						"type": "t_array(t_struct(Car)8_storage)dyn_storage"
					},
					{
						"astId": 21,
						"contract": "contracts/20. Structs.sol:Structs",
						"label": "carsByOwner",
						"offset": 0,
						"slot": "4",
						"type": "t_mapping(t_address,t_array(t_struct(Car)8_storage)dyn_storage)"
					}
				],
				"types": {
					"t_address": {
						"encoding": "inplace",
						"label": "address",
						"numberOfBytes": "20"
					},
					"t_array(t_struct(Car)8_storage)dyn_storage": {
						"base": "t_struct(Car)8_storage",
						"encoding": "dynamic_array",
						"label": "struct Structs.Car[]",
						"numberOfBytes": "32"
					},
					"t_mapping(t_address,t_array(t_struct(Car)8_storage)dyn_storage)": {
						"encoding": "mapping",
						"key": "t_address",
						"label": "mapping(address => struct Structs.Car[])",
						"numberOfBytes": "32",
						"value": "t_array(t_struct(Car)8_storage)dyn_storage"
					},
					"t_string_storage": {
						"encoding": "bytes",
						"label": "string",
						"numberOfBytes": "32"
					},
					"t_struct(Car)8_storage": {
						"encoding": "inplace",
						"label": "struct Structs.Car",
						"members": [
							{
								"astId": 3,
								"contract": "contracts/20. Structs.sol:Structs",
								"label": "model",
								"offset": 0,
								"slot": "0",
								"type": "t_string_storage"
							},
							{
								"astId": 5,
								"contract": "contracts/20. Structs.sol:Structs",
								"label": "year",
								"offset": 0,
								"slot": "1",
								"type": "t_uint256"
							},
							{
								"astId": 7,
								"contract": "contracts/20. Structs.sol:Structs",
								"label": "owner",
								"offset": 0,
								"slot": "2",
								"type": "t_address"
							}
						],
						"numberOfBytes": "96"
					},
					"t_uint256": {
						"encoding": "inplace",
						"label": "uint256",
						"numberOfBytes": "32"
					}
				}
			},
			"userdoc": {
				"kind": "user",
				"methods": {},
				"version": 1
			}
		}
	}
}