{
	"contracts/41. Call.sol": {
		"TestCall": {
			"abi": [
				{
					"stateMutability": "payable",
					"type": "fallback"
				},
				{
					"inputs": [
						{
							"internalType": "uint256",
							"name": "_x",
							"type": "uint256"
						},
						{
							"internalType": "bool",
							"name": "_b",
							"type": "bool"
						}
					],
					"name": "bar",
					"outputs": [],
					"stateMutability": "nonpayable",
					"type": "function"
				},
				{
					"inputs": [],
					"name": "barWasCalled",
					"outputs": [
						{
							"internalType": "bool",
							"name": "",
							"type": "bool"
						}
					],
					"stateMutability": "view",
					"type": "function"
				},
				{
					"inputs": [
						{
							"internalType": "string",
							"name": "_message",
							"type": "string"
						},
						{
							"internalType": "uint256",
							"name": "_x",
							"type": "uint256"
						}
					],
					"name": "foo",
					"outputs": [
						{
							"internalType": "bool",
							"name": "",
							"type": "bool"
						}
					],
					"stateMutability": "payable",
					"type": "function"
				},
				{
					"stateMutability": "payable",
					"type": "receive"
				}
			],
			"devdoc": {
				"kind": "dev",
				"methods": {},
				"version": 1
			},
			"evm": {
				"assembly": "    /* \"contracts/41. Call.sol\":1091:1432  contract TestCall {... */\n  mstore(0x40, 0x80)\n  callvalue\n  dup1\n  iszero\n  tag_1\n  jumpi\n  0x00\n  dup1\n  revert\ntag_1:\n  pop\n  dataSize(sub_0)\n  dup1\n  dataOffset(sub_0)\n  0x00\n  codecopy\n  0x00\n  return\nstop\n\nsub_0: assembly {\n        /* \"contracts/41. Call.sol\":1091:1432  contract TestCall {... */\n      mstore(0x40, 0x80)\n      jumpi(tag_1, lt(calldatasize, 0x04))\n      shr(0xe0, calldataload(0x00))\n      dup1\n      0x24ccab8f\n      eq\n      tag_3\n      jumpi\n      dup1\n      0x4b109a0d\n      eq\n      tag_4\n      jumpi\n      dup1\n      0x7936caa2\n      eq\n      tag_5\n      jumpi\n      jump(tag_2)\n    tag_1:\n      jumpi(tag_2, calldatasize)\n      stop\n    tag_2:\n      stop\n        /* \"contracts/41. Call.sol\":1183:1314  function foo(... */\n    tag_3:\n      tag_10\n      0x04\n      dup1\n      calldatasize\n      sub\n      dup2\n      add\n      swap1\n      tag_11\n      swap2\n      swap1\n      tag_12\n      jump\t// in\n    tag_11:\n      tag_13\n      jump\t// in\n    tag_10:\n      mload(0x40)\n      tag_14\n      swap2\n      swap1\n      tag_15\n      jump\t// in\n    tag_14:\n      mload(0x40)\n      dup1\n      swap2\n      sub\n      swap1\n      return\n        /* \"contracts/41. Call.sol\":1351:1430  function bar(uint256 _x, bool _b) external {... */\n    tag_4:\n      callvalue\n      dup1\n      iszero\n      tag_16\n      jumpi\n      0x00\n      dup1\n      revert\n    tag_16:\n      pop\n      tag_17\n      0x04\n      dup1\n      calldatasize\n      sub\n      dup2\n      add\n      swap1\n      tag_18\n      swap2\n      swap1\n      tag_19\n      jump\t// in\n    tag_18:\n      tag_20\n      jump\t// in\n    tag_17:\n      stop\n        /* \"contracts/41. Call.sol\":1320:1344  bool public barWasCalled */\n    tag_5:\n      callvalue\n      dup1\n      iszero\n      tag_21\n      jumpi\n      0x00\n      dup1\n      revert\n    tag_21:\n      pop\n      tag_22\n      tag_23\n      jump\t// in\n    tag_22:\n      mload(0x40)\n      tag_24\n      swap2\n      swap1\n      tag_15\n      jump\t// in\n    tag_24:\n      mload(0x40)\n      dup1\n      swap2\n      sub\n      swap1\n      return\n        /* \"contracts/41. Call.sol\":1183:1314  function foo(... */\n    tag_13:\n        /* \"contracts/41. Call.sol\":1280:1284  bool */\n      0x00\n        /* \"contracts/41. Call.sol\":1303:1307  true */\n      0x01\n        /* \"contracts/41. Call.sol\":1296:1307  return true */\n      swap1\n      pop\n        /* \"contracts/41. Call.sol\":1183:1314  function foo(... */\n      swap3\n      swap2\n      pop\n      pop\n      jump\t// out\n        /* \"contracts/41. Call.sol\":1351:1430  function bar(uint256 _x, bool _b) external {... */\n    tag_20:\n        /* \"contracts/41. Call.sol\":1419:1423  true */\n      0x01\n        /* \"contracts/41. Call.sol\":1404:1416  barWasCalled */\n      0x00\n      dup1\n        /* \"contracts/41. Call.sol\":1404:1423  barWasCalled = true */\n      0x0100\n      exp\n      dup2\n      sload\n      dup2\n      0xff\n      mul\n      not\n      and\n      swap1\n      dup4\n      iszero\n      iszero\n      mul\n      or\n      swap1\n      sstore\n      pop\n        /* \"contracts/41. Call.sol\":1351:1430  function bar(uint256 _x, bool _b) external {... */\n      pop\n      pop\n      jump\t// out\n        /* \"contracts/41. Call.sol\":1320:1344  bool public barWasCalled */\n    tag_23:\n      0x00\n      dup1\n      sload\n      swap1\n      0x0100\n      exp\n      swap1\n      div\n      0xff\n      and\n      dup2\n      jump\t// out\n        /* \"#utility.yul\":7:82   */\n    tag_27:\n        /* \"#utility.yul\":40:46   */\n      0x00\n        /* \"#utility.yul\":73:75   */\n      0x40\n        /* \"#utility.yul\":67:76   */\n      mload\n        /* \"#utility.yul\":57:76   */\n      swap1\n      pop\n        /* \"#utility.yul\":7:82   */\n      swap1\n      jump\t// out\n        /* \"#utility.yul\":88:205   */\n    tag_28:\n        /* \"#utility.yul\":197:198   */\n      0x00\n        /* \"#utility.yul\":194:195   */\n      dup1\n        /* \"#utility.yul\":187:199   */\n      revert\n        /* \"#utility.yul\":211:328   */\n    tag_29:\n        /* \"#utility.yul\":320:321   */\n      0x00\n        /* \"#utility.yul\":317:318   */\n      dup1\n        /* \"#utility.yul\":310:322   */\n      revert\n        /* \"#utility.yul\":334:451   */\n    tag_30:\n        /* \"#utility.yul\":443:444   */\n      0x00\n        /* \"#utility.yul\":440:441   */\n      dup1\n        /* \"#utility.yul\":433:445   */\n      revert\n        /* \"#utility.yul\":457:574   */\n    tag_31:\n        /* \"#utility.yul\":566:567   */\n      0x00\n        /* \"#utility.yul\":563:564   */\n      dup1\n        /* \"#utility.yul\":556:568   */\n      revert\n        /* \"#utility.yul\":580:682   */\n    tag_32:\n        /* \"#utility.yul\":621:627   */\n      0x00\n        /* \"#utility.yul\":672:674   */\n      0x1f\n        /* \"#utility.yul\":668:675   */\n      not\n        /* \"#utility.yul\":663:665   */\n      0x1f\n        /* \"#utility.yul\":656:661   */\n      dup4\n        /* \"#utility.yul\":652:666   */\n      add\n        /* \"#utility.yul\":648:676   */\n      and\n        /* \"#utility.yul\":638:676   */\n      swap1\n      pop\n        /* \"#utility.yul\":580:682   */\n      swap2\n      swap1\n      pop\n      jump\t// out\n        /* \"#utility.yul\":688:868   */\n    tag_33:\n        /* \"#utility.yul\":736:813   */\n      0x4e487b7100000000000000000000000000000000000000000000000000000000\n        /* \"#utility.yul\":733:734   */\n      0x00\n        /* \"#utility.yul\":726:814   */\n      mstore\n        /* \"#utility.yul\":833:837   */\n      0x41\n        /* \"#utility.yul\":830:831   */\n      0x04\n        /* \"#utility.yul\":823:838   */\n      mstore\n        /* \"#utility.yul\":857:861   */\n      0x24\n        /* \"#utility.yul\":854:855   */\n      0x00\n        /* \"#utility.yul\":847:862   */\n      revert\n        /* \"#utility.yul\":874:1155   */\n    tag_34:\n        /* \"#utility.yul\":957:984   */\n      tag_56\n        /* \"#utility.yul\":979:983   */\n      dup3\n        /* \"#utility.yul\":957:984   */\n      tag_32\n      jump\t// in\n    tag_56:\n        /* \"#utility.yul\":949:955   */\n      dup2\n        /* \"#utility.yul\":945:985   */\n      add\n        /* \"#utility.yul\":1087:1093   */\n      dup2\n        /* \"#utility.yul\":1075:1085   */\n      dup2\n        /* \"#utility.yul\":1072:1094   */\n      lt\n        /* \"#utility.yul\":1051:1069   */\n      0xffffffffffffffff\n        /* \"#utility.yul\":1039:1049   */\n      dup3\n        /* \"#utility.yul\":1036:1070   */\n      gt\n        /* \"#utility.yul\":1033:1095   */\n      or\n        /* \"#utility.yul\":1030:1118   */\n      iszero\n      tag_57\n      jumpi\n        /* \"#utility.yul\":1098:1116   */\n      tag_58\n      tag_33\n      jump\t// in\n    tag_58:\n        /* \"#utility.yul\":1030:1118   */\n    tag_57:\n        /* \"#utility.yul\":1138:1148   */\n      dup1\n        /* \"#utility.yul\":1134:1136   */\n      0x40\n        /* \"#utility.yul\":1127:1149   */\n      mstore\n        /* \"#utility.yul\":917:1155   */\n      pop\n        /* \"#utility.yul\":874:1155   */\n      pop\n      pop\n      jump\t// out\n        /* \"#utility.yul\":1161:1290   */\n    tag_35:\n        /* \"#utility.yul\":1195:1201   */\n      0x00\n        /* \"#utility.yul\":1222:1242   */\n      tag_60\n      tag_27\n      jump\t// in\n    tag_60:\n        /* \"#utility.yul\":1212:1242   */\n      swap1\n      pop\n        /* \"#utility.yul\":1251:1284   */\n      tag_61\n        /* \"#utility.yul\":1279:1283   */\n      dup3\n        /* \"#utility.yul\":1271:1277   */\n      dup3\n        /* \"#utility.yul\":1251:1284   */\n      tag_34\n      jump\t// in\n    tag_61:\n        /* \"#utility.yul\":1161:1290   */\n      swap2\n      swap1\n      pop\n      jump\t// out\n        /* \"#utility.yul\":1296:1604   */\n    tag_36:\n        /* \"#utility.yul\":1358:1362   */\n      0x00\n        /* \"#utility.yul\":1448:1466   */\n      0xffffffffffffffff\n        /* \"#utility.yul\":1440:1446   */\n      dup3\n        /* \"#utility.yul\":1437:1467   */\n      gt\n        /* \"#utility.yul\":1434:1490   */\n      iszero\n      tag_63\n      jumpi\n        /* \"#utility.yul\":1470:1488   */\n      tag_64\n      tag_33\n      jump\t// in\n    tag_64:\n        /* \"#utility.yul\":1434:1490   */\n    tag_63:\n        /* \"#utility.yul\":1508:1537   */\n      tag_65\n        /* \"#utility.yul\":1530:1536   */\n      dup3\n        /* \"#utility.yul\":1508:1537   */\n      tag_32\n      jump\t// in\n    tag_65:\n        /* \"#utility.yul\":1500:1537   */\n      swap1\n      pop\n        /* \"#utility.yul\":1592:1596   */\n      0x20\n        /* \"#utility.yul\":1586:1590   */\n      dup2\n        /* \"#utility.yul\":1582:1597   */\n      add\n        /* \"#utility.yul\":1574:1597   */\n      swap1\n      pop\n        /* \"#utility.yul\":1296:1604   */\n      swap2\n      swap1\n      pop\n      jump\t// out\n        /* \"#utility.yul\":1610:1756   */\n    tag_37:\n        /* \"#utility.yul\":1707:1713   */\n      dup3\n        /* \"#utility.yul\":1702:1705   */\n      dup2\n        /* \"#utility.yul\":1697:1700   */\n      dup4\n        /* \"#utility.yul\":1684:1714   */\n      calldatacopy\n        /* \"#utility.yul\":1748:1749   */\n      0x00\n        /* \"#utility.yul\":1739:1745   */\n      dup4\n        /* \"#utility.yul\":1734:1737   */\n      dup4\n        /* \"#utility.yul\":1730:1746   */\n      add\n        /* \"#utility.yul\":1723:1750   */\n      mstore\n        /* \"#utility.yul\":1610:1756   */\n      pop\n      pop\n      pop\n      jump\t// out\n        /* \"#utility.yul\":1762:2187   */\n    tag_38:\n        /* \"#utility.yul\":1840:1845   */\n      0x00\n        /* \"#utility.yul\":1865:1931   */\n      tag_68\n        /* \"#utility.yul\":1881:1930   */\n      tag_69\n        /* \"#utility.yul\":1923:1929   */\n      dup5\n        /* \"#utility.yul\":1881:1930   */\n      tag_36\n      jump\t// in\n    tag_69:\n        /* \"#utility.yul\":1865:1931   */\n      tag_35\n      jump\t// in\n    tag_68:\n        /* \"#utility.yul\":1856:1931   */\n      swap1\n      pop\n        /* \"#utility.yul\":1954:1960   */\n      dup3\n        /* \"#utility.yul\":1947:1952   */\n      dup2\n        /* \"#utility.yul\":1940:1961   */\n      mstore\n        /* \"#utility.yul\":1992:1996   */\n      0x20\n        /* \"#utility.yul\":1985:1990   */\n      dup2\n        /* \"#utility.yul\":1981:1997   */\n      add\n        /* \"#utility.yul\":2030:2033   */\n      dup5\n        /* \"#utility.yul\":2021:2027   */\n      dup5\n        /* \"#utility.yul\":2016:2019   */\n      dup5\n        /* \"#utility.yul\":2012:2028   */\n      add\n        /* \"#utility.yul\":2009:2034   */\n      gt\n        /* \"#utility.yul\":2006:2118   */\n      iszero\n      tag_70\n      jumpi\n        /* \"#utility.yul\":2037:2116   */\n      tag_71\n      tag_31\n      jump\t// in\n    tag_71:\n        /* \"#utility.yul\":2006:2118   */\n    tag_70:\n        /* \"#utility.yul\":2127:2181   */\n      tag_72\n        /* \"#utility.yul\":2174:2180   */\n      dup5\n        /* \"#utility.yul\":2169:2172   */\n      dup3\n        /* \"#utility.yul\":2164:2167   */\n      dup6\n        /* \"#utility.yul\":2127:2181   */\n      tag_37\n      jump\t// in\n    tag_72:\n        /* \"#utility.yul\":1846:2187   */\n      pop\n        /* \"#utility.yul\":1762:2187   */\n      swap4\n      swap3\n      pop\n      pop\n      pop\n      jump\t// out\n        /* \"#utility.yul\":2207:2547   */\n    tag_39:\n        /* \"#utility.yul\":2263:2268   */\n      0x00\n        /* \"#utility.yul\":2312:2315   */\n      dup3\n        /* \"#utility.yul\":2305:2309   */\n      0x1f\n        /* \"#utility.yul\":2297:2303   */\n      dup4\n        /* \"#utility.yul\":2293:2310   */\n      add\n        /* \"#utility.yul\":2289:2316   */\n      slt\n        /* \"#utility.yul\":2279:2401   */\n      tag_74\n      jumpi\n        /* \"#utility.yul\":2320:2399   */\n      tag_75\n      tag_30\n      jump\t// in\n    tag_75:\n        /* \"#utility.yul\":2279:2401   */\n    tag_74:\n        /* \"#utility.yul\":2437:2443   */\n      dup2\n        /* \"#utility.yul\":2424:2444   */\n      calldataload\n        /* \"#utility.yul\":2462:2541   */\n      tag_76\n        /* \"#utility.yul\":2537:2540   */\n      dup5\n        /* \"#utility.yul\":2529:2535   */\n      dup3\n        /* \"#utility.yul\":2522:2526   */\n      0x20\n        /* \"#utility.yul\":2514:2520   */\n      dup7\n        /* \"#utility.yul\":2510:2527   */\n      add\n        /* \"#utility.yul\":2462:2541   */\n      tag_38\n      jump\t// in\n    tag_76:\n        /* \"#utility.yul\":2453:2541   */\n      swap2\n      pop\n        /* \"#utility.yul\":2269:2547   */\n      pop\n        /* \"#utility.yul\":2207:2547   */\n      swap3\n      swap2\n      pop\n      pop\n      jump\t// out\n        /* \"#utility.yul\":2553:2630   */\n    tag_40:\n        /* \"#utility.yul\":2590:2597   */\n      0x00\n        /* \"#utility.yul\":2619:2624   */\n      dup2\n        /* \"#utility.yul\":2608:2624   */\n      swap1\n      pop\n        /* \"#utility.yul\":2553:2630   */\n      swap2\n      swap1\n      pop\n      jump\t// out\n        /* \"#utility.yul\":2636:2758   */\n    tag_41:\n        /* \"#utility.yul\":2709:2733   */\n      tag_79\n        /* \"#utility.yul\":2727:2732   */\n      dup2\n        /* \"#utility.yul\":2709:2733   */\n      tag_40\n      jump\t// in\n    tag_79:\n        /* \"#utility.yul\":2702:2707   */\n      dup2\n        /* \"#utility.yul\":2699:2734   */\n      eq\n        /* \"#utility.yul\":2689:2752   */\n      tag_80\n      jumpi\n        /* \"#utility.yul\":2748:2749   */\n      0x00\n        /* \"#utility.yul\":2745:2746   */\n      dup1\n        /* \"#utility.yul\":2738:2750   */\n      revert\n        /* \"#utility.yul\":2689:2752   */\n    tag_80:\n        /* \"#utility.yul\":2636:2758   */\n      pop\n      jump\t// out\n        /* \"#utility.yul\":2764:2903   */\n    tag_42:\n        /* \"#utility.yul\":2810:2815   */\n      0x00\n        /* \"#utility.yul\":2848:2854   */\n      dup2\n        /* \"#utility.yul\":2835:2855   */\n      calldataload\n        /* \"#utility.yul\":2826:2855   */\n      swap1\n      pop\n        /* \"#utility.yul\":2864:2897   */\n      tag_82\n        /* \"#utility.yul\":2891:2896   */\n      dup2\n        /* \"#utility.yul\":2864:2897   */\n      tag_41\n      jump\t// in\n    tag_82:\n        /* \"#utility.yul\":2764:2903   */\n      swap3\n      swap2\n      pop\n      pop\n      jump\t// out\n        /* \"#utility.yul\":2909:3563   */\n    tag_12:\n        /* \"#utility.yul\":2987:2993   */\n      0x00\n        /* \"#utility.yul\":2995:3001   */\n      dup1\n        /* \"#utility.yul\":3044:3046   */\n      0x40\n        /* \"#utility.yul\":3032:3041   */\n      dup4\n        /* \"#utility.yul\":3023:3030   */\n      dup6\n        /* \"#utility.yul\":3019:3042   */\n      sub\n        /* \"#utility.yul\":3015:3047   */\n      slt\n        /* \"#utility.yul\":3012:3131   */\n      iszero\n      tag_84\n      jumpi\n        /* \"#utility.yul\":3050:3129   */\n      tag_85\n      tag_28\n      jump\t// in\n    tag_85:\n        /* \"#utility.yul\":3012:3131   */\n    tag_84:\n        /* \"#utility.yul\":3198:3199   */\n      0x00\n        /* \"#utility.yul\":3187:3196   */\n      dup4\n        /* \"#utility.yul\":3183:3200   */\n      add\n        /* \"#utility.yul\":3170:3201   */\n      calldataload\n        /* \"#utility.yul\":3228:3246   */\n      0xffffffffffffffff\n        /* \"#utility.yul\":3220:3226   */\n      dup2\n        /* \"#utility.yul\":3217:3247   */\n      gt\n        /* \"#utility.yul\":3214:3331   */\n      iszero\n      tag_86\n      jumpi\n        /* \"#utility.yul\":3250:3329   */\n      tag_87\n      tag_29\n      jump\t// in\n    tag_87:\n        /* \"#utility.yul\":3214:3331   */\n    tag_86:\n        /* \"#utility.yul\":3355:3418   */\n      tag_88\n        /* \"#utility.yul\":3410:3417   */\n      dup6\n        /* \"#utility.yul\":3401:3407   */\n      dup3\n        /* \"#utility.yul\":3390:3399   */\n      dup7\n        /* \"#utility.yul\":3386:3408   */\n      add\n        /* \"#utility.yul\":3355:3418   */\n      tag_39\n      jump\t// in\n    tag_88:\n        /* \"#utility.yul\":3345:3418   */\n      swap3\n      pop\n        /* \"#utility.yul\":3141:3428   */\n      pop\n        /* \"#utility.yul\":3467:3469   */\n      0x20\n        /* \"#utility.yul\":3493:3546   */\n      tag_89\n        /* \"#utility.yul\":3538:3545   */\n      dup6\n        /* \"#utility.yul\":3529:3535   */\n      dup3\n        /* \"#utility.yul\":3518:3527   */\n      dup7\n        /* \"#utility.yul\":3514:3536   */\n      add\n        /* \"#utility.yul\":3493:3546   */\n      tag_42\n      jump\t// in\n    tag_89:\n        /* \"#utility.yul\":3483:3546   */\n      swap2\n      pop\n        /* \"#utility.yul\":3438:3556   */\n      pop\n        /* \"#utility.yul\":2909:3563   */\n      swap3\n      pop\n      swap3\n      swap1\n      pop\n      jump\t// out\n        /* \"#utility.yul\":3569:3659   */\n    tag_43:\n        /* \"#utility.yul\":3603:3610   */\n      0x00\n        /* \"#utility.yul\":3646:3651   */\n      dup2\n        /* \"#utility.yul\":3639:3652   */\n      iszero\n        /* \"#utility.yul\":3632:3653   */\n      iszero\n        /* \"#utility.yul\":3621:3653   */\n      swap1\n      pop\n        /* \"#utility.yul\":3569:3659   */\n      swap2\n      swap1\n      pop\n      jump\t// out\n        /* \"#utility.yul\":3665:3774   */\n    tag_44:\n        /* \"#utility.yul\":3746:3767   */\n      tag_92\n        /* \"#utility.yul\":3761:3766   */\n      dup2\n        /* \"#utility.yul\":3746:3767   */\n      tag_43\n      jump\t// in\n    tag_92:\n        /* \"#utility.yul\":3741:3744   */\n      dup3\n        /* \"#utility.yul\":3734:3768   */\n      mstore\n        /* \"#utility.yul\":3665:3774   */\n      pop\n      pop\n      jump\t// out\n        /* \"#utility.yul\":3780:3990   */\n    tag_15:\n        /* \"#utility.yul\":3867:3871   */\n      0x00\n        /* \"#utility.yul\":3905:3907   */\n      0x20\n        /* \"#utility.yul\":3894:3903   */\n      dup3\n        /* \"#utility.yul\":3890:3908   */\n      add\n        /* \"#utility.yul\":3882:3908   */\n      swap1\n      pop\n        /* \"#utility.yul\":3918:3983   */\n      tag_94\n        /* \"#utility.yul\":3980:3981   */\n      0x00\n        /* \"#utility.yul\":3969:3978   */\n      dup4\n        /* \"#utility.yul\":3965:3982   */\n      add\n        /* \"#utility.yul\":3956:3962   */\n      dup5\n        /* \"#utility.yul\":3918:3983   */\n      tag_44\n      jump\t// in\n    tag_94:\n        /* \"#utility.yul\":3780:3990   */\n      swap3\n      swap2\n      pop\n      pop\n      jump\t// out\n        /* \"#utility.yul\":3996:4112   */\n    tag_45:\n        /* \"#utility.yul\":4066:4087   */\n      tag_96\n        /* \"#utility.yul\":4081:4086   */\n      dup2\n        /* \"#utility.yul\":4066:4087   */\n      tag_43\n      jump\t// in\n    tag_96:\n        /* \"#utility.yul\":4059:4064   */\n      dup2\n        /* \"#utility.yul\":4056:4088   */\n      eq\n        /* \"#utility.yul\":4046:4106   */\n      tag_97\n      jumpi\n        /* \"#utility.yul\":4102:4103   */\n      0x00\n        /* \"#utility.yul\":4099:4100   */\n      dup1\n        /* \"#utility.yul\":4092:4104   */\n      revert\n        /* \"#utility.yul\":4046:4106   */\n    tag_97:\n        /* \"#utility.yul\":3996:4112   */\n      pop\n      jump\t// out\n        /* \"#utility.yul\":4118:4251   */\n    tag_46:\n        /* \"#utility.yul\":4161:4166   */\n      0x00\n        /* \"#utility.yul\":4199:4205   */\n      dup2\n        /* \"#utility.yul\":4186:4206   */\n      calldataload\n        /* \"#utility.yul\":4177:4206   */\n      swap1\n      pop\n        /* \"#utility.yul\":4215:4245   */\n      tag_99\n        /* \"#utility.yul\":4239:4244   */\n      dup2\n        /* \"#utility.yul\":4215:4245   */\n      tag_45\n      jump\t// in\n    tag_99:\n        /* \"#utility.yul\":4118:4251   */\n      swap3\n      swap2\n      pop\n      pop\n      jump\t// out\n        /* \"#utility.yul\":4257:4725   */\n    tag_19:\n        /* \"#utility.yul\":4322:4328   */\n      0x00\n        /* \"#utility.yul\":4330:4336   */\n      dup1\n        /* \"#utility.yul\":4379:4381   */\n      0x40\n        /* \"#utility.yul\":4367:4376   */\n      dup4\n        /* \"#utility.yul\":4358:4365   */\n      dup6\n        /* \"#utility.yul\":4354:4377   */\n      sub\n        /* \"#utility.yul\":4350:4382   */\n      slt\n        /* \"#utility.yul\":4347:4466   */\n      iszero\n      tag_101\n      jumpi\n        /* \"#utility.yul\":4385:4464   */\n      tag_102\n      tag_28\n      jump\t// in\n    tag_102:\n        /* \"#utility.yul\":4347:4466   */\n    tag_101:\n        /* \"#utility.yul\":4505:4506   */\n      0x00\n        /* \"#utility.yul\":4530:4583   */\n      tag_103\n        /* \"#utility.yul\":4575:4582   */\n      dup6\n        /* \"#utility.yul\":4566:4572   */\n      dup3\n        /* \"#utility.yul\":4555:4564   */\n      dup7\n        /* \"#utility.yul\":4551:4573   */\n      add\n        /* \"#utility.yul\":4530:4583   */\n      tag_42\n      jump\t// in\n    tag_103:\n        /* \"#utility.yul\":4520:4583   */\n      swap3\n      pop\n        /* \"#utility.yul\":4476:4593   */\n      pop\n        /* \"#utility.yul\":4632:4634   */\n      0x20\n        /* \"#utility.yul\":4658:4708   */\n      tag_104\n        /* \"#utility.yul\":4700:4707   */\n      dup6\n        /* \"#utility.yul\":4691:4697   */\n      dup3\n        /* \"#utility.yul\":4680:4689   */\n      dup7\n        /* \"#utility.yul\":4676:4698   */\n      add\n        /* \"#utility.yul\":4658:4708   */\n      tag_46\n      jump\t// in\n    tag_104:\n        /* \"#utility.yul\":4648:4708   */\n      swap2\n      pop\n        /* \"#utility.yul\":4603:4718   */\n      pop\n        /* \"#utility.yul\":4257:4725   */\n      swap3\n      pop\n      swap3\n      swap1\n      pop\n      jump\t// out\n\n    auxdata: 0xa26469706673582212203fd79c4571644509348d5d000a09656ceffd7b38bbedcaf1bbe32880ba9d653e64736f6c63430008160033\n}\n",
				"bytecode": {
					"linkReferences": {},
					"object": "608060405234801561000f575f80fd5b506103a58061001d5f395ff3fe608060405260043610610037575f3560e01c806324ccab8f146100405780634b109a0d146100705780637936caa2146100985761003e565b3661003e57005b005b61005a6004803603810190610055919061027a565b6100c2565b60405161006791906102ee565b60405180910390f35b34801561007b575f80fd5b5061009660048036038101906100919190610331565b6100cd565b005b3480156100a3575f80fd5b506100ac6100ea565b6040516100b991906102ee565b60405180910390f35b5f6001905092915050565b60015f806101000a81548160ff0219169083151502179055505050565b5f8054906101000a900460ff1681565b5f604051905090565b5f80fd5b5f80fd5b5f80fd5b5f80fd5b5f601f19601f8301169050919050565b7f4e487b71000000000000000000000000000000000000000000000000000000005f52604160045260245ffd5b61015982610113565b810181811067ffffffffffffffff8211171561017857610177610123565b5b80604052505050565b5f61018a6100fa565b90506101968282610150565b919050565b5f67ffffffffffffffff8211156101b5576101b4610123565b5b6101be82610113565b9050602081019050919050565b828183375f83830152505050565b5f6101eb6101e68461019b565b610181565b9050828152602081018484840111156102075761020661010f565b5b6102128482856101cb565b509392505050565b5f82601f83011261022e5761022d61010b565b5b813561023e8482602086016101d9565b91505092915050565b5f819050919050565b61025981610247565b8114610263575f80fd5b50565b5f8135905061027481610250565b92915050565b5f80604083850312156102905761028f610103565b5b5f83013567ffffffffffffffff8111156102ad576102ac610107565b5b6102b98582860161021a565b92505060206102ca85828601610266565b9150509250929050565b5f8115159050919050565b6102e8816102d4565b82525050565b5f6020820190506103015f8301846102df565b92915050565b610310816102d4565b811461031a575f80fd5b50565b5f8135905061032b81610307565b92915050565b5f806040838503121561034757610346610103565b5b5f61035485828601610266565b92505060206103658582860161031d565b915050925092905056fea26469706673582212203fd79c4571644509348d5d000a09656ceffd7b38bbedcaf1bbe32880ba9d653e64736f6c63430008160033",
					"opcodes": "PUSH1 0x80 PUSH1 0x40 MSTORE CALLVALUE DUP1 ISZERO PUSH2 0xF JUMPI PUSH0 DUP1 REVERT JUMPDEST POP PUSH2 0x3A5 DUP1 PUSH2 0x1D PUSH0 CODECOPY PUSH0 RETURN INVALID PUSH1 0x80 PUSH1 0x40 MSTORE PUSH1 0x4 CALLDATASIZE LT PUSH2 0x37 JUMPI PUSH0 CALLDATALOAD PUSH1 0xE0 SHR DUP1 PUSH4 0x24CCAB8F EQ PUSH2 0x40 JUMPI DUP1 PUSH4 0x4B109A0D EQ PUSH2 0x70 JUMPI DUP1 PUSH4 0x7936CAA2 EQ PUSH2 0x98 JUMPI PUSH2 0x3E JUMP JUMPDEST CALLDATASIZE PUSH2 0x3E JUMPI STOP JUMPDEST STOP JUMPDEST PUSH2 0x5A PUSH1 0x4 DUP1 CALLDATASIZE SUB DUP2 ADD SWAP1 PUSH2 0x55 SWAP2 SWAP1 PUSH2 0x27A JUMP JUMPDEST PUSH2 0xC2 JUMP JUMPDEST PUSH1 0x40 MLOAD PUSH2 0x67 SWAP2 SWAP1 PUSH2 0x2EE JUMP JUMPDEST PUSH1 0x40 MLOAD DUP1 SWAP2 SUB SWAP1 RETURN JUMPDEST CALLVALUE DUP1 ISZERO PUSH2 0x7B JUMPI PUSH0 DUP1 REVERT JUMPDEST POP PUSH2 0x96 PUSH1 0x4 DUP1 CALLDATASIZE SUB DUP2 ADD SWAP1 PUSH2 0x91 SWAP2 SWAP1 PUSH2 0x331 JUMP JUMPDEST PUSH2 0xCD JUMP JUMPDEST STOP JUMPDEST CALLVALUE DUP1 ISZERO PUSH2 0xA3 JUMPI PUSH0 DUP1 REVERT JUMPDEST POP PUSH2 0xAC PUSH2 0xEA JUMP JUMPDEST PUSH1 0x40 MLOAD PUSH2 0xB9 SWAP2 SWAP1 PUSH2 0x2EE JUMP JUMPDEST PUSH1 0x40 MLOAD DUP1 SWAP2 SUB SWAP1 RETURN JUMPDEST PUSH0 PUSH1 0x1 SWAP1 POP SWAP3 SWAP2 POP POP JUMP JUMPDEST PUSH1 0x1 PUSH0 DUP1 PUSH2 0x100 EXP DUP2 SLOAD DUP2 PUSH1 0xFF MUL NOT AND SWAP1 DUP4 ISZERO ISZERO MUL OR SWAP1 SSTORE POP POP POP JUMP JUMPDEST PUSH0 DUP1 SLOAD SWAP1 PUSH2 0x100 EXP SWAP1 DIV PUSH1 0xFF AND DUP2 JUMP JUMPDEST PUSH0 PUSH1 0x40 MLOAD SWAP1 POP SWAP1 JUMP JUMPDEST PUSH0 DUP1 REVERT JUMPDEST PUSH0 DUP1 REVERT JUMPDEST PUSH0 DUP1 REVERT JUMPDEST PUSH0 DUP1 REVERT JUMPDEST PUSH0 PUSH1 0x1F NOT PUSH1 0x1F DUP4 ADD AND SWAP1 POP SWAP2 SWAP1 POP JUMP JUMPDEST PUSH32 0x4E487B7100000000000000000000000000000000000000000000000000000000 PUSH0 MSTORE PUSH1 0x41 PUSH1 0x4 MSTORE PUSH1 0x24 PUSH0 REVERT JUMPDEST PUSH2 0x159 DUP3 PUSH2 0x113 JUMP JUMPDEST DUP2 ADD DUP2 DUP2 LT PUSH8 0xFFFFFFFFFFFFFFFF DUP3 GT OR ISZERO PUSH2 0x178 JUMPI PUSH2 0x177 PUSH2 0x123 JUMP JUMPDEST JUMPDEST DUP1 PUSH1 0x40 MSTORE POP POP POP JUMP JUMPDEST PUSH0 PUSH2 0x18A PUSH2 0xFA JUMP JUMPDEST SWAP1 POP PUSH2 0x196 DUP3 DUP3 PUSH2 0x150 JUMP JUMPDEST SWAP2 SWAP1 POP JUMP JUMPDEST PUSH0 PUSH8 0xFFFFFFFFFFFFFFFF DUP3 GT ISZERO PUSH2 0x1B5 JUMPI PUSH2 0x1B4 PUSH2 0x123 JUMP JUMPDEST JUMPDEST PUSH2 0x1BE DUP3 PUSH2 0x113 JUMP JUMPDEST SWAP1 POP PUSH1 0x20 DUP2 ADD SWAP1 POP SWAP2 SWAP1 POP JUMP JUMPDEST DUP3 DUP2 DUP4 CALLDATACOPY PUSH0 DUP4 DUP4 ADD MSTORE POP POP POP JUMP JUMPDEST PUSH0 PUSH2 0x1EB PUSH2 0x1E6 DUP5 PUSH2 0x19B JUMP JUMPDEST PUSH2 0x181 JUMP JUMPDEST SWAP1 POP DUP3 DUP2 MSTORE PUSH1 0x20 DUP2 ADD DUP5 DUP5 DUP5 ADD GT ISZERO PUSH2 0x207 JUMPI PUSH2 0x206 PUSH2 0x10F JUMP JUMPDEST JUMPDEST PUSH2 0x212 DUP5 DUP3 DUP6 PUSH2 0x1CB JUMP JUMPDEST POP SWAP4 SWAP3 POP POP POP JUMP JUMPDEST PUSH0 DUP3 PUSH1 0x1F DUP4 ADD SLT PUSH2 0x22E JUMPI PUSH2 0x22D PUSH2 0x10B JUMP JUMPDEST JUMPDEST DUP2 CALLDATALOAD PUSH2 0x23E DUP5 DUP3 PUSH1 0x20 DUP7 ADD PUSH2 0x1D9 JUMP JUMPDEST SWAP2 POP POP SWAP3 SWAP2 POP POP JUMP JUMPDEST PUSH0 DUP2 SWAP1 POP SWAP2 SWAP1 POP JUMP JUMPDEST PUSH2 0x259 DUP2 PUSH2 0x247 JUMP JUMPDEST DUP2 EQ PUSH2 0x263 JUMPI PUSH0 DUP1 REVERT JUMPDEST POP JUMP JUMPDEST PUSH0 DUP2 CALLDATALOAD SWAP1 POP PUSH2 0x274 DUP2 PUSH2 0x250 JUMP JUMPDEST SWAP3 SWAP2 POP POP JUMP JUMPDEST PUSH0 DUP1 PUSH1 0x40 DUP4 DUP6 SUB SLT ISZERO PUSH2 0x290 JUMPI PUSH2 0x28F PUSH2 0x103 JUMP JUMPDEST JUMPDEST PUSH0 DUP4 ADD CALLDATALOAD PUSH8 0xFFFFFFFFFFFFFFFF DUP2 GT ISZERO PUSH2 0x2AD JUMPI PUSH2 0x2AC PUSH2 0x107 JUMP JUMPDEST JUMPDEST PUSH2 0x2B9 DUP6 DUP3 DUP7 ADD PUSH2 0x21A JUMP JUMPDEST SWAP3 POP POP PUSH1 0x20 PUSH2 0x2CA DUP6 DUP3 DUP7 ADD PUSH2 0x266 JUMP JUMPDEST SWAP2 POP POP SWAP3 POP SWAP3 SWAP1 POP JUMP JUMPDEST PUSH0 DUP2 ISZERO ISZERO SWAP1 POP SWAP2 SWAP1 POP JUMP JUMPDEST PUSH2 0x2E8 DUP2 PUSH2 0x2D4 JUMP JUMPDEST DUP3 MSTORE POP POP JUMP JUMPDEST PUSH0 PUSH1 0x20 DUP3 ADD SWAP1 POP PUSH2 0x301 PUSH0 DUP4 ADD DUP5 PUSH2 0x2DF JUMP JUMPDEST SWAP3 SWAP2 POP POP JUMP JUMPDEST PUSH2 0x310 DUP2 PUSH2 0x2D4 JUMP JUMPDEST DUP2 EQ PUSH2 0x31A JUMPI PUSH0 DUP1 REVERT JUMPDEST POP JUMP JUMPDEST PUSH0 DUP2 CALLDATALOAD SWAP1 POP PUSH2 0x32B DUP2 PUSH2 0x307 JUMP JUMPDEST SWAP3 SWAP2 POP POP JUMP JUMPDEST PUSH0 DUP1 PUSH1 0x40 DUP4 DUP6 SUB SLT ISZERO PUSH2 0x347 JUMPI PUSH2 0x346 PUSH2 0x103 JUMP JUMPDEST JUMPDEST PUSH0 PUSH2 0x354 DUP6 DUP3 DUP7 ADD PUSH2 0x266 JUMP JUMPDEST SWAP3 POP POP PUSH1 0x20 PUSH2 0x365 DUP6 DUP3 DUP7 ADD PUSH2 0x31D JUMP JUMPDEST SWAP2 POP POP SWAP3 POP SWAP3 SWAP1 POP JUMP INVALID LOG2 PUSH5 0x6970667358 0x22 SLT KECCAK256 EXTCODEHASH 0xD7 SWAP13 GASLIMIT PUSH18 0x644509348D5D000A09656CEFFD7B38BBEDCA CALL 0xBB 0xE3 0x28 DUP1 0xBA SWAP14 PUSH6 0x3E64736F6C63 NUMBER STOP ADDMOD AND STOP CALLER "
				},
				"gasEstimates": {
					"creation": {
						"codeDepositCost": "186600",
						"executionCost": "230",
						"totalCost": "186830"
					},
					"external": {
						"": "128",
						"bar(uint256,bool)": "24844",
						"barWasCalled()": "2485",
						"foo(string,uint256)": "infinite"
					}
				},
				"methodIdentifiers": {
					"bar(uint256,bool)": "4b109a0d",
					"barWasCalled()": "7936caa2",
					"foo(string,uint256)": "24ccab8f"
				}
			},
			"storageLayout": {
				"storage": [
					{
						"astId": 96,
						"contract": "contracts/41. Call.sol:TestCall",
						"label": "barWasCalled",
						"offset": 0,
						"slot": "0",
						"type": "t_bool"
					}
				],
				"types": {
					"t_bool": {
						"encoding": "inplace",
						"label": "bool",
						"numberOfBytes": "1"
					}
				}
			},
			"userdoc": {
				"kind": "user",
				"methods": {},
				"version": 1
			}
		}
	}
}