{
	"contracts/22. Data Locations.sol": {
		"DataLocations": {
			"abi": [
				{
					"inputs": [
						{
							"internalType": "uint256[]",
							"name": "y",
							"type": "uint256[]"
						},
						{
							"internalType": "string",
							"name": "s",
							"type": "string"
						}
					],
					"name": "examples",
					"outputs": [
						{
							"internalType": "uint256[]",
							"name": "",
							"type": "uint256[]"
						}
					],
					"stateMutability": "nonpayable",
					"type": "function"
				},
				{
					"inputs": [
						{
							"internalType": "uint256[]",
							"name": "y",
							"type": "uint256[]"
						},
						{
							"internalType": "string",
							"name": "s",
							"type": "string"
						}
					],
					"name": "examples2",
					"outputs": [
						{
							"internalType": "uint256[]",
							"name": "",
							"type": "uint256[]"
						}
					],
					"stateMutability": "nonpayable",
					"type": "function"
				},
				{
					"inputs": [
						{
							"internalType": "address",
							"name": "",
							"type": "address"
						}
					],
					"name": "myStructs",
					"outputs": [
						{
							"internalType": "uint256",
							"name": "foo",
							"type": "uint256"
						},
						{
							"internalType": "string",
							"name": "text",
							"type": "string"
						}
					],
					"stateMutability": "view",
					"type": "function"
				}
			],
			"devdoc": {
				"kind": "dev",
				"methods": {},
				"version": 1
			},
			"evm": {
				"assembly": "    /* \"contracts/22. Data Locations.sol\":195:1442  contract DataLocations {... */\n  mstore(0x40, 0x80)\n  callvalue\n  dup1\n  iszero\n  tag_1\n  jumpi\n  0x00\n  dup1\n  revert\ntag_1:\n  pop\n  dataSize(sub_0)\n  dup1\n  dataOffset(sub_0)\n  0x00\n  codecopy\n  0x00\n  return\nstop\n\nsub_0: assembly {\n        /* \"contracts/22. Data Locations.sol\":195:1442  contract DataLocations {... */\n      mstore(0x40, 0x80)\n      callvalue\n      dup1\n      iszero\n      tag_1\n      jumpi\n      0x00\n      dup1\n      revert\n    tag_1:\n      pop\n      jumpi(tag_2, lt(calldatasize, 0x04))\n      shr(0xe0, calldataload(0x00))\n      dup1\n      0xa701d733\n      eq\n      tag_3\n      jumpi\n      dup1\n      0xb43c5d33\n      eq\n      tag_4\n      jumpi\n      dup1\n      0xfc277a95\n      eq\n      tag_5\n      jumpi\n    tag_2:\n      0x00\n      dup1\n      revert\n        /* \"contracts/22. Data Locations.sol\":842:1358  function examples2(uint[] calldata y, string calldata s) external returns (uint[] memory) {... */\n    tag_3:\n      tag_6\n      0x04\n      dup1\n      calldatasize\n      sub\n      dup2\n      add\n      swap1\n      tag_7\n      swap2\n      swap1\n      tag_8\n      jump\t// in\n    tag_7:\n      tag_9\n      jump\t// in\n    tag_6:\n      mload(0x40)\n      tag_10\n      swap2\n      swap1\n      tag_11\n      jump\t// in\n    tag_10:\n      mload(0x40)\n      dup1\n      swap2\n      sub\n      swap1\n      return\n        /* \"contracts/22. Data Locations.sol\":292:337  mapping(address => MyStruct) public myStructs */\n    tag_4:\n      tag_12\n      0x04\n      dup1\n      calldatasize\n      sub\n      dup2\n      add\n      swap1\n      tag_13\n      swap2\n      swap1\n      tag_14\n      jump\t// in\n    tag_13:\n      tag_15\n      jump\t// in\n    tag_12:\n      mload(0x40)\n      tag_16\n      swap3\n      swap2\n      swap1\n      tag_17\n      jump\t// in\n    tag_16:\n      mload(0x40)\n      dup1\n      swap2\n      sub\n      swap1\n      return\n        /* \"contracts/22. Data Locations.sol\":344:832  function examples(uint[] memory y, string memory s) external returns (uint[] memory) {... */\n    tag_5:\n      tag_18\n      0x04\n      dup1\n      calldatasize\n      sub\n      dup2\n      add\n      swap1\n      tag_19\n      swap2\n      swap1\n      tag_20\n      jump\t// in\n    tag_19:\n      tag_21\n      jump\t// in\n    tag_18:\n      mload(0x40)\n      tag_22\n      swap2\n      swap1\n      tag_11\n      jump\t// in\n    tag_22:\n      mload(0x40)\n      dup1\n      swap2\n      sub\n      swap1\n      return\n        /* \"contracts/22. Data Locations.sol\":842:1358  function examples2(uint[] calldata y, string calldata s) external returns (uint[] memory) {... */\n    tag_9:\n        /* \"contracts/22. Data Locations.sol\":917:930  uint[] memory */\n      0x60\n        /* \"contracts/22. Data Locations.sol\":966:998  MyStruct({foo:123, text: 'bar'}) */\n      mload(0x40)\n      dup1\n      0x40\n      add\n      0x40\n      mstore\n      dup1\n        /* \"contracts/22. Data Locations.sol\":980:983  123 */\n      0x7b\n        /* \"contracts/22. Data Locations.sol\":966:998  MyStruct({foo:123, text: 'bar'}) */\n      dup2\n      mstore\n      0x20\n      add\n      mload(0x40)\n      dup1\n      0x40\n      add\n      0x40\n      mstore\n      dup1\n      0x03\n      dup2\n      mstore\n      0x20\n      add\n      0x6261720000000000000000000000000000000000000000000000000000000000\n      dup2\n      mstore\n      pop\n      dup2\n      mstore\n      pop\n        /* \"contracts/22. Data Locations.sol\":942:951  myStructs */\n      0x00\n        /* \"contracts/22. Data Locations.sol\":942:963  myStructs[msg.sender] */\n      dup1\n        /* \"contracts/22. Data Locations.sol\":952:962  msg.sender */\n      caller\n        /* \"contracts/22. Data Locations.sol\":942:963  myStructs[msg.sender] */\n      0xffffffffffffffffffffffffffffffffffffffff\n      and\n      0xffffffffffffffffffffffffffffffffffffffff\n      and\n      dup2\n      mstore\n      0x20\n      add\n      swap1\n      dup2\n      mstore\n      0x20\n      add\n      0x00\n      keccak256\n        /* \"contracts/22. Data Locations.sol\":942:998  myStructs[msg.sender] = MyStruct({foo:123, text: 'bar'}) */\n      0x00\n      dup3\n      add\n      mload\n      dup2\n      0x00\n      add\n      sstore\n      0x20\n      dup3\n      add\n      mload\n      dup2\n      0x01\n      add\n      swap1\n      dup2\n      tag_24\n      swap2\n      swap1\n      tag_25\n      jump\t// in\n    tag_24:\n      pop\n      swap1\n      pop\n      pop\n        /* \"contracts/22. Data Locations.sol\":1009:1034  MyStruct storage myStruct */\n      0x00\n        /* \"contracts/22. Data Locations.sol\":1037:1046  myStructs */\n      dup1\n        /* \"contracts/22. Data Locations.sol\":1037:1058  myStructs[msg.sender] */\n      0x00\n        /* \"contracts/22. Data Locations.sol\":1047:1057  msg.sender */\n      caller\n        /* \"contracts/22. Data Locations.sol\":1037:1058  myStructs[msg.sender] */\n      0xffffffffffffffffffffffffffffffffffffffff\n      and\n      0xffffffffffffffffffffffffffffffffffffffff\n      and\n      dup2\n      mstore\n      0x20\n      add\n      swap1\n      dup2\n      mstore\n      0x20\n      add\n      0x00\n      keccak256\n        /* \"contracts/22. Data Locations.sol\":1009:1058  MyStruct storage myStruct = myStructs[msg.sender] */\n      swap1\n      pop\n        /* \"contracts/22. Data Locations.sol\":1068:1089  myStruct.text = 'foo' */\n      mload(0x40)\n      dup1\n      0x40\n      add\n      0x40\n      mstore\n      dup1\n      0x03\n      dup2\n      mstore\n      0x20\n      add\n      0x666f6f0000000000000000000000000000000000000000000000000000000000\n      dup2\n      mstore\n      pop\n        /* \"contracts/22. Data Locations.sol\":1068:1076  myStruct */\n      dup2\n        /* \"contracts/22. Data Locations.sol\":1068:1081  myStruct.text */\n      0x01\n      add\n        /* \"contracts/22. Data Locations.sol\":1068:1089  myStruct.text = 'foo' */\n      swap1\n      dup2\n      tag_26\n      swap2\n      swap1\n      tag_25\n      jump\t// in\n    tag_26:\n      pop\n        /* \"contracts/22. Data Locations.sol\":1100:1124  MyStruct memory readOnly */\n      0x00\n        /* \"contracts/22. Data Locations.sol\":1127:1136  myStructs */\n      dup1\n        /* \"contracts/22. Data Locations.sol\":1127:1148  myStructs[msg.sender] */\n      0x00\n        /* \"contracts/22. Data Locations.sol\":1137:1147  msg.sender */\n      caller\n        /* \"contracts/22. Data Locations.sol\":1127:1148  myStructs[msg.sender] */\n      0xffffffffffffffffffffffffffffffffffffffff\n      and\n      0xffffffffffffffffffffffffffffffffffffffff\n      and\n      dup2\n      mstore\n      0x20\n      add\n      swap1\n      dup2\n      mstore\n      0x20\n      add\n      0x00\n      keccak256\n        /* \"contracts/22. Data Locations.sol\":1100:1148  MyStruct memory readOnly = myStructs[msg.sender] */\n      mload(0x40)\n      dup1\n      0x40\n      add\n      0x40\n      mstore\n      swap1\n      dup2\n      0x00\n      dup3\n      add\n      sload\n      dup2\n      mstore\n      0x20\n      add\n      0x01\n      dup3\n      add\n      dup1\n      sload\n      tag_27\n      swap1\n      tag_28\n      jump\t// in\n    tag_27:\n      dup1\n      0x1f\n      add\n      0x20\n      dup1\n      swap2\n      div\n      mul\n      0x20\n      add\n      mload(0x40)\n      swap1\n      dup2\n      add\n      0x40\n      mstore\n      dup1\n      swap3\n      swap2\n      swap1\n      dup2\n      dup2\n      mstore\n      0x20\n      add\n      dup3\n      dup1\n      sload\n      tag_29\n      swap1\n      tag_28\n      jump\t// in\n    tag_29:\n      dup1\n      iszero\n      tag_30\n      jumpi\n      dup1\n      0x1f\n      lt\n      tag_31\n      jumpi\n      0x0100\n      dup1\n      dup4\n      sload\n      div\n      mul\n      dup4\n      mstore\n      swap2\n      0x20\n      add\n      swap2\n      jump(tag_30)\n    tag_31:\n      dup3\n      add\n      swap2\n      swap1\n      0x00\n      mstore\n      keccak256(0x00, 0x20)\n      swap1\n    tag_32:\n      dup2\n      sload\n      dup2\n      mstore\n      swap1\n      0x01\n      add\n      swap1\n      0x20\n      add\n      dup1\n      dup4\n      gt\n      tag_32\n      jumpi\n      dup3\n      swap1\n      sub\n      0x1f\n      and\n      dup3\n      add\n      swap2\n    tag_30:\n      pop\n      pop\n      pop\n      pop\n      pop\n      dup2\n      mstore\n      pop\n      pop\n      swap1\n      pop\n        /* \"contracts/22. Data Locations.sol\":1173:1176  333 */\n      0x014d\n        /* \"contracts/22. Data Locations.sol\":1158:1166  readOnly */\n      dup2\n        /* \"contracts/22. Data Locations.sol\":1158:1170  readOnly.foo */\n      0x00\n      add\n        /* \"contracts/22. Data Locations.sol\":1158:1176  readOnly.foo = 333 */\n      dup2\n      dup2\n      mstore\n      pop\n      pop\n        /* \"contracts/22. Data Locations.sol\":1244:1256  _internal(y) */\n      tag_33\n        /* \"contracts/22. Data Locations.sol\":1254:1255  y */\n      dup8\n      dup8\n        /* \"contracts/22. Data Locations.sol\":1244:1253  _internal */\n      tag_34\n        /* \"contracts/22. Data Locations.sol\":1244:1256  _internal(y) */\n      jump\t// in\n    tag_33:\n        /* \"contracts/22. Data Locations.sol\":1267:1287  uint[] memory memArr */\n      0x00\n        /* \"contracts/22. Data Locations.sol\":1301:1302  3 */\n      0x03\n        /* \"contracts/22. Data Locations.sol\":1290:1303  new uint[](3) */\n      0xffffffffffffffff\n      dup2\n      gt\n      iszero\n      tag_35\n      jumpi\n      tag_36\n      tag_37\n      jump\t// in\n    tag_36:\n    tag_35:\n      mload(0x40)\n      swap1\n      dup1\n      dup3\n      mstore\n      dup1\n      0x20\n      mul\n      0x20\n      add\n      dup3\n      add\n      0x40\n      mstore\n      dup1\n      iszero\n      tag_38\n      jumpi\n      dup2\n      0x20\n      add\n      0x20\n      dup3\n      mul\n      dup1\n      calldatasize\n      dup4\n      calldatacopy\n      dup1\n      dup3\n      add\n      swap2\n      pop\n      pop\n      swap1\n      pop\n    tag_38:\n      pop\n        /* \"contracts/22. Data Locations.sol\":1267:1303  uint[] memory memArr = new uint[](3) */\n      swap1\n      pop\n        /* \"contracts/22. Data Locations.sol\":1325:1328  234 */\n      0xea\n        /* \"contracts/22. Data Locations.sol\":1313:1319  memArr */\n      dup2\n        /* \"contracts/22. Data Locations.sol\":1320:1321  0 */\n      0x00\n        /* \"contracts/22. Data Locations.sol\":1313:1322  memArr[0] */\n      dup2\n      mload\n      dup2\n      lt\n      tag_39\n      jumpi\n      tag_40\n      tag_41\n      jump\t// in\n    tag_40:\n    tag_39:\n      0x20\n      mul\n      0x20\n      add\n      add\n        /* \"contracts/22. Data Locations.sol\":1313:1328  memArr[0] = 234 */\n      dup2\n      dup2\n      mstore\n      pop\n      pop\n        /* \"contracts/22. Data Locations.sol\":1345:1351  memArr */\n      dup1\n        /* \"contracts/22. Data Locations.sol\":1338:1351  return memArr */\n      swap4\n      pop\n      pop\n      pop\n      pop\n        /* \"contracts/22. Data Locations.sol\":842:1358  function examples2(uint[] calldata y, string calldata s) external returns (uint[] memory) {... */\n      swap5\n      swap4\n      pop\n      pop\n      pop\n      pop\n      jump\t// out\n        /* \"contracts/22. Data Locations.sol\":292:337  mapping(address => MyStruct) public myStructs */\n    tag_15:\n      mstore(0x20, 0x00)\n      dup1\n      0x00\n      mstore\n      keccak256(0x00, 0x40)\n      0x00\n      swap2\n      pop\n      swap1\n      pop\n      dup1\n      0x00\n      add\n      sload\n      swap1\n      dup1\n      0x01\n      add\n      dup1\n      sload\n      tag_42\n      swap1\n      tag_28\n      jump\t// in\n    tag_42:\n      dup1\n      0x1f\n      add\n      0x20\n      dup1\n      swap2\n      div\n      mul\n      0x20\n      add\n      mload(0x40)\n      swap1\n      dup2\n      add\n      0x40\n      mstore\n      dup1\n      swap3\n      swap2\n      swap1\n      dup2\n      dup2\n      mstore\n      0x20\n      add\n      dup3\n      dup1\n      sload\n      tag_43\n      swap1\n      tag_28\n      jump\t// in\n    tag_43:\n      dup1\n      iszero\n      tag_44\n      jumpi\n      dup1\n      0x1f\n      lt\n      tag_45\n      jumpi\n      0x0100\n      dup1\n      dup4\n      sload\n      div\n      mul\n      dup4\n      mstore\n      swap2\n      0x20\n      add\n      swap2\n      jump(tag_44)\n    tag_45:\n      dup3\n      add\n      swap2\n      swap1\n      0x00\n      mstore\n      keccak256(0x00, 0x20)\n      swap1\n    tag_46:\n      dup2\n      sload\n      dup2\n      mstore\n      swap1\n      0x01\n      add\n      swap1\n      0x20\n      add\n      dup1\n      dup4\n      gt\n      tag_46\n      jumpi\n      dup3\n      swap1\n      sub\n      0x1f\n      and\n      dup3\n      add\n      swap2\n    tag_44:\n      pop\n      pop\n      pop\n      pop\n      pop\n      swap1\n      pop\n      dup3\n      jump\t// out\n        /* \"contracts/22. Data Locations.sol\":344:832  function examples(uint[] memory y, string memory s) external returns (uint[] memory) {... */\n    tag_21:\n        /* \"contracts/22. Data Locations.sol\":414:427  uint[] memory */\n      0x60\n        /* \"contracts/22. Data Locations.sol\":463:495  MyStruct({foo:123, text: 'bar'}) */\n      mload(0x40)\n      dup1\n      0x40\n      add\n      0x40\n      mstore\n      dup1\n        /* \"contracts/22. Data Locations.sol\":477:480  123 */\n      0x7b\n        /* \"contracts/22. Data Locations.sol\":463:495  MyStruct({foo:123, text: 'bar'}) */\n      dup2\n      mstore\n      0x20\n      add\n      mload(0x40)\n      dup1\n      0x40\n      add\n      0x40\n      mstore\n      dup1\n      0x03\n      dup2\n      mstore\n      0x20\n      add\n      0x6261720000000000000000000000000000000000000000000000000000000000\n      dup2\n      mstore\n      pop\n      dup2\n      mstore\n      pop\n        /* \"contracts/22. Data Locations.sol\":439:448  myStructs */\n      0x00\n        /* \"contracts/22. Data Locations.sol\":439:460  myStructs[msg.sender] */\n      dup1\n        /* \"contracts/22. Data Locations.sol\":449:459  msg.sender */\n      caller\n        /* \"contracts/22. Data Locations.sol\":439:460  myStructs[msg.sender] */\n      0xffffffffffffffffffffffffffffffffffffffff\n      and\n      0xffffffffffffffffffffffffffffffffffffffff\n      and\n      dup2\n      mstore\n      0x20\n      add\n      swap1\n      dup2\n      mstore\n      0x20\n      add\n      0x00\n      keccak256\n        /* \"contracts/22. Data Locations.sol\":439:495  myStructs[msg.sender] = MyStruct({foo:123, text: 'bar'}) */\n      0x00\n      dup3\n      add\n      mload\n      dup2\n      0x00\n      add\n      sstore\n      0x20\n      dup3\n      add\n      mload\n      dup2\n      0x01\n      add\n      swap1\n      dup2\n      tag_48\n      swap2\n      swap1\n      tag_25\n      jump\t// in\n    tag_48:\n      pop\n      swap1\n      pop\n      pop\n        /* \"contracts/22. Data Locations.sol\":506:531  MyStruct storage myStruct */\n      0x00\n        /* \"contracts/22. Data Locations.sol\":534:543  myStructs */\n      dup1\n        /* \"contracts/22. Data Locations.sol\":534:555  myStructs[msg.sender] */\n      0x00\n        /* \"contracts/22. Data Locations.sol\":544:554  msg.sender */\n      caller\n        /* \"contracts/22. Data Locations.sol\":534:555  myStructs[msg.sender] */\n      0xffffffffffffffffffffffffffffffffffffffff\n      and\n      0xffffffffffffffffffffffffffffffffffffffff\n      and\n      dup2\n      mstore\n      0x20\n      add\n      swap1\n      dup2\n      mstore\n      0x20\n      add\n      0x00\n      keccak256\n        /* \"contracts/22. Data Locations.sol\":506:555  MyStruct storage myStruct = myStructs[msg.sender] */\n      swap1\n      pop\n        /* \"contracts/22. Data Locations.sol\":565:586  myStruct.text = 'foo' */\n      mload(0x40)\n      dup1\n      0x40\n      add\n      0x40\n      mstore\n      dup1\n      0x03\n      dup2\n      mstore\n      0x20\n      add\n      0x666f6f0000000000000000000000000000000000000000000000000000000000\n      dup2\n      mstore\n      pop\n        /* \"contracts/22. Data Locations.sol\":565:573  myStruct */\n      dup2\n        /* \"contracts/22. Data Locations.sol\":565:578  myStruct.text */\n      0x01\n      add\n        /* \"contracts/22. Data Locations.sol\":565:586  myStruct.text = 'foo' */\n      swap1\n      dup2\n      tag_49\n      swap2\n      swap1\n      tag_25\n      jump\t// in\n    tag_49:\n      pop\n        /* \"contracts/22. Data Locations.sol\":597:621  MyStruct memory readOnly */\n      0x00\n        /* \"contracts/22. Data Locations.sol\":624:633  myStructs */\n      dup1\n        /* \"contracts/22. Data Locations.sol\":624:645  myStructs[msg.sender] */\n      0x00\n        /* \"contracts/22. Data Locations.sol\":634:644  msg.sender */\n      caller\n        /* \"contracts/22. Data Locations.sol\":624:645  myStructs[msg.sender] */\n      0xffffffffffffffffffffffffffffffffffffffff\n      and\n      0xffffffffffffffffffffffffffffffffffffffff\n      and\n      dup2\n      mstore\n      0x20\n      add\n      swap1\n      dup2\n      mstore\n      0x20\n      add\n      0x00\n      keccak256\n        /* \"contracts/22. Data Locations.sol\":597:645  MyStruct memory readOnly = myStructs[msg.sender] */\n      mload(0x40)\n      dup1\n      0x40\n      add\n      0x40\n      mstore\n      swap1\n      dup2\n      0x00\n      dup3\n      add\n      sload\n      dup2\n      mstore\n      0x20\n      add\n      0x01\n      dup3\n      add\n      dup1\n      sload\n      tag_50\n      swap1\n      tag_28\n      jump\t// in\n    tag_50:\n      dup1\n      0x1f\n      add\n      0x20\n      dup1\n      swap2\n      div\n      mul\n      0x20\n      add\n      mload(0x40)\n      swap1\n      dup2\n      add\n      0x40\n      mstore\n      dup1\n      swap3\n      swap2\n      swap1\n      dup2\n      dup2\n      mstore\n      0x20\n      add\n      dup3\n      dup1\n      sload\n      tag_51\n      swap1\n      tag_28\n      jump\t// in\n    tag_51:\n      dup1\n      iszero\n      tag_52\n      jumpi\n      dup1\n      0x1f\n      lt\n      tag_53\n      jumpi\n      0x0100\n      dup1\n      dup4\n      sload\n      div\n      mul\n      dup4\n      mstore\n      swap2\n      0x20\n      add\n      swap2\n      jump(tag_52)\n    tag_53:\n      dup3\n      add\n      swap2\n      swap1\n      0x00\n      mstore\n      keccak256(0x00, 0x20)\n      swap1\n    tag_54:\n      dup2\n      sload\n      dup2\n      mstore\n      swap1\n      0x01\n      add\n      swap1\n      0x20\n      add\n      dup1\n      dup4\n      gt\n      tag_54\n      jumpi\n      dup3\n      swap1\n      sub\n      0x1f\n      and\n      dup3\n      add\n      swap2\n    tag_52:\n      pop\n      pop\n      pop\n      pop\n      pop\n      dup2\n      mstore\n      pop\n      pop\n      swap1\n      pop\n        /* \"contracts/22. Data Locations.sol\":670:673  333 */\n      0x014d\n        /* \"contracts/22. Data Locations.sol\":655:663  readOnly */\n      dup2\n        /* \"contracts/22. Data Locations.sol\":655:667  readOnly.foo */\n      0x00\n      add\n        /* \"contracts/22. Data Locations.sol\":655:673  readOnly.foo = 333 */\n      dup2\n      dup2\n      mstore\n      pop\n      pop\n        /* \"contracts/22. Data Locations.sol\":741:761  uint[] memory memArr */\n      0x00\n        /* \"contracts/22. Data Locations.sol\":775:776  3 */\n      0x03\n        /* \"contracts/22. Data Locations.sol\":764:777  new uint[](3) */\n      0xffffffffffffffff\n      dup2\n      gt\n      iszero\n      tag_55\n      jumpi\n      tag_56\n      tag_37\n      jump\t// in\n    tag_56:\n    tag_55:\n      mload(0x40)\n      swap1\n      dup1\n      dup3\n      mstore\n      dup1\n      0x20\n      mul\n      0x20\n      add\n      dup3\n      add\n      0x40\n      mstore\n      dup1\n      iszero\n      tag_57\n      jumpi\n      dup2\n      0x20\n      add\n      0x20\n      dup3\n      mul\n      dup1\n      calldatasize\n      dup4\n      calldatacopy\n      dup1\n      dup3\n      add\n      swap2\n      pop\n      pop\n      swap1\n      pop\n    tag_57:\n      pop\n        /* \"contracts/22. Data Locations.sol\":741:777  uint[] memory memArr = new uint[](3) */\n      swap1\n      pop\n        /* \"contracts/22. Data Locations.sol\":799:802  234 */\n      0xea\n        /* \"contracts/22. Data Locations.sol\":787:793  memArr */\n      dup2\n        /* \"contracts/22. Data Locations.sol\":794:795  0 */\n      0x00\n        /* \"contracts/22. Data Locations.sol\":787:796  memArr[0] */\n      dup2\n      mload\n      dup2\n      lt\n      tag_58\n      jumpi\n      tag_59\n      tag_41\n      jump\t// in\n    tag_59:\n    tag_58:\n      0x20\n      mul\n      0x20\n      add\n      add\n        /* \"contracts/22. Data Locations.sol\":787:802  memArr[0] = 234 */\n      dup2\n      dup2\n      mstore\n      pop\n      pop\n        /* \"contracts/22. Data Locations.sol\":819:825  memArr */\n      dup1\n        /* \"contracts/22. Data Locations.sol\":812:825  return memArr */\n      swap4\n      pop\n      pop\n      pop\n      pop\n        /* \"contracts/22. Data Locations.sol\":344:832  function examples(uint[] memory y, string memory s) external returns (uint[] memory) {... */\n      swap3\n      swap2\n      pop\n      pop\n      jump\t// out\n        /* \"contracts/22. Data Locations.sol\":1364:1440  function _internal(uint[] calldata y) private {... */\n    tag_34:\n        /* \"contracts/22. Data Locations.sol\":1420:1426  uint x */\n      0x00\n        /* \"contracts/22. Data Locations.sol\":1429:1430  y */\n      dup3\n      dup3\n        /* \"contracts/22. Data Locations.sol\":1431:1432  0 */\n      0x00\n        /* \"contracts/22. Data Locations.sol\":1429:1433  y[0] */\n      dup2\n      dup2\n      lt\n      tag_61\n      jumpi\n      tag_62\n      tag_41\n      jump\t// in\n    tag_62:\n    tag_61:\n      swap1\n      pop\n      0x20\n      mul\n      add\n      calldataload\n        /* \"contracts/22. Data Locations.sol\":1420:1433  uint x = y[0] */\n      swap1\n      pop\n        /* \"contracts/22. Data Locations.sol\":1410:1440  {... */\n      pop\n        /* \"contracts/22. Data Locations.sol\":1364:1440  function _internal(uint[] calldata y) private {... */\n      pop\n      pop\n      jump\t// out\n        /* \"#utility.yul\":7:82   */\n    tag_63:\n        /* \"#utility.yul\":40:46   */\n      0x00\n        /* \"#utility.yul\":73:75   */\n      0x40\n        /* \"#utility.yul\":67:76   */\n      mload\n        /* \"#utility.yul\":57:76   */\n      swap1\n      pop\n        /* \"#utility.yul\":7:82   */\n      swap1\n      jump\t// out\n        /* \"#utility.yul\":88:205   */\n    tag_64:\n        /* \"#utility.yul\":197:198   */\n      0x00\n        /* \"#utility.yul\":194:195   */\n      dup1\n        /* \"#utility.yul\":187:199   */\n      revert\n        /* \"#utility.yul\":211:328   */\n    tag_65:\n        /* \"#utility.yul\":320:321   */\n      0x00\n        /* \"#utility.yul\":317:318   */\n      dup1\n        /* \"#utility.yul\":310:322   */\n      revert\n        /* \"#utility.yul\":334:451   */\n    tag_66:\n        /* \"#utility.yul\":443:444   */\n      0x00\n        /* \"#utility.yul\":440:441   */\n      dup1\n        /* \"#utility.yul\":433:445   */\n      revert\n        /* \"#utility.yul\":457:574   */\n    tag_67:\n        /* \"#utility.yul\":566:567   */\n      0x00\n        /* \"#utility.yul\":563:564   */\n      dup1\n        /* \"#utility.yul\":556:568   */\n      revert\n        /* \"#utility.yul\":580:697   */\n    tag_68:\n        /* \"#utility.yul\":689:690   */\n      0x00\n        /* \"#utility.yul\":686:687   */\n      dup1\n        /* \"#utility.yul\":679:691   */\n      revert\n        /* \"#utility.yul\":720:1288   */\n    tag_69:\n        /* \"#utility.yul\":793:801   */\n      0x00\n        /* \"#utility.yul\":803:809   */\n      dup1\n        /* \"#utility.yul\":853:856   */\n      dup4\n        /* \"#utility.yul\":846:850   */\n      0x1f\n        /* \"#utility.yul\":838:844   */\n      dup5\n        /* \"#utility.yul\":834:851   */\n      add\n        /* \"#utility.yul\":830:857   */\n      slt\n        /* \"#utility.yul\":820:942   */\n      tag_125\n      jumpi\n        /* \"#utility.yul\":861:940   */\n      tag_126\n      tag_66\n      jump\t// in\n    tag_126:\n        /* \"#utility.yul\":820:942   */\n    tag_125:\n        /* \"#utility.yul\":974:980   */\n      dup3\n        /* \"#utility.yul\":961:981   */\n      calldataload\n        /* \"#utility.yul\":951:981   */\n      swap1\n      pop\n        /* \"#utility.yul\":1004:1022   */\n      0xffffffffffffffff\n        /* \"#utility.yul\":996:1002   */\n      dup2\n        /* \"#utility.yul\":993:1023   */\n      gt\n        /* \"#utility.yul\":990:1107   */\n      iszero\n      tag_127\n      jumpi\n        /* \"#utility.yul\":1026:1105   */\n      tag_128\n      tag_67\n      jump\t// in\n    tag_128:\n        /* \"#utility.yul\":990:1107   */\n    tag_127:\n        /* \"#utility.yul\":1140:1144   */\n      0x20\n        /* \"#utility.yul\":1132:1138   */\n      dup4\n        /* \"#utility.yul\":1128:1145   */\n      add\n        /* \"#utility.yul\":1116:1145   */\n      swap2\n      pop\n        /* \"#utility.yul\":1194:1197   */\n      dup4\n        /* \"#utility.yul\":1186:1190   */\n      0x20\n        /* \"#utility.yul\":1178:1184   */\n      dup3\n        /* \"#utility.yul\":1174:1191   */\n      mul\n        /* \"#utility.yul\":1164:1172   */\n      dup4\n        /* \"#utility.yul\":1160:1192   */\n      add\n        /* \"#utility.yul\":1157:1198   */\n      gt\n        /* \"#utility.yul\":1154:1282   */\n      iszero\n      tag_129\n      jumpi\n        /* \"#utility.yul\":1201:1280   */\n      tag_130\n      tag_68\n      jump\t// in\n    tag_130:\n        /* \"#utility.yul\":1154:1282   */\n    tag_129:\n        /* \"#utility.yul\":720:1288   */\n      swap3\n      pop\n      swap3\n      swap1\n      pop\n      jump\t// out\n        /* \"#utility.yul\":1308:1861   */\n    tag_70:\n        /* \"#utility.yul\":1366:1374   */\n      0x00\n        /* \"#utility.yul\":1376:1382   */\n      dup1\n        /* \"#utility.yul\":1426:1429   */\n      dup4\n        /* \"#utility.yul\":1419:1423   */\n      0x1f\n        /* \"#utility.yul\":1411:1417   */\n      dup5\n        /* \"#utility.yul\":1407:1424   */\n      add\n        /* \"#utility.yul\":1403:1430   */\n      slt\n        /* \"#utility.yul\":1393:1515   */\n      tag_132\n      jumpi\n        /* \"#utility.yul\":1434:1513   */\n      tag_133\n      tag_66\n      jump\t// in\n    tag_133:\n        /* \"#utility.yul\":1393:1515   */\n    tag_132:\n        /* \"#utility.yul\":1547:1553   */\n      dup3\n        /* \"#utility.yul\":1534:1554   */\n      calldataload\n        /* \"#utility.yul\":1524:1554   */\n      swap1\n      pop\n        /* \"#utility.yul\":1577:1595   */\n      0xffffffffffffffff\n        /* \"#utility.yul\":1569:1575   */\n      dup2\n        /* \"#utility.yul\":1566:1596   */\n      gt\n        /* \"#utility.yul\":1563:1680   */\n      iszero\n      tag_134\n      jumpi\n        /* \"#utility.yul\":1599:1678   */\n      tag_135\n      tag_67\n      jump\t// in\n    tag_135:\n        /* \"#utility.yul\":1563:1680   */\n    tag_134:\n        /* \"#utility.yul\":1713:1717   */\n      0x20\n        /* \"#utility.yul\":1705:1711   */\n      dup4\n        /* \"#utility.yul\":1701:1718   */\n      add\n        /* \"#utility.yul\":1689:1718   */\n      swap2\n      pop\n        /* \"#utility.yul\":1767:1770   */\n      dup4\n        /* \"#utility.yul\":1759:1763   */\n      0x01\n        /* \"#utility.yul\":1751:1757   */\n      dup3\n        /* \"#utility.yul\":1747:1764   */\n      mul\n        /* \"#utility.yul\":1737:1745   */\n      dup4\n        /* \"#utility.yul\":1733:1765   */\n      add\n        /* \"#utility.yul\":1730:1771   */\n      gt\n        /* \"#utility.yul\":1727:1855   */\n      iszero\n      tag_136\n      jumpi\n        /* \"#utility.yul\":1774:1853   */\n      tag_137\n      tag_68\n      jump\t// in\n    tag_137:\n        /* \"#utility.yul\":1727:1855   */\n    tag_136:\n        /* \"#utility.yul\":1308:1861   */\n      swap3\n      pop\n      swap3\n      swap1\n      pop\n      jump\t// out\n        /* \"#utility.yul\":1867:2771   */\n    tag_8:\n        /* \"#utility.yul\":1974:1980   */\n      0x00\n        /* \"#utility.yul\":1982:1988   */\n      dup1\n        /* \"#utility.yul\":1990:1996   */\n      0x00\n        /* \"#utility.yul\":1998:2004   */\n      dup1\n        /* \"#utility.yul\":2047:2049   */\n      0x40\n        /* \"#utility.yul\":2035:2044   */\n      dup6\n        /* \"#utility.yul\":2026:2033   */\n      dup8\n        /* \"#utility.yul\":2022:2045   */\n      sub\n        /* \"#utility.yul\":2018:2050   */\n      slt\n        /* \"#utility.yul\":2015:2134   */\n      iszero\n      tag_139\n      jumpi\n        /* \"#utility.yul\":2053:2132   */\n      tag_140\n      tag_64\n      jump\t// in\n    tag_140:\n        /* \"#utility.yul\":2015:2134   */\n    tag_139:\n        /* \"#utility.yul\":2201:2202   */\n      0x00\n        /* \"#utility.yul\":2190:2199   */\n      dup6\n        /* \"#utility.yul\":2186:2203   */\n      add\n        /* \"#utility.yul\":2173:2204   */\n      calldataload\n        /* \"#utility.yul\":2231:2249   */\n      0xffffffffffffffff\n        /* \"#utility.yul\":2223:2229   */\n      dup2\n        /* \"#utility.yul\":2220:2250   */\n      gt\n        /* \"#utility.yul\":2217:2334   */\n      iszero\n      tag_141\n      jumpi\n        /* \"#utility.yul\":2253:2332   */\n      tag_142\n      tag_65\n      jump\t// in\n    tag_142:\n        /* \"#utility.yul\":2217:2334   */\n    tag_141:\n        /* \"#utility.yul\":2366:2446   */\n      tag_143\n        /* \"#utility.yul\":2438:2445   */\n      dup8\n        /* \"#utility.yul\":2429:2435   */\n      dup3\n        /* \"#utility.yul\":2418:2427   */\n      dup9\n        /* \"#utility.yul\":2414:2436   */\n      add\n        /* \"#utility.yul\":2366:2446   */\n      tag_69\n      jump\t// in\n    tag_143:\n        /* \"#utility.yul\":2348:2446   */\n      swap5\n      pop\n      swap5\n      pop\n        /* \"#utility.yul\":2144:2456   */\n      pop\n        /* \"#utility.yul\":2523:2525   */\n      0x20\n        /* \"#utility.yul\":2512:2521   */\n      dup6\n        /* \"#utility.yul\":2508:2526   */\n      add\n        /* \"#utility.yul\":2495:2527   */\n      calldataload\n        /* \"#utility.yul\":2554:2572   */\n      0xffffffffffffffff\n        /* \"#utility.yul\":2546:2552   */\n      dup2\n        /* \"#utility.yul\":2543:2573   */\n      gt\n        /* \"#utility.yul\":2540:2657   */\n      iszero\n      tag_144\n      jumpi\n        /* \"#utility.yul\":2576:2655   */\n      tag_145\n      tag_65\n      jump\t// in\n    tag_145:\n        /* \"#utility.yul\":2540:2657   */\n    tag_144:\n        /* \"#utility.yul\":2689:2754   */\n      tag_146\n        /* \"#utility.yul\":2746:2753   */\n      dup8\n        /* \"#utility.yul\":2737:2743   */\n      dup3\n        /* \"#utility.yul\":2726:2735   */\n      dup9\n        /* \"#utility.yul\":2722:2744   */\n      add\n        /* \"#utility.yul\":2689:2754   */\n      tag_70\n      jump\t// in\n    tag_146:\n        /* \"#utility.yul\":2671:2754   */\n      swap3\n      pop\n      swap3\n      pop\n        /* \"#utility.yul\":2466:2764   */\n      pop\n        /* \"#utility.yul\":1867:2771   */\n      swap3\n      swap6\n      swap2\n      swap5\n      pop\n      swap3\n      pop\n      jump\t// out\n        /* \"#utility.yul\":2777:2891   */\n    tag_71:\n        /* \"#utility.yul\":2844:2850   */\n      0x00\n        /* \"#utility.yul\":2878:2883   */\n      dup2\n        /* \"#utility.yul\":2872:2884   */\n      mload\n        /* \"#utility.yul\":2862:2884   */\n      swap1\n      pop\n        /* \"#utility.yul\":2777:2891   */\n      swap2\n      swap1\n      pop\n      jump\t// out\n        /* \"#utility.yul\":2897:3081   */\n    tag_72:\n        /* \"#utility.yul\":2996:3007   */\n      0x00\n        /* \"#utility.yul\":3030:3036   */\n      dup3\n        /* \"#utility.yul\":3025:3028   */\n      dup3\n        /* \"#utility.yul\":3018:3037   */\n      mstore\n        /* \"#utility.yul\":3070:3074   */\n      0x20\n        /* \"#utility.yul\":3065:3068   */\n      dup3\n        /* \"#utility.yul\":3061:3075   */\n      add\n        /* \"#utility.yul\":3046:3075   */\n      swap1\n      pop\n        /* \"#utility.yul\":2897:3081   */\n      swap3\n      swap2\n      pop\n      pop\n      jump\t// out\n        /* \"#utility.yul\":3087:3219   */\n    tag_73:\n        /* \"#utility.yul\":3154:3158   */\n      0x00\n        /* \"#utility.yul\":3177:3180   */\n      dup2\n        /* \"#utility.yul\":3169:3180   */\n      swap1\n      pop\n        /* \"#utility.yul\":3207:3211   */\n      0x20\n        /* \"#utility.yul\":3202:3205   */\n      dup3\n        /* \"#utility.yul\":3198:3212   */\n      add\n        /* \"#utility.yul\":3190:3212   */\n      swap1\n      pop\n        /* \"#utility.yul\":3087:3219   */\n      swap2\n      swap1\n      pop\n      jump\t// out\n        /* \"#utility.yul\":3225:3302   */\n    tag_74:\n        /* \"#utility.yul\":3262:3269   */\n      0x00\n        /* \"#utility.yul\":3291:3296   */\n      dup2\n        /* \"#utility.yul\":3280:3296   */\n      swap1\n      pop\n        /* \"#utility.yul\":3225:3302   */\n      swap2\n      swap1\n      pop\n      jump\t// out\n        /* \"#utility.yul\":3308:3416   */\n    tag_75:\n        /* \"#utility.yul\":3385:3409   */\n      tag_152\n        /* \"#utility.yul\":3403:3408   */\n      dup2\n        /* \"#utility.yul\":3385:3409   */\n      tag_74\n      jump\t// in\n    tag_152:\n        /* \"#utility.yul\":3380:3383   */\n      dup3\n        /* \"#utility.yul\":3373:3410   */\n      mstore\n        /* \"#utility.yul\":3308:3416   */\n      pop\n      pop\n      jump\t// out\n        /* \"#utility.yul\":3422:3601   */\n    tag_76:\n        /* \"#utility.yul\":3491:3501   */\n      0x00\n        /* \"#utility.yul\":3512:3558   */\n      tag_154\n        /* \"#utility.yul\":3554:3557   */\n      dup4\n        /* \"#utility.yul\":3546:3552   */\n      dup4\n        /* \"#utility.yul\":3512:3558   */\n      tag_75\n      jump\t// in\n    tag_154:\n        /* \"#utility.yul\":3590:3594   */\n      0x20\n        /* \"#utility.yul\":3585:3588   */\n      dup4\n        /* \"#utility.yul\":3581:3595   */\n      add\n        /* \"#utility.yul\":3567:3595   */\n      swap1\n      pop\n        /* \"#utility.yul\":3422:3601   */\n      swap3\n      swap2\n      pop\n      pop\n      jump\t// out\n        /* \"#utility.yul\":3607:3720   */\n    tag_77:\n        /* \"#utility.yul\":3677:3681   */\n      0x00\n        /* \"#utility.yul\":3709:3713   */\n      0x20\n        /* \"#utility.yul\":3704:3707   */\n      dup3\n        /* \"#utility.yul\":3700:3714   */\n      add\n        /* \"#utility.yul\":3692:3714   */\n      swap1\n      pop\n        /* \"#utility.yul\":3607:3720   */\n      swap2\n      swap1\n      pop\n      jump\t// out\n        /* \"#utility.yul\":3756:4488   */\n    tag_78:\n        /* \"#utility.yul\":3875:3878   */\n      0x00\n        /* \"#utility.yul\":3904:3958   */\n      tag_157\n        /* \"#utility.yul\":3952:3957   */\n      dup3\n        /* \"#utility.yul\":3904:3958   */\n      tag_71\n      jump\t// in\n    tag_157:\n        /* \"#utility.yul\":3974:4060   */\n      tag_158\n        /* \"#utility.yul\":4053:4059   */\n      dup2\n        /* \"#utility.yul\":4048:4051   */\n      dup6\n        /* \"#utility.yul\":3974:4060   */\n      tag_72\n      jump\t// in\n    tag_158:\n        /* \"#utility.yul\":3967:4060   */\n      swap4\n      pop\n        /* \"#utility.yul\":4084:4140   */\n      tag_159\n        /* \"#utility.yul\":4134:4139   */\n      dup4\n        /* \"#utility.yul\":4084:4140   */\n      tag_73\n      jump\t// in\n    tag_159:\n        /* \"#utility.yul\":4163:4170   */\n      dup1\n        /* \"#utility.yul\":4194:4195   */\n      0x00\n        /* \"#utility.yul\":4179:4463   */\n    tag_160:\n        /* \"#utility.yul\":4204:4210   */\n      dup4\n        /* \"#utility.yul\":4201:4202   */\n      dup2\n        /* \"#utility.yul\":4198:4211   */\n      lt\n        /* \"#utility.yul\":4179:4463   */\n      iszero\n      tag_162\n      jumpi\n        /* \"#utility.yul\":4280:4286   */\n      dup2\n        /* \"#utility.yul\":4274:4287   */\n      mload\n        /* \"#utility.yul\":4307:4370   */\n      tag_163\n        /* \"#utility.yul\":4366:4369   */\n      dup9\n        /* \"#utility.yul\":4351:4364   */\n      dup3\n        /* \"#utility.yul\":4307:4370   */\n      tag_76\n      jump\t// in\n    tag_163:\n        /* \"#utility.yul\":4300:4370   */\n      swap8\n      pop\n        /* \"#utility.yul\":4393:4453   */\n      tag_164\n        /* \"#utility.yul\":4446:4452   */\n      dup4\n        /* \"#utility.yul\":4393:4453   */\n      tag_77\n      jump\t// in\n    tag_164:\n        /* \"#utility.yul\":4383:4453   */\n      swap3\n      pop\n        /* \"#utility.yul\":4239:4463   */\n      pop\n        /* \"#utility.yul\":4226:4227   */\n      0x01\n        /* \"#utility.yul\":4223:4224   */\n      dup2\n        /* \"#utility.yul\":4219:4228   */\n      add\n        /* \"#utility.yul\":4214:4228   */\n      swap1\n      pop\n        /* \"#utility.yul\":4179:4463   */\n      jump(tag_160)\n    tag_162:\n        /* \"#utility.yul\":4183:4197   */\n      pop\n        /* \"#utility.yul\":4479:4482   */\n      dup6\n        /* \"#utility.yul\":4472:4482   */\n      swap4\n      pop\n        /* \"#utility.yul\":3880:4488   */\n      pop\n      pop\n      pop\n        /* \"#utility.yul\":3756:4488   */\n      swap3\n      swap2\n      pop\n      pop\n      jump\t// out\n        /* \"#utility.yul\":4494:4867   */\n    tag_11:\n        /* \"#utility.yul\":4637:4641   */\n      0x00\n        /* \"#utility.yul\":4675:4677   */\n      0x20\n        /* \"#utility.yul\":4664:4673   */\n      dup3\n        /* \"#utility.yul\":4660:4678   */\n      add\n        /* \"#utility.yul\":4652:4678   */\n      swap1\n      pop\n        /* \"#utility.yul\":4724:4733   */\n      dup2\n        /* \"#utility.yul\":4718:4722   */\n      dup2\n        /* \"#utility.yul\":4714:4734   */\n      sub\n        /* \"#utility.yul\":4710:4711   */\n      0x00\n        /* \"#utility.yul\":4699:4708   */\n      dup4\n        /* \"#utility.yul\":4695:4712   */\n      add\n        /* \"#utility.yul\":4688:4735   */\n      mstore\n        /* \"#utility.yul\":4752:4860   */\n      tag_166\n        /* \"#utility.yul\":4855:4859   */\n      dup2\n        /* \"#utility.yul\":4846:4852   */\n      dup5\n        /* \"#utility.yul\":4752:4860   */\n      tag_78\n      jump\t// in\n    tag_166:\n        /* \"#utility.yul\":4744:4860   */\n      swap1\n      pop\n        /* \"#utility.yul\":4494:4867   */\n      swap3\n      swap2\n      pop\n      pop\n      jump\t// out\n        /* \"#utility.yul\":4873:4999   */\n    tag_79:\n        /* \"#utility.yul\":4910:4917   */\n      0x00\n        /* \"#utility.yul\":4950:4992   */\n      0xffffffffffffffffffffffffffffffffffffffff\n        /* \"#utility.yul\":4943:4948   */\n      dup3\n        /* \"#utility.yul\":4939:4993   */\n      and\n        /* \"#utility.yul\":4928:4993   */\n      swap1\n      pop\n        /* \"#utility.yul\":4873:4999   */\n      swap2\n      swap1\n      pop\n      jump\t// out\n        /* \"#utility.yul\":5005:5101   */\n    tag_80:\n        /* \"#utility.yul\":5042:5049   */\n      0x00\n        /* \"#utility.yul\":5071:5095   */\n      tag_169\n        /* \"#utility.yul\":5089:5094   */\n      dup3\n        /* \"#utility.yul\":5071:5095   */\n      tag_79\n      jump\t// in\n    tag_169:\n        /* \"#utility.yul\":5060:5095   */\n      swap1\n      pop\n        /* \"#utility.yul\":5005:5101   */\n      swap2\n      swap1\n      pop\n      jump\t// out\n        /* \"#utility.yul\":5107:5229   */\n    tag_81:\n        /* \"#utility.yul\":5180:5204   */\n      tag_171\n        /* \"#utility.yul\":5198:5203   */\n      dup2\n        /* \"#utility.yul\":5180:5204   */\n      tag_80\n      jump\t// in\n    tag_171:\n        /* \"#utility.yul\":5173:5178   */\n      dup2\n        /* \"#utility.yul\":5170:5205   */\n      eq\n        /* \"#utility.yul\":5160:5223   */\n      tag_172\n      jumpi\n        /* \"#utility.yul\":5219:5220   */\n      0x00\n        /* \"#utility.yul\":5216:5217   */\n      dup1\n        /* \"#utility.yul\":5209:5221   */\n      revert\n        /* \"#utility.yul\":5160:5223   */\n    tag_172:\n        /* \"#utility.yul\":5107:5229   */\n      pop\n      jump\t// out\n        /* \"#utility.yul\":5235:5374   */\n    tag_82:\n        /* \"#utility.yul\":5281:5286   */\n      0x00\n        /* \"#utility.yul\":5319:5325   */\n      dup2\n        /* \"#utility.yul\":5306:5326   */\n      calldataload\n        /* \"#utility.yul\":5297:5326   */\n      swap1\n      pop\n        /* \"#utility.yul\":5335:5368   */\n      tag_174\n        /* \"#utility.yul\":5362:5367   */\n      dup2\n        /* \"#utility.yul\":5335:5368   */\n      tag_81\n      jump\t// in\n    tag_174:\n        /* \"#utility.yul\":5235:5374   */\n      swap3\n      swap2\n      pop\n      pop\n      jump\t// out\n        /* \"#utility.yul\":5380:5709   */\n    tag_14:\n        /* \"#utility.yul\":5439:5445   */\n      0x00\n        /* \"#utility.yul\":5488:5490   */\n      0x20\n        /* \"#utility.yul\":5476:5485   */\n      dup3\n        /* \"#utility.yul\":5467:5474   */\n      dup5\n        /* \"#utility.yul\":5463:5486   */\n      sub\n        /* \"#utility.yul\":5459:5491   */\n      slt\n        /* \"#utility.yul\":5456:5575   */\n      iszero\n      tag_176\n      jumpi\n        /* \"#utility.yul\":5494:5573   */\n      tag_177\n      tag_64\n      jump\t// in\n    tag_177:\n        /* \"#utility.yul\":5456:5575   */\n    tag_176:\n        /* \"#utility.yul\":5614:5615   */\n      0x00\n        /* \"#utility.yul\":5639:5692   */\n      tag_178\n        /* \"#utility.yul\":5684:5691   */\n      dup5\n        /* \"#utility.yul\":5675:5681   */\n      dup3\n        /* \"#utility.yul\":5664:5673   */\n      dup6\n        /* \"#utility.yul\":5660:5682   */\n      add\n        /* \"#utility.yul\":5639:5692   */\n      tag_82\n      jump\t// in\n    tag_178:\n        /* \"#utility.yul\":5629:5692   */\n      swap2\n      pop\n        /* \"#utility.yul\":5585:5702   */\n      pop\n        /* \"#utility.yul\":5380:5709   */\n      swap3\n      swap2\n      pop\n      pop\n      jump\t// out\n        /* \"#utility.yul\":5715:5833   */\n    tag_83:\n        /* \"#utility.yul\":5802:5826   */\n      tag_180\n        /* \"#utility.yul\":5820:5825   */\n      dup2\n        /* \"#utility.yul\":5802:5826   */\n      tag_74\n      jump\t// in\n    tag_180:\n        /* \"#utility.yul\":5797:5800   */\n      dup3\n        /* \"#utility.yul\":5790:5827   */\n      mstore\n        /* \"#utility.yul\":5715:5833   */\n      pop\n      pop\n      jump\t// out\n        /* \"#utility.yul\":5839:5938   */\n    tag_84:\n        /* \"#utility.yul\":5891:5897   */\n      0x00\n        /* \"#utility.yul\":5925:5930   */\n      dup2\n        /* \"#utility.yul\":5919:5931   */\n      mload\n        /* \"#utility.yul\":5909:5931   */\n      swap1\n      pop\n        /* \"#utility.yul\":5839:5938   */\n      swap2\n      swap1\n      pop\n      jump\t// out\n        /* \"#utility.yul\":5944:6113   */\n    tag_85:\n        /* \"#utility.yul\":6028:6039   */\n      0x00\n        /* \"#utility.yul\":6062:6068   */\n      dup3\n        /* \"#utility.yul\":6057:6060   */\n      dup3\n        /* \"#utility.yul\":6050:6069   */\n      mstore\n        /* \"#utility.yul\":6102:6106   */\n      0x20\n        /* \"#utility.yul\":6097:6100   */\n      dup3\n        /* \"#utility.yul\":6093:6107   */\n      add\n        /* \"#utility.yul\":6078:6107   */\n      swap1\n      pop\n        /* \"#utility.yul\":5944:6113   */\n      swap3\n      swap2\n      pop\n      pop\n      jump\t// out\n        /* \"#utility.yul\":6119:6365   */\n    tag_86:\n        /* \"#utility.yul\":6200:6201   */\n      0x00\n        /* \"#utility.yul\":6210:6323   */\n    tag_184:\n        /* \"#utility.yul\":6224:6230   */\n      dup4\n        /* \"#utility.yul\":6221:6222   */\n      dup2\n        /* \"#utility.yul\":6218:6231   */\n      lt\n        /* \"#utility.yul\":6210:6323   */\n      iszero\n      tag_186\n      jumpi\n        /* \"#utility.yul\":6309:6310   */\n      dup1\n        /* \"#utility.yul\":6304:6307   */\n      dup3\n        /* \"#utility.yul\":6300:6311   */\n      add\n        /* \"#utility.yul\":6294:6312   */\n      mload\n        /* \"#utility.yul\":6290:6291   */\n      dup2\n        /* \"#utility.yul\":6285:6288   */\n      dup5\n        /* \"#utility.yul\":6281:6292   */\n      add\n        /* \"#utility.yul\":6274:6313   */\n      mstore\n        /* \"#utility.yul\":6246:6248   */\n      0x20\n        /* \"#utility.yul\":6243:6244   */\n      dup2\n        /* \"#utility.yul\":6239:6249   */\n      add\n        /* \"#utility.yul\":6234:6249   */\n      swap1\n      pop\n        /* \"#utility.yul\":6210:6323   */\n      jump(tag_184)\n    tag_186:\n        /* \"#utility.yul\":6357:6358   */\n      0x00\n        /* \"#utility.yul\":6348:6354   */\n      dup5\n        /* \"#utility.yul\":6343:6346   */\n      dup5\n        /* \"#utility.yul\":6339:6355   */\n      add\n        /* \"#utility.yul\":6332:6359   */\n      mstore\n        /* \"#utility.yul\":6181:6365   */\n      pop\n        /* \"#utility.yul\":6119:6365   */\n      pop\n      pop\n      pop\n      jump\t// out\n        /* \"#utility.yul\":6371:6473   */\n    tag_87:\n        /* \"#utility.yul\":6412:6418   */\n      0x00\n        /* \"#utility.yul\":6463:6465   */\n      0x1f\n        /* \"#utility.yul\":6459:6466   */\n      not\n        /* \"#utility.yul\":6454:6456   */\n      0x1f\n        /* \"#utility.yul\":6447:6452   */\n      dup4\n        /* \"#utility.yul\":6443:6457   */\n      add\n        /* \"#utility.yul\":6439:6467   */\n      and\n        /* \"#utility.yul\":6429:6467   */\n      swap1\n      pop\n        /* \"#utility.yul\":6371:6473   */\n      swap2\n      swap1\n      pop\n      jump\t// out\n        /* \"#utility.yul\":6479:6856   */\n    tag_88:\n        /* \"#utility.yul\":6567:6570   */\n      0x00\n        /* \"#utility.yul\":6595:6634   */\n      tag_189\n        /* \"#utility.yul\":6628:6633   */\n      dup3\n        /* \"#utility.yul\":6595:6634   */\n      tag_84\n      jump\t// in\n    tag_189:\n        /* \"#utility.yul\":6650:6721   */\n      tag_190\n        /* \"#utility.yul\":6714:6720   */\n      dup2\n        /* \"#utility.yul\":6709:6712   */\n      dup6\n        /* \"#utility.yul\":6650:6721   */\n      tag_85\n      jump\t// in\n    tag_190:\n        /* \"#utility.yul\":6643:6721   */\n      swap4\n      pop\n        /* \"#utility.yul\":6730:6795   */\n      tag_191\n        /* \"#utility.yul\":6788:6794   */\n      dup2\n        /* \"#utility.yul\":6783:6786   */\n      dup6\n        /* \"#utility.yul\":6776:6780   */\n      0x20\n        /* \"#utility.yul\":6769:6774   */\n      dup7\n        /* \"#utility.yul\":6765:6781   */\n      add\n        /* \"#utility.yul\":6730:6795   */\n      tag_86\n      jump\t// in\n    tag_191:\n        /* \"#utility.yul\":6820:6849   */\n      tag_192\n        /* \"#utility.yul\":6842:6848   */\n      dup2\n        /* \"#utility.yul\":6820:6849   */\n      tag_87\n      jump\t// in\n    tag_192:\n        /* \"#utility.yul\":6815:6818   */\n      dup5\n        /* \"#utility.yul\":6811:6850   */\n      add\n        /* \"#utility.yul\":6804:6850   */\n      swap2\n      pop\n        /* \"#utility.yul\":6571:6856   */\n      pop\n        /* \"#utility.yul\":6479:6856   */\n      swap3\n      swap2\n      pop\n      pop\n      jump\t// out\n        /* \"#utility.yul\":6862:7285   */\n    tag_17:\n        /* \"#utility.yul\":7003:7007   */\n      0x00\n        /* \"#utility.yul\":7041:7043   */\n      0x40\n        /* \"#utility.yul\":7030:7039   */\n      dup3\n        /* \"#utility.yul\":7026:7044   */\n      add\n        /* \"#utility.yul\":7018:7044   */\n      swap1\n      pop\n        /* \"#utility.yul\":7054:7125   */\n      tag_194\n        /* \"#utility.yul\":7122:7123   */\n      0x00\n        /* \"#utility.yul\":7111:7120   */\n      dup4\n        /* \"#utility.yul\":7107:7124   */\n      add\n        /* \"#utility.yul\":7098:7104   */\n      dup6\n        /* \"#utility.yul\":7054:7125   */\n      tag_83\n      jump\t// in\n    tag_194:\n        /* \"#utility.yul\":7172:7181   */\n      dup2\n        /* \"#utility.yul\":7166:7170   */\n      dup2\n        /* \"#utility.yul\":7162:7182   */\n      sub\n        /* \"#utility.yul\":7157:7159   */\n      0x20\n        /* \"#utility.yul\":7146:7155   */\n      dup4\n        /* \"#utility.yul\":7142:7160   */\n      add\n        /* \"#utility.yul\":7135:7183   */\n      mstore\n        /* \"#utility.yul\":7200:7278   */\n      tag_195\n        /* \"#utility.yul\":7273:7277   */\n      dup2\n        /* \"#utility.yul\":7264:7270   */\n      dup5\n        /* \"#utility.yul\":7200:7278   */\n      tag_88\n      jump\t// in\n    tag_195:\n        /* \"#utility.yul\":7192:7278   */\n      swap1\n      pop\n        /* \"#utility.yul\":6862:7285   */\n      swap4\n      swap3\n      pop\n      pop\n      pop\n      jump\t// out\n        /* \"#utility.yul\":7291:7471   */\n    tag_37:\n        /* \"#utility.yul\":7339:7416   */\n      0x4e487b7100000000000000000000000000000000000000000000000000000000\n        /* \"#utility.yul\":7336:7337   */\n      0x00\n        /* \"#utility.yul\":7329:7417   */\n      mstore\n        /* \"#utility.yul\":7436:7440   */\n      0x41\n        /* \"#utility.yul\":7433:7434   */\n      0x04\n        /* \"#utility.yul\":7426:7441   */\n      mstore\n        /* \"#utility.yul\":7460:7464   */\n      0x24\n        /* \"#utility.yul\":7457:7458   */\n      0x00\n        /* \"#utility.yul\":7450:7465   */\n      revert\n        /* \"#utility.yul\":7477:7758   */\n    tag_89:\n        /* \"#utility.yul\":7560:7587   */\n      tag_198\n        /* \"#utility.yul\":7582:7586   */\n      dup3\n        /* \"#utility.yul\":7560:7587   */\n      tag_87\n      jump\t// in\n    tag_198:\n        /* \"#utility.yul\":7552:7558   */\n      dup2\n        /* \"#utility.yul\":7548:7588   */\n      add\n        /* \"#utility.yul\":7690:7696   */\n      dup2\n        /* \"#utility.yul\":7678:7688   */\n      dup2\n        /* \"#utility.yul\":7675:7697   */\n      lt\n        /* \"#utility.yul\":7654:7672   */\n      0xffffffffffffffff\n        /* \"#utility.yul\":7642:7652   */\n      dup3\n        /* \"#utility.yul\":7639:7673   */\n      gt\n        /* \"#utility.yul\":7636:7698   */\n      or\n        /* \"#utility.yul\":7633:7721   */\n      iszero\n      tag_199\n      jumpi\n        /* \"#utility.yul\":7701:7719   */\n      tag_200\n      tag_37\n      jump\t// in\n    tag_200:\n        /* \"#utility.yul\":7633:7721   */\n    tag_199:\n        /* \"#utility.yul\":7741:7751   */\n      dup1\n        /* \"#utility.yul\":7737:7739   */\n      0x40\n        /* \"#utility.yul\":7730:7752   */\n      mstore\n        /* \"#utility.yul\":7520:7758   */\n      pop\n        /* \"#utility.yul\":7477:7758   */\n      pop\n      pop\n      jump\t// out\n        /* \"#utility.yul\":7764:7893   */\n    tag_90:\n        /* \"#utility.yul\":7798:7804   */\n      0x00\n        /* \"#utility.yul\":7825:7845   */\n      tag_202\n      tag_63\n      jump\t// in\n    tag_202:\n        /* \"#utility.yul\":7815:7845   */\n      swap1\n      pop\n        /* \"#utility.yul\":7854:7887   */\n      tag_203\n        /* \"#utility.yul\":7882:7886   */\n      dup3\n        /* \"#utility.yul\":7874:7880   */\n      dup3\n        /* \"#utility.yul\":7854:7887   */\n      tag_89\n      jump\t// in\n    tag_203:\n        /* \"#utility.yul\":7764:7893   */\n      swap2\n      swap1\n      pop\n      jump\t// out\n        /* \"#utility.yul\":7899:8210   */\n    tag_91:\n        /* \"#utility.yul\":7976:7980   */\n      0x00\n        /* \"#utility.yul\":8066:8084   */\n      0xffffffffffffffff\n        /* \"#utility.yul\":8058:8064   */\n      dup3\n        /* \"#utility.yul\":8055:8085   */\n      gt\n        /* \"#utility.yul\":8052:8108   */\n      iszero\n      tag_205\n      jumpi\n        /* \"#utility.yul\":8088:8106   */\n      tag_206\n      tag_37\n      jump\t// in\n    tag_206:\n        /* \"#utility.yul\":8052:8108   */\n    tag_205:\n        /* \"#utility.yul\":8138:8142   */\n      0x20\n        /* \"#utility.yul\":8130:8136   */\n      dup3\n        /* \"#utility.yul\":8126:8143   */\n      mul\n        /* \"#utility.yul\":8118:8143   */\n      swap1\n      pop\n        /* \"#utility.yul\":8198:8202   */\n      0x20\n        /* \"#utility.yul\":8192:8196   */\n      dup2\n        /* \"#utility.yul\":8188:8203   */\n      add\n        /* \"#utility.yul\":8180:8203   */\n      swap1\n      pop\n        /* \"#utility.yul\":7899:8210   */\n      swap2\n      swap1\n      pop\n      jump\t// out\n        /* \"#utility.yul\":8216:8338   */\n    tag_92:\n        /* \"#utility.yul\":8289:8313   */\n      tag_208\n        /* \"#utility.yul\":8307:8312   */\n      dup2\n        /* \"#utility.yul\":8289:8313   */\n      tag_74\n      jump\t// in\n    tag_208:\n        /* \"#utility.yul\":8282:8287   */\n      dup2\n        /* \"#utility.yul\":8279:8314   */\n      eq\n        /* \"#utility.yul\":8269:8332   */\n      tag_209\n      jumpi\n        /* \"#utility.yul\":8328:8329   */\n      0x00\n        /* \"#utility.yul\":8325:8326   */\n      dup1\n        /* \"#utility.yul\":8318:8330   */\n      revert\n        /* \"#utility.yul\":8269:8332   */\n    tag_209:\n        /* \"#utility.yul\":8216:8338   */\n      pop\n      jump\t// out\n        /* \"#utility.yul\":8344:8483   */\n    tag_93:\n        /* \"#utility.yul\":8390:8395   */\n      0x00\n        /* \"#utility.yul\":8428:8434   */\n      dup2\n        /* \"#utility.yul\":8415:8435   */\n      calldataload\n        /* \"#utility.yul\":8406:8435   */\n      swap1\n      pop\n        /* \"#utility.yul\":8444:8477   */\n      tag_211\n        /* \"#utility.yul\":8471:8476   */\n      dup2\n        /* \"#utility.yul\":8444:8477   */\n      tag_92\n      jump\t// in\n    tag_211:\n        /* \"#utility.yul\":8344:8483   */\n      swap3\n      swap2\n      pop\n      pop\n      jump\t// out\n        /* \"#utility.yul\":8506:9216   */\n    tag_94:\n        /* \"#utility.yul\":8602:8607   */\n      0x00\n        /* \"#utility.yul\":8627:8708   */\n      tag_213\n        /* \"#utility.yul\":8643:8707   */\n      tag_214\n        /* \"#utility.yul\":8700:8706   */\n      dup5\n        /* \"#utility.yul\":8643:8707   */\n      tag_91\n      jump\t// in\n    tag_214:\n        /* \"#utility.yul\":8627:8708   */\n      tag_90\n      jump\t// in\n    tag_213:\n        /* \"#utility.yul\":8618:8708   */\n      swap1\n      pop\n        /* \"#utility.yul\":8728:8733   */\n      dup1\n        /* \"#utility.yul\":8757:8763   */\n      dup4\n        /* \"#utility.yul\":8750:8755   */\n      dup3\n        /* \"#utility.yul\":8743:8764   */\n      mstore\n        /* \"#utility.yul\":8791:8795   */\n      0x20\n        /* \"#utility.yul\":8784:8789   */\n      dup3\n        /* \"#utility.yul\":8780:8796   */\n      add\n        /* \"#utility.yul\":8773:8796   */\n      swap1\n      pop\n        /* \"#utility.yul\":8844:8848   */\n      0x20\n        /* \"#utility.yul\":8836:8842   */\n      dup5\n        /* \"#utility.yul\":8832:8849   */\n      mul\n        /* \"#utility.yul\":8824:8830   */\n      dup4\n        /* \"#utility.yul\":8820:8850   */\n      add\n        /* \"#utility.yul\":8873:8876   */\n      dup6\n        /* \"#utility.yul\":8865:8871   */\n      dup2\n        /* \"#utility.yul\":8862:8877   */\n      gt\n        /* \"#utility.yul\":8859:8981   */\n      iszero\n      tag_215\n      jumpi\n        /* \"#utility.yul\":8892:8971   */\n      tag_216\n      tag_68\n      jump\t// in\n    tag_216:\n        /* \"#utility.yul\":8859:8981   */\n    tag_215:\n        /* \"#utility.yul\":9007:9013   */\n      dup4\n        /* \"#utility.yul\":8990:9210   */\n    tag_217:\n        /* \"#utility.yul\":9024:9030   */\n      dup2\n        /* \"#utility.yul\":9019:9022   */\n      dup2\n        /* \"#utility.yul\":9016:9031   */\n      lt\n        /* \"#utility.yul\":8990:9210   */\n      iszero\n      tag_219\n      jumpi\n        /* \"#utility.yul\":9099:9102   */\n      dup1\n        /* \"#utility.yul\":9128:9165   */\n      tag_220\n        /* \"#utility.yul\":9161:9164   */\n      dup9\n        /* \"#utility.yul\":9149:9159   */\n      dup3\n        /* \"#utility.yul\":9128:9165   */\n      tag_93\n      jump\t// in\n    tag_220:\n        /* \"#utility.yul\":9123:9126   */\n      dup5\n        /* \"#utility.yul\":9116:9166   */\n      mstore\n        /* \"#utility.yul\":9195:9199   */\n      0x20\n        /* \"#utility.yul\":9190:9193   */\n      dup5\n        /* \"#utility.yul\":9186:9200   */\n      add\n        /* \"#utility.yul\":9179:9200   */\n      swap4\n      pop\n        /* \"#utility.yul\":9066:9210   */\n      pop\n        /* \"#utility.yul\":9050:9054   */\n      0x20\n        /* \"#utility.yul\":9045:9048   */\n      dup2\n        /* \"#utility.yul\":9041:9055   */\n      add\n        /* \"#utility.yul\":9034:9055   */\n      swap1\n      pop\n        /* \"#utility.yul\":8990:9210   */\n      jump(tag_217)\n    tag_219:\n        /* \"#utility.yul\":8994:9015   */\n      pop\n        /* \"#utility.yul\":8608:9216   */\n      pop\n      pop\n        /* \"#utility.yul\":8506:9216   */\n      swap4\n      swap3\n      pop\n      pop\n      pop\n      jump\t// out\n        /* \"#utility.yul\":9239:9609   */\n    tag_95:\n        /* \"#utility.yul\":9310:9315   */\n      0x00\n        /* \"#utility.yul\":9359:9362   */\n      dup3\n        /* \"#utility.yul\":9352:9356   */\n      0x1f\n        /* \"#utility.yul\":9344:9350   */\n      dup4\n        /* \"#utility.yul\":9340:9357   */\n      add\n        /* \"#utility.yul\":9336:9363   */\n      slt\n        /* \"#utility.yul\":9326:9448   */\n      tag_222\n      jumpi\n        /* \"#utility.yul\":9367:9446   */\n      tag_223\n      tag_66\n      jump\t// in\n    tag_223:\n        /* \"#utility.yul\":9326:9448   */\n    tag_222:\n        /* \"#utility.yul\":9484:9490   */\n      dup2\n        /* \"#utility.yul\":9471:9491   */\n      calldataload\n        /* \"#utility.yul\":9509:9603   */\n      tag_224\n        /* \"#utility.yul\":9599:9602   */\n      dup5\n        /* \"#utility.yul\":9591:9597   */\n      dup3\n        /* \"#utility.yul\":9584:9588   */\n      0x20\n        /* \"#utility.yul\":9576:9582   */\n      dup7\n        /* \"#utility.yul\":9572:9589   */\n      add\n        /* \"#utility.yul\":9509:9603   */\n      tag_94\n      jump\t// in\n    tag_224:\n        /* \"#utility.yul\":9500:9603   */\n      swap2\n      pop\n        /* \"#utility.yul\":9316:9609   */\n      pop\n        /* \"#utility.yul\":9239:9609   */\n      swap3\n      swap2\n      pop\n      pop\n      jump\t// out\n        /* \"#utility.yul\":9615:9732   */\n    tag_96:\n        /* \"#utility.yul\":9724:9725   */\n      0x00\n        /* \"#utility.yul\":9721:9722   */\n      dup1\n        /* \"#utility.yul\":9714:9726   */\n      revert\n        /* \"#utility.yul\":9738:10046   */\n    tag_97:\n        /* \"#utility.yul\":9800:9804   */\n      0x00\n        /* \"#utility.yul\":9890:9908   */\n      0xffffffffffffffff\n        /* \"#utility.yul\":9882:9888   */\n      dup3\n        /* \"#utility.yul\":9879:9909   */\n      gt\n        /* \"#utility.yul\":9876:9932   */\n      iszero\n      tag_227\n      jumpi\n        /* \"#utility.yul\":9912:9930   */\n      tag_228\n      tag_37\n      jump\t// in\n    tag_228:\n        /* \"#utility.yul\":9876:9932   */\n    tag_227:\n        /* \"#utility.yul\":9950:9979   */\n      tag_229\n        /* \"#utility.yul\":9972:9978   */\n      dup3\n        /* \"#utility.yul\":9950:9979   */\n      tag_87\n      jump\t// in\n    tag_229:\n        /* \"#utility.yul\":9942:9979   */\n      swap1\n      pop\n        /* \"#utility.yul\":10034:10038   */\n      0x20\n        /* \"#utility.yul\":10028:10032   */\n      dup2\n        /* \"#utility.yul\":10024:10039   */\n      add\n        /* \"#utility.yul\":10016:10039   */\n      swap1\n      pop\n        /* \"#utility.yul\":9738:10046   */\n      swap2\n      swap1\n      pop\n      jump\t// out\n        /* \"#utility.yul\":10052:10198   */\n    tag_98:\n        /* \"#utility.yul\":10149:10155   */\n      dup3\n        /* \"#utility.yul\":10144:10147   */\n      dup2\n        /* \"#utility.yul\":10139:10142   */\n      dup4\n        /* \"#utility.yul\":10126:10156   */\n      calldatacopy\n        /* \"#utility.yul\":10190:10191   */\n      0x00\n        /* \"#utility.yul\":10181:10187   */\n      dup4\n        /* \"#utility.yul\":10176:10179   */\n      dup4\n        /* \"#utility.yul\":10172:10188   */\n      add\n        /* \"#utility.yul\":10165:10192   */\n      mstore\n        /* \"#utility.yul\":10052:10198   */\n      pop\n      pop\n      pop\n      jump\t// out\n        /* \"#utility.yul\":10204:10629   */\n    tag_99:\n        /* \"#utility.yul\":10282:10287   */\n      0x00\n        /* \"#utility.yul\":10307:10373   */\n      tag_232\n        /* \"#utility.yul\":10323:10372   */\n      tag_233\n        /* \"#utility.yul\":10365:10371   */\n      dup5\n        /* \"#utility.yul\":10323:10372   */\n      tag_97\n      jump\t// in\n    tag_233:\n        /* \"#utility.yul\":10307:10373   */\n      tag_90\n      jump\t// in\n    tag_232:\n        /* \"#utility.yul\":10298:10373   */\n      swap1\n      pop\n        /* \"#utility.yul\":10396:10402   */\n      dup3\n        /* \"#utility.yul\":10389:10394   */\n      dup2\n        /* \"#utility.yul\":10382:10403   */\n      mstore\n        /* \"#utility.yul\":10434:10438   */\n      0x20\n        /* \"#utility.yul\":10427:10432   */\n      dup2\n        /* \"#utility.yul\":10423:10439   */\n      add\n        /* \"#utility.yul\":10472:10475   */\n      dup5\n        /* \"#utility.yul\":10463:10469   */\n      dup5\n        /* \"#utility.yul\":10458:10461   */\n      dup5\n        /* \"#utility.yul\":10454:10470   */\n      add\n        /* \"#utility.yul\":10451:10476   */\n      gt\n        /* \"#utility.yul\":10448:10560   */\n      iszero\n      tag_234\n      jumpi\n        /* \"#utility.yul\":10479:10558   */\n      tag_235\n      tag_96\n      jump\t// in\n    tag_235:\n        /* \"#utility.yul\":10448:10560   */\n    tag_234:\n        /* \"#utility.yul\":10569:10623   */\n      tag_236\n        /* \"#utility.yul\":10616:10622   */\n      dup5\n        /* \"#utility.yul\":10611:10614   */\n      dup3\n        /* \"#utility.yul\":10606:10609   */\n      dup6\n        /* \"#utility.yul\":10569:10623   */\n      tag_98\n      jump\t// in\n    tag_236:\n        /* \"#utility.yul\":10288:10629   */\n      pop\n        /* \"#utility.yul\":10204:10629   */\n      swap4\n      swap3\n      pop\n      pop\n      pop\n      jump\t// out\n        /* \"#utility.yul\":10649:10989   */\n    tag_100:\n        /* \"#utility.yul\":10705:10710   */\n      0x00\n        /* \"#utility.yul\":10754:10757   */\n      dup3\n        /* \"#utility.yul\":10747:10751   */\n      0x1f\n        /* \"#utility.yul\":10739:10745   */\n      dup4\n        /* \"#utility.yul\":10735:10752   */\n      add\n        /* \"#utility.yul\":10731:10758   */\n      slt\n        /* \"#utility.yul\":10721:10843   */\n      tag_238\n      jumpi\n        /* \"#utility.yul\":10762:10841   */\n      tag_239\n      tag_66\n      jump\t// in\n    tag_239:\n        /* \"#utility.yul\":10721:10843   */\n    tag_238:\n        /* \"#utility.yul\":10879:10885   */\n      dup2\n        /* \"#utility.yul\":10866:10886   */\n      calldataload\n        /* \"#utility.yul\":10904:10983   */\n      tag_240\n        /* \"#utility.yul\":10979:10982   */\n      dup5\n        /* \"#utility.yul\":10971:10977   */\n      dup3\n        /* \"#utility.yul\":10964:10968   */\n      0x20\n        /* \"#utility.yul\":10956:10962   */\n      dup7\n        /* \"#utility.yul\":10952:10969   */\n      add\n        /* \"#utility.yul\":10904:10983   */\n      tag_99\n      jump\t// in\n    tag_240:\n        /* \"#utility.yul\":10895:10983   */\n      swap2\n      pop\n        /* \"#utility.yul\":10711:10989   */\n      pop\n        /* \"#utility.yul\":10649:10989   */\n      swap3\n      swap2\n      pop\n      pop\n      jump\t// out\n        /* \"#utility.yul\":10995:11859   */\n    tag_20:\n        /* \"#utility.yul\":11098:11104   */\n      0x00\n        /* \"#utility.yul\":11106:11112   */\n      dup1\n        /* \"#utility.yul\":11155:11157   */\n      0x40\n        /* \"#utility.yul\":11143:11152   */\n      dup4\n        /* \"#utility.yul\":11134:11141   */\n      dup6\n        /* \"#utility.yul\":11130:11153   */\n      sub\n        /* \"#utility.yul\":11126:11158   */\n      slt\n        /* \"#utility.yul\":11123:11242   */\n      iszero\n      tag_242\n      jumpi\n        /* \"#utility.yul\":11161:11240   */\n      tag_243\n      tag_64\n      jump\t// in\n    tag_243:\n        /* \"#utility.yul\":11123:11242   */\n    tag_242:\n        /* \"#utility.yul\":11309:11310   */\n      0x00\n        /* \"#utility.yul\":11298:11307   */\n      dup4\n        /* \"#utility.yul\":11294:11311   */\n      add\n        /* \"#utility.yul\":11281:11312   */\n      calldataload\n        /* \"#utility.yul\":11339:11357   */\n      0xffffffffffffffff\n        /* \"#utility.yul\":11331:11337   */\n      dup2\n        /* \"#utility.yul\":11328:11358   */\n      gt\n        /* \"#utility.yul\":11325:11442   */\n      iszero\n      tag_244\n      jumpi\n        /* \"#utility.yul\":11361:11440   */\n      tag_245\n      tag_65\n      jump\t// in\n    tag_245:\n        /* \"#utility.yul\":11325:11442   */\n    tag_244:\n        /* \"#utility.yul\":11466:11544   */\n      tag_246\n        /* \"#utility.yul\":11536:11543   */\n      dup6\n        /* \"#utility.yul\":11527:11533   */\n      dup3\n        /* \"#utility.yul\":11516:11525   */\n      dup7\n        /* \"#utility.yul\":11512:11534   */\n      add\n        /* \"#utility.yul\":11466:11544   */\n      tag_95\n      jump\t// in\n    tag_246:\n        /* \"#utility.yul\":11456:11544   */\n      swap3\n      pop\n        /* \"#utility.yul\":11252:11554   */\n      pop\n        /* \"#utility.yul\":11621:11623   */\n      0x20\n        /* \"#utility.yul\":11610:11619   */\n      dup4\n        /* \"#utility.yul\":11606:11624   */\n      add\n        /* \"#utility.yul\":11593:11625   */\n      calldataload\n        /* \"#utility.yul\":11652:11670   */\n      0xffffffffffffffff\n        /* \"#utility.yul\":11644:11650   */\n      dup2\n        /* \"#utility.yul\":11641:11671   */\n      gt\n        /* \"#utility.yul\":11638:11755   */\n      iszero\n      tag_247\n      jumpi\n        /* \"#utility.yul\":11674:11753   */\n      tag_248\n      tag_65\n      jump\t// in\n    tag_248:\n        /* \"#utility.yul\":11638:11755   */\n    tag_247:\n        /* \"#utility.yul\":11779:11842   */\n      tag_249\n        /* \"#utility.yul\":11834:11841   */\n      dup6\n        /* \"#utility.yul\":11825:11831   */\n      dup3\n        /* \"#utility.yul\":11814:11823   */\n      dup7\n        /* \"#utility.yul\":11810:11832   */\n      add\n        /* \"#utility.yul\":11779:11842   */\n      tag_100\n      jump\t// in\n    tag_249:\n        /* \"#utility.yul\":11769:11842   */\n      swap2\n      pop\n        /* \"#utility.yul\":11564:11852   */\n      pop\n        /* \"#utility.yul\":10995:11859   */\n      swap3\n      pop\n      swap3\n      swap1\n      pop\n      jump\t// out\n        /* \"#utility.yul\":11865:12045   */\n    tag_101:\n        /* \"#utility.yul\":11913:11990   */\n      0x4e487b7100000000000000000000000000000000000000000000000000000000\n        /* \"#utility.yul\":11910:11911   */\n      0x00\n        /* \"#utility.yul\":11903:11991   */\n      mstore\n        /* \"#utility.yul\":12010:12014   */\n      0x22\n        /* \"#utility.yul\":12007:12008   */\n      0x04\n        /* \"#utility.yul\":12000:12015   */\n      mstore\n        /* \"#utility.yul\":12034:12038   */\n      0x24\n        /* \"#utility.yul\":12031:12032   */\n      0x00\n        /* \"#utility.yul\":12024:12039   */\n      revert\n        /* \"#utility.yul\":12051:12371   */\n    tag_28:\n        /* \"#utility.yul\":12095:12101   */\n      0x00\n        /* \"#utility.yul\":12132:12133   */\n      0x02\n        /* \"#utility.yul\":12126:12130   */\n      dup3\n        /* \"#utility.yul\":12122:12134   */\n      div\n        /* \"#utility.yul\":12112:12134   */\n      swap1\n      pop\n        /* \"#utility.yul\":12179:12180   */\n      0x01\n        /* \"#utility.yul\":12173:12177   */\n      dup3\n        /* \"#utility.yul\":12169:12181   */\n      and\n        /* \"#utility.yul\":12200:12218   */\n      dup1\n        /* \"#utility.yul\":12190:12271   */\n      tag_252\n      jumpi\n        /* \"#utility.yul\":12256:12260   */\n      0x7f\n        /* \"#utility.yul\":12248:12254   */\n      dup3\n        /* \"#utility.yul\":12244:12261   */\n      and\n        /* \"#utility.yul\":12234:12261   */\n      swap2\n      pop\n        /* \"#utility.yul\":12190:12271   */\n    tag_252:\n        /* \"#utility.yul\":12318:12320   */\n      0x20\n        /* \"#utility.yul\":12310:12316   */\n      dup3\n        /* \"#utility.yul\":12307:12321   */\n      lt\n        /* \"#utility.yul\":12287:12305   */\n      dup2\n        /* \"#utility.yul\":12284:12322   */\n      sub\n        /* \"#utility.yul\":12281:12365   */\n      tag_253\n      jumpi\n        /* \"#utility.yul\":12337:12355   */\n      tag_254\n      tag_101\n      jump\t// in\n    tag_254:\n        /* \"#utility.yul\":12281:12365   */\n    tag_253:\n        /* \"#utility.yul\":12102:12371   */\n      pop\n        /* \"#utility.yul\":12051:12371   */\n      swap2\n      swap1\n      pop\n      jump\t// out\n        /* \"#utility.yul\":12377:12518   */\n    tag_102:\n        /* \"#utility.yul\":12426:12430   */\n      0x00\n        /* \"#utility.yul\":12449:12452   */\n      dup2\n        /* \"#utility.yul\":12441:12452   */\n      swap1\n      pop\n        /* \"#utility.yul\":12472:12475   */\n      dup2\n        /* \"#utility.yul\":12469:12470   */\n      0x00\n        /* \"#utility.yul\":12462:12476   */\n      mstore\n        /* \"#utility.yul\":12506:12510   */\n      0x20\n        /* \"#utility.yul\":12503:12504   */\n      0x00\n        /* \"#utility.yul\":12493:12511   */\n      keccak256\n        /* \"#utility.yul\":12485:12511   */\n      swap1\n      pop\n        /* \"#utility.yul\":12377:12518   */\n      swap2\n      swap1\n      pop\n      jump\t// out\n        /* \"#utility.yul\":12524:12617   */\n    tag_103:\n        /* \"#utility.yul\":12561:12567   */\n      0x00\n        /* \"#utility.yul\":12608:12610   */\n      0x20\n        /* \"#utility.yul\":12603:12605   */\n      0x1f\n        /* \"#utility.yul\":12596:12601   */\n      dup4\n        /* \"#utility.yul\":12592:12606   */\n      add\n        /* \"#utility.yul\":12588:12611   */\n      div\n        /* \"#utility.yul\":12578:12611   */\n      swap1\n      pop\n        /* \"#utility.yul\":12524:12617   */\n      swap2\n      swap1\n      pop\n      jump\t// out\n        /* \"#utility.yul\":12623:12730   */\n    tag_104:\n        /* \"#utility.yul\":12667:12675   */\n      0x00\n        /* \"#utility.yul\":12717:12722   */\n      dup3\n        /* \"#utility.yul\":12711:12715   */\n      dup3\n        /* \"#utility.yul\":12707:12723   */\n      shl\n        /* \"#utility.yul\":12686:12723   */\n      swap1\n      pop\n        /* \"#utility.yul\":12623:12730   */\n      swap3\n      swap2\n      pop\n      pop\n      jump\t// out\n        /* \"#utility.yul\":12736:13129   */\n    tag_105:\n        /* \"#utility.yul\":12805:12811   */\n      0x00\n        /* \"#utility.yul\":12855:12856   */\n      0x08\n        /* \"#utility.yul\":12843:12853   */\n      dup4\n        /* \"#utility.yul\":12839:12857   */\n      mul\n        /* \"#utility.yul\":12878:12975   */\n      tag_259\n        /* \"#utility.yul\":12908:12974   */\n      0xffffffffffffffffffffffffffffffffffffffffffffffffffffffffffffffff\n        /* \"#utility.yul\":12897:12906   */\n      dup3\n        /* \"#utility.yul\":12878:12975   */\n      tag_104\n      jump\t// in\n    tag_259:\n        /* \"#utility.yul\":12996:13035   */\n      tag_260\n        /* \"#utility.yul\":13026:13034   */\n      dup7\n        /* \"#utility.yul\":13015:13024   */\n      dup4\n        /* \"#utility.yul\":12996:13035   */\n      tag_104\n      jump\t// in\n    tag_260:\n        /* \"#utility.yul\":12984:13035   */\n      swap6\n      pop\n        /* \"#utility.yul\":13068:13072   */\n      dup1\n        /* \"#utility.yul\":13064:13073   */\n      not\n        /* \"#utility.yul\":13057:13062   */\n      dup5\n        /* \"#utility.yul\":13053:13074   */\n      and\n        /* \"#utility.yul\":13044:13074   */\n      swap4\n      pop\n        /* \"#utility.yul\":13117:13121   */\n      dup1\n        /* \"#utility.yul\":13107:13115   */\n      dup7\n        /* \"#utility.yul\":13103:13122   */\n      and\n        /* \"#utility.yul\":13096:13101   */\n      dup5\n        /* \"#utility.yul\":13093:13123   */\n      or\n        /* \"#utility.yul\":13083:13123   */\n      swap3\n      pop\n        /* \"#utility.yul\":12812:13129   */\n      pop\n      pop\n        /* \"#utility.yul\":12736:13129   */\n      swap4\n      swap3\n      pop\n      pop\n      pop\n      jump\t// out\n        /* \"#utility.yul\":13135:13195   */\n    tag_106:\n        /* \"#utility.yul\":13163:13166   */\n      0x00\n        /* \"#utility.yul\":13184:13189   */\n      dup2\n        /* \"#utility.yul\":13177:13189   */\n      swap1\n      pop\n        /* \"#utility.yul\":13135:13195   */\n      swap2\n      swap1\n      pop\n      jump\t// out\n        /* \"#utility.yul\":13201:13343   */\n    tag_107:\n        /* \"#utility.yul\":13251:13260   */\n      0x00\n        /* \"#utility.yul\":13284:13337   */\n      tag_263\n        /* \"#utility.yul\":13302:13336   */\n      tag_264\n        /* \"#utility.yul\":13311:13335   */\n      tag_265\n        /* \"#utility.yul\":13329:13334   */\n      dup5\n        /* \"#utility.yul\":13311:13335   */\n      tag_74\n      jump\t// in\n    tag_265:\n        /* \"#utility.yul\":13302:13336   */\n      tag_106\n      jump\t// in\n    tag_264:\n        /* \"#utility.yul\":13284:13337   */\n      tag_74\n      jump\t// in\n    tag_263:\n        /* \"#utility.yul\":13271:13337   */\n      swap1\n      pop\n        /* \"#utility.yul\":13201:13343   */\n      swap2\n      swap1\n      pop\n      jump\t// out\n        /* \"#utility.yul\":13349:13424   */\n    tag_108:\n        /* \"#utility.yul\":13392:13395   */\n      0x00\n        /* \"#utility.yul\":13413:13418   */\n      dup2\n        /* \"#utility.yul\":13406:13418   */\n      swap1\n      pop\n        /* \"#utility.yul\":13349:13424   */\n      swap2\n      swap1\n      pop\n      jump\t// out\n        /* \"#utility.yul\":13430:13699   */\n    tag_109:\n        /* \"#utility.yul\":13540:13579   */\n      tag_268\n        /* \"#utility.yul\":13571:13578   */\n      dup4\n        /* \"#utility.yul\":13540:13579   */\n      tag_107\n      jump\t// in\n    tag_268:\n        /* \"#utility.yul\":13601:13692   */\n      tag_269\n        /* \"#utility.yul\":13650:13691   */\n      tag_270\n        /* \"#utility.yul\":13674:13690   */\n      dup3\n        /* \"#utility.yul\":13650:13691   */\n      tag_108\n      jump\t// in\n    tag_270:\n        /* \"#utility.yul\":13642:13648   */\n      dup5\n        /* \"#utility.yul\":13635:13639   */\n      dup5\n        /* \"#utility.yul\":13629:13640   */\n      sload\n        /* \"#utility.yul\":13601:13692   */\n      tag_105\n      jump\t// in\n    tag_269:\n        /* \"#utility.yul\":13595:13599   */\n      dup3\n        /* \"#utility.yul\":13588:13693   */\n      sstore\n        /* \"#utility.yul\":13506:13699   */\n      pop\n        /* \"#utility.yul\":13430:13699   */\n      pop\n      pop\n      pop\n      jump\t// out\n        /* \"#utility.yul\":13705:13778   */\n    tag_110:\n        /* \"#utility.yul\":13750:13753   */\n      0x00\n        /* \"#utility.yul\":13705:13778   */\n      swap1\n      jump\t// out\n        /* \"#utility.yul\":13784:13973   */\n    tag_111:\n        /* \"#utility.yul\":13861:13893   */\n      tag_273\n      tag_110\n      jump\t// in\n    tag_273:\n        /* \"#utility.yul\":13902:13967   */\n      tag_274\n        /* \"#utility.yul\":13960:13966   */\n      dup2\n        /* \"#utility.yul\":13952:13958   */\n      dup5\n        /* \"#utility.yul\":13946:13950   */\n      dup5\n        /* \"#utility.yul\":13902:13967   */\n      tag_109\n      jump\t// in\n    tag_274:\n        /* \"#utility.yul\":13837:13973   */\n      pop\n        /* \"#utility.yul\":13784:13973   */\n      pop\n      pop\n      jump\t// out\n        /* \"#utility.yul\":13979:14165   */\n    tag_112:\n        /* \"#utility.yul\":14039:14159   */\n    tag_276:\n        /* \"#utility.yul\":14056:14059   */\n      dup2\n        /* \"#utility.yul\":14049:14054   */\n      dup2\n        /* \"#utility.yul\":14046:14060   */\n      lt\n        /* \"#utility.yul\":14039:14159   */\n      iszero\n      tag_278\n      jumpi\n        /* \"#utility.yul\":14110:14149   */\n      tag_279\n        /* \"#utility.yul\":14147:14148   */\n      0x00\n        /* \"#utility.yul\":14140:14145   */\n      dup3\n        /* \"#utility.yul\":14110:14149   */\n      tag_111\n      jump\t// in\n    tag_279:\n        /* \"#utility.yul\":14083:14084   */\n      0x01\n        /* \"#utility.yul\":14076:14081   */\n      dup2\n        /* \"#utility.yul\":14072:14085   */\n      add\n        /* \"#utility.yul\":14063:14085   */\n      swap1\n      pop\n        /* \"#utility.yul\":14039:14159   */\n      jump(tag_276)\n    tag_278:\n        /* \"#utility.yul\":13979:14165   */\n      pop\n      pop\n      jump\t// out\n        /* \"#utility.yul\":14171:14714   */\n    tag_113:\n        /* \"#utility.yul\":14272:14274   */\n      0x1f\n        /* \"#utility.yul\":14267:14270   */\n      dup3\n        /* \"#utility.yul\":14264:14275   */\n      gt\n        /* \"#utility.yul\":14261:14707   */\n      iszero\n      tag_281\n      jumpi\n        /* \"#utility.yul\":14306:14344   */\n      tag_282\n        /* \"#utility.yul\":14338:14343   */\n      dup2\n        /* \"#utility.yul\":14306:14344   */\n      tag_102\n      jump\t// in\n    tag_282:\n        /* \"#utility.yul\":14390:14419   */\n      tag_283\n        /* \"#utility.yul\":14408:14418   */\n      dup5\n        /* \"#utility.yul\":14390:14419   */\n      tag_103\n      jump\t// in\n    tag_283:\n        /* \"#utility.yul\":14380:14388   */\n      dup2\n        /* \"#utility.yul\":14376:14420   */\n      add\n        /* \"#utility.yul\":14573:14575   */\n      0x20\n        /* \"#utility.yul\":14561:14571   */\n      dup6\n        /* \"#utility.yul\":14558:14576   */\n      lt\n        /* \"#utility.yul\":14555:14604   */\n      iszero\n      tag_284\n      jumpi\n        /* \"#utility.yul\":14594:14602   */\n      dup2\n        /* \"#utility.yul\":14579:14602   */\n      swap1\n      pop\n        /* \"#utility.yul\":14555:14604   */\n    tag_284:\n        /* \"#utility.yul\":14617:14697   */\n      tag_285\n        /* \"#utility.yul\":14673:14695   */\n      tag_286\n        /* \"#utility.yul\":14691:14694   */\n      dup6\n        /* \"#utility.yul\":14673:14695   */\n      tag_103\n      jump\t// in\n    tag_286:\n        /* \"#utility.yul\":14663:14671   */\n      dup4\n        /* \"#utility.yul\":14659:14696   */\n      add\n        /* \"#utility.yul\":14646:14657   */\n      dup3\n        /* \"#utility.yul\":14617:14697   */\n      tag_112\n      jump\t// in\n    tag_285:\n        /* \"#utility.yul\":14276:14707   */\n      pop\n      pop\n        /* \"#utility.yul\":14261:14707   */\n    tag_281:\n        /* \"#utility.yul\":14171:14714   */\n      pop\n      pop\n      pop\n      jump\t// out\n        /* \"#utility.yul\":14720:14837   */\n    tag_114:\n        /* \"#utility.yul\":14774:14782   */\n      0x00\n        /* \"#utility.yul\":14824:14829   */\n      dup3\n        /* \"#utility.yul\":14818:14822   */\n      dup3\n        /* \"#utility.yul\":14814:14830   */\n      shr\n        /* \"#utility.yul\":14793:14830   */\n      swap1\n      pop\n        /* \"#utility.yul\":14720:14837   */\n      swap3\n      swap2\n      pop\n      pop\n      jump\t// out\n        /* \"#utility.yul\":14843:15012   */\n    tag_115:\n        /* \"#utility.yul\":14887:14893   */\n      0x00\n        /* \"#utility.yul\":14920:14971   */\n      tag_289\n        /* \"#utility.yul\":14968:14969   */\n      0x00\n        /* \"#utility.yul\":14964:14970   */\n      not\n        /* \"#utility.yul\":14956:14961   */\n      dup5\n        /* \"#utility.yul\":14953:14954   */\n      0x08\n        /* \"#utility.yul\":14949:14962   */\n      mul\n        /* \"#utility.yul\":14920:14971   */\n      tag_114\n      jump\t// in\n    tag_289:\n        /* \"#utility.yul\":14916:14972   */\n      not\n        /* \"#utility.yul\":15001:15005   */\n      dup1\n        /* \"#utility.yul\":14995:14999   */\n      dup4\n        /* \"#utility.yul\":14991:15006   */\n      and\n        /* \"#utility.yul\":14981:15006   */\n      swap2\n      pop\n        /* \"#utility.yul\":14894:15012   */\n      pop\n        /* \"#utility.yul\":14843:15012   */\n      swap3\n      swap2\n      pop\n      pop\n      jump\t// out\n        /* \"#utility.yul\":15017:15312   */\n    tag_116:\n        /* \"#utility.yul\":15093:15097   */\n      0x00\n        /* \"#utility.yul\":15239:15268   */\n      tag_291\n        /* \"#utility.yul\":15264:15267   */\n      dup4\n        /* \"#utility.yul\":15258:15262   */\n      dup4\n        /* \"#utility.yul\":15239:15268   */\n      tag_115\n      jump\t// in\n    tag_291:\n        /* \"#utility.yul\":15231:15268   */\n      swap2\n      pop\n        /* \"#utility.yul\":15301:15304   */\n      dup3\n        /* \"#utility.yul\":15298:15299   */\n      0x02\n        /* \"#utility.yul\":15294:15305   */\n      mul\n        /* \"#utility.yul\":15288:15292   */\n      dup3\n        /* \"#utility.yul\":15285:15306   */\n      or\n        /* \"#utility.yul\":15277:15306   */\n      swap1\n      pop\n        /* \"#utility.yul\":15017:15312   */\n      swap3\n      swap2\n      pop\n      pop\n      jump\t// out\n        /* \"#utility.yul\":15317:16712   */\n    tag_25:\n        /* \"#utility.yul\":15434:15471   */\n      tag_293\n        /* \"#utility.yul\":15467:15470   */\n      dup3\n        /* \"#utility.yul\":15434:15471   */\n      tag_84\n      jump\t// in\n    tag_293:\n        /* \"#utility.yul\":15536:15554   */\n      0xffffffffffffffff\n        /* \"#utility.yul\":15528:15534   */\n      dup2\n        /* \"#utility.yul\":15525:15555   */\n      gt\n        /* \"#utility.yul\":15522:15578   */\n      iszero\n      tag_294\n      jumpi\n        /* \"#utility.yul\":15558:15576   */\n      tag_295\n      tag_37\n      jump\t// in\n    tag_295:\n        /* \"#utility.yul\":15522:15578   */\n    tag_294:\n        /* \"#utility.yul\":15602:15640   */\n      tag_296\n        /* \"#utility.yul\":15634:15638   */\n      dup3\n        /* \"#utility.yul\":15628:15639   */\n      sload\n        /* \"#utility.yul\":15602:15640   */\n      tag_28\n      jump\t// in\n    tag_296:\n        /* \"#utility.yul\":15687:15754   */\n      tag_297\n        /* \"#utility.yul\":15747:15753   */\n      dup3\n        /* \"#utility.yul\":15739:15745   */\n      dup3\n        /* \"#utility.yul\":15733:15737   */\n      dup6\n        /* \"#utility.yul\":15687:15754   */\n      tag_113\n      jump\t// in\n    tag_297:\n        /* \"#utility.yul\":15781:15782   */\n      0x00\n        /* \"#utility.yul\":15805:15809   */\n      0x20\n        /* \"#utility.yul\":15792:15809   */\n      swap1\n      pop\n        /* \"#utility.yul\":15837:15839   */\n      0x1f\n        /* \"#utility.yul\":15829:15835   */\n      dup4\n        /* \"#utility.yul\":15826:15840   */\n      gt\n        /* \"#utility.yul\":15854:15855   */\n      0x01\n        /* \"#utility.yul\":15849:16467   */\n      dup2\n      eq\n      tag_299\n      jumpi\n        /* \"#utility.yul\":16511:16512   */\n      0x00\n        /* \"#utility.yul\":16528:16534   */\n      dup5\n        /* \"#utility.yul\":16525:16602   */\n      iszero\n      tag_300\n      jumpi\n        /* \"#utility.yul\":16577:16586   */\n      dup3\n        /* \"#utility.yul\":16572:16575   */\n      dup8\n        /* \"#utility.yul\":16568:16587   */\n      add\n        /* \"#utility.yul\":16562:16588   */\n      mload\n        /* \"#utility.yul\":16553:16588   */\n      swap1\n      pop\n        /* \"#utility.yul\":16525:16602   */\n    tag_300:\n        /* \"#utility.yul\":16628:16695   */\n      tag_301\n        /* \"#utility.yul\":16688:16694   */\n      dup6\n        /* \"#utility.yul\":16681:16686   */\n      dup3\n        /* \"#utility.yul\":16628:16695   */\n      tag_116\n      jump\t// in\n    tag_301:\n        /* \"#utility.yul\":16622:16626   */\n      dup7\n        /* \"#utility.yul\":16615:16696   */\n      sstore\n        /* \"#utility.yul\":16484:16706   */\n      pop\n        /* \"#utility.yul\":15819:16706   */\n      jump(tag_298)\n        /* \"#utility.yul\":15849:16467   */\n    tag_299:\n        /* \"#utility.yul\":15901:15905   */\n      0x1f\n        /* \"#utility.yul\":15897:15906   */\n      not\n        /* \"#utility.yul\":15889:15895   */\n      dup5\n        /* \"#utility.yul\":15885:15907   */\n      and\n        /* \"#utility.yul\":15935:15972   */\n      tag_302\n        /* \"#utility.yul\":15967:15971   */\n      dup7\n        /* \"#utility.yul\":15935:15972   */\n      tag_102\n      jump\t// in\n    tag_302:\n        /* \"#utility.yul\":15994:15995   */\n      0x00\n        /* \"#utility.yul\":16008:16216   */\n    tag_303:\n        /* \"#utility.yul\":16022:16029   */\n      dup3\n        /* \"#utility.yul\":16019:16020   */\n      dup2\n        /* \"#utility.yul\":16016:16030   */\n      lt\n        /* \"#utility.yul\":16008:16216   */\n      iszero\n      tag_305\n      jumpi\n        /* \"#utility.yul\":16101:16110   */\n      dup5\n        /* \"#utility.yul\":16096:16099   */\n      dup10\n        /* \"#utility.yul\":16092:16111   */\n      add\n        /* \"#utility.yul\":16086:16112   */\n      mload\n        /* \"#utility.yul\":16078:16084   */\n      dup3\n        /* \"#utility.yul\":16071:16113   */\n      sstore\n        /* \"#utility.yul\":16152:16153   */\n      0x01\n        /* \"#utility.yul\":16144:16150   */\n      dup3\n        /* \"#utility.yul\":16140:16154   */\n      add\n        /* \"#utility.yul\":16130:16154   */\n      swap2\n      pop\n        /* \"#utility.yul\":16199:16201   */\n      0x20\n        /* \"#utility.yul\":16188:16197   */\n      dup6\n        /* \"#utility.yul\":16184:16202   */\n      add\n        /* \"#utility.yul\":16171:16202   */\n      swap5\n      pop\n        /* \"#utility.yul\":16045:16049   */\n      0x20\n        /* \"#utility.yul\":16042:16043   */\n      dup2\n        /* \"#utility.yul\":16038:16050   */\n      add\n        /* \"#utility.yul\":16033:16050   */\n      swap1\n      pop\n        /* \"#utility.yul\":16008:16216   */\n      jump(tag_303)\n    tag_305:\n        /* \"#utility.yul\":16244:16250   */\n      dup7\n        /* \"#utility.yul\":16235:16242   */\n      dup4\n        /* \"#utility.yul\":16232:16251   */\n      lt\n        /* \"#utility.yul\":16229:16408   */\n      iszero\n      tag_306\n      jumpi\n        /* \"#utility.yul\":16302:16311   */\n      dup5\n        /* \"#utility.yul\":16297:16300   */\n      dup10\n        /* \"#utility.yul\":16293:16312   */\n      add\n        /* \"#utility.yul\":16287:16313   */\n      mload\n        /* \"#utility.yul\":16345:16393   */\n      tag_307\n        /* \"#utility.yul\":16387:16391   */\n      0x1f\n        /* \"#utility.yul\":16379:16385   */\n      dup10\n        /* \"#utility.yul\":16375:16392   */\n      and\n        /* \"#utility.yul\":16364:16373   */\n      dup3\n        /* \"#utility.yul\":16345:16393   */\n      tag_115\n      jump\t// in\n    tag_307:\n        /* \"#utility.yul\":16337:16343   */\n      dup4\n        /* \"#utility.yul\":16330:16394   */\n      sstore\n        /* \"#utility.yul\":16252:16408   */\n      pop\n        /* \"#utility.yul\":16229:16408   */\n    tag_306:\n        /* \"#utility.yul\":16454:16455   */\n      0x01\n        /* \"#utility.yul\":16450:16451   */\n      0x02\n        /* \"#utility.yul\":16442:16448   */\n      dup9\n        /* \"#utility.yul\":16438:16452   */\n      mul\n        /* \"#utility.yul\":16434:16456   */\n      add\n        /* \"#utility.yul\":16428:16432   */\n      dup9\n        /* \"#utility.yul\":16421:16457   */\n      sstore\n        /* \"#utility.yul\":15856:16467   */\n      pop\n      pop\n      pop\n        /* \"#utility.yul\":15819:16706   */\n    tag_298:\n      pop\n        /* \"#utility.yul\":15409:16712   */\n      pop\n      pop\n      pop\n        /* \"#utility.yul\":15317:16712   */\n      pop\n      pop\n      jump\t// out\n        /* \"#utility.yul\":16718:16898   */\n    tag_41:\n        /* \"#utility.yul\":16766:16843   */\n      0x4e487b7100000000000000000000000000000000000000000000000000000000\n        /* \"#utility.yul\":16763:16764   */\n      0x00\n        /* \"#utility.yul\":16756:16844   */\n      mstore\n        /* \"#utility.yul\":16863:16867   */\n      0x32\n        /* \"#utility.yul\":16860:16861   */\n      0x04\n        /* \"#utility.yul\":16853:16868   */\n      mstore\n        /* \"#utility.yul\":16887:16891   */\n      0x24\n        /* \"#utility.yul\":16884:16885   */\n      0x00\n        /* \"#utility.yul\":16877:16892   */\n      revert\n\n    auxdata: 0xa2646970667358221220c5c4b14ac2bbbe8ba6db8bac22d2acb95ad5f8124cc38c0add59e9622b5b98ba64736f6c63430008160033\n}\n",
				"bytecode": {
					"linkReferences": {},
					"object": "608060405234801561000f575f80fd5b50610ffc8061001d5f395ff3fe608060405234801561000f575f80fd5b506004361061003f575f3560e01c8063a701d73314610043578063b43c5d3314610073578063fc277a95146100a4575b5f80fd5b61005d6004803603810190610058919061079e565b6100d4565b60405161006a91906108dc565b60405180910390f35b61008d60048036038101906100889190610956565b610378565b60405161009b929190610a1a565b60405180910390f35b6100be60048036038101906100b99190610c5a565b61041d565b6040516100cb91906108dc565b60405180910390f35b60606040518060400160405280607b81526020016040518060400160405280600381526020017f62617200000000000000000000000000000000000000000000000000000000008152508152505f803373ffffffffffffffffffffffffffffffffffffffff1673ffffffffffffffffffffffffffffffffffffffff1681526020019081526020015f205f820151815f0155602082015181600101908161017a9190610eca565b509050505f805f3373ffffffffffffffffffffffffffffffffffffffff1673ffffffffffffffffffffffffffffffffffffffff1681526020019081526020015f2090506040518060400160405280600381526020017f666f6f00000000000000000000000000000000000000000000000000000000008152508160010190816102039190610eca565b505f805f3373ffffffffffffffffffffffffffffffffffffffff1673ffffffffffffffffffffffffffffffffffffffff1681526020019081526020015f206040518060400160405290815f820154815260200160018201805461026590610cfd565b80601f016020809104026020016040519081016040528092919081815260200182805461029190610cfd565b80156102dc5780601f106102b3576101008083540402835291602001916102dc565b820191905f5260205f20905b8154815290600101906020018083116102bf57829003601f168201915b505050505081525050905061014d815f0181815250506102fc87876106b5565b5f600367ffffffffffffffff81111561031857610317610a48565b5b6040519080825280602002602001820160405280156103465781602001602082028036833780820191505090505b50905060ea815f8151811061035e5761035d610f99565b5b602002602001018181525050809350505050949350505050565b5f602052805f5260405f205f91509050805f01549080600101805461039c90610cfd565b80601f01602080910402602001604051908101604052809291908181526020018280546103c890610cfd565b80156104135780601f106103ea57610100808354040283529160200191610413565b820191905f5260205f20905b8154815290600101906020018083116103f657829003601f168201915b5050505050905082565b60606040518060400160405280607b81526020016040518060400160405280600381526020017f62617200000000000000000000000000000000000000000000000000000000008152508152505f803373ffffffffffffffffffffffffffffffffffffffff1673ffffffffffffffffffffffffffffffffffffffff1681526020019081526020015f205f820151815f015560208201518160010190816104c39190610eca565b509050505f805f3373ffffffffffffffffffffffffffffffffffffffff1673ffffffffffffffffffffffffffffffffffffffff1681526020019081526020015f2090506040518060400160405280600381526020017f666f6f000000000000000000000000000000000000000000000000000000000081525081600101908161054c9190610eca565b505f805f3373ffffffffffffffffffffffffffffffffffffffff1673ffffffffffffffffffffffffffffffffffffffff1681526020019081526020015f206040518060400160405290815f82015481526020016001820180546105ae90610cfd565b80601f01602080910402602001604051908101604052809291908181526020018280546105da90610cfd565b80156106255780601f106105fc57610100808354040283529160200191610625565b820191905f5260205f20905b81548152906001019060200180831161060857829003601f168201915b505050505081525050905061014d815f0181815250505f600367ffffffffffffffff81111561065757610656610a48565b5b6040519080825280602002602001820160405280156106855781602001602082028036833780820191505090505b50905060ea815f8151811061069d5761069c610f99565b5b60200260200101818152505080935050505092915050565b5f82825f8181106106c9576106c8610f99565b5b905060200201359050505050565b5f604051905090565b5f80fd5b5f80fd5b5f80fd5b5f80fd5b5f80fd5b5f8083601f840112610709576107086106e8565b5b8235905067ffffffffffffffff811115610726576107256106ec565b5b602083019150836020820283011115610742576107416106f0565b5b9250929050565b5f8083601f84011261075e5761075d6106e8565b5b8235905067ffffffffffffffff81111561077b5761077a6106ec565b5b602083019150836001820283011115610797576107966106f0565b5b9250929050565b5f805f80604085870312156107b6576107b56106e0565b5b5f85013567ffffffffffffffff8111156107d3576107d26106e4565b5b6107df878288016106f4565b9450945050602085013567ffffffffffffffff811115610802576108016106e4565b5b61080e87828801610749565b925092505092959194509250565b5f81519050919050565b5f82825260208201905092915050565b5f819050602082019050919050565b5f819050919050565b61085781610845565b82525050565b5f610868838361084e565b60208301905092915050565b5f602082019050919050565b5f61088a8261081c565b6108948185610826565b935061089f83610836565b805f5b838110156108cf5781516108b6888261085d565b97506108c183610874565b9250506001810190506108a2565b5085935050505092915050565b5f6020820190508181035f8301526108f48184610880565b905092915050565b5f73ffffffffffffffffffffffffffffffffffffffff82169050919050565b5f610925826108fc565b9050919050565b6109358161091b565b811461093f575f80fd5b50565b5f813590506109508161092c565b92915050565b5f6020828403121561096b5761096a6106e0565b5b5f61097884828501610942565b91505092915050565b61098a81610845565b82525050565b5f81519050919050565b5f82825260208201905092915050565b5f5b838110156109c75780820151818401526020810190506109ac565b5f8484015250505050565b5f601f19601f8301169050919050565b5f6109ec82610990565b6109f6818561099a565b9350610a068185602086016109aa565b610a0f816109d2565b840191505092915050565b5f604082019050610a2d5f830185610981565b8181036020830152610a3f81846109e2565b90509392505050565b7f4e487b71000000000000000000000000000000000000000000000000000000005f52604160045260245ffd5b610a7e826109d2565b810181811067ffffffffffffffff82111715610a9d57610a9c610a48565b5b80604052505050565b5f610aaf6106d7565b9050610abb8282610a75565b919050565b5f67ffffffffffffffff821115610ada57610ad9610a48565b5b602082029050602081019050919050565b610af481610845565b8114610afe575f80fd5b50565b5f81359050610b0f81610aeb565b92915050565b5f610b27610b2284610ac0565b610aa6565b90508083825260208201905060208402830185811115610b4a57610b496106f0565b5b835b81811015610b735780610b5f8882610b01565b845260208401935050602081019050610b4c565b5050509392505050565b5f82601f830112610b9157610b906106e8565b5b8135610ba1848260208601610b15565b91505092915050565b5f80fd5b5f67ffffffffffffffff821115610bc857610bc7610a48565b5b610bd1826109d2565b9050602081019050919050565b828183375f83830152505050565b5f610bfe610bf984610bae565b610aa6565b905082815260208101848484011115610c1a57610c19610baa565b5b610c25848285610bde565b509392505050565b5f82601f830112610c4157610c406106e8565b5b8135610c51848260208601610bec565b91505092915050565b5f8060408385031215610c7057610c6f6106e0565b5b5f83013567ffffffffffffffff811115610c8d57610c8c6106e4565b5b610c9985828601610b7d565b925050602083013567ffffffffffffffff811115610cba57610cb96106e4565b5b610cc685828601610c2d565b9150509250929050565b7f4e487b71000000000000000000000000000000000000000000000000000000005f52602260045260245ffd5b5f6002820490506001821680610d1457607f821691505b602082108103610d2757610d26610cd0565b5b50919050565b5f819050815f5260205f209050919050565b5f6020601f8301049050919050565b5f82821b905092915050565b5f60088302610d897fffffffffffffffffffffffffffffffffffffffffffffffffffffffffffffffff82610d4e565b610d938683610d4e565b95508019841693508086168417925050509392505050565b5f819050919050565b5f610dce610dc9610dc484610845565b610dab565b610845565b9050919050565b5f819050919050565b610de783610db4565b610dfb610df382610dd5565b848454610d5a565b825550505050565b5f90565b610e0f610e03565b610e1a818484610dde565b505050565b5b81811015610e3d57610e325f82610e07565b600181019050610e20565b5050565b601f821115610e8257610e5381610d2d565b610e5c84610d3f565b81016020851015610e6b578190505b610e7f610e7785610d3f565b830182610e1f565b50505b505050565b5f82821c905092915050565b5f610ea25f1984600802610e87565b1980831691505092915050565b5f610eba8383610e93565b9150826002028217905092915050565b610ed382610990565b67ffffffffffffffff811115610eec57610eeb610a48565b5b610ef68254610cfd565b610f01828285610e41565b5f60209050601f831160018114610f32575f8415610f20578287015190505b610f2a8582610eaf565b865550610f91565b601f198416610f4086610d2d565b5f5b82811015610f6757848901518255600182019150602085019450602081019050610f42565b86831015610f845784890151610f80601f891682610e93565b8355505b6001600288020188555050505b505050505050565b7f4e487b71000000000000000000000000000000000000000000000000000000005f52603260045260245ffdfea2646970667358221220c5c4b14ac2bbbe8ba6db8bac22d2acb95ad5f8124cc38c0add59e9622b5b98ba64736f6c63430008160033",
					"opcodes": "PUSH1 0x80 PUSH1 0x40 MSTORE CALLVALUE DUP1 ISZERO PUSH2 0xF JUMPI PUSH0 DUP1 REVERT JUMPDEST POP PUSH2 0xFFC DUP1 PUSH2 0x1D PUSH0 CODECOPY PUSH0 RETURN INVALID PUSH1 0x80 PUSH1 0x40 MSTORE CALLVALUE DUP1 ISZERO PUSH2 0xF JUMPI PUSH0 DUP1 REVERT JUMPDEST POP PUSH1 0x4 CALLDATASIZE LT PUSH2 0x3F JUMPI PUSH0 CALLDATALOAD PUSH1 0xE0 SHR DUP1 PUSH4 0xA701D733 EQ PUSH2 0x43 JUMPI DUP1 PUSH4 0xB43C5D33 EQ PUSH2 0x73 JUMPI DUP1 PUSH4 0xFC277A95 EQ PUSH2 0xA4 JUMPI JUMPDEST PUSH0 DUP1 REVERT JUMPDEST PUSH2 0x5D PUSH1 0x4 DUP1 CALLDATASIZE SUB DUP2 ADD SWAP1 PUSH2 0x58 SWAP2 SWAP1 PUSH2 0x79E JUMP JUMPDEST PUSH2 0xD4 JUMP JUMPDEST PUSH1 0x40 MLOAD PUSH2 0x6A SWAP2 SWAP1 PUSH2 0x8DC JUMP JUMPDEST PUSH1 0x40 MLOAD DUP1 SWAP2 SUB SWAP1 RETURN JUMPDEST PUSH2 0x8D PUSH1 0x4 DUP1 CALLDATASIZE SUB DUP2 ADD SWAP1 PUSH2 0x88 SWAP2 SWAP1 PUSH2 0x956 JUMP JUMPDEST PUSH2 0x378 JUMP JUMPDEST PUSH1 0x40 MLOAD PUSH2 0x9B SWAP3 SWAP2 SWAP1 PUSH2 0xA1A JUMP JUMPDEST PUSH1 0x40 MLOAD DUP1 SWAP2 SUB SWAP1 RETURN JUMPDEST PUSH2 0xBE PUSH1 0x4 DUP1 CALLDATASIZE SUB DUP2 ADD SWAP1 PUSH2 0xB9 SWAP2 SWAP1 PUSH2 0xC5A JUMP JUMPDEST PUSH2 0x41D JUMP JUMPDEST PUSH1 0x40 MLOAD PUSH2 0xCB SWAP2 SWAP1 PUSH2 0x8DC JUMP JUMPDEST PUSH1 0x40 MLOAD DUP1 SWAP2 SUB SWAP1 RETURN JUMPDEST PUSH1 0x60 PUSH1 0x40 MLOAD DUP1 PUSH1 0x40 ADD PUSH1 0x40 MSTORE DUP1 PUSH1 0x7B DUP2 MSTORE PUSH1 0x20 ADD PUSH1 0x40 MLOAD DUP1 PUSH1 0x40 ADD PUSH1 0x40 MSTORE DUP1 PUSH1 0x3 DUP2 MSTORE PUSH1 0x20 ADD PUSH32 0x6261720000000000000000000000000000000000000000000000000000000000 DUP2 MSTORE POP DUP2 MSTORE POP PUSH0 DUP1 CALLER PUSH20 0xFFFFFFFFFFFFFFFFFFFFFFFFFFFFFFFFFFFFFFFF AND PUSH20 0xFFFFFFFFFFFFFFFFFFFFFFFFFFFFFFFFFFFFFFFF AND DUP2 MSTORE PUSH1 0x20 ADD SWAP1 DUP2 MSTORE PUSH1 0x20 ADD PUSH0 KECCAK256 PUSH0 DUP3 ADD MLOAD DUP2 PUSH0 ADD SSTORE PUSH1 0x20 DUP3 ADD MLOAD DUP2 PUSH1 0x1 ADD SWAP1 DUP2 PUSH2 0x17A SWAP2 SWAP1 PUSH2 0xECA JUMP JUMPDEST POP SWAP1 POP POP PUSH0 DUP1 PUSH0 CALLER PUSH20 0xFFFFFFFFFFFFFFFFFFFFFFFFFFFFFFFFFFFFFFFF AND PUSH20 0xFFFFFFFFFFFFFFFFFFFFFFFFFFFFFFFFFFFFFFFF AND DUP2 MSTORE PUSH1 0x20 ADD SWAP1 DUP2 MSTORE PUSH1 0x20 ADD PUSH0 KECCAK256 SWAP1 POP PUSH1 0x40 MLOAD DUP1 PUSH1 0x40 ADD PUSH1 0x40 MSTORE DUP1 PUSH1 0x3 DUP2 MSTORE PUSH1 0x20 ADD PUSH32 0x666F6F0000000000000000000000000000000000000000000000000000000000 DUP2 MSTORE POP DUP2 PUSH1 0x1 ADD SWAP1 DUP2 PUSH2 0x203 SWAP2 SWAP1 PUSH2 0xECA JUMP JUMPDEST POP PUSH0 DUP1 PUSH0 CALLER PUSH20 0xFFFFFFFFFFFFFFFFFFFFFFFFFFFFFFFFFFFFFFFF AND PUSH20 0xFFFFFFFFFFFFFFFFFFFFFFFFFFFFFFFFFFFFFFFF AND DUP2 MSTORE PUSH1 0x20 ADD SWAP1 DUP2 MSTORE PUSH1 0x20 ADD PUSH0 KECCAK256 PUSH1 0x40 MLOAD DUP1 PUSH1 0x40 ADD PUSH1 0x40 MSTORE SWAP1 DUP2 PUSH0 DUP3 ADD SLOAD DUP2 MSTORE PUSH1 0x20 ADD PUSH1 0x1 DUP3 ADD DUP1 SLOAD PUSH2 0x265 SWAP1 PUSH2 0xCFD JUMP JUMPDEST DUP1 PUSH1 0x1F ADD PUSH1 0x20 DUP1 SWAP2 DIV MUL PUSH1 0x20 ADD PUSH1 0x40 MLOAD SWAP1 DUP2 ADD PUSH1 0x40 MSTORE DUP1 SWAP3 SWAP2 SWAP1 DUP2 DUP2 MSTORE PUSH1 0x20 ADD DUP3 DUP1 SLOAD PUSH2 0x291 SWAP1 PUSH2 0xCFD JUMP JUMPDEST DUP1 ISZERO PUSH2 0x2DC JUMPI DUP1 PUSH1 0x1F LT PUSH2 0x2B3 JUMPI PUSH2 0x100 DUP1 DUP4 SLOAD DIV MUL DUP4 MSTORE SWAP2 PUSH1 0x20 ADD SWAP2 PUSH2 0x2DC JUMP JUMPDEST DUP3 ADD SWAP2 SWAP1 PUSH0 MSTORE PUSH1 0x20 PUSH0 KECCAK256 SWAP1 JUMPDEST DUP2 SLOAD DUP2 MSTORE SWAP1 PUSH1 0x1 ADD SWAP1 PUSH1 0x20 ADD DUP1 DUP4 GT PUSH2 0x2BF JUMPI DUP3 SWAP1 SUB PUSH1 0x1F AND DUP3 ADD SWAP2 JUMPDEST POP POP POP POP POP DUP2 MSTORE POP POP SWAP1 POP PUSH2 0x14D DUP2 PUSH0 ADD DUP2 DUP2 MSTORE POP POP PUSH2 0x2FC DUP8 DUP8 PUSH2 0x6B5 JUMP JUMPDEST PUSH0 PUSH1 0x3 PUSH8 0xFFFFFFFFFFFFFFFF DUP2 GT ISZERO PUSH2 0x318 JUMPI PUSH2 0x317 PUSH2 0xA48 JUMP JUMPDEST JUMPDEST PUSH1 0x40 MLOAD SWAP1 DUP1 DUP3 MSTORE DUP1 PUSH1 0x20 MUL PUSH1 0x20 ADD DUP3 ADD PUSH1 0x40 MSTORE DUP1 ISZERO PUSH2 0x346 JUMPI DUP2 PUSH1 0x20 ADD PUSH1 0x20 DUP3 MUL DUP1 CALLDATASIZE DUP4 CALLDATACOPY DUP1 DUP3 ADD SWAP2 POP POP SWAP1 POP JUMPDEST POP SWAP1 POP PUSH1 0xEA DUP2 PUSH0 DUP2 MLOAD DUP2 LT PUSH2 0x35E JUMPI PUSH2 0x35D PUSH2 0xF99 JUMP JUMPDEST JUMPDEST PUSH1 0x20 MUL PUSH1 0x20 ADD ADD DUP2 DUP2 MSTORE POP POP DUP1 SWAP4 POP POP POP POP SWAP5 SWAP4 POP POP POP POP JUMP JUMPDEST PUSH0 PUSH1 0x20 MSTORE DUP1 PUSH0 MSTORE PUSH1 0x40 PUSH0 KECCAK256 PUSH0 SWAP2 POP SWAP1 POP DUP1 PUSH0 ADD SLOAD SWAP1 DUP1 PUSH1 0x1 ADD DUP1 SLOAD PUSH2 0x39C SWAP1 PUSH2 0xCFD JUMP JUMPDEST DUP1 PUSH1 0x1F ADD PUSH1 0x20 DUP1 SWAP2 DIV MUL PUSH1 0x20 ADD PUSH1 0x40 MLOAD SWAP1 DUP2 ADD PUSH1 0x40 MSTORE DUP1 SWAP3 SWAP2 SWAP1 DUP2 DUP2 MSTORE PUSH1 0x20 ADD DUP3 DUP1 SLOAD PUSH2 0x3C8 SWAP1 PUSH2 0xCFD JUMP JUMPDEST DUP1 ISZERO PUSH2 0x413 JUMPI DUP1 PUSH1 0x1F LT PUSH2 0x3EA JUMPI PUSH2 0x100 DUP1 DUP4 SLOAD DIV MUL DUP4 MSTORE SWAP2 PUSH1 0x20 ADD SWAP2 PUSH2 0x413 JUMP JUMPDEST DUP3 ADD SWAP2 SWAP1 PUSH0 MSTORE PUSH1 0x20 PUSH0 KECCAK256 SWAP1 JUMPDEST DUP2 SLOAD DUP2 MSTORE SWAP1 PUSH1 0x1 ADD SWAP1 PUSH1 0x20 ADD DUP1 DUP4 GT PUSH2 0x3F6 JUMPI DUP3 SWAP1 SUB PUSH1 0x1F AND DUP3 ADD SWAP2 JUMPDEST POP POP POP POP POP SWAP1 POP DUP3 JUMP JUMPDEST PUSH1 0x60 PUSH1 0x40 MLOAD DUP1 PUSH1 0x40 ADD PUSH1 0x40 MSTORE DUP1 PUSH1 0x7B DUP2 MSTORE PUSH1 0x20 ADD PUSH1 0x40 MLOAD DUP1 PUSH1 0x40 ADD PUSH1 0x40 MSTORE DUP1 PUSH1 0x3 DUP2 MSTORE PUSH1 0x20 ADD PUSH32 0x6261720000000000000000000000000000000000000000000000000000000000 DUP2 MSTORE POP DUP2 MSTORE POP PUSH0 DUP1 CALLER PUSH20 0xFFFFFFFFFFFFFFFFFFFFFFFFFFFFFFFFFFFFFFFF AND PUSH20 0xFFFFFFFFFFFFFFFFFFFFFFFFFFFFFFFFFFFFFFFF AND DUP2 MSTORE PUSH1 0x20 ADD SWAP1 DUP2 MSTORE PUSH1 0x20 ADD PUSH0 KECCAK256 PUSH0 DUP3 ADD MLOAD DUP2 PUSH0 ADD SSTORE PUSH1 0x20 DUP3 ADD MLOAD DUP2 PUSH1 0x1 ADD SWAP1 DUP2 PUSH2 0x4C3 SWAP2 SWAP1 PUSH2 0xECA JUMP JUMPDEST POP SWAP1 POP POP PUSH0 DUP1 PUSH0 CALLER PUSH20 0xFFFFFFFFFFFFFFFFFFFFFFFFFFFFFFFFFFFFFFFF AND PUSH20 0xFFFFFFFFFFFFFFFFFFFFFFFFFFFFFFFFFFFFFFFF AND DUP2 MSTORE PUSH1 0x20 ADD SWAP1 DUP2 MSTORE PUSH1 0x20 ADD PUSH0 KECCAK256 SWAP1 POP PUSH1 0x40 MLOAD DUP1 PUSH1 0x40 ADD PUSH1 0x40 MSTORE DUP1 PUSH1 0x3 DUP2 MSTORE PUSH1 0x20 ADD PUSH32 0x666F6F0000000000000000000000000000000000000000000000000000000000 DUP2 MSTORE POP DUP2 PUSH1 0x1 ADD SWAP1 DUP2 PUSH2 0x54C SWAP2 SWAP1 PUSH2 0xECA JUMP JUMPDEST POP PUSH0 DUP1 PUSH0 CALLER PUSH20 0xFFFFFFFFFFFFFFFFFFFFFFFFFFFFFFFFFFFFFFFF AND PUSH20 0xFFFFFFFFFFFFFFFFFFFFFFFFFFFFFFFFFFFFFFFF AND DUP2 MSTORE PUSH1 0x20 ADD SWAP1 DUP2 MSTORE PUSH1 0x20 ADD PUSH0 KECCAK256 PUSH1 0x40 MLOAD DUP1 PUSH1 0x40 ADD PUSH1 0x40 MSTORE SWAP1 DUP2 PUSH0 DUP3 ADD SLOAD DUP2 MSTORE PUSH1 0x20 ADD PUSH1 0x1 DUP3 ADD DUP1 SLOAD PUSH2 0x5AE SWAP1 PUSH2 0xCFD JUMP JUMPDEST DUP1 PUSH1 0x1F ADD PUSH1 0x20 DUP1 SWAP2 DIV MUL PUSH1 0x20 ADD PUSH1 0x40 MLOAD SWAP1 DUP2 ADD PUSH1 0x40 MSTORE DUP1 SWAP3 SWAP2 SWAP1 DUP2 DUP2 MSTORE PUSH1 0x20 ADD DUP3 DUP1 SLOAD PUSH2 0x5DA SWAP1 PUSH2 0xCFD JUMP JUMPDEST DUP1 ISZERO PUSH2 0x625 JUMPI DUP1 PUSH1 0x1F LT PUSH2 0x5FC JUMPI PUSH2 0x100 DUP1 DUP4 SLOAD DIV MUL DUP4 MSTORE SWAP2 PUSH1 0x20 ADD SWAP2 PUSH2 0x625 JUMP JUMPDEST DUP3 ADD SWAP2 SWAP1 PUSH0 MSTORE PUSH1 0x20 PUSH0 KECCAK256 SWAP1 JUMPDEST DUP2 SLOAD DUP2 MSTORE SWAP1 PUSH1 0x1 ADD SWAP1 PUSH1 0x20 ADD DUP1 DUP4 GT PUSH2 0x608 JUMPI DUP3 SWAP1 SUB PUSH1 0x1F AND DUP3 ADD SWAP2 JUMPDEST POP POP POP POP POP DUP2 MSTORE POP POP SWAP1 POP PUSH2 0x14D DUP2 PUSH0 ADD DUP2 DUP2 MSTORE POP POP PUSH0 PUSH1 0x3 PUSH8 0xFFFFFFFFFFFFFFFF DUP2 GT ISZERO PUSH2 0x657 JUMPI PUSH2 0x656 PUSH2 0xA48 JUMP JUMPDEST JUMPDEST PUSH1 0x40 MLOAD SWAP1 DUP1 DUP3 MSTORE DUP1 PUSH1 0x20 MUL PUSH1 0x20 ADD DUP3 ADD PUSH1 0x40 MSTORE DUP1 ISZERO PUSH2 0x685 JUMPI DUP2 PUSH1 0x20 ADD PUSH1 0x20 DUP3 MUL DUP1 CALLDATASIZE DUP4 CALLDATACOPY DUP1 DUP3 ADD SWAP2 POP POP SWAP1 POP JUMPDEST POP SWAP1 POP PUSH1 0xEA DUP2 PUSH0 DUP2 MLOAD DUP2 LT PUSH2 0x69D JUMPI PUSH2 0x69C PUSH2 0xF99 JUMP JUMPDEST JUMPDEST PUSH1 0x20 MUL PUSH1 0x20 ADD ADD DUP2 DUP2 MSTORE POP POP DUP1 SWAP4 POP POP POP POP SWAP3 SWAP2 POP POP JUMP JUMPDEST PUSH0 DUP3 DUP3 PUSH0 DUP2 DUP2 LT PUSH2 0x6C9 JUMPI PUSH2 0x6C8 PUSH2 0xF99 JUMP JUMPDEST JUMPDEST SWAP1 POP PUSH1 0x20 MUL ADD CALLDATALOAD SWAP1 POP POP POP POP JUMP JUMPDEST PUSH0 PUSH1 0x40 MLOAD SWAP1 POP SWAP1 JUMP JUMPDEST PUSH0 DUP1 REVERT JUMPDEST PUSH0 DUP1 REVERT JUMPDEST PUSH0 DUP1 REVERT JUMPDEST PUSH0 DUP1 REVERT JUMPDEST PUSH0 DUP1 REVERT JUMPDEST PUSH0 DUP1 DUP4 PUSH1 0x1F DUP5 ADD SLT PUSH2 0x709 JUMPI PUSH2 0x708 PUSH2 0x6E8 JUMP JUMPDEST JUMPDEST DUP3 CALLDATALOAD SWAP1 POP PUSH8 0xFFFFFFFFFFFFFFFF DUP2 GT ISZERO PUSH2 0x726 JUMPI PUSH2 0x725 PUSH2 0x6EC JUMP JUMPDEST JUMPDEST PUSH1 0x20 DUP4 ADD SWAP2 POP DUP4 PUSH1 0x20 DUP3 MUL DUP4 ADD GT ISZERO PUSH2 0x742 JUMPI PUSH2 0x741 PUSH2 0x6F0 JUMP JUMPDEST JUMPDEST SWAP3 POP SWAP3 SWAP1 POP JUMP JUMPDEST PUSH0 DUP1 DUP4 PUSH1 0x1F DUP5 ADD SLT PUSH2 0x75E JUMPI PUSH2 0x75D PUSH2 0x6E8 JUMP JUMPDEST JUMPDEST DUP3 CALLDATALOAD SWAP1 POP PUSH8 0xFFFFFFFFFFFFFFFF DUP2 GT ISZERO PUSH2 0x77B JUMPI PUSH2 0x77A PUSH2 0x6EC JUMP JUMPDEST JUMPDEST PUSH1 0x20 DUP4 ADD SWAP2 POP DUP4 PUSH1 0x1 DUP3 MUL DUP4 ADD GT ISZERO PUSH2 0x797 JUMPI PUSH2 0x796 PUSH2 0x6F0 JUMP JUMPDEST JUMPDEST SWAP3 POP SWAP3 SWAP1 POP JUMP JUMPDEST PUSH0 DUP1 PUSH0 DUP1 PUSH1 0x40 DUP6 DUP8 SUB SLT ISZERO PUSH2 0x7B6 JUMPI PUSH2 0x7B5 PUSH2 0x6E0 JUMP JUMPDEST JUMPDEST PUSH0 DUP6 ADD CALLDATALOAD PUSH8 0xFFFFFFFFFFFFFFFF DUP2 GT ISZERO PUSH2 0x7D3 JUMPI PUSH2 0x7D2 PUSH2 0x6E4 JUMP JUMPDEST JUMPDEST PUSH2 0x7DF DUP8 DUP3 DUP9 ADD PUSH2 0x6F4 JUMP JUMPDEST SWAP5 POP SWAP5 POP POP PUSH1 0x20 DUP6 ADD CALLDATALOAD PUSH8 0xFFFFFFFFFFFFFFFF DUP2 GT ISZERO PUSH2 0x802 JUMPI PUSH2 0x801 PUSH2 0x6E4 JUMP JUMPDEST JUMPDEST PUSH2 0x80E DUP8 DUP3 DUP9 ADD PUSH2 0x749 JUMP JUMPDEST SWAP3 POP SWAP3 POP POP SWAP3 SWAP6 SWAP2 SWAP5 POP SWAP3 POP JUMP JUMPDEST PUSH0 DUP2 MLOAD SWAP1 POP SWAP2 SWAP1 POP JUMP JUMPDEST PUSH0 DUP3 DUP3 MSTORE PUSH1 0x20 DUP3 ADD SWAP1 POP SWAP3 SWAP2 POP POP JUMP JUMPDEST PUSH0 DUP2 SWAP1 POP PUSH1 0x20 DUP3 ADD SWAP1 POP SWAP2 SWAP1 POP JUMP JUMPDEST PUSH0 DUP2 SWAP1 POP SWAP2 SWAP1 POP JUMP JUMPDEST PUSH2 0x857 DUP2 PUSH2 0x845 JUMP JUMPDEST DUP3 MSTORE POP POP JUMP JUMPDEST PUSH0 PUSH2 0x868 DUP4 DUP4 PUSH2 0x84E JUMP JUMPDEST PUSH1 0x20 DUP4 ADD SWAP1 POP SWAP3 SWAP2 POP POP JUMP JUMPDEST PUSH0 PUSH1 0x20 DUP3 ADD SWAP1 POP SWAP2 SWAP1 POP JUMP JUMPDEST PUSH0 PUSH2 0x88A DUP3 PUSH2 0x81C JUMP JUMPDEST PUSH2 0x894 DUP2 DUP6 PUSH2 0x826 JUMP JUMPDEST SWAP4 POP PUSH2 0x89F DUP4 PUSH2 0x836 JUMP JUMPDEST DUP1 PUSH0 JUMPDEST DUP4 DUP2 LT ISZERO PUSH2 0x8CF JUMPI DUP2 MLOAD PUSH2 0x8B6 DUP9 DUP3 PUSH2 0x85D JUMP JUMPDEST SWAP8 POP PUSH2 0x8C1 DUP4 PUSH2 0x874 JUMP JUMPDEST SWAP3 POP POP PUSH1 0x1 DUP2 ADD SWAP1 POP PUSH2 0x8A2 JUMP JUMPDEST POP DUP6 SWAP4 POP POP POP POP SWAP3 SWAP2 POP POP JUMP JUMPDEST PUSH0 PUSH1 0x20 DUP3 ADD SWAP1 POP DUP2 DUP2 SUB PUSH0 DUP4 ADD MSTORE PUSH2 0x8F4 DUP2 DUP5 PUSH2 0x880 JUMP JUMPDEST SWAP1 POP SWAP3 SWAP2 POP POP JUMP JUMPDEST PUSH0 PUSH20 0xFFFFFFFFFFFFFFFFFFFFFFFFFFFFFFFFFFFFFFFF DUP3 AND SWAP1 POP SWAP2 SWAP1 POP JUMP JUMPDEST PUSH0 PUSH2 0x925 DUP3 PUSH2 0x8FC JUMP JUMPDEST SWAP1 POP SWAP2 SWAP1 POP JUMP JUMPDEST PUSH2 0x935 DUP2 PUSH2 0x91B JUMP JUMPDEST DUP2 EQ PUSH2 0x93F JUMPI PUSH0 DUP1 REVERT JUMPDEST POP JUMP JUMPDEST PUSH0 DUP2 CALLDATALOAD SWAP1 POP PUSH2 0x950 DUP2 PUSH2 0x92C JUMP JUMPDEST SWAP3 SWAP2 POP POP JUMP JUMPDEST PUSH0 PUSH1 0x20 DUP3 DUP5 SUB SLT ISZERO PUSH2 0x96B JUMPI PUSH2 0x96A PUSH2 0x6E0 JUMP JUMPDEST JUMPDEST PUSH0 PUSH2 0x978 DUP5 DUP3 DUP6 ADD PUSH2 0x942 JUMP JUMPDEST SWAP2 POP POP SWAP3 SWAP2 POP POP JUMP JUMPDEST PUSH2 0x98A DUP2 PUSH2 0x845 JUMP JUMPDEST DUP3 MSTORE POP POP JUMP JUMPDEST PUSH0 DUP2 MLOAD SWAP1 POP SWAP2 SWAP1 POP JUMP JUMPDEST PUSH0 DUP3 DUP3 MSTORE PUSH1 0x20 DUP3 ADD SWAP1 POP SWAP3 SWAP2 POP POP JUMP JUMPDEST PUSH0 JUMPDEST DUP4 DUP2 LT ISZERO PUSH2 0x9C7 JUMPI DUP1 DUP3 ADD MLOAD DUP2 DUP5 ADD MSTORE PUSH1 0x20 DUP2 ADD SWAP1 POP PUSH2 0x9AC JUMP JUMPDEST PUSH0 DUP5 DUP5 ADD MSTORE POP POP POP POP JUMP JUMPDEST PUSH0 PUSH1 0x1F NOT PUSH1 0x1F DUP4 ADD AND SWAP1 POP SWAP2 SWAP1 POP JUMP JUMPDEST PUSH0 PUSH2 0x9EC DUP3 PUSH2 0x990 JUMP JUMPDEST PUSH2 0x9F6 DUP2 DUP6 PUSH2 0x99A JUMP JUMPDEST SWAP4 POP PUSH2 0xA06 DUP2 DUP6 PUSH1 0x20 DUP7 ADD PUSH2 0x9AA JUMP JUMPDEST PUSH2 0xA0F DUP2 PUSH2 0x9D2 JUMP JUMPDEST DUP5 ADD SWAP2 POP POP SWAP3 SWAP2 POP POP JUMP JUMPDEST PUSH0 PUSH1 0x40 DUP3 ADD SWAP1 POP PUSH2 0xA2D PUSH0 DUP4 ADD DUP6 PUSH2 0x981 JUMP JUMPDEST DUP2 DUP2 SUB PUSH1 0x20 DUP4 ADD MSTORE PUSH2 0xA3F DUP2 DUP5 PUSH2 0x9E2 JUMP JUMPDEST SWAP1 POP SWAP4 SWAP3 POP POP POP JUMP JUMPDEST PUSH32 0x4E487B7100000000000000000000000000000000000000000000000000000000 PUSH0 MSTORE PUSH1 0x41 PUSH1 0x4 MSTORE PUSH1 0x24 PUSH0 REVERT JUMPDEST PUSH2 0xA7E DUP3 PUSH2 0x9D2 JUMP JUMPDEST DUP2 ADD DUP2 DUP2 LT PUSH8 0xFFFFFFFFFFFFFFFF DUP3 GT OR ISZERO PUSH2 0xA9D JUMPI PUSH2 0xA9C PUSH2 0xA48 JUMP JUMPDEST JUMPDEST DUP1 PUSH1 0x40 MSTORE POP POP POP JUMP JUMPDEST PUSH0 PUSH2 0xAAF PUSH2 0x6D7 JUMP JUMPDEST SWAP1 POP PUSH2 0xABB DUP3 DUP3 PUSH2 0xA75 JUMP JUMPDEST SWAP2 SWAP1 POP JUMP JUMPDEST PUSH0 PUSH8 0xFFFFFFFFFFFFFFFF DUP3 GT ISZERO PUSH2 0xADA JUMPI PUSH2 0xAD9 PUSH2 0xA48 JUMP JUMPDEST JUMPDEST PUSH1 0x20 DUP3 MUL SWAP1 POP PUSH1 0x20 DUP2 ADD SWAP1 POP SWAP2 SWAP1 POP JUMP JUMPDEST PUSH2 0xAF4 DUP2 PUSH2 0x845 JUMP JUMPDEST DUP2 EQ PUSH2 0xAFE JUMPI PUSH0 DUP1 REVERT JUMPDEST POP JUMP JUMPDEST PUSH0 DUP2 CALLDATALOAD SWAP1 POP PUSH2 0xB0F DUP2 PUSH2 0xAEB JUMP JUMPDEST SWAP3 SWAP2 POP POP JUMP JUMPDEST PUSH0 PUSH2 0xB27 PUSH2 0xB22 DUP5 PUSH2 0xAC0 JUMP JUMPDEST PUSH2 0xAA6 JUMP JUMPDEST SWAP1 POP DUP1 DUP4 DUP3 MSTORE PUSH1 0x20 DUP3 ADD SWAP1 POP PUSH1 0x20 DUP5 MUL DUP4 ADD DUP6 DUP2 GT ISZERO PUSH2 0xB4A JUMPI PUSH2 0xB49 PUSH2 0x6F0 JUMP JUMPDEST JUMPDEST DUP4 JUMPDEST DUP2 DUP2 LT ISZERO PUSH2 0xB73 JUMPI DUP1 PUSH2 0xB5F DUP9 DUP3 PUSH2 0xB01 JUMP JUMPDEST DUP5 MSTORE PUSH1 0x20 DUP5 ADD SWAP4 POP POP PUSH1 0x20 DUP2 ADD SWAP1 POP PUSH2 0xB4C JUMP JUMPDEST POP POP POP SWAP4 SWAP3 POP POP POP JUMP JUMPDEST PUSH0 DUP3 PUSH1 0x1F DUP4 ADD SLT PUSH2 0xB91 JUMPI PUSH2 0xB90 PUSH2 0x6E8 JUMP JUMPDEST JUMPDEST DUP2 CALLDATALOAD PUSH2 0xBA1 DUP5 DUP3 PUSH1 0x20 DUP7 ADD PUSH2 0xB15 JUMP JUMPDEST SWAP2 POP POP SWAP3 SWAP2 POP POP JUMP JUMPDEST PUSH0 DUP1 REVERT JUMPDEST PUSH0 PUSH8 0xFFFFFFFFFFFFFFFF DUP3 GT ISZERO PUSH2 0xBC8 JUMPI PUSH2 0xBC7 PUSH2 0xA48 JUMP JUMPDEST JUMPDEST PUSH2 0xBD1 DUP3 PUSH2 0x9D2 JUMP JUMPDEST SWAP1 POP PUSH1 0x20 DUP2 ADD SWAP1 POP SWAP2 SWAP1 POP JUMP JUMPDEST DUP3 DUP2 DUP4 CALLDATACOPY PUSH0 DUP4 DUP4 ADD MSTORE POP POP POP JUMP JUMPDEST PUSH0 PUSH2 0xBFE PUSH2 0xBF9 DUP5 PUSH2 0xBAE JUMP JUMPDEST PUSH2 0xAA6 JUMP JUMPDEST SWAP1 POP DUP3 DUP2 MSTORE PUSH1 0x20 DUP2 ADD DUP5 DUP5 DUP5 ADD GT ISZERO PUSH2 0xC1A JUMPI PUSH2 0xC19 PUSH2 0xBAA JUMP JUMPDEST JUMPDEST PUSH2 0xC25 DUP5 DUP3 DUP6 PUSH2 0xBDE JUMP JUMPDEST POP SWAP4 SWAP3 POP POP POP JUMP JUMPDEST PUSH0 DUP3 PUSH1 0x1F DUP4 ADD SLT PUSH2 0xC41 JUMPI PUSH2 0xC40 PUSH2 0x6E8 JUMP JUMPDEST JUMPDEST DUP2 CALLDATALOAD PUSH2 0xC51 DUP5 DUP3 PUSH1 0x20 DUP7 ADD PUSH2 0xBEC JUMP JUMPDEST SWAP2 POP POP SWAP3 SWAP2 POP POP JUMP JUMPDEST PUSH0 DUP1 PUSH1 0x40 DUP4 DUP6 SUB SLT ISZERO PUSH2 0xC70 JUMPI PUSH2 0xC6F PUSH2 0x6E0 JUMP JUMPDEST JUMPDEST PUSH0 DUP4 ADD CALLDATALOAD PUSH8 0xFFFFFFFFFFFFFFFF DUP2 GT ISZERO PUSH2 0xC8D JUMPI PUSH2 0xC8C PUSH2 0x6E4 JUMP JUMPDEST JUMPDEST PUSH2 0xC99 DUP6 DUP3 DUP7 ADD PUSH2 0xB7D JUMP JUMPDEST SWAP3 POP POP PUSH1 0x20 DUP4 ADD CALLDATALOAD PUSH8 0xFFFFFFFFFFFFFFFF DUP2 GT ISZERO PUSH2 0xCBA JUMPI PUSH2 0xCB9 PUSH2 0x6E4 JUMP JUMPDEST JUMPDEST PUSH2 0xCC6 DUP6 DUP3 DUP7 ADD PUSH2 0xC2D JUMP JUMPDEST SWAP2 POP POP SWAP3 POP SWAP3 SWAP1 POP JUMP JUMPDEST PUSH32 0x4E487B7100000000000000000000000000000000000000000000000000000000 PUSH0 MSTORE PUSH1 0x22 PUSH1 0x4 MSTORE PUSH1 0x24 PUSH0 REVERT JUMPDEST PUSH0 PUSH1 0x2 DUP3 DIV SWAP1 POP PUSH1 0x1 DUP3 AND DUP1 PUSH2 0xD14 JUMPI PUSH1 0x7F DUP3 AND SWAP2 POP JUMPDEST PUSH1 0x20 DUP3 LT DUP2 SUB PUSH2 0xD27 JUMPI PUSH2 0xD26 PUSH2 0xCD0 JUMP JUMPDEST JUMPDEST POP SWAP2 SWAP1 POP JUMP JUMPDEST PUSH0 DUP2 SWAP1 POP DUP2 PUSH0 MSTORE PUSH1 0x20 PUSH0 KECCAK256 SWAP1 POP SWAP2 SWAP1 POP JUMP JUMPDEST PUSH0 PUSH1 0x20 PUSH1 0x1F DUP4 ADD DIV SWAP1 POP SWAP2 SWAP1 POP JUMP JUMPDEST PUSH0 DUP3 DUP3 SHL SWAP1 POP SWAP3 SWAP2 POP POP JUMP JUMPDEST PUSH0 PUSH1 0x8 DUP4 MUL PUSH2 0xD89 PUSH32 0xFFFFFFFFFFFFFFFFFFFFFFFFFFFFFFFFFFFFFFFFFFFFFFFFFFFFFFFFFFFFFFFF DUP3 PUSH2 0xD4E JUMP JUMPDEST PUSH2 0xD93 DUP7 DUP4 PUSH2 0xD4E JUMP JUMPDEST SWAP6 POP DUP1 NOT DUP5 AND SWAP4 POP DUP1 DUP7 AND DUP5 OR SWAP3 POP POP POP SWAP4 SWAP3 POP POP POP JUMP JUMPDEST PUSH0 DUP2 SWAP1 POP SWAP2 SWAP1 POP JUMP JUMPDEST PUSH0 PUSH2 0xDCE PUSH2 0xDC9 PUSH2 0xDC4 DUP5 PUSH2 0x845 JUMP JUMPDEST PUSH2 0xDAB JUMP JUMPDEST PUSH2 0x845 JUMP JUMPDEST SWAP1 POP SWAP2 SWAP1 POP JUMP JUMPDEST PUSH0 DUP2 SWAP1 POP SWAP2 SWAP1 POP JUMP JUMPDEST PUSH2 0xDE7 DUP4 PUSH2 0xDB4 JUMP JUMPDEST PUSH2 0xDFB PUSH2 0xDF3 DUP3 PUSH2 0xDD5 JUMP JUMPDEST DUP5 DUP5 SLOAD PUSH2 0xD5A JUMP JUMPDEST DUP3 SSTORE POP POP POP POP JUMP JUMPDEST PUSH0 SWAP1 JUMP JUMPDEST PUSH2 0xE0F PUSH2 0xE03 JUMP JUMPDEST PUSH2 0xE1A DUP2 DUP5 DUP5 PUSH2 0xDDE JUMP JUMPDEST POP POP POP JUMP JUMPDEST JUMPDEST DUP2 DUP2 LT ISZERO PUSH2 0xE3D JUMPI PUSH2 0xE32 PUSH0 DUP3 PUSH2 0xE07 JUMP JUMPDEST PUSH1 0x1 DUP2 ADD SWAP1 POP PUSH2 0xE20 JUMP JUMPDEST POP POP JUMP JUMPDEST PUSH1 0x1F DUP3 GT ISZERO PUSH2 0xE82 JUMPI PUSH2 0xE53 DUP2 PUSH2 0xD2D JUMP JUMPDEST PUSH2 0xE5C DUP5 PUSH2 0xD3F JUMP JUMPDEST DUP2 ADD PUSH1 0x20 DUP6 LT ISZERO PUSH2 0xE6B JUMPI DUP2 SWAP1 POP JUMPDEST PUSH2 0xE7F PUSH2 0xE77 DUP6 PUSH2 0xD3F JUMP JUMPDEST DUP4 ADD DUP3 PUSH2 0xE1F JUMP JUMPDEST POP POP JUMPDEST POP POP POP JUMP JUMPDEST PUSH0 DUP3 DUP3 SHR SWAP1 POP SWAP3 SWAP2 POP POP JUMP JUMPDEST PUSH0 PUSH2 0xEA2 PUSH0 NOT DUP5 PUSH1 0x8 MUL PUSH2 0xE87 JUMP JUMPDEST NOT DUP1 DUP4 AND SWAP2 POP POP SWAP3 SWAP2 POP POP JUMP JUMPDEST PUSH0 PUSH2 0xEBA DUP4 DUP4 PUSH2 0xE93 JUMP JUMPDEST SWAP2 POP DUP3 PUSH1 0x2 MUL DUP3 OR SWAP1 POP SWAP3 SWAP2 POP POP JUMP JUMPDEST PUSH2 0xED3 DUP3 PUSH2 0x990 JUMP JUMPDEST PUSH8 0xFFFFFFFFFFFFFFFF DUP2 GT ISZERO PUSH2 0xEEC JUMPI PUSH2 0xEEB PUSH2 0xA48 JUMP JUMPDEST JUMPDEST PUSH2 0xEF6 DUP3 SLOAD PUSH2 0xCFD JUMP JUMPDEST PUSH2 0xF01 DUP3 DUP3 DUP6 PUSH2 0xE41 JUMP JUMPDEST PUSH0 PUSH1 0x20 SWAP1 POP PUSH1 0x1F DUP4 GT PUSH1 0x1 DUP2 EQ PUSH2 0xF32 JUMPI PUSH0 DUP5 ISZERO PUSH2 0xF20 JUMPI DUP3 DUP8 ADD MLOAD SWAP1 POP JUMPDEST PUSH2 0xF2A DUP6 DUP3 PUSH2 0xEAF JUMP JUMPDEST DUP7 SSTORE POP PUSH2 0xF91 JUMP JUMPDEST PUSH1 0x1F NOT DUP5 AND PUSH2 0xF40 DUP7 PUSH2 0xD2D JUMP JUMPDEST PUSH0 JUMPDEST DUP3 DUP2 LT ISZERO PUSH2 0xF67 JUMPI DUP5 DUP10 ADD MLOAD DUP3 SSTORE PUSH1 0x1 DUP3 ADD SWAP2 POP PUSH1 0x20 DUP6 ADD SWAP5 POP PUSH1 0x20 DUP2 ADD SWAP1 POP PUSH2 0xF42 JUMP JUMPDEST DUP7 DUP4 LT ISZERO PUSH2 0xF84 JUMPI DUP5 DUP10 ADD MLOAD PUSH2 0xF80 PUSH1 0x1F DUP10 AND DUP3 PUSH2 0xE93 JUMP JUMPDEST DUP4 SSTORE POP JUMPDEST PUSH1 0x1 PUSH1 0x2 DUP9 MUL ADD DUP9 SSTORE POP POP POP JUMPDEST POP POP POP POP POP POP JUMP JUMPDEST PUSH32 0x4E487B7100000000000000000000000000000000000000000000000000000000 PUSH0 MSTORE PUSH1 0x32 PUSH1 0x4 MSTORE PUSH1 0x24 PUSH0 REVERT INVALID LOG2 PUSH5 0x6970667358 0x22 SLT KECCAK256 0xC5 0xC4 0xB1 0x4A 0xC2 0xBB 0xBE DUP12 0xA6 0xDB DUP12 0xAC 0x22 0xD2 0xAC 0xB9 GAS 0xD5 0xF8 SLT 0x4C 0xC3 DUP13 EXP 0xDD MSIZE 0xE9 PUSH3 0x2B5B98 0xBA PUSH5 0x736F6C6343 STOP ADDMOD AND STOP CALLER "
				},
				"gasEstimates": {
					"creation": {
						"codeDepositCost": "818400",
						"executionCost": "849",
						"totalCost": "819249"
					},
					"external": {
						"examples(uint256[],string)": "infinite",
						"examples2(uint256[],string)": "infinite",
						"myStructs(address)": "infinite"
					},
					"internal": {
						"_internal(uint256[] calldata)": "76"
					}
				},
				"methodIdentifiers": {
					"examples(uint256[],string)": "fc277a95",
					"examples2(uint256[],string)": "a701d733",
					"myStructs(address)": "b43c5d33"
				}
			},
			"storageLayout": {
				"storage": [
					{
						"astId": 11,
						"contract": "contracts/22. Data Locations.sol:DataLocations",
						"label": "myStructs",
						"offset": 0,
						"slot": "0",
						"type": "t_mapping(t_address,t_struct(MyStruct)6_storage)"
					}
				],
				"types": {
					"t_address": {
						"encoding": "inplace",
						"label": "address",
						"numberOfBytes": "20"
					},
					"t_mapping(t_address,t_struct(MyStruct)6_storage)": {
						"encoding": "mapping",
						"key": "t_address",
						"label": "mapping(address => struct DataLocations.MyStruct)",
						"numberOfBytes": "32",
						"value": "t_struct(MyStruct)6_storage"
					},
					"t_string_storage": {
						"encoding": "bytes",
						"label": "string",
						"numberOfBytes": "32"
					},
					"t_struct(MyStruct)6_storage": {
						"encoding": "inplace",
						"label": "struct DataLocations.MyStruct",
						"members": [
							{
								"astId": 3,
								"contract": "contracts/22. Data Locations.sol:DataLocations",
								"label": "foo",
								"offset": 0,
								"slot": "0",
								"type": "t_uint256"
							},
							{
								"astId": 5,
								"contract": "contracts/22. Data Locations.sol:DataLocations",
								"label": "text",
								"offset": 0,
								"slot": "1",
								"type": "t_string_storage"
							}
						],
						"numberOfBytes": "64"
					},
					"t_uint256": {
						"encoding": "inplace",
						"label": "uint256",
						"numberOfBytes": "32"
					}
				}
			},
			"userdoc": {
				"kind": "user",
				"methods": {},
				"version": 1
			}
		}
	}
}