{
	"contracts/52. Re-entrancy.sol": {
		"EthBank": {
			"abi": [
				{
					"inputs": [
						{
							"internalType": "address",
							"name": "",
							"type": "address"
						}
					],
					"name": "balances",
					"outputs": [
						{
							"internalType": "uint256",
							"name": "",
							"type": "uint256"
						}
					],
					"stateMutability": "view",
					"type": "function"
				},
				{
					"inputs": [],
					"name": "deposit",
					"outputs": [],
					"stateMutability": "payable",
					"type": "function"
				},
				{
					"inputs": [],
					"name": "withdraw",
					"outputs": [],
					"stateMutability": "payable",
					"type": "function"
				}
			],
			"devdoc": {
				"kind": "dev",
				"methods": {},
				"version": 1
			},
			"evm": {
				"assembly": "    /* \"contracts/52. Re-entrancy.sol\":58:423  contract EthBank {... */\n  mstore(0x40, 0x80)\n  callvalue\n  dup1\n  iszero\n  tag_1\n  jumpi\n  0x00\n  dup1\n  revert\ntag_1:\n  pop\n  dataSize(sub_0)\n  dup1\n  dataOffset(sub_0)\n  0x00\n  codecopy\n  0x00\n  return\nstop\n\nsub_0: assembly {\n        /* \"contracts/52. Re-entrancy.sol\":58:423  contract EthBank {... */\n      mstore(0x40, 0x80)\n      jumpi(tag_1, lt(calldatasize, 0x04))\n      shr(0xe0, calldataload(0x00))\n      dup1\n      0x27e235e3\n      eq\n      tag_2\n      jumpi\n      dup1\n      0x3ccfd60b\n      eq\n      tag_3\n      jumpi\n      dup1\n      0xd0e30db0\n      eq\n      tag_4\n      jumpi\n    tag_1:\n      0x00\n      dup1\n      revert\n        /* \"contracts/52. Re-entrancy.sol\":81:124  mapping(address => uint256) public balances */\n    tag_2:\n      callvalue\n      dup1\n      iszero\n      tag_5\n      jumpi\n      0x00\n      dup1\n      revert\n    tag_5:\n      pop\n      tag_6\n      0x04\n      dup1\n      calldatasize\n      sub\n      dup2\n      add\n      swap1\n      tag_7\n      swap2\n      swap1\n      tag_8\n      jump\t// in\n    tag_7:\n      tag_9\n      jump\t// in\n    tag_6:\n      mload(0x40)\n      tag_10\n      swap2\n      swap1\n      tag_11\n      jump\t// in\n    tag_10:\n      mload(0x40)\n      dup1\n      swap2\n      sub\n      swap1\n      return\n        /* \"contracts/52. Re-entrancy.sol\":223:421  function withdraw() external payable {... */\n    tag_3:\n      tag_12\n      tag_13\n      jump\t// in\n    tag_12:\n      stop\n        /* \"contracts/52. Re-entrancy.sol\":131:217  function deposit() external payable {... */\n    tag_4:\n      tag_14\n      tag_15\n      jump\t// in\n    tag_14:\n      stop\n        /* \"contracts/52. Re-entrancy.sol\":81:124  mapping(address => uint256) public balances */\n    tag_9:\n      mstore(0x20, 0x00)\n      dup1\n      0x00\n      mstore\n      keccak256(0x00, 0x40)\n      0x00\n      swap2\n      pop\n      swap1\n      pop\n      sload\n      dup2\n      jump\t// out\n        /* \"contracts/52. Re-entrancy.sol\":223:421  function withdraw() external payable {... */\n    tag_13:\n        /* \"contracts/52. Re-entrancy.sol\":271:280  bool sent */\n      0x00\n        /* \"contracts/52. Re-entrancy.sol\":286:296  msg.sender */\n      caller\n        /* \"contracts/52. Re-entrancy.sol\":286:301  msg.sender.call */\n      0xffffffffffffffffffffffffffffffffffffffff\n      and\n        /* \"contracts/52. Re-entrancy.sol\":309:317  balances */\n      0x00\n        /* \"contracts/52. Re-entrancy.sol\":309:329  balances[msg.sender] */\n      dup1\n        /* \"contracts/52. Re-entrancy.sol\":318:328  msg.sender */\n      caller\n        /* \"contracts/52. Re-entrancy.sol\":309:329  balances[msg.sender] */\n      0xffffffffffffffffffffffffffffffffffffffff\n      and\n      0xffffffffffffffffffffffffffffffffffffffff\n      and\n      dup2\n      mstore\n      0x20\n      add\n      swap1\n      dup2\n      mstore\n      0x20\n      add\n      0x00\n      keccak256\n      sload\n        /* \"contracts/52. Re-entrancy.sol\":286:334  msg.sender.call{value: balances[msg.sender]}(\"\") */\n      mload(0x40)\n      tag_17\n      swap1\n      tag_18\n      jump\t// in\n    tag_17:\n      0x00\n      mload(0x40)\n      dup1\n      dup4\n      sub\n      dup2\n      dup6\n      dup8\n      gas\n      call\n      swap3\n      pop\n      pop\n      pop\n      returndatasize\n      dup1\n      0x00\n      dup2\n      eq\n      tag_21\n      jumpi\n      mload(0x40)\n      swap2\n      pop\n      and(add(returndatasize, 0x3f), not(0x1f))\n      dup3\n      add\n      0x40\n      mstore\n      returndatasize\n      dup3\n      mstore\n      returndatasize\n      0x00\n      0x20\n      dup5\n      add\n      returndatacopy\n      jump(tag_20)\n    tag_21:\n      0x60\n      swap2\n      pop\n    tag_20:\n      pop\n        /* \"contracts/52. Re-entrancy.sol\":270:334  (bool sent, ) = msg.sender.call{value: balances[msg.sender]}(\"\") */\n      pop\n      swap1\n      pop\n        /* \"contracts/52. Re-entrancy.sol\":352:356  sent */\n      dup1\n        /* \"contracts/52. Re-entrancy.sol\":344:379  require(sent, \"failed to send ETH\") */\n      tag_22\n      jumpi\n      mload(0x40)\n      0x08c379a000000000000000000000000000000000000000000000000000000000\n      dup2\n      mstore\n      0x04\n      add\n      tag_23\n      swap1\n      tag_24\n      jump\t// in\n    tag_23:\n      mload(0x40)\n      dup1\n      swap2\n      sub\n      swap1\n      revert\n    tag_22:\n        /* \"contracts/52. Re-entrancy.sol\":413:414  0 */\n      0x00\n        /* \"contracts/52. Re-entrancy.sol\":390:398  balances */\n      dup1\n        /* \"contracts/52. Re-entrancy.sol\":390:410  balances[msg.sender] */\n      0x00\n        /* \"contracts/52. Re-entrancy.sol\":399:409  msg.sender */\n      caller\n        /* \"contracts/52. Re-entrancy.sol\":390:410  balances[msg.sender] */\n      0xffffffffffffffffffffffffffffffffffffffff\n      and\n      0xffffffffffffffffffffffffffffffffffffffff\n      and\n      dup2\n      mstore\n      0x20\n      add\n      swap1\n      dup2\n      mstore\n      0x20\n      add\n      0x00\n      keccak256\n        /* \"contracts/52. Re-entrancy.sol\":390:414  balances[msg.sender] = 0 */\n      dup2\n      swap1\n      sstore\n      pop\n        /* \"contracts/52. Re-entrancy.sol\":260:421  {... */\n      pop\n        /* \"contracts/52. Re-entrancy.sol\":223:421  function withdraw() external payable {... */\n      jump\t// out\n        /* \"contracts/52. Re-entrancy.sol\":131:217  function deposit() external payable {... */\n    tag_15:\n        /* \"contracts/52. Re-entrancy.sol\":201:210  msg.value */\n      callvalue\n        /* \"contracts/52. Re-entrancy.sol\":177:185  balances */\n      0x00\n        /* \"contracts/52. Re-entrancy.sol\":177:197  balances[msg.sender] */\n      dup1\n        /* \"contracts/52. Re-entrancy.sol\":186:196  msg.sender */\n      caller\n        /* \"contracts/52. Re-entrancy.sol\":177:197  balances[msg.sender] */\n      0xffffffffffffffffffffffffffffffffffffffff\n      and\n      0xffffffffffffffffffffffffffffffffffffffff\n      and\n      dup2\n      mstore\n      0x20\n      add\n      swap1\n      dup2\n      mstore\n      0x20\n      add\n      0x00\n      keccak256\n      0x00\n        /* \"contracts/52. Re-entrancy.sol\":177:210  balances[msg.sender] += msg.value */\n      dup3\n      dup3\n      sload\n      tag_26\n      swap2\n      swap1\n      tag_27\n      jump\t// in\n    tag_26:\n      swap3\n      pop\n      pop\n      dup2\n      swap1\n      sstore\n      pop\n        /* \"contracts/52. Re-entrancy.sol\":131:217  function deposit() external payable {... */\n      jump\t// out\n        /* \"#utility.yul\":88:205   */\n    tag_29:\n        /* \"#utility.yul\":197:198   */\n      0x00\n        /* \"#utility.yul\":194:195   */\n      dup1\n        /* \"#utility.yul\":187:199   */\n      revert\n        /* \"#utility.yul\":334:460   */\n    tag_31:\n        /* \"#utility.yul\":371:378   */\n      0x00\n        /* \"#utility.yul\":411:453   */\n      0xffffffffffffffffffffffffffffffffffffffff\n        /* \"#utility.yul\":404:409   */\n      dup3\n        /* \"#utility.yul\":400:454   */\n      and\n        /* \"#utility.yul\":389:454   */\n      swap1\n      pop\n        /* \"#utility.yul\":334:460   */\n      swap2\n      swap1\n      pop\n      jump\t// out\n        /* \"#utility.yul\":466:562   */\n    tag_32:\n        /* \"#utility.yul\":503:510   */\n      0x00\n        /* \"#utility.yul\":532:556   */\n      tag_50\n        /* \"#utility.yul\":550:555   */\n      dup3\n        /* \"#utility.yul\":532:556   */\n      tag_31\n      jump\t// in\n    tag_50:\n        /* \"#utility.yul\":521:556   */\n      swap1\n      pop\n        /* \"#utility.yul\":466:562   */\n      swap2\n      swap1\n      pop\n      jump\t// out\n        /* \"#utility.yul\":568:690   */\n    tag_33:\n        /* \"#utility.yul\":641:665   */\n      tag_52\n        /* \"#utility.yul\":659:664   */\n      dup2\n        /* \"#utility.yul\":641:665   */\n      tag_32\n      jump\t// in\n    tag_52:\n        /* \"#utility.yul\":634:639   */\n      dup2\n        /* \"#utility.yul\":631:666   */\n      eq\n        /* \"#utility.yul\":621:684   */\n      tag_53\n      jumpi\n        /* \"#utility.yul\":680:681   */\n      0x00\n        /* \"#utility.yul\":677:678   */\n      dup1\n        /* \"#utility.yul\":670:682   */\n      revert\n        /* \"#utility.yul\":621:684   */\n    tag_53:\n        /* \"#utility.yul\":568:690   */\n      pop\n      jump\t// out\n        /* \"#utility.yul\":696:835   */\n    tag_34:\n        /* \"#utility.yul\":742:747   */\n      0x00\n        /* \"#utility.yul\":780:786   */\n      dup2\n        /* \"#utility.yul\":767:787   */\n      calldataload\n        /* \"#utility.yul\":758:787   */\n      swap1\n      pop\n        /* \"#utility.yul\":796:829   */\n      tag_55\n        /* \"#utility.yul\":823:828   */\n      dup2\n        /* \"#utility.yul\":796:829   */\n      tag_33\n      jump\t// in\n    tag_55:\n        /* \"#utility.yul\":696:835   */\n      swap3\n      swap2\n      pop\n      pop\n      jump\t// out\n        /* \"#utility.yul\":841:1170   */\n    tag_8:\n        /* \"#utility.yul\":900:906   */\n      0x00\n        /* \"#utility.yul\":949:951   */\n      0x20\n        /* \"#utility.yul\":937:946   */\n      dup3\n        /* \"#utility.yul\":928:935   */\n      dup5\n        /* \"#utility.yul\":924:947   */\n      sub\n        /* \"#utility.yul\":920:952   */\n      slt\n        /* \"#utility.yul\":917:1036   */\n      iszero\n      tag_57\n      jumpi\n        /* \"#utility.yul\":955:1034   */\n      tag_58\n      tag_29\n      jump\t// in\n    tag_58:\n        /* \"#utility.yul\":917:1036   */\n    tag_57:\n        /* \"#utility.yul\":1075:1076   */\n      0x00\n        /* \"#utility.yul\":1100:1153   */\n      tag_59\n        /* \"#utility.yul\":1145:1152   */\n      dup5\n        /* \"#utility.yul\":1136:1142   */\n      dup3\n        /* \"#utility.yul\":1125:1134   */\n      dup6\n        /* \"#utility.yul\":1121:1143   */\n      add\n        /* \"#utility.yul\":1100:1153   */\n      tag_34\n      jump\t// in\n    tag_59:\n        /* \"#utility.yul\":1090:1153   */\n      swap2\n      pop\n        /* \"#utility.yul\":1046:1163   */\n      pop\n        /* \"#utility.yul\":841:1170   */\n      swap3\n      swap2\n      pop\n      pop\n      jump\t// out\n        /* \"#utility.yul\":1176:1253   */\n    tag_35:\n        /* \"#utility.yul\":1213:1220   */\n      0x00\n        /* \"#utility.yul\":1242:1247   */\n      dup2\n        /* \"#utility.yul\":1231:1247   */\n      swap1\n      pop\n        /* \"#utility.yul\":1176:1253   */\n      swap2\n      swap1\n      pop\n      jump\t// out\n        /* \"#utility.yul\":1259:1377   */\n    tag_36:\n        /* \"#utility.yul\":1346:1370   */\n      tag_62\n        /* \"#utility.yul\":1364:1369   */\n      dup2\n        /* \"#utility.yul\":1346:1370   */\n      tag_35\n      jump\t// in\n    tag_62:\n        /* \"#utility.yul\":1341:1344   */\n      dup3\n        /* \"#utility.yul\":1334:1371   */\n      mstore\n        /* \"#utility.yul\":1259:1377   */\n      pop\n      pop\n      jump\t// out\n        /* \"#utility.yul\":1383:1605   */\n    tag_11:\n        /* \"#utility.yul\":1476:1480   */\n      0x00\n        /* \"#utility.yul\":1514:1516   */\n      0x20\n        /* \"#utility.yul\":1503:1512   */\n      dup3\n        /* \"#utility.yul\":1499:1517   */\n      add\n        /* \"#utility.yul\":1491:1517   */\n      swap1\n      pop\n        /* \"#utility.yul\":1527:1598   */\n      tag_64\n        /* \"#utility.yul\":1595:1596   */\n      0x00\n        /* \"#utility.yul\":1584:1593   */\n      dup4\n        /* \"#utility.yul\":1580:1597   */\n      add\n        /* \"#utility.yul\":1571:1577   */\n      dup5\n        /* \"#utility.yul\":1527:1598   */\n      tag_36\n      jump\t// in\n    tag_64:\n        /* \"#utility.yul\":1383:1605   */\n      swap3\n      swap2\n      pop\n      pop\n      jump\t// out\n        /* \"#utility.yul\":1611:1758   */\n    tag_37:\n        /* \"#utility.yul\":1712:1723   */\n      0x00\n        /* \"#utility.yul\":1749:1752   */\n      dup2\n        /* \"#utility.yul\":1734:1752   */\n      swap1\n      pop\n        /* \"#utility.yul\":1611:1758   */\n      swap3\n      swap2\n      pop\n      pop\n      jump\t// out\n        /* \"#utility.yul\":1764:1878   */\n    tag_38:\n      pop\n      jump\t// out\n        /* \"#utility.yul\":1884:2282   */\n    tag_39:\n        /* \"#utility.yul\":2043:2046   */\n      0x00\n        /* \"#utility.yul\":2064:2147   */\n      tag_68\n        /* \"#utility.yul\":2145:2146   */\n      0x00\n        /* \"#utility.yul\":2140:2143   */\n      dup4\n        /* \"#utility.yul\":2064:2147   */\n      tag_37\n      jump\t// in\n    tag_68:\n        /* \"#utility.yul\":2057:2147   */\n      swap2\n      pop\n        /* \"#utility.yul\":2156:2249   */\n      tag_69\n        /* \"#utility.yul\":2245:2248   */\n      dup3\n        /* \"#utility.yul\":2156:2249   */\n      tag_38\n      jump\t// in\n    tag_69:\n        /* \"#utility.yul\":2274:2275   */\n      0x00\n        /* \"#utility.yul\":2269:2272   */\n      dup3\n        /* \"#utility.yul\":2265:2276   */\n      add\n        /* \"#utility.yul\":2258:2276   */\n      swap1\n      pop\n        /* \"#utility.yul\":1884:2282   */\n      swap2\n      swap1\n      pop\n      jump\t// out\n        /* \"#utility.yul\":2288:2667   */\n    tag_18:\n        /* \"#utility.yul\":2472:2475   */\n      0x00\n        /* \"#utility.yul\":2494:2641   */\n      tag_71\n        /* \"#utility.yul\":2637:2640   */\n      dup3\n        /* \"#utility.yul\":2494:2641   */\n      tag_39\n      jump\t// in\n    tag_71:\n        /* \"#utility.yul\":2487:2641   */\n      swap2\n      pop\n        /* \"#utility.yul\":2658:2661   */\n      dup2\n        /* \"#utility.yul\":2651:2661   */\n      swap1\n      pop\n        /* \"#utility.yul\":2288:2667   */\n      swap2\n      swap1\n      pop\n      jump\t// out\n        /* \"#utility.yul\":2673:2842   */\n    tag_40:\n        /* \"#utility.yul\":2757:2768   */\n      0x00\n        /* \"#utility.yul\":2791:2797   */\n      dup3\n        /* \"#utility.yul\":2786:2789   */\n      dup3\n        /* \"#utility.yul\":2779:2798   */\n      mstore\n        /* \"#utility.yul\":2831:2835   */\n      0x20\n        /* \"#utility.yul\":2826:2829   */\n      dup3\n        /* \"#utility.yul\":2822:2836   */\n      add\n        /* \"#utility.yul\":2807:2836   */\n      swap1\n      pop\n        /* \"#utility.yul\":2673:2842   */\n      swap3\n      swap2\n      pop\n      pop\n      jump\t// out\n        /* \"#utility.yul\":2848:3016   */\n    tag_41:\n        /* \"#utility.yul\":2988:3008   */\n      0x6661696c656420746f2073656e64204554480000000000000000000000000000\n        /* \"#utility.yul\":2984:2985   */\n      0x00\n        /* \"#utility.yul\":2976:2982   */\n      dup3\n        /* \"#utility.yul\":2972:2986   */\n      add\n        /* \"#utility.yul\":2965:3009   */\n      mstore\n        /* \"#utility.yul\":2848:3016   */\n      pop\n      jump\t// out\n        /* \"#utility.yul\":3022:3388   */\n    tag_42:\n        /* \"#utility.yul\":3164:3167   */\n      0x00\n        /* \"#utility.yul\":3185:3252   */\n      tag_75\n        /* \"#utility.yul\":3249:3251   */\n      0x12\n        /* \"#utility.yul\":3244:3247   */\n      dup4\n        /* \"#utility.yul\":3185:3252   */\n      tag_40\n      jump\t// in\n    tag_75:\n        /* \"#utility.yul\":3178:3252   */\n      swap2\n      pop\n        /* \"#utility.yul\":3261:3354   */\n      tag_76\n        /* \"#utility.yul\":3350:3353   */\n      dup3\n        /* \"#utility.yul\":3261:3354   */\n      tag_41\n      jump\t// in\n    tag_76:\n        /* \"#utility.yul\":3379:3381   */\n      0x20\n        /* \"#utility.yul\":3374:3377   */\n      dup3\n        /* \"#utility.yul\":3370:3382   */\n      add\n        /* \"#utility.yul\":3363:3382   */\n      swap1\n      pop\n        /* \"#utility.yul\":3022:3388   */\n      swap2\n      swap1\n      pop\n      jump\t// out\n        /* \"#utility.yul\":3394:3813   */\n    tag_24:\n        /* \"#utility.yul\":3560:3564   */\n      0x00\n        /* \"#utility.yul\":3598:3600   */\n      0x20\n        /* \"#utility.yul\":3587:3596   */\n      dup3\n        /* \"#utility.yul\":3583:3601   */\n      add\n        /* \"#utility.yul\":3575:3601   */\n      swap1\n      pop\n        /* \"#utility.yul\":3647:3656   */\n      dup2\n        /* \"#utility.yul\":3641:3645   */\n      dup2\n        /* \"#utility.yul\":3637:3657   */\n      sub\n        /* \"#utility.yul\":3633:3634   */\n      0x00\n        /* \"#utility.yul\":3622:3631   */\n      dup4\n        /* \"#utility.yul\":3618:3635   */\n      add\n        /* \"#utility.yul\":3611:3658   */\n      mstore\n        /* \"#utility.yul\":3675:3806   */\n      tag_78\n        /* \"#utility.yul\":3801:3805   */\n      dup2\n        /* \"#utility.yul\":3675:3806   */\n      tag_42\n      jump\t// in\n    tag_78:\n        /* \"#utility.yul\":3667:3806   */\n      swap1\n      pop\n        /* \"#utility.yul\":3394:3813   */\n      swap2\n      swap1\n      pop\n      jump\t// out\n        /* \"#utility.yul\":3819:3999   */\n    tag_43:\n        /* \"#utility.yul\":3867:3944   */\n      0x4e487b7100000000000000000000000000000000000000000000000000000000\n        /* \"#utility.yul\":3864:3865   */\n      0x00\n        /* \"#utility.yul\":3857:3945   */\n      mstore\n        /* \"#utility.yul\":3964:3968   */\n      0x11\n        /* \"#utility.yul\":3961:3962   */\n      0x04\n        /* \"#utility.yul\":3954:3969   */\n      mstore\n        /* \"#utility.yul\":3988:3992   */\n      0x24\n        /* \"#utility.yul\":3985:3986   */\n      0x00\n        /* \"#utility.yul\":3978:3993   */\n      revert\n        /* \"#utility.yul\":4005:4196   */\n    tag_27:\n        /* \"#utility.yul\":4045:4048   */\n      0x00\n        /* \"#utility.yul\":4064:4084   */\n      tag_81\n        /* \"#utility.yul\":4082:4083   */\n      dup3\n        /* \"#utility.yul\":4064:4084   */\n      tag_35\n      jump\t// in\n    tag_81:\n        /* \"#utility.yul\":4059:4084   */\n      swap2\n      pop\n        /* \"#utility.yul\":4098:4118   */\n      tag_82\n        /* \"#utility.yul\":4116:4117   */\n      dup4\n        /* \"#utility.yul\":4098:4118   */\n      tag_35\n      jump\t// in\n    tag_82:\n        /* \"#utility.yul\":4093:4118   */\n      swap3\n      pop\n        /* \"#utility.yul\":4141:4142   */\n      dup3\n        /* \"#utility.yul\":4138:4139   */\n      dup3\n        /* \"#utility.yul\":4134:4143   */\n      add\n        /* \"#utility.yul\":4127:4143   */\n      swap1\n      pop\n        /* \"#utility.yul\":4162:4165   */\n      dup1\n        /* \"#utility.yul\":4159:4160   */\n      dup3\n        /* \"#utility.yul\":4156:4166   */\n      gt\n        /* \"#utility.yul\":4153:4189   */\n      iszero\n      tag_83\n      jumpi\n        /* \"#utility.yul\":4169:4187   */\n      tag_84\n      tag_43\n      jump\t// in\n    tag_84:\n        /* \"#utility.yul\":4153:4189   */\n    tag_83:\n        /* \"#utility.yul\":4005:4196   */\n      swap3\n      swap2\n      pop\n      pop\n      jump\t// out\n\n    auxdata: 0xa264697066735822122031c82212cc975d85eb76b04daef1d3cf5401f48aadd8978c98534d6b13b0762c64736f6c63430008160033\n}\n",
				"bytecode": {
					"linkReferences": {},
					"object": "608060405234801561000f575f80fd5b506104208061001d5f395ff3fe608060405260043610610033575f3560e01c806327e235e3146100375780633ccfd60b14610073578063d0e30db01461007d575b5f80fd5b348015610042575f80fd5b5061005d60048036038101906100589190610275565b610087565b60405161006a91906102b8565b60405180910390f35b61007b61009b565b005b6100856101c3565b005b5f602052805f5260405f205f915090505481565b5f3373ffffffffffffffffffffffffffffffffffffffff165f803373ffffffffffffffffffffffffffffffffffffffff1673ffffffffffffffffffffffffffffffffffffffff1681526020019081526020015f20546040516100fc906102fe565b5f6040518083038185875af1925050503d805f8114610136576040519150601f19603f3d011682016040523d82523d5f602084013e61013b565b606091505b505090508061017f576040517f08c379a00000000000000000000000000000000000000000000000000000000081526004016101769061036c565b60405180910390fd5b5f805f3373ffffffffffffffffffffffffffffffffffffffff1673ffffffffffffffffffffffffffffffffffffffff1681526020019081526020015f208190555050565b345f803373ffffffffffffffffffffffffffffffffffffffff1673ffffffffffffffffffffffffffffffffffffffff1681526020019081526020015f205f82825461020e91906103b7565b92505081905550565b5f80fd5b5f73ffffffffffffffffffffffffffffffffffffffff82169050919050565b5f6102448261021b565b9050919050565b6102548161023a565b811461025e575f80fd5b50565b5f8135905061026f8161024b565b92915050565b5f6020828403121561028a57610289610217565b5b5f61029784828501610261565b91505092915050565b5f819050919050565b6102b2816102a0565b82525050565b5f6020820190506102cb5f8301846102a9565b92915050565b5f81905092915050565b50565b5f6102e95f836102d1565b91506102f4826102db565b5f82019050919050565b5f610308826102de565b9150819050919050565b5f82825260208201905092915050565b7f6661696c656420746f2073656e642045544800000000000000000000000000005f82015250565b5f610356601283610312565b915061036182610322565b602082019050919050565b5f6020820190508181035f8301526103838161034a565b9050919050565b7f4e487b71000000000000000000000000000000000000000000000000000000005f52601160045260245ffd5b5f6103c1826102a0565b91506103cc836102a0565b92508282019050808211156103e4576103e361038a565b5b9291505056fea264697066735822122031c82212cc975d85eb76b04daef1d3cf5401f48aadd8978c98534d6b13b0762c64736f6c63430008160033",
					"opcodes": "PUSH1 0x80 PUSH1 0x40 MSTORE CALLVALUE DUP1 ISZERO PUSH2 0xF JUMPI PUSH0 DUP1 REVERT JUMPDEST POP PUSH2 0x420 DUP1 PUSH2 0x1D PUSH0 CODECOPY PUSH0 RETURN INVALID PUSH1 0x80 PUSH1 0x40 MSTORE PUSH1 0x4 CALLDATASIZE LT PUSH2 0x33 JUMPI PUSH0 CALLDATALOAD PUSH1 0xE0 SHR DUP1 PUSH4 0x27E235E3 EQ PUSH2 0x37 JUMPI DUP1 PUSH4 0x3CCFD60B EQ PUSH2 0x73 JUMPI DUP1 PUSH4 0xD0E30DB0 EQ PUSH2 0x7D JUMPI JUMPDEST PUSH0 DUP1 REVERT JUMPDEST CALLVALUE DUP1 ISZERO PUSH2 0x42 JUMPI PUSH0 DUP1 REVERT JUMPDEST POP PUSH2 0x5D PUSH1 0x4 DUP1 CALLDATASIZE SUB DUP2 ADD SWAP1 PUSH2 0x58 SWAP2 SWAP1 PUSH2 0x275 JUMP JUMPDEST PUSH2 0x87 JUMP JUMPDEST PUSH1 0x40 MLOAD PUSH2 0x6A SWAP2 SWAP1 PUSH2 0x2B8 JUMP JUMPDEST PUSH1 0x40 MLOAD DUP1 SWAP2 SUB SWAP1 RETURN JUMPDEST PUSH2 0x7B PUSH2 0x9B JUMP JUMPDEST STOP JUMPDEST PUSH2 0x85 PUSH2 0x1C3 JUMP JUMPDEST STOP JUMPDEST PUSH0 PUSH1 0x20 MSTORE DUP1 PUSH0 MSTORE PUSH1 0x40 PUSH0 KECCAK256 PUSH0 SWAP2 POP SWAP1 POP SLOAD DUP2 JUMP JUMPDEST PUSH0 CALLER PUSH20 0xFFFFFFFFFFFFFFFFFFFFFFFFFFFFFFFFFFFFFFFF AND PUSH0 DUP1 CALLER PUSH20 0xFFFFFFFFFFFFFFFFFFFFFFFFFFFFFFFFFFFFFFFF AND PUSH20 0xFFFFFFFFFFFFFFFFFFFFFFFFFFFFFFFFFFFFFFFF AND DUP2 MSTORE PUSH1 0x20 ADD SWAP1 DUP2 MSTORE PUSH1 0x20 ADD PUSH0 KECCAK256 SLOAD PUSH1 0x40 MLOAD PUSH2 0xFC SWAP1 PUSH2 0x2FE JUMP JUMPDEST PUSH0 PUSH1 0x40 MLOAD DUP1 DUP4 SUB DUP2 DUP6 DUP8 GAS CALL SWAP3 POP POP POP RETURNDATASIZE DUP1 PUSH0 DUP2 EQ PUSH2 0x136 JUMPI PUSH1 0x40 MLOAD SWAP2 POP PUSH1 0x1F NOT PUSH1 0x3F RETURNDATASIZE ADD AND DUP3 ADD PUSH1 0x40 MSTORE RETURNDATASIZE DUP3 MSTORE RETURNDATASIZE PUSH0 PUSH1 0x20 DUP5 ADD RETURNDATACOPY PUSH2 0x13B JUMP JUMPDEST PUSH1 0x60 SWAP2 POP JUMPDEST POP POP SWAP1 POP DUP1 PUSH2 0x17F JUMPI PUSH1 0x40 MLOAD PUSH32 0x8C379A000000000000000000000000000000000000000000000000000000000 DUP2 MSTORE PUSH1 0x4 ADD PUSH2 0x176 SWAP1 PUSH2 0x36C JUMP JUMPDEST PUSH1 0x40 MLOAD DUP1 SWAP2 SUB SWAP1 REVERT JUMPDEST PUSH0 DUP1 PUSH0 CALLER PUSH20 0xFFFFFFFFFFFFFFFFFFFFFFFFFFFFFFFFFFFFFFFF AND PUSH20 0xFFFFFFFFFFFFFFFFFFFFFFFFFFFFFFFFFFFFFFFF AND DUP2 MSTORE PUSH1 0x20 ADD SWAP1 DUP2 MSTORE PUSH1 0x20 ADD PUSH0 KECCAK256 DUP2 SWAP1 SSTORE POP POP JUMP JUMPDEST CALLVALUE PUSH0 DUP1 CALLER PUSH20 0xFFFFFFFFFFFFFFFFFFFFFFFFFFFFFFFFFFFFFFFF AND PUSH20 0xFFFFFFFFFFFFFFFFFFFFFFFFFFFFFFFFFFFFFFFF AND DUP2 MSTORE PUSH1 0x20 ADD SWAP1 DUP2 MSTORE PUSH1 0x20 ADD PUSH0 KECCAK256 PUSH0 DUP3 DUP3 SLOAD PUSH2 0x20E SWAP2 SWAP1 PUSH2 0x3B7 JUMP JUMPDEST SWAP3 POP POP DUP2 SWAP1 SSTORE POP JUMP JUMPDEST PUSH0 DUP1 REVERT JUMPDEST PUSH0 PUSH20 0xFFFFFFFFFFFFFFFFFFFFFFFFFFFFFFFFFFFFFFFF DUP3 AND SWAP1 POP SWAP2 SWAP1 POP JUMP JUMPDEST PUSH0 PUSH2 0x244 DUP3 PUSH2 0x21B JUMP JUMPDEST SWAP1 POP SWAP2 SWAP1 POP JUMP JUMPDEST PUSH2 0x254 DUP2 PUSH2 0x23A JUMP JUMPDEST DUP2 EQ PUSH2 0x25E JUMPI PUSH0 DUP1 REVERT JUMPDEST POP JUMP JUMPDEST PUSH0 DUP2 CALLDATALOAD SWAP1 POP PUSH2 0x26F DUP2 PUSH2 0x24B JUMP JUMPDEST SWAP3 SWAP2 POP POP JUMP JUMPDEST PUSH0 PUSH1 0x20 DUP3 DUP5 SUB SLT ISZERO PUSH2 0x28A JUMPI PUSH2 0x289 PUSH2 0x217 JUMP JUMPDEST JUMPDEST PUSH0 PUSH2 0x297 DUP5 DUP3 DUP6 ADD PUSH2 0x261 JUMP JUMPDEST SWAP2 POP POP SWAP3 SWAP2 POP POP JUMP JUMPDEST PUSH0 DUP2 SWAP1 POP SWAP2 SWAP1 POP JUMP JUMPDEST PUSH2 0x2B2 DUP2 PUSH2 0x2A0 JUMP JUMPDEST DUP3 MSTORE POP POP JUMP JUMPDEST PUSH0 PUSH1 0x20 DUP3 ADD SWAP1 POP PUSH2 0x2CB PUSH0 DUP4 ADD DUP5 PUSH2 0x2A9 JUMP JUMPDEST SWAP3 SWAP2 POP POP JUMP JUMPDEST PUSH0 DUP2 SWAP1 POP SWAP3 SWAP2 POP POP JUMP JUMPDEST POP JUMP JUMPDEST PUSH0 PUSH2 0x2E9 PUSH0 DUP4 PUSH2 0x2D1 JUMP JUMPDEST SWAP2 POP PUSH2 0x2F4 DUP3 PUSH2 0x2DB JUMP JUMPDEST PUSH0 DUP3 ADD SWAP1 POP SWAP2 SWAP1 POP JUMP JUMPDEST PUSH0 PUSH2 0x308 DUP3 PUSH2 0x2DE JUMP JUMPDEST SWAP2 POP DUP2 SWAP1 POP SWAP2 SWAP1 POP JUMP JUMPDEST PUSH0 DUP3 DUP3 MSTORE PUSH1 0x20 DUP3 ADD SWAP1 POP SWAP3 SWAP2 POP POP JUMP JUMPDEST PUSH32 0x6661696C656420746F2073656E64204554480000000000000000000000000000 PUSH0 DUP3 ADD MSTORE POP JUMP JUMPDEST PUSH0 PUSH2 0x356 PUSH1 0x12 DUP4 PUSH2 0x312 JUMP JUMPDEST SWAP2 POP PUSH2 0x361 DUP3 PUSH2 0x322 JUMP JUMPDEST PUSH1 0x20 DUP3 ADD SWAP1 POP SWAP2 SWAP1 POP JUMP JUMPDEST PUSH0 PUSH1 0x20 DUP3 ADD SWAP1 POP DUP2 DUP2 SUB PUSH0 DUP4 ADD MSTORE PUSH2 0x383 DUP2 PUSH2 0x34A JUMP JUMPDEST SWAP1 POP SWAP2 SWAP1 POP JUMP JUMPDEST PUSH32 0x4E487B7100000000000000000000000000000000000000000000000000000000 PUSH0 MSTORE PUSH1 0x11 PUSH1 0x4 MSTORE PUSH1 0x24 PUSH0 REVERT JUMPDEST PUSH0 PUSH2 0x3C1 DUP3 PUSH2 0x2A0 JUMP JUMPDEST SWAP2 POP PUSH2 0x3CC DUP4 PUSH2 0x2A0 JUMP JUMPDEST SWAP3 POP DUP3 DUP3 ADD SWAP1 POP DUP1 DUP3 GT ISZERO PUSH2 0x3E4 JUMPI PUSH2 0x3E3 PUSH2 0x38A JUMP JUMPDEST JUMPDEST SWAP3 SWAP2 POP POP JUMP INVALID LOG2 PUSH5 0x6970667358 0x22 SLT KECCAK256 BALANCE 0xC8 0x22 SLT 0xCC SWAP8 0x5D DUP6 0xEB PUSH23 0xB04DAEF1D3CF5401F48AADD8978C98534D6B13B0762C64 PUSH20 0x6F6C634300081600330000000000000000000000 "
				},
				"gasEstimates": {
					"creation": {
						"codeDepositCost": "211200",
						"executionCost": "249",
						"totalCost": "211449"
					},
					"external": {
						"balances(address)": "2779",
						"deposit()": "infinite",
						"withdraw()": "infinite"
					}
				},
				"methodIdentifiers": {
					"balances(address)": "27e235e3",
					"deposit()": "d0e30db0",
					"withdraw()": "3ccfd60b"
				}
			},
			"storageLayout": {
				"storage": [
					{
						"astId": 5,
						"contract": "contracts/52. Re-entrancy.sol:EthBank",
						"label": "balances",
						"offset": 0,
						"slot": "0",
						"type": "t_mapping(t_address,t_uint256)"
					}
				],
				"types": {
					"t_address": {
						"encoding": "inplace",
						"label": "address",
						"numberOfBytes": "20"
					},
					"t_mapping(t_address,t_uint256)": {
						"encoding": "mapping",
						"key": "t_address",
						"label": "mapping(address => uint256)",
						"numberOfBytes": "32",
						"value": "t_uint256"
					},
					"t_uint256": {
						"encoding": "inplace",
						"label": "uint256",
						"numberOfBytes": "32"
					}
				}
			},
			"userdoc": {
				"kind": "user",
				"methods": {},
				"version": 1
			}
		}
	}
}