{
	"contracts/44. Library.sol": {
		"TestArray": {
			"abi": [
				{
					"inputs": [
						{
							"internalType": "uint256",
							"name": "",
							"type": "uint256"
						}
					],
					"name": "arr",
					"outputs": [
						{
							"internalType": "uint256",
							"name": "",
							"type": "uint256"
						}
					],
					"stateMutability": "view",
					"type": "function"
				},
				{
					"inputs": [],
					"name": "find",
					"outputs": [],
					"stateMutability": "view",
					"type": "function"
				},
				{
					"inputs": [],
					"name": "sum",
					"outputs": [
						{
							"internalType": "uint256",
							"name": "",
							"type": "uint256"
						}
					],
					"stateMutability": "view",
					"type": "function"
				}
			],
			"devdoc": {
				"kind": "dev",
				"methods": {},
				"version": 1
			},
			"evm": {
				"assembly": "    /* \"contracts/44. Library.sol\":1464:1832  contract TestArray {... */\n  mstore(0x40, 0x80)\n    /* \"contracts/44. Library.sol\":1614:1646  uint256[] public arr = [3, 2, 1] */\n  mload(0x40)\n  dup1\n  0x60\n  add\n  0x40\n  mstore\n  dup1\n    /* \"contracts/44. Library.sol\":1638:1639  3 */\n  0x03\n    /* \"contracts/44. Library.sol\":1614:1646  uint256[] public arr = [3, 2, 1] */\n  0xff\n  and\n  dup2\n  mstore\n  0x20\n  add\n    /* \"contracts/44. Library.sol\":1641:1642  2 */\n  0x02\n    /* \"contracts/44. Library.sol\":1614:1646  uint256[] public arr = [3, 2, 1] */\n  0xff\n  and\n  dup2\n  mstore\n  0x20\n  add\n    /* \"contracts/44. Library.sol\":1644:1645  1 */\n  0x01\n    /* \"contracts/44. Library.sol\":1614:1646  uint256[] public arr = [3, 2, 1] */\n  0xff\n  and\n  dup2\n  mstore\n  pop\n  0x00\n  swap1\n  0x03\n  tag_1\n  swap3\n  swap2\n  swap1\n  tag_2\n  jump\t// in\ntag_1:\n  pop\n    /* \"contracts/44. Library.sol\":1464:1832  contract TestArray {... */\n  callvalue\n  dup1\n  iszero\n  tag_3\n  jumpi\n  0x00\n  dup1\n  revert\ntag_3:\n  pop\n  jump(tag_4)\ntag_2:\n  dup3\n  dup1\n  sload\n  dup3\n  dup3\n  sstore\n  swap1\n  0x00\n  mstore\n  keccak256(0x00, 0x20)\n  swap1\n  dup2\n  add\n  swap3\n  dup3\n  iszero\n  tag_5\n  jumpi\n  swap2\n  0x20\n  mul\n  dup3\n  add\ntag_6:\n  dup3\n  dup2\n  gt\n  iszero\n  tag_7\n  jumpi\n  dup3\n  mload\n  dup3\n  swap1\n  0xff\n  and\n  swap1\n  sstore\n  swap2\n  0x20\n  add\n  swap2\n  swap1\n  0x01\n  add\n  swap1\n  jump(tag_6)\ntag_7:\ntag_5:\n  pop\n  swap1\n  pop\n  tag_8\n  swap2\n  swap1\n  tag_9\n  jump\t// in\ntag_8:\n  pop\n  swap1\n  jump\t// out\ntag_9:\ntag_10:\n  dup1\n  dup3\n  gt\n  iszero\n  tag_11\n  jumpi\n  0x00\n  dup2\n  0x00\n  swap1\n  sstore\n  pop\n  0x01\n  add\n  jump(tag_10)\ntag_11:\n  pop\n  swap1\n  jump\t// out\ntag_4:\n  dataSize(sub_0)\n  dup1\n  dataOffset(sub_0)\n  0x00\n  codecopy\n  0x00\n  return\nstop\n\nsub_0: assembly {\n        /* \"contracts/44. Library.sol\":1464:1832  contract TestArray {... */\n      mstore(0x40, 0x80)\n      callvalue\n      dup1\n      iszero\n      tag_1\n      jumpi\n      0x00\n      dup1\n      revert\n    tag_1:\n      pop\n      jumpi(tag_2, lt(calldatasize, 0x04))\n      shr(0xe0, calldataload(0x00))\n      dup1\n      0x70d53be5\n      eq\n      tag_3\n      jumpi\n      dup1\n      0x71e5ee5f\n      eq\n      tag_4\n      jumpi\n      dup1\n      0x853255cc\n      eq\n      tag_5\n      jumpi\n    tag_2:\n      0x00\n      dup1\n      revert\n        /* \"contracts/44. Library.sol\":1653:1744  function find() external view {... */\n    tag_3:\n      tag_6\n      tag_7\n      jump\t// in\n    tag_6:\n      stop\n        /* \"contracts/44. Library.sol\":1614:1646  uint256[] public arr = [3, 2, 1] */\n    tag_4:\n      tag_8\n      0x04\n      dup1\n      calldatasize\n      sub\n      dup2\n      add\n      swap1\n      tag_9\n      swap2\n      swap1\n      tag_10\n      jump\t// in\n    tag_9:\n      tag_11\n      jump\t// in\n    tag_8:\n      mload(0x40)\n      tag_12\n      swap2\n      swap1\n      tag_13\n      jump\t// in\n    tag_12:\n      mload(0x40)\n      dup1\n      swap2\n      sub\n      swap1\n      return\n        /* \"contracts/44. Library.sol\":1750:1830  function sum() external view returns (uint256) {... */\n    tag_5:\n      tag_14\n      tag_15\n      jump\t// in\n    tag_14:\n      mload(0x40)\n      tag_16\n      swap2\n      swap1\n      tag_13\n      jump\t// in\n    tag_16:\n      mload(0x40)\n      dup1\n      swap2\n      sub\n      swap1\n      return\n        /* \"contracts/44. Library.sol\":1653:1744  function find() external view {... */\n    tag_7:\n        /* \"contracts/44. Library.sol\":1693:1704  arr.find(2) */\n      tag_18\n        /* \"contracts/44. Library.sol\":1702:1703  2 */\n      0x02\n        /* \"contracts/44. Library.sol\":1693:1696  arr */\n      0x00\n        /* \"contracts/44. Library.sol\":1693:1701  arr.find */\n      tag_19\n      swap1\n        /* \"contracts/44. Library.sol\":1693:1704  arr.find(2) */\n      swap2\n      swap1\n      0xffffffff\n      and\n      jump\t// in\n    tag_18:\n      pop\n        /* \"contracts/44. Library.sol\":1653:1744  function find() external view {... */\n      jump\t// out\n        /* \"contracts/44. Library.sol\":1614:1646  uint256[] public arr = [3, 2, 1] */\n    tag_11:\n      0x00\n      dup2\n      dup2\n      sload\n      dup2\n      lt\n      tag_20\n      jumpi\n      0x00\n      dup1\n      revert\n    tag_20:\n      swap1\n      0x00\n      mstore\n      keccak256(0x00, 0x20)\n      add\n      0x00\n      swap2\n      pop\n      swap1\n      pop\n      sload\n      dup2\n      jump\t// out\n        /* \"contracts/44. Library.sol\":1750:1830  function sum() external view returns (uint256) {... */\n    tag_15:\n        /* \"contracts/44. Library.sol\":1788:1795  uint256 */\n      0x00\n        /* \"contracts/44. Library.sol\":1814:1823  arr.sum() */\n      tag_23\n        /* \"contracts/44. Library.sol\":1814:1817  arr */\n      0x00\n        /* \"contracts/44. Library.sol\":1814:1821  arr.sum */\n      tag_24\n        /* \"contracts/44. Library.sol\":1814:1823  arr.sum() */\n      jump\t// in\n    tag_23:\n        /* \"contracts/44. Library.sol\":1807:1823  return arr.sum() */\n      swap1\n      pop\n        /* \"contracts/44. Library.sol\":1750:1830  function sum() external view returns (uint256) {... */\n      swap1\n      jump\t// out\n        /* \"contracts/44. Library.sol\":970:1246  function find(uint256[] storage arr, uint256 x)... */\n    tag_19:\n        /* \"contracts/44. Library.sol\":1065:1072  uint256 */\n      0x00\n        /* \"contracts/44. Library.sol\":1093:1102  uint256 i */\n      dup1\n        /* \"contracts/44. Library.sol\":1105:1106  0 */\n      0x00\n        /* \"contracts/44. Library.sol\":1093:1106  uint256 i = 0 */\n      swap1\n      pop\n        /* \"contracts/44. Library.sol\":1088:1211  for (uint256 i = 0; i < arr.length; i++) {... */\n    tag_26:\n        /* \"contracts/44. Library.sol\":1112:1115  arr */\n      dup4\n        /* \"contracts/44. Library.sol\":1112:1122  arr.length */\n      dup1\n      sload\n      swap1\n      pop\n        /* \"contracts/44. Library.sol\":1108:1109  i */\n      dup2\n        /* \"contracts/44. Library.sol\":1108:1122  i < arr.length */\n      lt\n        /* \"contracts/44. Library.sol\":1088:1211  for (uint256 i = 0; i < arr.length; i++) {... */\n      iszero\n      tag_27\n      jumpi\n        /* \"contracts/44. Library.sol\":1157:1158  x */\n      dup3\n        /* \"contracts/44. Library.sol\":1147:1150  arr */\n      dup5\n        /* \"contracts/44. Library.sol\":1151:1152  i */\n      dup3\n        /* \"contracts/44. Library.sol\":1147:1153  arr[i] */\n      dup2\n      sload\n      dup2\n      lt\n      tag_29\n      jumpi\n      tag_30\n      tag_31\n      jump\t// in\n    tag_30:\n    tag_29:\n      swap1\n      0x00\n      mstore\n      keccak256(0x00, 0x20)\n      add\n      sload\n        /* \"contracts/44. Library.sol\":1147:1158  arr[i] == x */\n      sub\n        /* \"contracts/44. Library.sol\":1143:1201  if (arr[i] == x) {... */\n      tag_33\n      jumpi\n        /* \"contracts/44. Library.sol\":1185:1186  i */\n      dup1\n        /* \"contracts/44. Library.sol\":1178:1186  return i */\n      swap2\n      pop\n      pop\n      jump(tag_25)\n        /* \"contracts/44. Library.sol\":1143:1201  if (arr[i] == x) {... */\n    tag_33:\n        /* \"contracts/44. Library.sol\":1124:1127  i++ */\n      dup1\n      dup1\n      0x01\n      add\n      swap2\n      pop\n      pop\n        /* \"contracts/44. Library.sol\":1088:1211  for (uint256 i = 0; i < arr.length; i++) {... */\n      jump(tag_26)\n    tag_27:\n      pop\n        /* \"contracts/44. Library.sol\":1220:1239  revert(\"not found\") */\n      mload(0x40)\n      0x08c379a000000000000000000000000000000000000000000000000000000000\n      dup2\n      mstore\n      0x04\n      add\n      tag_34\n      swap1\n      tag_35\n      jump\t// in\n    tag_34:\n      mload(0x40)\n      dup1\n      swap2\n      sub\n      swap1\n      revert\n        /* \"contracts/44. Library.sol\":970:1246  function find(uint256[] storage arr, uint256 x)... */\n    tag_25:\n      swap3\n      swap2\n      pop\n      pop\n      jump\t// out\n        /* \"contracts/44. Library.sol\":1252:1460  function sum(uint256[] storage arr) internal view returns (uint256) {... */\n    tag_24:\n        /* \"contracts/44. Library.sol\":1311:1318  uint256 */\n      0x00\n        /* \"contracts/44. Library.sol\":1330:1341  uint256 sum */\n      dup1\n        /* \"contracts/44. Library.sol\":1344:1345  0 */\n      0x00\n        /* \"contracts/44. Library.sol\":1330:1345  uint256 sum = 0 */\n      swap1\n      pop\n        /* \"contracts/44. Library.sol\":1360:1369  uint256 i */\n      0x00\n        /* \"contracts/44. Library.sol\":1355:1434  for (uint256 i = 0; i < arr.length; i++) {... */\n    tag_37:\n        /* \"contracts/44. Library.sol\":1379:1382  arr */\n      dup4\n        /* \"contracts/44. Library.sol\":1379:1389  arr.length */\n      dup1\n      sload\n      swap1\n      pop\n        /* \"contracts/44. Library.sol\":1375:1376  i */\n      dup2\n        /* \"contracts/44. Library.sol\":1375:1389  i < arr.length */\n      lt\n        /* \"contracts/44. Library.sol\":1355:1434  for (uint256 i = 0; i < arr.length; i++) {... */\n      iszero\n      tag_38\n      jumpi\n        /* \"contracts/44. Library.sol\":1417:1420  arr */\n      dup4\n        /* \"contracts/44. Library.sol\":1421:1422  i */\n      dup2\n        /* \"contracts/44. Library.sol\":1417:1423  arr[i] */\n      dup2\n      sload\n      dup2\n      lt\n      tag_40\n      jumpi\n      tag_41\n      tag_31\n      jump\t// in\n    tag_41:\n    tag_40:\n      swap1\n      0x00\n      mstore\n      keccak256(0x00, 0x20)\n      add\n      sload\n        /* \"contracts/44. Library.sol\":1410:1423  sum += arr[i] */\n      dup3\n      tag_43\n      swap2\n      swap1\n      tag_44\n      jump\t// in\n    tag_43:\n      swap2\n      pop\n        /* \"contracts/44. Library.sol\":1391:1394  i++ */\n      dup1\n      dup1\n      0x01\n      add\n      swap2\n      pop\n      pop\n        /* \"contracts/44. Library.sol\":1355:1434  for (uint256 i = 0; i < arr.length; i++) {... */\n      jump(tag_37)\n    tag_38:\n      pop\n        /* \"contracts/44. Library.sol\":1450:1453  sum */\n      dup1\n        /* \"contracts/44. Library.sol\":1443:1453  return sum */\n      swap2\n      pop\n      pop\n        /* \"contracts/44. Library.sol\":1252:1460  function sum(uint256[] storage arr) internal view returns (uint256) {... */\n      swap2\n      swap1\n      pop\n      jump\t// out\n        /* \"#utility.yul\":88:205   */\n    tag_46:\n        /* \"#utility.yul\":197:198   */\n      0x00\n        /* \"#utility.yul\":194:195   */\n      dup1\n        /* \"#utility.yul\":187:199   */\n      revert\n        /* \"#utility.yul\":334:411   */\n    tag_48:\n        /* \"#utility.yul\":371:378   */\n      0x00\n        /* \"#utility.yul\":400:405   */\n      dup2\n        /* \"#utility.yul\":389:405   */\n      swap1\n      pop\n        /* \"#utility.yul\":334:411   */\n      swap2\n      swap1\n      pop\n      jump\t// out\n        /* \"#utility.yul\":417:539   */\n    tag_49:\n        /* \"#utility.yul\":490:514   */\n      tag_62\n        /* \"#utility.yul\":508:513   */\n      dup2\n        /* \"#utility.yul\":490:514   */\n      tag_48\n      jump\t// in\n    tag_62:\n        /* \"#utility.yul\":483:488   */\n      dup2\n        /* \"#utility.yul\":480:515   */\n      eq\n        /* \"#utility.yul\":470:533   */\n      tag_63\n      jumpi\n        /* \"#utility.yul\":529:530   */\n      0x00\n        /* \"#utility.yul\":526:527   */\n      dup1\n        /* \"#utility.yul\":519:531   */\n      revert\n        /* \"#utility.yul\":470:533   */\n    tag_63:\n        /* \"#utility.yul\":417:539   */\n      pop\n      jump\t// out\n        /* \"#utility.yul\":545:684   */\n    tag_50:\n        /* \"#utility.yul\":591:596   */\n      0x00\n        /* \"#utility.yul\":629:635   */\n      dup2\n        /* \"#utility.yul\":616:636   */\n      calldataload\n        /* \"#utility.yul\":607:636   */\n      swap1\n      pop\n        /* \"#utility.yul\":645:678   */\n      tag_65\n        /* \"#utility.yul\":672:677   */\n      dup2\n        /* \"#utility.yul\":645:678   */\n      tag_49\n      jump\t// in\n    tag_65:\n        /* \"#utility.yul\":545:684   */\n      swap3\n      swap2\n      pop\n      pop\n      jump\t// out\n        /* \"#utility.yul\":690:1019   */\n    tag_10:\n        /* \"#utility.yul\":749:755   */\n      0x00\n        /* \"#utility.yul\":798:800   */\n      0x20\n        /* \"#utility.yul\":786:795   */\n      dup3\n        /* \"#utility.yul\":777:784   */\n      dup5\n        /* \"#utility.yul\":773:796   */\n      sub\n        /* \"#utility.yul\":769:801   */\n      slt\n        /* \"#utility.yul\":766:885   */\n      iszero\n      tag_67\n      jumpi\n        /* \"#utility.yul\":804:883   */\n      tag_68\n      tag_46\n      jump\t// in\n    tag_68:\n        /* \"#utility.yul\":766:885   */\n    tag_67:\n        /* \"#utility.yul\":924:925   */\n      0x00\n        /* \"#utility.yul\":949:1002   */\n      tag_69\n        /* \"#utility.yul\":994:1001   */\n      dup5\n        /* \"#utility.yul\":985:991   */\n      dup3\n        /* \"#utility.yul\":974:983   */\n      dup6\n        /* \"#utility.yul\":970:992   */\n      add\n        /* \"#utility.yul\":949:1002   */\n      tag_50\n      jump\t// in\n    tag_69:\n        /* \"#utility.yul\":939:1002   */\n      swap2\n      pop\n        /* \"#utility.yul\":895:1012   */\n      pop\n        /* \"#utility.yul\":690:1019   */\n      swap3\n      swap2\n      pop\n      pop\n      jump\t// out\n        /* \"#utility.yul\":1025:1143   */\n    tag_51:\n        /* \"#utility.yul\":1112:1136   */\n      tag_71\n        /* \"#utility.yul\":1130:1135   */\n      dup2\n        /* \"#utility.yul\":1112:1136   */\n      tag_48\n      jump\t// in\n    tag_71:\n        /* \"#utility.yul\":1107:1110   */\n      dup3\n        /* \"#utility.yul\":1100:1137   */\n      mstore\n        /* \"#utility.yul\":1025:1143   */\n      pop\n      pop\n      jump\t// out\n        /* \"#utility.yul\":1149:1371   */\n    tag_13:\n        /* \"#utility.yul\":1242:1246   */\n      0x00\n        /* \"#utility.yul\":1280:1282   */\n      0x20\n        /* \"#utility.yul\":1269:1278   */\n      dup3\n        /* \"#utility.yul\":1265:1283   */\n      add\n        /* \"#utility.yul\":1257:1283   */\n      swap1\n      pop\n        /* \"#utility.yul\":1293:1364   */\n      tag_73\n        /* \"#utility.yul\":1361:1362   */\n      0x00\n        /* \"#utility.yul\":1350:1359   */\n      dup4\n        /* \"#utility.yul\":1346:1363   */\n      add\n        /* \"#utility.yul\":1337:1343   */\n      dup5\n        /* \"#utility.yul\":1293:1364   */\n      tag_51\n      jump\t// in\n    tag_73:\n        /* \"#utility.yul\":1149:1371   */\n      swap3\n      swap2\n      pop\n      pop\n      jump\t// out\n        /* \"#utility.yul\":1377:1557   */\n    tag_31:\n        /* \"#utility.yul\":1425:1502   */\n      0x4e487b7100000000000000000000000000000000000000000000000000000000\n        /* \"#utility.yul\":1422:1423   */\n      0x00\n        /* \"#utility.yul\":1415:1503   */\n      mstore\n        /* \"#utility.yul\":1522:1526   */\n      0x32\n        /* \"#utility.yul\":1519:1520   */\n      0x04\n        /* \"#utility.yul\":1512:1527   */\n      mstore\n        /* \"#utility.yul\":1546:1550   */\n      0x24\n        /* \"#utility.yul\":1543:1544   */\n      0x00\n        /* \"#utility.yul\":1536:1551   */\n      revert\n        /* \"#utility.yul\":1563:1732   */\n    tag_52:\n        /* \"#utility.yul\":1647:1658   */\n      0x00\n        /* \"#utility.yul\":1681:1687   */\n      dup3\n        /* \"#utility.yul\":1676:1679   */\n      dup3\n        /* \"#utility.yul\":1669:1688   */\n      mstore\n        /* \"#utility.yul\":1721:1725   */\n      0x20\n        /* \"#utility.yul\":1716:1719   */\n      dup3\n        /* \"#utility.yul\":1712:1726   */\n      add\n        /* \"#utility.yul\":1697:1726   */\n      swap1\n      pop\n        /* \"#utility.yul\":1563:1732   */\n      swap3\n      swap2\n      pop\n      pop\n      jump\t// out\n        /* \"#utility.yul\":1738:1897   */\n    tag_53:\n        /* \"#utility.yul\":1878:1889   */\n      0x6e6f7420666f756e640000000000000000000000000000000000000000000000\n        /* \"#utility.yul\":1874:1875   */\n      0x00\n        /* \"#utility.yul\":1866:1872   */\n      dup3\n        /* \"#utility.yul\":1862:1876   */\n      add\n        /* \"#utility.yul\":1855:1890   */\n      mstore\n        /* \"#utility.yul\":1738:1897   */\n      pop\n      jump\t// out\n        /* \"#utility.yul\":1903:2268   */\n    tag_54:\n        /* \"#utility.yul\":2045:2048   */\n      0x00\n        /* \"#utility.yul\":2066:2132   */\n      tag_78\n        /* \"#utility.yul\":2130:2131   */\n      0x09\n        /* \"#utility.yul\":2125:2128   */\n      dup4\n        /* \"#utility.yul\":2066:2132   */\n      tag_52\n      jump\t// in\n    tag_78:\n        /* \"#utility.yul\":2059:2132   */\n      swap2\n      pop\n        /* \"#utility.yul\":2141:2234   */\n      tag_79\n        /* \"#utility.yul\":2230:2233   */\n      dup3\n        /* \"#utility.yul\":2141:2234   */\n      tag_53\n      jump\t// in\n    tag_79:\n        /* \"#utility.yul\":2259:2261   */\n      0x20\n        /* \"#utility.yul\":2254:2257   */\n      dup3\n        /* \"#utility.yul\":2250:2262   */\n      add\n        /* \"#utility.yul\":2243:2262   */\n      swap1\n      pop\n        /* \"#utility.yul\":1903:2268   */\n      swap2\n      swap1\n      pop\n      jump\t// out\n        /* \"#utility.yul\":2274:2693   */\n    tag_35:\n        /* \"#utility.yul\":2440:2444   */\n      0x00\n        /* \"#utility.yul\":2478:2480   */\n      0x20\n        /* \"#utility.yul\":2467:2476   */\n      dup3\n        /* \"#utility.yul\":2463:2481   */\n      add\n        /* \"#utility.yul\":2455:2481   */\n      swap1\n      pop\n        /* \"#utility.yul\":2527:2536   */\n      dup2\n        /* \"#utility.yul\":2521:2525   */\n      dup2\n        /* \"#utility.yul\":2517:2537   */\n      sub\n        /* \"#utility.yul\":2513:2514   */\n      0x00\n        /* \"#utility.yul\":2502:2511   */\n      dup4\n        /* \"#utility.yul\":2498:2515   */\n      add\n        /* \"#utility.yul\":2491:2538   */\n      mstore\n        /* \"#utility.yul\":2555:2686   */\n      tag_81\n        /* \"#utility.yul\":2681:2685   */\n      dup2\n        /* \"#utility.yul\":2555:2686   */\n      tag_54\n      jump\t// in\n    tag_81:\n        /* \"#utility.yul\":2547:2686   */\n      swap1\n      pop\n        /* \"#utility.yul\":2274:2693   */\n      swap2\n      swap1\n      pop\n      jump\t// out\n        /* \"#utility.yul\":2699:2879   */\n    tag_55:\n        /* \"#utility.yul\":2747:2824   */\n      0x4e487b7100000000000000000000000000000000000000000000000000000000\n        /* \"#utility.yul\":2744:2745   */\n      0x00\n        /* \"#utility.yul\":2737:2825   */\n      mstore\n        /* \"#utility.yul\":2844:2848   */\n      0x11\n        /* \"#utility.yul\":2841:2842   */\n      0x04\n        /* \"#utility.yul\":2834:2849   */\n      mstore\n        /* \"#utility.yul\":2868:2872   */\n      0x24\n        /* \"#utility.yul\":2865:2866   */\n      0x00\n        /* \"#utility.yul\":2858:2873   */\n      revert\n        /* \"#utility.yul\":2885:3076   */\n    tag_44:\n        /* \"#utility.yul\":2925:2928   */\n      0x00\n        /* \"#utility.yul\":2944:2964   */\n      tag_84\n        /* \"#utility.yul\":2962:2963   */\n      dup3\n        /* \"#utility.yul\":2944:2964   */\n      tag_48\n      jump\t// in\n    tag_84:\n        /* \"#utility.yul\":2939:2964   */\n      swap2\n      pop\n        /* \"#utility.yul\":2978:2998   */\n      tag_85\n        /* \"#utility.yul\":2996:2997   */\n      dup4\n        /* \"#utility.yul\":2978:2998   */\n      tag_48\n      jump\t// in\n    tag_85:\n        /* \"#utility.yul\":2973:2998   */\n      swap3\n      pop\n        /* \"#utility.yul\":3021:3022   */\n      dup3\n        /* \"#utility.yul\":3018:3019   */\n      dup3\n        /* \"#utility.yul\":3014:3023   */\n      add\n        /* \"#utility.yul\":3007:3023   */\n      swap1\n      pop\n        /* \"#utility.yul\":3042:3045   */\n      dup1\n        /* \"#utility.yul\":3039:3040   */\n      dup3\n        /* \"#utility.yul\":3036:3046   */\n      gt\n        /* \"#utility.yul\":3033:3069   */\n      iszero\n      tag_86\n      jumpi\n        /* \"#utility.yul\":3049:3067   */\n      tag_87\n      tag_55\n      jump\t// in\n    tag_87:\n        /* \"#utility.yul\":3033:3069   */\n    tag_86:\n        /* \"#utility.yul\":2885:3076   */\n      swap3\n      swap2\n      pop\n      pop\n      jump\t// out\n\n    auxdata: 0xa2646970667358221220094c5c3a2d87d493dbc98805ac9f550411e435442b51b6708c7f45faaf15bfb064736f6c63430008160033\n}\n",
				"bytecode": {
					"linkReferences": {},
					"object": "60806040526040518060600160405280600360ff168152602001600260ff168152602001600160ff168152505f90600361003a92919061004c565b50348015610046575f80fd5b506100b7565b828054828255905f5260205f2090810192821561008b579160200282015b8281111561008a578251829060ff1690559160200191906001019061006a565b5b509050610098919061009c565b5090565b5b808211156100b3575f815f90555060010161009d565b5090565b610384806100c45f395ff3fe608060405234801561000f575f80fd5b506004361061003f575f3560e01c806370d53be51461004357806371e5ee5f1461004d578063853255cc1461007d575b5f80fd5b61004b61009b565b005b610067600480360381019061006291906101f6565b6100b2565b6040516100749190610230565b60405180910390f35b6100856100d1565b6040516100929190610230565b60405180910390f35b6100af60025f6100e090919063ffffffff16565b50565b5f81815481106100c0575f80fd5b905f5260205f20015f915090505481565b5f6100db5f61016c565b905090565b5f805f90505b838054905081101561012a578284828154811061010657610105610249565b5b905f5260205f2001540361011d5780915050610166565b80806001019150506100e6565b506040517f08c379a000000000000000000000000000000000000000000000000000000000815260040161015d906102d0565b60405180910390fd5b92915050565b5f805f90505f5b83805490508110156101b55783818154811061019257610191610249565b5b905f5260205f200154826101a6919061031b565b91508080600101915050610173565b5080915050919050565b5f80fd5b5f819050919050565b6101d5816101c3565b81146101df575f80fd5b50565b5f813590506101f0816101cc565b92915050565b5f6020828403121561020b5761020a6101bf565b5b5f610218848285016101e2565b91505092915050565b61022a816101c3565b82525050565b5f6020820190506102435f830184610221565b92915050565b7f4e487b71000000000000000000000000000000000000000000000000000000005f52603260045260245ffd5b5f82825260208201905092915050565b7f6e6f7420666f756e6400000000000000000000000000000000000000000000005f82015250565b5f6102ba600983610276565b91506102c582610286565b602082019050919050565b5f6020820190508181035f8301526102e7816102ae565b9050919050565b7f4e487b71000000000000000000000000000000000000000000000000000000005f52601160045260245ffd5b5f610325826101c3565b9150610330836101c3565b9250828201905080821115610348576103476102ee565b5b9291505056fea2646970667358221220094c5c3a2d87d493dbc98805ac9f550411e435442b51b6708c7f45faaf15bfb064736f6c63430008160033",
					"opcodes": "PUSH1 0x80 PUSH1 0x40 MSTORE PUSH1 0x40 MLOAD DUP1 PUSH1 0x60 ADD PUSH1 0x40 MSTORE DUP1 PUSH1 0x3 PUSH1 0xFF AND DUP2 MSTORE PUSH1 0x20 ADD PUSH1 0x2 PUSH1 0xFF AND DUP2 MSTORE PUSH1 0x20 ADD PUSH1 0x1 PUSH1 0xFF AND DUP2 MSTORE POP PUSH0 SWAP1 PUSH1 0x3 PUSH2 0x3A SWAP3 SWAP2 SWAP1 PUSH2 0x4C JUMP JUMPDEST POP CALLVALUE DUP1 ISZERO PUSH2 0x46 JUMPI PUSH0 DUP1 REVERT JUMPDEST POP PUSH2 0xB7 JUMP JUMPDEST DUP3 DUP1 SLOAD DUP3 DUP3 SSTORE SWAP1 PUSH0 MSTORE PUSH1 0x20 PUSH0 KECCAK256 SWAP1 DUP2 ADD SWAP3 DUP3 ISZERO PUSH2 0x8B JUMPI SWAP2 PUSH1 0x20 MUL DUP3 ADD JUMPDEST DUP3 DUP2 GT ISZERO PUSH2 0x8A JUMPI DUP3 MLOAD DUP3 SWAP1 PUSH1 0xFF AND SWAP1 SSTORE SWAP2 PUSH1 0x20 ADD SWAP2 SWAP1 PUSH1 0x1 ADD SWAP1 PUSH2 0x6A JUMP JUMPDEST JUMPDEST POP SWAP1 POP PUSH2 0x98 SWAP2 SWAP1 PUSH2 0x9C JUMP JUMPDEST POP SWAP1 JUMP JUMPDEST JUMPDEST DUP1 DUP3 GT ISZERO PUSH2 0xB3 JUMPI PUSH0 DUP2 PUSH0 SWAP1 SSTORE POP PUSH1 0x1 ADD PUSH2 0x9D JUMP JUMPDEST POP SWAP1 JUMP JUMPDEST PUSH2 0x384 DUP1 PUSH2 0xC4 PUSH0 CODECOPY PUSH0 RETURN INVALID PUSH1 0x80 PUSH1 0x40 MSTORE CALLVALUE DUP1 ISZERO PUSH2 0xF JUMPI PUSH0 DUP1 REVERT JUMPDEST POP PUSH1 0x4 CALLDATASIZE LT PUSH2 0x3F JUMPI PUSH0 CALLDATALOAD PUSH1 0xE0 SHR DUP1 PUSH4 0x70D53BE5 EQ PUSH2 0x43 JUMPI DUP1 PUSH4 0x71E5EE5F EQ PUSH2 0x4D JUMPI DUP1 PUSH4 0x853255CC EQ PUSH2 0x7D JUMPI JUMPDEST PUSH0 DUP1 REVERT JUMPDEST PUSH2 0x4B PUSH2 0x9B JUMP JUMPDEST STOP JUMPDEST PUSH2 0x67 PUSH1 0x4 DUP1 CALLDATASIZE SUB DUP2 ADD SWAP1 PUSH2 0x62 SWAP2 SWAP1 PUSH2 0x1F6 JUMP JUMPDEST PUSH2 0xB2 JUMP JUMPDEST PUSH1 0x40 MLOAD PUSH2 0x74 SWAP2 SWAP1 PUSH2 0x230 JUMP JUMPDEST PUSH1 0x40 MLOAD DUP1 SWAP2 SUB SWAP1 RETURN JUMPDEST PUSH2 0x85 PUSH2 0xD1 JUMP JUMPDEST PUSH1 0x40 MLOAD PUSH2 0x92 SWAP2 SWAP1 PUSH2 0x230 JUMP JUMPDEST PUSH1 0x40 MLOAD DUP1 SWAP2 SUB SWAP1 RETURN JUMPDEST PUSH2 0xAF PUSH1 0x2 PUSH0 PUSH2 0xE0 SWAP1 SWAP2 SWAP1 PUSH4 0xFFFFFFFF AND JUMP JUMPDEST POP JUMP JUMPDEST PUSH0 DUP2 DUP2 SLOAD DUP2 LT PUSH2 0xC0 JUMPI PUSH0 DUP1 REVERT JUMPDEST SWAP1 PUSH0 MSTORE PUSH1 0x20 PUSH0 KECCAK256 ADD PUSH0 SWAP2 POP SWAP1 POP SLOAD DUP2 JUMP JUMPDEST PUSH0 PUSH2 0xDB PUSH0 PUSH2 0x16C JUMP JUMPDEST SWAP1 POP SWAP1 JUMP JUMPDEST PUSH0 DUP1 PUSH0 SWAP1 POP JUMPDEST DUP4 DUP1 SLOAD SWAP1 POP DUP2 LT ISZERO PUSH2 0x12A JUMPI DUP3 DUP5 DUP3 DUP2 SLOAD DUP2 LT PUSH2 0x106 JUMPI PUSH2 0x105 PUSH2 0x249 JUMP JUMPDEST JUMPDEST SWAP1 PUSH0 MSTORE PUSH1 0x20 PUSH0 KECCAK256 ADD SLOAD SUB PUSH2 0x11D JUMPI DUP1 SWAP2 POP POP PUSH2 0x166 JUMP JUMPDEST DUP1 DUP1 PUSH1 0x1 ADD SWAP2 POP POP PUSH2 0xE6 JUMP JUMPDEST POP PUSH1 0x40 MLOAD PUSH32 0x8C379A000000000000000000000000000000000000000000000000000000000 DUP2 MSTORE PUSH1 0x4 ADD PUSH2 0x15D SWAP1 PUSH2 0x2D0 JUMP JUMPDEST PUSH1 0x40 MLOAD DUP1 SWAP2 SUB SWAP1 REVERT JUMPDEST SWAP3 SWAP2 POP POP JUMP JUMPDEST PUSH0 DUP1 PUSH0 SWAP1 POP PUSH0 JUMPDEST DUP4 DUP1 SLOAD SWAP1 POP DUP2 LT ISZERO PUSH2 0x1B5 JUMPI DUP4 DUP2 DUP2 SLOAD DUP2 LT PUSH2 0x192 JUMPI PUSH2 0x191 PUSH2 0x249 JUMP JUMPDEST JUMPDEST SWAP1 PUSH0 MSTORE PUSH1 0x20 PUSH0 KECCAK256 ADD SLOAD DUP3 PUSH2 0x1A6 SWAP2 SWAP1 PUSH2 0x31B JUMP JUMPDEST SWAP2 POP DUP1 DUP1 PUSH1 0x1 ADD SWAP2 POP POP PUSH2 0x173 JUMP JUMPDEST POP DUP1 SWAP2 POP POP SWAP2 SWAP1 POP JUMP JUMPDEST PUSH0 DUP1 REVERT JUMPDEST PUSH0 DUP2 SWAP1 POP SWAP2 SWAP1 POP JUMP JUMPDEST PUSH2 0x1D5 DUP2 PUSH2 0x1C3 JUMP JUMPDEST DUP2 EQ PUSH2 0x1DF JUMPI PUSH0 DUP1 REVERT JUMPDEST POP JUMP JUMPDEST PUSH0 DUP2 CALLDATALOAD SWAP1 POP PUSH2 0x1F0 DUP2 PUSH2 0x1CC JUMP JUMPDEST SWAP3 SWAP2 POP POP JUMP JUMPDEST PUSH0 PUSH1 0x20 DUP3 DUP5 SUB SLT ISZERO PUSH2 0x20B JUMPI PUSH2 0x20A PUSH2 0x1BF JUMP JUMPDEST JUMPDEST PUSH0 PUSH2 0x218 DUP5 DUP3 DUP6 ADD PUSH2 0x1E2 JUMP JUMPDEST SWAP2 POP POP SWAP3 SWAP2 POP POP JUMP JUMPDEST PUSH2 0x22A DUP2 PUSH2 0x1C3 JUMP JUMPDEST DUP3 MSTORE POP POP JUMP JUMPDEST PUSH0 PUSH1 0x20 DUP3 ADD SWAP1 POP PUSH2 0x243 PUSH0 DUP4 ADD DUP5 PUSH2 0x221 JUMP JUMPDEST SWAP3 SWAP2 POP POP JUMP JUMPDEST PUSH32 0x4E487B7100000000000000000000000000000000000000000000000000000000 PUSH0 MSTORE PUSH1 0x32 PUSH1 0x4 MSTORE PUSH1 0x24 PUSH0 REVERT JUMPDEST PUSH0 DUP3 DUP3 MSTORE PUSH1 0x20 DUP3 ADD SWAP1 POP SWAP3 SWAP2 POP POP JUMP JUMPDEST PUSH32 0x6E6F7420666F756E640000000000000000000000000000000000000000000000 PUSH0 DUP3 ADD MSTORE POP JUMP JUMPDEST PUSH0 PUSH2 0x2BA PUSH1 0x9 DUP4 PUSH2 0x276 JUMP JUMPDEST SWAP2 POP PUSH2 0x2C5 DUP3 PUSH2 0x286 JUMP JUMPDEST PUSH1 0x20 DUP3 ADD SWAP1 POP SWAP2 SWAP1 POP JUMP JUMPDEST PUSH0 PUSH1 0x20 DUP3 ADD SWAP1 POP DUP2 DUP2 SUB PUSH0 DUP4 ADD MSTORE PUSH2 0x2E7 DUP2 PUSH2 0x2AE JUMP JUMPDEST SWAP1 POP SWAP2 SWAP1 POP JUMP JUMPDEST PUSH32 0x4E487B7100000000000000000000000000000000000000000000000000000000 PUSH0 MSTORE PUSH1 0x11 PUSH1 0x4 MSTORE PUSH1 0x24 PUSH0 REVERT JUMPDEST PUSH0 PUSH2 0x325 DUP3 PUSH2 0x1C3 JUMP JUMPDEST SWAP2 POP PUSH2 0x330 DUP4 PUSH2 0x1C3 JUMP JUMPDEST SWAP3 POP DUP3 DUP3 ADD SWAP1 POP DUP1 DUP3 GT ISZERO PUSH2 0x348 JUMPI PUSH2 0x347 PUSH2 0x2EE JUMP JUMPDEST JUMPDEST SWAP3 SWAP2 POP POP JUMP INVALID LOG2 PUSH5 0x6970667358 0x22 SLT KECCAK256 MULMOD 0x4C 0x5C GASPRICE 0x2D DUP8 0xD4 SWAP4 0xDB 0xC9 DUP9 SDIV 0xAC SWAP16 SSTORE DIV GT 0xE4 CALLDATALOAD PREVRANDAO 0x2B MLOAD 0xB6 PUSH17 0x8C7F45FAAF15BFB064736F6C6343000816 STOP CALLER "
				},
				"gasEstimates": {
					"creation": {
						"codeDepositCost": "180000",
						"executionCost": "infinite",
						"totalCost": "infinite"
					},
					"external": {
						"arr(uint256)": "infinite",
						"find()": "infinite",
						"sum()": "infinite"
					}
				},
				"methodIdentifiers": {
					"arr(uint256)": "71e5ee5f",
					"find()": "70d53be5",
					"sum()": "853255cc"
				}
			},
			"storageLayout": {
				"storage": [
					{
						"astId": 152,
						"contract": "contracts/44. Library.sol:TestArray",
						"label": "arr",
						"offset": 0,
						"slot": "0",
						"type": "t_array(t_uint256)dyn_storage"
					}
				],
				"types": {
					"t_array(t_uint256)dyn_storage": {
						"base": "t_uint256",
						"encoding": "dynamic_array",
						"label": "uint256[]",
						"numberOfBytes": "32"
					},
					"t_uint256": {
						"encoding": "inplace",
						"label": "uint256",
						"numberOfBytes": "32"
					}
				}
			},
			"userdoc": {
				"kind": "user",
				"methods": {},
				"version": 1
			}
		}
	}
}