{
	"contracts/37. Sending Ether.sol": {
		"SendEther": {
			"abi": [
				{
					"inputs": [],
					"stateMutability": "payable",
					"type": "constructor"
				},
				{
					"inputs": [
						{
							"internalType": "address payable",
							"name": "to",
							"type": "address"
						}
					],
					"name": "sendViaCall",
					"outputs": [],
					"stateMutability": "payable",
					"type": "function"
				},
				{
					"inputs": [
						{
							"internalType": "address payable",
							"name": "to",
							"type": "address"
						}
					],
					"name": "sendViaSend",
					"outputs": [],
					"stateMutability": "payable",
					"type": "function"
				},
				{
					"inputs": [
						{
							"internalType": "address payable",
							"name": "to",
							"type": "address"
						}
					],
					"name": "sendViaTransfer",
					"outputs": [],
					"stateMutability": "payable",
					"type": "function"
				},
				{
					"inputs": [
						{
							"internalType": "uint256",
							"name": "_value",
							"type": "uint256"
						}
					],
					"name": "setValue",
					"outputs": [],
					"stateMutability": "nonpayable",
					"type": "function"
				},
				{
					"stateMutability": "payable",
					"type": "receive"
				}
			],
			"devdoc": {
				"kind": "dev",
				"methods": {},
				"version": 1
			},
			"evm": {
				"assembly": "    /* \"contracts/37. Sending Ether.sol\":58:1136  contract SendEther {... */\n  mstore(0x40, 0x80)\n  dataSize(sub_0)\n  dup1\n  dataOffset(sub_0)\n  0x00\n  codecopy\n  0x00\n  return\nstop\n\nsub_0: assembly {\n        /* \"contracts/37. Sending Ether.sol\":58:1136  contract SendEther {... */\n      mstore(0x40, 0x80)\n      jumpi(tag_1, lt(calldatasize, 0x04))\n      shr(0xe0, calldataload(0x00))\n      dup1\n      0x55241077\n      eq\n      tag_3\n      jumpi\n      dup1\n      0x636e082b\n      eq\n      tag_4\n      jumpi\n      dup1\n      0x74be4806\n      eq\n      tag_5\n      jumpi\n      dup1\n      0x830c29ae\n      eq\n      tag_6\n      jumpi\n      jump(tag_2)\n    tag_1:\n      jumpi(tag_2, calldatasize)\n      stop\n    tag_2:\n      0x00\n      dup1\n      revert\n        /* \"contracts/37. Sending Ether.sol\":1058:1134  function setValue(uint _value) external {... */\n    tag_3:\n      callvalue\n      dup1\n      iszero\n      tag_9\n      jumpi\n      0x00\n      dup1\n      revert\n    tag_9:\n      pop\n      tag_10\n      0x04\n      dup1\n      calldatasize\n      sub\n      dup2\n      add\n      swap1\n      tag_11\n      swap2\n      swap1\n      tag_12\n      jump\t// in\n    tag_11:\n      tag_13\n      jump\t// in\n    tag_10:\n      stop\n        /* \"contracts/37. Sending Ether.sol\":268:439  function sendViaTransfer(address payable to) external payable {... */\n    tag_4:\n      tag_14\n      0x04\n      dup1\n      calldatasize\n      sub\n      dup2\n      add\n      swap1\n      tag_15\n      swap2\n      swap1\n      tag_16\n      jump\t// in\n    tag_15:\n      tag_17\n      jump\t// in\n    tag_14:\n      stop\n        /* \"contracts/37. Sending Ether.sol\":445:732  function sendViaSend(address payable to) external payable {... */\n    tag_5:\n      tag_18\n      0x04\n      dup1\n      calldatasize\n      sub\n      dup2\n      add\n      swap1\n      tag_19\n      swap2\n      swap1\n      tag_16\n      jump\t// in\n    tag_19:\n      tag_20\n      jump\t// in\n    tag_18:\n      stop\n        /* \"contracts/37. Sending Ether.sol\":738:1052  function sendViaCall(address payable to) external payable {... */\n    tag_6:\n      tag_21\n      0x04\n      dup1\n      calldatasize\n      sub\n      dup2\n      add\n      swap1\n      tag_22\n      swap2\n      swap1\n      tag_16\n      jump\t// in\n    tag_22:\n      tag_23\n      jump\t// in\n    tag_21:\n      stop\n        /* \"contracts/37. Sending Ether.sol\":1058:1134  function setValue(uint _value) external {... */\n    tag_13:\n        /* \"contracts/37. Sending Ether.sol\":1121:1127  _value */\n      dup1\n        /* \"contracts/37. Sending Ether.sol\":1108:1118  send_value */\n      0x00\n        /* \"contracts/37. Sending Ether.sol\":1108:1127  send_value = _value */\n      dup2\n      swap1\n      sstore\n      pop\n        /* \"contracts/37. Sending Ether.sol\":1058:1134  function setValue(uint _value) external {... */\n      pop\n      jump\t// out\n        /* \"contracts/37. Sending Ether.sol\":268:439  function sendViaTransfer(address payable to) external payable {... */\n    tag_17:\n        /* \"contracts/37. Sending Ether.sol\":409:411  to */\n      dup1\n        /* \"contracts/37. Sending Ether.sol\":409:420  to.transfer */\n      0xffffffffffffffffffffffffffffffffffffffff\n      and\n        /* \"contracts/37. Sending Ether.sol\":409:432  to.transfer(send_value) */\n      0x08fc\n        /* \"contracts/37. Sending Ether.sol\":421:431  send_value */\n      sload(0x00)\n        /* \"contracts/37. Sending Ether.sol\":409:432  to.transfer(send_value) */\n      swap1\n      dup2\n      iszero\n      mul\n      swap1\n      mload(0x40)\n      0x00\n      mload(0x40)\n      dup1\n      dup4\n      sub\n      dup2\n      dup6\n      dup9\n      dup9\n      call\n      swap4\n      pop\n      pop\n      pop\n      pop\n      iszero\n      dup1\n      iszero\n      tag_27\n      jumpi\n      returndatasize\n      0x00\n      dup1\n      returndatacopy\n      revert(0x00, returndatasize)\n    tag_27:\n      pop\n        /* \"contracts/37. Sending Ether.sol\":268:439  function sendViaTransfer(address payable to) external payable {... */\n      pop\n      jump\t// out\n        /* \"contracts/37. Sending Ether.sol\":445:732  function sendViaSend(address payable to) external payable {... */\n    tag_20:\n        /* \"contracts/37. Sending Ether.sol\":647:656  bool sent */\n      0x00\n        /* \"contracts/37. Sending Ether.sol\":659:661  to */\n      dup2\n        /* \"contracts/37. Sending Ether.sol\":659:666  to.send */\n      0xffffffffffffffffffffffffffffffffffffffff\n      and\n        /* \"contracts/37. Sending Ether.sol\":659:678  to.send(send_value) */\n      0x08fc\n        /* \"contracts/37. Sending Ether.sol\":667:677  send_value */\n      sload(0x00)\n        /* \"contracts/37. Sending Ether.sol\":659:678  to.send(send_value) */\n      swap1\n      dup2\n      iszero\n      mul\n      swap1\n      mload(0x40)\n      0x00\n      mload(0x40)\n      dup1\n      dup4\n      sub\n      dup2\n      dup6\n      dup9\n      dup9\n      call\n      swap4\n      pop\n      pop\n      pop\n      pop\n        /* \"contracts/37. Sending Ether.sol\":647:678  bool sent = to.send(send_value) */\n      swap1\n      pop\n        /* \"contracts/37. Sending Ether.sol\":696:700  sent */\n      dup1\n        /* \"contracts/37. Sending Ether.sol\":688:725  require(sent, \"Failed to send Ether\") */\n      tag_30\n      jumpi\n      mload(0x40)\n      0x08c379a000000000000000000000000000000000000000000000000000000000\n      dup2\n      mstore\n      0x04\n      add\n      tag_31\n      swap1\n      tag_32\n      jump\t// in\n    tag_31:\n      mload(0x40)\n      dup1\n      swap2\n      sub\n      swap1\n      revert\n    tag_30:\n        /* \"contracts/37. Sending Ether.sol\":503:732  {... */\n      pop\n        /* \"contracts/37. Sending Ether.sol\":445:732  function sendViaSend(address payable to) external payable {... */\n      pop\n      jump\t// out\n        /* \"contracts/37. Sending Ether.sol\":738:1052  function sendViaCall(address payable to) external payable {... */\n    tag_23:\n        /* \"contracts/37. Sending Ether.sol\":936:945  bool sent */\n      0x00\n        /* \"contracts/37. Sending Ether.sol\":947:964  bytes memory data */\n      dup1\n        /* \"contracts/37. Sending Ether.sol\":968:970  to */\n      dup3\n        /* \"contracts/37. Sending Ether.sol\":968:975  to.call */\n      0xffffffffffffffffffffffffffffffffffffffff\n      and\n        /* \"contracts/37. Sending Ether.sol\":983:993  send_value */\n      sload(0x00)\n        /* \"contracts/37. Sending Ether.sol\":968:998  to.call{value: send_value}(\"\") */\n      mload(0x40)\n      tag_34\n      swap1\n      tag_35\n      jump\t// in\n    tag_34:\n      0x00\n      mload(0x40)\n      dup1\n      dup4\n      sub\n      dup2\n      dup6\n      dup8\n      gas\n      call\n      swap3\n      pop\n      pop\n      pop\n      returndatasize\n      dup1\n      0x00\n      dup2\n      eq\n      tag_38\n      jumpi\n      mload(0x40)\n      swap2\n      pop\n      and(add(returndatasize, 0x3f), not(0x1f))\n      dup3\n      add\n      0x40\n      mstore\n      returndatasize\n      dup3\n      mstore\n      returndatasize\n      0x00\n      0x20\n      dup5\n      add\n      returndatacopy\n      jump(tag_37)\n    tag_38:\n      0x60\n      swap2\n      pop\n    tag_37:\n      pop\n        /* \"contracts/37. Sending Ether.sol\":935:998  (bool sent, bytes memory data) = to.call{value: send_value}(\"\") */\n      swap2\n      pop\n      swap2\n      pop\n        /* \"contracts/37. Sending Ether.sol\":1016:1020  sent */\n      dup2\n        /* \"contracts/37. Sending Ether.sol\":1008:1045  require(sent, \"Failed to send Ether\") */\n      tag_39\n      jumpi\n      mload(0x40)\n      0x08c379a000000000000000000000000000000000000000000000000000000000\n      dup2\n      mstore\n      0x04\n      add\n      tag_40\n      swap1\n      tag_32\n      jump\t// in\n    tag_40:\n      mload(0x40)\n      dup1\n      swap2\n      sub\n      swap1\n      revert\n    tag_39:\n        /* \"contracts/37. Sending Ether.sol\":796:1052  {... */\n      pop\n      pop\n        /* \"contracts/37. Sending Ether.sol\":738:1052  function sendViaCall(address payable to) external payable {... */\n      pop\n      jump\t// out\n        /* \"#utility.yul\":88:205   */\n    tag_42:\n        /* \"#utility.yul\":197:198   */\n      0x00\n        /* \"#utility.yul\":194:195   */\n      dup1\n        /* \"#utility.yul\":187:199   */\n      revert\n        /* \"#utility.yul\":334:411   */\n    tag_44:\n        /* \"#utility.yul\":371:378   */\n      0x00\n        /* \"#utility.yul\":400:405   */\n      dup2\n        /* \"#utility.yul\":389:405   */\n      swap1\n      pop\n        /* \"#utility.yul\":334:411   */\n      swap2\n      swap1\n      pop\n      jump\t// out\n        /* \"#utility.yul\":417:539   */\n    tag_45:\n        /* \"#utility.yul\":490:514   */\n      tag_63\n        /* \"#utility.yul\":508:513   */\n      dup2\n        /* \"#utility.yul\":490:514   */\n      tag_44\n      jump\t// in\n    tag_63:\n        /* \"#utility.yul\":483:488   */\n      dup2\n        /* \"#utility.yul\":480:515   */\n      eq\n        /* \"#utility.yul\":470:533   */\n      tag_64\n      jumpi\n        /* \"#utility.yul\":529:530   */\n      0x00\n        /* \"#utility.yul\":526:527   */\n      dup1\n        /* \"#utility.yul\":519:531   */\n      revert\n        /* \"#utility.yul\":470:533   */\n    tag_64:\n        /* \"#utility.yul\":417:539   */\n      pop\n      jump\t// out\n        /* \"#utility.yul\":545:684   */\n    tag_46:\n        /* \"#utility.yul\":591:596   */\n      0x00\n        /* \"#utility.yul\":629:635   */\n      dup2\n        /* \"#utility.yul\":616:636   */\n      calldataload\n        /* \"#utility.yul\":607:636   */\n      swap1\n      pop\n        /* \"#utility.yul\":645:678   */\n      tag_66\n        /* \"#utility.yul\":672:677   */\n      dup2\n        /* \"#utility.yul\":645:678   */\n      tag_45\n      jump\t// in\n    tag_66:\n        /* \"#utility.yul\":545:684   */\n      swap3\n      swap2\n      pop\n      pop\n      jump\t// out\n        /* \"#utility.yul\":690:1019   */\n    tag_12:\n        /* \"#utility.yul\":749:755   */\n      0x00\n        /* \"#utility.yul\":798:800   */\n      0x20\n        /* \"#utility.yul\":786:795   */\n      dup3\n        /* \"#utility.yul\":777:784   */\n      dup5\n        /* \"#utility.yul\":773:796   */\n      sub\n        /* \"#utility.yul\":769:801   */\n      slt\n        /* \"#utility.yul\":766:885   */\n      iszero\n      tag_68\n      jumpi\n        /* \"#utility.yul\":804:883   */\n      tag_69\n      tag_42\n      jump\t// in\n    tag_69:\n        /* \"#utility.yul\":766:885   */\n    tag_68:\n        /* \"#utility.yul\":924:925   */\n      0x00\n        /* \"#utility.yul\":949:1002   */\n      tag_70\n        /* \"#utility.yul\":994:1001   */\n      dup5\n        /* \"#utility.yul\":985:991   */\n      dup3\n        /* \"#utility.yul\":974:983   */\n      dup6\n        /* \"#utility.yul\":970:992   */\n      add\n        /* \"#utility.yul\":949:1002   */\n      tag_46\n      jump\t// in\n    tag_70:\n        /* \"#utility.yul\":939:1002   */\n      swap2\n      pop\n        /* \"#utility.yul\":895:1012   */\n      pop\n        /* \"#utility.yul\":690:1019   */\n      swap3\n      swap2\n      pop\n      pop\n      jump\t// out\n        /* \"#utility.yul\":1025:1151   */\n    tag_47:\n        /* \"#utility.yul\":1062:1069   */\n      0x00\n        /* \"#utility.yul\":1102:1144   */\n      0xffffffffffffffffffffffffffffffffffffffff\n        /* \"#utility.yul\":1095:1100   */\n      dup3\n        /* \"#utility.yul\":1091:1145   */\n      and\n        /* \"#utility.yul\":1080:1145   */\n      swap1\n      pop\n        /* \"#utility.yul\":1025:1151   */\n      swap2\n      swap1\n      pop\n      jump\t// out\n        /* \"#utility.yul\":1157:1261   */\n    tag_48:\n        /* \"#utility.yul\":1202:1209   */\n      0x00\n        /* \"#utility.yul\":1231:1255   */\n      tag_73\n        /* \"#utility.yul\":1249:1254   */\n      dup3\n        /* \"#utility.yul\":1231:1255   */\n      tag_47\n      jump\t// in\n    tag_73:\n        /* \"#utility.yul\":1220:1255   */\n      swap1\n      pop\n        /* \"#utility.yul\":1157:1261   */\n      swap2\n      swap1\n      pop\n      jump\t// out\n        /* \"#utility.yul\":1267:1405   */\n    tag_49:\n        /* \"#utility.yul\":1348:1380   */\n      tag_75\n        /* \"#utility.yul\":1374:1379   */\n      dup2\n        /* \"#utility.yul\":1348:1380   */\n      tag_48\n      jump\t// in\n    tag_75:\n        /* \"#utility.yul\":1341:1346   */\n      dup2\n        /* \"#utility.yul\":1338:1381   */\n      eq\n        /* \"#utility.yul\":1328:1399   */\n      tag_76\n      jumpi\n        /* \"#utility.yul\":1395:1396   */\n      0x00\n        /* \"#utility.yul\":1392:1393   */\n      dup1\n        /* \"#utility.yul\":1385:1397   */\n      revert\n        /* \"#utility.yul\":1328:1399   */\n    tag_76:\n        /* \"#utility.yul\":1267:1405   */\n      pop\n      jump\t// out\n        /* \"#utility.yul\":1411:1566   */\n    tag_50:\n        /* \"#utility.yul\":1465:1470   */\n      0x00\n        /* \"#utility.yul\":1503:1509   */\n      dup2\n        /* \"#utility.yul\":1490:1510   */\n      calldataload\n        /* \"#utility.yul\":1481:1510   */\n      swap1\n      pop\n        /* \"#utility.yul\":1519:1560   */\n      tag_78\n        /* \"#utility.yul\":1554:1559   */\n      dup2\n        /* \"#utility.yul\":1519:1560   */\n      tag_49\n      jump\t// in\n    tag_78:\n        /* \"#utility.yul\":1411:1566   */\n      swap3\n      swap2\n      pop\n      pop\n      jump\t// out\n        /* \"#utility.yul\":1572:1917   */\n    tag_16:\n        /* \"#utility.yul\":1639:1645   */\n      0x00\n        /* \"#utility.yul\":1688:1690   */\n      0x20\n        /* \"#utility.yul\":1676:1685   */\n      dup3\n        /* \"#utility.yul\":1667:1674   */\n      dup5\n        /* \"#utility.yul\":1663:1686   */\n      sub\n        /* \"#utility.yul\":1659:1691   */\n      slt\n        /* \"#utility.yul\":1656:1775   */\n      iszero\n      tag_80\n      jumpi\n        /* \"#utility.yul\":1694:1773   */\n      tag_81\n      tag_42\n      jump\t// in\n    tag_81:\n        /* \"#utility.yul\":1656:1775   */\n    tag_80:\n        /* \"#utility.yul\":1814:1815   */\n      0x00\n        /* \"#utility.yul\":1839:1900   */\n      tag_82\n        /* \"#utility.yul\":1892:1899   */\n      dup5\n        /* \"#utility.yul\":1883:1889   */\n      dup3\n        /* \"#utility.yul\":1872:1881   */\n      dup6\n        /* \"#utility.yul\":1868:1890   */\n      add\n        /* \"#utility.yul\":1839:1900   */\n      tag_50\n      jump\t// in\n    tag_82:\n        /* \"#utility.yul\":1829:1900   */\n      swap2\n      pop\n        /* \"#utility.yul\":1785:1910   */\n      pop\n        /* \"#utility.yul\":1572:1917   */\n      swap3\n      swap2\n      pop\n      pop\n      jump\t// out\n        /* \"#utility.yul\":1923:2092   */\n    tag_51:\n        /* \"#utility.yul\":2007:2018   */\n      0x00\n        /* \"#utility.yul\":2041:2047   */\n      dup3\n        /* \"#utility.yul\":2036:2039   */\n      dup3\n        /* \"#utility.yul\":2029:2048   */\n      mstore\n        /* \"#utility.yul\":2081:2085   */\n      0x20\n        /* \"#utility.yul\":2076:2079   */\n      dup3\n        /* \"#utility.yul\":2072:2086   */\n      add\n        /* \"#utility.yul\":2057:2086   */\n      swap1\n      pop\n        /* \"#utility.yul\":1923:2092   */\n      swap3\n      swap2\n      pop\n      pop\n      jump\t// out\n        /* \"#utility.yul\":2098:2268   */\n    tag_52:\n        /* \"#utility.yul\":2238:2260   */\n      0x4661696c656420746f2073656e64204574686572000000000000000000000000\n        /* \"#utility.yul\":2234:2235   */\n      0x00\n        /* \"#utility.yul\":2226:2232   */\n      dup3\n        /* \"#utility.yul\":2222:2236   */\n      add\n        /* \"#utility.yul\":2215:2261   */\n      mstore\n        /* \"#utility.yul\":2098:2268   */\n      pop\n      jump\t// out\n        /* \"#utility.yul\":2274:2640   */\n    tag_53:\n        /* \"#utility.yul\":2416:2419   */\n      0x00\n        /* \"#utility.yul\":2437:2504   */\n      tag_86\n        /* \"#utility.yul\":2501:2503   */\n      0x14\n        /* \"#utility.yul\":2496:2499   */\n      dup4\n        /* \"#utility.yul\":2437:2504   */\n      tag_51\n      jump\t// in\n    tag_86:\n        /* \"#utility.yul\":2430:2504   */\n      swap2\n      pop\n        /* \"#utility.yul\":2513:2606   */\n      tag_87\n        /* \"#utility.yul\":2602:2605   */\n      dup3\n        /* \"#utility.yul\":2513:2606   */\n      tag_52\n      jump\t// in\n    tag_87:\n        /* \"#utility.yul\":2631:2633   */\n      0x20\n        /* \"#utility.yul\":2626:2629   */\n      dup3\n        /* \"#utility.yul\":2622:2634   */\n      add\n        /* \"#utility.yul\":2615:2634   */\n      swap1\n      pop\n        /* \"#utility.yul\":2274:2640   */\n      swap2\n      swap1\n      pop\n      jump\t// out\n        /* \"#utility.yul\":2646:3065   */\n    tag_32:\n        /* \"#utility.yul\":2812:2816   */\n      0x00\n        /* \"#utility.yul\":2850:2852   */\n      0x20\n        /* \"#utility.yul\":2839:2848   */\n      dup3\n        /* \"#utility.yul\":2835:2853   */\n      add\n        /* \"#utility.yul\":2827:2853   */\n      swap1\n      pop\n        /* \"#utility.yul\":2899:2908   */\n      dup2\n        /* \"#utility.yul\":2893:2897   */\n      dup2\n        /* \"#utility.yul\":2889:2909   */\n      sub\n        /* \"#utility.yul\":2885:2886   */\n      0x00\n        /* \"#utility.yul\":2874:2883   */\n      dup4\n        /* \"#utility.yul\":2870:2887   */\n      add\n        /* \"#utility.yul\":2863:2910   */\n      mstore\n        /* \"#utility.yul\":2927:3058   */\n      tag_89\n        /* \"#utility.yul\":3053:3057   */\n      dup2\n        /* \"#utility.yul\":2927:3058   */\n      tag_53\n      jump\t// in\n    tag_89:\n        /* \"#utility.yul\":2919:3058   */\n      swap1\n      pop\n        /* \"#utility.yul\":2646:3065   */\n      swap2\n      swap1\n      pop\n      jump\t// out\n        /* \"#utility.yul\":3071:3218   */\n    tag_54:\n        /* \"#utility.yul\":3172:3183   */\n      0x00\n        /* \"#utility.yul\":3209:3212   */\n      dup2\n        /* \"#utility.yul\":3194:3212   */\n      swap1\n      pop\n        /* \"#utility.yul\":3071:3218   */\n      swap3\n      swap2\n      pop\n      pop\n      jump\t// out\n        /* \"#utility.yul\":3224:3338   */\n    tag_55:\n      pop\n      jump\t// out\n        /* \"#utility.yul\":3344:3742   */\n    tag_56:\n        /* \"#utility.yul\":3503:3506   */\n      0x00\n        /* \"#utility.yul\":3524:3607   */\n      tag_93\n        /* \"#utility.yul\":3605:3606   */\n      0x00\n        /* \"#utility.yul\":3600:3603   */\n      dup4\n        /* \"#utility.yul\":3524:3607   */\n      tag_54\n      jump\t// in\n    tag_93:\n        /* \"#utility.yul\":3517:3607   */\n      swap2\n      pop\n        /* \"#utility.yul\":3616:3709   */\n      tag_94\n        /* \"#utility.yul\":3705:3708   */\n      dup3\n        /* \"#utility.yul\":3616:3709   */\n      tag_55\n      jump\t// in\n    tag_94:\n        /* \"#utility.yul\":3734:3735   */\n      0x00\n        /* \"#utility.yul\":3729:3732   */\n      dup3\n        /* \"#utility.yul\":3725:3736   */\n      add\n        /* \"#utility.yul\":3718:3736   */\n      swap1\n      pop\n        /* \"#utility.yul\":3344:3742   */\n      swap2\n      swap1\n      pop\n      jump\t// out\n        /* \"#utility.yul\":3748:4127   */\n    tag_35:\n        /* \"#utility.yul\":3932:3935   */\n      0x00\n        /* \"#utility.yul\":3954:4101   */\n      tag_96\n        /* \"#utility.yul\":4097:4100   */\n      dup3\n        /* \"#utility.yul\":3954:4101   */\n      tag_56\n      jump\t// in\n    tag_96:\n        /* \"#utility.yul\":3947:4101   */\n      swap2\n      pop\n        /* \"#utility.yul\":4118:4121   */\n      dup2\n        /* \"#utility.yul\":4111:4121   */\n      swap1\n      pop\n        /* \"#utility.yul\":3748:4127   */\n      swap2\n      swap1\n      pop\n      jump\t// out\n\n    auxdata: 0xa2646970667358221220e64a4f27ab9c60e58c84b4472c2dd8c3d5fb62593aafd19e0f55d6ea12a89fb964736f6c63430008160033\n}\n",
				"bytecode": {
					"linkReferences": {},
					"object": "608060405261041c806100115f395ff3fe608060405260043610610042575f3560e01c8063552410771461004d578063636e082b1461007557806374be480614610091578063830c29ae146100ad57610049565b3661004957005b5f80fd5b348015610058575f80fd5b50610073600480360381019061006e919061027d565b6100c9565b005b61008f600480360381019061008a9190610302565b6100d2565b005b6100ab60048036038101906100a69190610302565b61011a565b005b6100c760048036038101906100c29190610302565b610196565b005b805f8190555050565b8073ffffffffffffffffffffffffffffffffffffffff166108fc5f5490811502906040515f60405180830381858888f19350505050158015610116573d5f803e3d5ffd5b5050565b5f8173ffffffffffffffffffffffffffffffffffffffff166108fc5f5490811502906040515f60405180830381858888f19350505050905080610192576040517f08c379a000000000000000000000000000000000000000000000000000000000815260040161018990610387565b60405180910390fd5b5050565b5f808273ffffffffffffffffffffffffffffffffffffffff165f546040516101bd906103d2565b5f6040518083038185875af1925050503d805f81146101f7576040519150601f19603f3d011682016040523d82523d5f602084013e6101fc565b606091505b509150915081610241576040517f08c379a000000000000000000000000000000000000000000000000000000000815260040161023890610387565b60405180910390fd5b505050565b5f80fd5b5f819050919050565b61025c8161024a565b8114610266575f80fd5b50565b5f8135905061027781610253565b92915050565b5f6020828403121561029257610291610246565b5b5f61029f84828501610269565b91505092915050565b5f73ffffffffffffffffffffffffffffffffffffffff82169050919050565b5f6102d1826102a8565b9050919050565b6102e1816102c7565b81146102eb575f80fd5b50565b5f813590506102fc816102d8565b92915050565b5f6020828403121561031757610316610246565b5b5f610324848285016102ee565b91505092915050565b5f82825260208201905092915050565b7f4661696c656420746f2073656e642045746865720000000000000000000000005f82015250565b5f61037160148361032d565b915061037c8261033d565b602082019050919050565b5f6020820190508181035f83015261039e81610365565b9050919050565b5f81905092915050565b50565b5f6103bd5f836103a5565b91506103c8826103af565b5f82019050919050565b5f6103dc826103b2565b915081905091905056fea2646970667358221220e64a4f27ab9c60e58c84b4472c2dd8c3d5fb62593aafd19e0f55d6ea12a89fb964736f6c63430008160033",
					"opcodes": "PUSH1 0x80 PUSH1 0x40 MSTORE PUSH2 0x41C DUP1 PUSH2 0x11 PUSH0 CODECOPY PUSH0 RETURN INVALID PUSH1 0x80 PUSH1 0x40 MSTORE PUSH1 0x4 CALLDATASIZE LT PUSH2 0x42 JUMPI PUSH0 CALLDATALOAD PUSH1 0xE0 SHR DUP1 PUSH4 0x55241077 EQ PUSH2 0x4D JUMPI DUP1 PUSH4 0x636E082B EQ PUSH2 0x75 JUMPI DUP1 PUSH4 0x74BE4806 EQ PUSH2 0x91 JUMPI DUP1 PUSH4 0x830C29AE EQ PUSH2 0xAD JUMPI PUSH2 0x49 JUMP JUMPDEST CALLDATASIZE PUSH2 0x49 JUMPI STOP JUMPDEST PUSH0 DUP1 REVERT JUMPDEST CALLVALUE DUP1 ISZERO PUSH2 0x58 JUMPI PUSH0 DUP1 REVERT JUMPDEST POP PUSH2 0x73 PUSH1 0x4 DUP1 CALLDATASIZE SUB DUP2 ADD SWAP1 PUSH2 0x6E SWAP2 SWAP1 PUSH2 0x27D JUMP JUMPDEST PUSH2 0xC9 JUMP JUMPDEST STOP JUMPDEST PUSH2 0x8F PUSH1 0x4 DUP1 CALLDATASIZE SUB DUP2 ADD SWAP1 PUSH2 0x8A SWAP2 SWAP1 PUSH2 0x302 JUMP JUMPDEST PUSH2 0xD2 JUMP JUMPDEST STOP JUMPDEST PUSH2 0xAB PUSH1 0x4 DUP1 CALLDATASIZE SUB DUP2 ADD SWAP1 PUSH2 0xA6 SWAP2 SWAP1 PUSH2 0x302 JUMP JUMPDEST PUSH2 0x11A JUMP JUMPDEST STOP JUMPDEST PUSH2 0xC7 PUSH1 0x4 DUP1 CALLDATASIZE SUB DUP2 ADD SWAP1 PUSH2 0xC2 SWAP2 SWAP1 PUSH2 0x302 JUMP JUMPDEST PUSH2 0x196 JUMP JUMPDEST STOP JUMPDEST DUP1 PUSH0 DUP2 SWAP1 SSTORE POP POP JUMP JUMPDEST DUP1 PUSH20 0xFFFFFFFFFFFFFFFFFFFFFFFFFFFFFFFFFFFFFFFF AND PUSH2 0x8FC PUSH0 SLOAD SWAP1 DUP2 ISZERO MUL SWAP1 PUSH1 0x40 MLOAD PUSH0 PUSH1 0x40 MLOAD DUP1 DUP4 SUB DUP2 DUP6 DUP9 DUP9 CALL SWAP4 POP POP POP POP ISZERO DUP1 ISZERO PUSH2 0x116 JUMPI RETURNDATASIZE PUSH0 DUP1 RETURNDATACOPY RETURNDATASIZE PUSH0 REVERT JUMPDEST POP POP JUMP JUMPDEST PUSH0 DUP2 PUSH20 0xFFFFFFFFFFFFFFFFFFFFFFFFFFFFFFFFFFFFFFFF AND PUSH2 0x8FC PUSH0 SLOAD SWAP1 DUP2 ISZERO MUL SWAP1 PUSH1 0x40 MLOAD PUSH0 PUSH1 0x40 MLOAD DUP1 DUP4 SUB DUP2 DUP6 DUP9 DUP9 CALL SWAP4 POP POP POP POP SWAP1 POP DUP1 PUSH2 0x192 JUMPI PUSH1 0x40 MLOAD PUSH32 0x8C379A000000000000000000000000000000000000000000000000000000000 DUP2 MSTORE PUSH1 0x4 ADD PUSH2 0x189 SWAP1 PUSH2 0x387 JUMP JUMPDEST PUSH1 0x40 MLOAD DUP1 SWAP2 SUB SWAP1 REVERT JUMPDEST POP POP JUMP JUMPDEST PUSH0 DUP1 DUP3 PUSH20 0xFFFFFFFFFFFFFFFFFFFFFFFFFFFFFFFFFFFFFFFF AND PUSH0 SLOAD PUSH1 0x40 MLOAD PUSH2 0x1BD SWAP1 PUSH2 0x3D2 JUMP JUMPDEST PUSH0 PUSH1 0x40 MLOAD DUP1 DUP4 SUB DUP2 DUP6 DUP8 GAS CALL SWAP3 POP POP POP RETURNDATASIZE DUP1 PUSH0 DUP2 EQ PUSH2 0x1F7 JUMPI PUSH1 0x40 MLOAD SWAP2 POP PUSH1 0x1F NOT PUSH1 0x3F RETURNDATASIZE ADD AND DUP3 ADD PUSH1 0x40 MSTORE RETURNDATASIZE DUP3 MSTORE RETURNDATASIZE PUSH0 PUSH1 0x20 DUP5 ADD RETURNDATACOPY PUSH2 0x1FC JUMP JUMPDEST PUSH1 0x60 SWAP2 POP JUMPDEST POP SWAP2 POP SWAP2 POP DUP2 PUSH2 0x241 JUMPI PUSH1 0x40 MLOAD PUSH32 0x8C379A000000000000000000000000000000000000000000000000000000000 DUP2 MSTORE PUSH1 0x4 ADD PUSH2 0x238 SWAP1 PUSH2 0x387 JUMP JUMPDEST PUSH1 0x40 MLOAD DUP1 SWAP2 SUB SWAP1 REVERT JUMPDEST POP POP POP JUMP JUMPDEST PUSH0 DUP1 REVERT JUMPDEST PUSH0 DUP2 SWAP1 POP SWAP2 SWAP1 POP JUMP JUMPDEST PUSH2 0x25C DUP2 PUSH2 0x24A JUMP JUMPDEST DUP2 EQ PUSH2 0x266 JUMPI PUSH0 DUP1 REVERT JUMPDEST POP JUMP JUMPDEST PUSH0 DUP2 CALLDATALOAD SWAP1 POP PUSH2 0x277 DUP2 PUSH2 0x253 JUMP JUMPDEST SWAP3 SWAP2 POP POP JUMP JUMPDEST PUSH0 PUSH1 0x20 DUP3 DUP5 SUB SLT ISZERO PUSH2 0x292 JUMPI PUSH2 0x291 PUSH2 0x246 JUMP JUMPDEST JUMPDEST PUSH0 PUSH2 0x29F DUP5 DUP3 DUP6 ADD PUSH2 0x269 JUMP JUMPDEST SWAP2 POP POP SWAP3 SWAP2 POP POP JUMP JUMPDEST PUSH0 PUSH20 0xFFFFFFFFFFFFFFFFFFFFFFFFFFFFFFFFFFFFFFFF DUP3 AND SWAP1 POP SWAP2 SWAP1 POP JUMP JUMPDEST PUSH0 PUSH2 0x2D1 DUP3 PUSH2 0x2A8 JUMP JUMPDEST SWAP1 POP SWAP2 SWAP1 POP JUMP JUMPDEST PUSH2 0x2E1 DUP2 PUSH2 0x2C7 JUMP JUMPDEST DUP2 EQ PUSH2 0x2EB JUMPI PUSH0 DUP1 REVERT JUMPDEST POP JUMP JUMPDEST PUSH0 DUP2 CALLDATALOAD SWAP1 POP PUSH2 0x2FC DUP2 PUSH2 0x2D8 JUMP JUMPDEST SWAP3 SWAP2 POP POP JUMP JUMPDEST PUSH0 PUSH1 0x20 DUP3 DUP5 SUB SLT ISZERO PUSH2 0x317 JUMPI PUSH2 0x316 PUSH2 0x246 JUMP JUMPDEST JUMPDEST PUSH0 PUSH2 0x324 DUP5 DUP3 DUP6 ADD PUSH2 0x2EE JUMP JUMPDEST SWAP2 POP POP SWAP3 SWAP2 POP POP JUMP JUMPDEST PUSH0 DUP3 DUP3 MSTORE PUSH1 0x20 DUP3 ADD SWAP1 POP SWAP3 SWAP2 POP POP JUMP JUMPDEST PUSH32 0x4661696C656420746F2073656E64204574686572000000000000000000000000 PUSH0 DUP3 ADD MSTORE POP JUMP JUMPDEST PUSH0 PUSH2 0x371 PUSH1 0x14 DUP4 PUSH2 0x32D JUMP JUMPDEST SWAP2 POP PUSH2 0x37C DUP3 PUSH2 0x33D JUMP JUMPDEST PUSH1 0x20 DUP3 ADD SWAP1 POP SWAP2 SWAP1 POP JUMP JUMPDEST PUSH0 PUSH1 0x20 DUP3 ADD SWAP1 POP DUP2 DUP2 SUB PUSH0 DUP4 ADD MSTORE PUSH2 0x39E DUP2 PUSH2 0x365 JUMP JUMPDEST SWAP1 POP SWAP2 SWAP1 POP JUMP JUMPDEST PUSH0 DUP2 SWAP1 POP SWAP3 SWAP2 POP POP JUMP JUMPDEST POP JUMP JUMPDEST PUSH0 PUSH2 0x3BD PUSH0 DUP4 PUSH2 0x3A5 JUMP JUMPDEST SWAP2 POP PUSH2 0x3C8 DUP3 PUSH2 0x3AF JUMP JUMPDEST PUSH0 DUP3 ADD SWAP1 POP SWAP2 SWAP1 POP JUMP JUMPDEST PUSH0 PUSH2 0x3DC DUP3 PUSH2 0x3B2 JUMP JUMPDEST SWAP2 POP DUP2 SWAP1 POP SWAP2 SWAP1 POP JUMP INVALID LOG2 PUSH5 0x6970667358 0x22 SLT KECCAK256 0xE6 0x4A 0x4F 0x27 0xAB SWAP13 PUSH1 0xE5 DUP13 DUP5 0xB4 SELFBALANCE 0x2C 0x2D 0xD8 0xC3 0xD5 0xFB PUSH3 0x593AAF 0xD1 SWAP15 0xF SSTORE 0xD6 0xEA SLT 0xA8 SWAP16 0xB9 PUSH5 0x736F6C6343 STOP ADDMOD AND STOP CALLER "
				},
				"gasEstimates": {
					"creation": {
						"codeDepositCost": "210400",
						"executionCost": "225",
						"totalCost": "210625"
					},
					"external": {
						"sendViaCall(address)": "infinite",
						"sendViaSend(address)": "infinite",
						"sendViaTransfer(address)": "infinite",
						"setValue(uint256)": "22492"
					}
				},
				"methodIdentifiers": {
					"sendViaCall(address)": "830c29ae",
					"sendViaSend(address)": "74be4806",
					"sendViaTransfer(address)": "636e082b",
					"setValue(uint256)": "55241077"
				}
			},
			"storageLayout": {
				"storage": [
					{
						"astId": 3,
						"contract": "contracts/37. Sending Ether.sol:SendEther",
						"label": "send_value",
						"offset": 0,
						"slot": "0",
						"type": "t_uint256"
					}
				],
				"types": {
					"t_uint256": {
						"encoding": "inplace",
						"label": "uint256",
						"numberOfBytes": "32"
					}
				}
			},
			"userdoc": {
				"kind": "user",
				"methods": {},
				"version": 1
			}
		}
	}
}