{
	"contracts/43. New.sol": {
		"Bank": {
			"abi": [
				{
					"inputs": [
						{
							"internalType": "uint256",
							"name": "",
							"type": "uint256"
						}
					],
					"name": "accounts",
					"outputs": [
						{
							"internalType": "contract Account",
							"name": "",
							"type": "address"
						}
					],
					"stateMutability": "view",
					"type": "function"
				},
				{
					"inputs": [
						{
							"internalType": "address",
							"name": "owner",
							"type": "address"
						}
					],
					"name": "createAccount",
					"outputs": [],
					"stateMutability": "nonpayable",
					"type": "function"
				},
				{
					"inputs": [
						{
							"internalType": "address",
							"name": "owner",
							"type": "address"
						}
					],
					"name": "createAccountAndSendEther",
					"outputs": [],
					"stateMutability": "payable",
					"type": "function"
				},
				{
					"inputs": [
						{
							"internalType": "address",
							"name": "owner",
							"type": "address"
						}
					],
					"name": "createSavingsAccount",
					"outputs": [],
					"stateMutability": "nonpayable",
					"type": "function"
				}
			],
			"devdoc": {
				"kind": "dev",
				"methods": {},
				"version": 1
			},
			"evm": {
				"assembly": "    /* \"contracts/43. New.sol\":201:756  contract Bank {... */\n  mstore(0x40, 0x80)\n  callvalue\n  dup1\n  iszero\n  tag_1\n  jumpi\n  0x00\n  dup1\n  revert\ntag_1:\n  pop\n  dataSize(sub_0)\n  dup1\n  dataOffset(sub_0)\n  0x00\n  codecopy\n  0x00\n  return\nstop\n\nsub_0: assembly {\n        /* \"contracts/43. New.sol\":201:756  contract Bank {... */\n      mstore(0x40, 0x80)\n      jumpi(tag_1, lt(calldatasize, 0x04))\n      shr(0xe0, calldataload(0x00))\n      dup1\n      0x5bf762\n      eq\n      tag_2\n      jumpi\n      dup1\n      0x8c41beaa\n      eq\n      tag_3\n      jumpi\n      dup1\n      0x9859387b\n      eq\n      tag_4\n      jumpi\n      dup1\n      0xf2a40db8\n      eq\n      tag_5\n      jumpi\n    tag_1:\n      0x00\n      dup1\n      revert\n        /* \"contracts/43. New.sol\":394:569  function createAccountAndSendEther(address owner) external payable {... */\n    tag_2:\n      tag_6\n      0x04\n      dup1\n      calldatasize\n      sub\n      dup2\n      add\n      swap1\n      tag_7\n      swap2\n      swap1\n      tag_8\n      jump\t// in\n    tag_7:\n      tag_9\n      jump\t// in\n    tag_6:\n      stop\n        /* \"contracts/43. New.sol\":575:754  function createSavingsAccount(address owner) external {... */\n    tag_3:\n      callvalue\n      dup1\n      iszero\n      tag_10\n      jumpi\n      0x00\n      dup1\n      revert\n    tag_10:\n      pop\n      tag_11\n      0x04\n      dup1\n      calldatasize\n      sub\n      dup2\n      add\n      swap1\n      tag_12\n      swap2\n      swap1\n      tag_8\n      jump\t// in\n    tag_12:\n      tag_13\n      jump\t// in\n    tag_11:\n      stop\n        /* \"contracts/43. New.sol\":253:388  function createAccount(address owner) external {... */\n    tag_4:\n      callvalue\n      dup1\n      iszero\n      tag_14\n      jumpi\n      0x00\n      dup1\n      revert\n    tag_14:\n      pop\n      tag_15\n      0x04\n      dup1\n      calldatasize\n      sub\n      dup2\n      add\n      swap1\n      tag_16\n      swap2\n      swap1\n      tag_8\n      jump\t// in\n    tag_16:\n      tag_17\n      jump\t// in\n    tag_15:\n      stop\n        /* \"contracts/43. New.sol\":221:246  Account[] public accounts */\n    tag_5:\n      callvalue\n      dup1\n      iszero\n      tag_18\n      jumpi\n      0x00\n      dup1\n      revert\n    tag_18:\n      pop\n      tag_19\n      0x04\n      dup1\n      calldatasize\n      sub\n      dup2\n      add\n      swap1\n      tag_20\n      swap2\n      swap1\n      tag_21\n      jump\t// in\n    tag_20:\n      tag_22\n      jump\t// in\n    tag_19:\n      mload(0x40)\n      tag_23\n      swap2\n      swap1\n      tag_24\n      jump\t// in\n    tag_23:\n      mload(0x40)\n      dup1\n      swap2\n      sub\n      swap1\n      return\n        /* \"contracts/43. New.sol\":394:569  function createAccountAndSendEther(address owner) external payable {... */\n    tag_9:\n        /* \"contracts/43. New.sol\":471:486  Account account */\n      0x00\n        /* \"contracts/43. New.sol\":510:519  msg.value */\n      callvalue\n        /* \"contracts/43. New.sol\":521:526  owner */\n      dup3\n        /* \"contracts/43. New.sol\":528:529  0 */\n      0x00\n        /* \"contracts/43. New.sol\":489:530  (new Account){value: msg.value}(owner, 0) */\n      mload(0x40)\n      tag_26\n      swap1\n      tag_27\n      jump\t// in\n    tag_26:\n      tag_28\n      swap3\n      swap2\n      swap1\n      tag_29\n      jump\t// in\n    tag_28:\n      mload(0x40)\n      dup1\n      swap2\n      sub\n      swap1\n      dup3\n      create\n      swap1\n      pop\n      dup1\n      iszero\n      dup1\n      iszero\n      tag_30\n      jumpi\n      returndatasize\n      0x00\n      dup1\n      returndatacopy\n      revert(0x00, returndatasize)\n    tag_30:\n      pop\n        /* \"contracts/43. New.sol\":471:530  Account account = (new Account){value: msg.value}(owner, 0) */\n      swap1\n      pop\n        /* \"contracts/43. New.sol\":540:548  accounts */\n      0x00\n        /* \"contracts/43. New.sol\":554:561  account */\n      dup2\n        /* \"contracts/43. New.sol\":540:562  accounts.push(account) */\n      swap1\n      dup1\n      0x01\n      dup2\n      sload\n      add\n      dup1\n      dup3\n      sstore\n      dup1\n      swap2\n      pop\n      pop\n      0x01\n      swap1\n      sub\n      swap1\n      0x00\n      mstore\n      keccak256(0x00, 0x20)\n      add\n      0x00\n      swap1\n      swap2\n      swap1\n      swap2\n      swap1\n      swap2\n      0x0100\n      exp\n      dup2\n      sload\n      dup2\n      0xffffffffffffffffffffffffffffffffffffffff\n      mul\n      not\n      and\n      swap1\n      dup4\n      0xffffffffffffffffffffffffffffffffffffffff\n      and\n      mul\n      or\n      swap1\n      sstore\n      pop\n        /* \"contracts/43. New.sol\":461:569  {... */\n      pop\n        /* \"contracts/43. New.sol\":394:569  function createAccountAndSendEther(address owner) external payable {... */\n      pop\n      jump\t// out\n        /* \"contracts/43. New.sol\":575:754  function createSavingsAccount(address owner) external {... */\n    tag_13:\n        /* \"contracts/43. New.sol\":671:686  Account account */\n      0x00\n        /* \"contracts/43. New.sol\":703:708  owner */\n      dup2\n        /* \"contracts/43. New.sol\":710:714  1000 */\n      0x03e8\n        /* \"contracts/43. New.sol\":689:715  (new Account)(owner, 1000) */\n      mload(0x40)\n      tag_33\n      swap1\n      tag_27\n      jump\t// in\n    tag_33:\n      tag_34\n      swap3\n      swap2\n      swap1\n      tag_35\n      jump\t// in\n    tag_34:\n      mload(0x40)\n      dup1\n      swap2\n      sub\n      swap1\n      0x00\n      create\n      dup1\n      iszero\n      dup1\n      iszero\n      tag_36\n      jumpi\n      returndatasize\n      0x00\n      dup1\n      returndatacopy\n      revert(0x00, returndatasize)\n    tag_36:\n      pop\n        /* \"contracts/43. New.sol\":671:715  Account account = (new Account)(owner, 1000) */\n      swap1\n      pop\n        /* \"contracts/43. New.sol\":725:733  accounts */\n      0x00\n        /* \"contracts/43. New.sol\":739:746  account */\n      dup2\n        /* \"contracts/43. New.sol\":725:747  accounts.push(account) */\n      swap1\n      dup1\n      0x01\n      dup2\n      sload\n      add\n      dup1\n      dup3\n      sstore\n      dup1\n      swap2\n      pop\n      pop\n      0x01\n      swap1\n      sub\n      swap1\n      0x00\n      mstore\n      keccak256(0x00, 0x20)\n      add\n      0x00\n      swap1\n      swap2\n      swap1\n      swap2\n      swap1\n      swap2\n      0x0100\n      exp\n      dup2\n      sload\n      dup2\n      0xffffffffffffffffffffffffffffffffffffffff\n      mul\n      not\n      and\n      swap1\n      dup4\n      0xffffffffffffffffffffffffffffffffffffffff\n      and\n      mul\n      or\n      swap1\n      sstore\n      pop\n        /* \"contracts/43. New.sol\":629:754  {... */\n      pop\n        /* \"contracts/43. New.sol\":575:754  function createSavingsAccount(address owner) external {... */\n      pop\n      jump\t// out\n        /* \"contracts/43. New.sol\":253:388  function createAccount(address owner) external {... */\n    tag_17:\n        /* \"contracts/43. New.sol\":310:325  Account account */\n      0x00\n        /* \"contracts/43. New.sol\":340:345  owner */\n      dup2\n        /* \"contracts/43. New.sol\":347:348  0 */\n      0x00\n        /* \"contracts/43. New.sol\":328:349  new Account(owner, 0) */\n      mload(0x40)\n      tag_39\n      swap1\n      tag_27\n      jump\t// in\n    tag_39:\n      tag_40\n      swap3\n      swap2\n      swap1\n      tag_29\n      jump\t// in\n    tag_40:\n      mload(0x40)\n      dup1\n      swap2\n      sub\n      swap1\n      0x00\n      create\n      dup1\n      iszero\n      dup1\n      iszero\n      tag_41\n      jumpi\n      returndatasize\n      0x00\n      dup1\n      returndatacopy\n      revert(0x00, returndatasize)\n    tag_41:\n      pop\n        /* \"contracts/43. New.sol\":310:349  Account account = new Account(owner, 0) */\n      swap1\n      pop\n        /* \"contracts/43. New.sol\":359:367  accounts */\n      0x00\n        /* \"contracts/43. New.sol\":373:380  account */\n      dup2\n        /* \"contracts/43. New.sol\":359:381  accounts.push(account) */\n      swap1\n      dup1\n      0x01\n      dup2\n      sload\n      add\n      dup1\n      dup3\n      sstore\n      dup1\n      swap2\n      pop\n      pop\n      0x01\n      swap1\n      sub\n      swap1\n      0x00\n      mstore\n      keccak256(0x00, 0x20)\n      add\n      0x00\n      swap1\n      swap2\n      swap1\n      swap2\n      swap1\n      swap2\n      0x0100\n      exp\n      dup2\n      sload\n      dup2\n      0xffffffffffffffffffffffffffffffffffffffff\n      mul\n      not\n      and\n      swap1\n      dup4\n      0xffffffffffffffffffffffffffffffffffffffff\n      and\n      mul\n      or\n      swap1\n      sstore\n      pop\n        /* \"contracts/43. New.sol\":300:388  {... */\n      pop\n        /* \"contracts/43. New.sol\":253:388  function createAccount(address owner) external {... */\n      pop\n      jump\t// out\n        /* \"contracts/43. New.sol\":221:246  Account[] public accounts */\n    tag_22:\n      0x00\n      dup2\n      dup2\n      sload\n      dup2\n      lt\n      tag_43\n      jumpi\n      0x00\n      dup1\n      revert\n    tag_43:\n      swap1\n      0x00\n      mstore\n      keccak256(0x00, 0x20)\n      add\n      0x00\n      swap2\n      pop\n      sload\n      swap1\n      0x0100\n      exp\n      swap1\n      div\n      0xffffffffffffffffffffffffffffffffffffffff\n      and\n      dup2\n      jump\t// out\n    tag_27:\n      dataSize(sub_0)\n      dup1\n      dataOffset(sub_0)\n      dup4\n      codecopy\n      add\n      swap1\n      jump\t// out\n        /* \"#utility.yul\":88:205   */\n    tag_46:\n        /* \"#utility.yul\":197:198   */\n      0x00\n        /* \"#utility.yul\":194:195   */\n      dup1\n        /* \"#utility.yul\":187:199   */\n      revert\n        /* \"#utility.yul\":334:460   */\n    tag_48:\n        /* \"#utility.yul\":371:378   */\n      0x00\n        /* \"#utility.yul\":411:453   */\n      0xffffffffffffffffffffffffffffffffffffffff\n        /* \"#utility.yul\":404:409   */\n      dup3\n        /* \"#utility.yul\":400:454   */\n      and\n        /* \"#utility.yul\":389:454   */\n      swap1\n      pop\n        /* \"#utility.yul\":334:460   */\n      swap2\n      swap1\n      pop\n      jump\t// out\n        /* \"#utility.yul\":466:562   */\n    tag_49:\n        /* \"#utility.yul\":503:510   */\n      0x00\n        /* \"#utility.yul\":532:556   */\n      tag_73\n        /* \"#utility.yul\":550:555   */\n      dup3\n        /* \"#utility.yul\":532:556   */\n      tag_48\n      jump\t// in\n    tag_73:\n        /* \"#utility.yul\":521:556   */\n      swap1\n      pop\n        /* \"#utility.yul\":466:562   */\n      swap2\n      swap1\n      pop\n      jump\t// out\n        /* \"#utility.yul\":568:690   */\n    tag_50:\n        /* \"#utility.yul\":641:665   */\n      tag_75\n        /* \"#utility.yul\":659:664   */\n      dup2\n        /* \"#utility.yul\":641:665   */\n      tag_49\n      jump\t// in\n    tag_75:\n        /* \"#utility.yul\":634:639   */\n      dup2\n        /* \"#utility.yul\":631:666   */\n      eq\n        /* \"#utility.yul\":621:684   */\n      tag_76\n      jumpi\n        /* \"#utility.yul\":680:681   */\n      0x00\n        /* \"#utility.yul\":677:678   */\n      dup1\n        /* \"#utility.yul\":670:682   */\n      revert\n        /* \"#utility.yul\":621:684   */\n    tag_76:\n        /* \"#utility.yul\":568:690   */\n      pop\n      jump\t// out\n        /* \"#utility.yul\":696:835   */\n    tag_51:\n        /* \"#utility.yul\":742:747   */\n      0x00\n        /* \"#utility.yul\":780:786   */\n      dup2\n        /* \"#utility.yul\":767:787   */\n      calldataload\n        /* \"#utility.yul\":758:787   */\n      swap1\n      pop\n        /* \"#utility.yul\":796:829   */\n      tag_78\n        /* \"#utility.yul\":823:828   */\n      dup2\n        /* \"#utility.yul\":796:829   */\n      tag_50\n      jump\t// in\n    tag_78:\n        /* \"#utility.yul\":696:835   */\n      swap3\n      swap2\n      pop\n      pop\n      jump\t// out\n        /* \"#utility.yul\":841:1170   */\n    tag_8:\n        /* \"#utility.yul\":900:906   */\n      0x00\n        /* \"#utility.yul\":949:951   */\n      0x20\n        /* \"#utility.yul\":937:946   */\n      dup3\n        /* \"#utility.yul\":928:935   */\n      dup5\n        /* \"#utility.yul\":924:947   */\n      sub\n        /* \"#utility.yul\":920:952   */\n      slt\n        /* \"#utility.yul\":917:1036   */\n      iszero\n      tag_80\n      jumpi\n        /* \"#utility.yul\":955:1034   */\n      tag_81\n      tag_46\n      jump\t// in\n    tag_81:\n        /* \"#utility.yul\":917:1036   */\n    tag_80:\n        /* \"#utility.yul\":1075:1076   */\n      0x00\n        /* \"#utility.yul\":1100:1153   */\n      tag_82\n        /* \"#utility.yul\":1145:1152   */\n      dup5\n        /* \"#utility.yul\":1136:1142   */\n      dup3\n        /* \"#utility.yul\":1125:1134   */\n      dup6\n        /* \"#utility.yul\":1121:1143   */\n      add\n        /* \"#utility.yul\":1100:1153   */\n      tag_51\n      jump\t// in\n    tag_82:\n        /* \"#utility.yul\":1090:1153   */\n      swap2\n      pop\n        /* \"#utility.yul\":1046:1163   */\n      pop\n        /* \"#utility.yul\":841:1170   */\n      swap3\n      swap2\n      pop\n      pop\n      jump\t// out\n        /* \"#utility.yul\":1176:1253   */\n    tag_52:\n        /* \"#utility.yul\":1213:1220   */\n      0x00\n        /* \"#utility.yul\":1242:1247   */\n      dup2\n        /* \"#utility.yul\":1231:1247   */\n      swap1\n      pop\n        /* \"#utility.yul\":1176:1253   */\n      swap2\n      swap1\n      pop\n      jump\t// out\n        /* \"#utility.yul\":1259:1381   */\n    tag_53:\n        /* \"#utility.yul\":1332:1356   */\n      tag_85\n        /* \"#utility.yul\":1350:1355   */\n      dup2\n        /* \"#utility.yul\":1332:1356   */\n      tag_52\n      jump\t// in\n    tag_85:\n        /* \"#utility.yul\":1325:1330   */\n      dup2\n        /* \"#utility.yul\":1322:1357   */\n      eq\n        /* \"#utility.yul\":1312:1375   */\n      tag_86\n      jumpi\n        /* \"#utility.yul\":1371:1372   */\n      0x00\n        /* \"#utility.yul\":1368:1369   */\n      dup1\n        /* \"#utility.yul\":1361:1373   */\n      revert\n        /* \"#utility.yul\":1312:1375   */\n    tag_86:\n        /* \"#utility.yul\":1259:1381   */\n      pop\n      jump\t// out\n        /* \"#utility.yul\":1387:1526   */\n    tag_54:\n        /* \"#utility.yul\":1433:1438   */\n      0x00\n        /* \"#utility.yul\":1471:1477   */\n      dup2\n        /* \"#utility.yul\":1458:1478   */\n      calldataload\n        /* \"#utility.yul\":1449:1478   */\n      swap1\n      pop\n        /* \"#utility.yul\":1487:1520   */\n      tag_88\n        /* \"#utility.yul\":1514:1519   */\n      dup2\n        /* \"#utility.yul\":1487:1520   */\n      tag_53\n      jump\t// in\n    tag_88:\n        /* \"#utility.yul\":1387:1526   */\n      swap3\n      swap2\n      pop\n      pop\n      jump\t// out\n        /* \"#utility.yul\":1532:1861   */\n    tag_21:\n        /* \"#utility.yul\":1591:1597   */\n      0x00\n        /* \"#utility.yul\":1640:1642   */\n      0x20\n        /* \"#utility.yul\":1628:1637   */\n      dup3\n        /* \"#utility.yul\":1619:1626   */\n      dup5\n        /* \"#utility.yul\":1615:1638   */\n      sub\n        /* \"#utility.yul\":1611:1643   */\n      slt\n        /* \"#utility.yul\":1608:1727   */\n      iszero\n      tag_90\n      jumpi\n        /* \"#utility.yul\":1646:1725   */\n      tag_91\n      tag_46\n      jump\t// in\n    tag_91:\n        /* \"#utility.yul\":1608:1727   */\n    tag_90:\n        /* \"#utility.yul\":1766:1767   */\n      0x00\n        /* \"#utility.yul\":1791:1844   */\n      tag_92\n        /* \"#utility.yul\":1836:1843   */\n      dup5\n        /* \"#utility.yul\":1827:1833   */\n      dup3\n        /* \"#utility.yul\":1816:1825   */\n      dup6\n        /* \"#utility.yul\":1812:1834   */\n      add\n        /* \"#utility.yul\":1791:1844   */\n      tag_54\n      jump\t// in\n    tag_92:\n        /* \"#utility.yul\":1781:1844   */\n      swap2\n      pop\n        /* \"#utility.yul\":1737:1854   */\n      pop\n        /* \"#utility.yul\":1532:1861   */\n      swap3\n      swap2\n      pop\n      pop\n      jump\t// out\n        /* \"#utility.yul\":1867:1927   */\n    tag_55:\n        /* \"#utility.yul\":1895:1898   */\n      0x00\n        /* \"#utility.yul\":1916:1921   */\n      dup2\n        /* \"#utility.yul\":1909:1921   */\n      swap1\n      pop\n        /* \"#utility.yul\":1867:1927   */\n      swap2\n      swap1\n      pop\n      jump\t// out\n        /* \"#utility.yul\":1933:2075   */\n    tag_56:\n        /* \"#utility.yul\":1983:1992   */\n      0x00\n        /* \"#utility.yul\":2016:2069   */\n      tag_95\n        /* \"#utility.yul\":2034:2068   */\n      tag_96\n        /* \"#utility.yul\":2043:2067   */\n      tag_97\n        /* \"#utility.yul\":2061:2066   */\n      dup5\n        /* \"#utility.yul\":2043:2067   */\n      tag_48\n      jump\t// in\n    tag_97:\n        /* \"#utility.yul\":2034:2068   */\n      tag_55\n      jump\t// in\n    tag_96:\n        /* \"#utility.yul\":2016:2069   */\n      tag_48\n      jump\t// in\n    tag_95:\n        /* \"#utility.yul\":2003:2069   */\n      swap1\n      pop\n        /* \"#utility.yul\":1933:2075   */\n      swap2\n      swap1\n      pop\n      jump\t// out\n        /* \"#utility.yul\":2081:2207   */\n    tag_57:\n        /* \"#utility.yul\":2131:2140   */\n      0x00\n        /* \"#utility.yul\":2164:2201   */\n      tag_99\n        /* \"#utility.yul\":2195:2200   */\n      dup3\n        /* \"#utility.yul\":2164:2201   */\n      tag_56\n      jump\t// in\n    tag_99:\n        /* \"#utility.yul\":2151:2201   */\n      swap1\n      pop\n        /* \"#utility.yul\":2081:2207   */\n      swap2\n      swap1\n      pop\n      jump\t// out\n        /* \"#utility.yul\":2213:2354   */\n    tag_58:\n        /* \"#utility.yul\":2278:2287   */\n      0x00\n        /* \"#utility.yul\":2311:2348   */\n      tag_101\n        /* \"#utility.yul\":2342:2347   */\n      dup3\n        /* \"#utility.yul\":2311:2348   */\n      tag_57\n      jump\t// in\n    tag_101:\n        /* \"#utility.yul\":2298:2348   */\n      swap1\n      pop\n        /* \"#utility.yul\":2213:2354   */\n      swap2\n      swap1\n      pop\n      jump\t// out\n        /* \"#utility.yul\":2360:2521   */\n    tag_59:\n        /* \"#utility.yul\":2462:2514   */\n      tag_103\n        /* \"#utility.yul\":2508:2513   */\n      dup2\n        /* \"#utility.yul\":2462:2514   */\n      tag_58\n      jump\t// in\n    tag_103:\n        /* \"#utility.yul\":2457:2460   */\n      dup3\n        /* \"#utility.yul\":2450:2515   */\n      mstore\n        /* \"#utility.yul\":2360:2521   */\n      pop\n      pop\n      jump\t// out\n        /* \"#utility.yul\":2527:2779   */\n    tag_24:\n        /* \"#utility.yul\":2635:2639   */\n      0x00\n        /* \"#utility.yul\":2673:2675   */\n      0x20\n        /* \"#utility.yul\":2662:2671   */\n      dup3\n        /* \"#utility.yul\":2658:2676   */\n      add\n        /* \"#utility.yul\":2650:2676   */\n      swap1\n      pop\n        /* \"#utility.yul\":2686:2772   */\n      tag_105\n        /* \"#utility.yul\":2769:2770   */\n      0x00\n        /* \"#utility.yul\":2758:2767   */\n      dup4\n        /* \"#utility.yul\":2754:2771   */\n      add\n        /* \"#utility.yul\":2745:2751   */\n      dup5\n        /* \"#utility.yul\":2686:2772   */\n      tag_59\n      jump\t// in\n    tag_105:\n        /* \"#utility.yul\":2527:2779   */\n      swap3\n      swap2\n      pop\n      pop\n      jump\t// out\n        /* \"#utility.yul\":2785:2903   */\n    tag_60:\n        /* \"#utility.yul\":2872:2896   */\n      tag_107\n        /* \"#utility.yul\":2890:2895   */\n      dup2\n        /* \"#utility.yul\":2872:2896   */\n      tag_49\n      jump\t// in\n    tag_107:\n        /* \"#utility.yul\":2867:2870   */\n      dup3\n        /* \"#utility.yul\":2860:2897   */\n      mstore\n        /* \"#utility.yul\":2785:2903   */\n      pop\n      pop\n      jump\t// out\n        /* \"#utility.yul\":2909:2994   */\n    tag_61:\n        /* \"#utility.yul\":2954:2961   */\n      0x00\n        /* \"#utility.yul\":2983:2988   */\n      dup2\n        /* \"#utility.yul\":2972:2988   */\n      swap1\n      pop\n        /* \"#utility.yul\":2909:2994   */\n      swap2\n      swap1\n      pop\n      jump\t// out\n        /* \"#utility.yul\":3000:3158   */\n    tag_62:\n        /* \"#utility.yul\":3058:3067   */\n      0x00\n        /* \"#utility.yul\":3091:3152   */\n      tag_110\n        /* \"#utility.yul\":3109:3151   */\n      tag_111\n        /* \"#utility.yul\":3118:3150   */\n      tag_112\n        /* \"#utility.yul\":3144:3149   */\n      dup5\n        /* \"#utility.yul\":3118:3150   */\n      tag_61\n      jump\t// in\n    tag_112:\n        /* \"#utility.yul\":3109:3151   */\n      tag_55\n      jump\t// in\n    tag_111:\n        /* \"#utility.yul\":3091:3152   */\n      tag_52\n      jump\t// in\n    tag_110:\n        /* \"#utility.yul\":3078:3152   */\n      swap1\n      pop\n        /* \"#utility.yul\":3000:3158   */\n      swap2\n      swap1\n      pop\n      jump\t// out\n        /* \"#utility.yul\":3164:3311   */\n    tag_63:\n        /* \"#utility.yul\":3259:3304   */\n      tag_114\n        /* \"#utility.yul\":3298:3303   */\n      dup2\n        /* \"#utility.yul\":3259:3304   */\n      tag_62\n      jump\t// in\n    tag_114:\n        /* \"#utility.yul\":3254:3257   */\n      dup3\n        /* \"#utility.yul\":3247:3305   */\n      mstore\n        /* \"#utility.yul\":3164:3311   */\n      pop\n      pop\n      jump\t// out\n        /* \"#utility.yul\":3317:3665   */\n    tag_29:\n        /* \"#utility.yul\":3446:3450   */\n      0x00\n        /* \"#utility.yul\":3484:3486   */\n      0x40\n        /* \"#utility.yul\":3473:3482   */\n      dup3\n        /* \"#utility.yul\":3469:3487   */\n      add\n        /* \"#utility.yul\":3461:3487   */\n      swap1\n      pop\n        /* \"#utility.yul\":3497:3568   */\n      tag_116\n        /* \"#utility.yul\":3565:3566   */\n      0x00\n        /* \"#utility.yul\":3554:3563   */\n      dup4\n        /* \"#utility.yul\":3550:3567   */\n      add\n        /* \"#utility.yul\":3541:3547   */\n      dup6\n        /* \"#utility.yul\":3497:3568   */\n      tag_60\n      jump\t// in\n    tag_116:\n        /* \"#utility.yul\":3578:3658   */\n      tag_117\n        /* \"#utility.yul\":3654:3656   */\n      0x20\n        /* \"#utility.yul\":3643:3652   */\n      dup4\n        /* \"#utility.yul\":3639:3657   */\n      add\n        /* \"#utility.yul\":3630:3636   */\n      dup5\n        /* \"#utility.yul\":3578:3658   */\n      tag_63\n      jump\t// in\n    tag_117:\n        /* \"#utility.yul\":3317:3665   */\n      swap4\n      swap3\n      pop\n      pop\n      pop\n      jump\t// out\n        /* \"#utility.yul\":3671:3759   */\n    tag_64:\n        /* \"#utility.yul\":3719:3726   */\n      0x00\n        /* \"#utility.yul\":3748:3753   */\n      dup2\n        /* \"#utility.yul\":3737:3753   */\n      swap1\n      pop\n        /* \"#utility.yul\":3671:3759   */\n      swap2\n      swap1\n      pop\n      jump\t// out\n        /* \"#utility.yul\":3765:3929   */\n    tag_65:\n        /* \"#utility.yul\":3826:3835   */\n      0x00\n        /* \"#utility.yul\":3859:3923   */\n      tag_120\n        /* \"#utility.yul\":3877:3922   */\n      tag_121\n        /* \"#utility.yul\":3886:3921   */\n      tag_122\n        /* \"#utility.yul\":3915:3920   */\n      dup5\n        /* \"#utility.yul\":3886:3921   */\n      tag_64\n      jump\t// in\n    tag_122:\n        /* \"#utility.yul\":3877:3922   */\n      tag_55\n      jump\t// in\n    tag_121:\n        /* \"#utility.yul\":3859:3923   */\n      tag_52\n      jump\t// in\n    tag_120:\n        /* \"#utility.yul\":3846:3923   */\n      swap1\n      pop\n        /* \"#utility.yul\":3765:3929   */\n      swap2\n      swap1\n      pop\n      jump\t// out\n        /* \"#utility.yul\":3935:4088   */\n    tag_66:\n        /* \"#utility.yul\":4033:4081   */\n      tag_124\n        /* \"#utility.yul\":4075:4080   */\n      dup2\n        /* \"#utility.yul\":4033:4081   */\n      tag_65\n      jump\t// in\n    tag_124:\n        /* \"#utility.yul\":4028:4031   */\n      dup3\n        /* \"#utility.yul\":4021:4082   */\n      mstore\n        /* \"#utility.yul\":3935:4088   */\n      pop\n      pop\n      jump\t// out\n        /* \"#utility.yul\":4094:4448   */\n    tag_35:\n        /* \"#utility.yul\":4226:4230   */\n      0x00\n        /* \"#utility.yul\":4264:4266   */\n      0x40\n        /* \"#utility.yul\":4253:4262   */\n      dup3\n        /* \"#utility.yul\":4249:4267   */\n      add\n        /* \"#utility.yul\":4241:4267   */\n      swap1\n      pop\n        /* \"#utility.yul\":4277:4348   */\n      tag_126\n        /* \"#utility.yul\":4345:4346   */\n      0x00\n        /* \"#utility.yul\":4334:4343   */\n      dup4\n        /* \"#utility.yul\":4330:4347   */\n      add\n        /* \"#utility.yul\":4321:4327   */\n      dup6\n        /* \"#utility.yul\":4277:4348   */\n      tag_60\n      jump\t// in\n    tag_126:\n        /* \"#utility.yul\":4358:4441   */\n      tag_127\n        /* \"#utility.yul\":4437:4439   */\n      0x20\n        /* \"#utility.yul\":4426:4435   */\n      dup4\n        /* \"#utility.yul\":4422:4440   */\n      add\n        /* \"#utility.yul\":4413:4419   */\n      dup5\n        /* \"#utility.yul\":4358:4441   */\n      tag_66\n      jump\t// in\n    tag_127:\n        /* \"#utility.yul\":4094:4448   */\n      swap4\n      swap3\n      pop\n      pop\n      pop\n      jump\t// out\n    stop\n\n    sub_0: assembly {\n            /* \"contracts/43. New.sol\":758:1027  contract Account {... */\n          mstore(0x40, 0x80)\n            /* \"contracts/43. New.sol\":867:1025  constructor(address _owner, uint256 _withdrawLimit) payable {... */\n          mload(0x40)\n          sub(codesize, bytecodeSize)\n          dup1\n          bytecodeSize\n          dup4\n          codecopy\n          dup2\n          dup2\n          add\n          0x40\n          mstore\n          dup2\n          add\n          swap1\n          tag_1\n          swap2\n          swap1\n          tag_2\n          jump\t// in\n        tag_1:\n            /* \"contracts/43. New.sol\":944:954  msg.sender */\n          caller\n            /* \"contracts/43. New.sol\":937:941  bank */\n          0x00\n          dup1\n            /* \"contracts/43. New.sol\":937:954  bank = msg.sender */\n          0x0100\n          exp\n          dup2\n          sload\n          dup2\n          0xffffffffffffffffffffffffffffffffffffffff\n          mul\n          not\n          and\n          swap1\n          dup4\n          0xffffffffffffffffffffffffffffffffffffffff\n          and\n          mul\n          or\n          swap1\n          sstore\n          pop\n            /* \"contracts/43. New.sol\":972:978  _owner */\n          dup2\n            /* \"contracts/43. New.sol\":964:969  owner */\n          0x01\n          0x00\n            /* \"contracts/43. New.sol\":964:978  owner = _owner */\n          0x0100\n          exp\n          dup2\n          sload\n          dup2\n          0xffffffffffffffffffffffffffffffffffffffff\n          mul\n          not\n          and\n          swap1\n          dup4\n          0xffffffffffffffffffffffffffffffffffffffff\n          and\n          mul\n          or\n          swap1\n          sstore\n          pop\n            /* \"contracts/43. New.sol\":1004:1018  _withdrawLimit */\n          dup1\n            /* \"contracts/43. New.sol\":988:1001  withdrawLimit */\n          0x02\n            /* \"contracts/43. New.sol\":988:1018  withdrawLimit = _withdrawLimit */\n          dup2\n          swap1\n          sstore\n          pop\n            /* \"contracts/43. New.sol\":867:1025  constructor(address _owner, uint256 _withdrawLimit) payable {... */\n          pop\n          pop\n            /* \"contracts/43. New.sol\":758:1027  contract Account {... */\n          jump(tag_5)\n            /* \"#utility.yul\":88:205   */\n        tag_7:\n            /* \"#utility.yul\":197:198   */\n          0x00\n            /* \"#utility.yul\":194:195   */\n          dup1\n            /* \"#utility.yul\":187:199   */\n          revert\n            /* \"#utility.yul\":334:460   */\n        tag_9:\n            /* \"#utility.yul\":371:378   */\n          0x00\n            /* \"#utility.yul\":411:453   */\n          0xffffffffffffffffffffffffffffffffffffffff\n            /* \"#utility.yul\":404:409   */\n          dup3\n            /* \"#utility.yul\":400:454   */\n          and\n            /* \"#utility.yul\":389:454   */\n          swap1\n          pop\n            /* \"#utility.yul\":334:460   */\n          swap2\n          swap1\n          pop\n          jump\t// out\n            /* \"#utility.yul\":466:562   */\n        tag_10:\n            /* \"#utility.yul\":503:510   */\n          0x00\n            /* \"#utility.yul\":532:556   */\n          tag_22\n            /* \"#utility.yul\":550:555   */\n          dup3\n            /* \"#utility.yul\":532:556   */\n          tag_9\n          jump\t// in\n        tag_22:\n            /* \"#utility.yul\":521:556   */\n          swap1\n          pop\n            /* \"#utility.yul\":466:562   */\n          swap2\n          swap1\n          pop\n          jump\t// out\n            /* \"#utility.yul\":568:690   */\n        tag_11:\n            /* \"#utility.yul\":641:665   */\n          tag_24\n            /* \"#utility.yul\":659:664   */\n          dup2\n            /* \"#utility.yul\":641:665   */\n          tag_10\n          jump\t// in\n        tag_24:\n            /* \"#utility.yul\":634:639   */\n          dup2\n            /* \"#utility.yul\":631:666   */\n          eq\n            /* \"#utility.yul\":621:684   */\n          tag_25\n          jumpi\n            /* \"#utility.yul\":680:681   */\n          0x00\n            /* \"#utility.yul\":677:678   */\n          dup1\n            /* \"#utility.yul\":670:682   */\n          revert\n            /* \"#utility.yul\":621:684   */\n        tag_25:\n            /* \"#utility.yul\":568:690   */\n          pop\n          jump\t// out\n            /* \"#utility.yul\":696:839   */\n        tag_12:\n            /* \"#utility.yul\":753:758   */\n          0x00\n            /* \"#utility.yul\":784:790   */\n          dup2\n            /* \"#utility.yul\":778:791   */\n          mload\n            /* \"#utility.yul\":769:791   */\n          swap1\n          pop\n            /* \"#utility.yul\":800:833   */\n          tag_27\n            /* \"#utility.yul\":827:832   */\n          dup2\n            /* \"#utility.yul\":800:833   */\n          tag_11\n          jump\t// in\n        tag_27:\n            /* \"#utility.yul\":696:839   */\n          swap3\n          swap2\n          pop\n          pop\n          jump\t// out\n            /* \"#utility.yul\":845:922   */\n        tag_13:\n            /* \"#utility.yul\":882:889   */\n          0x00\n            /* \"#utility.yul\":911:916   */\n          dup2\n            /* \"#utility.yul\":900:916   */\n          swap1\n          pop\n            /* \"#utility.yul\":845:922   */\n          swap2\n          swap1\n          pop\n          jump\t// out\n            /* \"#utility.yul\":928:1050   */\n        tag_14:\n            /* \"#utility.yul\":1001:1025   */\n          tag_30\n            /* \"#utility.yul\":1019:1024   */\n          dup2\n            /* \"#utility.yul\":1001:1025   */\n          tag_13\n          jump\t// in\n        tag_30:\n            /* \"#utility.yul\":994:999   */\n          dup2\n            /* \"#utility.yul\":991:1026   */\n          eq\n            /* \"#utility.yul\":981:1044   */\n          tag_31\n          jumpi\n            /* \"#utility.yul\":1040:1041   */\n          0x00\n            /* \"#utility.yul\":1037:1038   */\n          dup1\n            /* \"#utility.yul\":1030:1042   */\n          revert\n            /* \"#utility.yul\":981:1044   */\n        tag_31:\n            /* \"#utility.yul\":928:1050   */\n          pop\n          jump\t// out\n            /* \"#utility.yul\":1056:1199   */\n        tag_15:\n            /* \"#utility.yul\":1113:1118   */\n          0x00\n            /* \"#utility.yul\":1144:1150   */\n          dup2\n            /* \"#utility.yul\":1138:1151   */\n          mload\n            /* \"#utility.yul\":1129:1151   */\n          swap1\n          pop\n            /* \"#utility.yul\":1160:1193   */\n          tag_33\n            /* \"#utility.yul\":1187:1192   */\n          dup2\n            /* \"#utility.yul\":1160:1193   */\n          tag_14\n          jump\t// in\n        tag_33:\n            /* \"#utility.yul\":1056:1199   */\n          swap3\n          swap2\n          pop\n          pop\n          jump\t// out\n            /* \"#utility.yul\":1205:1712   */\n        tag_2:\n            /* \"#utility.yul\":1284:1290   */\n          0x00\n            /* \"#utility.yul\":1292:1298   */\n          dup1\n            /* \"#utility.yul\":1341:1343   */\n          0x40\n            /* \"#utility.yul\":1329:1338   */\n          dup4\n            /* \"#utility.yul\":1320:1327   */\n          dup6\n            /* \"#utility.yul\":1316:1339   */\n          sub\n            /* \"#utility.yul\":1312:1344   */\n          slt\n            /* \"#utility.yul\":1309:1428   */\n          iszero\n          tag_35\n          jumpi\n            /* \"#utility.yul\":1347:1426   */\n          tag_36\n          tag_7\n          jump\t// in\n        tag_36:\n            /* \"#utility.yul\":1309:1428   */\n        tag_35:\n            /* \"#utility.yul\":1467:1468   */\n          0x00\n            /* \"#utility.yul\":1492:1556   */\n          tag_37\n            /* \"#utility.yul\":1548:1555   */\n          dup6\n            /* \"#utility.yul\":1539:1545   */\n          dup3\n            /* \"#utility.yul\":1528:1537   */\n          dup7\n            /* \"#utility.yul\":1524:1546   */\n          add\n            /* \"#utility.yul\":1492:1556   */\n          tag_12\n          jump\t// in\n        tag_37:\n            /* \"#utility.yul\":1482:1556   */\n          swap3\n          pop\n            /* \"#utility.yul\":1438:1566   */\n          pop\n            /* \"#utility.yul\":1605:1607   */\n          0x20\n            /* \"#utility.yul\":1631:1695   */\n          tag_38\n            /* \"#utility.yul\":1687:1694   */\n          dup6\n            /* \"#utility.yul\":1678:1684   */\n          dup3\n            /* \"#utility.yul\":1667:1676   */\n          dup7\n            /* \"#utility.yul\":1663:1685   */\n          add\n            /* \"#utility.yul\":1631:1695   */\n          tag_15\n          jump\t// in\n        tag_38:\n            /* \"#utility.yul\":1621:1695   */\n          swap2\n          pop\n            /* \"#utility.yul\":1576:1705   */\n          pop\n            /* \"#utility.yul\":1205:1712   */\n          swap3\n          pop\n          swap3\n          swap1\n          pop\n          jump\t// out\n            /* \"contracts/43. New.sol\":758:1027  contract Account {... */\n        tag_5:\n          dataSize(sub_0)\n          dup1\n          dataOffset(sub_0)\n          0x00\n          codecopy\n          0x00\n          return\n        stop\n\n        sub_0: assembly {\n                /* \"contracts/43. New.sol\":758:1027  contract Account {... */\n              mstore(0x40, 0x80)\n              callvalue\n              dup1\n              iszero\n              tag_1\n              jumpi\n              0x00\n              dup1\n              revert\n            tag_1:\n              pop\n              jumpi(tag_2, lt(calldatasize, 0x04))\n              shr(0xe0, calldataload(0x00))\n              dup1\n              0x76cdb03b\n              eq\n              tag_3\n              jumpi\n              dup1\n              0x8da5cb5b\n              eq\n              tag_4\n              jumpi\n              dup1\n              0xf848d541\n              eq\n              tag_5\n              jumpi\n            tag_2:\n              0x00\n              dup1\n              revert\n                /* \"contracts/43. New.sol\":781:800  address public bank */\n            tag_3:\n              tag_6\n              tag_7\n              jump\t// in\n            tag_6:\n              mload(0x40)\n              tag_8\n              swap2\n              swap1\n              tag_9\n              jump\t// in\n            tag_8:\n              mload(0x40)\n              dup1\n              swap2\n              sub\n              swap1\n              return\n                /* \"contracts/43. New.sol\":806:826  address public owner */\n            tag_4:\n              tag_10\n              tag_11\n              jump\t// in\n            tag_10:\n              mload(0x40)\n              tag_12\n              swap2\n              swap1\n              tag_9\n              jump\t// in\n            tag_12:\n              mload(0x40)\n              dup1\n              swap2\n              sub\n              swap1\n              return\n                /* \"contracts/43. New.sol\":832:860  uint256 public withdrawLimit */\n            tag_5:\n              tag_13\n              tag_14\n              jump\t// in\n            tag_13:\n              mload(0x40)\n              tag_15\n              swap2\n              swap1\n              tag_16\n              jump\t// in\n            tag_15:\n              mload(0x40)\n              dup1\n              swap2\n              sub\n              swap1\n              return\n                /* \"contracts/43. New.sol\":781:800  address public bank */\n            tag_7:\n              0x00\n              dup1\n              sload\n              swap1\n              0x0100\n              exp\n              swap1\n              div\n              0xffffffffffffffffffffffffffffffffffffffff\n              and\n              dup2\n              jump\t// out\n                /* \"contracts/43. New.sol\":806:826  address public owner */\n            tag_11:\n              0x01\n              0x00\n              swap1\n              sload\n              swap1\n              0x0100\n              exp\n              swap1\n              div\n              0xffffffffffffffffffffffffffffffffffffffff\n              and\n              dup2\n              jump\t// out\n                /* \"contracts/43. New.sol\":832:860  uint256 public withdrawLimit */\n            tag_14:\n              sload(0x02)\n              dup2\n              jump\t// out\n                /* \"#utility.yul\":7:133   */\n            tag_17:\n                /* \"#utility.yul\":44:51   */\n              0x00\n                /* \"#utility.yul\":84:126   */\n              0xffffffffffffffffffffffffffffffffffffffff\n                /* \"#utility.yul\":77:82   */\n              dup3\n                /* \"#utility.yul\":73:127   */\n              and\n                /* \"#utility.yul\":62:127   */\n              swap1\n              pop\n                /* \"#utility.yul\":7:133   */\n              swap2\n              swap1\n              pop\n              jump\t// out\n                /* \"#utility.yul\":139:235   */\n            tag_18:\n                /* \"#utility.yul\":176:183   */\n              0x00\n                /* \"#utility.yul\":205:229   */\n              tag_25\n                /* \"#utility.yul\":223:228   */\n              dup3\n                /* \"#utility.yul\":205:229   */\n              tag_17\n              jump\t// in\n            tag_25:\n                /* \"#utility.yul\":194:229   */\n              swap1\n              pop\n                /* \"#utility.yul\":139:235   */\n              swap2\n              swap1\n              pop\n              jump\t// out\n                /* \"#utility.yul\":241:359   */\n            tag_19:\n                /* \"#utility.yul\":328:352   */\n              tag_27\n                /* \"#utility.yul\":346:351   */\n              dup2\n                /* \"#utility.yul\":328:352   */\n              tag_18\n              jump\t// in\n            tag_27:\n                /* \"#utility.yul\":323:326   */\n              dup3\n                /* \"#utility.yul\":316:353   */\n              mstore\n                /* \"#utility.yul\":241:359   */\n              pop\n              pop\n              jump\t// out\n                /* \"#utility.yul\":365:587   */\n            tag_9:\n                /* \"#utility.yul\":458:462   */\n              0x00\n                /* \"#utility.yul\":496:498   */\n              0x20\n                /* \"#utility.yul\":485:494   */\n              dup3\n                /* \"#utility.yul\":481:499   */\n              add\n                /* \"#utility.yul\":473:499   */\n              swap1\n              pop\n                /* \"#utility.yul\":509:580   */\n              tag_29\n                /* \"#utility.yul\":577:578   */\n              0x00\n                /* \"#utility.yul\":566:575   */\n              dup4\n                /* \"#utility.yul\":562:579   */\n              add\n                /* \"#utility.yul\":553:559   */\n              dup5\n                /* \"#utility.yul\":509:580   */\n              tag_19\n              jump\t// in\n            tag_29:\n                /* \"#utility.yul\":365:587   */\n              swap3\n              swap2\n              pop\n              pop\n              jump\t// out\n                /* \"#utility.yul\":593:670   */\n            tag_20:\n                /* \"#utility.yul\":630:637   */\n              0x00\n                /* \"#utility.yul\":659:664   */\n              dup2\n                /* \"#utility.yul\":648:664   */\n              swap1\n              pop\n                /* \"#utility.yul\":593:670   */\n              swap2\n              swap1\n              pop\n              jump\t// out\n                /* \"#utility.yul\":676:794   */\n            tag_21:\n                /* \"#utility.yul\":763:787   */\n              tag_32\n                /* \"#utility.yul\":781:786   */\n              dup2\n                /* \"#utility.yul\":763:787   */\n              tag_20\n              jump\t// in\n            tag_32:\n                /* \"#utility.yul\":758:761   */\n              dup3\n                /* \"#utility.yul\":751:788   */\n              mstore\n                /* \"#utility.yul\":676:794   */\n              pop\n              pop\n              jump\t// out\n                /* \"#utility.yul\":800:1022   */\n            tag_16:\n                /* \"#utility.yul\":893:897   */\n              0x00\n                /* \"#utility.yul\":931:933   */\n              0x20\n                /* \"#utility.yul\":920:929   */\n              dup3\n                /* \"#utility.yul\":916:934   */\n              add\n                /* \"#utility.yul\":908:934   */\n              swap1\n              pop\n                /* \"#utility.yul\":944:1015   */\n              tag_34\n                /* \"#utility.yul\":1012:1013   */\n              0x00\n                /* \"#utility.yul\":1001:1010   */\n              dup4\n                /* \"#utility.yul\":997:1014   */\n              add\n                /* \"#utility.yul\":988:994   */\n              dup5\n                /* \"#utility.yul\":944:1015   */\n              tag_21\n              jump\t// in\n            tag_34:\n                /* \"#utility.yul\":800:1022   */\n              swap3\n              swap2\n              pop\n              pop\n              jump\t// out\n\n            auxdata: 0xa264697066735822122003748bf778b0ca91c1f843bea103a51189e5991d4d1ca01a97eb4b37017ee6f564736f6c63430008160033\n        }\n    }\n\n    auxdata: 0xa2646970667358221220d13e9519508de882c4c425d48d8ba5b78b6e5cb91ccadfbabe0e175b164e2f2764736f6c63430008160033\n}\n",
				"bytecode": {
					"linkReferences": {},
					"object": "608060405234801561000f575f80fd5b506108988061001d5f395ff3fe60806040526004361061003d575f3560e01c80625bf762146100415780638c41beaa1461005d5780639859387b14610085578063f2a40db8146100ad575b5f80fd5b61005b6004803603810190610056919061035e565b6100e9565b005b348015610068575f80fd5b50610083600480360381019061007e919061035e565b610185565b005b348015610090575f80fd5b506100ab60048036038101906100a6919061035e565b610220565b005b3480156100b8575f80fd5b506100d360048036038101906100ce91906103bc565b6102b9565b6040516100e09190610442565b60405180910390f35b5f34825f6040516100f9906102f3565b6101049291906104a3565b6040518091039082f090508015801561011f573d5f803e3d5ffd5b5090505f81908060018154018082558091505060019003905f5260205f20015f9091909190916101000a81548173ffffffffffffffffffffffffffffffffffffffff021916908373ffffffffffffffffffffffffffffffffffffffff1602179055505050565b5f816103e8604051610196906102f3565b6101a1929190610503565b604051809103905ff0801580156101ba573d5f803e3d5ffd5b5090505f81908060018154018082558091505060019003905f5260205f20015f9091909190916101000a81548173ffffffffffffffffffffffffffffffffffffffff021916908373ffffffffffffffffffffffffffffffffffffffff1602179055505050565b5f815f60405161022f906102f3565b61023a9291906104a3565b604051809103905ff080158015610253573d5f803e3d5ffd5b5090505f81908060018154018082558091505060019003905f5260205f20015f9091909190916101000a81548173ffffffffffffffffffffffffffffffffffffffff021916908373ffffffffffffffffffffffffffffffffffffffff1602179055505050565b5f81815481106102c7575f80fd5b905f5260205f20015f915054906101000a900473ffffffffffffffffffffffffffffffffffffffff1681565b6103388061052b83390190565b5f80fd5b5f73ffffffffffffffffffffffffffffffffffffffff82169050919050565b5f61032d82610304565b9050919050565b61033d81610323565b8114610347575f80fd5b50565b5f8135905061035881610334565b92915050565b5f6020828403121561037357610372610300565b5b5f6103808482850161034a565b91505092915050565b5f819050919050565b61039b81610389565b81146103a5575f80fd5b50565b5f813590506103b681610392565b92915050565b5f602082840312156103d1576103d0610300565b5b5f6103de848285016103a8565b91505092915050565b5f819050919050565b5f61040a61040561040084610304565b6103e7565b610304565b9050919050565b5f61041b826103f0565b9050919050565b5f61042c82610411565b9050919050565b61043c81610422565b82525050565b5f6020820190506104555f830184610433565b92915050565b61046481610323565b82525050565b5f819050919050565b5f61048d6104886104838461046a565b6103e7565b610389565b9050919050565b61049d81610473565b82525050565b5f6040820190506104b65f83018561045b565b6104c36020830184610494565b9392505050565b5f819050919050565b5f6104ed6104e86104e3846104ca565b6103e7565b610389565b9050919050565b6104fd816104d3565b82525050565b5f6040820190506105165f83018561045b565b61052360208301846104f4565b939250505056fe608060405260405161033838038061033883398181016040528101906100259190610143565b335f806101000a81548173ffffffffffffffffffffffffffffffffffffffff021916908373ffffffffffffffffffffffffffffffffffffffff1602179055508160015f6101000a81548173ffffffffffffffffffffffffffffffffffffffff021916908373ffffffffffffffffffffffffffffffffffffffff160217905550806002819055505050610181565b5f80fd5b5f73ffffffffffffffffffffffffffffffffffffffff82169050919050565b5f6100df826100b6565b9050919050565b6100ef816100d5565b81146100f9575f80fd5b50565b5f8151905061010a816100e6565b92915050565b5f819050919050565b61012281610110565b811461012c575f80fd5b50565b5f8151905061013d81610119565b92915050565b5f8060408385031215610159576101586100b2565b5b5f610166858286016100fc565b92505060206101778582860161012f565b9150509250929050565b6101aa8061018e5f395ff3fe608060405234801561000f575f80fd5b506004361061003f575f3560e01c806376cdb03b146100435780638da5cb5b14610061578063f848d5411461007f575b5f80fd5b61004b61009d565b604051610058919061012a565b60405180910390f35b6100696100c0565b604051610076919061012a565b60405180910390f35b6100876100e5565b604051610094919061015b565b60405180910390f35b5f8054906101000a900473ffffffffffffffffffffffffffffffffffffffff1681565b60015f9054906101000a900473ffffffffffffffffffffffffffffffffffffffff1681565b60025481565b5f73ffffffffffffffffffffffffffffffffffffffff82169050919050565b5f610114826100eb565b9050919050565b6101248161010a565b82525050565b5f60208201905061013d5f83018461011b565b92915050565b5f819050919050565b61015581610143565b82525050565b5f60208201905061016e5f83018461014c565b9291505056fea264697066735822122003748bf778b0ca91c1f843bea103a51189e5991d4d1ca01a97eb4b37017ee6f564736f6c63430008160033a2646970667358221220d13e9519508de882c4c425d48d8ba5b78b6e5cb91ccadfbabe0e175b164e2f2764736f6c63430008160033",
					"opcodes": "PUSH1 0x80 PUSH1 0x40 MSTORE CALLVALUE DUP1 ISZERO PUSH2 0xF JUMPI PUSH0 DUP1 REVERT JUMPDEST POP PUSH2 0x898 DUP1 PUSH2 0x1D PUSH0 CODECOPY PUSH0 RETURN INVALID PUSH1 0x80 PUSH1 0x40 MSTORE PUSH1 0x4 CALLDATASIZE LT PUSH2 0x3D JUMPI PUSH0 CALLDATALOAD PUSH1 0xE0 SHR DUP1 PUSH3 0x5BF762 EQ PUSH2 0x41 JUMPI DUP1 PUSH4 0x8C41BEAA EQ PUSH2 0x5D JUMPI DUP1 PUSH4 0x9859387B EQ PUSH2 0x85 JUMPI DUP1 PUSH4 0xF2A40DB8 EQ PUSH2 0xAD JUMPI JUMPDEST PUSH0 DUP1 REVERT JUMPDEST PUSH2 0x5B PUSH1 0x4 DUP1 CALLDATASIZE SUB DUP2 ADD SWAP1 PUSH2 0x56 SWAP2 SWAP1 PUSH2 0x35E JUMP JUMPDEST PUSH2 0xE9 JUMP JUMPDEST STOP JUMPDEST CALLVALUE DUP1 ISZERO PUSH2 0x68 JUMPI PUSH0 DUP1 REVERT JUMPDEST POP PUSH2 0x83 PUSH1 0x4 DUP1 CALLDATASIZE SUB DUP2 ADD SWAP1 PUSH2 0x7E SWAP2 SWAP1 PUSH2 0x35E JUMP JUMPDEST PUSH2 0x185 JUMP JUMPDEST STOP JUMPDEST CALLVALUE DUP1 ISZERO PUSH2 0x90 JUMPI PUSH0 DUP1 REVERT JUMPDEST POP PUSH2 0xAB PUSH1 0x4 DUP1 CALLDATASIZE SUB DUP2 ADD SWAP1 PUSH2 0xA6 SWAP2 SWAP1 PUSH2 0x35E JUMP JUMPDEST PUSH2 0x220 JUMP JUMPDEST STOP JUMPDEST CALLVALUE DUP1 ISZERO PUSH2 0xB8 JUMPI PUSH0 DUP1 REVERT JUMPDEST POP PUSH2 0xD3 PUSH1 0x4 DUP1 CALLDATASIZE SUB DUP2 ADD SWAP1 PUSH2 0xCE SWAP2 SWAP1 PUSH2 0x3BC JUMP JUMPDEST PUSH2 0x2B9 JUMP JUMPDEST PUSH1 0x40 MLOAD PUSH2 0xE0 SWAP2 SWAP1 PUSH2 0x442 JUMP JUMPDEST PUSH1 0x40 MLOAD DUP1 SWAP2 SUB SWAP1 RETURN JUMPDEST PUSH0 CALLVALUE DUP3 PUSH0 PUSH1 0x40 MLOAD PUSH2 0xF9 SWAP1 PUSH2 0x2F3 JUMP JUMPDEST PUSH2 0x104 SWAP3 SWAP2 SWAP1 PUSH2 0x4A3 JUMP JUMPDEST PUSH1 0x40 MLOAD DUP1 SWAP2 SUB SWAP1 DUP3 CREATE SWAP1 POP DUP1 ISZERO DUP1 ISZERO PUSH2 0x11F JUMPI RETURNDATASIZE PUSH0 DUP1 RETURNDATACOPY RETURNDATASIZE PUSH0 REVERT JUMPDEST POP SWAP1 POP PUSH0 DUP2 SWAP1 DUP1 PUSH1 0x1 DUP2 SLOAD ADD DUP1 DUP3 SSTORE DUP1 SWAP2 POP POP PUSH1 0x1 SWAP1 SUB SWAP1 PUSH0 MSTORE PUSH1 0x20 PUSH0 KECCAK256 ADD PUSH0 SWAP1 SWAP2 SWAP1 SWAP2 SWAP1 SWAP2 PUSH2 0x100 EXP DUP2 SLOAD DUP2 PUSH20 0xFFFFFFFFFFFFFFFFFFFFFFFFFFFFFFFFFFFFFFFF MUL NOT AND SWAP1 DUP4 PUSH20 0xFFFFFFFFFFFFFFFFFFFFFFFFFFFFFFFFFFFFFFFF AND MUL OR SWAP1 SSTORE POP POP POP JUMP JUMPDEST PUSH0 DUP2 PUSH2 0x3E8 PUSH1 0x40 MLOAD PUSH2 0x196 SWAP1 PUSH2 0x2F3 JUMP JUMPDEST PUSH2 0x1A1 SWAP3 SWAP2 SWAP1 PUSH2 0x503 JUMP JUMPDEST PUSH1 0x40 MLOAD DUP1 SWAP2 SUB SWAP1 PUSH0 CREATE DUP1 ISZERO DUP1 ISZERO PUSH2 0x1BA JUMPI RETURNDATASIZE PUSH0 DUP1 RETURNDATACOPY RETURNDATASIZE PUSH0 REVERT JUMPDEST POP SWAP1 POP PUSH0 DUP2 SWAP1 DUP1 PUSH1 0x1 DUP2 SLOAD ADD DUP1 DUP3 SSTORE DUP1 SWAP2 POP POP PUSH1 0x1 SWAP1 SUB SWAP1 PUSH0 MSTORE PUSH1 0x20 PUSH0 KECCAK256 ADD PUSH0 SWAP1 SWAP2 SWAP1 SWAP2 SWAP1 SWAP2 PUSH2 0x100 EXP DUP2 SLOAD DUP2 PUSH20 0xFFFFFFFFFFFFFFFFFFFFFFFFFFFFFFFFFFFFFFFF MUL NOT AND SWAP1 DUP4 PUSH20 0xFFFFFFFFFFFFFFFFFFFFFFFFFFFFFFFFFFFFFFFF AND MUL OR SWAP1 SSTORE POP POP POP JUMP JUMPDEST PUSH0 DUP2 PUSH0 PUSH1 0x40 MLOAD PUSH2 0x22F SWAP1 PUSH2 0x2F3 JUMP JUMPDEST PUSH2 0x23A SWAP3 SWAP2 SWAP1 PUSH2 0x4A3 JUMP JUMPDEST PUSH1 0x40 MLOAD DUP1 SWAP2 SUB SWAP1 PUSH0 CREATE DUP1 ISZERO DUP1 ISZERO PUSH2 0x253 JUMPI RETURNDATASIZE PUSH0 DUP1 RETURNDATACOPY RETURNDATASIZE PUSH0 REVERT JUMPDEST POP SWAP1 POP PUSH0 DUP2 SWAP1 DUP1 PUSH1 0x1 DUP2 SLOAD ADD DUP1 DUP3 SSTORE DUP1 SWAP2 POP POP PUSH1 0x1 SWAP1 SUB SWAP1 PUSH0 MSTORE PUSH1 0x20 PUSH0 KECCAK256 ADD PUSH0 SWAP1 SWAP2 SWAP1 SWAP2 SWAP1 SWAP2 PUSH2 0x100 EXP DUP2 SLOAD DUP2 PUSH20 0xFFFFFFFFFFFFFFFFFFFFFFFFFFFFFFFFFFFFFFFF MUL NOT AND SWAP1 DUP4 PUSH20 0xFFFFFFFFFFFFFFFFFFFFFFFFFFFFFFFFFFFFFFFF AND MUL OR SWAP1 SSTORE POP POP POP JUMP JUMPDEST PUSH0 DUP2 DUP2 SLOAD DUP2 LT PUSH2 0x2C7 JUMPI PUSH0 DUP1 REVERT JUMPDEST SWAP1 PUSH0 MSTORE PUSH1 0x20 PUSH0 KECCAK256 ADD PUSH0 SWAP2 POP SLOAD SWAP1 PUSH2 0x100 EXP SWAP1 DIV PUSH20 0xFFFFFFFFFFFFFFFFFFFFFFFFFFFFFFFFFFFFFFFF AND DUP2 JUMP JUMPDEST PUSH2 0x338 DUP1 PUSH2 0x52B DUP4 CODECOPY ADD SWAP1 JUMP JUMPDEST PUSH0 DUP1 REVERT JUMPDEST PUSH0 PUSH20 0xFFFFFFFFFFFFFFFFFFFFFFFFFFFFFFFFFFFFFFFF DUP3 AND SWAP1 POP SWAP2 SWAP1 POP JUMP JUMPDEST PUSH0 PUSH2 0x32D DUP3 PUSH2 0x304 JUMP JUMPDEST SWAP1 POP SWAP2 SWAP1 POP JUMP JUMPDEST PUSH2 0x33D DUP2 PUSH2 0x323 JUMP JUMPDEST DUP2 EQ PUSH2 0x347 JUMPI PUSH0 DUP1 REVERT JUMPDEST POP JUMP JUMPDEST PUSH0 DUP2 CALLDATALOAD SWAP1 POP PUSH2 0x358 DUP2 PUSH2 0x334 JUMP JUMPDEST SWAP3 SWAP2 POP POP JUMP JUMPDEST PUSH0 PUSH1 0x20 DUP3 DUP5 SUB SLT ISZERO PUSH2 0x373 JUMPI PUSH2 0x372 PUSH2 0x300 JUMP JUMPDEST JUMPDEST PUSH0 PUSH2 0x380 DUP5 DUP3 DUP6 ADD PUSH2 0x34A JUMP JUMPDEST SWAP2 POP POP SWAP3 SWAP2 POP POP JUMP JUMPDEST PUSH0 DUP2 SWAP1 POP SWAP2 SWAP1 POP JUMP JUMPDEST PUSH2 0x39B DUP2 PUSH2 0x389 JUMP JUMPDEST DUP2 EQ PUSH2 0x3A5 JUMPI PUSH0 DUP1 REVERT JUMPDEST POP JUMP JUMPDEST PUSH0 DUP2 CALLDATALOAD SWAP1 POP PUSH2 0x3B6 DUP2 PUSH2 0x392 JUMP JUMPDEST SWAP3 SWAP2 POP POP JUMP JUMPDEST PUSH0 PUSH1 0x20 DUP3 DUP5 SUB SLT ISZERO PUSH2 0x3D1 JUMPI PUSH2 0x3D0 PUSH2 0x300 JUMP JUMPDEST JUMPDEST PUSH0 PUSH2 0x3DE DUP5 DUP3 DUP6 ADD PUSH2 0x3A8 JUMP JUMPDEST SWAP2 POP POP SWAP3 SWAP2 POP POP JUMP JUMPDEST PUSH0 DUP2 SWAP1 POP SWAP2 SWAP1 POP JUMP JUMPDEST PUSH0 PUSH2 0x40A PUSH2 0x405 PUSH2 0x400 DUP5 PUSH2 0x304 JUMP JUMPDEST PUSH2 0x3E7 JUMP JUMPDEST PUSH2 0x304 JUMP JUMPDEST SWAP1 POP SWAP2 SWAP1 POP JUMP JUMPDEST PUSH0 PUSH2 0x41B DUP3 PUSH2 0x3F0 JUMP JUMPDEST SWAP1 POP SWAP2 SWAP1 POP JUMP JUMPDEST PUSH0 PUSH2 0x42C DUP3 PUSH2 0x411 JUMP JUMPDEST SWAP1 POP SWAP2 SWAP1 POP JUMP JUMPDEST PUSH2 0x43C DUP2 PUSH2 0x422 JUMP JUMPDEST DUP3 MSTORE POP POP JUMP JUMPDEST PUSH0 PUSH1 0x20 DUP3 ADD SWAP1 POP PUSH2 0x455 PUSH0 DUP4 ADD DUP5 PUSH2 0x433 JUMP JUMPDEST SWAP3 SWAP2 POP POP JUMP JUMPDEST PUSH2 0x464 DUP2 PUSH2 0x323 JUMP JUMPDEST DUP3 MSTORE POP POP JUMP JUMPDEST PUSH0 DUP2 SWAP1 POP SWAP2 SWAP1 POP JUMP JUMPDEST PUSH0 PUSH2 0x48D PUSH2 0x488 PUSH2 0x483 DUP5 PUSH2 0x46A JUMP JUMPDEST PUSH2 0x3E7 JUMP JUMPDEST PUSH2 0x389 JUMP JUMPDEST SWAP1 POP SWAP2 SWAP1 POP JUMP JUMPDEST PUSH2 0x49D DUP2 PUSH2 0x473 JUMP JUMPDEST DUP3 MSTORE POP POP JUMP JUMPDEST PUSH0 PUSH1 0x40 DUP3 ADD SWAP1 POP PUSH2 0x4B6 PUSH0 DUP4 ADD DUP6 PUSH2 0x45B JUMP JUMPDEST PUSH2 0x4C3 PUSH1 0x20 DUP4 ADD DUP5 PUSH2 0x494 JUMP JUMPDEST SWAP4 SWAP3 POP POP POP JUMP JUMPDEST PUSH0 DUP2 SWAP1 POP SWAP2 SWAP1 POP JUMP JUMPDEST PUSH0 PUSH2 0x4ED PUSH2 0x4E8 PUSH2 0x4E3 DUP5 PUSH2 0x4CA JUMP JUMPDEST PUSH2 0x3E7 JUMP JUMPDEST PUSH2 0x389 JUMP JUMPDEST SWAP1 POP SWAP2 SWAP1 POP JUMP JUMPDEST PUSH2 0x4FD DUP2 PUSH2 0x4D3 JUMP JUMPDEST DUP3 MSTORE POP POP JUMP JUMPDEST PUSH0 PUSH1 0x40 DUP3 ADD SWAP1 POP PUSH2 0x516 PUSH0 DUP4 ADD DUP6 PUSH2 0x45B JUMP JUMPDEST PUSH2 0x523 PUSH1 0x20 DUP4 ADD DUP5 PUSH2 0x4F4 JUMP JUMPDEST SWAP4 SWAP3 POP POP POP JUMP INVALID PUSH1 0x80 PUSH1 0x40 MSTORE PUSH1 0x40 MLOAD PUSH2 0x338 CODESIZE SUB DUP1 PUSH2 0x338 DUP4 CODECOPY DUP2 DUP2 ADD PUSH1 0x40 MSTORE DUP2 ADD SWAP1 PUSH2 0x25 SWAP2 SWAP1 PUSH2 0x143 JUMP JUMPDEST CALLER PUSH0 DUP1 PUSH2 0x100 EXP DUP2 SLOAD DUP2 PUSH20 0xFFFFFFFFFFFFFFFFFFFFFFFFFFFFFFFFFFFFFFFF MUL NOT AND SWAP1 DUP4 PUSH20 0xFFFFFFFFFFFFFFFFFFFFFFFFFFFFFFFFFFFFFFFF AND MUL OR SWAP1 SSTORE POP DUP2 PUSH1 0x1 PUSH0 PUSH2 0x100 EXP DUP2 SLOAD DUP2 PUSH20 0xFFFFFFFFFFFFFFFFFFFFFFFFFFFFFFFFFFFFFFFF MUL NOT AND SWAP1 DUP4 PUSH20 0xFFFFFFFFFFFFFFFFFFFFFFFFFFFFFFFFFFFFFFFF AND MUL OR SWAP1 SSTORE POP DUP1 PUSH1 0x2 DUP2 SWAP1 SSTORE POP POP POP PUSH2 0x181 JUMP JUMPDEST PUSH0 DUP1 REVERT JUMPDEST PUSH0 PUSH20 0xFFFFFFFFFFFFFFFFFFFFFFFFFFFFFFFFFFFFFFFF DUP3 AND SWAP1 POP SWAP2 SWAP1 POP JUMP JUMPDEST PUSH0 PUSH2 0xDF DUP3 PUSH2 0xB6 JUMP JUMPDEST SWAP1 POP SWAP2 SWAP1 POP JUMP JUMPDEST PUSH2 0xEF DUP2 PUSH2 0xD5 JUMP JUMPDEST DUP2 EQ PUSH2 0xF9 JUMPI PUSH0 DUP1 REVERT JUMPDEST POP JUMP JUMPDEST PUSH0 DUP2 MLOAD SWAP1 POP PUSH2 0x10A DUP2 PUSH2 0xE6 JUMP JUMPDEST SWAP3 SWAP2 POP POP JUMP JUMPDEST PUSH0 DUP2 SWAP1 POP SWAP2 SWAP1 POP JUMP JUMPDEST PUSH2 0x122 DUP2 PUSH2 0x110 JUMP JUMPDEST DUP2 EQ PUSH2 0x12C JUMPI PUSH0 DUP1 REVERT JUMPDEST POP JUMP JUMPDEST PUSH0 DUP2 MLOAD SWAP1 POP PUSH2 0x13D DUP2 PUSH2 0x119 JUMP JUMPDEST SWAP3 SWAP2 POP POP JUMP JUMPDEST PUSH0 DUP1 PUSH1 0x40 DUP4 DUP6 SUB SLT ISZERO PUSH2 0x159 JUMPI PUSH2 0x158 PUSH2 0xB2 JUMP JUMPDEST JUMPDEST PUSH0 PUSH2 0x166 DUP6 DUP3 DUP7 ADD PUSH2 0xFC JUMP JUMPDEST SWAP3 POP POP PUSH1 0x20 PUSH2 0x177 DUP6 DUP3 DUP7 ADD PUSH2 0x12F JUMP JUMPDEST SWAP2 POP POP SWAP3 POP SWAP3 SWAP1 POP JUMP JUMPDEST PUSH2 0x1AA DUP1 PUSH2 0x18E PUSH0 CODECOPY PUSH0 RETURN INVALID PUSH1 0x80 PUSH1 0x40 MSTORE CALLVALUE DUP1 ISZERO PUSH2 0xF JUMPI PUSH0 DUP1 REVERT JUMPDEST POP PUSH1 0x4 CALLDATASIZE LT PUSH2 0x3F JUMPI PUSH0 CALLDATALOAD PUSH1 0xE0 SHR DUP1 PUSH4 0x76CDB03B EQ PUSH2 0x43 JUMPI DUP1 PUSH4 0x8DA5CB5B EQ PUSH2 0x61 JUMPI DUP1 PUSH4 0xF848D541 EQ PUSH2 0x7F JUMPI JUMPDEST PUSH0 DUP1 REVERT JUMPDEST PUSH2 0x4B PUSH2 0x9D JUMP JUMPDEST PUSH1 0x40 MLOAD PUSH2 0x58 SWAP2 SWAP1 PUSH2 0x12A JUMP JUMPDEST PUSH1 0x40 MLOAD DUP1 SWAP2 SUB SWAP1 RETURN JUMPDEST PUSH2 0x69 PUSH2 0xC0 JUMP JUMPDEST PUSH1 0x40 MLOAD PUSH2 0x76 SWAP2 SWAP1 PUSH2 0x12A JUMP JUMPDEST PUSH1 0x40 MLOAD DUP1 SWAP2 SUB SWAP1 RETURN JUMPDEST PUSH2 0x87 PUSH2 0xE5 JUMP JUMPDEST PUSH1 0x40 MLOAD PUSH2 0x94 SWAP2 SWAP1 PUSH2 0x15B JUMP JUMPDEST PUSH1 0x40 MLOAD DUP1 SWAP2 SUB SWAP1 RETURN JUMPDEST PUSH0 DUP1 SLOAD SWAP1 PUSH2 0x100 EXP SWAP1 DIV PUSH20 0xFFFFFFFFFFFFFFFFFFFFFFFFFFFFFFFFFFFFFFFF AND DUP2 JUMP JUMPDEST PUSH1 0x1 PUSH0 SWAP1 SLOAD SWAP1 PUSH2 0x100 EXP SWAP1 DIV PUSH20 0xFFFFFFFFFFFFFFFFFFFFFFFFFFFFFFFFFFFFFFFF AND DUP2 JUMP JUMPDEST PUSH1 0x2 SLOAD DUP2 JUMP JUMPDEST PUSH0 PUSH20 0xFFFFFFFFFFFFFFFFFFFFFFFFFFFFFFFFFFFFFFFF DUP3 AND SWAP1 POP SWAP2 SWAP1 POP JUMP JUMPDEST PUSH0 PUSH2 0x114 DUP3 PUSH2 0xEB JUMP JUMPDEST SWAP1 POP SWAP2 SWAP1 POP JUMP JUMPDEST PUSH2 0x124 DUP2 PUSH2 0x10A JUMP JUMPDEST DUP3 MSTORE POP POP JUMP JUMPDEST PUSH0 PUSH1 0x20 DUP3 ADD SWAP1 POP PUSH2 0x13D PUSH0 DUP4 ADD DUP5 PUSH2 0x11B JUMP JUMPDEST SWAP3 SWAP2 POP POP JUMP JUMPDEST PUSH0 DUP2 SWAP1 POP SWAP2 SWAP1 POP JUMP JUMPDEST PUSH2 0x155 DUP2 PUSH2 0x143 JUMP JUMPDEST DUP3 MSTORE POP POP JUMP JUMPDEST PUSH0 PUSH1 0x20 DUP3 ADD SWAP1 POP PUSH2 0x16E PUSH0 DUP4 ADD DUP5 PUSH2 0x14C JUMP JUMPDEST SWAP3 SWAP2 POP POP JUMP INVALID LOG2 PUSH5 0x6970667358 0x22 SLT KECCAK256 SUB PUSH21 0x8BF778B0CA91C1F843BEA103A51189E5991D4D1CA0 BYTE SWAP8 0xEB 0x4B CALLDATACOPY ADD PUSH31 0xE6F564736F6C63430008160033A2646970667358221220D13E9519508DE882 0xC4 0xC4 0x25 0xD4 DUP14 DUP12 0xA5 0xB7 DUP12 PUSH15 0x5CB91CCADFBABE0E175B164E2F2764 PUSH20 0x6F6C634300081600330000000000000000000000 "
				},
				"gasEstimates": {
					"creation": {
						"codeDepositCost": "440000",
						"executionCost": "472",
						"totalCost": "440472"
					},
					"external": {
						"accounts(uint256)": "infinite",
						"createAccount(address)": "infinite",
						"createAccountAndSendEther(address)": "infinite",
						"createSavingsAccount(address)": "infinite"
					}
				},
				"methodIdentifiers": {
					"accounts(uint256)": "f2a40db8",
					"createAccount(address)": "9859387b",
					"createAccountAndSendEther(address)": "005bf762",
					"createSavingsAccount(address)": "8c41beaa"
				}
			},
			"storageLayout": {
				"storage": [
					{
						"astId": 5,
						"contract": "contracts/43. New.sol:Bank",
						"label": "accounts",
						"offset": 0,
						"slot": "0",
						"type": "t_array(t_contract(Account)105)dyn_storage"
					}
				],
				"types": {
					"t_array(t_contract(Account)105)dyn_storage": {
						"base": "t_contract(Account)105",
						"encoding": "dynamic_array",
						"label": "contract Account[]",
						"numberOfBytes": "32"
					},
					"t_contract(Account)105": {
						"encoding": "inplace",
						"label": "contract Account",
						"numberOfBytes": "20"
					}
				}
			},
			"userdoc": {
				"kind": "user",
				"methods": {},
				"version": 1
			}
		}
	}
}