{
	"Modules/Solidity/55. Hodl.sol": {
		"Hodl": {
			"abi": [
				{
					"inputs": [
						{
							"internalType": "address",
							"name": "",
							"type": "address"
						}
					],
					"name": "balanceOf",
					"outputs": [
						{
							"internalType": "uint256",
							"name": "",
							"type": "uint256"
						}
					],
					"stateMutability": "view",
					"type": "function"
				},
				{
					"inputs": [],
					"name": "deposit",
					"outputs": [],
					"stateMutability": "payable",
					"type": "function"
				},
				{
					"inputs": [
						{
							"internalType": "address",
							"name": "",
							"type": "address"
						}
					],
					"name": "lockedUntil",
					"outputs": [
						{
							"internalType": "uint256",
							"name": "",
							"type": "uint256"
						}
					],
					"stateMutability": "view",
					"type": "function"
				},
				{
					"inputs": [],
					"name": "withdraw",
					"outputs": [],
					"stateMutability": "payable",
					"type": "function"
				}
			],
			"devdoc": {
				"kind": "dev",
				"methods": {},
				"version": 1
			},
			"evm": {
				"assembly": "    /* \"Modules/Solidity/55. Hodl.sol\":165:733  contract Hodl {... */\n  mstore(0x40, 0x80)\n  callvalue\n  dup1\n  iszero\n  tag_1\n  jumpi\n  0x00\n  dup1\n  revert\ntag_1:\n  pop\n  dataSize(sub_0)\n  dup1\n  dataOffset(sub_0)\n  0x00\n  codecopy\n  0x00\n  return\nstop\n\nsub_0: assembly {\n        /* \"Modules/Solidity/55. Hodl.sol\":165:733  contract Hodl {... */\n      mstore(0x40, 0x80)\n      jumpi(tag_1, lt(calldatasize, 0x04))\n      shr(0xe0, calldataload(0x00))\n      dup1\n      0x3ccfd60b\n      eq\n      tag_2\n      jumpi\n      dup1\n      0x70a08231\n      eq\n      tag_3\n      jumpi\n      dup1\n      0x9bc289f1\n      eq\n      tag_4\n      jumpi\n      dup1\n      0xd0e30db0\n      eq\n      tag_5\n      jumpi\n    tag_1:\n      0x00\n      dup1\n      revert\n        /* \"Modules/Solidity/55. Hodl.sol\":508:731  function withdraw() external payable {... */\n    tag_2:\n      tag_6\n      tag_7\n      jump\t// in\n    tag_6:\n      stop\n        /* \"Modules/Solidity/55. Hodl.sol\":245:289  mapping(address => uint256) public balanceOf */\n    tag_3:\n      callvalue\n      dup1\n      iszero\n      tag_8\n      jumpi\n      0x00\n      dup1\n      revert\n    tag_8:\n      pop\n      tag_9\n      0x04\n      dup1\n      calldatasize\n      sub\n      dup2\n      add\n      swap1\n      tag_10\n      swap2\n      swap1\n      tag_11\n      jump\t// in\n    tag_10:\n      tag_12\n      jump\t// in\n    tag_9:\n      mload(0x40)\n      tag_13\n      swap2\n      swap1\n      tag_14\n      jump\t// in\n    tag_13:\n      mload(0x40)\n      dup1\n      swap2\n      sub\n      swap1\n      return\n        /* \"Modules/Solidity/55. Hodl.sol\":295:341  mapping(address => uint256) public lockedUntil */\n    tag_4:\n      callvalue\n      dup1\n      iszero\n      tag_15\n      jumpi\n      0x00\n      dup1\n      revert\n    tag_15:\n      pop\n      tag_16\n      0x04\n      dup1\n      calldatasize\n      sub\n      dup2\n      add\n      swap1\n      tag_17\n      swap2\n      swap1\n      tag_11\n      jump\t// in\n    tag_17:\n      tag_18\n      jump\t// in\n    tag_16:\n      mload(0x40)\n      tag_19\n      swap2\n      swap1\n      tag_14\n      jump\t// in\n    tag_19:\n      mload(0x40)\n      dup1\n      swap2\n      sub\n      swap1\n      return\n        /* \"Modules/Solidity/55. Hodl.sol\":348:502  function deposit() external payable {... */\n    tag_5:\n      tag_20\n      tag_21\n      jump\t// in\n    tag_20:\n      stop\n        /* \"Modules/Solidity/55. Hodl.sol\":508:731  function withdraw() external payable {... */\n    tag_7:\n        /* \"Modules/Solidity/55. Hodl.sol\":590:605  block.timestamp */\n      timestamp\n        /* \"Modules/Solidity/55. Hodl.sol\":563:574  lockedUntil */\n      0x01\n        /* \"Modules/Solidity/55. Hodl.sol\":563:586  lockedUntil[msg.sender] */\n      0x00\n        /* \"Modules/Solidity/55. Hodl.sol\":575:585  msg.sender */\n      caller\n        /* \"Modules/Solidity/55. Hodl.sol\":563:586  lockedUntil[msg.sender] */\n      0xffffffffffffffffffffffffffffffffffffffff\n      and\n      0xffffffffffffffffffffffffffffffffffffffff\n      and\n      dup2\n      mstore\n      0x20\n      add\n      swap1\n      dup2\n      mstore\n      0x20\n      add\n      0x00\n      keccak256\n      sload\n        /* \"Modules/Solidity/55. Hodl.sol\":563:605  lockedUntil[msg.sender] <= block.timestamp */\n      gt\n      iszero\n        /* \"Modules/Solidity/55. Hodl.sol\":555:628  require(lockedUntil[msg.sender] <= block.timestamp, \"token still locked\") */\n      tag_23\n      jumpi\n      mload(0x40)\n      0x08c379a000000000000000000000000000000000000000000000000000000000\n      dup2\n      mstore\n      0x04\n      add\n      tag_24\n      swap1\n      tag_25\n      jump\t// in\n    tag_24:\n      mload(0x40)\n      dup1\n      swap2\n      sub\n      swap1\n      revert\n    tag_23:\n        /* \"Modules/Solidity/55. Hodl.sol\":646:656  msg.sender */\n      caller\n        /* \"Modules/Solidity/55. Hodl.sol\":638:666  payable(msg.sender).transfer */\n      0xffffffffffffffffffffffffffffffffffffffff\n      and\n        /* \"Modules/Solidity/55. Hodl.sol\":638:689  payable(msg.sender).transfer(balanceOf[msg.sender]) */\n      0x08fc\n        /* \"Modules/Solidity/55. Hodl.sol\":667:676  balanceOf */\n      0x00\n        /* \"Modules/Solidity/55. Hodl.sol\":667:688  balanceOf[msg.sender] */\n      dup1\n        /* \"Modules/Solidity/55. Hodl.sol\":677:687  msg.sender */\n      caller\n        /* \"Modules/Solidity/55. Hodl.sol\":667:688  balanceOf[msg.sender] */\n      0xffffffffffffffffffffffffffffffffffffffff\n      and\n      0xffffffffffffffffffffffffffffffffffffffff\n      and\n      dup2\n      mstore\n      0x20\n      add\n      swap1\n      dup2\n      mstore\n      0x20\n      add\n      0x00\n      keccak256\n      sload\n        /* \"Modules/Solidity/55. Hodl.sol\":638:689  payable(msg.sender).transfer(balanceOf[msg.sender]) */\n      swap1\n      dup2\n      iszero\n      mul\n      swap1\n      mload(0x40)\n      0x00\n      mload(0x40)\n      dup1\n      dup4\n      sub\n      dup2\n      dup6\n      dup9\n      dup9\n      call\n      swap4\n      pop\n      pop\n      pop\n      pop\n      iszero\n      dup1\n      iszero\n      tag_27\n      jumpi\n      returndatasize\n      0x00\n      dup1\n      returndatacopy\n      revert(0x00, returndatasize)\n    tag_27:\n      pop\n        /* \"Modules/Solidity/55. Hodl.sol\":723:724  0 */\n      0x00\n        /* \"Modules/Solidity/55. Hodl.sol\":699:708  balanceOf */\n      dup1\n        /* \"Modules/Solidity/55. Hodl.sol\":699:720  balanceOf[msg.sender] */\n      0x00\n        /* \"Modules/Solidity/55. Hodl.sol\":709:719  msg.sender */\n      caller\n        /* \"Modules/Solidity/55. Hodl.sol\":699:720  balanceOf[msg.sender] */\n      0xffffffffffffffffffffffffffffffffffffffff\n      and\n      0xffffffffffffffffffffffffffffffffffffffff\n      and\n      dup2\n      mstore\n      0x20\n      add\n      swap1\n      dup2\n      mstore\n      0x20\n      add\n      0x00\n      keccak256\n        /* \"Modules/Solidity/55. Hodl.sol\":699:724  balanceOf[msg.sender] = 0 */\n      dup2\n      swap1\n      sstore\n      pop\n        /* \"Modules/Solidity/55. Hodl.sol\":508:731  function withdraw() external payable {... */\n      jump\t// out\n        /* \"Modules/Solidity/55. Hodl.sol\":245:289  mapping(address => uint256) public balanceOf */\n    tag_12:\n      mstore(0x20, 0x00)\n      dup1\n      0x00\n      mstore\n      keccak256(0x00, 0x40)\n      0x00\n      swap2\n      pop\n      swap1\n      pop\n      sload\n      dup2\n      jump\t// out\n        /* \"Modules/Solidity/55. Hodl.sol\":295:341  mapping(address => uint256) public lockedUntil */\n    tag_18:\n      mstore(0x20, 0x01)\n      dup1\n      0x00\n      mstore\n      keccak256(0x00, 0x40)\n      0x00\n      swap2\n      pop\n      swap1\n      pop\n      sload\n      dup2\n      jump\t// out\n        /* \"Modules/Solidity/55. Hodl.sol\":348:502  function deposit() external payable {... */\n    tag_21:\n        /* \"Modules/Solidity/55. Hodl.sol\":419:428  msg.value */\n      callvalue\n        /* \"Modules/Solidity/55. Hodl.sol\":394:403  balanceOf */\n      0x00\n        /* \"Modules/Solidity/55. Hodl.sol\":394:415  balanceOf[msg.sender] */\n      dup1\n        /* \"Modules/Solidity/55. Hodl.sol\":404:414  msg.sender */\n      caller\n        /* \"Modules/Solidity/55. Hodl.sol\":394:415  balanceOf[msg.sender] */\n      0xffffffffffffffffffffffffffffffffffffffff\n      and\n      0xffffffffffffffffffffffffffffffffffffffff\n      and\n      dup2\n      mstore\n      0x20\n      add\n      swap1\n      dup2\n      mstore\n      0x20\n      add\n      0x00\n      keccak256\n      0x00\n        /* \"Modules/Solidity/55. Hodl.sol\":394:428  balanceOf[msg.sender] += msg.value */\n      dup3\n      dup3\n      sload\n      tag_29\n      swap2\n      swap1\n      tag_30\n      jump\t// in\n    tag_29:\n      swap3\n      pop\n      pop\n      dup2\n      swap1\n      sstore\n      pop\n        /* \"Modules/Solidity/55. Hodl.sol\":226:238  3 * 365 days */\n      0x05a39a80\n        /* \"Modules/Solidity/55. Hodl.sol\":464:479  block.timestamp */\n      timestamp\n        /* \"Modules/Solidity/55. Hodl.sol\":464:495  block.timestamp + HODL_DURATION */\n      tag_31\n      swap2\n      swap1\n      tag_30\n      jump\t// in\n    tag_31:\n        /* \"Modules/Solidity/55. Hodl.sol\":438:449  lockedUntil */\n      0x01\n        /* \"Modules/Solidity/55. Hodl.sol\":438:461  lockedUntil[msg.sender] */\n      0x00\n        /* \"Modules/Solidity/55. Hodl.sol\":450:460  msg.sender */\n      caller\n        /* \"Modules/Solidity/55. Hodl.sol\":438:461  lockedUntil[msg.sender] */\n      0xffffffffffffffffffffffffffffffffffffffff\n      and\n      0xffffffffffffffffffffffffffffffffffffffff\n      and\n      dup2\n      mstore\n      0x20\n      add\n      swap1\n      dup2\n      mstore\n      0x20\n      add\n      0x00\n      keccak256\n        /* \"Modules/Solidity/55. Hodl.sol\":438:495  lockedUntil[msg.sender] = block.timestamp + HODL_DURATION */\n      dup2\n      swap1\n      sstore\n      pop\n        /* \"Modules/Solidity/55. Hodl.sol\":348:502  function deposit() external payable {... */\n      jump\t// out\n        /* \"#utility.yul\":88:205   */\n    tag_33:\n        /* \"#utility.yul\":197:198   */\n      0x00\n        /* \"#utility.yul\":194:195   */\n      dup1\n        /* \"#utility.yul\":187:199   */\n      revert\n        /* \"#utility.yul\":334:460   */\n    tag_35:\n        /* \"#utility.yul\":371:378   */\n      0x00\n        /* \"#utility.yul\":411:453   */\n      0xffffffffffffffffffffffffffffffffffffffff\n        /* \"#utility.yul\":404:409   */\n      dup3\n        /* \"#utility.yul\":400:454   */\n      and\n        /* \"#utility.yul\":389:454   */\n      swap1\n      pop\n        /* \"#utility.yul\":334:460   */\n      swap2\n      swap1\n      pop\n      jump\t// out\n        /* \"#utility.yul\":466:562   */\n    tag_36:\n        /* \"#utility.yul\":503:510   */\n      0x00\n        /* \"#utility.yul\":532:556   */\n      tag_51\n        /* \"#utility.yul\":550:555   */\n      dup3\n        /* \"#utility.yul\":532:556   */\n      tag_35\n      jump\t// in\n    tag_51:\n        /* \"#utility.yul\":521:556   */\n      swap1\n      pop\n        /* \"#utility.yul\":466:562   */\n      swap2\n      swap1\n      pop\n      jump\t// out\n        /* \"#utility.yul\":568:690   */\n    tag_37:\n        /* \"#utility.yul\":641:665   */\n      tag_53\n        /* \"#utility.yul\":659:664   */\n      dup2\n        /* \"#utility.yul\":641:665   */\n      tag_36\n      jump\t// in\n    tag_53:\n        /* \"#utility.yul\":634:639   */\n      dup2\n        /* \"#utility.yul\":631:666   */\n      eq\n        /* \"#utility.yul\":621:684   */\n      tag_54\n      jumpi\n        /* \"#utility.yul\":680:681   */\n      0x00\n        /* \"#utility.yul\":677:678   */\n      dup1\n        /* \"#utility.yul\":670:682   */\n      revert\n        /* \"#utility.yul\":621:684   */\n    tag_54:\n        /* \"#utility.yul\":568:690   */\n      pop\n      jump\t// out\n        /* \"#utility.yul\":696:835   */\n    tag_38:\n        /* \"#utility.yul\":742:747   */\n      0x00\n        /* \"#utility.yul\":780:786   */\n      dup2\n        /* \"#utility.yul\":767:787   */\n      calldataload\n        /* \"#utility.yul\":758:787   */\n      swap1\n      pop\n        /* \"#utility.yul\":796:829   */\n      tag_56\n        /* \"#utility.yul\":823:828   */\n      dup2\n        /* \"#utility.yul\":796:829   */\n      tag_37\n      jump\t// in\n    tag_56:\n        /* \"#utility.yul\":696:835   */\n      swap3\n      swap2\n      pop\n      pop\n      jump\t// out\n        /* \"#utility.yul\":841:1170   */\n    tag_11:\n        /* \"#utility.yul\":900:906   */\n      0x00\n        /* \"#utility.yul\":949:951   */\n      0x20\n        /* \"#utility.yul\":937:946   */\n      dup3\n        /* \"#utility.yul\":928:935   */\n      dup5\n        /* \"#utility.yul\":924:947   */\n      sub\n        /* \"#utility.yul\":920:952   */\n      slt\n        /* \"#utility.yul\":917:1036   */\n      iszero\n      tag_58\n      jumpi\n        /* \"#utility.yul\":955:1034   */\n      tag_59\n      tag_33\n      jump\t// in\n    tag_59:\n        /* \"#utility.yul\":917:1036   */\n    tag_58:\n        /* \"#utility.yul\":1075:1076   */\n      0x00\n        /* \"#utility.yul\":1100:1153   */\n      tag_60\n        /* \"#utility.yul\":1145:1152   */\n      dup5\n        /* \"#utility.yul\":1136:1142   */\n      dup3\n        /* \"#utility.yul\":1125:1134   */\n      dup6\n        /* \"#utility.yul\":1121:1143   */\n      add\n        /* \"#utility.yul\":1100:1153   */\n      tag_38\n      jump\t// in\n    tag_60:\n        /* \"#utility.yul\":1090:1153   */\n      swap2\n      pop\n        /* \"#utility.yul\":1046:1163   */\n      pop\n        /* \"#utility.yul\":841:1170   */\n      swap3\n      swap2\n      pop\n      pop\n      jump\t// out\n        /* \"#utility.yul\":1176:1253   */\n    tag_39:\n        /* \"#utility.yul\":1213:1220   */\n      0x00\n        /* \"#utility.yul\":1242:1247   */\n      dup2\n        /* \"#utility.yul\":1231:1247   */\n      swap1\n      pop\n        /* \"#utility.yul\":1176:1253   */\n      swap2\n      swap1\n      pop\n      jump\t// out\n        /* \"#utility.yul\":1259:1377   */\n    tag_40:\n        /* \"#utility.yul\":1346:1370   */\n      tag_63\n        /* \"#utility.yul\":1364:1369   */\n      dup2\n        /* \"#utility.yul\":1346:1370   */\n      tag_39\n      jump\t// in\n    tag_63:\n        /* \"#utility.yul\":1341:1344   */\n      dup3\n        /* \"#utility.yul\":1334:1371   */\n      mstore\n        /* \"#utility.yul\":1259:1377   */\n      pop\n      pop\n      jump\t// out\n        /* \"#utility.yul\":1383:1605   */\n    tag_14:\n        /* \"#utility.yul\":1476:1480   */\n      0x00\n        /* \"#utility.yul\":1514:1516   */\n      0x20\n        /* \"#utility.yul\":1503:1512   */\n      dup3\n        /* \"#utility.yul\":1499:1517   */\n      add\n        /* \"#utility.yul\":1491:1517   */\n      swap1\n      pop\n        /* \"#utility.yul\":1527:1598   */\n      tag_65\n        /* \"#utility.yul\":1595:1596   */\n      0x00\n        /* \"#utility.yul\":1584:1593   */\n      dup4\n        /* \"#utility.yul\":1580:1597   */\n      add\n        /* \"#utility.yul\":1571:1577   */\n      dup5\n        /* \"#utility.yul\":1527:1598   */\n      tag_40\n      jump\t// in\n    tag_65:\n        /* \"#utility.yul\":1383:1605   */\n      swap3\n      swap2\n      pop\n      pop\n      jump\t// out\n        /* \"#utility.yul\":1611:1780   */\n    tag_41:\n        /* \"#utility.yul\":1695:1706   */\n      0x00\n        /* \"#utility.yul\":1729:1735   */\n      dup3\n        /* \"#utility.yul\":1724:1727   */\n      dup3\n        /* \"#utility.yul\":1717:1736   */\n      mstore\n        /* \"#utility.yul\":1769:1773   */\n      0x20\n        /* \"#utility.yul\":1764:1767   */\n      dup3\n        /* \"#utility.yul\":1760:1774   */\n      add\n        /* \"#utility.yul\":1745:1774   */\n      swap1\n      pop\n        /* \"#utility.yul\":1611:1780   */\n      swap3\n      swap2\n      pop\n      pop\n      jump\t// out\n        /* \"#utility.yul\":1786:1954   */\n    tag_42:\n        /* \"#utility.yul\":1926:1946   */\n      0x746f6b656e207374696c6c206c6f636b65640000000000000000000000000000\n        /* \"#utility.yul\":1922:1923   */\n      0x00\n        /* \"#utility.yul\":1914:1920   */\n      dup3\n        /* \"#utility.yul\":1910:1924   */\n      add\n        /* \"#utility.yul\":1903:1947   */\n      mstore\n        /* \"#utility.yul\":1786:1954   */\n      pop\n      jump\t// out\n        /* \"#utility.yul\":1960:2326   */\n    tag_43:\n        /* \"#utility.yul\":2102:2105   */\n      0x00\n        /* \"#utility.yul\":2123:2190   */\n      tag_69\n        /* \"#utility.yul\":2187:2189   */\n      0x12\n        /* \"#utility.yul\":2182:2185   */\n      dup4\n        /* \"#utility.yul\":2123:2190   */\n      tag_41\n      jump\t// in\n    tag_69:\n        /* \"#utility.yul\":2116:2190   */\n      swap2\n      pop\n        /* \"#utility.yul\":2199:2292   */\n      tag_70\n        /* \"#utility.yul\":2288:2291   */\n      dup3\n        /* \"#utility.yul\":2199:2292   */\n      tag_42\n      jump\t// in\n    tag_70:\n        /* \"#utility.yul\":2317:2319   */\n      0x20\n        /* \"#utility.yul\":2312:2315   */\n      dup3\n        /* \"#utility.yul\":2308:2320   */\n      add\n        /* \"#utility.yul\":2301:2320   */\n      swap1\n      pop\n        /* \"#utility.yul\":1960:2326   */\n      swap2\n      swap1\n      pop\n      jump\t// out\n        /* \"#utility.yul\":2332:2751   */\n    tag_25:\n        /* \"#utility.yul\":2498:2502   */\n      0x00\n        /* \"#utility.yul\":2536:2538   */\n      0x20\n        /* \"#utility.yul\":2525:2534   */\n      dup3\n        /* \"#utility.yul\":2521:2539   */\n      add\n        /* \"#utility.yul\":2513:2539   */\n      swap1\n      pop\n        /* \"#utility.yul\":2585:2594   */\n      dup2\n        /* \"#utility.yul\":2579:2583   */\n      dup2\n        /* \"#utility.yul\":2575:2595   */\n      sub\n        /* \"#utility.yul\":2571:2572   */\n      0x00\n        /* \"#utility.yul\":2560:2569   */\n      dup4\n        /* \"#utility.yul\":2556:2573   */\n      add\n        /* \"#utility.yul\":2549:2596   */\n      mstore\n        /* \"#utility.yul\":2613:2744   */\n      tag_72\n        /* \"#utility.yul\":2739:2743   */\n      dup2\n        /* \"#utility.yul\":2613:2744   */\n      tag_43\n      jump\t// in\n    tag_72:\n        /* \"#utility.yul\":2605:2744   */\n      swap1\n      pop\n        /* \"#utility.yul\":2332:2751   */\n      swap2\n      swap1\n      pop\n      jump\t// out\n        /* \"#utility.yul\":2757:2937   */\n    tag_44:\n        /* \"#utility.yul\":2805:2882   */\n      0x4e487b7100000000000000000000000000000000000000000000000000000000\n        /* \"#utility.yul\":2802:2803   */\n      0x00\n        /* \"#utility.yul\":2795:2883   */\n      mstore\n        /* \"#utility.yul\":2902:2906   */\n      0x11\n        /* \"#utility.yul\":2899:2900   */\n      0x04\n        /* \"#utility.yul\":2892:2907   */\n      mstore\n        /* \"#utility.yul\":2926:2930   */\n      0x24\n        /* \"#utility.yul\":2923:2924   */\n      0x00\n        /* \"#utility.yul\":2916:2931   */\n      revert\n        /* \"#utility.yul\":2943:3134   */\n    tag_30:\n        /* \"#utility.yul\":2983:2986   */\n      0x00\n        /* \"#utility.yul\":3002:3022   */\n      tag_75\n        /* \"#utility.yul\":3020:3021   */\n      dup3\n        /* \"#utility.yul\":3002:3022   */\n      tag_39\n      jump\t// in\n    tag_75:\n        /* \"#utility.yul\":2997:3022   */\n      swap2\n      pop\n        /* \"#utility.yul\":3036:3056   */\n      tag_76\n        /* \"#utility.yul\":3054:3055   */\n      dup4\n        /* \"#utility.yul\":3036:3056   */\n      tag_39\n      jump\t// in\n    tag_76:\n        /* \"#utility.yul\":3031:3056   */\n      swap3\n      pop\n        /* \"#utility.yul\":3079:3080   */\n      dup3\n        /* \"#utility.yul\":3076:3077   */\n      dup3\n        /* \"#utility.yul\":3072:3081   */\n      add\n        /* \"#utility.yul\":3065:3081   */\n      swap1\n      pop\n        /* \"#utility.yul\":3100:3103   */\n      dup1\n        /* \"#utility.yul\":3097:3098   */\n      dup3\n        /* \"#utility.yul\":3094:3104   */\n      gt\n        /* \"#utility.yul\":3091:3127   */\n      iszero\n      tag_77\n      jumpi\n        /* \"#utility.yul\":3107:3125   */\n      tag_78\n      tag_44\n      jump\t// in\n    tag_78:\n        /* \"#utility.yul\":3091:3127   */\n    tag_77:\n        /* \"#utility.yul\":2943:3134   */\n      swap3\n      swap2\n      pop\n      pop\n      jump\t// out\n\n    auxdata: 0xa26469706673582212209035a5fdb70adde2369d2fe4d1e9b0b1124e0658518955cbc5fdbc9026c4b53a64736f6c63430008160033\n}\n",
				"bytecode": {
					"linkReferences": {},
					"object": "608060405234801561000f575f80fd5b506104a78061001d5f395ff3fe60806040526004361061003e575f3560e01c80633ccfd60b1461004257806370a082311461004c5780639bc289f114610088578063d0e30db0146100c4575b5f80fd5b61004a6100ce565b005b348015610057575f80fd5b50610072600480360381019061006d919061033d565b610211565b60405161007f9190610380565b60405180910390f35b348015610093575f80fd5b506100ae60048036038101906100a9919061033d565b610225565b6040516100bb9190610380565b60405180910390f35b6100cc61023a565b005b4260015f3373ffffffffffffffffffffffffffffffffffffffff1673ffffffffffffffffffffffffffffffffffffffff1681526020019081526020015f2054111561014e576040517f08c379a0000000000000000000000000000000000000000000000000000000008152600401610145906103f3565b60405180910390fd5b3373ffffffffffffffffffffffffffffffffffffffff166108fc5f803373ffffffffffffffffffffffffffffffffffffffff1673ffffffffffffffffffffffffffffffffffffffff1681526020019081526020015f205490811502906040515f60405180830381858888f193505050501580156101cd573d5f803e3d5ffd5b505f805f3373ffffffffffffffffffffffffffffffffffffffff1673ffffffffffffffffffffffffffffffffffffffff1681526020019081526020015f2081905550565b5f602052805f5260405f205f915090505481565b6001602052805f5260405f205f915090505481565b345f803373ffffffffffffffffffffffffffffffffffffffff1673ffffffffffffffffffffffffffffffffffffffff1681526020019081526020015f205f828254610285919061043e565b925050819055506305a39a804261029c919061043e565b60015f3373ffffffffffffffffffffffffffffffffffffffff1673ffffffffffffffffffffffffffffffffffffffff1681526020019081526020015f2081905550565b5f80fd5b5f73ffffffffffffffffffffffffffffffffffffffff82169050919050565b5f61030c826102e3565b9050919050565b61031c81610302565b8114610326575f80fd5b50565b5f8135905061033781610313565b92915050565b5f60208284031215610352576103516102df565b5b5f61035f84828501610329565b91505092915050565b5f819050919050565b61037a81610368565b82525050565b5f6020820190506103935f830184610371565b92915050565b5f82825260208201905092915050565b7f746f6b656e207374696c6c206c6f636b656400000000000000000000000000005f82015250565b5f6103dd601283610399565b91506103e8826103a9565b602082019050919050565b5f6020820190508181035f83015261040a816103d1565b9050919050565b7f4e487b71000000000000000000000000000000000000000000000000000000005f52601160045260245ffd5b5f61044882610368565b915061045383610368565b925082820190508082111561046b5761046a610411565b5b9291505056fea26469706673582212209035a5fdb70adde2369d2fe4d1e9b0b1124e0658518955cbc5fdbc9026c4b53a64736f6c63430008160033",
					"opcodes": "PUSH1 0x80 PUSH1 0x40 MSTORE CALLVALUE DUP1 ISZERO PUSH2 0xF JUMPI PUSH0 DUP1 REVERT JUMPDEST POP PUSH2 0x4A7 DUP1 PUSH2 0x1D PUSH0 CODECOPY PUSH0 RETURN INVALID PUSH1 0x80 PUSH1 0x40 MSTORE PUSH1 0x4 CALLDATASIZE LT PUSH2 0x3E JUMPI PUSH0 CALLDATALOAD PUSH1 0xE0 SHR DUP1 PUSH4 0x3CCFD60B EQ PUSH2 0x42 JUMPI DUP1 PUSH4 0x70A08231 EQ PUSH2 0x4C JUMPI DUP1 PUSH4 0x9BC289F1 EQ PUSH2 0x88 JUMPI DUP1 PUSH4 0xD0E30DB0 EQ PUSH2 0xC4 JUMPI JUMPDEST PUSH0 DUP1 REVERT JUMPDEST PUSH2 0x4A PUSH2 0xCE JUMP JUMPDEST STOP JUMPDEST CALLVALUE DUP1 ISZERO PUSH2 0x57 JUMPI PUSH0 DUP1 REVERT JUMPDEST POP PUSH2 0x72 PUSH1 0x4 DUP1 CALLDATASIZE SUB DUP2 ADD SWAP1 PUSH2 0x6D SWAP2 SWAP1 PUSH2 0x33D JUMP JUMPDEST PUSH2 0x211 JUMP JUMPDEST PUSH1 0x40 MLOAD PUSH2 0x7F SWAP2 SWAP1 PUSH2 0x380 JUMP JUMPDEST PUSH1 0x40 MLOAD DUP1 SWAP2 SUB SWAP1 RETURN JUMPDEST CALLVALUE DUP1 ISZERO PUSH2 0x93 JUMPI PUSH0 DUP1 REVERT JUMPDEST POP PUSH2 0xAE PUSH1 0x4 DUP1 CALLDATASIZE SUB DUP2 ADD SWAP1 PUSH2 0xA9 SWAP2 SWAP1 PUSH2 0x33D JUMP JUMPDEST PUSH2 0x225 JUMP JUMPDEST PUSH1 0x40 MLOAD PUSH2 0xBB SWAP2 SWAP1 PUSH2 0x380 JUMP JUMPDEST PUSH1 0x40 MLOAD DUP1 SWAP2 SUB SWAP1 RETURN JUMPDEST PUSH2 0xCC PUSH2 0x23A JUMP JUMPDEST STOP JUMPDEST TIMESTAMP PUSH1 0x1 PUSH0 CALLER PUSH20 0xFFFFFFFFFFFFFFFFFFFFFFFFFFFFFFFFFFFFFFFF AND PUSH20 0xFFFFFFFFFFFFFFFFFFFFFFFFFFFFFFFFFFFFFFFF AND DUP2 MSTORE PUSH1 0x20 ADD SWAP1 DUP2 MSTORE PUSH1 0x20 ADD PUSH0 KECCAK256 SLOAD GT ISZERO PUSH2 0x14E JUMPI PUSH1 0x40 MLOAD PUSH32 0x8C379A000000000000000000000000000000000000000000000000000000000 DUP2 MSTORE PUSH1 0x4 ADD PUSH2 0x145 SWAP1 PUSH2 0x3F3 JUMP JUMPDEST PUSH1 0x40 MLOAD DUP1 SWAP2 SUB SWAP1 REVERT JUMPDEST CALLER PUSH20 0xFFFFFFFFFFFFFFFFFFFFFFFFFFFFFFFFFFFFFFFF AND PUSH2 0x8FC PUSH0 DUP1 CALLER PUSH20 0xFFFFFFFFFFFFFFFFFFFFFFFFFFFFFFFFFFFFFFFF AND PUSH20 0xFFFFFFFFFFFFFFFFFFFFFFFFFFFFFFFFFFFFFFFF AND DUP2 MSTORE PUSH1 0x20 ADD SWAP1 DUP2 MSTORE PUSH1 0x20 ADD PUSH0 KECCAK256 SLOAD SWAP1 DUP2 ISZERO MUL SWAP1 PUSH1 0x40 MLOAD PUSH0 PUSH1 0x40 MLOAD DUP1 DUP4 SUB DUP2 DUP6 DUP9 DUP9 CALL SWAP4 POP POP POP POP ISZERO DUP1 ISZERO PUSH2 0x1CD JUMPI RETURNDATASIZE PUSH0 DUP1 RETURNDATACOPY RETURNDATASIZE PUSH0 REVERT JUMPDEST POP PUSH0 DUP1 PUSH0 CALLER PUSH20 0xFFFFFFFFFFFFFFFFFFFFFFFFFFFFFFFFFFFFFFFF AND PUSH20 0xFFFFFFFFFFFFFFFFFFFFFFFFFFFFFFFFFFFFFFFF AND DUP2 MSTORE PUSH1 0x20 ADD SWAP1 DUP2 MSTORE PUSH1 0x20 ADD PUSH0 KECCAK256 DUP2 SWAP1 SSTORE POP JUMP JUMPDEST PUSH0 PUSH1 0x20 MSTORE DUP1 PUSH0 MSTORE PUSH1 0x40 PUSH0 KECCAK256 PUSH0 SWAP2 POP SWAP1 POP SLOAD DUP2 JUMP JUMPDEST PUSH1 0x1 PUSH1 0x20 MSTORE DUP1 PUSH0 MSTORE PUSH1 0x40 PUSH0 KECCAK256 PUSH0 SWAP2 POP SWAP1 POP SLOAD DUP2 JUMP JUMPDEST CALLVALUE PUSH0 DUP1 CALLER PUSH20 0xFFFFFFFFFFFFFFFFFFFFFFFFFFFFFFFFFFFFFFFF AND PUSH20 0xFFFFFFFFFFFFFFFFFFFFFFFFFFFFFFFFFFFFFFFF AND DUP2 MSTORE PUSH1 0x20 ADD SWAP1 DUP2 MSTORE PUSH1 0x20 ADD PUSH0 KECCAK256 PUSH0 DUP3 DUP3 SLOAD PUSH2 0x285 SWAP2 SWAP1 PUSH2 0x43E JUMP JUMPDEST SWAP3 POP POP DUP2 SWAP1 SSTORE POP PUSH4 0x5A39A80 TIMESTAMP PUSH2 0x29C SWAP2 SWAP1 PUSH2 0x43E JUMP JUMPDEST PUSH1 0x1 PUSH0 CALLER PUSH20 0xFFFFFFFFFFFFFFFFFFFFFFFFFFFFFFFFFFFFFFFF AND PUSH20 0xFFFFFFFFFFFFFFFFFFFFFFFFFFFFFFFFFFFFFFFF AND DUP2 MSTORE PUSH1 0x20 ADD SWAP1 DUP2 MSTORE PUSH1 0x20 ADD PUSH0 KECCAK256 DUP2 SWAP1 SSTORE POP JUMP JUMPDEST PUSH0 DUP1 REVERT JUMPDEST PUSH0 PUSH20 0xFFFFFFFFFFFFFFFFFFFFFFFFFFFFFFFFFFFFFFFF DUP3 AND SWAP1 POP SWAP2 SWAP1 POP JUMP JUMPDEST PUSH0 PUSH2 0x30C DUP3 PUSH2 0x2E3 JUMP JUMPDEST SWAP1 POP SWAP2 SWAP1 POP JUMP JUMPDEST PUSH2 0x31C DUP2 PUSH2 0x302 JUMP JUMPDEST DUP2 EQ PUSH2 0x326 JUMPI PUSH0 DUP1 REVERT JUMPDEST POP JUMP JUMPDEST PUSH0 DUP2 CALLDATALOAD SWAP1 POP PUSH2 0x337 DUP2 PUSH2 0x313 JUMP JUMPDEST SWAP3 SWAP2 POP POP JUMP JUMPDEST PUSH0 PUSH1 0x20 DUP3 DUP5 SUB SLT ISZERO PUSH2 0x352 JUMPI PUSH2 0x351 PUSH2 0x2DF JUMP JUMPDEST JUMPDEST PUSH0 PUSH2 0x35F DUP5 DUP3 DUP6 ADD PUSH2 0x329 JUMP JUMPDEST SWAP2 POP POP SWAP3 SWAP2 POP POP JUMP JUMPDEST PUSH0 DUP2 SWAP1 POP SWAP2 SWAP1 POP JUMP JUMPDEST PUSH2 0x37A DUP2 PUSH2 0x368 JUMP JUMPDEST DUP3 MSTORE POP POP JUMP JUMPDEST PUSH0 PUSH1 0x20 DUP3 ADD SWAP1 POP PUSH2 0x393 PUSH0 DUP4 ADD DUP5 PUSH2 0x371 JUMP JUMPDEST SWAP3 SWAP2 POP POP JUMP JUMPDEST PUSH0 DUP3 DUP3 MSTORE PUSH1 0x20 DUP3 ADD SWAP1 POP SWAP3 SWAP2 POP POP JUMP JUMPDEST PUSH32 0x746F6B656E207374696C6C206C6F636B65640000000000000000000000000000 PUSH0 DUP3 ADD MSTORE POP JUMP JUMPDEST PUSH0 PUSH2 0x3DD PUSH1 0x12 DUP4 PUSH2 0x399 JUMP JUMPDEST SWAP2 POP PUSH2 0x3E8 DUP3 PUSH2 0x3A9 JUMP JUMPDEST PUSH1 0x20 DUP3 ADD SWAP1 POP SWAP2 SWAP1 POP JUMP JUMPDEST PUSH0 PUSH1 0x20 DUP3 ADD SWAP1 POP DUP2 DUP2 SUB PUSH0 DUP4 ADD MSTORE PUSH2 0x40A DUP2 PUSH2 0x3D1 JUMP JUMPDEST SWAP1 POP SWAP2 SWAP1 POP JUMP JUMPDEST PUSH32 0x4E487B7100000000000000000000000000000000000000000000000000000000 PUSH0 MSTORE PUSH1 0x11 PUSH1 0x4 MSTORE PUSH1 0x24 PUSH0 REVERT JUMPDEST PUSH0 PUSH2 0x448 DUP3 PUSH2 0x368 JUMP JUMPDEST SWAP2 POP PUSH2 0x453 DUP4 PUSH2 0x368 JUMP JUMPDEST SWAP3 POP DUP3 DUP3 ADD SWAP1 POP DUP1 DUP3 GT ISZERO PUSH2 0x46B JUMPI PUSH2 0x46A PUSH2 0x411 JUMP JUMPDEST JUMPDEST SWAP3 SWAP2 POP POP JUMP INVALID LOG2 PUSH5 0x6970667358 0x22 SLT KECCAK256 SWAP1 CALLDATALOAD 0xA5 REVERT 0xB7 EXP 0xDD 0xE2 CALLDATASIZE SWAP14 0x2F 0xE4 0xD1 0xE9 0xB0 0xB1 SLT 0x4E MOD PC MLOAD DUP10 SSTORE 0xCB 0xC5 REVERT 0xBC SWAP1 0x26 0xC4 0xB5 GASPRICE PUSH5 0x736F6C6343 STOP ADDMOD AND STOP CALLER "
				},
				"gasEstimates": {
					"creation": {
						"codeDepositCost": "238200",
						"executionCost": "279",
						"totalCost": "238479"
					},
					"external": {
						"balanceOf(address)": "2801",
						"deposit()": "infinite",
						"lockedUntil(address)": "2824",
						"withdraw()": "infinite"
					}
				},
				"methodIdentifiers": {
					"balanceOf(address)": "70a08231",
					"deposit()": "d0e30db0",
					"lockedUntil(address)": "9bc289f1",
					"withdraw()": "3ccfd60b"
				}
			},
			"storageLayout": {
				"storage": [
					{
						"astId": 10,
						"contract": "Modules/Solidity/55. Hodl.sol:Hodl",
						"label": "balanceOf",
						"offset": 0,
						"slot": "0",
						"type": "t_mapping(t_address,t_uint256)"
					},
					{
						"astId": 14,
						"contract": "Modules/Solidity/55. Hodl.sol:Hodl",
						"label": "lockedUntil",
						"offset": 0,
						"slot": "1",
						"type": "t_mapping(t_address,t_uint256)"
					}
				],
				"types": {
					"t_address": {
						"encoding": "inplace",
						"label": "address",
						"numberOfBytes": "20"
					},
					"t_mapping(t_address,t_uint256)": {
						"encoding": "mapping",
						"key": "t_address",
						"label": "mapping(address => uint256)",
						"numberOfBytes": "32",
						"value": "t_uint256"
					},
					"t_uint256": {
						"encoding": "inplace",
						"label": "uint256",
						"numberOfBytes": "32"
					}
				}
			},
			"userdoc": {
				"kind": "user",
				"methods": {},
				"version": 1
			}
		}
	}
}