{
	"Modules/Solidity/76. Assembly Binary Exponentiation.sol": {
		"AssemblyBinExp": {
			"abi": [
				{
					"inputs": [
						{
							"internalType": "uint256",
							"name": "x",
							"type": "uint256"
						},
						{
							"internalType": "uint256",
							"name": "n",
							"type": "uint256"
						},
						{
							"internalType": "uint256",
							"name": "b",
							"type": "uint256"
						}
					],
					"name": "rpow",
					"outputs": [
						{
							"internalType": "uint256",
							"name": "z",
							"type": "uint256"
						}
					],
					"stateMutability": "pure",
					"type": "function"
				}
			],
			"devdoc": {
				"kind": "dev",
				"methods": {},
				"version": 1
			},
			"evm": {
				"assembly": "    /* \"Modules/Solidity/76. Assembly Binary Exponentiation.sol\":57:2008  contract AssemblyBinExp {... */\n  mstore(0x40, 0x80)\n  callvalue\n  dup1\n  iszero\n  tag_1\n  jumpi\n  0x00\n  dup1\n  revert\ntag_1:\n  pop\n  dataSize(sub_0)\n  dup1\n  dataOffset(sub_0)\n  0x00\n  codecopy\n  0x00\n  return\nstop\n\nsub_0: assembly {\n        /* \"Modules/Solidity/76. Assembly Binary Exponentiation.sol\":57:2008  contract AssemblyBinExp {... */\n      mstore(0x40, 0x80)\n      callvalue\n      dup1\n      iszero\n      tag_1\n      jumpi\n      0x00\n      dup1\n      revert\n    tag_1:\n      pop\n      jumpi(tag_2, lt(calldatasize, 0x04))\n      shr(0xe0, calldataload(0x00))\n      dup1\n      0x67b870af\n      eq\n      tag_3\n      jumpi\n    tag_2:\n      0x00\n      dup1\n      revert\n        /* \"Modules/Solidity/76. Assembly Binary Exponentiation.sol\":134:2006  function rpow(uint256 x, uint256 n, uint256 b)... */\n    tag_3:\n      tag_4\n      0x04\n      dup1\n      calldatasize\n      sub\n      dup2\n      add\n      swap1\n      tag_5\n      swap2\n      swap1\n      tag_6\n      jump\t// in\n    tag_5:\n      tag_7\n      jump\t// in\n    tag_4:\n      mload(0x40)\n      tag_8\n      swap2\n      swap1\n      tag_9\n      jump\t// in\n    tag_8:\n      mload(0x40)\n      dup1\n      swap2\n      sub\n      swap1\n      return\n    tag_7:\n        /* \"Modules/Solidity/76. Assembly Binary Exponentiation.sol\":226:235  uint256 z */\n      0x00\n        /* \"Modules/Solidity/76. Assembly Binary Exponentiation.sol\":281:282  x */\n      dup4\n        /* \"Modules/Solidity/76. Assembly Binary Exponentiation.sol\":321:322  0 */\n      0x00\n        /* \"Modules/Solidity/76. Assembly Binary Exponentiation.sol\":316:526  case 0 {... */\n      dup2\n      eq\n      tag_12\n      jumpi\n        /* \"Modules/Solidity/76. Assembly Binary Exponentiation.sol\":579:580  2 */\n      0x02\n        /* \"Modules/Solidity/76. Assembly Binary Exponentiation.sol\":576:577  n */\n      dup5\n        /* \"Modules/Solidity/76. Assembly Binary Exponentiation.sol\":572:581  mod(n, 2) */\n      mod\n        /* \"Modules/Solidity/76. Assembly Binary Exponentiation.sol\":652:653  0 */\n      0x00\n        /* \"Modules/Solidity/76. Assembly Binary Exponentiation.sol\":647:664  case 0 { z := b } */\n      dup2\n      eq\n      tag_14\n      jumpi\n        /* \"Modules/Solidity/76. Assembly Binary Exponentiation.sol\":744:745  x */\n      dup6\n        /* \"Modules/Solidity/76. Assembly Binary Exponentiation.sol\":739:745  z := x */\n      swap3\n      pop\n        /* \"Modules/Solidity/76. Assembly Binary Exponentiation.sol\":565:747  switch mod(n, 2)... */\n      jump(tag_13)\n        /* \"Modules/Solidity/76. Assembly Binary Exponentiation.sol\":647:664  case 0 { z := b } */\n    tag_14:\n        /* \"Modules/Solidity/76. Assembly Binary Exponentiation.sol\":661:662  b */\n      dup4\n        /* \"Modules/Solidity/76. Assembly Binary Exponentiation.sol\":656:662  z := b */\n      swap3\n      pop\n        /* \"Modules/Solidity/76. Assembly Binary Exponentiation.sol\":565:747  switch mod(n, 2)... */\n    tag_13:\n      pop\n        /* \"Modules/Solidity/76. Assembly Binary Exponentiation.sol\":784:785  2 */\n      0x02\n        /* \"Modules/Solidity/76. Assembly Binary Exponentiation.sol\":781:782  b */\n      dup4\n        /* \"Modules/Solidity/76. Assembly Binary Exponentiation.sol\":777:786  div(b, 2) */\n      div\n        /* \"Modules/Solidity/76. Assembly Binary Exponentiation.sol\":891:892  2 */\n      0x02\n        /* \"Modules/Solidity/76. Assembly Binary Exponentiation.sol\":888:889  n */\n      dup6\n        /* \"Modules/Solidity/76. Assembly Binary Exponentiation.sol\":884:893  div(n, 2) */\n      div\n        /* \"Modules/Solidity/76. Assembly Binary Exponentiation.sol\":879:893  n := div(n, 2) */\n      swap5\n      pop\n        /* \"Modules/Solidity/76. Assembly Binary Exponentiation.sol\":873:1976  for { n := div(n, 2) } n { n := div(n, 2) } {... */\n    tag_15:\n        /* \"Modules/Solidity/76. Assembly Binary Exponentiation.sol\":896:897  n */\n      dup5\n        /* \"Modules/Solidity/76. Assembly Binary Exponentiation.sol\":873:1976  for { n := div(n, 2) } n { n := div(n, 2) } {... */\n      iszero\n      tag_17\n      jumpi\n        /* \"Modules/Solidity/76. Assembly Binary Exponentiation.sol\":956:957  x */\n      dup6\n        /* \"Modules/Solidity/76. Assembly Binary Exponentiation.sol\":953:954  x */\n      dup7\n        /* \"Modules/Solidity/76. Assembly Binary Exponentiation.sol\":949:958  mul(x, x) */\n      mul\n        /* \"Modules/Solidity/76. Assembly Binary Exponentiation.sol\":1066:1067  x */\n      dup7\n        /* \"Modules/Solidity/76. Assembly Binary Exponentiation.sol\":1062:1063  x */\n      dup8\n        /* \"Modules/Solidity/76. Assembly Binary Exponentiation.sol\":1058:1060  xx */\n      dup3\n        /* \"Modules/Solidity/76. Assembly Binary Exponentiation.sol\":1054:1064  div(xx, x) */\n      div\n        /* \"Modules/Solidity/76. Assembly Binary Exponentiation.sol\":1051:1068  eq(div(xx, x), x) */\n      eq\n        /* \"Modules/Solidity/76. Assembly Binary Exponentiation.sol\":1041:1086  if iszero(eq(div(xx, x), x)) { revert(0, 0) } */\n      tag_18\n      jumpi\n        /* \"Modules/Solidity/76. Assembly Binary Exponentiation.sol\":1082:1083  0 */\n      0x00\n        /* \"Modules/Solidity/76. Assembly Binary Exponentiation.sol\":1079:1080  0 */\n      dup1\n        /* \"Modules/Solidity/76. Assembly Binary Exponentiation.sol\":1072:1084  revert(0, 0) */\n      revert\n        /* \"Modules/Solidity/76. Assembly Binary Exponentiation.sol\":1041:1086  if iszero(eq(div(xx, x), x)) { revert(0, 0) } */\n    tag_18:\n        /* \"Modules/Solidity/76. Assembly Binary Exponentiation.sol\":1175:1179  half */\n      dup2\n        /* \"Modules/Solidity/76. Assembly Binary Exponentiation.sol\":1171:1173  xx */\n      dup2\n        /* \"Modules/Solidity/76. Assembly Binary Exponentiation.sol\":1167:1180  add(xx, half) */\n      add\n        /* \"Modules/Solidity/76. Assembly Binary Exponentiation.sol\":1279:1281  xx */\n      dup2\n        /* \"Modules/Solidity/76. Assembly Binary Exponentiation.sol\":1270:1277  xxRound */\n      dup2\n        /* \"Modules/Solidity/76. Assembly Binary Exponentiation.sol\":1267:1282  lt(xxRound, xx) */\n      lt\n        /* \"Modules/Solidity/76. Assembly Binary Exponentiation.sol\":1264:1299  if lt(xxRound, xx) { revert(0, 0) } */\n      iszero\n      tag_19\n      jumpi\n        /* \"Modules/Solidity/76. Assembly Binary Exponentiation.sol\":1295:1296  0 */\n      0x00\n        /* \"Modules/Solidity/76. Assembly Binary Exponentiation.sol\":1292:1293  0 */\n      dup1\n        /* \"Modules/Solidity/76. Assembly Binary Exponentiation.sol\":1285:1297  revert(0, 0) */\n      revert\n        /* \"Modules/Solidity/76. Assembly Binary Exponentiation.sol\":1264:1299  if lt(xxRound, xx) { revert(0, 0) } */\n    tag_19:\n        /* \"Modules/Solidity/76. Assembly Binary Exponentiation.sol\":1338:1339  b */\n      dup6\n        /* \"Modules/Solidity/76. Assembly Binary Exponentiation.sol\":1329:1336  xxRound */\n      dup2\n        /* \"Modules/Solidity/76. Assembly Binary Exponentiation.sol\":1325:1340  div(xxRound, b) */\n      div\n        /* \"Modules/Solidity/76. Assembly Binary Exponentiation.sol\":1320:1340  x := div(xxRound, b) */\n      swap8\n      pop\n        /* \"Modules/Solidity/76. Assembly Binary Exponentiation.sol\":1408:1409  2 */\n      0x02\n        /* \"Modules/Solidity/76. Assembly Binary Exponentiation.sol\":1405:1406  n */\n      dup8\n        /* \"Modules/Solidity/76. Assembly Binary Exponentiation.sol\":1401:1410  mod(n, 2) */\n      mod\n        /* \"Modules/Solidity/76. Assembly Binary Exponentiation.sol\":1398:1958  if mod(n, 2) {... */\n      iszero\n      tag_20\n      jumpi\n        /* \"Modules/Solidity/76. Assembly Binary Exponentiation.sol\":1454:1455  x */\n      dup8\n        /* \"Modules/Solidity/76. Assembly Binary Exponentiation.sol\":1451:1452  z */\n      dup6\n        /* \"Modules/Solidity/76. Assembly Binary Exponentiation.sol\":1447:1456  mul(z, x) */\n      mul\n        /* \"Modules/Solidity/76. Assembly Binary Exponentiation.sol\":1589:1590  z */\n      dup6\n        /* \"Modules/Solidity/76. Assembly Binary Exponentiation.sol\":1585:1586  x */\n      dup10\n        /* \"Modules/Solidity/76. Assembly Binary Exponentiation.sol\":1581:1583  zx */\n      dup3\n        /* \"Modules/Solidity/76. Assembly Binary Exponentiation.sol\":1577:1587  div(zx, x) */\n      div\n        /* \"Modules/Solidity/76. Assembly Binary Exponentiation.sol\":1574:1591  eq(div(zx, x), z) */\n      eq\n        /* \"Modules/Solidity/76. Assembly Binary Exponentiation.sol\":1567:1592  iszero(eq(div(zx, x), z)) */\n      iszero\n        /* \"Modules/Solidity/76. Assembly Binary Exponentiation.sol\":1562:1563  x */\n      dup10\n        /* \"Modules/Solidity/76. Assembly Binary Exponentiation.sol\":1555:1564  iszero(x) */\n      iszero\n        /* \"Modules/Solidity/76. Assembly Binary Exponentiation.sol\":1548:1565  iszero(iszero(x)) */\n      iszero\n        /* \"Modules/Solidity/76. Assembly Binary Exponentiation.sol\":1544:1593  and(iszero(iszero(x)), iszero(eq(div(zx, x), z))) */\n      and\n        /* \"Modules/Solidity/76. Assembly Binary Exponentiation.sol\":1541:1662  if and(iszero(iszero(x)), iszero(eq(div(zx, x), z))) {... */\n      iszero\n      tag_21\n      jumpi\n        /* \"Modules/Solidity/76. Assembly Binary Exponentiation.sol\":1634:1635  0 */\n      0x00\n        /* \"Modules/Solidity/76. Assembly Binary Exponentiation.sol\":1631:1632  0 */\n      dup1\n        /* \"Modules/Solidity/76. Assembly Binary Exponentiation.sol\":1624:1636  revert(0, 0) */\n      revert\n        /* \"Modules/Solidity/76. Assembly Binary Exponentiation.sol\":1541:1662  if and(iszero(iszero(x)), iszero(eq(div(zx, x), z))) {... */\n    tag_21:\n        /* \"Modules/Solidity/76. Assembly Binary Exponentiation.sol\":1759:1763  half */\n      dup4\n        /* \"Modules/Solidity/76. Assembly Binary Exponentiation.sol\":1755:1757  zx */\n      dup2\n        /* \"Modules/Solidity/76. Assembly Binary Exponentiation.sol\":1751:1764  add(zx, half) */\n      add\n        /* \"Modules/Solidity/76. Assembly Binary Exponentiation.sol\":1871:1873  zx */\n      dup2\n        /* \"Modules/Solidity/76. Assembly Binary Exponentiation.sol\":1862:1869  zxRound */\n      dup2\n        /* \"Modules/Solidity/76. Assembly Binary Exponentiation.sol\":1859:1874  lt(zxRound, zx) */\n      lt\n        /* \"Modules/Solidity/76. Assembly Binary Exponentiation.sol\":1856:1891  if lt(zxRound, zx) { revert(0, 0) } */\n      iszero\n      tag_22\n      jumpi\n        /* \"Modules/Solidity/76. Assembly Binary Exponentiation.sol\":1887:1888  0 */\n      0x00\n        /* \"Modules/Solidity/76. Assembly Binary Exponentiation.sol\":1884:1885  0 */\n      dup1\n        /* \"Modules/Solidity/76. Assembly Binary Exponentiation.sol\":1877:1889  revert(0, 0) */\n      revert\n        /* \"Modules/Solidity/76. Assembly Binary Exponentiation.sol\":1856:1891  if lt(zxRound, zx) { revert(0, 0) } */\n    tag_22:\n        /* \"Modules/Solidity/76. Assembly Binary Exponentiation.sol\":1934:1935  b */\n      dup8\n        /* \"Modules/Solidity/76. Assembly Binary Exponentiation.sol\":1925:1932  zxRound */\n      dup2\n        /* \"Modules/Solidity/76. Assembly Binary Exponentiation.sol\":1921:1936  div(zxRound, b) */\n      div\n        /* \"Modules/Solidity/76. Assembly Binary Exponentiation.sol\":1916:1936  z := div(zxRound, b) */\n      swap7\n      pop\n        /* \"Modules/Solidity/76. Assembly Binary Exponentiation.sol\":1411:1958  {... */\n      pop\n      pop\n        /* \"Modules/Solidity/76. Assembly Binary Exponentiation.sol\":1398:1958  if mod(n, 2) {... */\n    tag_20:\n        /* \"Modules/Solidity/76. Assembly Binary Exponentiation.sol\":917:1976  {... */\n      pop\n      pop\n        /* \"Modules/Solidity/76. Assembly Binary Exponentiation.sol\":912:913  2 */\n      0x02\n        /* \"Modules/Solidity/76. Assembly Binary Exponentiation.sol\":909:910  n */\n      dup6\n        /* \"Modules/Solidity/76. Assembly Binary Exponentiation.sol\":905:914  div(n, 2) */\n      div\n        /* \"Modules/Solidity/76. Assembly Binary Exponentiation.sol\":900:914  n := div(n, 2) */\n      swap5\n      pop\n        /* \"Modules/Solidity/76. Assembly Binary Exponentiation.sol\":873:1976  for { n := div(n, 2) } n { n := div(n, 2) } {... */\n      jump(tag_15)\n    tag_17:\n        /* \"Modules/Solidity/76. Assembly Binary Exponentiation.sol\":547:1990  {... */\n      pop\n        /* \"Modules/Solidity/76. Assembly Binary Exponentiation.sol\":274:1990  switch x... */\n      jump(tag_11)\n        /* \"Modules/Solidity/76. Assembly Binary Exponentiation.sol\":316:526  case 0 {... */\n    tag_12:\n        /* \"Modules/Solidity/76. Assembly Binary Exponentiation.sol\":348:349  n */\n      dup4\n        /* \"Modules/Solidity/76. Assembly Binary Exponentiation.sol\":418:419  0 */\n      0x00\n        /* \"Modules/Solidity/76. Assembly Binary Exponentiation.sol\":413:430  case 0 { z := b } */\n      dup2\n      eq\n      tag_24\n      jumpi\n        /* \"Modules/Solidity/76. Assembly Binary Exponentiation.sol\":509:510  0 */\n      0x00\n        /* \"Modules/Solidity/76. Assembly Binary Exponentiation.sol\":504:510  z := 0 */\n      swap3\n      pop\n        /* \"Modules/Solidity/76. Assembly Binary Exponentiation.sol\":341:512  switch n... */\n      jump(tag_23)\n        /* \"Modules/Solidity/76. Assembly Binary Exponentiation.sol\":413:430  case 0 { z := b } */\n    tag_24:\n        /* \"Modules/Solidity/76. Assembly Binary Exponentiation.sol\":427:428  b */\n      dup4\n        /* \"Modules/Solidity/76. Assembly Binary Exponentiation.sol\":422:428  z := b */\n      swap3\n      pop\n        /* \"Modules/Solidity/76. Assembly Binary Exponentiation.sol\":341:512  switch n... */\n    tag_23:\n      pop\n        /* \"Modules/Solidity/76. Assembly Binary Exponentiation.sol\":274:1990  switch x... */\n    tag_11:\n      pop\n        /* \"Modules/Solidity/76. Assembly Binary Exponentiation.sol\":134:2006  function rpow(uint256 x, uint256 n, uint256 b)... */\n      swap4\n      swap3\n      pop\n      pop\n      pop\n      jump\t// out\n        /* \"#utility.yul\":88:205   */\n    tag_26:\n        /* \"#utility.yul\":197:198   */\n      0x00\n        /* \"#utility.yul\":194:195   */\n      dup1\n        /* \"#utility.yul\":187:199   */\n      revert\n        /* \"#utility.yul\":334:411   */\n    tag_28:\n        /* \"#utility.yul\":371:378   */\n      0x00\n        /* \"#utility.yul\":400:405   */\n      dup2\n        /* \"#utility.yul\":389:405   */\n      swap1\n      pop\n        /* \"#utility.yul\":334:411   */\n      swap2\n      swap1\n      pop\n      jump\t// out\n        /* \"#utility.yul\":417:539   */\n    tag_29:\n        /* \"#utility.yul\":490:514   */\n      tag_38\n        /* \"#utility.yul\":508:513   */\n      dup2\n        /* \"#utility.yul\":490:514   */\n      tag_28\n      jump\t// in\n    tag_38:\n        /* \"#utility.yul\":483:488   */\n      dup2\n        /* \"#utility.yul\":480:515   */\n      eq\n        /* \"#utility.yul\":470:533   */\n      tag_39\n      jumpi\n        /* \"#utility.yul\":529:530   */\n      0x00\n        /* \"#utility.yul\":526:527   */\n      dup1\n        /* \"#utility.yul\":519:531   */\n      revert\n        /* \"#utility.yul\":470:533   */\n    tag_39:\n        /* \"#utility.yul\":417:539   */\n      pop\n      jump\t// out\n        /* \"#utility.yul\":545:684   */\n    tag_30:\n        /* \"#utility.yul\":591:596   */\n      0x00\n        /* \"#utility.yul\":629:635   */\n      dup2\n        /* \"#utility.yul\":616:636   */\n      calldataload\n        /* \"#utility.yul\":607:636   */\n      swap1\n      pop\n        /* \"#utility.yul\":645:678   */\n      tag_41\n        /* \"#utility.yul\":672:677   */\n      dup2\n        /* \"#utility.yul\":645:678   */\n      tag_29\n      jump\t// in\n    tag_41:\n        /* \"#utility.yul\":545:684   */\n      swap3\n      swap2\n      pop\n      pop\n      jump\t// out\n        /* \"#utility.yul\":690:1309   */\n    tag_6:\n        /* \"#utility.yul\":767:773   */\n      0x00\n        /* \"#utility.yul\":775:781   */\n      dup1\n        /* \"#utility.yul\":783:789   */\n      0x00\n        /* \"#utility.yul\":832:834   */\n      0x60\n        /* \"#utility.yul\":820:829   */\n      dup5\n        /* \"#utility.yul\":811:818   */\n      dup7\n        /* \"#utility.yul\":807:830   */\n      sub\n        /* \"#utility.yul\":803:835   */\n      slt\n        /* \"#utility.yul\":800:919   */\n      iszero\n      tag_43\n      jumpi\n        /* \"#utility.yul\":838:917   */\n      tag_44\n      tag_26\n      jump\t// in\n    tag_44:\n        /* \"#utility.yul\":800:919   */\n    tag_43:\n        /* \"#utility.yul\":958:959   */\n      0x00\n        /* \"#utility.yul\":983:1036   */\n      tag_45\n        /* \"#utility.yul\":1028:1035   */\n      dup7\n        /* \"#utility.yul\":1019:1025   */\n      dup3\n        /* \"#utility.yul\":1008:1017   */\n      dup8\n        /* \"#utility.yul\":1004:1026   */\n      add\n        /* \"#utility.yul\":983:1036   */\n      tag_30\n      jump\t// in\n    tag_45:\n        /* \"#utility.yul\":973:1036   */\n      swap4\n      pop\n        /* \"#utility.yul\":929:1046   */\n      pop\n        /* \"#utility.yul\":1085:1087   */\n      0x20\n        /* \"#utility.yul\":1111:1164   */\n      tag_46\n        /* \"#utility.yul\":1156:1163   */\n      dup7\n        /* \"#utility.yul\":1147:1153   */\n      dup3\n        /* \"#utility.yul\":1136:1145   */\n      dup8\n        /* \"#utility.yul\":1132:1154   */\n      add\n        /* \"#utility.yul\":1111:1164   */\n      tag_30\n      jump\t// in\n    tag_46:\n        /* \"#utility.yul\":1101:1164   */\n      swap3\n      pop\n        /* \"#utility.yul\":1056:1174   */\n      pop\n        /* \"#utility.yul\":1213:1215   */\n      0x40\n        /* \"#utility.yul\":1239:1292   */\n      tag_47\n        /* \"#utility.yul\":1284:1291   */\n      dup7\n        /* \"#utility.yul\":1275:1281   */\n      dup3\n        /* \"#utility.yul\":1264:1273   */\n      dup8\n        /* \"#utility.yul\":1260:1282   */\n      add\n        /* \"#utility.yul\":1239:1292   */\n      tag_30\n      jump\t// in\n    tag_47:\n        /* \"#utility.yul\":1229:1292   */\n      swap2\n      pop\n        /* \"#utility.yul\":1184:1302   */\n      pop\n        /* \"#utility.yul\":690:1309   */\n      swap3\n      pop\n      swap3\n      pop\n      swap3\n      jump\t// out\n        /* \"#utility.yul\":1315:1433   */\n    tag_31:\n        /* \"#utility.yul\":1402:1426   */\n      tag_49\n        /* \"#utility.yul\":1420:1425   */\n      dup2\n        /* \"#utility.yul\":1402:1426   */\n      tag_28\n      jump\t// in\n    tag_49:\n        /* \"#utility.yul\":1397:1400   */\n      dup3\n        /* \"#utility.yul\":1390:1427   */\n      mstore\n        /* \"#utility.yul\":1315:1433   */\n      pop\n      pop\n      jump\t// out\n        /* \"#utility.yul\":1439:1661   */\n    tag_9:\n        /* \"#utility.yul\":1532:1536   */\n      0x00\n        /* \"#utility.yul\":1570:1572   */\n      0x20\n        /* \"#utility.yul\":1559:1568   */\n      dup3\n        /* \"#utility.yul\":1555:1573   */\n      add\n        /* \"#utility.yul\":1547:1573   */\n      swap1\n      pop\n        /* \"#utility.yul\":1583:1654   */\n      tag_51\n        /* \"#utility.yul\":1651:1652   */\n      0x00\n        /* \"#utility.yul\":1640:1649   */\n      dup4\n        /* \"#utility.yul\":1636:1653   */\n      add\n        /* \"#utility.yul\":1627:1633   */\n      dup5\n        /* \"#utility.yul\":1583:1654   */\n      tag_31\n      jump\t// in\n    tag_51:\n        /* \"#utility.yul\":1439:1661   */\n      swap3\n      swap2\n      pop\n      pop\n      jump\t// out\n\n    auxdata: 0xa2646970667358221220c26efa914dfba2e2a1986690023ce2ae2286dc1e21e198414a41bbc3e20fae3464736f6c63430008160033\n}\n",
				"bytecode": {
					"linkReferences": {},
					"object": "608060405234801561000f575f80fd5b506101ff8061001d5f395ff3fe608060405234801561000f575f80fd5b5060043610610029575f3560e01c806367b870af1461002d575b5f80fd5b61004760048036038101906100429190610151565b61005d565b60405161005491906101b0565b60405180910390f35b5f835f81146100fc57600284065f81146100795785925061007d565b8392505b50600283046002850494505b84156100f657858602868782041461009f575f80fd5b818101818110156100ae575f80fd5b858104975060028706156100e95787850285898204141589151516156100d2575f80fd5b838101818110156100e1575f80fd5b878104965050505b5050600285049450610089565b50610112565b835f811461010c575f9250610110565b8392505b505b509392505050565b5f80fd5b5f819050919050565b6101308161011e565b811461013a575f80fd5b50565b5f8135905061014b81610127565b92915050565b5f805f606084860312156101685761016761011a565b5b5f6101758682870161013d565b93505060206101868682870161013d565b92505060406101978682870161013d565b9150509250925092565b6101aa8161011e565b82525050565b5f6020820190506101c35f8301846101a1565b9291505056fea2646970667358221220c26efa914dfba2e2a1986690023ce2ae2286dc1e21e198414a41bbc3e20fae3464736f6c63430008160033",
					"opcodes": "PUSH1 0x80 PUSH1 0x40 MSTORE CALLVALUE DUP1 ISZERO PUSH2 0xF JUMPI PUSH0 DUP1 REVERT JUMPDEST POP PUSH2 0x1FF DUP1 PUSH2 0x1D PUSH0 CODECOPY PUSH0 RETURN INVALID PUSH1 0x80 PUSH1 0x40 MSTORE CALLVALUE DUP1 ISZERO PUSH2 0xF JUMPI PUSH0 DUP1 REVERT JUMPDEST POP PUSH1 0x4 CALLDATASIZE LT PUSH2 0x29 JUMPI PUSH0 CALLDATALOAD PUSH1 0xE0 SHR DUP1 PUSH4 0x67B870AF EQ PUSH2 0x2D JUMPI JUMPDEST PUSH0 DUP1 REVERT JUMPDEST PUSH2 0x47 PUSH1 0x4 DUP1 CALLDATASIZE SUB DUP2 ADD SWAP1 PUSH2 0x42 SWAP2 SWAP1 PUSH2 0x151 JUMP JUMPDEST PUSH2 0x5D JUMP JUMPDEST PUSH1 0x40 MLOAD PUSH2 0x54 SWAP2 SWAP1 PUSH2 0x1B0 JUMP JUMPDEST PUSH1 0x40 MLOAD DUP1 SWAP2 SUB SWAP1 RETURN JUMPDEST PUSH0 DUP4 PUSH0 DUP2 EQ PUSH2 0xFC JUMPI PUSH1 0x2 DUP5 MOD PUSH0 DUP2 EQ PUSH2 0x79 JUMPI DUP6 SWAP3 POP PUSH2 0x7D JUMP JUMPDEST DUP4 SWAP3 POP JUMPDEST POP PUSH1 0x2 DUP4 DIV PUSH1 0x2 DUP6 DIV SWAP5 POP JUMPDEST DUP5 ISZERO PUSH2 0xF6 JUMPI DUP6 DUP7 MUL DUP7 DUP8 DUP3 DIV EQ PUSH2 0x9F JUMPI PUSH0 DUP1 REVERT JUMPDEST DUP2 DUP2 ADD DUP2 DUP2 LT ISZERO PUSH2 0xAE JUMPI PUSH0 DUP1 REVERT JUMPDEST DUP6 DUP2 DIV SWAP8 POP PUSH1 0x2 DUP8 MOD ISZERO PUSH2 0xE9 JUMPI DUP8 DUP6 MUL DUP6 DUP10 DUP3 DIV EQ ISZERO DUP10 ISZERO ISZERO AND ISZERO PUSH2 0xD2 JUMPI PUSH0 DUP1 REVERT JUMPDEST DUP4 DUP2 ADD DUP2 DUP2 LT ISZERO PUSH2 0xE1 JUMPI PUSH0 DUP1 REVERT JUMPDEST DUP8 DUP2 DIV SWAP7 POP POP POP JUMPDEST POP POP PUSH1 0x2 DUP6 DIV SWAP5 POP PUSH2 0x89 JUMP JUMPDEST POP PUSH2 0x112 JUMP JUMPDEST DUP4 PUSH0 DUP2 EQ PUSH2 0x10C JUMPI PUSH0 SWAP3 POP PUSH2 0x110 JUMP JUMPDEST DUP4 SWAP3 POP JUMPDEST POP JUMPDEST POP SWAP4 SWAP3 POP POP POP JUMP JUMPDEST PUSH0 DUP1 REVERT JUMPDEST PUSH0 DUP2 SWAP1 POP SWAP2 SWAP1 POP JUMP JUMPDEST PUSH2 0x130 DUP2 PUSH2 0x11E JUMP JUMPDEST DUP2 EQ PUSH2 0x13A JUMPI PUSH0 DUP1 REVERT JUMPDEST POP JUMP JUMPDEST PUSH0 DUP2 CALLDATALOAD SWAP1 POP PUSH2 0x14B DUP2 PUSH2 0x127 JUMP JUMPDEST SWAP3 SWAP2 POP POP JUMP JUMPDEST PUSH0 DUP1 PUSH0 PUSH1 0x60 DUP5 DUP7 SUB SLT ISZERO PUSH2 0x168 JUMPI PUSH2 0x167 PUSH2 0x11A JUMP JUMPDEST JUMPDEST PUSH0 PUSH2 0x175 DUP7 DUP3 DUP8 ADD PUSH2 0x13D JUMP JUMPDEST SWAP4 POP POP PUSH1 0x20 PUSH2 0x186 DUP7 DUP3 DUP8 ADD PUSH2 0x13D JUMP JUMPDEST SWAP3 POP POP PUSH1 0x40 PUSH2 0x197 DUP7 DUP3 DUP8 ADD PUSH2 0x13D JUMP JUMPDEST SWAP2 POP POP SWAP3 POP SWAP3 POP SWAP3 JUMP JUMPDEST PUSH2 0x1AA DUP2 PUSH2 0x11E JUMP JUMPDEST DUP3 MSTORE POP POP JUMP JUMPDEST PUSH0 PUSH1 0x20 DUP3 ADD SWAP1 POP PUSH2 0x1C3 PUSH0 DUP4 ADD DUP5 PUSH2 0x1A1 JUMP JUMPDEST SWAP3 SWAP2 POP POP JUMP INVALID LOG2 PUSH5 0x6970667358 0x22 SLT KECCAK256 0xC2 PUSH15 0xFA914DFBA2E2A1986690023CE2AE22 DUP7 0xDC 0x1E 0x21 0xE1 SWAP9 COINBASE 0x4A COINBASE 0xBB 0xC3 0xE2 0xF 0xAE CALLVALUE PUSH5 0x736F6C6343 STOP ADDMOD AND STOP CALLER "
				},
				"gasEstimates": {
					"creation": {
						"codeDepositCost": "102200",
						"executionCost": "145",
						"totalCost": "102345"
					},
					"external": {
						"rpow(uint256,uint256,uint256)": "infinite"
					}
				},
				"methodIdentifiers": {
					"rpow(uint256,uint256,uint256)": "67b870af"
				}
			},
			"storageLayout": {
				"storage": [],
				"types": null
			},
			"userdoc": {
				"kind": "user",
				"methods": {},
				"version": 1
			}
		}
	}
}