{
	"Modules/Solidity/67. Write to any slot.sol": {
		"TestSlot": {
			"abi": [
				{
					"inputs": [],
					"name": "TEST_SLOT",
					"outputs": [
						{
							"internalType": "bytes32",
							"name": "",
							"type": "bytes32"
						}
					],
					"stateMutability": "view",
					"type": "function"
				},
				{
					"inputs": [],
					"name": "get",
					"outputs": [
						{
							"internalType": "address",
							"name": "",
							"type": "address"
						}
					],
					"stateMutability": "view",
					"type": "function"
				},
				{
					"inputs": [
						{
							"internalType": "address",
							"name": "addr",
							"type": "address"
						}
					],
					"name": "write",
					"outputs": [],
					"stateMutability": "nonpayable",
					"type": "function"
				}
			],
			"devdoc": {
				"kind": "dev",
				"methods": {},
				"version": 1
			},
			"evm": {
				"assembly": "    /* \"Modules/Solidity/67. Write to any slot.sol\":475:921  contract TestSlot {... */\n  mstore(0x40, 0x80)\n  callvalue\n  dup1\n  iszero\n  tag_1\n  jumpi\n  0x00\n  dup1\n  revert\ntag_1:\n  pop\n  dataSize(sub_0)\n  dup1\n  dataOffset(sub_0)\n  0x00\n  codecopy\n  0x00\n  return\nstop\n\nsub_0: assembly {\n        /* \"Modules/Solidity/67. Write to any slot.sol\":475:921  contract TestSlot {... */\n      mstore(0x40, 0x80)\n      callvalue\n      dup1\n      iszero\n      tag_1\n      jumpi\n      0x00\n      dup1\n      revert\n    tag_1:\n      pop\n      jumpi(tag_2, lt(calldatasize, 0x04))\n      shr(0xe0, calldataload(0x00))\n      dup1\n      0x6d4ce63c\n      eq\n      tag_3\n      jumpi\n      dup1\n      0x93730f70\n      eq\n      tag_4\n      jumpi\n      dup1\n      0xb80abfc2\n      eq\n      tag_5\n      jumpi\n    tag_2:\n      0x00\n      dup1\n      revert\n        /* \"Modules/Solidity/67. Write to any slot.sol\":740:919  function get() external view returns (address) {... */\n    tag_3:\n      tag_6\n      tag_7\n      jump\t// in\n    tag_6:\n      mload(0x40)\n      tag_8\n      swap2\n      swap1\n      tag_9\n      jump\t// in\n    tag_8:\n      mload(0x40)\n      dup1\n      swap2\n      sub\n      swap1\n      return\n        /* \"Modules/Solidity/67. Write to any slot.sol\":564:734  function write(address addr) external {... */\n    tag_4:\n      tag_10\n      0x04\n      dup1\n      calldatasize\n      sub\n      dup2\n      add\n      swap1\n      tag_11\n      swap2\n      swap1\n      tag_12\n      jump\t// in\n    tag_11:\n      tag_13\n      jump\t// in\n    tag_10:\n      stop\n        /* \"Modules/Solidity/67. Write to any slot.sol\":499:557  bytes32 public constant TEST_SLOT = keccak256(\"TEST_SLOT\") */\n    tag_5:\n      tag_14\n      tag_15\n      jump\t// in\n    tag_14:\n      mload(0x40)\n      tag_16\n      swap2\n      swap1\n      tag_17\n      jump\t// in\n    tag_16:\n      mload(0x40)\n      dup1\n      swap2\n      sub\n      swap1\n      return\n        /* \"Modules/Solidity/67. Write to any slot.sol\":740:919  function get() external view returns (address) {... */\n    tag_7:\n        /* \"Modules/Solidity/67. Write to any slot.sol\":778:785  address */\n      0x00\n        /* \"Modules/Solidity/67. Write to any slot.sol\":797:833  StorageSlot.AddressSlot storage data */\n      dup1\n        /* \"Modules/Solidity/67. Write to any slot.sol\":848:885  StorageSlot.getAddressSlot(TEST_SLOT) */\n      tag_19\n        /* \"Modules/Solidity/67. Write to any slot.sol\":535:557  keccak256(\"TEST_SLOT\") */\n      0xa7cb26ea17989bb9c5eb391c94c40892dcdc94bb4c381353450910ba80883e1c\n        /* \"Modules/Solidity/67. Write to any slot.sol\":848:874  StorageSlot.getAddressSlot */\n      tag_20\n        /* \"Modules/Solidity/67. Write to any slot.sol\":848:885  StorageSlot.getAddressSlot(TEST_SLOT) */\n      jump\t// in\n    tag_19:\n        /* \"Modules/Solidity/67. Write to any slot.sol\":797:885  StorageSlot.AddressSlot storage data =... */\n      swap1\n      pop\n        /* \"Modules/Solidity/67. Write to any slot.sol\":902:906  data */\n      dup1\n        /* \"Modules/Solidity/67. Write to any slot.sol\":902:912  data.value */\n      0x00\n      add\n      0x00\n      swap1\n      sload\n      swap1\n      0x0100\n      exp\n      swap1\n      div\n      0xffffffffffffffffffffffffffffffffffffffff\n      and\n        /* \"Modules/Solidity/67. Write to any slot.sol\":895:912  return data.value */\n      swap2\n      pop\n      pop\n        /* \"Modules/Solidity/67. Write to any slot.sol\":740:919  function get() external view returns (address) {... */\n      swap1\n      jump\t// out\n        /* \"Modules/Solidity/67. Write to any slot.sol\":564:734  function write(address addr) external {... */\n    tag_13:\n        /* \"Modules/Solidity/67. Write to any slot.sol\":612:648  StorageSlot.AddressSlot storage data */\n      0x00\n        /* \"Modules/Solidity/67. Write to any slot.sol\":663:700  StorageSlot.getAddressSlot(TEST_SLOT) */\n      tag_22\n        /* \"Modules/Solidity/67. Write to any slot.sol\":535:557  keccak256(\"TEST_SLOT\") */\n      0xa7cb26ea17989bb9c5eb391c94c40892dcdc94bb4c381353450910ba80883e1c\n        /* \"Modules/Solidity/67. Write to any slot.sol\":663:689  StorageSlot.getAddressSlot */\n      tag_20\n        /* \"Modules/Solidity/67. Write to any slot.sol\":663:700  StorageSlot.getAddressSlot(TEST_SLOT) */\n      jump\t// in\n    tag_22:\n        /* \"Modules/Solidity/67. Write to any slot.sol\":612:700  StorageSlot.AddressSlot storage data =... */\n      swap1\n      pop\n        /* \"Modules/Solidity/67. Write to any slot.sol\":723:727  addr */\n      dup2\n        /* \"Modules/Solidity/67. Write to any slot.sol\":710:714  data */\n      dup2\n        /* \"Modules/Solidity/67. Write to any slot.sol\":710:720  data.value */\n      0x00\n      add\n      0x00\n        /* \"Modules/Solidity/67. Write to any slot.sol\":710:727  data.value = addr */\n      0x0100\n      exp\n      dup2\n      sload\n      dup2\n      0xffffffffffffffffffffffffffffffffffffffff\n      mul\n      not\n      and\n      swap1\n      dup4\n      0xffffffffffffffffffffffffffffffffffffffff\n      and\n      mul\n      or\n      swap1\n      sstore\n      pop\n        /* \"Modules/Solidity/67. Write to any slot.sol\":602:734  {... */\n      pop\n        /* \"Modules/Solidity/67. Write to any slot.sol\":564:734  function write(address addr) external {... */\n      pop\n      jump\t// out\n        /* \"Modules/Solidity/67. Write to any slot.sol\":499:557  bytes32 public constant TEST_SLOT = keccak256(\"TEST_SLOT\") */\n    tag_15:\n        /* \"Modules/Solidity/67. Write to any slot.sol\":535:557  keccak256(\"TEST_SLOT\") */\n      0xa7cb26ea17989bb9c5eb391c94c40892dcdc94bb4c381353450910ba80883e1c\n        /* \"Modules/Solidity/67. Write to any slot.sol\":499:557  bytes32 public constant TEST_SLOT = keccak256(\"TEST_SLOT\") */\n      dup2\n      jump\t// out\n        /* \"Modules/Solidity/67. Write to any slot.sol\":223:471  function getAddressSlot(bytes32 slot)... */\n    tag_20:\n        /* \"Modules/Solidity/67. Write to any slot.sol\":308:335  AddressSlot storage pointer */\n      0x00\n        /* \"Modules/Solidity/67. Write to any slot.sol\":451:455  slot */\n      dup2\n        /* \"Modules/Solidity/67. Write to any slot.sol\":435:455  pointer.slot := slot */\n      swap1\n      pop\n        /* \"Modules/Solidity/67. Write to any slot.sol\":223:471  function getAddressSlot(bytes32 slot)... */\n      swap2\n      swap1\n      pop\n      jump\t// out\n        /* \"#utility.yul\":7:133   */\n    tag_24:\n        /* \"#utility.yul\":44:51   */\n      0x00\n        /* \"#utility.yul\":84:126   */\n      0xffffffffffffffffffffffffffffffffffffffff\n        /* \"#utility.yul\":77:82   */\n      dup3\n        /* \"#utility.yul\":73:127   */\n      and\n        /* \"#utility.yul\":62:127   */\n      swap1\n      pop\n        /* \"#utility.yul\":7:133   */\n      swap2\n      swap1\n      pop\n      jump\t// out\n        /* \"#utility.yul\":139:235   */\n    tag_25:\n        /* \"#utility.yul\":176:183   */\n      0x00\n        /* \"#utility.yul\":205:229   */\n      tag_37\n        /* \"#utility.yul\":223:228   */\n      dup3\n        /* \"#utility.yul\":205:229   */\n      tag_24\n      jump\t// in\n    tag_37:\n        /* \"#utility.yul\":194:229   */\n      swap1\n      pop\n        /* \"#utility.yul\":139:235   */\n      swap2\n      swap1\n      pop\n      jump\t// out\n        /* \"#utility.yul\":241:359   */\n    tag_26:\n        /* \"#utility.yul\":328:352   */\n      tag_39\n        /* \"#utility.yul\":346:351   */\n      dup2\n        /* \"#utility.yul\":328:352   */\n      tag_25\n      jump\t// in\n    tag_39:\n        /* \"#utility.yul\":323:326   */\n      dup3\n        /* \"#utility.yul\":316:353   */\n      mstore\n        /* \"#utility.yul\":241:359   */\n      pop\n      pop\n      jump\t// out\n        /* \"#utility.yul\":365:587   */\n    tag_9:\n        /* \"#utility.yul\":458:462   */\n      0x00\n        /* \"#utility.yul\":496:498   */\n      0x20\n        /* \"#utility.yul\":485:494   */\n      dup3\n        /* \"#utility.yul\":481:499   */\n      add\n        /* \"#utility.yul\":473:499   */\n      swap1\n      pop\n        /* \"#utility.yul\":509:580   */\n      tag_41\n        /* \"#utility.yul\":577:578   */\n      0x00\n        /* \"#utility.yul\":566:575   */\n      dup4\n        /* \"#utility.yul\":562:579   */\n      add\n        /* \"#utility.yul\":553:559   */\n      dup5\n        /* \"#utility.yul\":509:580   */\n      tag_26\n      jump\t// in\n    tag_41:\n        /* \"#utility.yul\":365:587   */\n      swap3\n      swap2\n      pop\n      pop\n      jump\t// out\n        /* \"#utility.yul\":674:791   */\n    tag_28:\n        /* \"#utility.yul\":783:784   */\n      0x00\n        /* \"#utility.yul\":780:781   */\n      dup1\n        /* \"#utility.yul\":773:785   */\n      revert\n        /* \"#utility.yul\":920:1042   */\n    tag_30:\n        /* \"#utility.yul\":993:1017   */\n      tag_46\n        /* \"#utility.yul\":1011:1016   */\n      dup2\n        /* \"#utility.yul\":993:1017   */\n      tag_25\n      jump\t// in\n    tag_46:\n        /* \"#utility.yul\":986:991   */\n      dup2\n        /* \"#utility.yul\":983:1018   */\n      eq\n        /* \"#utility.yul\":973:1036   */\n      tag_47\n      jumpi\n        /* \"#utility.yul\":1032:1033   */\n      0x00\n        /* \"#utility.yul\":1029:1030   */\n      dup1\n        /* \"#utility.yul\":1022:1034   */\n      revert\n        /* \"#utility.yul\":973:1036   */\n    tag_47:\n        /* \"#utility.yul\":920:1042   */\n      pop\n      jump\t// out\n        /* \"#utility.yul\":1048:1187   */\n    tag_31:\n        /* \"#utility.yul\":1094:1099   */\n      0x00\n        /* \"#utility.yul\":1132:1138   */\n      dup2\n        /* \"#utility.yul\":1119:1139   */\n      calldataload\n        /* \"#utility.yul\":1110:1139   */\n      swap1\n      pop\n        /* \"#utility.yul\":1148:1181   */\n      tag_49\n        /* \"#utility.yul\":1175:1180   */\n      dup2\n        /* \"#utility.yul\":1148:1181   */\n      tag_30\n      jump\t// in\n    tag_49:\n        /* \"#utility.yul\":1048:1187   */\n      swap3\n      swap2\n      pop\n      pop\n      jump\t// out\n        /* \"#utility.yul\":1193:1522   */\n    tag_12:\n        /* \"#utility.yul\":1252:1258   */\n      0x00\n        /* \"#utility.yul\":1301:1303   */\n      0x20\n        /* \"#utility.yul\":1289:1298   */\n      dup3\n        /* \"#utility.yul\":1280:1287   */\n      dup5\n        /* \"#utility.yul\":1276:1299   */\n      sub\n        /* \"#utility.yul\":1272:1304   */\n      slt\n        /* \"#utility.yul\":1269:1388   */\n      iszero\n      tag_51\n      jumpi\n        /* \"#utility.yul\":1307:1386   */\n      tag_52\n      tag_28\n      jump\t// in\n    tag_52:\n        /* \"#utility.yul\":1269:1388   */\n    tag_51:\n        /* \"#utility.yul\":1427:1428   */\n      0x00\n        /* \"#utility.yul\":1452:1505   */\n      tag_53\n        /* \"#utility.yul\":1497:1504   */\n      dup5\n        /* \"#utility.yul\":1488:1494   */\n      dup3\n        /* \"#utility.yul\":1477:1486   */\n      dup6\n        /* \"#utility.yul\":1473:1495   */\n      add\n        /* \"#utility.yul\":1452:1505   */\n      tag_31\n      jump\t// in\n    tag_53:\n        /* \"#utility.yul\":1442:1505   */\n      swap2\n      pop\n        /* \"#utility.yul\":1398:1515   */\n      pop\n        /* \"#utility.yul\":1193:1522   */\n      swap3\n      swap2\n      pop\n      pop\n      jump\t// out\n        /* \"#utility.yul\":1528:1605   */\n    tag_32:\n        /* \"#utility.yul\":1565:1572   */\n      0x00\n        /* \"#utility.yul\":1594:1599   */\n      dup2\n        /* \"#utility.yul\":1583:1599   */\n      swap1\n      pop\n        /* \"#utility.yul\":1528:1605   */\n      swap2\n      swap1\n      pop\n      jump\t// out\n        /* \"#utility.yul\":1611:1729   */\n    tag_33:\n        /* \"#utility.yul\":1698:1722   */\n      tag_56\n        /* \"#utility.yul\":1716:1721   */\n      dup2\n        /* \"#utility.yul\":1698:1722   */\n      tag_32\n      jump\t// in\n    tag_56:\n        /* \"#utility.yul\":1693:1696   */\n      dup3\n        /* \"#utility.yul\":1686:1723   */\n      mstore\n        /* \"#utility.yul\":1611:1729   */\n      pop\n      pop\n      jump\t// out\n        /* \"#utility.yul\":1735:1957   */\n    tag_17:\n        /* \"#utility.yul\":1828:1832   */\n      0x00\n        /* \"#utility.yul\":1866:1868   */\n      0x20\n        /* \"#utility.yul\":1855:1864   */\n      dup3\n        /* \"#utility.yul\":1851:1869   */\n      add\n        /* \"#utility.yul\":1843:1869   */\n      swap1\n      pop\n        /* \"#utility.yul\":1879:1950   */\n      tag_58\n        /* \"#utility.yul\":1947:1948   */\n      0x00\n        /* \"#utility.yul\":1936:1945   */\n      dup4\n        /* \"#utility.yul\":1932:1949   */\n      add\n        /* \"#utility.yul\":1923:1929   */\n      dup5\n        /* \"#utility.yul\":1879:1950   */\n      tag_33\n      jump\t// in\n    tag_58:\n        /* \"#utility.yul\":1735:1957   */\n      swap3\n      swap2\n      pop\n      pop\n      jump\t// out\n\n    auxdata: 0xa2646970667358221220812df0a124917f86412975b4dd41ef7b380a85804e9a7328ce8a67123dccb9ee64736f6c63430008160033\n}\n",
				"bytecode": {
					"linkReferences": {},
					"object": "608060405234801561000f575f80fd5b506102a78061001d5f395ff3fe608060405234801561000f575f80fd5b506004361061003f575f3560e01c80636d4ce63c1461004357806393730f7014610061578063b80abfc21461007d575b5f80fd5b61004b61009b565b60405161005891906101ce565b60405180910390f35b61007b60048036038101906100769190610215565b6100f1565b005b610085610162565b6040516100929190610258565b60405180910390f35b5f806100c67fa7cb26ea17989bb9c5eb391c94c40892dcdc94bb4c381353450910ba80883e1c610186565b9050805f015f9054906101000a900473ffffffffffffffffffffffffffffffffffffffff1691505090565b5f61011b7fa7cb26ea17989bb9c5eb391c94c40892dcdc94bb4c381353450910ba80883e1c610186565b905081815f015f6101000a81548173ffffffffffffffffffffffffffffffffffffffff021916908373ffffffffffffffffffffffffffffffffffffffff1602179055505050565b7fa7cb26ea17989bb9c5eb391c94c40892dcdc94bb4c381353450910ba80883e1c81565b5f819050919050565b5f73ffffffffffffffffffffffffffffffffffffffff82169050919050565b5f6101b88261018f565b9050919050565b6101c8816101ae565b82525050565b5f6020820190506101e15f8301846101bf565b92915050565b5f80fd5b6101f4816101ae565b81146101fe575f80fd5b50565b5f8135905061020f816101eb565b92915050565b5f6020828403121561022a576102296101e7565b5b5f61023784828501610201565b91505092915050565b5f819050919050565b61025281610240565b82525050565b5f60208201905061026b5f830184610249565b9291505056fea2646970667358221220812df0a124917f86412975b4dd41ef7b380a85804e9a7328ce8a67123dccb9ee64736f6c63430008160033",
					"opcodes": "PUSH1 0x80 PUSH1 0x40 MSTORE CALLVALUE DUP1 ISZERO PUSH2 0xF JUMPI PUSH0 DUP1 REVERT JUMPDEST POP PUSH2 0x2A7 DUP1 PUSH2 0x1D PUSH0 CODECOPY PUSH0 RETURN INVALID PUSH1 0x80 PUSH1 0x40 MSTORE CALLVALUE DUP1 ISZERO PUSH2 0xF JUMPI PUSH0 DUP1 REVERT JUMPDEST POP PUSH1 0x4 CALLDATASIZE LT PUSH2 0x3F JUMPI PUSH0 CALLDATALOAD PUSH1 0xE0 SHR DUP1 PUSH4 0x6D4CE63C EQ PUSH2 0x43 JUMPI DUP1 PUSH4 0x93730F70 EQ PUSH2 0x61 JUMPI DUP1 PUSH4 0xB80ABFC2 EQ PUSH2 0x7D JUMPI JUMPDEST PUSH0 DUP1 REVERT JUMPDEST PUSH2 0x4B PUSH2 0x9B JUMP JUMPDEST PUSH1 0x40 MLOAD PUSH2 0x58 SWAP2 SWAP1 PUSH2 0x1CE JUMP JUMPDEST PUSH1 0x40 MLOAD DUP1 SWAP2 SUB SWAP1 RETURN JUMPDEST PUSH2 0x7B PUSH1 0x4 DUP1 CALLDATASIZE SUB DUP2 ADD SWAP1 PUSH2 0x76 SWAP2 SWAP1 PUSH2 0x215 JUMP JUMPDEST PUSH2 0xF1 JUMP JUMPDEST STOP JUMPDEST PUSH2 0x85 PUSH2 0x162 JUMP JUMPDEST PUSH1 0x40 MLOAD PUSH2 0x92 SWAP2 SWAP1 PUSH2 0x258 JUMP JUMPDEST PUSH1 0x40 MLOAD DUP1 SWAP2 SUB SWAP1 RETURN JUMPDEST PUSH0 DUP1 PUSH2 0xC6 PUSH32 0xA7CB26EA17989BB9C5EB391C94C40892DCDC94BB4C381353450910BA80883E1C PUSH2 0x186 JUMP JUMPDEST SWAP1 POP DUP1 PUSH0 ADD PUSH0 SWAP1 SLOAD SWAP1 PUSH2 0x100 EXP SWAP1 DIV PUSH20 0xFFFFFFFFFFFFFFFFFFFFFFFFFFFFFFFFFFFFFFFF AND SWAP2 POP POP SWAP1 JUMP JUMPDEST PUSH0 PUSH2 0x11B PUSH32 0xA7CB26EA17989BB9C5EB391C94C40892DCDC94BB4C381353450910BA80883E1C PUSH2 0x186 JUMP JUMPDEST SWAP1 POP DUP2 DUP2 PUSH0 ADD PUSH0 PUSH2 0x100 EXP DUP2 SLOAD DUP2 PUSH20 0xFFFFFFFFFFFFFFFFFFFFFFFFFFFFFFFFFFFFFFFF MUL NOT AND SWAP1 DUP4 PUSH20 0xFFFFFFFFFFFFFFFFFFFFFFFFFFFFFFFFFFFFFFFF AND MUL OR SWAP1 SSTORE POP POP POP JUMP JUMPDEST PUSH32 0xA7CB26EA17989BB9C5EB391C94C40892DCDC94BB4C381353450910BA80883E1C DUP2 JUMP JUMPDEST PUSH0 DUP2 SWAP1 POP SWAP2 SWAP1 POP JUMP JUMPDEST PUSH0 PUSH20 0xFFFFFFFFFFFFFFFFFFFFFFFFFFFFFFFFFFFFFFFF DUP3 AND SWAP1 POP SWAP2 SWAP1 POP JUMP JUMPDEST PUSH0 PUSH2 0x1B8 DUP3 PUSH2 0x18F JUMP JUMPDEST SWAP1 POP SWAP2 SWAP1 POP JUMP JUMPDEST PUSH2 0x1C8 DUP2 PUSH2 0x1AE JUMP JUMPDEST DUP3 MSTORE POP POP JUMP JUMPDEST PUSH0 PUSH1 0x20 DUP3 ADD SWAP1 POP PUSH2 0x1E1 PUSH0 DUP4 ADD DUP5 PUSH2 0x1BF JUMP JUMPDEST SWAP3 SWAP2 POP POP JUMP JUMPDEST PUSH0 DUP1 REVERT JUMPDEST PUSH2 0x1F4 DUP2 PUSH2 0x1AE JUMP JUMPDEST DUP2 EQ PUSH2 0x1FE JUMPI PUSH0 DUP1 REVERT JUMPDEST POP JUMP JUMPDEST PUSH0 DUP2 CALLDATALOAD SWAP1 POP PUSH2 0x20F DUP2 PUSH2 0x1EB JUMP JUMPDEST SWAP3 SWAP2 POP POP JUMP JUMPDEST PUSH0 PUSH1 0x20 DUP3 DUP5 SUB SLT ISZERO PUSH2 0x22A JUMPI PUSH2 0x229 PUSH2 0x1E7 JUMP JUMPDEST JUMPDEST PUSH0 PUSH2 0x237 DUP5 DUP3 DUP6 ADD PUSH2 0x201 JUMP JUMPDEST SWAP2 POP POP SWAP3 SWAP2 POP POP JUMP JUMPDEST PUSH0 DUP2 SWAP1 POP SWAP2 SWAP1 POP JUMP JUMPDEST PUSH2 0x252 DUP2 PUSH2 0x240 JUMP JUMPDEST DUP3 MSTORE POP POP JUMP JUMPDEST PUSH0 PUSH1 0x20 DUP3 ADD SWAP1 POP PUSH2 0x26B PUSH0 DUP4 ADD DUP5 PUSH2 0x249 JUMP JUMPDEST SWAP3 SWAP2 POP POP JUMP INVALID LOG2 PUSH5 0x6970667358 0x22 SLT KECCAK256 DUP2 0x2D CREATE LOG1 0x24 SWAP2 PUSH32 0x86412975B4DD41EF7B380A85804E9A7328CE8A67123DCCB9EE64736F6C634300 ADDMOD AND STOP CALLER "
				},
				"gasEstimates": {
					"creation": {
						"codeDepositCost": "135800",
						"executionCost": "181",
						"totalCost": "135981"
					},
					"external": {
						"TEST_SLOT()": "347",
						"get()": "2553",
						"write(address)": "24774"
					}
				},
				"methodIdentifiers": {
					"TEST_SLOT()": "b80abfc2",
					"get()": "6d4ce63c",
					"write(address)": "93730f70"
				}
			},
			"storageLayout": {
				"storage": [],
				"types": null
			},
			"userdoc": {
				"kind": "user",
				"methods": {},
				"version": 1
			}
		}
	}
}