{
	"Modules/Solidity/62. Most Significant Bit .sol": {
		"MostSignificantBit": {
			"abi": [
				{
					"inputs": [
						{
							"internalType": "uint256",
							"name": "x",
							"type": "uint256"
						}
					],
					"name": "findMostSignificantBit",
					"outputs": [
						{
							"internalType": "uint8",
							"name": "r",
							"type": "uint8"
						}
					],
					"stateMutability": "pure",
					"type": "function"
				}
			],
			"devdoc": {
				"kind": "dev",
				"methods": {},
				"version": 1
			},
			"evm": {
				"assembly": "    /* \"Modules/Solidity/62. Most Significant Bit .sol\":211:991  contract MostSignificantBit {... */\n  mstore(0x40, 0x80)\n  callvalue\n  dup1\n  iszero\n  tag_1\n  jumpi\n  0x00\n  dup1\n  revert\ntag_1:\n  pop\n  dataSize(sub_0)\n  dup1\n  dataOffset(sub_0)\n  0x00\n  codecopy\n  0x00\n  return\nstop\n\nsub_0: assembly {\n        /* \"Modules/Solidity/62. Most Significant Bit .sol\":211:991  contract MostSignificantBit {... */\n      mstore(0x40, 0x80)\n      callvalue\n      dup1\n      iszero\n      tag_1\n      jumpi\n      0x00\n      dup1\n      revert\n    tag_1:\n      pop\n      jumpi(tag_2, lt(calldatasize, 0x04))\n      shr(0xe0, calldataload(0x00))\n      dup1\n      0x483d868d\n      eq\n      tag_3\n      jumpi\n    tag_2:\n      0x00\n      dup1\n      revert\n        /* \"Modules/Solidity/62. Most Significant Bit .sol\":241:988  function findMostSignificantBit(uint256 x) external pure returns (uint8 r) {... */\n    tag_3:\n      tag_4\n      0x04\n      dup1\n      calldatasize\n      sub\n      dup2\n      add\n      swap1\n      tag_5\n      swap2\n      swap1\n      tag_6\n      jump\t// in\n    tag_5:\n      tag_7\n      jump\t// in\n    tag_4:\n      mload(0x40)\n      tag_8\n      swap2\n      swap1\n      tag_9\n      jump\t// in\n    tag_8:\n      mload(0x40)\n      dup1\n      swap2\n      sub\n      swap1\n      return\n    tag_7:\n        /* \"Modules/Solidity/62. Most Significant Bit .sol\":307:314  uint8 r */\n      0x00\n        /* \"Modules/Solidity/62. Most Significant Bit .sol\":352:387  0x100000000000000000000000000000000 */\n      0x0100000000000000000000000000000000\n        /* \"Modules/Solidity/62. Most Significant Bit .sol\":347:348  x */\n      dup3\n        /* \"Modules/Solidity/62. Most Significant Bit .sol\":347:387  x >= 0x100000000000000000000000000000000 */\n      lt\n        /* \"Modules/Solidity/62. Most Significant Bit .sol\":343:433  if (x >= 0x100000000000000000000000000000000) {... */\n      tag_11\n      jumpi\n        /* \"Modules/Solidity/62. Most Significant Bit .sol\":405:408  128 */\n      0x80\n        /* \"Modules/Solidity/62. Most Significant Bit .sol\":399:408  x >>= 128 */\n      dup3\n      swap1\n      shr\n      swap2\n      pop\n        /* \"Modules/Solidity/62. Most Significant Bit .sol\":423:426  128 */\n      0x80\n        /* \"Modules/Solidity/62. Most Significant Bit .sol\":418:426  r += 128 */\n      dup2\n      tag_12\n      swap2\n      swap1\n      tag_13\n      jump\t// in\n    tag_12:\n      swap1\n      pop\n        /* \"Modules/Solidity/62. Most Significant Bit .sol\":343:433  if (x >= 0x100000000000000000000000000000000) {... */\n    tag_11:\n        /* \"Modules/Solidity/62. Most Significant Bit .sol\":467:486  0x10000000000000000 */\n      0x010000000000000000\n        /* \"Modules/Solidity/62. Most Significant Bit .sol\":462:463  x */\n      dup3\n        /* \"Modules/Solidity/62. Most Significant Bit .sol\":462:486  x >= 0x10000000000000000 */\n      lt\n        /* \"Modules/Solidity/62. Most Significant Bit .sol\":458:530  if (x >= 0x10000000000000000) {... */\n      tag_14\n      jumpi\n        /* \"Modules/Solidity/62. Most Significant Bit .sol\":504:506  64 */\n      0x40\n        /* \"Modules/Solidity/62. Most Significant Bit .sol\":498:506  x >>= 64 */\n      dup3\n      swap1\n      shr\n      swap2\n      pop\n        /* \"Modules/Solidity/62. Most Significant Bit .sol\":521:523  64 */\n      0x40\n        /* \"Modules/Solidity/62. Most Significant Bit .sol\":516:523  r += 64 */\n      dup2\n      tag_15\n      swap2\n      swap1\n      tag_13\n      jump\t// in\n    tag_15:\n      swap1\n      pop\n        /* \"Modules/Solidity/62. Most Significant Bit .sol\":458:530  if (x >= 0x10000000000000000) {... */\n    tag_14:\n        /* \"Modules/Solidity/62. Most Significant Bit .sol\":564:575  0x100000000 */\n      0x0100000000\n        /* \"Modules/Solidity/62. Most Significant Bit .sol\":559:560  x */\n      dup3\n        /* \"Modules/Solidity/62. Most Significant Bit .sol\":559:575  x >= 0x100000000 */\n      lt\n        /* \"Modules/Solidity/62. Most Significant Bit .sol\":555:619  if (x >= 0x100000000) {... */\n      tag_16\n      jumpi\n        /* \"Modules/Solidity/62. Most Significant Bit .sol\":593:595  32 */\n      0x20\n        /* \"Modules/Solidity/62. Most Significant Bit .sol\":587:595  x >>= 32 */\n      dup3\n      swap1\n      shr\n      swap2\n      pop\n        /* \"Modules/Solidity/62. Most Significant Bit .sol\":610:612  32 */\n      0x20\n        /* \"Modules/Solidity/62. Most Significant Bit .sol\":605:612  r += 32 */\n      dup2\n      tag_17\n      swap2\n      swap1\n      tag_13\n      jump\t// in\n    tag_17:\n      swap1\n      pop\n        /* \"Modules/Solidity/62. Most Significant Bit .sol\":555:619  if (x >= 0x100000000) {... */\n    tag_16:\n        /* \"Modules/Solidity/62. Most Significant Bit .sol\":653:660  0x10000 */\n      0x010000\n        /* \"Modules/Solidity/62. Most Significant Bit .sol\":648:649  x */\n      dup3\n        /* \"Modules/Solidity/62. Most Significant Bit .sol\":648:660  x >= 0x10000 */\n      lt\n        /* \"Modules/Solidity/62. Most Significant Bit .sol\":644:704  if (x >= 0x10000) {... */\n      tag_18\n      jumpi\n        /* \"Modules/Solidity/62. Most Significant Bit .sol\":678:680  16 */\n      0x10\n        /* \"Modules/Solidity/62. Most Significant Bit .sol\":672:680  x >>= 16 */\n      dup3\n      swap1\n      shr\n      swap2\n      pop\n        /* \"Modules/Solidity/62. Most Significant Bit .sol\":695:697  16 */\n      0x10\n        /* \"Modules/Solidity/62. Most Significant Bit .sol\":690:697  r += 16 */\n      dup2\n      tag_19\n      swap2\n      swap1\n      tag_13\n      jump\t// in\n    tag_19:\n      swap1\n      pop\n        /* \"Modules/Solidity/62. Most Significant Bit .sol\":644:704  if (x >= 0x10000) {... */\n    tag_18:\n        /* \"Modules/Solidity/62. Most Significant Bit .sol\":737:742  0x100 */\n      0x0100\n        /* \"Modules/Solidity/62. Most Significant Bit .sol\":732:733  x */\n      dup3\n        /* \"Modules/Solidity/62. Most Significant Bit .sol\":732:742  x >= 0x100 */\n      lt\n        /* \"Modules/Solidity/62. Most Significant Bit .sol\":728:784  if (x >= 0x100) {... */\n      tag_20\n      jumpi\n        /* \"Modules/Solidity/62. Most Significant Bit .sol\":760:761  8 */\n      0x08\n        /* \"Modules/Solidity/62. Most Significant Bit .sol\":754:761  x >>= 8 */\n      dup3\n      swap1\n      shr\n      swap2\n      pop\n        /* \"Modules/Solidity/62. Most Significant Bit .sol\":776:777  8 */\n      0x08\n        /* \"Modules/Solidity/62. Most Significant Bit .sol\":771:777  r += 8 */\n      dup2\n      tag_21\n      swap2\n      swap1\n      tag_13\n      jump\t// in\n    tag_21:\n      swap1\n      pop\n        /* \"Modules/Solidity/62. Most Significant Bit .sol\":728:784  if (x >= 0x100) {... */\n    tag_20:\n        /* \"Modules/Solidity/62. Most Significant Bit .sol\":817:821  0x10 */\n      0x10\n        /* \"Modules/Solidity/62. Most Significant Bit .sol\":812:813  x */\n      dup3\n        /* \"Modules/Solidity/62. Most Significant Bit .sol\":812:821  x >= 0x10 */\n      lt\n        /* \"Modules/Solidity/62. Most Significant Bit .sol\":808:863  if (x >= 0x10) {... */\n      tag_22\n      jumpi\n        /* \"Modules/Solidity/62. Most Significant Bit .sol\":839:840  4 */\n      0x04\n        /* \"Modules/Solidity/62. Most Significant Bit .sol\":833:840  x >>= 4 */\n      dup3\n      swap1\n      shr\n      swap2\n      pop\n        /* \"Modules/Solidity/62. Most Significant Bit .sol\":855:856  4 */\n      0x04\n        /* \"Modules/Solidity/62. Most Significant Bit .sol\":850:856  r += 4 */\n      dup2\n      tag_23\n      swap2\n      swap1\n      tag_13\n      jump\t// in\n    tag_23:\n      swap1\n      pop\n        /* \"Modules/Solidity/62. Most Significant Bit .sol\":808:863  if (x >= 0x10) {... */\n    tag_22:\n        /* \"Modules/Solidity/62. Most Significant Bit .sol\":896:899  0x4 */\n      0x04\n        /* \"Modules/Solidity/62. Most Significant Bit .sol\":891:892  x */\n      dup3\n        /* \"Modules/Solidity/62. Most Significant Bit .sol\":891:899  x >= 0x4 */\n      lt\n        /* \"Modules/Solidity/62. Most Significant Bit .sol\":887:941  if (x >= 0x4) {... */\n      tag_24\n      jumpi\n        /* \"Modules/Solidity/62. Most Significant Bit .sol\":917:918  2 */\n      0x02\n        /* \"Modules/Solidity/62. Most Significant Bit .sol\":911:918  x >>= 2 */\n      dup3\n      swap1\n      shr\n      swap2\n      pop\n        /* \"Modules/Solidity/62. Most Significant Bit .sol\":933:934  2 */\n      0x02\n        /* \"Modules/Solidity/62. Most Significant Bit .sol\":928:934  r += 2 */\n      dup2\n      tag_25\n      swap2\n      swap1\n      tag_13\n      jump\t// in\n    tag_25:\n      swap1\n      pop\n        /* \"Modules/Solidity/62. Most Significant Bit .sol\":887:941  if (x >= 0x4) {... */\n    tag_24:\n        /* \"Modules/Solidity/62. Most Significant Bit .sol\":974:977  0x2 */\n      0x02\n        /* \"Modules/Solidity/62. Most Significant Bit .sol\":969:970  x */\n      dup3\n        /* \"Modules/Solidity/62. Most Significant Bit .sol\":969:977  x >= 0x2 */\n      lt\n        /* \"Modules/Solidity/62. Most Significant Bit .sol\":965:985  if (x >= 0x2) r += 1 */\n      tag_26\n      jumpi\n        /* \"Modules/Solidity/62. Most Significant Bit .sol\":984:985  1 */\n      0x01\n        /* \"Modules/Solidity/62. Most Significant Bit .sol\":979:985  r += 1 */\n      dup2\n      tag_27\n      swap2\n      swap1\n      tag_13\n      jump\t// in\n    tag_27:\n      swap1\n      pop\n        /* \"Modules/Solidity/62. Most Significant Bit .sol\":965:985  if (x >= 0x2) r += 1 */\n    tag_26:\n        /* \"Modules/Solidity/62. Most Significant Bit .sol\":241:988  function findMostSignificantBit(uint256 x) external pure returns (uint8 r) {... */\n      swap2\n      swap1\n      pop\n      jump\t// out\n        /* \"#utility.yul\":88:205   */\n    tag_29:\n        /* \"#utility.yul\":197:198   */\n      0x00\n        /* \"#utility.yul\":194:195   */\n      dup1\n        /* \"#utility.yul\":187:199   */\n      revert\n        /* \"#utility.yul\":334:411   */\n    tag_31:\n        /* \"#utility.yul\":371:378   */\n      0x00\n        /* \"#utility.yul\":400:405   */\n      dup2\n        /* \"#utility.yul\":389:405   */\n      swap1\n      pop\n        /* \"#utility.yul\":334:411   */\n      swap2\n      swap1\n      pop\n      jump\t// out\n        /* \"#utility.yul\":417:539   */\n    tag_32:\n        /* \"#utility.yul\":490:514   */\n      tag_43\n        /* \"#utility.yul\":508:513   */\n      dup2\n        /* \"#utility.yul\":490:514   */\n      tag_31\n      jump\t// in\n    tag_43:\n        /* \"#utility.yul\":483:488   */\n      dup2\n        /* \"#utility.yul\":480:515   */\n      eq\n        /* \"#utility.yul\":470:533   */\n      tag_44\n      jumpi\n        /* \"#utility.yul\":529:530   */\n      0x00\n        /* \"#utility.yul\":526:527   */\n      dup1\n        /* \"#utility.yul\":519:531   */\n      revert\n        /* \"#utility.yul\":470:533   */\n    tag_44:\n        /* \"#utility.yul\":417:539   */\n      pop\n      jump\t// out\n        /* \"#utility.yul\":545:684   */\n    tag_33:\n        /* \"#utility.yul\":591:596   */\n      0x00\n        /* \"#utility.yul\":629:635   */\n      dup2\n        /* \"#utility.yul\":616:636   */\n      calldataload\n        /* \"#utility.yul\":607:636   */\n      swap1\n      pop\n        /* \"#utility.yul\":645:678   */\n      tag_46\n        /* \"#utility.yul\":672:677   */\n      dup2\n        /* \"#utility.yul\":645:678   */\n      tag_32\n      jump\t// in\n    tag_46:\n        /* \"#utility.yul\":545:684   */\n      swap3\n      swap2\n      pop\n      pop\n      jump\t// out\n        /* \"#utility.yul\":690:1019   */\n    tag_6:\n        /* \"#utility.yul\":749:755   */\n      0x00\n        /* \"#utility.yul\":798:800   */\n      0x20\n        /* \"#utility.yul\":786:795   */\n      dup3\n        /* \"#utility.yul\":777:784   */\n      dup5\n        /* \"#utility.yul\":773:796   */\n      sub\n        /* \"#utility.yul\":769:801   */\n      slt\n        /* \"#utility.yul\":766:885   */\n      iszero\n      tag_48\n      jumpi\n        /* \"#utility.yul\":804:883   */\n      tag_49\n      tag_29\n      jump\t// in\n    tag_49:\n        /* \"#utility.yul\":766:885   */\n    tag_48:\n        /* \"#utility.yul\":924:925   */\n      0x00\n        /* \"#utility.yul\":949:1002   */\n      tag_50\n        /* \"#utility.yul\":994:1001   */\n      dup5\n        /* \"#utility.yul\":985:991   */\n      dup3\n        /* \"#utility.yul\":974:983   */\n      dup6\n        /* \"#utility.yul\":970:992   */\n      add\n        /* \"#utility.yul\":949:1002   */\n      tag_33\n      jump\t// in\n    tag_50:\n        /* \"#utility.yul\":939:1002   */\n      swap2\n      pop\n        /* \"#utility.yul\":895:1012   */\n      pop\n        /* \"#utility.yul\":690:1019   */\n      swap3\n      swap2\n      pop\n      pop\n      jump\t// out\n        /* \"#utility.yul\":1025:1111   */\n    tag_34:\n        /* \"#utility.yul\":1060:1067   */\n      0x00\n        /* \"#utility.yul\":1100:1104   */\n      0xff\n        /* \"#utility.yul\":1093:1098   */\n      dup3\n        /* \"#utility.yul\":1089:1105   */\n      and\n        /* \"#utility.yul\":1078:1105   */\n      swap1\n      pop\n        /* \"#utility.yul\":1025:1111   */\n      swap2\n      swap1\n      pop\n      jump\t// out\n        /* \"#utility.yul\":1117:1229   */\n    tag_35:\n        /* \"#utility.yul\":1200:1222   */\n      tag_53\n        /* \"#utility.yul\":1216:1221   */\n      dup2\n        /* \"#utility.yul\":1200:1222   */\n      tag_34\n      jump\t// in\n    tag_53:\n        /* \"#utility.yul\":1195:1198   */\n      dup3\n        /* \"#utility.yul\":1188:1223   */\n      mstore\n        /* \"#utility.yul\":1117:1229   */\n      pop\n      pop\n      jump\t// out\n        /* \"#utility.yul\":1235:1449   */\n    tag_9:\n        /* \"#utility.yul\":1324:1328   */\n      0x00\n        /* \"#utility.yul\":1362:1364   */\n      0x20\n        /* \"#utility.yul\":1351:1360   */\n      dup3\n        /* \"#utility.yul\":1347:1365   */\n      add\n        /* \"#utility.yul\":1339:1365   */\n      swap1\n      pop\n        /* \"#utility.yul\":1375:1442   */\n      tag_55\n        /* \"#utility.yul\":1439:1440   */\n      0x00\n        /* \"#utility.yul\":1428:1437   */\n      dup4\n        /* \"#utility.yul\":1424:1441   */\n      add\n        /* \"#utility.yul\":1415:1421   */\n      dup5\n        /* \"#utility.yul\":1375:1442   */\n      tag_35\n      jump\t// in\n    tag_55:\n        /* \"#utility.yul\":1235:1449   */\n      swap3\n      swap2\n      pop\n      pop\n      jump\t// out\n        /* \"#utility.yul\":1455:1635   */\n    tag_36:\n        /* \"#utility.yul\":1503:1580   */\n      0x4e487b7100000000000000000000000000000000000000000000000000000000\n        /* \"#utility.yul\":1500:1501   */\n      0x00\n        /* \"#utility.yul\":1493:1581   */\n      mstore\n        /* \"#utility.yul\":1600:1604   */\n      0x11\n        /* \"#utility.yul\":1597:1598   */\n      0x04\n        /* \"#utility.yul\":1590:1605   */\n      mstore\n        /* \"#utility.yul\":1624:1628   */\n      0x24\n        /* \"#utility.yul\":1621:1622   */\n      0x00\n        /* \"#utility.yul\":1614:1629   */\n      revert\n        /* \"#utility.yul\":1641:1829   */\n    tag_13:\n        /* \"#utility.yul\":1679:1682   */\n      0x00\n        /* \"#utility.yul\":1698:1716   */\n      tag_58\n        /* \"#utility.yul\":1714:1715   */\n      dup3\n        /* \"#utility.yul\":1698:1716   */\n      tag_34\n      jump\t// in\n    tag_58:\n        /* \"#utility.yul\":1693:1716   */\n      swap2\n      pop\n        /* \"#utility.yul\":1730:1748   */\n      tag_59\n        /* \"#utility.yul\":1746:1747   */\n      dup4\n        /* \"#utility.yul\":1730:1748   */\n      tag_34\n      jump\t// in\n    tag_59:\n        /* \"#utility.yul\":1725:1748   */\n      swap3\n      pop\n        /* \"#utility.yul\":1771:1772   */\n      dup3\n        /* \"#utility.yul\":1768:1769   */\n      dup3\n        /* \"#utility.yul\":1764:1773   */\n      add\n        /* \"#utility.yul\":1757:1773   */\n      swap1\n      pop\n        /* \"#utility.yul\":1794:1798   */\n      0xff\n        /* \"#utility.yul\":1789:1792   */\n      dup2\n        /* \"#utility.yul\":1786:1799   */\n      gt\n        /* \"#utility.yul\":1783:1822   */\n      iszero\n      tag_60\n      jumpi\n        /* \"#utility.yul\":1802:1820   */\n      tag_61\n      tag_36\n      jump\t// in\n    tag_61:\n        /* \"#utility.yul\":1783:1822   */\n    tag_60:\n        /* \"#utility.yul\":1641:1829   */\n      swap3\n      swap2\n      pop\n      pop\n      jump\t// out\n\n    auxdata: 0xa26469706673582212204568a335c1663d9050d858fc4e7d312b68afcb37bb22199329bd6fee8a61a51b64736f6c63430008160033\n}\n",
				"bytecode": {
					"linkReferences": {},
					"object": "608060405234801561000f575f80fd5b506102a08061001d5f395ff3fe608060405234801561000f575f80fd5b5060043610610029575f3560e01c8063483d868d1461002d575b5f80fd5b610047600480360381019061004291906101aa565b61005d565b60405161005491906101f0565b60405180910390f35b5f700100000000000000000000000000000000821061008d57608082901c915060808161008a9190610236565b90505b6801000000000000000082106100b457604082901c91506040816100b19190610236565b90505b64010000000082106100d757602082901c91506020816100d49190610236565b90505b6201000082106100f857601082901c91506010816100f59190610236565b90505b610100821061011857600882901c91506008816101159190610236565b90505b6010821061013757600482901c91506004816101349190610236565b90505b6004821061015657600282901c91506002816101539190610236565b90505b6002821061016e5760018161016b9190610236565b90505b919050565b5f80fd5b5f819050919050565b61018981610177565b8114610193575f80fd5b50565b5f813590506101a481610180565b92915050565b5f602082840312156101bf576101be610173565b5b5f6101cc84828501610196565b91505092915050565b5f60ff82169050919050565b6101ea816101d5565b82525050565b5f6020820190506102035f8301846101e1565b92915050565b7f4e487b71000000000000000000000000000000000000000000000000000000005f52601160045260245ffd5b5f610240826101d5565b915061024b836101d5565b9250828201905060ff81111561026457610263610209565b5b9291505056fea26469706673582212204568a335c1663d9050d858fc4e7d312b68afcb37bb22199329bd6fee8a61a51b64736f6c63430008160033",
					"opcodes": "PUSH1 0x80 PUSH1 0x40 MSTORE CALLVALUE DUP1 ISZERO PUSH2 0xF JUMPI PUSH0 DUP1 REVERT JUMPDEST POP PUSH2 0x2A0 DUP1 PUSH2 0x1D PUSH0 CODECOPY PUSH0 RETURN INVALID PUSH1 0x80 PUSH1 0x40 MSTORE CALLVALUE DUP1 ISZERO PUSH2 0xF JUMPI PUSH0 DUP1 REVERT JUMPDEST POP PUSH1 0x4 CALLDATASIZE LT PUSH2 0x29 JUMPI PUSH0 CALLDATALOAD PUSH1 0xE0 SHR DUP1 PUSH4 0x483D868D EQ PUSH2 0x2D JUMPI JUMPDEST PUSH0 DUP1 REVERT JUMPDEST PUSH2 0x47 PUSH1 0x4 DUP1 CALLDATASIZE SUB DUP2 ADD SWAP1 PUSH2 0x42 SWAP2 SWAP1 PUSH2 0x1AA JUMP JUMPDEST PUSH2 0x5D JUMP JUMPDEST PUSH1 0x40 MLOAD PUSH2 0x54 SWAP2 SWAP1 PUSH2 0x1F0 JUMP JUMPDEST PUSH1 0x40 MLOAD DUP1 SWAP2 SUB SWAP1 RETURN JUMPDEST PUSH0 PUSH17 0x100000000000000000000000000000000 DUP3 LT PUSH2 0x8D JUMPI PUSH1 0x80 DUP3 SWAP1 SHR SWAP2 POP PUSH1 0x80 DUP2 PUSH2 0x8A SWAP2 SWAP1 PUSH2 0x236 JUMP JUMPDEST SWAP1 POP JUMPDEST PUSH9 0x10000000000000000 DUP3 LT PUSH2 0xB4 JUMPI PUSH1 0x40 DUP3 SWAP1 SHR SWAP2 POP PUSH1 0x40 DUP2 PUSH2 0xB1 SWAP2 SWAP1 PUSH2 0x236 JUMP JUMPDEST SWAP1 POP JUMPDEST PUSH5 0x100000000 DUP3 LT PUSH2 0xD7 JUMPI PUSH1 0x20 DUP3 SWAP1 SHR SWAP2 POP PUSH1 0x20 DUP2 PUSH2 0xD4 SWAP2 SWAP1 PUSH2 0x236 JUMP JUMPDEST SWAP1 POP JUMPDEST PUSH3 0x10000 DUP3 LT PUSH2 0xF8 JUMPI PUSH1 0x10 DUP3 SWAP1 SHR SWAP2 POP PUSH1 0x10 DUP2 PUSH2 0xF5 SWAP2 SWAP1 PUSH2 0x236 JUMP JUMPDEST SWAP1 POP JUMPDEST PUSH2 0x100 DUP3 LT PUSH2 0x118 JUMPI PUSH1 0x8 DUP3 SWAP1 SHR SWAP2 POP PUSH1 0x8 DUP2 PUSH2 0x115 SWAP2 SWAP1 PUSH2 0x236 JUMP JUMPDEST SWAP1 POP JUMPDEST PUSH1 0x10 DUP3 LT PUSH2 0x137 JUMPI PUSH1 0x4 DUP3 SWAP1 SHR SWAP2 POP PUSH1 0x4 DUP2 PUSH2 0x134 SWAP2 SWAP1 PUSH2 0x236 JUMP JUMPDEST SWAP1 POP JUMPDEST PUSH1 0x4 DUP3 LT PUSH2 0x156 JUMPI PUSH1 0x2 DUP3 SWAP1 SHR SWAP2 POP PUSH1 0x2 DUP2 PUSH2 0x153 SWAP2 SWAP1 PUSH2 0x236 JUMP JUMPDEST SWAP1 POP JUMPDEST PUSH1 0x2 DUP3 LT PUSH2 0x16E JUMPI PUSH1 0x1 DUP2 PUSH2 0x16B SWAP2 SWAP1 PUSH2 0x236 JUMP JUMPDEST SWAP1 POP JUMPDEST SWAP2 SWAP1 POP JUMP JUMPDEST PUSH0 DUP1 REVERT JUMPDEST PUSH0 DUP2 SWAP1 POP SWAP2 SWAP1 POP JUMP JUMPDEST PUSH2 0x189 DUP2 PUSH2 0x177 JUMP JUMPDEST DUP2 EQ PUSH2 0x193 JUMPI PUSH0 DUP1 REVERT JUMPDEST POP JUMP JUMPDEST PUSH0 DUP2 CALLDATALOAD SWAP1 POP PUSH2 0x1A4 DUP2 PUSH2 0x180 JUMP JUMPDEST SWAP3 SWAP2 POP POP JUMP JUMPDEST PUSH0 PUSH1 0x20 DUP3 DUP5 SUB SLT ISZERO PUSH2 0x1BF JUMPI PUSH2 0x1BE PUSH2 0x173 JUMP JUMPDEST JUMPDEST PUSH0 PUSH2 0x1CC DUP5 DUP3 DUP6 ADD PUSH2 0x196 JUMP JUMPDEST SWAP2 POP POP SWAP3 SWAP2 POP POP JUMP JUMPDEST PUSH0 PUSH1 0xFF DUP3 AND SWAP1 POP SWAP2 SWAP1 POP JUMP JUMPDEST PUSH2 0x1EA DUP2 PUSH2 0x1D5 JUMP JUMPDEST DUP3 MSTORE POP POP JUMP JUMPDEST PUSH0 PUSH1 0x20 DUP3 ADD SWAP1 POP PUSH2 0x203 PUSH0 DUP4 ADD DUP5 PUSH2 0x1E1 JUMP JUMPDEST SWAP3 SWAP2 POP POP JUMP JUMPDEST PUSH32 0x4E487B7100000000000000000000000000000000000000000000000000000000 PUSH0 MSTORE PUSH1 0x11 PUSH1 0x4 MSTORE PUSH1 0x24 PUSH0 REVERT JUMPDEST PUSH0 PUSH2 0x240 DUP3 PUSH2 0x1D5 JUMP JUMPDEST SWAP2 POP PUSH2 0x24B DUP4 PUSH2 0x1D5 JUMP JUMPDEST SWAP3 POP DUP3 DUP3 ADD SWAP1 POP PUSH1 0xFF DUP2 GT ISZERO PUSH2 0x264 JUMPI PUSH2 0x263 PUSH2 0x209 JUMP JUMPDEST JUMPDEST SWAP3 SWAP2 POP POP JUMP INVALID LOG2 PUSH5 0x6970667358 0x22 SLT KECCAK256 GASLIMIT PUSH9 0xA335C1663D9050D858 0xFC 0x4E PUSH30 0x312B68AFCB37BB22199329BD6FEE8A61A51B64736F6C6343000816003300 "
				},
				"gasEstimates": {
					"creation": {
						"codeDepositCost": "134400",
						"executionCost": "175",
						"totalCost": "134575"
					},
					"external": {
						"findMostSignificantBit(uint256)": "infinite"
					}
				},
				"methodIdentifiers": {
					"findMostSignificantBit(uint256)": "483d868d"
				}
			},
			"storageLayout": {
				"storage": [],
				"types": null
			},
			"userdoc": {
				"kind": "user",
				"methods": {},
				"version": 1
			}
		}
	}
}