{
	"Modules/Solidity/72. Assembly If.sol": {
		"AssemblyIf": {
			"abi": [
				{
					"inputs": [
						{
							"internalType": "uint256",
							"name": "x",
							"type": "uint256"
						},
						{
							"internalType": "uint256",
							"name": "y",
							"type": "uint256"
						}
					],
					"name": "max",
					"outputs": [
						{
							"internalType": "uint256",
							"name": "z",
							"type": "uint256"
						}
					],
					"stateMutability": "pure",
					"type": "function"
				},
				{
					"inputs": [
						{
							"internalType": "uint256",
							"name": "x",
							"type": "uint256"
						},
						{
							"internalType": "uint256",
							"name": "y",
							"type": "uint256"
						}
					],
					"name": "min",
					"outputs": [
						{
							"internalType": "uint256",
							"name": "z",
							"type": "uint256"
						}
					],
					"stateMutability": "pure",
					"type": "function"
				},
				{
					"inputs": [
						{
							"internalType": "uint256",
							"name": "x",
							"type": "uint256"
						}
					],
					"name": "yul_if",
					"outputs": [
						{
							"internalType": "uint256",
							"name": "z",
							"type": "uint256"
						}
					],
					"stateMutability": "pure",
					"type": "function"
				},
				{
					"inputs": [
						{
							"internalType": "uint256",
							"name": "x",
							"type": "uint256"
						}
					],
					"name": "yul_switch",
					"outputs": [
						{
							"internalType": "uint256",
							"name": "z",
							"type": "uint256"
						}
					],
					"stateMutability": "pure",
					"type": "function"
				}
			],
			"devdoc": {
				"kind": "dev",
				"methods": {},
				"version": 1
			},
			"evm": {
				"assembly": "    /* \"Modules/Solidity/72. Assembly If.sol\":57:921  contract AssemblyIf {... */\n  mstore(0x40, 0x80)\n  callvalue\n  dup1\n  iszero\n  tag_1\n  jumpi\n  0x00\n  dup1\n  revert\ntag_1:\n  pop\n  dataSize(sub_0)\n  dup1\n  dataOffset(sub_0)\n  0x00\n  codecopy\n  0x00\n  return\nstop\n\nsub_0: assembly {\n        /* \"Modules/Solidity/72. Assembly If.sol\":57:921  contract AssemblyIf {... */\n      mstore(0x40, 0x80)\n      callvalue\n      dup1\n      iszero\n      tag_1\n      jumpi\n      0x00\n      dup1\n      revert\n    tag_1:\n      pop\n      jumpi(tag_2, lt(calldatasize, 0x04))\n      shr(0xe0, calldataload(0x00))\n      dup1\n      0x6d5433e6\n      eq\n      tag_3\n      jumpi\n      dup1\n      0x7ae2b5c7\n      eq\n      tag_4\n      jumpi\n      dup1\n      0xa917238b\n      eq\n      tag_5\n      jumpi\n      dup1\n      0xf42a728d\n      eq\n      tag_6\n      jumpi\n    tag_2:\n      0x00\n      dup1\n      revert\n        /* \"Modules/Solidity/72. Assembly If.sol\":727:919  function max(uint256 x, uint256 y) public pure returns (uint256 z) {... */\n    tag_3:\n      tag_7\n      0x04\n      dup1\n      calldatasize\n      sub\n      dup2\n      add\n      swap1\n      tag_8\n      swap2\n      swap1\n      tag_9\n      jump\t// in\n    tag_8:\n      tag_10\n      jump\t// in\n    tag_7:\n      mload(0x40)\n      tag_11\n      swap2\n      swap1\n      tag_12\n      jump\t// in\n    tag_11:\n      mload(0x40)\n      dup1\n      swap2\n      sub\n      swap1\n      return\n        /* \"Modules/Solidity/72. Assembly If.sol\":568:721  function min(uint256 x, uint256 y) public pure returns (uint256 z) {... */\n    tag_4:\n      tag_13\n      0x04\n      dup1\n      calldatasize\n      sub\n      dup2\n      add\n      swap1\n      tag_14\n      swap2\n      swap1\n      tag_9\n      jump\t// in\n    tag_14:\n      tag_15\n      jump\t// in\n    tag_13:\n      mload(0x40)\n      tag_16\n      swap2\n      swap1\n      tag_12\n      jump\t// in\n    tag_16:\n      mload(0x40)\n      dup1\n      swap2\n      sub\n      swap1\n      return\n        /* \"Modules/Solidity/72. Assembly If.sol\":349:562  function yul_switch(uint256 x) public pure returns (uint256 z) {... */\n    tag_5:\n      tag_17\n      0x04\n      dup1\n      calldatasize\n      sub\n      dup2\n      add\n      swap1\n      tag_18\n      swap2\n      swap1\n      tag_19\n      jump\t// in\n    tag_18:\n      tag_20\n      jump\t// in\n    tag_17:\n      mload(0x40)\n      tag_21\n      swap2\n      swap1\n      tag_12\n      jump\t// in\n    tag_21:\n      mload(0x40)\n      dup1\n      swap2\n      sub\n      swap1\n      return\n        /* \"Modules/Solidity/72. Assembly If.sol\":83:343  function yul_if(uint256 x) public pure returns (uint256 z) {... */\n    tag_6:\n      tag_22\n      0x04\n      dup1\n      calldatasize\n      sub\n      dup2\n      add\n      swap1\n      tag_23\n      swap2\n      swap1\n      tag_19\n      jump\t// in\n    tag_23:\n      tag_24\n      jump\t// in\n    tag_22:\n      mload(0x40)\n      tag_25\n      swap2\n      swap1\n      tag_12\n      jump\t// in\n    tag_25:\n      mload(0x40)\n      dup1\n      swap2\n      sub\n      swap1\n      return\n        /* \"Modules/Solidity/72. Assembly If.sol\":727:919  function max(uint256 x, uint256 y) public pure returns (uint256 z) {... */\n    tag_10:\n        /* \"Modules/Solidity/72. Assembly If.sol\":783:792  uint256 z */\n      0x00\n        /* \"Modules/Solidity/72. Assembly If.sol\":840:841  y */\n      dup2\n        /* \"Modules/Solidity/72. Assembly If.sol\":837:838  x */\n      dup4\n        /* \"Modules/Solidity/72. Assembly If.sol\":834:842  gt(x, y) */\n      gt\n        /* \"Modules/Solidity/72. Assembly If.sol\":860:861  1 */\n      0x01\n        /* \"Modules/Solidity/72. Assembly If.sol\":855:872  case 1 { z := x } */\n      dup2\n      eq\n      tag_28\n      jumpi\n        /* \"Modules/Solidity/72. Assembly If.sol\":900:901  y */\n      dup3\n        /* \"Modules/Solidity/72. Assembly If.sol\":895:901  z := y */\n      swap2\n      pop\n        /* \"Modules/Solidity/72. Assembly If.sol\":827:903  switch gt(x, y)... */\n      jump(tag_27)\n        /* \"Modules/Solidity/72. Assembly If.sol\":855:872  case 1 { z := x } */\n    tag_28:\n        /* \"Modules/Solidity/72. Assembly If.sol\":869:870  x */\n      dup4\n        /* \"Modules/Solidity/72. Assembly If.sol\":864:870  z := x */\n      swap2\n      pop\n        /* \"Modules/Solidity/72. Assembly If.sol\":827:903  switch gt(x, y)... */\n    tag_27:\n      pop\n        /* \"Modules/Solidity/72. Assembly If.sol\":727:919  function max(uint256 x, uint256 y) public pure returns (uint256 z) {... */\n      swap3\n      swap2\n      pop\n      pop\n      jump\t// out\n        /* \"Modules/Solidity/72. Assembly If.sol\":568:721  function min(uint256 x, uint256 y) public pure returns (uint256 z) {... */\n    tag_15:\n        /* \"Modules/Solidity/72. Assembly If.sol\":624:633  uint256 z */\n      0x00\n        /* \"Modules/Solidity/72. Assembly If.sol\":649:650  y */\n      dup2\n        /* \"Modules/Solidity/72. Assembly If.sol\":645:650  z = y */\n      swap1\n      pop\n        /* \"Modules/Solidity/72. Assembly If.sol\":692:693  y */\n      dup2\n        /* \"Modules/Solidity/72. Assembly If.sol\":689:690  x */\n      dup4\n        /* \"Modules/Solidity/72. Assembly If.sol\":686:694  lt(x, y) */\n      lt\n        /* \"Modules/Solidity/72. Assembly If.sol\":683:705  if lt(x, y) { z := x } */\n      iszero\n      tag_30\n      jumpi\n        /* \"Modules/Solidity/72. Assembly If.sol\":702:703  x */\n      dup3\n        /* \"Modules/Solidity/72. Assembly If.sol\":697:703  z := x */\n      swap1\n      pop\n        /* \"Modules/Solidity/72. Assembly If.sol\":683:705  if lt(x, y) { z := x } */\n    tag_30:\n        /* \"Modules/Solidity/72. Assembly If.sol\":568:721  function min(uint256 x, uint256 y) public pure returns (uint256 z) {... */\n      swap3\n      swap2\n      pop\n      pop\n      jump\t// out\n        /* \"Modules/Solidity/72. Assembly If.sol\":349:562  function yul_switch(uint256 x) public pure returns (uint256 z) {... */\n    tag_20:\n        /* \"Modules/Solidity/72. Assembly If.sol\":401:410  uint256 z */\n      0x00\n        /* \"Modules/Solidity/72. Assembly If.sol\":452:453  x */\n      dup2\n        /* \"Modules/Solidity/72. Assembly If.sol\":471:472  1 */\n      0x01\n        /* \"Modules/Solidity/72. Assembly If.sol\":466:484  case 1 { z := 10 } */\n      dup2\n      eq\n      tag_33\n      jumpi\n        /* \"Modules/Solidity/72. Assembly If.sol\":502:503  2 */\n      0x02\n        /* \"Modules/Solidity/72. Assembly If.sol\":497:515  case 2 { z := 20 } */\n      dup2\n      eq\n      tag_34\n      jumpi\n        /* \"Modules/Solidity/72. Assembly If.sol\":543:544  0 */\n      0x00\n        /* \"Modules/Solidity/72. Assembly If.sol\":538:544  z := 0 */\n      swap2\n      pop\n        /* \"Modules/Solidity/72. Assembly If.sol\":445:546  switch x... */\n      jump(tag_32)\n        /* \"Modules/Solidity/72. Assembly If.sol\":466:484  case 1 { z := 10 } */\n    tag_33:\n        /* \"Modules/Solidity/72. Assembly If.sol\":480:482  10 */\n      0x0a\n        /* \"Modules/Solidity/72. Assembly If.sol\":475:482  z := 10 */\n      swap2\n      pop\n        /* \"Modules/Solidity/72. Assembly If.sol\":466:484  case 1 { z := 10 } */\n      jump(tag_32)\n        /* \"Modules/Solidity/72. Assembly If.sol\":497:515  case 2 { z := 20 } */\n    tag_34:\n        /* \"Modules/Solidity/72. Assembly If.sol\":511:513  20 */\n      0x14\n        /* \"Modules/Solidity/72. Assembly If.sol\":506:513  z := 20 */\n      swap2\n      pop\n        /* \"Modules/Solidity/72. Assembly If.sol\":445:546  switch x... */\n    tag_32:\n      pop\n        /* \"Modules/Solidity/72. Assembly If.sol\":349:562  function yul_switch(uint256 x) public pure returns (uint256 z) {... */\n      swap2\n      swap1\n      pop\n      jump\t// out\n        /* \"Modules/Solidity/72. Assembly If.sol\":83:343  function yul_if(uint256 x) public pure returns (uint256 z) {... */\n    tag_24:\n        /* \"Modules/Solidity/72. Assembly If.sol\":131:140  uint256 z */\n      0x00\n        /* \"Modules/Solidity/72. Assembly If.sol\":312:314  10 */\n      0x0a\n        /* \"Modules/Solidity/72. Assembly If.sol\":309:310  x */\n      dup3\n        /* \"Modules/Solidity/72. Assembly If.sol\":306:315  lt(x, 10) */\n      lt\n        /* \"Modules/Solidity/72. Assembly If.sol\":303:327  if lt(x, 10) { z := 99 } */\n      iszero\n      tag_36\n      jumpi\n        /* \"Modules/Solidity/72. Assembly If.sol\":323:325  99 */\n      0x63\n        /* \"Modules/Solidity/72. Assembly If.sol\":318:325  z := 99 */\n      swap1\n      pop\n        /* \"Modules/Solidity/72. Assembly If.sol\":303:327  if lt(x, 10) { z := 99 } */\n    tag_36:\n        /* \"Modules/Solidity/72. Assembly If.sol\":83:343  function yul_if(uint256 x) public pure returns (uint256 z) {... */\n      swap2\n      swap1\n      pop\n      jump\t// out\n        /* \"#utility.yul\":88:205   */\n    tag_38:\n        /* \"#utility.yul\":197:198   */\n      0x00\n        /* \"#utility.yul\":194:195   */\n      dup1\n        /* \"#utility.yul\":187:199   */\n      revert\n        /* \"#utility.yul\":334:411   */\n    tag_40:\n        /* \"#utility.yul\":371:378   */\n      0x00\n        /* \"#utility.yul\":400:405   */\n      dup2\n        /* \"#utility.yul\":389:405   */\n      swap1\n      pop\n        /* \"#utility.yul\":334:411   */\n      swap2\n      swap1\n      pop\n      jump\t// out\n        /* \"#utility.yul\":417:539   */\n    tag_41:\n        /* \"#utility.yul\":490:514   */\n      tag_50\n        /* \"#utility.yul\":508:513   */\n      dup2\n        /* \"#utility.yul\":490:514   */\n      tag_40\n      jump\t// in\n    tag_50:\n        /* \"#utility.yul\":483:488   */\n      dup2\n        /* \"#utility.yul\":480:515   */\n      eq\n        /* \"#utility.yul\":470:533   */\n      tag_51\n      jumpi\n        /* \"#utility.yul\":529:530   */\n      0x00\n        /* \"#utility.yul\":526:527   */\n      dup1\n        /* \"#utility.yul\":519:531   */\n      revert\n        /* \"#utility.yul\":470:533   */\n    tag_51:\n        /* \"#utility.yul\":417:539   */\n      pop\n      jump\t// out\n        /* \"#utility.yul\":545:684   */\n    tag_42:\n        /* \"#utility.yul\":591:596   */\n      0x00\n        /* \"#utility.yul\":629:635   */\n      dup2\n        /* \"#utility.yul\":616:636   */\n      calldataload\n        /* \"#utility.yul\":607:636   */\n      swap1\n      pop\n        /* \"#utility.yul\":645:678   */\n      tag_53\n        /* \"#utility.yul\":672:677   */\n      dup2\n        /* \"#utility.yul\":645:678   */\n      tag_41\n      jump\t// in\n    tag_53:\n        /* \"#utility.yul\":545:684   */\n      swap3\n      swap2\n      pop\n      pop\n      jump\t// out\n        /* \"#utility.yul\":690:1164   */\n    tag_9:\n        /* \"#utility.yul\":758:764   */\n      0x00\n        /* \"#utility.yul\":766:772   */\n      dup1\n        /* \"#utility.yul\":815:817   */\n      0x40\n        /* \"#utility.yul\":803:812   */\n      dup4\n        /* \"#utility.yul\":794:801   */\n      dup6\n        /* \"#utility.yul\":790:813   */\n      sub\n        /* \"#utility.yul\":786:818   */\n      slt\n        /* \"#utility.yul\":783:902   */\n      iszero\n      tag_55\n      jumpi\n        /* \"#utility.yul\":821:900   */\n      tag_56\n      tag_38\n      jump\t// in\n    tag_56:\n        /* \"#utility.yul\":783:902   */\n    tag_55:\n        /* \"#utility.yul\":941:942   */\n      0x00\n        /* \"#utility.yul\":966:1019   */\n      tag_57\n        /* \"#utility.yul\":1011:1018   */\n      dup6\n        /* \"#utility.yul\":1002:1008   */\n      dup3\n        /* \"#utility.yul\":991:1000   */\n      dup7\n        /* \"#utility.yul\":987:1009   */\n      add\n        /* \"#utility.yul\":966:1019   */\n      tag_42\n      jump\t// in\n    tag_57:\n        /* \"#utility.yul\":956:1019   */\n      swap3\n      pop\n        /* \"#utility.yul\":912:1029   */\n      pop\n        /* \"#utility.yul\":1068:1070   */\n      0x20\n        /* \"#utility.yul\":1094:1147   */\n      tag_58\n        /* \"#utility.yul\":1139:1146   */\n      dup6\n        /* \"#utility.yul\":1130:1136   */\n      dup3\n        /* \"#utility.yul\":1119:1128   */\n      dup7\n        /* \"#utility.yul\":1115:1137   */\n      add\n        /* \"#utility.yul\":1094:1147   */\n      tag_42\n      jump\t// in\n    tag_58:\n        /* \"#utility.yul\":1084:1147   */\n      swap2\n      pop\n        /* \"#utility.yul\":1039:1157   */\n      pop\n        /* \"#utility.yul\":690:1164   */\n      swap3\n      pop\n      swap3\n      swap1\n      pop\n      jump\t// out\n        /* \"#utility.yul\":1170:1288   */\n    tag_43:\n        /* \"#utility.yul\":1257:1281   */\n      tag_60\n        /* \"#utility.yul\":1275:1280   */\n      dup2\n        /* \"#utility.yul\":1257:1281   */\n      tag_40\n      jump\t// in\n    tag_60:\n        /* \"#utility.yul\":1252:1255   */\n      dup3\n        /* \"#utility.yul\":1245:1282   */\n      mstore\n        /* \"#utility.yul\":1170:1288   */\n      pop\n      pop\n      jump\t// out\n        /* \"#utility.yul\":1294:1516   */\n    tag_12:\n        /* \"#utility.yul\":1387:1391   */\n      0x00\n        /* \"#utility.yul\":1425:1427   */\n      0x20\n        /* \"#utility.yul\":1414:1423   */\n      dup3\n        /* \"#utility.yul\":1410:1428   */\n      add\n        /* \"#utility.yul\":1402:1428   */\n      swap1\n      pop\n        /* \"#utility.yul\":1438:1509   */\n      tag_62\n        /* \"#utility.yul\":1506:1507   */\n      0x00\n        /* \"#utility.yul\":1495:1504   */\n      dup4\n        /* \"#utility.yul\":1491:1508   */\n      add\n        /* \"#utility.yul\":1482:1488   */\n      dup5\n        /* \"#utility.yul\":1438:1509   */\n      tag_43\n      jump\t// in\n    tag_62:\n        /* \"#utility.yul\":1294:1516   */\n      swap3\n      swap2\n      pop\n      pop\n      jump\t// out\n        /* \"#utility.yul\":1522:1851   */\n    tag_19:\n        /* \"#utility.yul\":1581:1587   */\n      0x00\n        /* \"#utility.yul\":1630:1632   */\n      0x20\n        /* \"#utility.yul\":1618:1627   */\n      dup3\n        /* \"#utility.yul\":1609:1616   */\n      dup5\n        /* \"#utility.yul\":1605:1628   */\n      sub\n        /* \"#utility.yul\":1601:1633   */\n      slt\n        /* \"#utility.yul\":1598:1717   */\n      iszero\n      tag_64\n      jumpi\n        /* \"#utility.yul\":1636:1715   */\n      tag_65\n      tag_38\n      jump\t// in\n    tag_65:\n        /* \"#utility.yul\":1598:1717   */\n    tag_64:\n        /* \"#utility.yul\":1756:1757   */\n      0x00\n        /* \"#utility.yul\":1781:1834   */\n      tag_66\n        /* \"#utility.yul\":1826:1833   */\n      dup5\n        /* \"#utility.yul\":1817:1823   */\n      dup3\n        /* \"#utility.yul\":1806:1815   */\n      dup6\n        /* \"#utility.yul\":1802:1824   */\n      add\n        /* \"#utility.yul\":1781:1834   */\n      tag_42\n      jump\t// in\n    tag_66:\n        /* \"#utility.yul\":1771:1834   */\n      swap2\n      pop\n        /* \"#utility.yul\":1727:1844   */\n      pop\n        /* \"#utility.yul\":1522:1851   */\n      swap3\n      swap2\n      pop\n      pop\n      jump\t// out\n\n    auxdata: 0xa2646970667358221220c404f55a35e3b3b4c271f6bf7f7a24236a9ef148201655cc0f6cc64edb38c8b664736f6c63430008160033\n}\n",
				"bytecode": {
					"linkReferences": {},
					"object": "608060405234801561000f575f80fd5b506102838061001d5f395ff3fe608060405234801561000f575f80fd5b506004361061004a575f3560e01c80636d5433e61461004e5780637ae2b5c71461007e578063a917238b146100ae578063f42a728d146100de575b5f80fd5b610068600480360381019061006391906101bc565b61010e565b6040516100759190610209565b60405180910390f35b610098600480360381019061009391906101bc565b61012d565b6040516100a59190610209565b60405180910390f35b6100c860048036038101906100c39190610222565b610143565b6040516100d59190610209565b60405180910390f35b6100f860048036038101906100f39190610222565b610171565b6040516101059190610209565b60405180910390f35b5f8183116001811461012257829150610126565b8391505b5092915050565b5f8190508183101561013d578290505b92915050565b5f816001811461015d5760028114610166575f915061016b565b600a915061016b565b601491505b50919050565b5f600a82101561018057606390505b919050565b5f80fd5b5f819050919050565b61019b81610189565b81146101a5575f80fd5b50565b5f813590506101b681610192565b92915050565b5f80604083850312156101d2576101d1610185565b5b5f6101df858286016101a8565b92505060206101f0858286016101a8565b9150509250929050565b61020381610189565b82525050565b5f60208201905061021c5f8301846101fa565b92915050565b5f6020828403121561023757610236610185565b5b5f610244848285016101a8565b9150509291505056fea2646970667358221220c404f55a35e3b3b4c271f6bf7f7a24236a9ef148201655cc0f6cc64edb38c8b664736f6c63430008160033",
					"opcodes": "PUSH1 0x80 PUSH1 0x40 MSTORE CALLVALUE DUP1 ISZERO PUSH2 0xF JUMPI PUSH0 DUP1 REVERT JUMPDEST POP PUSH2 0x283 DUP1 PUSH2 0x1D PUSH0 CODECOPY PUSH0 RETURN INVALID PUSH1 0x80 PUSH1 0x40 MSTORE CALLVALUE DUP1 ISZERO PUSH2 0xF JUMPI PUSH0 DUP1 REVERT JUMPDEST POP PUSH1 0x4 CALLDATASIZE LT PUSH2 0x4A JUMPI PUSH0 CALLDATALOAD PUSH1 0xE0 SHR DUP1 PUSH4 0x6D5433E6 EQ PUSH2 0x4E JUMPI DUP1 PUSH4 0x7AE2B5C7 EQ PUSH2 0x7E JUMPI DUP1 PUSH4 0xA917238B EQ PUSH2 0xAE JUMPI DUP1 PUSH4 0xF42A728D EQ PUSH2 0xDE JUMPI JUMPDEST PUSH0 DUP1 REVERT JUMPDEST PUSH2 0x68 PUSH1 0x4 DUP1 CALLDATASIZE SUB DUP2 ADD SWAP1 PUSH2 0x63 SWAP2 SWAP1 PUSH2 0x1BC JUMP JUMPDEST PUSH2 0x10E JUMP JUMPDEST PUSH1 0x40 MLOAD PUSH2 0x75 SWAP2 SWAP1 PUSH2 0x209 JUMP JUMPDEST PUSH1 0x40 MLOAD DUP1 SWAP2 SUB SWAP1 RETURN JUMPDEST PUSH2 0x98 PUSH1 0x4 DUP1 CALLDATASIZE SUB DUP2 ADD SWAP1 PUSH2 0x93 SWAP2 SWAP1 PUSH2 0x1BC JUMP JUMPDEST PUSH2 0x12D JUMP JUMPDEST PUSH1 0x40 MLOAD PUSH2 0xA5 SWAP2 SWAP1 PUSH2 0x209 JUMP JUMPDEST PUSH1 0x40 MLOAD DUP1 SWAP2 SUB SWAP1 RETURN JUMPDEST PUSH2 0xC8 PUSH1 0x4 DUP1 CALLDATASIZE SUB DUP2 ADD SWAP1 PUSH2 0xC3 SWAP2 SWAP1 PUSH2 0x222 JUMP JUMPDEST PUSH2 0x143 JUMP JUMPDEST PUSH1 0x40 MLOAD PUSH2 0xD5 SWAP2 SWAP1 PUSH2 0x209 JUMP JUMPDEST PUSH1 0x40 MLOAD DUP1 SWAP2 SUB SWAP1 RETURN JUMPDEST PUSH2 0xF8 PUSH1 0x4 DUP1 CALLDATASIZE SUB DUP2 ADD SWAP1 PUSH2 0xF3 SWAP2 SWAP1 PUSH2 0x222 JUMP JUMPDEST PUSH2 0x171 JUMP JUMPDEST PUSH1 0x40 MLOAD PUSH2 0x105 SWAP2 SWAP1 PUSH2 0x209 JUMP JUMPDEST PUSH1 0x40 MLOAD DUP1 SWAP2 SUB SWAP1 RETURN JUMPDEST PUSH0 DUP2 DUP4 GT PUSH1 0x1 DUP2 EQ PUSH2 0x122 JUMPI DUP3 SWAP2 POP PUSH2 0x126 JUMP JUMPDEST DUP4 SWAP2 POP JUMPDEST POP SWAP3 SWAP2 POP POP JUMP JUMPDEST PUSH0 DUP2 SWAP1 POP DUP2 DUP4 LT ISZERO PUSH2 0x13D JUMPI DUP3 SWAP1 POP JUMPDEST SWAP3 SWAP2 POP POP JUMP JUMPDEST PUSH0 DUP2 PUSH1 0x1 DUP2 EQ PUSH2 0x15D JUMPI PUSH1 0x2 DUP2 EQ PUSH2 0x166 JUMPI PUSH0 SWAP2 POP PUSH2 0x16B JUMP JUMPDEST PUSH1 0xA SWAP2 POP PUSH2 0x16B JUMP JUMPDEST PUSH1 0x14 SWAP2 POP JUMPDEST POP SWAP2 SWAP1 POP JUMP JUMPDEST PUSH0 PUSH1 0xA DUP3 LT ISZERO PUSH2 0x180 JUMPI PUSH1 0x63 SWAP1 POP JUMPDEST SWAP2 SWAP1 POP JUMP JUMPDEST PUSH0 DUP1 REVERT JUMPDEST PUSH0 DUP2 SWAP1 POP SWAP2 SWAP1 POP JUMP JUMPDEST PUSH2 0x19B DUP2 PUSH2 0x189 JUMP JUMPDEST DUP2 EQ PUSH2 0x1A5 JUMPI PUSH0 DUP1 REVERT JUMPDEST POP JUMP JUMPDEST PUSH0 DUP2 CALLDATALOAD SWAP1 POP PUSH2 0x1B6 DUP2 PUSH2 0x192 JUMP JUMPDEST SWAP3 SWAP2 POP POP JUMP JUMPDEST PUSH0 DUP1 PUSH1 0x40 DUP4 DUP6 SUB SLT ISZERO PUSH2 0x1D2 JUMPI PUSH2 0x1D1 PUSH2 0x185 JUMP JUMPDEST JUMPDEST PUSH0 PUSH2 0x1DF DUP6 DUP3 DUP7 ADD PUSH2 0x1A8 JUMP JUMPDEST SWAP3 POP POP PUSH1 0x20 PUSH2 0x1F0 DUP6 DUP3 DUP7 ADD PUSH2 0x1A8 JUMP JUMPDEST SWAP2 POP POP SWAP3 POP SWAP3 SWAP1 POP JUMP JUMPDEST PUSH2 0x203 DUP2 PUSH2 0x189 JUMP JUMPDEST DUP3 MSTORE POP POP JUMP JUMPDEST PUSH0 PUSH1 0x20 DUP3 ADD SWAP1 POP PUSH2 0x21C PUSH0 DUP4 ADD DUP5 PUSH2 0x1FA JUMP JUMPDEST SWAP3 SWAP2 POP POP JUMP JUMPDEST PUSH0 PUSH1 0x20 DUP3 DUP5 SUB SLT ISZERO PUSH2 0x237 JUMPI PUSH2 0x236 PUSH2 0x185 JUMP JUMPDEST JUMPDEST PUSH0 PUSH2 0x244 DUP5 DUP3 DUP6 ADD PUSH2 0x1A8 JUMP JUMPDEST SWAP2 POP POP SWAP3 SWAP2 POP POP JUMP INVALID LOG2 PUSH5 0x6970667358 0x22 SLT KECCAK256 0xC4 DIV CREATE2 GAS CALLDATALOAD 0xE3 0xB3 0xB4 0xC2 PUSH18 0xF6BF7F7A24236A9EF148201655CC0F6CC64E 0xDB CODESIZE 0xC8 0xB6 PUSH5 0x736F6C6343 STOP ADDMOD AND STOP CALLER "
				},
				"gasEstimates": {
					"creation": {
						"codeDepositCost": "128600",
						"executionCost": "175",
						"totalCost": "128775"
					},
					"external": {
						"max(uint256,uint256)": "infinite",
						"min(uint256,uint256)": "infinite",
						"yul_if(uint256)": "infinite",
						"yul_switch(uint256)": "infinite"
					}
				},
				"methodIdentifiers": {
					"max(uint256,uint256)": "6d5433e6",
					"min(uint256,uint256)": "7ae2b5c7",
					"yul_if(uint256)": "f42a728d",
					"yul_switch(uint256)": "a917238b"
				}
			},
			"storageLayout": {
				"storage": [],
				"types": null
			},
			"userdoc": {
				"kind": "user",
				"methods": {},
				"version": 1
			}
		}
	}
}