{
	"Modules/Solidity/74. Assembly Loop.sol": {
		"AssemblyLoop": {
			"abi": [
				{
					"inputs": [
						{
							"internalType": "uint256",
							"name": "x",
							"type": "uint256"
						},
						{
							"internalType": "uint256",
							"name": "n",
							"type": "uint256"
						}
					],
					"name": "pow2k",
					"outputs": [
						{
							"internalType": "uint256",
							"name": "z",
							"type": "uint256"
						}
					],
					"stateMutability": "pure",
					"type": "function"
				},
				{
					"inputs": [
						{
							"internalType": "uint256",
							"name": "n",
							"type": "uint256"
						}
					],
					"name": "sum",
					"outputs": [
						{
							"internalType": "uint256",
							"name": "z",
							"type": "uint256"
						}
					],
					"stateMutability": "pure",
					"type": "function"
				},
				{
					"inputs": [],
					"name": "yul_for_loop",
					"outputs": [
						{
							"internalType": "uint256",
							"name": "z",
							"type": "uint256"
						}
					],
					"stateMutability": "pure",
					"type": "function"
				},
				{
					"inputs": [],
					"name": "yul_while_loop",
					"outputs": [
						{
							"internalType": "uint256",
							"name": "z",
							"type": "uint256"
						}
					],
					"stateMutability": "pure",
					"type": "function"
				}
			],
			"devdoc": {
				"kind": "dev",
				"methods": {},
				"version": 1
			},
			"evm": {
				"assembly": "    /* \"Modules/Solidity/74. Assembly Loop.sol\":57:1164  contract AssemblyLoop {... */\n  mstore(0x40, 0x80)\n  callvalue\n  dup1\n  iszero\n  tag_1\n  jumpi\n  0x00\n  dup1\n  revert\ntag_1:\n  pop\n  dataSize(sub_0)\n  dup1\n  dataOffset(sub_0)\n  0x00\n  codecopy\n  0x00\n  return\nstop\n\nsub_0: assembly {\n        /* \"Modules/Solidity/74. Assembly Loop.sol\":57:1164  contract AssemblyLoop {... */\n      mstore(0x40, 0x80)\n      callvalue\n      dup1\n      iszero\n      tag_1\n      jumpi\n      0x00\n      dup1\n      revert\n    tag_1:\n      pop\n      jumpi(tag_2, lt(calldatasize, 0x04))\n      shr(0xe0, calldataload(0x00))\n      dup1\n      0x188b85b4\n      eq\n      tag_3\n      jumpi\n      dup1\n      0xd22b5850\n      eq\n      tag_4\n      jumpi\n      dup1\n      0xd39bdcb2\n      eq\n      tag_5\n      jumpi\n      dup1\n      0xfd4a8ebb\n      eq\n      tag_6\n      jumpi\n    tag_2:\n      0x00\n      dup1\n      revert\n        /* \"Modules/Solidity/74. Assembly Loop.sol\":494:664  function sum(uint256 n) public pure returns (uint256 z) {... */\n    tag_3:\n      tag_7\n      0x04\n      dup1\n      calldatasize\n      sub\n      dup2\n      add\n      swap1\n      tag_8\n      swap2\n      swap1\n      tag_9\n      jump\t// in\n    tag_8:\n      tag_10\n      jump\t// in\n    tag_7:\n      mload(0x40)\n      tag_11\n      swap2\n      swap1\n      tag_12\n      jump\t// in\n    tag_11:\n      mload(0x40)\n      dup1\n      swap2\n      sub\n      swap1\n      return\n        /* \"Modules/Solidity/74. Assembly Loop.sol\":85:256  function yul_for_loop() public pure returns (uint256 z) {... */\n    tag_4:\n      tag_13\n      tag_14\n      jump\t// in\n    tag_13:\n      mload(0x40)\n      tag_15\n      swap2\n      swap1\n      tag_12\n      jump\t// in\n    tag_15:\n      mload(0x40)\n      dup1\n      swap2\n      sub\n      swap1\n      return\n        /* \"Modules/Solidity/74. Assembly Loop.sol\":745:1162  function pow2k(uint256 x, uint256 n) public pure returns (uint256 z) {... */\n    tag_5:\n      tag_16\n      0x04\n      dup1\n      calldatasize\n      sub\n      dup2\n      add\n      swap1\n      tag_17\n      swap2\n      swap1\n      tag_18\n      jump\t// in\n    tag_17:\n      tag_19\n      jump\t// in\n    tag_16:\n      mload(0x40)\n      tag_20\n      swap2\n      swap1\n      tag_12\n      jump\t// in\n    tag_20:\n      mload(0x40)\n      dup1\n      swap2\n      sub\n      swap1\n      return\n        /* \"Modules/Solidity/74. Assembly Loop.sol\":262:488  function yul_while_loop() public pure returns (uint256 z) {... */\n    tag_6:\n      tag_21\n      tag_22\n      jump\t// in\n    tag_21:\n      mload(0x40)\n      tag_23\n      swap2\n      swap1\n      tag_12\n      jump\t// in\n    tag_23:\n      mload(0x40)\n      dup1\n      swap2\n      sub\n      swap1\n      return\n        /* \"Modules/Solidity/74. Assembly Loop.sol\":494:664  function sum(uint256 n) public pure returns (uint256 z) {... */\n    tag_10:\n        /* \"Modules/Solidity/74. Assembly Loop.sol\":539:548  uint256 z */\n      0x00\n        /* \"Modules/Solidity/74. Assembly Loop.sol\":598:599  1 */\n      0x01\n        /* \"Modules/Solidity/74. Assembly Loop.sol\":583:648  for { let i := 1 } lt(i, n) { i := add(i, 1) } { z := add(z, i) } */\n    tag_25:\n        /* \"Modules/Solidity/74. Assembly Loop.sol\":608:609  n */\n      dup3\n        /* \"Modules/Solidity/74. Assembly Loop.sol\":605:606  i */\n      dup2\n        /* \"Modules/Solidity/74. Assembly Loop.sol\":602:610  lt(i, n) */\n      lt\n        /* \"Modules/Solidity/74. Assembly Loop.sol\":583:648  for { let i := 1 } lt(i, n) { i := add(i, 1) } { z := add(z, i) } */\n      iszero\n      tag_27\n      jumpi\n        /* \"Modules/Solidity/74. Assembly Loop.sol\":644:645  i */\n      dup1\n        /* \"Modules/Solidity/74. Assembly Loop.sol\":641:642  z */\n      dup3\n        /* \"Modules/Solidity/74. Assembly Loop.sol\":637:646  add(z, i) */\n      add\n        /* \"Modules/Solidity/74. Assembly Loop.sol\":632:646  z := add(z, i) */\n      swap2\n      pop\n        /* \"Modules/Solidity/74. Assembly Loop.sol\":625:626  1 */\n      0x01\n        /* \"Modules/Solidity/74. Assembly Loop.sol\":622:623  i */\n      dup2\n        /* \"Modules/Solidity/74. Assembly Loop.sol\":618:627  add(i, 1) */\n      add\n        /* \"Modules/Solidity/74. Assembly Loop.sol\":613:627  i := add(i, 1) */\n      swap1\n      pop\n        /* \"Modules/Solidity/74. Assembly Loop.sol\":583:648  for { let i := 1 } lt(i, n) { i := add(i, 1) } { z := add(z, i) } */\n      jump(tag_25)\n    tag_27:\n        /* \"Modules/Solidity/74. Assembly Loop.sol\":587:601  { let i := 1 } */\n      pop\n        /* \"Modules/Solidity/74. Assembly Loop.sol\":494:664  function sum(uint256 n) public pure returns (uint256 z) {... */\n      swap2\n      swap1\n      pop\n      jump\t// out\n        /* \"Modules/Solidity/74. Assembly Loop.sol\":85:256  function yul_for_loop() public pure returns (uint256 z) {... */\n    tag_14:\n        /* \"Modules/Solidity/74. Assembly Loop.sol\":130:139  uint256 z */\n      0x00\n        /* \"Modules/Solidity/74. Assembly Loop.sol\":189:190  0 */\n      dup1\n        /* \"Modules/Solidity/74. Assembly Loop.sol\":174:240  for { let i := 0 } lt(i, 10) { i := add(i, 1) } { z := add(z, 1) } */\n    tag_29:\n        /* \"Modules/Solidity/74. Assembly Loop.sol\":199:201  10 */\n      0x0a\n        /* \"Modules/Solidity/74. Assembly Loop.sol\":196:197  i */\n      dup2\n        /* \"Modules/Solidity/74. Assembly Loop.sol\":193:202  lt(i, 10) */\n      lt\n        /* \"Modules/Solidity/74. Assembly Loop.sol\":174:240  for { let i := 0 } lt(i, 10) { i := add(i, 1) } { z := add(z, 1) } */\n      iszero\n      tag_31\n      jumpi\n        /* \"Modules/Solidity/74. Assembly Loop.sol\":236:237  1 */\n      0x01\n        /* \"Modules/Solidity/74. Assembly Loop.sol\":233:234  z */\n      dup3\n        /* \"Modules/Solidity/74. Assembly Loop.sol\":229:238  add(z, 1) */\n      add\n        /* \"Modules/Solidity/74. Assembly Loop.sol\":224:238  z := add(z, 1) */\n      swap2\n      pop\n        /* \"Modules/Solidity/74. Assembly Loop.sol\":217:218  1 */\n      0x01\n        /* \"Modules/Solidity/74. Assembly Loop.sol\":214:215  i */\n      dup2\n        /* \"Modules/Solidity/74. Assembly Loop.sol\":210:219  add(i, 1) */\n      add\n        /* \"Modules/Solidity/74. Assembly Loop.sol\":205:219  i := add(i, 1) */\n      swap1\n      pop\n        /* \"Modules/Solidity/74. Assembly Loop.sol\":174:240  for { let i := 0 } lt(i, 10) { i := add(i, 1) } { z := add(z, 1) } */\n      jump(tag_29)\n    tag_31:\n        /* \"Modules/Solidity/74. Assembly Loop.sol\":178:192  { let i := 0 } */\n      pop\n        /* \"Modules/Solidity/74. Assembly Loop.sol\":85:256  function yul_for_loop() public pure returns (uint256 z) {... */\n      swap1\n      jump\t// out\n        /* \"Modules/Solidity/74. Assembly Loop.sol\":745:1162  function pow2k(uint256 x, uint256 n) public pure returns (uint256 z) {... */\n    tag_19:\n        /* \"Modules/Solidity/74. Assembly Loop.sol\":803:812  uint256 z */\n      0x00\n        /* \"Modules/Solidity/74. Assembly Loop.sol\":836:837  0 */\n      dup1\n        /* \"Modules/Solidity/74. Assembly Loop.sol\":832:833  x */\n      dup4\n        /* \"Modules/Solidity/74. Assembly Loop.sol\":832:837  x > 0 */\n      gt\n        /* \"Modules/Solidity/74. Assembly Loop.sol\":824:847  require(x > 0, \"x = 0\") */\n      tag_33\n      jumpi\n      mload(0x40)\n      0x08c379a000000000000000000000000000000000000000000000000000000000\n      dup2\n      mstore\n      0x04\n      add\n      tag_34\n      swap1\n      tag_35\n      jump\t// in\n    tag_34:\n      mload(0x40)\n      dup1\n      swap2\n      sub\n      swap1\n      revert\n    tag_33:\n        /* \"Modules/Solidity/74. Assembly Loop.sol\":890:891  2 */\n      0x02\n        /* \"Modules/Solidity/74. Assembly Loop.sol\":887:888  n */\n      dup3\n        /* \"Modules/Solidity/74. Assembly Loop.sol\":883:892  mod(n, 2) */\n      mod\n        /* \"Modules/Solidity/74. Assembly Loop.sol\":880:909  if mod(n, 2) { revert(0, 0) } */\n      iszero\n      tag_36\n      jumpi\n        /* \"Modules/Solidity/74. Assembly Loop.sol\":905:906  0 */\n      0x00\n        /* \"Modules/Solidity/74. Assembly Loop.sol\":902:903  0 */\n      dup1\n        /* \"Modules/Solidity/74. Assembly Loop.sol\":895:907  revert(0, 0) */\n      revert\n        /* \"Modules/Solidity/74. Assembly Loop.sol\":880:909  if mod(n, 2) { revert(0, 0) } */\n    tag_36:\n        /* \"Modules/Solidity/74. Assembly Loop.sol\":929:930  n */\n      dup2\n        /* \"Modules/Solidity/74. Assembly Loop.sol\":948:949  0 */\n      0x00\n        /* \"Modules/Solidity/74. Assembly Loop.sol\":943:960  case 0 { z := 1 } */\n      dup2\n      eq\n      tag_38\n      jumpi\n        /* \"Modules/Solidity/74. Assembly Loop.sol\":988:989  x */\n      dup4\n        /* \"Modules/Solidity/74. Assembly Loop.sol\":983:989  z := x */\n      swap2\n      pop\n        /* \"Modules/Solidity/74. Assembly Loop.sol\":922:991  switch n... */\n      jump(tag_37)\n        /* \"Modules/Solidity/74. Assembly Loop.sol\":943:960  case 0 { z := 1 } */\n    tag_38:\n        /* \"Modules/Solidity/74. Assembly Loop.sol\":957:958  1 */\n      0x01\n        /* \"Modules/Solidity/74. Assembly Loop.sol\":952:958  z := 1 */\n      swap2\n      pop\n        /* \"Modules/Solidity/74. Assembly Loop.sol\":922:991  switch n... */\n    tag_37:\n      pop\n        /* \"Modules/Solidity/74. Assembly Loop.sol\":1004:1146  for {} gt(n, 1) {} {... */\n    tag_39:\n        /* \"Modules/Solidity/74. Assembly Loop.sol\":1017:1018  1 */\n      0x01\n        /* \"Modules/Solidity/74. Assembly Loop.sol\":1014:1015  n */\n      dup3\n        /* \"Modules/Solidity/74. Assembly Loop.sol\":1011:1019  gt(n, 1) */\n      gt\n        /* \"Modules/Solidity/74. Assembly Loop.sol\":1004:1146  for {} gt(n, 1) {} {... */\n      iszero\n      tag_41\n      jumpi\n        /* \"Modules/Solidity/74. Assembly Loop.sol\":1051:1052  2 */\n      0x02\n        /* \"Modules/Solidity/74. Assembly Loop.sol\":1048:1049  n */\n      dup3\n        /* \"Modules/Solidity/74. Assembly Loop.sol\":1044:1053  mod(n, 2) */\n      mod\n        /* \"Modules/Solidity/74. Assembly Loop.sol\":1041:1070  if mod(n, 2) { revert(0, 0) } */\n      iszero\n      tag_42\n      jumpi\n        /* \"Modules/Solidity/74. Assembly Loop.sol\":1066:1067  0 */\n      0x00\n        /* \"Modules/Solidity/74. Assembly Loop.sol\":1063:1064  0 */\n      dup1\n        /* \"Modules/Solidity/74. Assembly Loop.sol\":1056:1068  revert(0, 0) */\n      revert\n        /* \"Modules/Solidity/74. Assembly Loop.sol\":1041:1070  if mod(n, 2) { revert(0, 0) } */\n    tag_42:\n        /* \"Modules/Solidity/74. Assembly Loop.sol\":1099:1100  z */\n      dup1\n        /* \"Modules/Solidity/74. Assembly Loop.sol\":1096:1097  z */\n      dup2\n        /* \"Modules/Solidity/74. Assembly Loop.sol\":1092:1101  mul(z, z) */\n      mul\n        /* \"Modules/Solidity/74. Assembly Loop.sol\":1087:1101  z := mul(z, z) */\n      swap1\n      pop\n        /* \"Modules/Solidity/74. Assembly Loop.sol\":1130:1131  2 */\n      0x02\n        /* \"Modules/Solidity/74. Assembly Loop.sol\":1127:1128  n */\n      dup3\n        /* \"Modules/Solidity/74. Assembly Loop.sol\":1123:1132  div(n, 2) */\n      div\n        /* \"Modules/Solidity/74. Assembly Loop.sol\":1118:1132  n := div(n, 2) */\n      swap2\n      pop\n        /* \"Modules/Solidity/74. Assembly Loop.sol\":1004:1146  for {} gt(n, 1) {} {... */\n      jump(tag_39)\n    tag_41:\n        /* \"Modules/Solidity/74. Assembly Loop.sol\":745:1162  function pow2k(uint256 x, uint256 n) public pure returns (uint256 z) {... */\n      swap3\n      swap2\n      pop\n      pop\n      jump\t// out\n        /* \"Modules/Solidity/74. Assembly Loop.sol\":262:488  function yul_while_loop() public pure returns (uint256 z) {... */\n    tag_22:\n        /* \"Modules/Solidity/74. Assembly Loop.sol\":309:318  uint256 z */\n      0x00\n        /* \"Modules/Solidity/74. Assembly Loop.sol\":362:363  0 */\n      dup1\n        /* \"Modules/Solidity/74. Assembly Loop.sol\":376:472  for {} lt(i, 5) {} {... */\n    tag_44:\n        /* \"Modules/Solidity/74. Assembly Loop.sol\":389:390  5 */\n      0x05\n        /* \"Modules/Solidity/74. Assembly Loop.sol\":386:387  i */\n      dup2\n        /* \"Modules/Solidity/74. Assembly Loop.sol\":383:391  lt(i, 5) */\n      lt\n        /* \"Modules/Solidity/74. Assembly Loop.sol\":376:472  for {} lt(i, 5) {} {... */\n      iszero\n      tag_46\n      jumpi\n        /* \"Modules/Solidity/74. Assembly Loop.sol\":425:426  1 */\n      0x01\n        /* \"Modules/Solidity/74. Assembly Loop.sol\":422:423  i */\n      dup2\n        /* \"Modules/Solidity/74. Assembly Loop.sol\":418:427  add(i, 1) */\n      add\n        /* \"Modules/Solidity/74. Assembly Loop.sol\":413:427  i := add(i, 1) */\n      swap1\n      pop\n        /* \"Modules/Solidity/74. Assembly Loop.sol\":456:457  1 */\n      0x01\n        /* \"Modules/Solidity/74. Assembly Loop.sol\":453:454  z */\n      dup3\n        /* \"Modules/Solidity/74. Assembly Loop.sol\":449:458  add(z, 1) */\n      add\n        /* \"Modules/Solidity/74. Assembly Loop.sol\":444:458  z := add(z, 1) */\n      swap2\n      pop\n        /* \"Modules/Solidity/74. Assembly Loop.sol\":376:472  for {} lt(i, 5) {} {... */\n      jump(tag_44)\n    tag_46:\n        /* \"Modules/Solidity/74. Assembly Loop.sol\":339:482  {... */\n      pop\n        /* \"Modules/Solidity/74. Assembly Loop.sol\":262:488  function yul_while_loop() public pure returns (uint256 z) {... */\n      swap1\n      jump\t// out\n        /* \"#utility.yul\":88:205   */\n    tag_48:\n        /* \"#utility.yul\":197:198   */\n      0x00\n        /* \"#utility.yul\":194:195   */\n      dup1\n        /* \"#utility.yul\":187:199   */\n      revert\n        /* \"#utility.yul\":334:411   */\n    tag_50:\n        /* \"#utility.yul\":371:378   */\n      0x00\n        /* \"#utility.yul\":400:405   */\n      dup2\n        /* \"#utility.yul\":389:405   */\n      swap1\n      pop\n        /* \"#utility.yul\":334:411   */\n      swap2\n      swap1\n      pop\n      jump\t// out\n        /* \"#utility.yul\":417:539   */\n    tag_51:\n        /* \"#utility.yul\":490:514   */\n      tag_63\n        /* \"#utility.yul\":508:513   */\n      dup2\n        /* \"#utility.yul\":490:514   */\n      tag_50\n      jump\t// in\n    tag_63:\n        /* \"#utility.yul\":483:488   */\n      dup2\n        /* \"#utility.yul\":480:515   */\n      eq\n        /* \"#utility.yul\":470:533   */\n      tag_64\n      jumpi\n        /* \"#utility.yul\":529:530   */\n      0x00\n        /* \"#utility.yul\":526:527   */\n      dup1\n        /* \"#utility.yul\":519:531   */\n      revert\n        /* \"#utility.yul\":470:533   */\n    tag_64:\n        /* \"#utility.yul\":417:539   */\n      pop\n      jump\t// out\n        /* \"#utility.yul\":545:684   */\n    tag_52:\n        /* \"#utility.yul\":591:596   */\n      0x00\n        /* \"#utility.yul\":629:635   */\n      dup2\n        /* \"#utility.yul\":616:636   */\n      calldataload\n        /* \"#utility.yul\":607:636   */\n      swap1\n      pop\n        /* \"#utility.yul\":645:678   */\n      tag_66\n        /* \"#utility.yul\":672:677   */\n      dup2\n        /* \"#utility.yul\":645:678   */\n      tag_51\n      jump\t// in\n    tag_66:\n        /* \"#utility.yul\":545:684   */\n      swap3\n      swap2\n      pop\n      pop\n      jump\t// out\n        /* \"#utility.yul\":690:1019   */\n    tag_9:\n        /* \"#utility.yul\":749:755   */\n      0x00\n        /* \"#utility.yul\":798:800   */\n      0x20\n        /* \"#utility.yul\":786:795   */\n      dup3\n        /* \"#utility.yul\":777:784   */\n      dup5\n        /* \"#utility.yul\":773:796   */\n      sub\n        /* \"#utility.yul\":769:801   */\n      slt\n        /* \"#utility.yul\":766:885   */\n      iszero\n      tag_68\n      jumpi\n        /* \"#utility.yul\":804:883   */\n      tag_69\n      tag_48\n      jump\t// in\n    tag_69:\n        /* \"#utility.yul\":766:885   */\n    tag_68:\n        /* \"#utility.yul\":924:925   */\n      0x00\n        /* \"#utility.yul\":949:1002   */\n      tag_70\n        /* \"#utility.yul\":994:1001   */\n      dup5\n        /* \"#utility.yul\":985:991   */\n      dup3\n        /* \"#utility.yul\":974:983   */\n      dup6\n        /* \"#utility.yul\":970:992   */\n      add\n        /* \"#utility.yul\":949:1002   */\n      tag_52\n      jump\t// in\n    tag_70:\n        /* \"#utility.yul\":939:1002   */\n      swap2\n      pop\n        /* \"#utility.yul\":895:1012   */\n      pop\n        /* \"#utility.yul\":690:1019   */\n      swap3\n      swap2\n      pop\n      pop\n      jump\t// out\n        /* \"#utility.yul\":1025:1143   */\n    tag_53:\n        /* \"#utility.yul\":1112:1136   */\n      tag_72\n        /* \"#utility.yul\":1130:1135   */\n      dup2\n        /* \"#utility.yul\":1112:1136   */\n      tag_50\n      jump\t// in\n    tag_72:\n        /* \"#utility.yul\":1107:1110   */\n      dup3\n        /* \"#utility.yul\":1100:1137   */\n      mstore\n        /* \"#utility.yul\":1025:1143   */\n      pop\n      pop\n      jump\t// out\n        /* \"#utility.yul\":1149:1371   */\n    tag_12:\n        /* \"#utility.yul\":1242:1246   */\n      0x00\n        /* \"#utility.yul\":1280:1282   */\n      0x20\n        /* \"#utility.yul\":1269:1278   */\n      dup3\n        /* \"#utility.yul\":1265:1283   */\n      add\n        /* \"#utility.yul\":1257:1283   */\n      swap1\n      pop\n        /* \"#utility.yul\":1293:1364   */\n      tag_74\n        /* \"#utility.yul\":1361:1362   */\n      0x00\n        /* \"#utility.yul\":1350:1359   */\n      dup4\n        /* \"#utility.yul\":1346:1363   */\n      add\n        /* \"#utility.yul\":1337:1343   */\n      dup5\n        /* \"#utility.yul\":1293:1364   */\n      tag_53\n      jump\t// in\n    tag_74:\n        /* \"#utility.yul\":1149:1371   */\n      swap3\n      swap2\n      pop\n      pop\n      jump\t// out\n        /* \"#utility.yul\":1377:1851   */\n    tag_18:\n        /* \"#utility.yul\":1445:1451   */\n      0x00\n        /* \"#utility.yul\":1453:1459   */\n      dup1\n        /* \"#utility.yul\":1502:1504   */\n      0x40\n        /* \"#utility.yul\":1490:1499   */\n      dup4\n        /* \"#utility.yul\":1481:1488   */\n      dup6\n        /* \"#utility.yul\":1477:1500   */\n      sub\n        /* \"#utility.yul\":1473:1505   */\n      slt\n        /* \"#utility.yul\":1470:1589   */\n      iszero\n      tag_76\n      jumpi\n        /* \"#utility.yul\":1508:1587   */\n      tag_77\n      tag_48\n      jump\t// in\n    tag_77:\n        /* \"#utility.yul\":1470:1589   */\n    tag_76:\n        /* \"#utility.yul\":1628:1629   */\n      0x00\n        /* \"#utility.yul\":1653:1706   */\n      tag_78\n        /* \"#utility.yul\":1698:1705   */\n      dup6\n        /* \"#utility.yul\":1689:1695   */\n      dup3\n        /* \"#utility.yul\":1678:1687   */\n      dup7\n        /* \"#utility.yul\":1674:1696   */\n      add\n        /* \"#utility.yul\":1653:1706   */\n      tag_52\n      jump\t// in\n    tag_78:\n        /* \"#utility.yul\":1643:1706   */\n      swap3\n      pop\n        /* \"#utility.yul\":1599:1716   */\n      pop\n        /* \"#utility.yul\":1755:1757   */\n      0x20\n        /* \"#utility.yul\":1781:1834   */\n      tag_79\n        /* \"#utility.yul\":1826:1833   */\n      dup6\n        /* \"#utility.yul\":1817:1823   */\n      dup3\n        /* \"#utility.yul\":1806:1815   */\n      dup7\n        /* \"#utility.yul\":1802:1824   */\n      add\n        /* \"#utility.yul\":1781:1834   */\n      tag_52\n      jump\t// in\n    tag_79:\n        /* \"#utility.yul\":1771:1834   */\n      swap2\n      pop\n        /* \"#utility.yul\":1726:1844   */\n      pop\n        /* \"#utility.yul\":1377:1851   */\n      swap3\n      pop\n      swap3\n      swap1\n      pop\n      jump\t// out\n        /* \"#utility.yul\":1857:2026   */\n    tag_54:\n        /* \"#utility.yul\":1941:1952   */\n      0x00\n        /* \"#utility.yul\":1975:1981   */\n      dup3\n        /* \"#utility.yul\":1970:1973   */\n      dup3\n        /* \"#utility.yul\":1963:1982   */\n      mstore\n        /* \"#utility.yul\":2015:2019   */\n      0x20\n        /* \"#utility.yul\":2010:2013   */\n      dup3\n        /* \"#utility.yul\":2006:2020   */\n      add\n        /* \"#utility.yul\":1991:2020   */\n      swap1\n      pop\n        /* \"#utility.yul\":1857:2026   */\n      swap3\n      swap2\n      pop\n      pop\n      jump\t// out\n        /* \"#utility.yul\":2032:2187   */\n    tag_55:\n        /* \"#utility.yul\":2172:2179   */\n      0x78203d2030000000000000000000000000000000000000000000000000000000\n        /* \"#utility.yul\":2168:2169   */\n      0x00\n        /* \"#utility.yul\":2160:2166   */\n      dup3\n        /* \"#utility.yul\":2156:2170   */\n      add\n        /* \"#utility.yul\":2149:2180   */\n      mstore\n        /* \"#utility.yul\":2032:2187   */\n      pop\n      jump\t// out\n        /* \"#utility.yul\":2193:2558   */\n    tag_56:\n        /* \"#utility.yul\":2335:2338   */\n      0x00\n        /* \"#utility.yul\":2356:2422   */\n      tag_83\n        /* \"#utility.yul\":2420:2421   */\n      0x05\n        /* \"#utility.yul\":2415:2418   */\n      dup4\n        /* \"#utility.yul\":2356:2422   */\n      tag_54\n      jump\t// in\n    tag_83:\n        /* \"#utility.yul\":2349:2422   */\n      swap2\n      pop\n        /* \"#utility.yul\":2431:2524   */\n      tag_84\n        /* \"#utility.yul\":2520:2523   */\n      dup3\n        /* \"#utility.yul\":2431:2524   */\n      tag_55\n      jump\t// in\n    tag_84:\n        /* \"#utility.yul\":2549:2551   */\n      0x20\n        /* \"#utility.yul\":2544:2547   */\n      dup3\n        /* \"#utility.yul\":2540:2552   */\n      add\n        /* \"#utility.yul\":2533:2552   */\n      swap1\n      pop\n        /* \"#utility.yul\":2193:2558   */\n      swap2\n      swap1\n      pop\n      jump\t// out\n        /* \"#utility.yul\":2564:2983   */\n    tag_35:\n        /* \"#utility.yul\":2730:2734   */\n      0x00\n        /* \"#utility.yul\":2768:2770   */\n      0x20\n        /* \"#utility.yul\":2757:2766   */\n      dup3\n        /* \"#utility.yul\":2753:2771   */\n      add\n        /* \"#utility.yul\":2745:2771   */\n      swap1\n      pop\n        /* \"#utility.yul\":2817:2826   */\n      dup2\n        /* \"#utility.yul\":2811:2815   */\n      dup2\n        /* \"#utility.yul\":2807:2827   */\n      sub\n        /* \"#utility.yul\":2803:2804   */\n      0x00\n        /* \"#utility.yul\":2792:2801   */\n      dup4\n        /* \"#utility.yul\":2788:2805   */\n      add\n        /* \"#utility.yul\":2781:2828   */\n      mstore\n        /* \"#utility.yul\":2845:2976   */\n      tag_86\n        /* \"#utility.yul\":2971:2975   */\n      dup2\n        /* \"#utility.yul\":2845:2976   */\n      tag_56\n      jump\t// in\n    tag_86:\n        /* \"#utility.yul\":2837:2976   */\n      swap1\n      pop\n        /* \"#utility.yul\":2564:2983   */\n      swap2\n      swap1\n      pop\n      jump\t// out\n\n    auxdata: 0xa2646970667358221220db894a71c20b1b47df85c8df886c1aa9254a35c5ce63547033cdefde041ab26664736f6c63430008160033\n}\n",
				"bytecode": {
					"linkReferences": {},
					"object": "608060405234801561000f575f80fd5b506103578061001d5f395ff3fe608060405234801561000f575f80fd5b506004361061004a575f3560e01c8063188b85b41461004e578063d22b58501461007e578063d39bdcb21461009c578063fd4a8ebb146100cc575b5f80fd5b61006860048036038101906100639190610218565b6100ea565b6040516100759190610252565b60405180910390f35b61008661010c565b6040516100939190610252565b60405180910390f35b6100b660048036038101906100b1919061026b565b61012d565b6040516100c39190610252565b60405180910390f35b6100d46101c0565b6040516100e19190610252565b60405180910390f35b5f60015b828110156101065780820191506001810190506100ee565b50919050565b5f805b600a8110156101295760018201915060018101905061010f565b5090565b5f808311610170576040517f08c379a000000000000000000000000000000000000000000000000000000000815260040161016790610303565b60405180910390fd5b600282061561017d575f80fd5b815f811461018d57839150610192565b600191505b505b60018211156101ba5760028206156101aa575f80fd5b8081029050600282049150610194565b92915050565b5f805b60058110156101dd576001810190506001820191506101c3565b5090565b5f80fd5b5f819050919050565b6101f7816101e5565b8114610201575f80fd5b50565b5f81359050610212816101ee565b92915050565b5f6020828403121561022d5761022c6101e1565b5b5f61023a84828501610204565b91505092915050565b61024c816101e5565b82525050565b5f6020820190506102655f830184610243565b92915050565b5f8060408385031215610281576102806101e1565b5b5f61028e85828601610204565b925050602061029f85828601610204565b9150509250929050565b5f82825260208201905092915050565b7f78203d20300000000000000000000000000000000000000000000000000000005f82015250565b5f6102ed6005836102a9565b91506102f8826102b9565b602082019050919050565b5f6020820190508181035f83015261031a816102e1565b905091905056fea2646970667358221220db894a71c20b1b47df85c8df886c1aa9254a35c5ce63547033cdefde041ab26664736f6c63430008160033",
					"opcodes": "PUSH1 0x80 PUSH1 0x40 MSTORE CALLVALUE DUP1 ISZERO PUSH2 0xF JUMPI PUSH0 DUP1 REVERT JUMPDEST POP PUSH2 0x357 DUP1 PUSH2 0x1D PUSH0 CODECOPY PUSH0 RETURN INVALID PUSH1 0x80 PUSH1 0x40 MSTORE CALLVALUE DUP1 ISZERO PUSH2 0xF JUMPI PUSH0 DUP1 REVERT JUMPDEST POP PUSH1 0x4 CALLDATASIZE LT PUSH2 0x4A JUMPI PUSH0 CALLDATALOAD PUSH1 0xE0 SHR DUP1 PUSH4 0x188B85B4 EQ PUSH2 0x4E JUMPI DUP1 PUSH4 0xD22B5850 EQ PUSH2 0x7E JUMPI DUP1 PUSH4 0xD39BDCB2 EQ PUSH2 0x9C JUMPI DUP1 PUSH4 0xFD4A8EBB EQ PUSH2 0xCC JUMPI JUMPDEST PUSH0 DUP1 REVERT JUMPDEST PUSH2 0x68 PUSH1 0x4 DUP1 CALLDATASIZE SUB DUP2 ADD SWAP1 PUSH2 0x63 SWAP2 SWAP1 PUSH2 0x218 JUMP JUMPDEST PUSH2 0xEA JUMP JUMPDEST PUSH1 0x40 MLOAD PUSH2 0x75 SWAP2 SWAP1 PUSH2 0x252 JUMP JUMPDEST PUSH1 0x40 MLOAD DUP1 SWAP2 SUB SWAP1 RETURN JUMPDEST PUSH2 0x86 PUSH2 0x10C JUMP JUMPDEST PUSH1 0x40 MLOAD PUSH2 0x93 SWAP2 SWAP1 PUSH2 0x252 JUMP JUMPDEST PUSH1 0x40 MLOAD DUP1 SWAP2 SUB SWAP1 RETURN JUMPDEST PUSH2 0xB6 PUSH1 0x4 DUP1 CALLDATASIZE SUB DUP2 ADD SWAP1 PUSH2 0xB1 SWAP2 SWAP1 PUSH2 0x26B JUMP JUMPDEST PUSH2 0x12D JUMP JUMPDEST PUSH1 0x40 MLOAD PUSH2 0xC3 SWAP2 SWAP1 PUSH2 0x252 JUMP JUMPDEST PUSH1 0x40 MLOAD DUP1 SWAP2 SUB SWAP1 RETURN JUMPDEST PUSH2 0xD4 PUSH2 0x1C0 JUMP JUMPDEST PUSH1 0x40 MLOAD PUSH2 0xE1 SWAP2 SWAP1 PUSH2 0x252 JUMP JUMPDEST PUSH1 0x40 MLOAD DUP1 SWAP2 SUB SWAP1 RETURN JUMPDEST PUSH0 PUSH1 0x1 JUMPDEST DUP3 DUP2 LT ISZERO PUSH2 0x106 JUMPI DUP1 DUP3 ADD SWAP2 POP PUSH1 0x1 DUP2 ADD SWAP1 POP PUSH2 0xEE JUMP JUMPDEST POP SWAP2 SWAP1 POP JUMP JUMPDEST PUSH0 DUP1 JUMPDEST PUSH1 0xA DUP2 LT ISZERO PUSH2 0x129 JUMPI PUSH1 0x1 DUP3 ADD SWAP2 POP PUSH1 0x1 DUP2 ADD SWAP1 POP PUSH2 0x10F JUMP JUMPDEST POP SWAP1 JUMP JUMPDEST PUSH0 DUP1 DUP4 GT PUSH2 0x170 JUMPI PUSH1 0x40 MLOAD PUSH32 0x8C379A000000000000000000000000000000000000000000000000000000000 DUP2 MSTORE PUSH1 0x4 ADD PUSH2 0x167 SWAP1 PUSH2 0x303 JUMP JUMPDEST PUSH1 0x40 MLOAD DUP1 SWAP2 SUB SWAP1 REVERT JUMPDEST PUSH1 0x2 DUP3 MOD ISZERO PUSH2 0x17D JUMPI PUSH0 DUP1 REVERT JUMPDEST DUP2 PUSH0 DUP2 EQ PUSH2 0x18D JUMPI DUP4 SWAP2 POP PUSH2 0x192 JUMP JUMPDEST PUSH1 0x1 SWAP2 POP JUMPDEST POP JUMPDEST PUSH1 0x1 DUP3 GT ISZERO PUSH2 0x1BA JUMPI PUSH1 0x2 DUP3 MOD ISZERO PUSH2 0x1AA JUMPI PUSH0 DUP1 REVERT JUMPDEST DUP1 DUP2 MUL SWAP1 POP PUSH1 0x2 DUP3 DIV SWAP2 POP PUSH2 0x194 JUMP JUMPDEST SWAP3 SWAP2 POP POP JUMP JUMPDEST PUSH0 DUP1 JUMPDEST PUSH1 0x5 DUP2 LT ISZERO PUSH2 0x1DD JUMPI PUSH1 0x1 DUP2 ADD SWAP1 POP PUSH1 0x1 DUP3 ADD SWAP2 POP PUSH2 0x1C3 JUMP JUMPDEST POP SWAP1 JUMP JUMPDEST PUSH0 DUP1 REVERT JUMPDEST PUSH0 DUP2 SWAP1 POP SWAP2 SWAP1 POP JUMP JUMPDEST PUSH2 0x1F7 DUP2 PUSH2 0x1E5 JUMP JUMPDEST DUP2 EQ PUSH2 0x201 JUMPI PUSH0 DUP1 REVERT JUMPDEST POP JUMP JUMPDEST PUSH0 DUP2 CALLDATALOAD SWAP1 POP PUSH2 0x212 DUP2 PUSH2 0x1EE JUMP JUMPDEST SWAP3 SWAP2 POP POP JUMP JUMPDEST PUSH0 PUSH1 0x20 DUP3 DUP5 SUB SLT ISZERO PUSH2 0x22D JUMPI PUSH2 0x22C PUSH2 0x1E1 JUMP JUMPDEST JUMPDEST PUSH0 PUSH2 0x23A DUP5 DUP3 DUP6 ADD PUSH2 0x204 JUMP JUMPDEST SWAP2 POP POP SWAP3 SWAP2 POP POP JUMP JUMPDEST PUSH2 0x24C DUP2 PUSH2 0x1E5 JUMP JUMPDEST DUP3 MSTORE POP POP JUMP JUMPDEST PUSH0 PUSH1 0x20 DUP3 ADD SWAP1 POP PUSH2 0x265 PUSH0 DUP4 ADD DUP5 PUSH2 0x243 JUMP JUMPDEST SWAP3 SWAP2 POP POP JUMP JUMPDEST PUSH0 DUP1 PUSH1 0x40 DUP4 DUP6 SUB SLT ISZERO PUSH2 0x281 JUMPI PUSH2 0x280 PUSH2 0x1E1 JUMP JUMPDEST JUMPDEST PUSH0 PUSH2 0x28E DUP6 DUP3 DUP7 ADD PUSH2 0x204 JUMP JUMPDEST SWAP3 POP POP PUSH1 0x20 PUSH2 0x29F DUP6 DUP3 DUP7 ADD PUSH2 0x204 JUMP JUMPDEST SWAP2 POP POP SWAP3 POP SWAP3 SWAP1 POP JUMP JUMPDEST PUSH0 DUP3 DUP3 MSTORE PUSH1 0x20 DUP3 ADD SWAP1 POP SWAP3 SWAP2 POP POP JUMP JUMPDEST PUSH32 0x78203D2030000000000000000000000000000000000000000000000000000000 PUSH0 DUP3 ADD MSTORE POP JUMP JUMPDEST PUSH0 PUSH2 0x2ED PUSH1 0x5 DUP4 PUSH2 0x2A9 JUMP JUMPDEST SWAP2 POP PUSH2 0x2F8 DUP3 PUSH2 0x2B9 JUMP JUMPDEST PUSH1 0x20 DUP3 ADD SWAP1 POP SWAP2 SWAP1 POP JUMP JUMPDEST PUSH0 PUSH1 0x20 DUP3 ADD SWAP1 POP DUP2 DUP2 SUB PUSH0 DUP4 ADD MSTORE PUSH2 0x31A DUP2 PUSH2 0x2E1 JUMP JUMPDEST SWAP1 POP SWAP2 SWAP1 POP JUMP INVALID LOG2 PUSH5 0x6970667358 0x22 SLT KECCAK256 0xDB DUP10 0x4A PUSH18 0xC20B1B47DF85C8DF886C1AA9254A35C5CE63 SLOAD PUSH17 0x33CDEFDE041AB26664736F6C6343000816 STOP CALLER "
				},
				"gasEstimates": {
					"creation": {
						"codeDepositCost": "171000",
						"executionCost": "212",
						"totalCost": "171212"
					},
					"external": {
						"pow2k(uint256,uint256)": "infinite",
						"sum(uint256)": "infinite",
						"yul_for_loop()": "infinite",
						"yul_while_loop()": "infinite"
					}
				},
				"methodIdentifiers": {
					"pow2k(uint256,uint256)": "d39bdcb2",
					"sum(uint256)": "188b85b4",
					"yul_for_loop()": "d22b5850",
					"yul_while_loop()": "fd4a8ebb"
				}
			},
			"storageLayout": {
				"storage": [],
				"types": null
			},
			"userdoc": {
				"kind": "user",
				"methods": {},
				"version": 1
			}
		}
	}
}