{
	"Modules/Solidity/73. Assembly Error.sol": {
		"AssemblyError": {
			"abi": [
				{
					"inputs": [
						{
							"internalType": "uint256",
							"name": "x",
							"type": "uint256"
						}
					],
					"name": "revert_if_zero",
					"outputs": [],
					"stateMutability": "pure",
					"type": "function"
				},
				{
					"inputs": [
						{
							"internalType": "uint256",
							"name": "x",
							"type": "uint256"
						}
					],
					"name": "yul_revert",
					"outputs": [],
					"stateMutability": "pure",
					"type": "function"
				}
			],
			"devdoc": {
				"kind": "dev",
				"methods": {},
				"version": 1
			},
			"evm": {
				"assembly": "    /* \"Modules/Solidity/73. Assembly Error.sol\":57:540  contract AssemblyError {... */\n  mstore(0x40, 0x80)\n  callvalue\n  dup1\n  iszero\n  tag_1\n  jumpi\n  0x00\n  dup1\n  revert\ntag_1:\n  pop\n  dataSize(sub_0)\n  dup1\n  dataOffset(sub_0)\n  0x00\n  codecopy\n  0x00\n  return\nstop\n\nsub_0: assembly {\n        /* \"Modules/Solidity/73. Assembly Error.sol\":57:540  contract AssemblyError {... */\n      mstore(0x40, 0x80)\n      callvalue\n      dup1\n      iszero\n      tag_1\n      jumpi\n      0x00\n      dup1\n      revert\n    tag_1:\n      pop\n      jumpi(tag_2, lt(calldatasize, 0x04))\n      shr(0xe0, calldataload(0x00))\n      dup1\n      0x699f6603\n      eq\n      tag_3\n      jumpi\n      dup1\n      0xd4bbf4bd\n      eq\n      tag_4\n      jumpi\n    tag_2:\n      0x00\n      dup1\n      revert\n        /* \"Modules/Solidity/73. Assembly Error.sol\":86:359  function yul_revert(uint256 x) public pure {... */\n    tag_3:\n      tag_5\n      0x04\n      dup1\n      calldatasize\n      sub\n      dup2\n      add\n      swap1\n      tag_6\n      swap2\n      swap1\n      tag_7\n      jump\t// in\n    tag_6:\n      tag_8\n      jump\t// in\n    tag_5:\n      stop\n        /* \"Modules/Solidity/73. Assembly Error.sol\":365:538  function revert_if_zero(uint256 x) public pure {... */\n    tag_4:\n      tag_9\n      0x04\n      dup1\n      calldatasize\n      sub\n      dup2\n      add\n      swap1\n      tag_10\n      swap2\n      swap1\n      tag_7\n      jump\t// in\n    tag_10:\n      tag_11\n      jump\t// in\n    tag_9:\n      stop\n        /* \"Modules/Solidity/73. Assembly Error.sol\":86:359  function yul_revert(uint256 x) public pure {... */\n    tag_8:\n        /* \"Modules/Solidity/73. Assembly Error.sol\":323:325  10 */\n      0x0a\n        /* \"Modules/Solidity/73. Assembly Error.sol\":320:321  x */\n      dup2\n        /* \"Modules/Solidity/73. Assembly Error.sol\":317:326  gt(x, 10) */\n      gt\n        /* \"Modules/Solidity/73. Assembly Error.sol\":314:343  if gt(x, 10) { revert(0, 0) } */\n      iszero\n      tag_13\n      jumpi\n        /* \"Modules/Solidity/73. Assembly Error.sol\":339:340  0 */\n      0x00\n        /* \"Modules/Solidity/73. Assembly Error.sol\":336:337  0 */\n      dup1\n        /* \"Modules/Solidity/73. Assembly Error.sol\":329:341  revert(0, 0) */\n      revert\n        /* \"Modules/Solidity/73. Assembly Error.sol\":314:343  if gt(x, 10) { revert(0, 0) } */\n    tag_13:\n        /* \"Modules/Solidity/73. Assembly Error.sol\":86:359  function yul_revert(uint256 x) public pure {... */\n      pop\n      jump\t// out\n        /* \"Modules/Solidity/73. Assembly Error.sol\":365:538  function revert_if_zero(uint256 x) public pure {... */\n    tag_11:\n        /* \"Modules/Solidity/73. Assembly Error.sol\":503:504  x */\n      dup1\n        /* \"Modules/Solidity/73. Assembly Error.sol\":493:522  if iszero(x) { revert(0, 0) } */\n      tag_15\n      jumpi\n        /* \"Modules/Solidity/73. Assembly Error.sol\":518:519  0 */\n      0x00\n        /* \"Modules/Solidity/73. Assembly Error.sol\":515:516  0 */\n      dup1\n        /* \"Modules/Solidity/73. Assembly Error.sol\":508:520  revert(0, 0) */\n      revert\n        /* \"Modules/Solidity/73. Assembly Error.sol\":493:522  if iszero(x) { revert(0, 0) } */\n    tag_15:\n        /* \"Modules/Solidity/73. Assembly Error.sol\":365:538  function revert_if_zero(uint256 x) public pure {... */\n      pop\n      jump\t// out\n        /* \"#utility.yul\":88:205   */\n    tag_17:\n        /* \"#utility.yul\":197:198   */\n      0x00\n        /* \"#utility.yul\":194:195   */\n      dup1\n        /* \"#utility.yul\":187:199   */\n      revert\n        /* \"#utility.yul\":334:411   */\n    tag_19:\n        /* \"#utility.yul\":371:378   */\n      0x00\n        /* \"#utility.yul\":400:405   */\n      dup2\n        /* \"#utility.yul\":389:405   */\n      swap1\n      pop\n        /* \"#utility.yul\":334:411   */\n      swap2\n      swap1\n      pop\n      jump\t// out\n        /* \"#utility.yul\":417:539   */\n    tag_20:\n        /* \"#utility.yul\":490:514   */\n      tag_28\n        /* \"#utility.yul\":508:513   */\n      dup2\n        /* \"#utility.yul\":490:514   */\n      tag_19\n      jump\t// in\n    tag_28:\n        /* \"#utility.yul\":483:488   */\n      dup2\n        /* \"#utility.yul\":480:515   */\n      eq\n        /* \"#utility.yul\":470:533   */\n      tag_29\n      jumpi\n        /* \"#utility.yul\":529:530   */\n      0x00\n        /* \"#utility.yul\":526:527   */\n      dup1\n        /* \"#utility.yul\":519:531   */\n      revert\n        /* \"#utility.yul\":470:533   */\n    tag_29:\n        /* \"#utility.yul\":417:539   */\n      pop\n      jump\t// out\n        /* \"#utility.yul\":545:684   */\n    tag_21:\n        /* \"#utility.yul\":591:596   */\n      0x00\n        /* \"#utility.yul\":629:635   */\n      dup2\n        /* \"#utility.yul\":616:636   */\n      calldataload\n        /* \"#utility.yul\":607:636   */\n      swap1\n      pop\n        /* \"#utility.yul\":645:678   */\n      tag_31\n        /* \"#utility.yul\":672:677   */\n      dup2\n        /* \"#utility.yul\":645:678   */\n      tag_20\n      jump\t// in\n    tag_31:\n        /* \"#utility.yul\":545:684   */\n      swap3\n      swap2\n      pop\n      pop\n      jump\t// out\n        /* \"#utility.yul\":690:1019   */\n    tag_7:\n        /* \"#utility.yul\":749:755   */\n      0x00\n        /* \"#utility.yul\":798:800   */\n      0x20\n        /* \"#utility.yul\":786:795   */\n      dup3\n        /* \"#utility.yul\":777:784   */\n      dup5\n        /* \"#utility.yul\":773:796   */\n      sub\n        /* \"#utility.yul\":769:801   */\n      slt\n        /* \"#utility.yul\":766:885   */\n      iszero\n      tag_33\n      jumpi\n        /* \"#utility.yul\":804:883   */\n      tag_34\n      tag_17\n      jump\t// in\n    tag_34:\n        /* \"#utility.yul\":766:885   */\n    tag_33:\n        /* \"#utility.yul\":924:925   */\n      0x00\n        /* \"#utility.yul\":949:1002   */\n      tag_35\n        /* \"#utility.yul\":994:1001   */\n      dup5\n        /* \"#utility.yul\":985:991   */\n      dup3\n        /* \"#utility.yul\":974:983   */\n      dup6\n        /* \"#utility.yul\":970:992   */\n      add\n        /* \"#utility.yul\":949:1002   */\n      tag_21\n      jump\t// in\n    tag_35:\n        /* \"#utility.yul\":939:1002   */\n      swap2\n      pop\n        /* \"#utility.yul\":895:1012   */\n      pop\n        /* \"#utility.yul\":690:1019   */\n      swap3\n      swap2\n      pop\n      pop\n      jump\t// out\n\n    auxdata: 0xa26469706673582212200d2d09b467c525a1bbca3401da9c1f832e9a1a8ac0b599d724225f67b3e2beba64736f6c63430008160033\n}\n",
				"bytecode": {
					"linkReferences": {},
					"object": "608060405234801561000f575f80fd5b5061010c8061001d5f395ff3fe6080604052348015600e575f80fd5b50600436106030575f3560e01c8063699f6603146034578063d4bbf4bd14604c575b5f80fd5b604a60048036038101906046919060b0565b6064565b005b60626004803603810190605e919060b0565b6073565b005b600a8111156070575f80fd5b50565b80607b575f80fd5b50565b5f80fd5b5f819050919050565b6092816082565b8114609b575f80fd5b50565b5f8135905060aa81608b565b92915050565b5f6020828403121560c25760c1607e565b5b5f60cd84828501609e565b9150509291505056fea26469706673582212200d2d09b467c525a1bbca3401da9c1f832e9a1a8ac0b599d724225f67b3e2beba64736f6c63430008160033",
					"opcodes": "PUSH1 0x80 PUSH1 0x40 MSTORE CALLVALUE DUP1 ISZERO PUSH2 0xF JUMPI PUSH0 DUP1 REVERT JUMPDEST POP PUSH2 0x10C DUP1 PUSH2 0x1D PUSH0 CODECOPY PUSH0 RETURN INVALID PUSH1 0x80 PUSH1 0x40 MSTORE CALLVALUE DUP1 ISZERO PUSH1 0xE JUMPI PUSH0 DUP1 REVERT JUMPDEST POP PUSH1 0x4 CALLDATASIZE LT PUSH1 0x30 JUMPI PUSH0 CALLDATALOAD PUSH1 0xE0 SHR DUP1 PUSH4 0x699F6603 EQ PUSH1 0x34 JUMPI DUP1 PUSH4 0xD4BBF4BD EQ PUSH1 0x4C JUMPI JUMPDEST PUSH0 DUP1 REVERT JUMPDEST PUSH1 0x4A PUSH1 0x4 DUP1 CALLDATASIZE SUB DUP2 ADD SWAP1 PUSH1 0x46 SWAP2 SWAP1 PUSH1 0xB0 JUMP JUMPDEST PUSH1 0x64 JUMP JUMPDEST STOP JUMPDEST PUSH1 0x62 PUSH1 0x4 DUP1 CALLDATASIZE SUB DUP2 ADD SWAP1 PUSH1 0x5E SWAP2 SWAP1 PUSH1 0xB0 JUMP JUMPDEST PUSH1 0x73 JUMP JUMPDEST STOP JUMPDEST PUSH1 0xA DUP2 GT ISZERO PUSH1 0x70 JUMPI PUSH0 DUP1 REVERT JUMPDEST POP JUMP JUMPDEST DUP1 PUSH1 0x7B JUMPI PUSH0 DUP1 REVERT JUMPDEST POP JUMP JUMPDEST PUSH0 DUP1 REVERT JUMPDEST PUSH0 DUP2 SWAP1 POP SWAP2 SWAP1 POP JUMP JUMPDEST PUSH1 0x92 DUP2 PUSH1 0x82 JUMP JUMPDEST DUP2 EQ PUSH1 0x9B JUMPI PUSH0 DUP1 REVERT JUMPDEST POP JUMP JUMPDEST PUSH0 DUP2 CALLDATALOAD SWAP1 POP PUSH1 0xAA DUP2 PUSH1 0x8B JUMP JUMPDEST SWAP3 SWAP2 POP POP JUMP JUMPDEST PUSH0 PUSH1 0x20 DUP3 DUP5 SUB SLT ISZERO PUSH1 0xC2 JUMPI PUSH1 0xC1 PUSH1 0x7E JUMP JUMPDEST JUMPDEST PUSH0 PUSH1 0xCD DUP5 DUP3 DUP6 ADD PUSH1 0x9E JUMP JUMPDEST SWAP2 POP POP SWAP3 SWAP2 POP POP JUMP INVALID LOG2 PUSH5 0x6970667358 0x22 SLT KECCAK256 0xD 0x2D MULMOD 0xB4 PUSH8 0xC525A1BBCA3401DA SWAP13 0x1F DUP4 0x2E SWAP11 BYTE DUP11 0xC0 0xB5 SWAP10 0xD7 0x24 0x22 PUSH0 PUSH8 0xB3E2BEBA64736F6C PUSH4 0x43000816 STOP CALLER "
				},
				"gasEstimates": {
					"creation": {
						"codeDepositCost": "53600",
						"executionCost": "103",
						"totalCost": "53703"
					},
					"external": {
						"revert_if_zero(uint256)": "418",
						"yul_revert(uint256)": "405"
					}
				},
				"methodIdentifiers": {
					"revert_if_zero(uint256)": "d4bbf4bd",
					"yul_revert(uint256)": "699f6603"
				}
			},
			"storageLayout": {
				"storage": [],
				"types": null
			},
			"userdoc": {
				"kind": "user",
				"methods": {},
				"version": 1
			}
		}
	}
}