{
	"Modules/Solidity/71. Assembly Variable.sol": {
		"AssemblyVariable": {
			"abi": [
				{
					"inputs": [],
					"name": "hello",
					"outputs": [
						{
							"internalType": "uint256",
							"name": "z",
							"type": "uint256"
						}
					],
					"stateMutability": "pure",
					"type": "function"
				},
				{
					"inputs": [],
					"name": "yul_let",
					"outputs": [
						{
							"internalType": "uint256",
							"name": "z",
							"type": "uint256"
						}
					],
					"stateMutability": "pure",
					"type": "function"
				}
			],
			"devdoc": {
				"kind": "dev",
				"methods": {},
				"version": 1
			},
			"evm": {
				"assembly": "    /* \"Modules/Solidity/71. Assembly Variable.sol\":57:423  contract AssemblyVariable {... */\n  mstore(0x40, 0x80)\n  callvalue\n  dup1\n  iszero\n  tag_1\n  jumpi\n  0x00\n  dup1\n  revert\ntag_1:\n  pop\n  dataSize(sub_0)\n  dup1\n  dataOffset(sub_0)\n  0x00\n  codecopy\n  0x00\n  return\nstop\n\nsub_0: assembly {\n        /* \"Modules/Solidity/71. Assembly Variable.sol\":57:423  contract AssemblyVariable {... */\n      mstore(0x40, 0x80)\n      callvalue\n      dup1\n      iszero\n      tag_1\n      jumpi\n      0x00\n      dup1\n      revert\n    tag_1:\n      pop\n      jumpi(tag_2, lt(calldatasize, 0x04))\n      shr(0xe0, calldataload(0x00))\n      dup1\n      0x19ff1d21\n      eq\n      tag_3\n      jumpi\n      dup1\n      0xfa0de168\n      eq\n      tag_4\n      jumpi\n    tag_2:\n      0x00\n      dup1\n      revert\n        /* \"Modules/Solidity/71. Assembly Variable.sol\":315:421  function hello() public pure returns (uint256 z) {... */\n    tag_3:\n      tag_5\n      tag_6\n      jump\t// in\n    tag_5:\n      mload(0x40)\n      tag_7\n      swap2\n      swap1\n      tag_8\n      jump\t// in\n    tag_7:\n      mload(0x40)\n      dup1\n      swap2\n      sub\n      swap1\n      return\n        /* \"Modules/Solidity/71. Assembly Variable.sol\":89:309  function yul_let() public pure returns (uint256 z) {... */\n    tag_4:\n      tag_9\n      tag_10\n      jump\t// in\n    tag_9:\n      mload(0x40)\n      tag_11\n      swap2\n      swap1\n      tag_8\n      jump\t// in\n    tag_11:\n      mload(0x40)\n      dup1\n      swap2\n      sub\n      swap1\n      return\n        /* \"Modules/Solidity/71. Assembly Variable.sol\":315:421  function hello() public pure returns (uint256 z) {... */\n    tag_6:\n        /* \"Modules/Solidity/71. Assembly Variable.sol\":353:362  uint256 z */\n      0x00\n        /* \"Modules/Solidity/71. Assembly Variable.sol\":402:405  123 */\n      0x7b\n        /* \"Modules/Solidity/71. Assembly Variable.sol\":397:405  z := 123 */\n      swap1\n      pop\n        /* \"Modules/Solidity/71. Assembly Variable.sol\":315:421  function hello() public pure returns (uint256 z) {... */\n      swap1\n      jump\t// out\n        /* \"Modules/Solidity/71. Assembly Variable.sol\":89:309  function yul_let() public pure returns (uint256 z) {... */\n    tag_10:\n        /* \"Modules/Solidity/71. Assembly Variable.sol\":129:138  uint256 z */\n      0x00\n        /* \"Modules/Solidity/71. Assembly Variable.sol\":269:272  123 */\n      0x7b\n        /* \"Modules/Solidity/71. Assembly Variable.sol\":290:293  456 */\n      0x01c8\n        /* \"Modules/Solidity/71. Assembly Variable.sol\":285:293  z := 456 */\n      swap2\n      pop\n        /* \"Modules/Solidity/71. Assembly Variable.sol\":159:303  {... */\n      pop\n        /* \"Modules/Solidity/71. Assembly Variable.sol\":89:309  function yul_let() public pure returns (uint256 z) {... */\n      swap1\n      jump\t// out\n        /* \"#utility.yul\":7:84   */\n    tag_14:\n        /* \"#utility.yul\":44:51   */\n      0x00\n        /* \"#utility.yul\":73:78   */\n      dup2\n        /* \"#utility.yul\":62:78   */\n      swap1\n      pop\n        /* \"#utility.yul\":7:84   */\n      swap2\n      swap1\n      pop\n      jump\t// out\n        /* \"#utility.yul\":90:208   */\n    tag_15:\n        /* \"#utility.yul\":177:201   */\n      tag_19\n        /* \"#utility.yul\":195:200   */\n      dup2\n        /* \"#utility.yul\":177:201   */\n      tag_14\n      jump\t// in\n    tag_19:\n        /* \"#utility.yul\":172:175   */\n      dup3\n        /* \"#utility.yul\":165:202   */\n      mstore\n        /* \"#utility.yul\":90:208   */\n      pop\n      pop\n      jump\t// out\n        /* \"#utility.yul\":214:436   */\n    tag_8:\n        /* \"#utility.yul\":307:311   */\n      0x00\n        /* \"#utility.yul\":345:347   */\n      0x20\n        /* \"#utility.yul\":334:343   */\n      dup3\n        /* \"#utility.yul\":330:348   */\n      add\n        /* \"#utility.yul\":322:348   */\n      swap1\n      pop\n        /* \"#utility.yul\":358:429   */\n      tag_21\n        /* \"#utility.yul\":426:427   */\n      0x00\n        /* \"#utility.yul\":415:424   */\n      dup4\n        /* \"#utility.yul\":411:428   */\n      add\n        /* \"#utility.yul\":402:408   */\n      dup5\n        /* \"#utility.yul\":358:429   */\n      tag_15\n      jump\t// in\n    tag_21:\n        /* \"#utility.yul\":214:436   */\n      swap3\n      swap2\n      pop\n      pop\n      jump\t// out\n\n    auxdata: 0xa2646970667358221220d63b36f5019839213f59711aad665a334fc162557460f14111f3309e665bb1ef64736f6c63430008160033\n}\n",
				"bytecode": {
					"linkReferences": {},
					"object": "608060405234801561000f575f80fd5b5060df8061001c5f395ff3fe6080604052348015600e575f80fd5b50600436106030575f3560e01c806319ff1d21146034578063fa0de16814604e575b5f80fd5b603a6068565b604051604591906092565b60405180910390f35b60546070565b604051605f91906092565b60405180910390f35b5f607b905090565b5f607b6101c891505090565b5f819050919050565b608c81607c565b82525050565b5f60208201905060a35f8301846085565b9291505056fea2646970667358221220d63b36f5019839213f59711aad665a334fc162557460f14111f3309e665bb1ef64736f6c63430008160033",
					"opcodes": "PUSH1 0x80 PUSH1 0x40 MSTORE CALLVALUE DUP1 ISZERO PUSH2 0xF JUMPI PUSH0 DUP1 REVERT JUMPDEST POP PUSH1 0xDF DUP1 PUSH2 0x1C PUSH0 CODECOPY PUSH0 RETURN INVALID PUSH1 0x80 PUSH1 0x40 MSTORE CALLVALUE DUP1 ISZERO PUSH1 0xE JUMPI PUSH0 DUP1 REVERT JUMPDEST POP PUSH1 0x4 CALLDATASIZE LT PUSH1 0x30 JUMPI PUSH0 CALLDATALOAD PUSH1 0xE0 SHR DUP1 PUSH4 0x19FF1D21 EQ PUSH1 0x34 JUMPI DUP1 PUSH4 0xFA0DE168 EQ PUSH1 0x4E JUMPI JUMPDEST PUSH0 DUP1 REVERT JUMPDEST PUSH1 0x3A PUSH1 0x68 JUMP JUMPDEST PUSH1 0x40 MLOAD PUSH1 0x45 SWAP2 SWAP1 PUSH1 0x92 JUMP JUMPDEST PUSH1 0x40 MLOAD DUP1 SWAP2 SUB SWAP1 RETURN JUMPDEST PUSH1 0x54 PUSH1 0x70 JUMP JUMPDEST PUSH1 0x40 MLOAD PUSH1 0x5F SWAP2 SWAP1 PUSH1 0x92 JUMP JUMPDEST PUSH1 0x40 MLOAD DUP1 SWAP2 SUB SWAP1 RETURN JUMPDEST PUSH0 PUSH1 0x7B SWAP1 POP SWAP1 JUMP JUMPDEST PUSH0 PUSH1 0x7B PUSH2 0x1C8 SWAP2 POP POP SWAP1 JUMP JUMPDEST PUSH0 DUP2 SWAP1 POP SWAP2 SWAP1 POP JUMP JUMPDEST PUSH1 0x8C DUP2 PUSH1 0x7C JUMP JUMPDEST DUP3 MSTORE POP POP JUMP JUMPDEST PUSH0 PUSH1 0x20 DUP3 ADD SWAP1 POP PUSH1 0xA3 PUSH0 DUP4 ADD DUP5 PUSH1 0x85 JUMP JUMPDEST SWAP3 SWAP2 POP POP JUMP INVALID LOG2 PUSH5 0x6970667358 0x22 SLT KECCAK256 0xD6 EXTCODESIZE CALLDATASIZE CREATE2 ADD SWAP9 CODECOPY 0x21 EXTCODEHASH MSIZE PUSH18 0x1AAD665A334FC162557460F14111F3309E66 JUMPDEST 0xB1 0xEF PUSH5 0x736F6C6343 STOP ADDMOD AND STOP CALLER "
				},
				"gasEstimates": {
					"creation": {
						"codeDepositCost": "44600",
						"executionCost": "91",
						"totalCost": "44691"
					},
					"external": {
						"hello()": "310",
						"yul_let()": "337"
					}
				},
				"methodIdentifiers": {
					"hello()": "19ff1d21",
					"yul_let()": "fa0de168"
				}
			},
			"storageLayout": {
				"storage": [],
				"types": null
			},
			"userdoc": {
				"kind": "user",
				"methods": {},
				"version": 1
			}
		}
	}
}