{
	"Modules/Solidity/58. Time Lock.sol": {
		"TimeLock": {
			"abi": [
				{
					"inputs": [],
					"stateMutability": "nonpayable",
					"type": "constructor"
				},
				{
					"inputs": [
						{
							"internalType": "bytes32",
							"name": "txId",
							"type": "bytes32"
						}
					],
					"name": "AlreadyQueuedError",
					"type": "error"
				},
				{
					"inputs": [],
					"name": "NotOwnerError",
					"type": "error"
				},
				{
					"inputs": [
						{
							"internalType": "bytes32",
							"name": "txId",
							"type": "bytes32"
						}
					],
					"name": "NotQueuedError",
					"type": "error"
				},
				{
					"inputs": [
						{
							"internalType": "uint256",
							"name": "blockTimestamp",
							"type": "uint256"
						},
						{
							"internalType": "uint256",
							"name": "expiresAt",
							"type": "uint256"
						}
					],
					"name": "TimestampExpiredError",
					"type": "error"
				},
				{
					"inputs": [
						{
							"internalType": "uint256",
							"name": "blockTimestamp",
							"type": "uint256"
						},
						{
							"internalType": "uint256",
							"name": "timestamp",
							"type": "uint256"
						}
					],
					"name": "TimestampNotInRangeError",
					"type": "error"
				},
				{
					"inputs": [
						{
							"internalType": "uint256",
							"name": "blockTimestmap",
							"type": "uint256"
						},
						{
							"internalType": "uint256",
							"name": "timestamp",
							"type": "uint256"
						}
					],
					"name": "TimestampNotPassedError",
					"type": "error"
				},
				{
					"inputs": [],
					"name": "TxFailedError",
					"type": "error"
				},
				{
					"anonymous": false,
					"inputs": [
						{
							"indexed": true,
							"internalType": "bytes32",
							"name": "txId",
							"type": "bytes32"
						}
					],
					"name": "Cancel",
					"type": "event"
				},
				{
					"anonymous": false,
					"inputs": [
						{
							"indexed": true,
							"internalType": "bytes32",
							"name": "txId",
							"type": "bytes32"
						},
						{
							"indexed": true,
							"internalType": "address",
							"name": "target",
							"type": "address"
						},
						{
							"indexed": false,
							"internalType": "uint256",
							"name": "value",
							"type": "uint256"
						},
						{
							"indexed": false,
							"internalType": "string",
							"name": "func",
							"type": "string"
						},
						{
							"indexed": false,
							"internalType": "bytes",
							"name": "data",
							"type": "bytes"
						},
						{
							"indexed": false,
							"internalType": "uint256",
							"name": "timestamp",
							"type": "uint256"
						}
					],
					"name": "Execute",
					"type": "event"
				},
				{
					"anonymous": false,
					"inputs": [
						{
							"indexed": true,
							"internalType": "bytes32",
							"name": "txId",
							"type": "bytes32"
						},
						{
							"indexed": true,
							"internalType": "address",
							"name": "target",
							"type": "address"
						},
						{
							"indexed": false,
							"internalType": "uint256",
							"name": "value",
							"type": "uint256"
						},
						{
							"indexed": false,
							"internalType": "string",
							"name": "func",
							"type": "string"
						},
						{
							"indexed": false,
							"internalType": "bytes",
							"name": "data",
							"type": "bytes"
						},
						{
							"indexed": false,
							"internalType": "uint256",
							"name": "timestamp",
							"type": "uint256"
						}
					],
					"name": "Queue",
					"type": "event"
				},
				{
					"inputs": [],
					"name": "GRACE_PERIOD",
					"outputs": [
						{
							"internalType": "uint256",
							"name": "",
							"type": "uint256"
						}
					],
					"stateMutability": "view",
					"type": "function"
				},
				{
					"inputs": [],
					"name": "MAX_DELAY",
					"outputs": [
						{
							"internalType": "uint256",
							"name": "",
							"type": "uint256"
						}
					],
					"stateMutability": "view",
					"type": "function"
				},
				{
					"inputs": [],
					"name": "MIN_DELAY",
					"outputs": [
						{
							"internalType": "uint256",
							"name": "",
							"type": "uint256"
						}
					],
					"stateMutability": "view",
					"type": "function"
				},
				{
					"inputs": [
						{
							"internalType": "bytes32",
							"name": "txId",
							"type": "bytes32"
						}
					],
					"name": "cancel",
					"outputs": [],
					"stateMutability": "nonpayable",
					"type": "function"
				},
				{
					"inputs": [
						{
							"internalType": "address",
							"name": "target",
							"type": "address"
						},
						{
							"internalType": "uint256",
							"name": "value",
							"type": "uint256"
						},
						{
							"internalType": "string",
							"name": "func",
							"type": "string"
						},
						{
							"internalType": "bytes",
							"name": "data",
							"type": "bytes"
						},
						{
							"internalType": "uint256",
							"name": "timestamp",
							"type": "uint256"
						}
					],
					"name": "execute",
					"outputs": [
						{
							"internalType": "bytes",
							"name": "",
							"type": "bytes"
						}
					],
					"stateMutability": "payable",
					"type": "function"
				},
				{
					"inputs": [
						{
							"internalType": "address",
							"name": "target",
							"type": "address"
						},
						{
							"internalType": "uint256",
							"name": "value",
							"type": "uint256"
						},
						{
							"internalType": "string",
							"name": "func",
							"type": "string"
						},
						{
							"internalType": "bytes",
							"name": "data",
							"type": "bytes"
						},
						{
							"internalType": "uint256",
							"name": "timestamp",
							"type": "uint256"
						}
					],
					"name": "getTxId",
					"outputs": [
						{
							"internalType": "bytes32",
							"name": "",
							"type": "bytes32"
						}
					],
					"stateMutability": "pure",
					"type": "function"
				},
				{
					"inputs": [],
					"name": "owner",
					"outputs": [
						{
							"internalType": "address",
							"name": "",
							"type": "address"
						}
					],
					"stateMutability": "view",
					"type": "function"
				},
				{
					"inputs": [
						{
							"internalType": "address",
							"name": "target",
							"type": "address"
						},
						{
							"internalType": "uint256",
							"name": "value",
							"type": "uint256"
						},
						{
							"internalType": "string",
							"name": "func",
							"type": "string"
						},
						{
							"internalType": "bytes",
							"name": "data",
							"type": "bytes"
						},
						{
							"internalType": "uint256",
							"name": "timestamp",
							"type": "uint256"
						}
					],
					"name": "queue",
					"outputs": [
						{
							"internalType": "bytes32",
							"name": "txId",
							"type": "bytes32"
						}
					],
					"stateMutability": "nonpayable",
					"type": "function"
				},
				{
					"inputs": [
						{
							"internalType": "bytes32",
							"name": "",
							"type": "bytes32"
						}
					],
					"name": "queued",
					"outputs": [
						{
							"internalType": "bool",
							"name": "",
							"type": "bool"
						}
					],
					"stateMutability": "view",
					"type": "function"
				},
				{
					"stateMutability": "payable",
					"type": "receive"
				}
			],
			"devdoc": {
				"kind": "dev",
				"methods": {
					"queue(address,uint256,string,bytes,uint256)": {
						"params": {
							"data": "ABI encoded data send.",
							"func": "Function signature, for example \"foo(address,uint256)\"",
							"target": "Address of contract or account to call",
							"timestamp": "Timestamp after which the transaction can be executed.",
							"value": "Amount of ETH to send"
						}
					}
				},
				"version": 1
			},
			"evm": {
				"assembly": "    /* \"Modules/Solidity/58. Time Lock.sol\":1254:5682  contract TimeLock {... */\n  mstore(0x40, 0x80)\n    /* \"Modules/Solidity/58. Time Lock.sol\":2438:2487  constructor() {... */\n  callvalue\n  dup1\n  iszero\n  tag_1\n  jumpi\n  0x00\n  dup1\n  revert\ntag_1:\n  pop\n    /* \"Modules/Solidity/58. Time Lock.sol\":2470:2480  msg.sender */\n  caller\n    /* \"Modules/Solidity/58. Time Lock.sol\":2462:2467  owner */\n  0x00\n  dup1\n    /* \"Modules/Solidity/58. Time Lock.sol\":2462:2480  owner = msg.sender */\n  0x0100\n  exp\n  dup2\n  sload\n  dup2\n  0xffffffffffffffffffffffffffffffffffffffff\n  mul\n  not\n  and\n  swap1\n  dup4\n  0xffffffffffffffffffffffffffffffffffffffff\n  and\n  mul\n  or\n  swap1\n  sstore\n  pop\n    /* \"Modules/Solidity/58. Time Lock.sol\":1254:5682  contract TimeLock {... */\n  dataSize(sub_0)\n  dup1\n  dataOffset(sub_0)\n  0x00\n  codecopy\n  0x00\n  return\nstop\n\nsub_0: assembly {\n        /* \"Modules/Solidity/58. Time Lock.sol\":1254:5682  contract TimeLock {... */\n      mstore(0x40, 0x80)\n      jumpi(tag_1, lt(calldatasize, 0x04))\n      shr(0xe0, calldataload(0x00))\n      dup1\n      0x8da5cb5b\n      gt\n      tag_12\n      jumpi\n      dup1\n      0x8da5cb5b\n      eq\n      tag_7\n      jumpi\n      dup1\n      0x9f81aed7\n      eq\n      tag_8\n      jumpi\n      dup1\n      0xb0f8b142\n      eq\n      tag_9\n      jumpi\n      dup1\n      0xc1a287e2\n      eq\n      tag_10\n      jumpi\n      dup1\n      0xc4d252f5\n      eq\n      tag_11\n      jumpi\n      jump(tag_2)\n    tag_12:\n      dup1\n      0x228250c9\n      eq\n      tag_3\n      jumpi\n      dup1\n      0x4125ff90\n      eq\n      tag_4\n      jumpi\n      dup1\n      0x4b9915a5\n      eq\n      tag_5\n      jumpi\n      dup1\n      0x8a1ce0b6\n      eq\n      tag_6\n      jumpi\n      jump(tag_2)\n    tag_1:\n      jumpi(tag_2, calldatasize)\n      stop\n    tag_2:\n      0x00\n      dup1\n      revert\n        /* \"Modules/Solidity/58. Time Lock.sol\":2267:2305  mapping(bytes32 => bool) public queued */\n    tag_3:\n      callvalue\n      dup1\n      iszero\n      tag_15\n      jumpi\n      0x00\n      dup1\n      revert\n    tag_15:\n      pop\n      tag_16\n      0x04\n      dup1\n      calldatasize\n      sub\n      dup2\n      add\n      swap1\n      tag_17\n      swap2\n      swap1\n      tag_18\n      jump\t// in\n    tag_17:\n      tag_19\n      jump\t// in\n    tag_16:\n      mload(0x40)\n      tag_20\n      swap2\n      swap1\n      tag_21\n      jump\t// in\n    tag_20:\n      mload(0x40)\n      dup1\n      swap2\n      sub\n      swap1\n      return\n        /* \"Modules/Solidity/58. Time Lock.sol\":2100:2140  uint256 public constant MAX_DELAY = 1000 */\n    tag_4:\n      callvalue\n      dup1\n      iszero\n      tag_22\n      jumpi\n      0x00\n      dup1\n      revert\n    tag_22:\n      pop\n      tag_23\n      tag_24\n      jump\t// in\n    tag_23:\n      mload(0x40)\n      tag_25\n      swap2\n      swap1\n      tag_26\n      jump\t// in\n    tag_25:\n      mload(0x40)\n      dup1\n      swap2\n      sub\n      swap1\n      return\n        /* \"Modules/Solidity/58. Time Lock.sol\":3116:4016  function queue(... */\n    tag_5:\n      callvalue\n      dup1\n      iszero\n      tag_27\n      jumpi\n      0x00\n      dup1\n      revert\n    tag_27:\n      pop\n      tag_28\n      0x04\n      dup1\n      calldatasize\n      sub\n      dup2\n      add\n      swap1\n      tag_29\n      swap2\n      swap1\n      tag_30\n      jump\t// in\n    tag_29:\n      tag_31\n      jump\t// in\n    tag_28:\n      mload(0x40)\n      tag_32\n      swap2\n      swap1\n      tag_33\n      jump\t// in\n    tag_32:\n      mload(0x40)\n      dup1\n      swap2\n      sub\n      swap1\n      return\n        /* \"Modules/Solidity/58. Time Lock.sol\":2528:2797  function getTxId(... */\n    tag_6:\n      callvalue\n      dup1\n      iszero\n      tag_34\n      jumpi\n      0x00\n      dup1\n      revert\n    tag_34:\n      pop\n      tag_35\n      0x04\n      dup1\n      calldatasize\n      sub\n      dup2\n      add\n      swap1\n      tag_36\n      swap2\n      swap1\n      tag_30\n      jump\t// in\n    tag_36:\n      tag_37\n      jump\t// in\n    tag_35:\n      mload(0x40)\n      tag_38\n      swap2\n      swap1\n      tag_33\n      jump\t// in\n    tag_38:\n      mload(0x40)\n      dup1\n      swap2\n      sub\n      swap1\n      return\n        /* \"Modules/Solidity/58. Time Lock.sol\":2218:2238  address public owner */\n    tag_7:\n      callvalue\n      dup1\n      iszero\n      tag_39\n      jumpi\n      0x00\n      dup1\n      revert\n    tag_39:\n      pop\n      tag_40\n      tag_41\n      jump\t// in\n    tag_40:\n      mload(0x40)\n      tag_42\n      swap2\n      swap1\n      tag_43\n      jump\t// in\n    tag_42:\n      mload(0x40)\n      dup1\n      swap2\n      sub\n      swap1\n      return\n        /* \"Modules/Solidity/58. Time Lock.sol\":2045:2083  uint256 public constant MIN_DELAY = 10 */\n    tag_8:\n      callvalue\n      dup1\n      iszero\n      tag_44\n      jumpi\n      0x00\n      dup1\n      revert\n    tag_44:\n      pop\n      tag_45\n      tag_46\n      jump\t// in\n    tag_45:\n      mload(0x40)\n      tag_47\n      swap2\n      swap1\n      tag_26\n      jump\t// in\n    tag_47:\n      mload(0x40)\n      dup1\n      swap2\n      sub\n      swap1\n      return\n        /* \"Modules/Solidity/58. Time Lock.sol\":4022:5464  function execute(... */\n    tag_9:\n      tag_48\n      0x04\n      dup1\n      calldatasize\n      sub\n      dup2\n      add\n      swap1\n      tag_49\n      swap2\n      swap1\n      tag_30\n      jump\t// in\n    tag_49:\n      tag_50\n      jump\t// in\n    tag_48:\n      mload(0x40)\n      tag_51\n      swap2\n      swap1\n      tag_52\n      jump\t// in\n    tag_51:\n      mload(0x40)\n      dup1\n      swap2\n      sub\n      swap1\n      return\n        /* \"Modules/Solidity/58. Time Lock.sol\":2157:2200  uint256 public constant GRACE_PERIOD = 1000 */\n    tag_10:\n      callvalue\n      dup1\n      iszero\n      tag_53\n      jumpi\n      0x00\n      dup1\n      revert\n    tag_53:\n      pop\n      tag_54\n      tag_55\n      jump\t// in\n    tag_54:\n      mload(0x40)\n      tag_56\n      swap2\n      swap1\n      tag_26\n      jump\t// in\n    tag_56:\n      mload(0x40)\n      dup1\n      swap2\n      sub\n      swap1\n      return\n        /* \"Modules/Solidity/58. Time Lock.sol\":5470:5680  function cancel(bytes32 txId) external onlyOwner {... */\n    tag_11:\n      callvalue\n      dup1\n      iszero\n      tag_57\n      jumpi\n      0x00\n      dup1\n      revert\n    tag_57:\n      pop\n      tag_58\n      0x04\n      dup1\n      calldatasize\n      sub\n      dup2\n      add\n      swap1\n      tag_59\n      swap2\n      swap1\n      tag_18\n      jump\t// in\n    tag_59:\n      tag_60\n      jump\t// in\n    tag_58:\n      stop\n        /* \"Modules/Solidity/58. Time Lock.sol\":2267:2305  mapping(bytes32 => bool) public queued */\n    tag_19:\n      mstore(0x20, 0x01)\n      dup1\n      0x00\n      mstore\n      keccak256(0x00, 0x40)\n      0x00\n      swap2\n      pop\n      sload\n      swap1\n      0x0100\n      exp\n      swap1\n      div\n      0xff\n      and\n      dup2\n      jump\t// out\n        /* \"Modules/Solidity/58. Time Lock.sol\":2100:2140  uint256 public constant MAX_DELAY = 1000 */\n    tag_24:\n        /* \"Modules/Solidity/58. Time Lock.sol\":2136:2140  1000 */\n      0x03e8\n        /* \"Modules/Solidity/58. Time Lock.sol\":2100:2140  uint256 public constant MAX_DELAY = 1000 */\n      dup2\n      jump\t// out\n        /* \"Modules/Solidity/58. Time Lock.sol\":3116:4016  function queue(... */\n    tag_31:\n        /* \"Modules/Solidity/58. Time Lock.sol\":3298:3310  bytes32 txId */\n      0x00\n        /* \"Modules/Solidity/58. Time Lock.sol\":2361:2366  owner */\n      dup1\n      0x00\n      swap1\n      sload\n      swap1\n      0x0100\n      exp\n      swap1\n      div\n      0xffffffffffffffffffffffffffffffffffffffff\n      and\n        /* \"Modules/Solidity/58. Time Lock.sol\":2347:2366  msg.sender != owner */\n      0xffffffffffffffffffffffffffffffffffffffff\n      and\n        /* \"Modules/Solidity/58. Time Lock.sol\":2347:2357  msg.sender */\n      caller\n        /* \"Modules/Solidity/58. Time Lock.sol\":2347:2366  msg.sender != owner */\n      0xffffffffffffffffffffffffffffffffffffffff\n      and\n      eq\n        /* \"Modules/Solidity/58. Time Lock.sol\":2343:2415  if (msg.sender != owner) {... */\n      tag_62\n      jumpi\n        /* \"Modules/Solidity/58. Time Lock.sol\":2389:2404  NotOwnerError() */\n      mload(0x40)\n      0x74a2152700000000000000000000000000000000000000000000000000000000\n      dup2\n      mstore\n      0x04\n      add\n      mload(0x40)\n      dup1\n      swap2\n      sub\n      swap1\n      revert\n        /* \"Modules/Solidity/58. Time Lock.sol\":2343:2415  if (msg.sender != owner) {... */\n    tag_62:\n        /* \"Modules/Solidity/58. Time Lock.sol\":3370:3415  getTxId(target, value, func, data, timestamp) */\n      tag_64\n        /* \"Modules/Solidity/58. Time Lock.sol\":3378:3384  target */\n      dup9\n        /* \"Modules/Solidity/58. Time Lock.sol\":3386:3391  value */\n      dup9\n        /* \"Modules/Solidity/58. Time Lock.sol\":3393:3397  func */\n      dup9\n      dup9\n        /* \"Modules/Solidity/58. Time Lock.sol\":3399:3403  data */\n      dup9\n      dup9\n        /* \"Modules/Solidity/58. Time Lock.sol\":3405:3414  timestamp */\n      dup9\n        /* \"Modules/Solidity/58. Time Lock.sol\":3370:3377  getTxId */\n      tag_37\n        /* \"Modules/Solidity/58. Time Lock.sol\":3370:3415  getTxId(target, value, func, data, timestamp) */\n      jump\t// in\n    tag_64:\n        /* \"Modules/Solidity/58. Time Lock.sol\":3363:3415  txId = getTxId(target, value, func, data, timestamp) */\n      swap1\n      pop\n        /* \"Modules/Solidity/58. Time Lock.sol\":3459:3465  queued */\n      0x01\n        /* \"Modules/Solidity/58. Time Lock.sol\":3459:3471  queued[txId] */\n      0x00\n        /* \"Modules/Solidity/58. Time Lock.sol\":3466:3470  txId */\n      dup3\n        /* \"Modules/Solidity/58. Time Lock.sol\":3459:3471  queued[txId] */\n      dup2\n      mstore\n      0x20\n      add\n      swap1\n      dup2\n      mstore\n      0x20\n      add\n      0x00\n      keccak256\n      0x00\n      swap1\n      sload\n      swap1\n      0x0100\n      exp\n      swap1\n      div\n      0xff\n      and\n        /* \"Modules/Solidity/58. Time Lock.sol\":3455:3529  if (queued[txId]) {... */\n      iszero\n      tag_65\n      jumpi\n        /* \"Modules/Solidity/58. Time Lock.sol\":3513:3517  txId */\n      dup1\n        /* \"Modules/Solidity/58. Time Lock.sol\":3494:3518  AlreadyQueuedError(txId) */\n      mload(0x40)\n      0x995042be00000000000000000000000000000000000000000000000000000000\n      dup2\n      mstore\n      0x04\n      add\n      tag_66\n      swap2\n      swap1\n      tag_33\n      jump\t// in\n    tag_66:\n      mload(0x40)\n      dup1\n      swap2\n      sub\n      swap1\n      revert\n        /* \"Modules/Solidity/58. Time Lock.sol\":3455:3529  if (queued[txId]) {... */\n    tag_65:\n        /* \"Modules/Solidity/58. Time Lock.sol\":2081:2083  10 */\n      0x0a\n        /* \"Modules/Solidity/58. Time Lock.sol\":3742:3757  block.timestamp */\n      timestamp\n        /* \"Modules/Solidity/58. Time Lock.sol\":3742:3769  block.timestamp + MIN_DELAY */\n      tag_67\n      swap2\n      swap1\n      tag_68\n      jump\t// in\n    tag_67:\n        /* \"Modules/Solidity/58. Time Lock.sol\":3730:3739  timestamp */\n      dup3\n        /* \"Modules/Solidity/58. Time Lock.sol\":3730:3769  timestamp < block.timestamp + MIN_DELAY */\n      lt\n        /* \"Modules/Solidity/58. Time Lock.sol\":3730:3812  timestamp < block.timestamp + MIN_DELAY || timestamp > block.timestamp + MAX_DELAY */\n      dup1\n      tag_69\n      jumpi\n      pop\n        /* \"Modules/Solidity/58. Time Lock.sol\":2136:2140  1000 */\n      0x03e8\n        /* \"Modules/Solidity/58. Time Lock.sol\":3785:3800  block.timestamp */\n      timestamp\n        /* \"Modules/Solidity/58. Time Lock.sol\":3785:3812  block.timestamp + MAX_DELAY */\n      tag_70\n      swap2\n      swap1\n      tag_68\n      jump\t// in\n    tag_70:\n        /* \"Modules/Solidity/58. Time Lock.sol\":3773:3782  timestamp */\n      dup3\n        /* \"Modules/Solidity/58. Time Lock.sol\":3773:3812  timestamp > block.timestamp + MAX_DELAY */\n      gt\n        /* \"Modules/Solidity/58. Time Lock.sol\":3730:3812  timestamp < block.timestamp + MIN_DELAY || timestamp > block.timestamp + MAX_DELAY */\n    tag_69:\n        /* \"Modules/Solidity/58. Time Lock.sol\":3726:3898  if (timestamp < block.timestamp + MIN_DELAY || timestamp > block.timestamp + MAX_DELAY) {... */\n      iszero\n      tag_71\n      jumpi\n        /* \"Modules/Solidity/58. Time Lock.sol\":3860:3875  block.timestamp */\n      timestamp\n        /* \"Modules/Solidity/58. Time Lock.sol\":3877:3886  timestamp */\n      dup3\n        /* \"Modules/Solidity/58. Time Lock.sol\":3835:3887  TimestampNotInRangeError(block.timestamp, timestamp) */\n      mload(0x40)\n      0x1a9616c200000000000000000000000000000000000000000000000000000000\n      dup2\n      mstore\n      0x04\n      add\n      tag_72\n      swap3\n      swap2\n      swap1\n      tag_73\n      jump\t// in\n    tag_72:\n      mload(0x40)\n      dup1\n      swap2\n      sub\n      swap1\n      revert\n        /* \"Modules/Solidity/58. Time Lock.sol\":3726:3898  if (timestamp < block.timestamp + MIN_DELAY || timestamp > block.timestamp + MAX_DELAY) {... */\n    tag_71:\n        /* \"Modules/Solidity/58. Time Lock.sol\":3941:3945  true */\n      0x01\n        /* \"Modules/Solidity/58. Time Lock.sol\":3926:3932  queued */\n      dup1\n        /* \"Modules/Solidity/58. Time Lock.sol\":3926:3938  queued[txId] */\n      0x00\n        /* \"Modules/Solidity/58. Time Lock.sol\":3933:3937  txId */\n      dup4\n        /* \"Modules/Solidity/58. Time Lock.sol\":3926:3938  queued[txId] */\n      dup2\n      mstore\n      0x20\n      add\n      swap1\n      dup2\n      mstore\n      0x20\n      add\n      0x00\n      keccak256\n      0x00\n        /* \"Modules/Solidity/58. Time Lock.sol\":3926:3945  queued[txId] = true */\n      0x0100\n      exp\n      dup2\n      sload\n      dup2\n      0xff\n      mul\n      not\n      and\n      swap1\n      dup4\n      iszero\n      iszero\n      mul\n      or\n      swap1\n      sstore\n      pop\n        /* \"Modules/Solidity/58. Time Lock.sol\":3972:3978  target */\n      dup8\n        /* \"Modules/Solidity/58. Time Lock.sol\":3960:4009  Queue(txId, target, value, func, data, timestamp) */\n      0xffffffffffffffffffffffffffffffffffffffff\n      and\n        /* \"Modules/Solidity/58. Time Lock.sol\":3966:3970  txId */\n      dup2\n        /* \"Modules/Solidity/58. Time Lock.sol\":3960:4009  Queue(txId, target, value, func, data, timestamp) */\n      0x3c22f47140594040d205a5533cfedd86c9ab8622c39ead03affb2d97052c794c\n        /* \"Modules/Solidity/58. Time Lock.sol\":3980:3985  value */\n      dup10\n        /* \"Modules/Solidity/58. Time Lock.sol\":3987:3991  func */\n      dup10\n      dup10\n        /* \"Modules/Solidity/58. Time Lock.sol\":3993:3997  data */\n      dup10\n      dup10\n        /* \"Modules/Solidity/58. Time Lock.sol\":3999:4008  timestamp */\n      dup10\n        /* \"Modules/Solidity/58. Time Lock.sol\":3960:4009  Queue(txId, target, value, func, data, timestamp) */\n      mload(0x40)\n      tag_74\n      swap7\n      swap6\n      swap5\n      swap4\n      swap3\n      swap2\n      swap1\n      tag_75\n      jump\t// in\n    tag_74:\n      mload(0x40)\n      dup1\n      swap2\n      sub\n      swap1\n      log3\n        /* \"Modules/Solidity/58. Time Lock.sol\":3116:4016  function queue(... */\n      swap8\n      swap7\n      pop\n      pop\n      pop\n      pop\n      pop\n      pop\n      pop\n      jump\t// out\n        /* \"Modules/Solidity/58. Time Lock.sol\":2528:2797  function getTxId(... */\n    tag_37:\n        /* \"Modules/Solidity/58. Time Lock.sol\":2705:2712  bytes32 */\n      0x00\n        /* \"Modules/Solidity/58. Time Lock.sol\":2752:2758  target */\n      dup8\n        /* \"Modules/Solidity/58. Time Lock.sol\":2760:2765  value */\n      dup8\n        /* \"Modules/Solidity/58. Time Lock.sol\":2767:2771  func */\n      dup8\n      dup8\n        /* \"Modules/Solidity/58. Time Lock.sol\":2773:2777  data */\n      dup8\n      dup8\n        /* \"Modules/Solidity/58. Time Lock.sol\":2779:2788  timestamp */\n      dup8\n        /* \"Modules/Solidity/58. Time Lock.sol\":2741:2789  abi.encode(target, value, func, data, timestamp) */\n      add(0x20, mload(0x40))\n      tag_77\n      swap8\n      swap7\n      swap6\n      swap5\n      swap4\n      swap3\n      swap2\n      swap1\n      tag_78\n      jump\t// in\n    tag_77:\n      mload(0x40)\n      0x20\n      dup2\n      dup4\n      sub\n      sub\n      dup2\n      mstore\n      swap1\n      0x40\n      mstore\n        /* \"Modules/Solidity/58. Time Lock.sol\":2731:2790  keccak256(abi.encode(target, value, func, data, timestamp)) */\n      dup1\n      mload\n      swap1\n      0x20\n      add\n      keccak256\n        /* \"Modules/Solidity/58. Time Lock.sol\":2724:2790  return keccak256(abi.encode(target, value, func, data, timestamp)) */\n      swap1\n      pop\n        /* \"Modules/Solidity/58. Time Lock.sol\":2528:2797  function getTxId(... */\n      swap8\n      swap7\n      pop\n      pop\n      pop\n      pop\n      pop\n      pop\n      pop\n      jump\t// out\n        /* \"Modules/Solidity/58. Time Lock.sol\":2218:2238  address public owner */\n    tag_41:\n      0x00\n      dup1\n      sload\n      swap1\n      0x0100\n      exp\n      swap1\n      div\n      0xffffffffffffffffffffffffffffffffffffffff\n      and\n      dup2\n      jump\t// out\n        /* \"Modules/Solidity/58. Time Lock.sol\":2045:2083  uint256 public constant MIN_DELAY = 10 */\n    tag_46:\n        /* \"Modules/Solidity/58. Time Lock.sol\":2081:2083  10 */\n      0x0a\n        /* \"Modules/Solidity/58. Time Lock.sol\":2045:2083  uint256 public constant MIN_DELAY = 10 */\n      dup2\n      jump\t// out\n        /* \"Modules/Solidity/58. Time Lock.sol\":4022:5464  function execute(... */\n    tag_50:\n        /* \"Modules/Solidity/58. Time Lock.sol\":4214:4226  bytes memory */\n      0x60\n        /* \"Modules/Solidity/58. Time Lock.sol\":2361:2366  owner */\n      0x00\n      dup1\n      sload\n      swap1\n      0x0100\n      exp\n      swap1\n      div\n      0xffffffffffffffffffffffffffffffffffffffff\n      and\n        /* \"Modules/Solidity/58. Time Lock.sol\":2347:2366  msg.sender != owner */\n      0xffffffffffffffffffffffffffffffffffffffff\n      and\n        /* \"Modules/Solidity/58. Time Lock.sol\":2347:2357  msg.sender */\n      caller\n        /* \"Modules/Solidity/58. Time Lock.sol\":2347:2366  msg.sender != owner */\n      0xffffffffffffffffffffffffffffffffffffffff\n      and\n      eq\n        /* \"Modules/Solidity/58. Time Lock.sol\":2343:2415  if (msg.sender != owner) {... */\n      tag_80\n      jumpi\n        /* \"Modules/Solidity/58. Time Lock.sol\":2389:2404  NotOwnerError() */\n      mload(0x40)\n      0x74a2152700000000000000000000000000000000000000000000000000000000\n      dup2\n      mstore\n      0x04\n      add\n      mload(0x40)\n      dup1\n      swap2\n      sub\n      swap1\n      revert\n        /* \"Modules/Solidity/58. Time Lock.sol\":2343:2415  if (msg.sender != owner) {... */\n    tag_80:\n        /* \"Modules/Solidity/58. Time Lock.sol\":4254:4266  bytes32 txId */\n      0x00\n        /* \"Modules/Solidity/58. Time Lock.sol\":4269:4314  getTxId(target, value, func, data, timestamp) */\n      tag_82\n        /* \"Modules/Solidity/58. Time Lock.sol\":4277:4283  target */\n      dup10\n        /* \"Modules/Solidity/58. Time Lock.sol\":4285:4290  value */\n      dup10\n        /* \"Modules/Solidity/58. Time Lock.sol\":4292:4296  func */\n      dup10\n      dup10\n        /* \"Modules/Solidity/58. Time Lock.sol\":4298:4302  data */\n      dup10\n      dup10\n        /* \"Modules/Solidity/58. Time Lock.sol\":4304:4313  timestamp */\n      dup10\n        /* \"Modules/Solidity/58. Time Lock.sol\":4269:4276  getTxId */\n      tag_37\n        /* \"Modules/Solidity/58. Time Lock.sol\":4269:4314  getTxId(target, value, func, data, timestamp) */\n      jump\t// in\n    tag_82:\n        /* \"Modules/Solidity/58. Time Lock.sol\":4254:4314  bytes32 txId = getTxId(target, value, func, data, timestamp) */\n      swap1\n      pop\n        /* \"Modules/Solidity/58. Time Lock.sol\":4362:4368  queued */\n      0x01\n        /* \"Modules/Solidity/58. Time Lock.sol\":4362:4374  queued[txId] */\n      0x00\n        /* \"Modules/Solidity/58. Time Lock.sol\":4369:4373  txId */\n      dup3\n        /* \"Modules/Solidity/58. Time Lock.sol\":4362:4374  queued[txId] */\n      dup2\n      mstore\n      0x20\n      add\n      swap1\n      dup2\n      mstore\n      0x20\n      add\n      0x00\n      keccak256\n      0x00\n      swap1\n      sload\n      swap1\n      0x0100\n      exp\n      swap1\n      div\n      0xff\n      and\n        /* \"Modules/Solidity/58. Time Lock.sol\":4357:4428  if (!queued[txId]) {... */\n      tag_83\n      jumpi\n        /* \"Modules/Solidity/58. Time Lock.sol\":4412:4416  txId */\n      dup1\n        /* \"Modules/Solidity/58. Time Lock.sol\":4397:4417  NotQueuedError(txId) */\n      mload(0x40)\n      0x0995c9d500000000000000000000000000000000000000000000000000000000\n      dup2\n      mstore\n      0x04\n      add\n      tag_84\n      swap2\n      swap1\n      tag_33\n      jump\t// in\n    tag_84:\n      mload(0x40)\n      dup1\n      swap2\n      sub\n      swap1\n      revert\n        /* \"Modules/Solidity/58. Time Lock.sol\":4357:4428  if (!queued[txId]) {... */\n    tag_83:\n        /* \"Modules/Solidity/58. Time Lock.sol\":4503:4512  timestamp */\n      dup3\n        /* \"Modules/Solidity/58. Time Lock.sol\":4485:4500  block.timestamp */\n      timestamp\n        /* \"Modules/Solidity/58. Time Lock.sol\":4485:4512  block.timestamp < timestamp */\n      lt\n        /* \"Modules/Solidity/58. Time Lock.sol\":4481:4597  if (block.timestamp < timestamp) {... */\n      iszero\n      tag_85\n      jumpi\n        /* \"Modules/Solidity/58. Time Lock.sol\":4559:4574  block.timestamp */\n      timestamp\n        /* \"Modules/Solidity/58. Time Lock.sol\":4576:4585  timestamp */\n      dup4\n        /* \"Modules/Solidity/58. Time Lock.sol\":4535:4586  TimestampNotPassedError(block.timestamp, timestamp) */\n      mload(0x40)\n      0x035fce5b00000000000000000000000000000000000000000000000000000000\n      dup2\n      mstore\n      0x04\n      add\n      tag_86\n      swap3\n      swap2\n      swap1\n      tag_73\n      jump\t// in\n    tag_86:\n      mload(0x40)\n      dup1\n      swap2\n      sub\n      swap1\n      revert\n        /* \"Modules/Solidity/58. Time Lock.sol\":4481:4597  if (block.timestamp < timestamp) {... */\n    tag_85:\n        /* \"Modules/Solidity/58. Time Lock.sol\":2196:2200  1000 */\n      0x03e8\n        /* \"Modules/Solidity/58. Time Lock.sol\":4786:4795  timestamp */\n      dup4\n        /* \"Modules/Solidity/58. Time Lock.sol\":4786:4810  timestamp + GRACE_PERIOD */\n      tag_87\n      swap2\n      swap1\n      tag_68\n      jump\t// in\n    tag_87:\n        /* \"Modules/Solidity/58. Time Lock.sol\":4768:4783  block.timestamp */\n      timestamp\n        /* \"Modules/Solidity/58. Time Lock.sol\":4768:4810  block.timestamp > timestamp + GRACE_PERIOD */\n      gt\n        /* \"Modules/Solidity/58. Time Lock.sol\":4764:4908  if (block.timestamp > timestamp + GRACE_PERIOD) {... */\n      iszero\n      tag_88\n      jumpi\n        /* \"Modules/Solidity/58. Time Lock.sol\":4855:4870  block.timestamp */\n      timestamp\n        /* \"Modules/Solidity/58. Time Lock.sol\":2196:2200  1000 */\n      0x03e8\n        /* \"Modules/Solidity/58. Time Lock.sol\":4872:4881  timestamp */\n      dup5\n        /* \"Modules/Solidity/58. Time Lock.sol\":4872:4896  timestamp + GRACE_PERIOD */\n      tag_89\n      swap2\n      swap1\n      tag_68\n      jump\t// in\n    tag_89:\n        /* \"Modules/Solidity/58. Time Lock.sol\":4833:4897  TimestampExpiredError(block.timestamp, timestamp + GRACE_PERIOD) */\n      mload(0x40)\n      0x92ae26d100000000000000000000000000000000000000000000000000000000\n      dup2\n      mstore\n      0x04\n      add\n      tag_90\n      swap3\n      swap2\n      swap1\n      tag_73\n      jump\t// in\n    tag_90:\n      mload(0x40)\n      dup1\n      swap2\n      sub\n      swap1\n      revert\n        /* \"Modules/Solidity/58. Time Lock.sol\":4764:4908  if (block.timestamp > timestamp + GRACE_PERIOD) {... */\n    tag_88:\n        /* \"Modules/Solidity/58. Time Lock.sol\":4941:4946  false */\n      0x00\n        /* \"Modules/Solidity/58. Time Lock.sol\":4926:4932  queued */\n      0x01\n        /* \"Modules/Solidity/58. Time Lock.sol\":4926:4938  queued[txId] */\n      0x00\n        /* \"Modules/Solidity/58. Time Lock.sol\":4933:4937  txId */\n      dup4\n        /* \"Modules/Solidity/58. Time Lock.sol\":4926:4938  queued[txId] */\n      dup2\n      mstore\n      0x20\n      add\n      swap1\n      dup2\n      mstore\n      0x20\n      add\n      0x00\n      keccak256\n      0x00\n        /* \"Modules/Solidity/58. Time Lock.sol\":4926:4946  queued[txId] = false */\n      0x0100\n      exp\n      dup2\n      sload\n      dup2\n      0xff\n      mul\n      not\n      and\n      swap1\n      dup4\n      iszero\n      iszero\n      mul\n      or\n      swap1\n      sstore\n      pop\n        /* \"Modules/Solidity/58. Time Lock.sol\":4957:4971  bytes memory d */\n      0x60\n        /* \"Modules/Solidity/58. Time Lock.sol\":5006:5007  0 */\n      0x00\n        /* \"Modules/Solidity/58. Time Lock.sol\":4991:4995  func */\n      dup9\n      dup9\n        /* \"Modules/Solidity/58. Time Lock.sol\":4985:5003  bytes(func).length */\n      swap1\n      pop\n        /* \"Modules/Solidity/58. Time Lock.sol\":4985:5007  bytes(func).length > 0 */\n      gt\n        /* \"Modules/Solidity/58. Time Lock.sol\":4981:5201  if (bytes(func).length > 0 ) { // if we have some function... */\n      iszero\n      tag_91\n      jumpi\n        /* \"Modules/Solidity/58. Time Lock.sol\":5136:5140  func */\n      dup8\n      dup8\n        /* \"Modules/Solidity/58. Time Lock.sol\":5120:5142  keccak256(bytes(func)) */\n      mload(0x40)\n      tag_92\n      swap3\n      swap2\n      swap1\n      tag_93\n      jump\t// in\n    tag_92:\n      mload(0x40)\n      dup1\n      swap2\n      sub\n      swap1\n      keccak256\n        /* \"Modules/Solidity/58. Time Lock.sol\":5145:5149  data */\n      dup7\n      dup7\n        /* \"Modules/Solidity/58. Time Lock.sol\":5096:5150  abi.encodePacked(bytes4(keccak256(bytes(func))), data) */\n      add(0x20, mload(0x40))\n      tag_94\n      swap4\n      swap3\n      swap2\n      swap1\n      tag_95\n      jump\t// in\n    tag_94:\n      mload(0x40)\n      0x20\n      dup2\n      dup4\n      sub\n      sub\n      dup2\n      mstore\n      swap1\n      0x40\n      mstore\n        /* \"Modules/Solidity/58. Time Lock.sol\":5092:5150  d = abi.encodePacked(bytes4(keccak256(bytes(func))), data) */\n      swap1\n      pop\n        /* \"Modules/Solidity/58. Time Lock.sol\":4981:5201  if (bytes(func).length > 0 ) { // if we have some function... */\n      jump(tag_96)\n    tag_91:\n        /* \"Modules/Solidity/58. Time Lock.sol\":5186:5190  data */\n      dup6\n      dup6\n        /* \"Modules/Solidity/58. Time Lock.sol\":5182:5190  d = data */\n      dup1\n      dup1\n      0x1f\n      add\n      0x20\n      dup1\n      swap2\n      div\n      mul\n      0x20\n      add\n      mload(0x40)\n      swap1\n      dup2\n      add\n      0x40\n      mstore\n      dup1\n      swap4\n      swap3\n      swap2\n      swap1\n      dup2\n      dup2\n      mstore\n      0x20\n      add\n      dup4\n      dup4\n      dup1\n      dup3\n      dup5\n      calldatacopy\n      0x00\n      dup2\n      dup5\n      add\n      mstore\n      not(0x1f)\n      0x1f\n      dup3\n      add\n      and\n      swap1\n      pop\n      dup1\n      dup4\n      add\n      swap3\n      pop\n      pop\n      pop\n      pop\n      pop\n      pop\n      pop\n      swap1\n      pop\n        /* \"Modules/Solidity/58. Time Lock.sol\":4981:5201  if (bytes(func).length > 0 ) { // if we have some function... */\n    tag_96:\n        /* \"Modules/Solidity/58. Time Lock.sol\":5237:5249  bool success */\n      0x00\n        /* \"Modules/Solidity/58. Time Lock.sol\":5251:5267  bytes memory res */\n      dup1\n        /* \"Modules/Solidity/58. Time Lock.sol\":5271:5277  target */\n      dup12\n        /* \"Modules/Solidity/58. Time Lock.sol\":5271:5282  target.call */\n      0xffffffffffffffffffffffffffffffffffffffff\n      and\n        /* \"Modules/Solidity/58. Time Lock.sol\":5290:5295  value */\n      dup12\n        /* \"Modules/Solidity/58. Time Lock.sol\":5297:5298  d */\n      dup5\n        /* \"Modules/Solidity/58. Time Lock.sol\":5271:5299  target.call{value: value}(d) */\n      mload(0x40)\n      tag_97\n      swap2\n      swap1\n      tag_98\n      jump\t// in\n    tag_97:\n      0x00\n      mload(0x40)\n      dup1\n      dup4\n      sub\n      dup2\n      dup6\n      dup8\n      gas\n      call\n      swap3\n      pop\n      pop\n      pop\n      returndatasize\n      dup1\n      0x00\n      dup2\n      eq\n      tag_101\n      jumpi\n      mload(0x40)\n      swap2\n      pop\n      and(add(returndatasize, 0x3f), not(0x1f))\n      dup3\n      add\n      0x40\n      mstore\n      returndatasize\n      dup3\n      mstore\n      returndatasize\n      0x00\n      0x20\n      dup5\n      add\n      returndatacopy\n      jump(tag_100)\n    tag_101:\n      0x60\n      swap2\n      pop\n    tag_100:\n      pop\n        /* \"Modules/Solidity/58. Time Lock.sol\":5236:5299  (bool success, bytes memory res) = target.call{value: value}(d) */\n      swap2\n      pop\n      swap2\n      pop\n        /* \"Modules/Solidity/58. Time Lock.sol\":5314:5321  success */\n      dup2\n        /* \"Modules/Solidity/58. Time Lock.sol\":5309:5370  if (!success) {... */\n      tag_102\n      jumpi\n        /* \"Modules/Solidity/58. Time Lock.sol\":5344:5359  TxFailedError() */\n      mload(0x40)\n      0xd9b4f81e00000000000000000000000000000000000000000000000000000000\n      dup2\n      mstore\n      0x04\n      add\n      mload(0x40)\n      dup1\n      swap2\n      sub\n      swap1\n      revert\n        /* \"Modules/Solidity/58. Time Lock.sol\":5309:5370  if (!success) {... */\n    tag_102:\n        /* \"Modules/Solidity/58. Time Lock.sol\":5398:5404  target */\n      dup12\n        /* \"Modules/Solidity/58. Time Lock.sol\":5384:5436  Execute(txId, target, value, func, data , timestamp) */\n      0xffffffffffffffffffffffffffffffffffffffff\n      and\n        /* \"Modules/Solidity/58. Time Lock.sol\":5392:5396  txId */\n      dup5\n        /* \"Modules/Solidity/58. Time Lock.sol\":5384:5436  Execute(txId, target, value, func, data , timestamp) */\n      0xd1d5c3c892c18716bd88852091d1b63dc6849e9d7c37f69d566884bf954d4bd9\n        /* \"Modules/Solidity/58. Time Lock.sol\":5406:5411  value */\n      dup14\n        /* \"Modules/Solidity/58. Time Lock.sol\":5413:5417  func */\n      dup14\n      dup14\n        /* \"Modules/Solidity/58. Time Lock.sol\":5419:5423  data */\n      dup14\n      dup14\n        /* \"Modules/Solidity/58. Time Lock.sol\":5426:5435  timestamp */\n      dup14\n        /* \"Modules/Solidity/58. Time Lock.sol\":5384:5436  Execute(txId, target, value, func, data , timestamp) */\n      mload(0x40)\n      tag_103\n      swap7\n      swap6\n      swap5\n      swap4\n      swap3\n      swap2\n      swap1\n      tag_75\n      jump\t// in\n    tag_103:\n      mload(0x40)\n      dup1\n      swap2\n      sub\n      swap1\n      log3\n        /* \"Modules/Solidity/58. Time Lock.sol\":5453:5456  res */\n      dup1\n        /* \"Modules/Solidity/58. Time Lock.sol\":5446:5456  return res */\n      swap5\n      pop\n      pop\n      pop\n      pop\n      pop\n        /* \"Modules/Solidity/58. Time Lock.sol\":4022:5464  function execute(... */\n      swap8\n      swap7\n      pop\n      pop\n      pop\n      pop\n      pop\n      pop\n      pop\n      jump\t// out\n        /* \"Modules/Solidity/58. Time Lock.sol\":2157:2200  uint256 public constant GRACE_PERIOD = 1000 */\n    tag_55:\n        /* \"Modules/Solidity/58. Time Lock.sol\":2196:2200  1000 */\n      0x03e8\n        /* \"Modules/Solidity/58. Time Lock.sol\":2157:2200  uint256 public constant GRACE_PERIOD = 1000 */\n      dup2\n      jump\t// out\n        /* \"Modules/Solidity/58. Time Lock.sol\":5470:5680  function cancel(bytes32 txId) external onlyOwner {... */\n    tag_60:\n        /* \"Modules/Solidity/58. Time Lock.sol\":2361:2366  owner */\n      0x00\n      dup1\n      sload\n      swap1\n      0x0100\n      exp\n      swap1\n      div\n      0xffffffffffffffffffffffffffffffffffffffff\n      and\n        /* \"Modules/Solidity/58. Time Lock.sol\":2347:2366  msg.sender != owner */\n      0xffffffffffffffffffffffffffffffffffffffff\n      and\n        /* \"Modules/Solidity/58. Time Lock.sol\":2347:2357  msg.sender */\n      caller\n        /* \"Modules/Solidity/58. Time Lock.sol\":2347:2366  msg.sender != owner */\n      0xffffffffffffffffffffffffffffffffffffffff\n      and\n      eq\n        /* \"Modules/Solidity/58. Time Lock.sol\":2343:2415  if (msg.sender != owner) {... */\n      tag_105\n      jumpi\n        /* \"Modules/Solidity/58. Time Lock.sol\":2389:2404  NotOwnerError() */\n      mload(0x40)\n      0x74a2152700000000000000000000000000000000000000000000000000000000\n      dup2\n      mstore\n      0x04\n      add\n      mload(0x40)\n      dup1\n      swap2\n      sub\n      swap1\n      revert\n        /* \"Modules/Solidity/58. Time Lock.sol\":2343:2415  if (msg.sender != owner) {... */\n    tag_105:\n        /* \"Modules/Solidity/58. Time Lock.sol\":5550:5556  queued */\n      0x01\n        /* \"Modules/Solidity/58. Time Lock.sol\":5550:5562  queued[txId] */\n      0x00\n        /* \"Modules/Solidity/58. Time Lock.sol\":5557:5561  txId */\n      dup3\n        /* \"Modules/Solidity/58. Time Lock.sol\":5550:5562  queued[txId] */\n      dup2\n      mstore\n      0x20\n      add\n      swap1\n      dup2\n      mstore\n      0x20\n      add\n      0x00\n      keccak256\n      0x00\n      swap1\n      sload\n      swap1\n      0x0100\n      exp\n      swap1\n      div\n      0xff\n      and\n        /* \"Modules/Solidity/58. Time Lock.sol\":5545:5616  if (!queued[txId]) {... */\n      tag_107\n      jumpi\n        /* \"Modules/Solidity/58. Time Lock.sol\":5600:5604  txId */\n      dup1\n        /* \"Modules/Solidity/58. Time Lock.sol\":5585:5605  NotQueuedError(txId) */\n      mload(0x40)\n      0x0995c9d500000000000000000000000000000000000000000000000000000000\n      dup2\n      mstore\n      0x04\n      add\n      tag_108\n      swap2\n      swap1\n      tag_33\n      jump\t// in\n    tag_108:\n      mload(0x40)\n      dup1\n      swap2\n      sub\n      swap1\n      revert\n        /* \"Modules/Solidity/58. Time Lock.sol\":5545:5616  if (!queued[txId]) {... */\n    tag_107:\n        /* \"Modules/Solidity/58. Time Lock.sol\":5640:5645  false */\n      0x00\n        /* \"Modules/Solidity/58. Time Lock.sol\":5625:5631  queued */\n      0x01\n        /* \"Modules/Solidity/58. Time Lock.sol\":5625:5637  queued[txId] */\n      0x00\n        /* \"Modules/Solidity/58. Time Lock.sol\":5632:5636  txId */\n      dup4\n        /* \"Modules/Solidity/58. Time Lock.sol\":5625:5637  queued[txId] */\n      dup2\n      mstore\n      0x20\n      add\n      swap1\n      dup2\n      mstore\n      0x20\n      add\n      0x00\n      keccak256\n      0x00\n        /* \"Modules/Solidity/58. Time Lock.sol\":5625:5645  queued[txId] = false */\n      0x0100\n      exp\n      dup2\n      sload\n      dup2\n      0xff\n      mul\n      not\n      and\n      swap1\n      dup4\n      iszero\n      iszero\n      mul\n      or\n      swap1\n      sstore\n      pop\n        /* \"Modules/Solidity/58. Time Lock.sol\":5667:5671  txId */\n      dup1\n        /* \"Modules/Solidity/58. Time Lock.sol\":5660:5672  Cancel(txId) */\n      0xe8d9861dbc9c663ed3accd261bbe2fe01e0d3d9e5f51fa38523b265c7757a93a\n      mload(0x40)\n      mload(0x40)\n      dup1\n      swap2\n      sub\n      swap1\n      log2\n        /* \"Modules/Solidity/58. Time Lock.sol\":5470:5680  function cancel(bytes32 txId) external onlyOwner {... */\n      pop\n      jump\t// out\n        /* \"#utility.yul\":88:205   */\n    tag_110:\n        /* \"#utility.yul\":197:198   */\n      0x00\n        /* \"#utility.yul\":194:195   */\n      dup1\n        /* \"#utility.yul\":187:199   */\n      revert\n        /* \"#utility.yul\":211:328   */\n    tag_111:\n        /* \"#utility.yul\":320:321   */\n      0x00\n        /* \"#utility.yul\":317:318   */\n      dup1\n        /* \"#utility.yul\":310:322   */\n      revert\n        /* \"#utility.yul\":334:411   */\n    tag_112:\n        /* \"#utility.yul\":371:378   */\n      0x00\n        /* \"#utility.yul\":400:405   */\n      dup2\n        /* \"#utility.yul\":389:405   */\n      swap1\n      pop\n        /* \"#utility.yul\":334:411   */\n      swap2\n      swap1\n      pop\n      jump\t// out\n        /* \"#utility.yul\":417:539   */\n    tag_113:\n        /* \"#utility.yul\":490:514   */\n      tag_154\n        /* \"#utility.yul\":508:513   */\n      dup2\n        /* \"#utility.yul\":490:514   */\n      tag_112\n      jump\t// in\n    tag_154:\n        /* \"#utility.yul\":483:488   */\n      dup2\n        /* \"#utility.yul\":480:515   */\n      eq\n        /* \"#utility.yul\":470:533   */\n      tag_155\n      jumpi\n        /* \"#utility.yul\":529:530   */\n      0x00\n        /* \"#utility.yul\":526:527   */\n      dup1\n        /* \"#utility.yul\":519:531   */\n      revert\n        /* \"#utility.yul\":470:533   */\n    tag_155:\n        /* \"#utility.yul\":417:539   */\n      pop\n      jump\t// out\n        /* \"#utility.yul\":545:684   */\n    tag_114:\n        /* \"#utility.yul\":591:596   */\n      0x00\n        /* \"#utility.yul\":629:635   */\n      dup2\n        /* \"#utility.yul\":616:636   */\n      calldataload\n        /* \"#utility.yul\":607:636   */\n      swap1\n      pop\n        /* \"#utility.yul\":645:678   */\n      tag_157\n        /* \"#utility.yul\":672:677   */\n      dup2\n        /* \"#utility.yul\":645:678   */\n      tag_113\n      jump\t// in\n    tag_157:\n        /* \"#utility.yul\":545:684   */\n      swap3\n      swap2\n      pop\n      pop\n      jump\t// out\n        /* \"#utility.yul\":690:1019   */\n    tag_18:\n        /* \"#utility.yul\":749:755   */\n      0x00\n        /* \"#utility.yul\":798:800   */\n      0x20\n        /* \"#utility.yul\":786:795   */\n      dup3\n        /* \"#utility.yul\":777:784   */\n      dup5\n        /* \"#utility.yul\":773:796   */\n      sub\n        /* \"#utility.yul\":769:801   */\n      slt\n        /* \"#utility.yul\":766:885   */\n      iszero\n      tag_159\n      jumpi\n        /* \"#utility.yul\":804:883   */\n      tag_160\n      tag_110\n      jump\t// in\n    tag_160:\n        /* \"#utility.yul\":766:885   */\n    tag_159:\n        /* \"#utility.yul\":924:925   */\n      0x00\n        /* \"#utility.yul\":949:1002   */\n      tag_161\n        /* \"#utility.yul\":994:1001   */\n      dup5\n        /* \"#utility.yul\":985:991   */\n      dup3\n        /* \"#utility.yul\":974:983   */\n      dup6\n        /* \"#utility.yul\":970:992   */\n      add\n        /* \"#utility.yul\":949:1002   */\n      tag_114\n      jump\t// in\n    tag_161:\n        /* \"#utility.yul\":939:1002   */\n      swap2\n      pop\n        /* \"#utility.yul\":895:1012   */\n      pop\n        /* \"#utility.yul\":690:1019   */\n      swap3\n      swap2\n      pop\n      pop\n      jump\t// out\n        /* \"#utility.yul\":1025:1115   */\n    tag_115:\n        /* \"#utility.yul\":1059:1066   */\n      0x00\n        /* \"#utility.yul\":1102:1107   */\n      dup2\n        /* \"#utility.yul\":1095:1108   */\n      iszero\n        /* \"#utility.yul\":1088:1109   */\n      iszero\n        /* \"#utility.yul\":1077:1109   */\n      swap1\n      pop\n        /* \"#utility.yul\":1025:1115   */\n      swap2\n      swap1\n      pop\n      jump\t// out\n        /* \"#utility.yul\":1121:1230   */\n    tag_116:\n        /* \"#utility.yul\":1202:1223   */\n      tag_164\n        /* \"#utility.yul\":1217:1222   */\n      dup2\n        /* \"#utility.yul\":1202:1223   */\n      tag_115\n      jump\t// in\n    tag_164:\n        /* \"#utility.yul\":1197:1200   */\n      dup3\n        /* \"#utility.yul\":1190:1224   */\n      mstore\n        /* \"#utility.yul\":1121:1230   */\n      pop\n      pop\n      jump\t// out\n        /* \"#utility.yul\":1236:1446   */\n    tag_21:\n        /* \"#utility.yul\":1323:1327   */\n      0x00\n        /* \"#utility.yul\":1361:1363   */\n      0x20\n        /* \"#utility.yul\":1350:1359   */\n      dup3\n        /* \"#utility.yul\":1346:1364   */\n      add\n        /* \"#utility.yul\":1338:1364   */\n      swap1\n      pop\n        /* \"#utility.yul\":1374:1439   */\n      tag_166\n        /* \"#utility.yul\":1436:1437   */\n      0x00\n        /* \"#utility.yul\":1425:1434   */\n      dup4\n        /* \"#utility.yul\":1421:1438   */\n      add\n        /* \"#utility.yul\":1412:1418   */\n      dup5\n        /* \"#utility.yul\":1374:1439   */\n      tag_116\n      jump\t// in\n    tag_166:\n        /* \"#utility.yul\":1236:1446   */\n      swap3\n      swap2\n      pop\n      pop\n      jump\t// out\n        /* \"#utility.yul\":1452:1529   */\n    tag_117:\n        /* \"#utility.yul\":1489:1496   */\n      0x00\n        /* \"#utility.yul\":1518:1523   */\n      dup2\n        /* \"#utility.yul\":1507:1523   */\n      swap1\n      pop\n        /* \"#utility.yul\":1452:1529   */\n      swap2\n      swap1\n      pop\n      jump\t// out\n        /* \"#utility.yul\":1535:1653   */\n    tag_118:\n        /* \"#utility.yul\":1622:1646   */\n      tag_169\n        /* \"#utility.yul\":1640:1645   */\n      dup2\n        /* \"#utility.yul\":1622:1646   */\n      tag_117\n      jump\t// in\n    tag_169:\n        /* \"#utility.yul\":1617:1620   */\n      dup3\n        /* \"#utility.yul\":1610:1647   */\n      mstore\n        /* \"#utility.yul\":1535:1653   */\n      pop\n      pop\n      jump\t// out\n        /* \"#utility.yul\":1659:1881   */\n    tag_26:\n        /* \"#utility.yul\":1752:1756   */\n      0x00\n        /* \"#utility.yul\":1790:1792   */\n      0x20\n        /* \"#utility.yul\":1779:1788   */\n      dup3\n        /* \"#utility.yul\":1775:1793   */\n      add\n        /* \"#utility.yul\":1767:1793   */\n      swap1\n      pop\n        /* \"#utility.yul\":1803:1874   */\n      tag_171\n        /* \"#utility.yul\":1871:1872   */\n      0x00\n        /* \"#utility.yul\":1860:1869   */\n      dup4\n        /* \"#utility.yul\":1856:1873   */\n      add\n        /* \"#utility.yul\":1847:1853   */\n      dup5\n        /* \"#utility.yul\":1803:1874   */\n      tag_118\n      jump\t// in\n    tag_171:\n        /* \"#utility.yul\":1659:1881   */\n      swap3\n      swap2\n      pop\n      pop\n      jump\t// out\n        /* \"#utility.yul\":1887:2013   */\n    tag_119:\n        /* \"#utility.yul\":1924:1931   */\n      0x00\n        /* \"#utility.yul\":1964:2006   */\n      0xffffffffffffffffffffffffffffffffffffffff\n        /* \"#utility.yul\":1957:1962   */\n      dup3\n        /* \"#utility.yul\":1953:2007   */\n      and\n        /* \"#utility.yul\":1942:2007   */\n      swap1\n      pop\n        /* \"#utility.yul\":1887:2013   */\n      swap2\n      swap1\n      pop\n      jump\t// out\n        /* \"#utility.yul\":2019:2115   */\n    tag_120:\n        /* \"#utility.yul\":2056:2063   */\n      0x00\n        /* \"#utility.yul\":2085:2109   */\n      tag_174\n        /* \"#utility.yul\":2103:2108   */\n      dup3\n        /* \"#utility.yul\":2085:2109   */\n      tag_119\n      jump\t// in\n    tag_174:\n        /* \"#utility.yul\":2074:2109   */\n      swap1\n      pop\n        /* \"#utility.yul\":2019:2115   */\n      swap2\n      swap1\n      pop\n      jump\t// out\n        /* \"#utility.yul\":2121:2243   */\n    tag_121:\n        /* \"#utility.yul\":2194:2218   */\n      tag_176\n        /* \"#utility.yul\":2212:2217   */\n      dup2\n        /* \"#utility.yul\":2194:2218   */\n      tag_120\n      jump\t// in\n    tag_176:\n        /* \"#utility.yul\":2187:2192   */\n      dup2\n        /* \"#utility.yul\":2184:2219   */\n      eq\n        /* \"#utility.yul\":2174:2237   */\n      tag_177\n      jumpi\n        /* \"#utility.yul\":2233:2234   */\n      0x00\n        /* \"#utility.yul\":2230:2231   */\n      dup1\n        /* \"#utility.yul\":2223:2235   */\n      revert\n        /* \"#utility.yul\":2174:2237   */\n    tag_177:\n        /* \"#utility.yul\":2121:2243   */\n      pop\n      jump\t// out\n        /* \"#utility.yul\":2249:2388   */\n    tag_122:\n        /* \"#utility.yul\":2295:2300   */\n      0x00\n        /* \"#utility.yul\":2333:2339   */\n      dup2\n        /* \"#utility.yul\":2320:2340   */\n      calldataload\n        /* \"#utility.yul\":2311:2340   */\n      swap1\n      pop\n        /* \"#utility.yul\":2349:2382   */\n      tag_179\n        /* \"#utility.yul\":2376:2381   */\n      dup2\n        /* \"#utility.yul\":2349:2382   */\n      tag_121\n      jump\t// in\n    tag_179:\n        /* \"#utility.yul\":2249:2388   */\n      swap3\n      swap2\n      pop\n      pop\n      jump\t// out\n        /* \"#utility.yul\":2394:2516   */\n    tag_123:\n        /* \"#utility.yul\":2467:2491   */\n      tag_181\n        /* \"#utility.yul\":2485:2490   */\n      dup2\n        /* \"#utility.yul\":2467:2491   */\n      tag_117\n      jump\t// in\n    tag_181:\n        /* \"#utility.yul\":2460:2465   */\n      dup2\n        /* \"#utility.yul\":2457:2492   */\n      eq\n        /* \"#utility.yul\":2447:2510   */\n      tag_182\n      jumpi\n        /* \"#utility.yul\":2506:2507   */\n      0x00\n        /* \"#utility.yul\":2503:2504   */\n      dup1\n        /* \"#utility.yul\":2496:2508   */\n      revert\n        /* \"#utility.yul\":2447:2510   */\n    tag_182:\n        /* \"#utility.yul\":2394:2516   */\n      pop\n      jump\t// out\n        /* \"#utility.yul\":2522:2661   */\n    tag_124:\n        /* \"#utility.yul\":2568:2573   */\n      0x00\n        /* \"#utility.yul\":2606:2612   */\n      dup2\n        /* \"#utility.yul\":2593:2613   */\n      calldataload\n        /* \"#utility.yul\":2584:2613   */\n      swap1\n      pop\n        /* \"#utility.yul\":2622:2655   */\n      tag_184\n        /* \"#utility.yul\":2649:2654   */\n      dup2\n        /* \"#utility.yul\":2622:2655   */\n      tag_123\n      jump\t// in\n    tag_184:\n        /* \"#utility.yul\":2522:2661   */\n      swap3\n      swap2\n      pop\n      pop\n      jump\t// out\n        /* \"#utility.yul\":2667:2784   */\n    tag_125:\n        /* \"#utility.yul\":2776:2777   */\n      0x00\n        /* \"#utility.yul\":2773:2774   */\n      dup1\n        /* \"#utility.yul\":2766:2778   */\n      revert\n        /* \"#utility.yul\":2790:2907   */\n    tag_126:\n        /* \"#utility.yul\":2899:2900   */\n      0x00\n        /* \"#utility.yul\":2896:2897   */\n      dup1\n        /* \"#utility.yul\":2889:2901   */\n      revert\n        /* \"#utility.yul\":2913:3030   */\n    tag_127:\n        /* \"#utility.yul\":3022:3023   */\n      0x00\n        /* \"#utility.yul\":3019:3020   */\n      dup1\n        /* \"#utility.yul\":3012:3024   */\n      revert\n        /* \"#utility.yul\":3050:3603   */\n    tag_128:\n        /* \"#utility.yul\":3108:3116   */\n      0x00\n        /* \"#utility.yul\":3118:3124   */\n      dup1\n        /* \"#utility.yul\":3168:3171   */\n      dup4\n        /* \"#utility.yul\":3161:3165   */\n      0x1f\n        /* \"#utility.yul\":3153:3159   */\n      dup5\n        /* \"#utility.yul\":3149:3166   */\n      add\n        /* \"#utility.yul\":3145:3172   */\n      slt\n        /* \"#utility.yul\":3135:3257   */\n      tag_189\n      jumpi\n        /* \"#utility.yul\":3176:3255   */\n      tag_190\n      tag_125\n      jump\t// in\n    tag_190:\n        /* \"#utility.yul\":3135:3257   */\n    tag_189:\n        /* \"#utility.yul\":3289:3295   */\n      dup3\n        /* \"#utility.yul\":3276:3296   */\n      calldataload\n        /* \"#utility.yul\":3266:3296   */\n      swap1\n      pop\n        /* \"#utility.yul\":3319:3337   */\n      0xffffffffffffffff\n        /* \"#utility.yul\":3311:3317   */\n      dup2\n        /* \"#utility.yul\":3308:3338   */\n      gt\n        /* \"#utility.yul\":3305:3422   */\n      iszero\n      tag_191\n      jumpi\n        /* \"#utility.yul\":3341:3420   */\n      tag_192\n      tag_126\n      jump\t// in\n    tag_192:\n        /* \"#utility.yul\":3305:3422   */\n    tag_191:\n        /* \"#utility.yul\":3455:3459   */\n      0x20\n        /* \"#utility.yul\":3447:3453   */\n      dup4\n        /* \"#utility.yul\":3443:3460   */\n      add\n        /* \"#utility.yul\":3431:3460   */\n      swap2\n      pop\n        /* \"#utility.yul\":3509:3512   */\n      dup4\n        /* \"#utility.yul\":3501:3505   */\n      0x01\n        /* \"#utility.yul\":3493:3499   */\n      dup3\n        /* \"#utility.yul\":3489:3506   */\n      mul\n        /* \"#utility.yul\":3479:3487   */\n      dup4\n        /* \"#utility.yul\":3475:3507   */\n      add\n        /* \"#utility.yul\":3472:3513   */\n      gt\n        /* \"#utility.yul\":3469:3597   */\n      iszero\n      tag_193\n      jumpi\n        /* \"#utility.yul\":3516:3595   */\n      tag_194\n      tag_127\n      jump\t// in\n    tag_194:\n        /* \"#utility.yul\":3469:3597   */\n    tag_193:\n        /* \"#utility.yul\":3050:3603   */\n      swap3\n      pop\n      swap3\n      swap1\n      pop\n      jump\t// out\n        /* \"#utility.yul\":3622:4174   */\n    tag_129:\n        /* \"#utility.yul\":3679:3687   */\n      0x00\n        /* \"#utility.yul\":3689:3695   */\n      dup1\n        /* \"#utility.yul\":3739:3742   */\n      dup4\n        /* \"#utility.yul\":3732:3736   */\n      0x1f\n        /* \"#utility.yul\":3724:3730   */\n      dup5\n        /* \"#utility.yul\":3720:3737   */\n      add\n        /* \"#utility.yul\":3716:3743   */\n      slt\n        /* \"#utility.yul\":3706:3828   */\n      tag_196\n      jumpi\n        /* \"#utility.yul\":3747:3826   */\n      tag_197\n      tag_125\n      jump\t// in\n    tag_197:\n        /* \"#utility.yul\":3706:3828   */\n    tag_196:\n        /* \"#utility.yul\":3860:3866   */\n      dup3\n        /* \"#utility.yul\":3847:3867   */\n      calldataload\n        /* \"#utility.yul\":3837:3867   */\n      swap1\n      pop\n        /* \"#utility.yul\":3890:3908   */\n      0xffffffffffffffff\n        /* \"#utility.yul\":3882:3888   */\n      dup2\n        /* \"#utility.yul\":3879:3909   */\n      gt\n        /* \"#utility.yul\":3876:3993   */\n      iszero\n      tag_198\n      jumpi\n        /* \"#utility.yul\":3912:3991   */\n      tag_199\n      tag_126\n      jump\t// in\n    tag_199:\n        /* \"#utility.yul\":3876:3993   */\n    tag_198:\n        /* \"#utility.yul\":4026:4030   */\n      0x20\n        /* \"#utility.yul\":4018:4024   */\n      dup4\n        /* \"#utility.yul\":4014:4031   */\n      add\n        /* \"#utility.yul\":4002:4031   */\n      swap2\n      pop\n        /* \"#utility.yul\":4080:4083   */\n      dup4\n        /* \"#utility.yul\":4072:4076   */\n      0x01\n        /* \"#utility.yul\":4064:4070   */\n      dup3\n        /* \"#utility.yul\":4060:4077   */\n      mul\n        /* \"#utility.yul\":4050:4058   */\n      dup4\n        /* \"#utility.yul\":4046:4078   */\n      add\n        /* \"#utility.yul\":4043:4084   */\n      gt\n        /* \"#utility.yul\":4040:4168   */\n      iszero\n      tag_200\n      jumpi\n        /* \"#utility.yul\":4087:4166   */\n      tag_201\n      tag_127\n      jump\t// in\n    tag_201:\n        /* \"#utility.yul\":4040:4168   */\n    tag_200:\n        /* \"#utility.yul\":3622:4174   */\n      swap3\n      pop\n      swap3\n      swap1\n      pop\n      jump\t// out\n        /* \"#utility.yul\":4180:5489   */\n    tag_30:\n        /* \"#utility.yul\":4298:4304   */\n      0x00\n        /* \"#utility.yul\":4306:4312   */\n      dup1\n        /* \"#utility.yul\":4314:4320   */\n      0x00\n        /* \"#utility.yul\":4322:4328   */\n      dup1\n        /* \"#utility.yul\":4330:4336   */\n      0x00\n        /* \"#utility.yul\":4338:4344   */\n      dup1\n        /* \"#utility.yul\":4346:4352   */\n      0x00\n        /* \"#utility.yul\":4395:4398   */\n      0xa0\n        /* \"#utility.yul\":4383:4392   */\n      dup9\n        /* \"#utility.yul\":4374:4381   */\n      dup11\n        /* \"#utility.yul\":4370:4393   */\n      sub\n        /* \"#utility.yul\":4366:4399   */\n      slt\n        /* \"#utility.yul\":4363:4483   */\n      iszero\n      tag_203\n      jumpi\n        /* \"#utility.yul\":4402:4481   */\n      tag_204\n      tag_110\n      jump\t// in\n    tag_204:\n        /* \"#utility.yul\":4363:4483   */\n    tag_203:\n        /* \"#utility.yul\":4522:4523   */\n      0x00\n        /* \"#utility.yul\":4547:4600   */\n      tag_205\n        /* \"#utility.yul\":4592:4599   */\n      dup11\n        /* \"#utility.yul\":4583:4589   */\n      dup3\n        /* \"#utility.yul\":4572:4581   */\n      dup12\n        /* \"#utility.yul\":4568:4590   */\n      add\n        /* \"#utility.yul\":4547:4600   */\n      tag_122\n      jump\t// in\n    tag_205:\n        /* \"#utility.yul\":4537:4600   */\n      swap8\n      pop\n        /* \"#utility.yul\":4493:4610   */\n      pop\n        /* \"#utility.yul\":4649:4651   */\n      0x20\n        /* \"#utility.yul\":4675:4728   */\n      tag_206\n        /* \"#utility.yul\":4720:4727   */\n      dup11\n        /* \"#utility.yul\":4711:4717   */\n      dup3\n        /* \"#utility.yul\":4700:4709   */\n      dup12\n        /* \"#utility.yul\":4696:4718   */\n      add\n        /* \"#utility.yul\":4675:4728   */\n      tag_124\n      jump\t// in\n    tag_206:\n        /* \"#utility.yul\":4665:4728   */\n      swap7\n      pop\n        /* \"#utility.yul\":4620:4738   */\n      pop\n        /* \"#utility.yul\":4805:4807   */\n      0x40\n        /* \"#utility.yul\":4794:4803   */\n      dup9\n        /* \"#utility.yul\":4790:4808   */\n      add\n        /* \"#utility.yul\":4777:4809   */\n      calldataload\n        /* \"#utility.yul\":4836:4854   */\n      0xffffffffffffffff\n        /* \"#utility.yul\":4828:4834   */\n      dup2\n        /* \"#utility.yul\":4825:4855   */\n      gt\n        /* \"#utility.yul\":4822:4939   */\n      iszero\n      tag_207\n      jumpi\n        /* \"#utility.yul\":4858:4937   */\n      tag_208\n      tag_111\n      jump\t// in\n    tag_208:\n        /* \"#utility.yul\":4822:4939   */\n    tag_207:\n        /* \"#utility.yul\":4971:5036   */\n      tag_209\n        /* \"#utility.yul\":5028:5035   */\n      dup11\n        /* \"#utility.yul\":5019:5025   */\n      dup3\n        /* \"#utility.yul\":5008:5017   */\n      dup12\n        /* \"#utility.yul\":5004:5026   */\n      add\n        /* \"#utility.yul\":4971:5036   */\n      tag_128\n      jump\t// in\n    tag_209:\n        /* \"#utility.yul\":4953:5036   */\n      swap6\n      pop\n      swap6\n      pop\n        /* \"#utility.yul\":4748:5046   */\n      pop\n        /* \"#utility.yul\":5113:5115   */\n      0x60\n        /* \"#utility.yul\":5102:5111   */\n      dup9\n        /* \"#utility.yul\":5098:5116   */\n      add\n        /* \"#utility.yul\":5085:5117   */\n      calldataload\n        /* \"#utility.yul\":5144:5162   */\n      0xffffffffffffffff\n        /* \"#utility.yul\":5136:5142   */\n      dup2\n        /* \"#utility.yul\":5133:5163   */\n      gt\n        /* \"#utility.yul\":5130:5247   */\n      iszero\n      tag_210\n      jumpi\n        /* \"#utility.yul\":5166:5245   */\n      tag_211\n      tag_111\n      jump\t// in\n    tag_211:\n        /* \"#utility.yul\":5130:5247   */\n    tag_210:\n        /* \"#utility.yul\":5279:5343   */\n      tag_212\n        /* \"#utility.yul\":5335:5342   */\n      dup11\n        /* \"#utility.yul\":5326:5332   */\n      dup3\n        /* \"#utility.yul\":5315:5324   */\n      dup12\n        /* \"#utility.yul\":5311:5333   */\n      add\n        /* \"#utility.yul\":5279:5343   */\n      tag_129\n      jump\t// in\n    tag_212:\n        /* \"#utility.yul\":5261:5343   */\n      swap4\n      pop\n      swap4\n      pop\n        /* \"#utility.yul\":5056:5353   */\n      pop\n        /* \"#utility.yul\":5392:5395   */\n      0x80\n        /* \"#utility.yul\":5419:5472   */\n      tag_213\n        /* \"#utility.yul\":5464:5471   */\n      dup11\n        /* \"#utility.yul\":5455:5461   */\n      dup3\n        /* \"#utility.yul\":5444:5453   */\n      dup12\n        /* \"#utility.yul\":5440:5462   */\n      add\n        /* \"#utility.yul\":5419:5472   */\n      tag_124\n      jump\t// in\n    tag_213:\n        /* \"#utility.yul\":5409:5472   */\n      swap2\n      pop\n        /* \"#utility.yul\":5363:5482   */\n      pop\n        /* \"#utility.yul\":4180:5489   */\n      swap3\n      swap6\n      swap9\n      swap2\n      swap5\n      swap8\n      pop\n      swap3\n      swap6\n      pop\n      jump\t// out\n        /* \"#utility.yul\":5495:5613   */\n    tag_130:\n        /* \"#utility.yul\":5582:5606   */\n      tag_215\n        /* \"#utility.yul\":5600:5605   */\n      dup2\n        /* \"#utility.yul\":5582:5606   */\n      tag_112\n      jump\t// in\n    tag_215:\n        /* \"#utility.yul\":5577:5580   */\n      dup3\n        /* \"#utility.yul\":5570:5607   */\n      mstore\n        /* \"#utility.yul\":5495:5613   */\n      pop\n      pop\n      jump\t// out\n        /* \"#utility.yul\":5619:5841   */\n    tag_33:\n        /* \"#utility.yul\":5712:5716   */\n      0x00\n        /* \"#utility.yul\":5750:5752   */\n      0x20\n        /* \"#utility.yul\":5739:5748   */\n      dup3\n        /* \"#utility.yul\":5735:5753   */\n      add\n        /* \"#utility.yul\":5727:5753   */\n      swap1\n      pop\n        /* \"#utility.yul\":5763:5834   */\n      tag_217\n        /* \"#utility.yul\":5831:5832   */\n      0x00\n        /* \"#utility.yul\":5820:5829   */\n      dup4\n        /* \"#utility.yul\":5816:5833   */\n      add\n        /* \"#utility.yul\":5807:5813   */\n      dup5\n        /* \"#utility.yul\":5763:5834   */\n      tag_130\n      jump\t// in\n    tag_217:\n        /* \"#utility.yul\":5619:5841   */\n      swap3\n      swap2\n      pop\n      pop\n      jump\t// out\n        /* \"#utility.yul\":5847:5965   */\n    tag_131:\n        /* \"#utility.yul\":5934:5958   */\n      tag_219\n        /* \"#utility.yul\":5952:5957   */\n      dup2\n        /* \"#utility.yul\":5934:5958   */\n      tag_120\n      jump\t// in\n    tag_219:\n        /* \"#utility.yul\":5929:5932   */\n      dup3\n        /* \"#utility.yul\":5922:5959   */\n      mstore\n        /* \"#utility.yul\":5847:5965   */\n      pop\n      pop\n      jump\t// out\n        /* \"#utility.yul\":5971:6193   */\n    tag_43:\n        /* \"#utility.yul\":6064:6068   */\n      0x00\n        /* \"#utility.yul\":6102:6104   */\n      0x20\n        /* \"#utility.yul\":6091:6100   */\n      dup3\n        /* \"#utility.yul\":6087:6105   */\n      add\n        /* \"#utility.yul\":6079:6105   */\n      swap1\n      pop\n        /* \"#utility.yul\":6115:6186   */\n      tag_221\n        /* \"#utility.yul\":6183:6184   */\n      0x00\n        /* \"#utility.yul\":6172:6181   */\n      dup4\n        /* \"#utility.yul\":6168:6185   */\n      add\n        /* \"#utility.yul\":6159:6165   */\n      dup5\n        /* \"#utility.yul\":6115:6186   */\n      tag_131\n      jump\t// in\n    tag_221:\n        /* \"#utility.yul\":5971:6193   */\n      swap3\n      swap2\n      pop\n      pop\n      jump\t// out\n        /* \"#utility.yul\":6199:6297   */\n    tag_132:\n        /* \"#utility.yul\":6250:6256   */\n      0x00\n        /* \"#utility.yul\":6284:6289   */\n      dup2\n        /* \"#utility.yul\":6278:6290   */\n      mload\n        /* \"#utility.yul\":6268:6290   */\n      swap1\n      pop\n        /* \"#utility.yul\":6199:6297   */\n      swap2\n      swap1\n      pop\n      jump\t// out\n        /* \"#utility.yul\":6303:6471   */\n    tag_133:\n        /* \"#utility.yul\":6386:6397   */\n      0x00\n        /* \"#utility.yul\":6420:6426   */\n      dup3\n        /* \"#utility.yul\":6415:6418   */\n      dup3\n        /* \"#utility.yul\":6408:6427   */\n      mstore\n        /* \"#utility.yul\":6460:6464   */\n      0x20\n        /* \"#utility.yul\":6455:6458   */\n      dup3\n        /* \"#utility.yul\":6451:6465   */\n      add\n        /* \"#utility.yul\":6436:6465   */\n      swap1\n      pop\n        /* \"#utility.yul\":6303:6471   */\n      swap3\n      swap2\n      pop\n      pop\n      jump\t// out\n        /* \"#utility.yul\":6477:6723   */\n    tag_134:\n        /* \"#utility.yul\":6558:6559   */\n      0x00\n        /* \"#utility.yul\":6568:6681   */\n    tag_225:\n        /* \"#utility.yul\":6582:6588   */\n      dup4\n        /* \"#utility.yul\":6579:6580   */\n      dup2\n        /* \"#utility.yul\":6576:6589   */\n      lt\n        /* \"#utility.yul\":6568:6681   */\n      iszero\n      tag_227\n      jumpi\n        /* \"#utility.yul\":6667:6668   */\n      dup1\n        /* \"#utility.yul\":6662:6665   */\n      dup3\n        /* \"#utility.yul\":6658:6669   */\n      add\n        /* \"#utility.yul\":6652:6670   */\n      mload\n        /* \"#utility.yul\":6648:6649   */\n      dup2\n        /* \"#utility.yul\":6643:6646   */\n      dup5\n        /* \"#utility.yul\":6639:6650   */\n      add\n        /* \"#utility.yul\":6632:6671   */\n      mstore\n        /* \"#utility.yul\":6604:6606   */\n      0x20\n        /* \"#utility.yul\":6601:6602   */\n      dup2\n        /* \"#utility.yul\":6597:6607   */\n      add\n        /* \"#utility.yul\":6592:6607   */\n      swap1\n      pop\n        /* \"#utility.yul\":6568:6681   */\n      jump(tag_225)\n    tag_227:\n        /* \"#utility.yul\":6715:6716   */\n      0x00\n        /* \"#utility.yul\":6706:6712   */\n      dup5\n        /* \"#utility.yul\":6701:6704   */\n      dup5\n        /* \"#utility.yul\":6697:6713   */\n      add\n        /* \"#utility.yul\":6690:6717   */\n      mstore\n        /* \"#utility.yul\":6539:6723   */\n      pop\n        /* \"#utility.yul\":6477:6723   */\n      pop\n      pop\n      pop\n      jump\t// out\n        /* \"#utility.yul\":6729:6831   */\n    tag_135:\n        /* \"#utility.yul\":6770:6776   */\n      0x00\n        /* \"#utility.yul\":6821:6823   */\n      0x1f\n        /* \"#utility.yul\":6817:6824   */\n      not\n        /* \"#utility.yul\":6812:6814   */\n      0x1f\n        /* \"#utility.yul\":6805:6810   */\n      dup4\n        /* \"#utility.yul\":6801:6815   */\n      add\n        /* \"#utility.yul\":6797:6825   */\n      and\n        /* \"#utility.yul\":6787:6825   */\n      swap1\n      pop\n        /* \"#utility.yul\":6729:6831   */\n      swap2\n      swap1\n      pop\n      jump\t// out\n        /* \"#utility.yul\":6837:7210   */\n    tag_136:\n        /* \"#utility.yul\":6923:6926   */\n      0x00\n        /* \"#utility.yul\":6951:6989   */\n      tag_230\n        /* \"#utility.yul\":6983:6988   */\n      dup3\n        /* \"#utility.yul\":6951:6989   */\n      tag_132\n      jump\t// in\n    tag_230:\n        /* \"#utility.yul\":7005:7075   */\n      tag_231\n        /* \"#utility.yul\":7068:7074   */\n      dup2\n        /* \"#utility.yul\":7063:7066   */\n      dup6\n        /* \"#utility.yul\":7005:7075   */\n      tag_133\n      jump\t// in\n    tag_231:\n        /* \"#utility.yul\":6998:7075   */\n      swap4\n      pop\n        /* \"#utility.yul\":7084:7149   */\n      tag_232\n        /* \"#utility.yul\":7142:7148   */\n      dup2\n        /* \"#utility.yul\":7137:7140   */\n      dup6\n        /* \"#utility.yul\":7130:7134   */\n      0x20\n        /* \"#utility.yul\":7123:7128   */\n      dup7\n        /* \"#utility.yul\":7119:7135   */\n      add\n        /* \"#utility.yul\":7084:7149   */\n      tag_134\n      jump\t// in\n    tag_232:\n        /* \"#utility.yul\":7174:7203   */\n      tag_233\n        /* \"#utility.yul\":7196:7202   */\n      dup2\n        /* \"#utility.yul\":7174:7203   */\n      tag_135\n      jump\t// in\n    tag_233:\n        /* \"#utility.yul\":7169:7172   */\n      dup5\n        /* \"#utility.yul\":7165:7204   */\n      add\n        /* \"#utility.yul\":7158:7204   */\n      swap2\n      pop\n        /* \"#utility.yul\":6927:7210   */\n      pop\n        /* \"#utility.yul\":6837:7210   */\n      swap3\n      swap2\n      pop\n      pop\n      jump\t// out\n        /* \"#utility.yul\":7216:7525   */\n    tag_52:\n        /* \"#utility.yul\":7327:7331   */\n      0x00\n        /* \"#utility.yul\":7365:7367   */\n      0x20\n        /* \"#utility.yul\":7354:7363   */\n      dup3\n        /* \"#utility.yul\":7350:7368   */\n      add\n        /* \"#utility.yul\":7342:7368   */\n      swap1\n      pop\n        /* \"#utility.yul\":7414:7423   */\n      dup2\n        /* \"#utility.yul\":7408:7412   */\n      dup2\n        /* \"#utility.yul\":7404:7424   */\n      sub\n        /* \"#utility.yul\":7400:7401   */\n      0x00\n        /* \"#utility.yul\":7389:7398   */\n      dup4\n        /* \"#utility.yul\":7385:7402   */\n      add\n        /* \"#utility.yul\":7378:7425   */\n      mstore\n        /* \"#utility.yul\":7442:7518   */\n      tag_235\n        /* \"#utility.yul\":7513:7517   */\n      dup2\n        /* \"#utility.yul\":7504:7510   */\n      dup5\n        /* \"#utility.yul\":7442:7518   */\n      tag_136\n      jump\t// in\n    tag_235:\n        /* \"#utility.yul\":7434:7518   */\n      swap1\n      pop\n        /* \"#utility.yul\":7216:7525   */\n      swap3\n      swap2\n      pop\n      pop\n      jump\t// out\n        /* \"#utility.yul\":7531:7711   */\n    tag_137:\n        /* \"#utility.yul\":7579:7656   */\n      0x4e487b7100000000000000000000000000000000000000000000000000000000\n        /* \"#utility.yul\":7576:7577   */\n      0x00\n        /* \"#utility.yul\":7569:7657   */\n      mstore\n        /* \"#utility.yul\":7676:7680   */\n      0x11\n        /* \"#utility.yul\":7673:7674   */\n      0x04\n        /* \"#utility.yul\":7666:7681   */\n      mstore\n        /* \"#utility.yul\":7700:7704   */\n      0x24\n        /* \"#utility.yul\":7697:7698   */\n      0x00\n        /* \"#utility.yul\":7690:7705   */\n      revert\n        /* \"#utility.yul\":7717:7908   */\n    tag_68:\n        /* \"#utility.yul\":7757:7760   */\n      0x00\n        /* \"#utility.yul\":7776:7796   */\n      tag_238\n        /* \"#utility.yul\":7794:7795   */\n      dup3\n        /* \"#utility.yul\":7776:7796   */\n      tag_117\n      jump\t// in\n    tag_238:\n        /* \"#utility.yul\":7771:7796   */\n      swap2\n      pop\n        /* \"#utility.yul\":7810:7830   */\n      tag_239\n        /* \"#utility.yul\":7828:7829   */\n      dup4\n        /* \"#utility.yul\":7810:7830   */\n      tag_117\n      jump\t// in\n    tag_239:\n        /* \"#utility.yul\":7805:7830   */\n      swap3\n      pop\n        /* \"#utility.yul\":7853:7854   */\n      dup3\n        /* \"#utility.yul\":7850:7851   */\n      dup3\n        /* \"#utility.yul\":7846:7855   */\n      add\n        /* \"#utility.yul\":7839:7855   */\n      swap1\n      pop\n        /* \"#utility.yul\":7874:7877   */\n      dup1\n        /* \"#utility.yul\":7871:7872   */\n      dup3\n        /* \"#utility.yul\":7868:7878   */\n      gt\n        /* \"#utility.yul\":7865:7901   */\n      iszero\n      tag_240\n      jumpi\n        /* \"#utility.yul\":7881:7899   */\n      tag_241\n      tag_137\n      jump\t// in\n    tag_241:\n        /* \"#utility.yul\":7865:7901   */\n    tag_240:\n        /* \"#utility.yul\":7717:7908   */\n      swap3\n      swap2\n      pop\n      pop\n      jump\t// out\n        /* \"#utility.yul\":7914:8246   */\n    tag_73:\n        /* \"#utility.yul\":8035:8039   */\n      0x00\n        /* \"#utility.yul\":8073:8075   */\n      0x40\n        /* \"#utility.yul\":8062:8071   */\n      dup3\n        /* \"#utility.yul\":8058:8076   */\n      add\n        /* \"#utility.yul\":8050:8076   */\n      swap1\n      pop\n        /* \"#utility.yul\":8086:8157   */\n      tag_243\n        /* \"#utility.yul\":8154:8155   */\n      0x00\n        /* \"#utility.yul\":8143:8152   */\n      dup4\n        /* \"#utility.yul\":8139:8156   */\n      add\n        /* \"#utility.yul\":8130:8136   */\n      dup6\n        /* \"#utility.yul\":8086:8157   */\n      tag_118\n      jump\t// in\n    tag_243:\n        /* \"#utility.yul\":8167:8239   */\n      tag_244\n        /* \"#utility.yul\":8235:8237   */\n      0x20\n        /* \"#utility.yul\":8224:8233   */\n      dup4\n        /* \"#utility.yul\":8220:8238   */\n      add\n        /* \"#utility.yul\":8211:8217   */\n      dup5\n        /* \"#utility.yul\":8167:8239   */\n      tag_118\n      jump\t// in\n    tag_244:\n        /* \"#utility.yul\":7914:8246   */\n      swap4\n      swap3\n      pop\n      pop\n      pop\n      jump\t// out\n        /* \"#utility.yul\":8252:8421   */\n    tag_138:\n        /* \"#utility.yul\":8336:8347   */\n      0x00\n        /* \"#utility.yul\":8370:8376   */\n      dup3\n        /* \"#utility.yul\":8365:8368   */\n      dup3\n        /* \"#utility.yul\":8358:8377   */\n      mstore\n        /* \"#utility.yul\":8410:8414   */\n      0x20\n        /* \"#utility.yul\":8405:8408   */\n      dup3\n        /* \"#utility.yul\":8401:8415   */\n      add\n        /* \"#utility.yul\":8386:8415   */\n      swap1\n      pop\n        /* \"#utility.yul\":8252:8421   */\n      swap3\n      swap2\n      pop\n      pop\n      jump\t// out\n        /* \"#utility.yul\":8427:8573   */\n    tag_139:\n        /* \"#utility.yul\":8524:8530   */\n      dup3\n        /* \"#utility.yul\":8519:8522   */\n      dup2\n        /* \"#utility.yul\":8514:8517   */\n      dup4\n        /* \"#utility.yul\":8501:8531   */\n      calldatacopy\n        /* \"#utility.yul\":8565:8566   */\n      0x00\n        /* \"#utility.yul\":8556:8562   */\n      dup4\n        /* \"#utility.yul\":8551:8554   */\n      dup4\n        /* \"#utility.yul\":8547:8563   */\n      add\n        /* \"#utility.yul\":8540:8567   */\n      mstore\n        /* \"#utility.yul\":8427:8573   */\n      pop\n      pop\n      pop\n      jump\t// out\n        /* \"#utility.yul\":8603:8920   */\n    tag_140:\n        /* \"#utility.yul\":8701:8704   */\n      0x00\n        /* \"#utility.yul\":8722:8793   */\n      tag_248\n        /* \"#utility.yul\":8786:8792   */\n      dup4\n        /* \"#utility.yul\":8781:8784   */\n      dup6\n        /* \"#utility.yul\":8722:8793   */\n      tag_138\n      jump\t// in\n    tag_248:\n        /* \"#utility.yul\":8715:8793   */\n      swap4\n      pop\n        /* \"#utility.yul\":8803:8859   */\n      tag_249\n        /* \"#utility.yul\":8852:8858   */\n      dup4\n        /* \"#utility.yul\":8847:8850   */\n      dup6\n        /* \"#utility.yul\":8840:8845   */\n      dup5\n        /* \"#utility.yul\":8803:8859   */\n      tag_139\n      jump\t// in\n    tag_249:\n        /* \"#utility.yul\":8884:8913   */\n      tag_250\n        /* \"#utility.yul\":8906:8912   */\n      dup4\n        /* \"#utility.yul\":8884:8913   */\n      tag_135\n      jump\t// in\n    tag_250:\n        /* \"#utility.yul\":8879:8882   */\n      dup5\n        /* \"#utility.yul\":8875:8914   */\n      add\n        /* \"#utility.yul\":8868:8914   */\n      swap1\n      pop\n        /* \"#utility.yul\":8603:8920   */\n      swap4\n      swap3\n      pop\n      pop\n      pop\n      jump\t// out\n        /* \"#utility.yul\":8948:9262   */\n    tag_141:\n        /* \"#utility.yul\":9044:9047   */\n      0x00\n        /* \"#utility.yul\":9065:9135   */\n      tag_252\n        /* \"#utility.yul\":9128:9134   */\n      dup4\n        /* \"#utility.yul\":9123:9126   */\n      dup6\n        /* \"#utility.yul\":9065:9135   */\n      tag_133\n      jump\t// in\n    tag_252:\n        /* \"#utility.yul\":9058:9135   */\n      swap4\n      pop\n        /* \"#utility.yul\":9145:9201   */\n      tag_253\n        /* \"#utility.yul\":9194:9200   */\n      dup4\n        /* \"#utility.yul\":9189:9192   */\n      dup6\n        /* \"#utility.yul\":9182:9187   */\n      dup5\n        /* \"#utility.yul\":9145:9201   */\n      tag_139\n      jump\t// in\n    tag_253:\n        /* \"#utility.yul\":9226:9255   */\n      tag_254\n        /* \"#utility.yul\":9248:9254   */\n      dup4\n        /* \"#utility.yul\":9226:9255   */\n      tag_135\n      jump\t// in\n    tag_254:\n        /* \"#utility.yul\":9221:9224   */\n      dup5\n        /* \"#utility.yul\":9217:9256   */\n      add\n        /* \"#utility.yul\":9210:9256   */\n      swap1\n      pop\n        /* \"#utility.yul\":8948:9262   */\n      swap4\n      swap3\n      pop\n      pop\n      pop\n      jump\t// out\n        /* \"#utility.yul\":9268:10039   */\n    tag_75:\n        /* \"#utility.yul\":9503:9507   */\n      0x00\n        /* \"#utility.yul\":9541:9544   */\n      0x80\n        /* \"#utility.yul\":9530:9539   */\n      dup3\n        /* \"#utility.yul\":9526:9545   */\n      add\n        /* \"#utility.yul\":9518:9545   */\n      swap1\n      pop\n        /* \"#utility.yul\":9555:9626   */\n      tag_256\n        /* \"#utility.yul\":9623:9624   */\n      0x00\n        /* \"#utility.yul\":9612:9621   */\n      dup4\n        /* \"#utility.yul\":9608:9625   */\n      add\n        /* \"#utility.yul\":9599:9605   */\n      dup10\n        /* \"#utility.yul\":9555:9626   */\n      tag_118\n      jump\t// in\n    tag_256:\n        /* \"#utility.yul\":9673:9682   */\n      dup2\n        /* \"#utility.yul\":9667:9671   */\n      dup2\n        /* \"#utility.yul\":9663:9683   */\n      sub\n        /* \"#utility.yul\":9658:9660   */\n      0x20\n        /* \"#utility.yul\":9647:9656   */\n      dup4\n        /* \"#utility.yul\":9643:9661   */\n      add\n        /* \"#utility.yul\":9636:9684   */\n      mstore\n        /* \"#utility.yul\":9701:9789   */\n      tag_257\n        /* \"#utility.yul\":9784:9788   */\n      dup2\n        /* \"#utility.yul\":9775:9781   */\n      dup8\n        /* \"#utility.yul\":9767:9773   */\n      dup10\n        /* \"#utility.yul\":9701:9789   */\n      tag_140\n      jump\t// in\n    tag_257:\n        /* \"#utility.yul\":9693:9789   */\n      swap1\n      pop\n        /* \"#utility.yul\":9836:9845   */\n      dup2\n        /* \"#utility.yul\":9830:9834   */\n      dup2\n        /* \"#utility.yul\":9826:9846   */\n      sub\n        /* \"#utility.yul\":9821:9823   */\n      0x40\n        /* \"#utility.yul\":9810:9819   */\n      dup4\n        /* \"#utility.yul\":9806:9824   */\n      add\n        /* \"#utility.yul\":9799:9847   */\n      mstore\n        /* \"#utility.yul\":9864:9950   */\n      tag_258\n        /* \"#utility.yul\":9945:9949   */\n      dup2\n        /* \"#utility.yul\":9936:9942   */\n      dup6\n        /* \"#utility.yul\":9928:9934   */\n      dup8\n        /* \"#utility.yul\":9864:9950   */\n      tag_141\n      jump\t// in\n    tag_258:\n        /* \"#utility.yul\":9856:9950   */\n      swap1\n      pop\n        /* \"#utility.yul\":9960:10032   */\n      tag_259\n        /* \"#utility.yul\":10028:10030   */\n      0x60\n        /* \"#utility.yul\":10017:10026   */\n      dup4\n        /* \"#utility.yul\":10013:10031   */\n      add\n        /* \"#utility.yul\":10004:10010   */\n      dup5\n        /* \"#utility.yul\":9960:10032   */\n      tag_118\n      jump\t// in\n    tag_259:\n        /* \"#utility.yul\":9268:10039   */\n      swap8\n      swap7\n      pop\n      pop\n      pop\n      pop\n      pop\n      pop\n      pop\n      jump\t// out\n        /* \"#utility.yul\":10045:10927   */\n    tag_78:\n        /* \"#utility.yul\":10308:10312   */\n      0x00\n        /* \"#utility.yul\":10346:10349   */\n      0xa0\n        /* \"#utility.yul\":10335:10344   */\n      dup3\n        /* \"#utility.yul\":10331:10350   */\n      add\n        /* \"#utility.yul\":10323:10350   */\n      swap1\n      pop\n        /* \"#utility.yul\":10360:10431   */\n      tag_261\n        /* \"#utility.yul\":10428:10429   */\n      0x00\n        /* \"#utility.yul\":10417:10426   */\n      dup4\n        /* \"#utility.yul\":10413:10430   */\n      add\n        /* \"#utility.yul\":10404:10410   */\n      dup11\n        /* \"#utility.yul\":10360:10431   */\n      tag_131\n      jump\t// in\n    tag_261:\n        /* \"#utility.yul\":10441:10513   */\n      tag_262\n        /* \"#utility.yul\":10509:10511   */\n      0x20\n        /* \"#utility.yul\":10498:10507   */\n      dup4\n        /* \"#utility.yul\":10494:10512   */\n      add\n        /* \"#utility.yul\":10485:10491   */\n      dup10\n        /* \"#utility.yul\":10441:10513   */\n      tag_118\n      jump\t// in\n    tag_262:\n        /* \"#utility.yul\":10560:10569   */\n      dup2\n        /* \"#utility.yul\":10554:10558   */\n      dup2\n        /* \"#utility.yul\":10550:10570   */\n      sub\n        /* \"#utility.yul\":10545:10547   */\n      0x40\n        /* \"#utility.yul\":10534:10543   */\n      dup4\n        /* \"#utility.yul\":10530:10548   */\n      add\n        /* \"#utility.yul\":10523:10571   */\n      mstore\n        /* \"#utility.yul\":10588:10676   */\n      tag_263\n        /* \"#utility.yul\":10671:10675   */\n      dup2\n        /* \"#utility.yul\":10662:10668   */\n      dup8\n        /* \"#utility.yul\":10654:10660   */\n      dup10\n        /* \"#utility.yul\":10588:10676   */\n      tag_140\n      jump\t// in\n    tag_263:\n        /* \"#utility.yul\":10580:10676   */\n      swap1\n      pop\n        /* \"#utility.yul\":10723:10732   */\n      dup2\n        /* \"#utility.yul\":10717:10721   */\n      dup2\n        /* \"#utility.yul\":10713:10733   */\n      sub\n        /* \"#utility.yul\":10708:10710   */\n      0x60\n        /* \"#utility.yul\":10697:10706   */\n      dup4\n        /* \"#utility.yul\":10693:10711   */\n      add\n        /* \"#utility.yul\":10686:10734   */\n      mstore\n        /* \"#utility.yul\":10751:10837   */\n      tag_264\n        /* \"#utility.yul\":10832:10836   */\n      dup2\n        /* \"#utility.yul\":10823:10829   */\n      dup6\n        /* \"#utility.yul\":10815:10821   */\n      dup8\n        /* \"#utility.yul\":10751:10837   */\n      tag_141\n      jump\t// in\n    tag_264:\n        /* \"#utility.yul\":10743:10837   */\n      swap1\n      pop\n        /* \"#utility.yul\":10847:10920   */\n      tag_265\n        /* \"#utility.yul\":10915:10918   */\n      0x80\n        /* \"#utility.yul\":10904:10913   */\n      dup4\n        /* \"#utility.yul\":10900:10919   */\n      add\n        /* \"#utility.yul\":10891:10897   */\n      dup5\n        /* \"#utility.yul\":10847:10920   */\n      tag_118\n      jump\t// in\n    tag_265:\n        /* \"#utility.yul\":10045:10927   */\n      swap9\n      swap8\n      pop\n      pop\n      pop\n      pop\n      pop\n      pop\n      pop\n      pop\n      jump\t// out\n        /* \"#utility.yul\":10933:11080   */\n    tag_142:\n        /* \"#utility.yul\":11034:11045   */\n      0x00\n        /* \"#utility.yul\":11071:11074   */\n      dup2\n        /* \"#utility.yul\":11056:11074   */\n      swap1\n      pop\n        /* \"#utility.yul\":10933:11080   */\n      swap3\n      swap2\n      pop\n      pop\n      jump\t// out\n        /* \"#utility.yul\":11108:11435   */\n    tag_143:\n        /* \"#utility.yul\":11222:11225   */\n      0x00\n        /* \"#utility.yul\":11243:11331   */\n      tag_268\n        /* \"#utility.yul\":11324:11330   */\n      dup4\n        /* \"#utility.yul\":11319:11322   */\n      dup6\n        /* \"#utility.yul\":11243:11331   */\n      tag_142\n      jump\t// in\n    tag_268:\n        /* \"#utility.yul\":11236:11331   */\n      swap4\n      pop\n        /* \"#utility.yul\":11341:11397   */\n      tag_269\n        /* \"#utility.yul\":11390:11396   */\n      dup4\n        /* \"#utility.yul\":11385:11388   */\n      dup6\n        /* \"#utility.yul\":11378:11383   */\n      dup5\n        /* \"#utility.yul\":11341:11397   */\n      tag_139\n      jump\t// in\n    tag_269:\n        /* \"#utility.yul\":11422:11428   */\n      dup3\n        /* \"#utility.yul\":11417:11420   */\n      dup5\n        /* \"#utility.yul\":11413:11429   */\n      add\n        /* \"#utility.yul\":11406:11429   */\n      swap1\n      pop\n        /* \"#utility.yul\":11108:11435   */\n      swap4\n      swap3\n      pop\n      pop\n      pop\n      jump\t// out\n        /* \"#utility.yul\":11441:11732   */\n    tag_93:\n        /* \"#utility.yul\":11581:11584   */\n      0x00\n        /* \"#utility.yul\":11603:11706   */\n      tag_271\n        /* \"#utility.yul\":11702:11705   */\n      dup3\n        /* \"#utility.yul\":11693:11699   */\n      dup5\n        /* \"#utility.yul\":11685:11691   */\n      dup7\n        /* \"#utility.yul\":11603:11706   */\n      tag_143\n      jump\t// in\n    tag_271:\n        /* \"#utility.yul\":11596:11706   */\n      swap2\n      pop\n        /* \"#utility.yul\":11723:11726   */\n      dup2\n        /* \"#utility.yul\":11716:11726   */\n      swap1\n      pop\n        /* \"#utility.yul\":11441:11732   */\n      swap4\n      swap3\n      pop\n      pop\n      pop\n      jump\t// out\n        /* \"#utility.yul\":11738:11887   */\n    tag_144:\n        /* \"#utility.yul\":11774:11781   */\n      0x00\n        /* \"#utility.yul\":11814:11880   */\n      0xffffffff00000000000000000000000000000000000000000000000000000000\n        /* \"#utility.yul\":11807:11812   */\n      dup3\n        /* \"#utility.yul\":11803:11881   */\n      and\n        /* \"#utility.yul\":11792:11881   */\n      swap1\n      pop\n        /* \"#utility.yul\":11738:11887   */\n      swap2\n      swap1\n      pop\n      jump\t// out\n        /* \"#utility.yul\":11893:11971   */\n    tag_145:\n        /* \"#utility.yul\":11931:11938   */\n      0x00\n        /* \"#utility.yul\":11960:11965   */\n      dup2\n        /* \"#utility.yul\":11949:11965   */\n      swap1\n      pop\n        /* \"#utility.yul\":11893:11971   */\n      swap2\n      swap1\n      pop\n      jump\t// out\n        /* \"#utility.yul\":11977:12130   */\n    tag_146:\n        /* \"#utility.yul\":12080:12123   */\n      tag_275\n        /* \"#utility.yul\":12099:12122   */\n      tag_276\n        /* \"#utility.yul\":12116:12121   */\n      dup3\n        /* \"#utility.yul\":12099:12122   */\n      tag_144\n      jump\t// in\n    tag_276:\n        /* \"#utility.yul\":12080:12123   */\n      tag_145\n      jump\t// in\n    tag_275:\n        /* \"#utility.yul\":12075:12078   */\n      dup3\n        /* \"#utility.yul\":12068:12124   */\n      mstore\n        /* \"#utility.yul\":11977:12130   */\n      pop\n      pop\n      jump\t// out\n        /* \"#utility.yul\":12136:12563   */\n    tag_95:\n        /* \"#utility.yul\":12302:12305   */\n      0x00\n        /* \"#utility.yul\":12317:12390   */\n      tag_278\n        /* \"#utility.yul\":12386:12389   */\n      dup3\n        /* \"#utility.yul\":12377:12383   */\n      dup7\n        /* \"#utility.yul\":12317:12390   */\n      tag_146\n      jump\t// in\n    tag_278:\n        /* \"#utility.yul\":12415:12416   */\n      0x04\n        /* \"#utility.yul\":12410:12413   */\n      dup3\n        /* \"#utility.yul\":12406:12417   */\n      add\n        /* \"#utility.yul\":12399:12417   */\n      swap2\n      pop\n        /* \"#utility.yul\":12434:12537   */\n      tag_279\n        /* \"#utility.yul\":12533:12536   */\n      dup3\n        /* \"#utility.yul\":12524:12530   */\n      dup5\n        /* \"#utility.yul\":12516:12522   */\n      dup7\n        /* \"#utility.yul\":12434:12537   */\n      tag_143\n      jump\t// in\n    tag_279:\n        /* \"#utility.yul\":12427:12537   */\n      swap2\n      pop\n        /* \"#utility.yul\":12554:12557   */\n      dup2\n        /* \"#utility.yul\":12547:12557   */\n      swap1\n      pop\n        /* \"#utility.yul\":12136:12563   */\n      swap5\n      swap4\n      pop\n      pop\n      pop\n      pop\n      jump\t// out\n        /* \"#utility.yul\":12569:12955   */\n    tag_147:\n        /* \"#utility.yul\":12673:12676   */\n      0x00\n        /* \"#utility.yul\":12701:12739   */\n      tag_281\n        /* \"#utility.yul\":12733:12738   */\n      dup3\n        /* \"#utility.yul\":12701:12739   */\n      tag_132\n      jump\t// in\n    tag_281:\n        /* \"#utility.yul\":12755:12843   */\n      tag_282\n        /* \"#utility.yul\":12836:12842   */\n      dup2\n        /* \"#utility.yul\":12831:12834   */\n      dup6\n        /* \"#utility.yul\":12755:12843   */\n      tag_142\n      jump\t// in\n    tag_282:\n        /* \"#utility.yul\":12748:12843   */\n      swap4\n      pop\n        /* \"#utility.yul\":12852:12917   */\n      tag_283\n        /* \"#utility.yul\":12910:12916   */\n      dup2\n        /* \"#utility.yul\":12905:12908   */\n      dup6\n        /* \"#utility.yul\":12898:12902   */\n      0x20\n        /* \"#utility.yul\":12891:12896   */\n      dup7\n        /* \"#utility.yul\":12887:12903   */\n      add\n        /* \"#utility.yul\":12852:12917   */\n      tag_134\n      jump\t// in\n    tag_283:\n        /* \"#utility.yul\":12942:12948   */\n      dup1\n        /* \"#utility.yul\":12937:12940   */\n      dup5\n        /* \"#utility.yul\":12933:12949   */\n      add\n        /* \"#utility.yul\":12926:12949   */\n      swap2\n      pop\n        /* \"#utility.yul\":12677:12955   */\n      pop\n        /* \"#utility.yul\":12569:12955   */\n      swap3\n      swap2\n      pop\n      pop\n      jump\t// out\n        /* \"#utility.yul\":12961:13232   */\n    tag_98:\n        /* \"#utility.yul\":13091:13094   */\n      0x00\n        /* \"#utility.yul\":13113:13206   */\n      tag_285\n        /* \"#utility.yul\":13202:13205   */\n      dup3\n        /* \"#utility.yul\":13193:13199   */\n      dup5\n        /* \"#utility.yul\":13113:13206   */\n      tag_147\n      jump\t// in\n    tag_285:\n        /* \"#utility.yul\":13106:13206   */\n      swap2\n      pop\n        /* \"#utility.yul\":13223:13226   */\n      dup2\n        /* \"#utility.yul\":13216:13226   */\n      swap1\n      pop\n        /* \"#utility.yul\":12961:13232   */\n      swap3\n      swap2\n      pop\n      pop\n      jump\t// out\n\n    auxdata: 0xa26469706673582212205cfb31a2e315ed46a2f4b5c5372d0b078c3ffbc9430002882fee90332981612464736f6c63430008160033\n}\n",
				"bytecode": {
					"linkReferences": {},
					"object": "608060405234801561000f575f80fd5b50335f806101000a81548173ffffffffffffffffffffffffffffffffffffffff021916908373ffffffffffffffffffffffffffffffffffffffff16021790555061100d8061005c5f395ff3fe608060405260043610610089575f3560e01c80638da5cb5b116100585780638da5cb5b146101725780639f81aed71461019c578063b0f8b142146101c6578063c1a287e2146101f6578063c4d252f51461022057610090565b8063228250c9146100945780634125ff90146100d05780634b9915a5146100fa5780638a1ce0b61461013657610090565b3661009057005b5f80fd5b34801561009f575f80fd5b506100ba60048036038101906100b591906109a8565b610248565b6040516100c791906109ed565b60405180910390f35b3480156100db575f80fd5b506100e4610265565b6040516100f19190610a1e565b60405180910390f35b348015610105575f80fd5b50610120600480360381019061011b9190610b71565b61026b565b60405161012d9190610c37565b60405180910390f35b348015610141575f80fd5b5061015c60048036038101906101579190610b71565b610458565b6040516101699190610c37565b60405180910390f35b34801561017d575f80fd5b50610186610499565b6040516101939190610c5f565b60405180910390f35b3480156101a7575f80fd5b506101b06104bc565b6040516101bd9190610a1e565b60405180910390f35b6101e060048036038101906101db9190610b71565b6104c1565b6040516101ed9190610d02565b60405180910390f35b348015610201575f80fd5b5061020a61082c565b6040516102179190610a1e565b60405180910390f35b34801561022b575f80fd5b50610246600480360381019061024191906109a8565b610832565b005b6001602052805f5260405f205f915054906101000a900460ff1681565b6103e881565b5f805f9054906101000a900473ffffffffffffffffffffffffffffffffffffffff1673ffffffffffffffffffffffffffffffffffffffff163373ffffffffffffffffffffffffffffffffffffffff16146102f1576040517f74a2152700000000000000000000000000000000000000000000000000000000815260040160405180910390fd5b61030088888888888888610458565b905060015f8281526020019081526020015f205f9054906101000a900460ff161561036257806040517f995042be0000000000000000000000000000000000000000000000000000000081526004016103599190610c37565b60405180910390fd5b600a4261036f9190610d4f565b82108061038857506103e8426103859190610d4f565b82115b156103cc5742826040517f1a9616c20000000000000000000000000000000000000000000000000000000081526004016103c3929190610d82565b60405180910390fd5b6001805f8381526020019081526020015f205f6101000a81548160ff0219169083151502179055508773ffffffffffffffffffffffffffffffffffffffff16817f3c22f47140594040d205a5533cfedd86c9ab8622c39ead03affb2d97052c794c89898989898960405161044596959493929190610e1f565b60405180910390a3979650505050505050565b5f878787878787876040516020016104769796959493929190610e74565b604051602081830303815290604052805190602001209050979650505050505050565b5f8054906101000a900473ffffffffffffffffffffffffffffffffffffffff1681565b600a81565b60605f8054906101000a900473ffffffffffffffffffffffffffffffffffffffff1673ffffffffffffffffffffffffffffffffffffffff163373ffffffffffffffffffffffffffffffffffffffff1614610547576040517f74a2152700000000000000000000000000000000000000000000000000000000815260040160405180910390fd5b5f61055789898989898989610458565b905060015f8281526020019081526020015f205f9054906101000a900460ff166105b857806040517f0995c9d50000000000000000000000000000000000000000000000000000000081526004016105af9190610c37565b60405180910390fd5b824210156105ff5742836040517f035fce5b0000000000000000000000000000000000000000000000000000000081526004016105f6929190610d82565b60405180910390fd5b6103e88361060d9190610d4f565b42111561066057426103e8846106239190610d4f565b6040517f92ae26d1000000000000000000000000000000000000000000000000000000008152600401610657929190610d82565b60405180910390fd5b5f60015f8381526020019081526020015f205f6101000a81548160ff02191690831515021790555060605f8888905011156106d75787876040516106a5929190610f05565b604051809103902086866040516020016106c193929190610f68565b604051602081830303815290604052905061071e565b85858080601f0160208091040260200160405190810160405280939291908181526020018383808284375f81840152601f19601f8201169050808301925050505050505090505b5f808b73ffffffffffffffffffffffffffffffffffffffff168b846040516107469190610fc1565b5f6040518083038185875af1925050503d805f8114610780576040519150601f19603f3d011682016040523d82523d5f602084013e610785565b606091505b5091509150816107c1576040517fd9b4f81e00000000000000000000000000000000000000000000000000000000815260040160405180910390fd5b8b73ffffffffffffffffffffffffffffffffffffffff16847fd1d5c3c892c18716bd88852091d1b63dc6849e9d7c37f69d566884bf954d4bd98d8d8d8d8d8d60405161081296959493929190610e1f565b60405180910390a380945050505050979650505050505050565b6103e881565b5f8054906101000a900473ffffffffffffffffffffffffffffffffffffffff1673ffffffffffffffffffffffffffffffffffffffff163373ffffffffffffffffffffffffffffffffffffffff16146108b6576040517f74a2152700000000000000000000000000000000000000000000000000000000815260040160405180910390fd5b60015f8281526020019081526020015f205f9054906101000a900460ff1661091557806040517f0995c9d500000000000000000000000000000000000000000000000000000000815260040161090c9190610c37565b60405180910390fd5b5f60015f8381526020019081526020015f205f6101000a81548160ff021916908315150217905550807fe8d9861dbc9c663ed3accd261bbe2fe01e0d3d9e5f51fa38523b265c7757a93a60405160405180910390a250565b5f80fd5b5f80fd5b5f819050919050565b61098781610975565b8114610991575f80fd5b50565b5f813590506109a28161097e565b92915050565b5f602082840312156109bd576109bc61096d565b5b5f6109ca84828501610994565b91505092915050565b5f8115159050919050565b6109e7816109d3565b82525050565b5f602082019050610a005f8301846109de565b92915050565b5f819050919050565b610a1881610a06565b82525050565b5f602082019050610a315f830184610a0f565b92915050565b5f73ffffffffffffffffffffffffffffffffffffffff82169050919050565b5f610a6082610a37565b9050919050565b610a7081610a56565b8114610a7a575f80fd5b50565b5f81359050610a8b81610a67565b92915050565b610a9a81610a06565b8114610aa4575f80fd5b50565b5f81359050610ab581610a91565b92915050565b5f80fd5b5f80fd5b5f80fd5b5f8083601f840112610adc57610adb610abb565b5b8235905067ffffffffffffffff811115610af957610af8610abf565b5b602083019150836001820283011115610b1557610b14610ac3565b5b9250929050565b5f8083601f840112610b3157610b30610abb565b5b8235905067ffffffffffffffff811115610b4e57610b4d610abf565b5b602083019150836001820283011115610b6a57610b69610ac3565b5b9250929050565b5f805f805f805f60a0888a031215610b8c57610b8b61096d565b5b5f610b998a828b01610a7d565b9750506020610baa8a828b01610aa7565b965050604088013567ffffffffffffffff811115610bcb57610bca610971565b5b610bd78a828b01610ac7565b9550955050606088013567ffffffffffffffff811115610bfa57610bf9610971565b5b610c068a828b01610b1c565b93509350506080610c198a828b01610aa7565b91505092959891949750929550565b610c3181610975565b82525050565b5f602082019050610c4a5f830184610c28565b92915050565b610c5981610a56565b82525050565b5f602082019050610c725f830184610c50565b92915050565b5f81519050919050565b5f82825260208201905092915050565b5f5b83811015610caf578082015181840152602081019050610c94565b5f8484015250505050565b5f601f19601f8301169050919050565b5f610cd482610c78565b610cde8185610c82565b9350610cee818560208601610c92565b610cf781610cba565b840191505092915050565b5f6020820190508181035f830152610d1a8184610cca565b905092915050565b7f4e487b71000000000000000000000000000000000000000000000000000000005f52601160045260245ffd5b5f610d5982610a06565b9150610d6483610a06565b9250828201905080821115610d7c57610d7b610d22565b5b92915050565b5f604082019050610d955f830185610a0f565b610da26020830184610a0f565b9392505050565b5f82825260208201905092915050565b828183375f83830152505050565b5f610dd28385610da9565b9350610ddf838584610db9565b610de883610cba565b840190509392505050565b5f610dfe8385610c82565b9350610e0b838584610db9565b610e1483610cba565b840190509392505050565b5f608082019050610e325f830189610a0f565b8181036020830152610e45818789610dc7565b90508181036040830152610e5a818587610df3565b9050610e696060830184610a0f565b979650505050505050565b5f60a082019050610e875f83018a610c50565b610e946020830189610a0f565b8181036040830152610ea7818789610dc7565b90508181036060830152610ebc818587610df3565b9050610ecb6080830184610a0f565b98975050505050505050565b5f81905092915050565b5f610eec8385610ed7565b9350610ef9838584610db9565b82840190509392505050565b5f610f11828486610ee1565b91508190509392505050565b5f7fffffffff0000000000000000000000000000000000000000000000000000000082169050919050565b5f819050919050565b610f62610f5d82610f1d565b610f48565b82525050565b5f610f738286610f51565b600482019150610f84828486610ee1565b9150819050949350505050565b5f610f9b82610c78565b610fa58185610ed7565b9350610fb5818560208601610c92565b80840191505092915050565b5f610fcc8284610f91565b91508190509291505056fea26469706673582212205cfb31a2e315ed46a2f4b5c5372d0b078c3ffbc9430002882fee90332981612464736f6c63430008160033",
					"opcodes": "PUSH1 0x80 PUSH1 0x40 MSTORE CALLVALUE DUP1 ISZERO PUSH2 0xF JUMPI PUSH0 DUP1 REVERT JUMPDEST POP CALLER PUSH0 DUP1 PUSH2 0x100 EXP DUP2 SLOAD DUP2 PUSH20 0xFFFFFFFFFFFFFFFFFFFFFFFFFFFFFFFFFFFFFFFF MUL NOT AND SWAP1 DUP4 PUSH20 0xFFFFFFFFFFFFFFFFFFFFFFFFFFFFFFFFFFFFFFFF AND MUL OR SWAP1 SSTORE POP PUSH2 0x100D DUP1 PUSH2 0x5C PUSH0 CODECOPY PUSH0 RETURN INVALID PUSH1 0x80 PUSH1 0x40 MSTORE PUSH1 0x4 CALLDATASIZE LT PUSH2 0x89 JUMPI PUSH0 CALLDATALOAD PUSH1 0xE0 SHR DUP1 PUSH4 0x8DA5CB5B GT PUSH2 0x58 JUMPI DUP1 PUSH4 0x8DA5CB5B EQ PUSH2 0x172 JUMPI DUP1 PUSH4 0x9F81AED7 EQ PUSH2 0x19C JUMPI DUP1 PUSH4 0xB0F8B142 EQ PUSH2 0x1C6 JUMPI DUP1 PUSH4 0xC1A287E2 EQ PUSH2 0x1F6 JUMPI DUP1 PUSH4 0xC4D252F5 EQ PUSH2 0x220 JUMPI PUSH2 0x90 JUMP JUMPDEST DUP1 PUSH4 0x228250C9 EQ PUSH2 0x94 JUMPI DUP1 PUSH4 0x4125FF90 EQ PUSH2 0xD0 JUMPI DUP1 PUSH4 0x4B9915A5 EQ PUSH2 0xFA JUMPI DUP1 PUSH4 0x8A1CE0B6 EQ PUSH2 0x136 JUMPI PUSH2 0x90 JUMP JUMPDEST CALLDATASIZE PUSH2 0x90 JUMPI STOP JUMPDEST PUSH0 DUP1 REVERT JUMPDEST CALLVALUE DUP1 ISZERO PUSH2 0x9F JUMPI PUSH0 DUP1 REVERT JUMPDEST POP PUSH2 0xBA PUSH1 0x4 DUP1 CALLDATASIZE SUB DUP2 ADD SWAP1 PUSH2 0xB5 SWAP2 SWAP1 PUSH2 0x9A8 JUMP JUMPDEST PUSH2 0x248 JUMP JUMPDEST PUSH1 0x40 MLOAD PUSH2 0xC7 SWAP2 SWAP1 PUSH2 0x9ED JUMP JUMPDEST PUSH1 0x40 MLOAD DUP1 SWAP2 SUB SWAP1 RETURN JUMPDEST CALLVALUE DUP1 ISZERO PUSH2 0xDB JUMPI PUSH0 DUP1 REVERT JUMPDEST POP PUSH2 0xE4 PUSH2 0x265 JUMP JUMPDEST PUSH1 0x40 MLOAD PUSH2 0xF1 SWAP2 SWAP1 PUSH2 0xA1E JUMP JUMPDEST PUSH1 0x40 MLOAD DUP1 SWAP2 SUB SWAP1 RETURN JUMPDEST CALLVALUE DUP1 ISZERO PUSH2 0x105 JUMPI PUSH0 DUP1 REVERT JUMPDEST POP PUSH2 0x120 PUSH1 0x4 DUP1 CALLDATASIZE SUB DUP2 ADD SWAP1 PUSH2 0x11B SWAP2 SWAP1 PUSH2 0xB71 JUMP JUMPDEST PUSH2 0x26B JUMP JUMPDEST PUSH1 0x40 MLOAD PUSH2 0x12D SWAP2 SWAP1 PUSH2 0xC37 JUMP JUMPDEST PUSH1 0x40 MLOAD DUP1 SWAP2 SUB SWAP1 RETURN JUMPDEST CALLVALUE DUP1 ISZERO PUSH2 0x141 JUMPI PUSH0 DUP1 REVERT JUMPDEST POP PUSH2 0x15C PUSH1 0x4 DUP1 CALLDATASIZE SUB DUP2 ADD SWAP1 PUSH2 0x157 SWAP2 SWAP1 PUSH2 0xB71 JUMP JUMPDEST PUSH2 0x458 JUMP JUMPDEST PUSH1 0x40 MLOAD PUSH2 0x169 SWAP2 SWAP1 PUSH2 0xC37 JUMP JUMPDEST PUSH1 0x40 MLOAD DUP1 SWAP2 SUB SWAP1 RETURN JUMPDEST CALLVALUE DUP1 ISZERO PUSH2 0x17D JUMPI PUSH0 DUP1 REVERT JUMPDEST POP PUSH2 0x186 PUSH2 0x499 JUMP JUMPDEST PUSH1 0x40 MLOAD PUSH2 0x193 SWAP2 SWAP1 PUSH2 0xC5F JUMP JUMPDEST PUSH1 0x40 MLOAD DUP1 SWAP2 SUB SWAP1 RETURN JUMPDEST CALLVALUE DUP1 ISZERO PUSH2 0x1A7 JUMPI PUSH0 DUP1 REVERT JUMPDEST POP PUSH2 0x1B0 PUSH2 0x4BC JUMP JUMPDEST PUSH1 0x40 MLOAD PUSH2 0x1BD SWAP2 SWAP1 PUSH2 0xA1E JUMP JUMPDEST PUSH1 0x40 MLOAD DUP1 SWAP2 SUB SWAP1 RETURN JUMPDEST PUSH2 0x1E0 PUSH1 0x4 DUP1 CALLDATASIZE SUB DUP2 ADD SWAP1 PUSH2 0x1DB SWAP2 SWAP1 PUSH2 0xB71 JUMP JUMPDEST PUSH2 0x4C1 JUMP JUMPDEST PUSH1 0x40 MLOAD PUSH2 0x1ED SWAP2 SWAP1 PUSH2 0xD02 JUMP JUMPDEST PUSH1 0x40 MLOAD DUP1 SWAP2 SUB SWAP1 RETURN JUMPDEST CALLVALUE DUP1 ISZERO PUSH2 0x201 JUMPI PUSH0 DUP1 REVERT JUMPDEST POP PUSH2 0x20A PUSH2 0x82C JUMP JUMPDEST PUSH1 0x40 MLOAD PUSH2 0x217 SWAP2 SWAP1 PUSH2 0xA1E JUMP JUMPDEST PUSH1 0x40 MLOAD DUP1 SWAP2 SUB SWAP1 RETURN JUMPDEST CALLVALUE DUP1 ISZERO PUSH2 0x22B JUMPI PUSH0 DUP1 REVERT JUMPDEST POP PUSH2 0x246 PUSH1 0x4 DUP1 CALLDATASIZE SUB DUP2 ADD SWAP1 PUSH2 0x241 SWAP2 SWAP1 PUSH2 0x9A8 JUMP JUMPDEST PUSH2 0x832 JUMP JUMPDEST STOP JUMPDEST PUSH1 0x1 PUSH1 0x20 MSTORE DUP1 PUSH0 MSTORE PUSH1 0x40 PUSH0 KECCAK256 PUSH0 SWAP2 POP SLOAD SWAP1 PUSH2 0x100 EXP SWAP1 DIV PUSH1 0xFF AND DUP2 JUMP JUMPDEST PUSH2 0x3E8 DUP2 JUMP JUMPDEST PUSH0 DUP1 PUSH0 SWAP1 SLOAD SWAP1 PUSH2 0x100 EXP SWAP1 DIV PUSH20 0xFFFFFFFFFFFFFFFFFFFFFFFFFFFFFFFFFFFFFFFF AND PUSH20 0xFFFFFFFFFFFFFFFFFFFFFFFFFFFFFFFFFFFFFFFF AND CALLER PUSH20 0xFFFFFFFFFFFFFFFFFFFFFFFFFFFFFFFFFFFFFFFF AND EQ PUSH2 0x2F1 JUMPI PUSH1 0x40 MLOAD PUSH32 0x74A2152700000000000000000000000000000000000000000000000000000000 DUP2 MSTORE PUSH1 0x4 ADD PUSH1 0x40 MLOAD DUP1 SWAP2 SUB SWAP1 REVERT JUMPDEST PUSH2 0x300 DUP9 DUP9 DUP9 DUP9 DUP9 DUP9 DUP9 PUSH2 0x458 JUMP JUMPDEST SWAP1 POP PUSH1 0x1 PUSH0 DUP3 DUP2 MSTORE PUSH1 0x20 ADD SWAP1 DUP2 MSTORE PUSH1 0x20 ADD PUSH0 KECCAK256 PUSH0 SWAP1 SLOAD SWAP1 PUSH2 0x100 EXP SWAP1 DIV PUSH1 0xFF AND ISZERO PUSH2 0x362 JUMPI DUP1 PUSH1 0x40 MLOAD PUSH32 0x995042BE00000000000000000000000000000000000000000000000000000000 DUP2 MSTORE PUSH1 0x4 ADD PUSH2 0x359 SWAP2 SWAP1 PUSH2 0xC37 JUMP JUMPDEST PUSH1 0x40 MLOAD DUP1 SWAP2 SUB SWAP1 REVERT JUMPDEST PUSH1 0xA TIMESTAMP PUSH2 0x36F SWAP2 SWAP1 PUSH2 0xD4F JUMP JUMPDEST DUP3 LT DUP1 PUSH2 0x388 JUMPI POP PUSH2 0x3E8 TIMESTAMP PUSH2 0x385 SWAP2 SWAP1 PUSH2 0xD4F JUMP JUMPDEST DUP3 GT JUMPDEST ISZERO PUSH2 0x3CC JUMPI TIMESTAMP DUP3 PUSH1 0x40 MLOAD PUSH32 0x1A9616C200000000000000000000000000000000000000000000000000000000 DUP2 MSTORE PUSH1 0x4 ADD PUSH2 0x3C3 SWAP3 SWAP2 SWAP1 PUSH2 0xD82 JUMP JUMPDEST PUSH1 0x40 MLOAD DUP1 SWAP2 SUB SWAP1 REVERT JUMPDEST PUSH1 0x1 DUP1 PUSH0 DUP4 DUP2 MSTORE PUSH1 0x20 ADD SWAP1 DUP2 MSTORE PUSH1 0x20 ADD PUSH0 KECCAK256 PUSH0 PUSH2 0x100 EXP DUP2 SLOAD DUP2 PUSH1 0xFF MUL NOT AND SWAP1 DUP4 ISZERO ISZERO MUL OR SWAP1 SSTORE POP DUP8 PUSH20 0xFFFFFFFFFFFFFFFFFFFFFFFFFFFFFFFFFFFFFFFF AND DUP2 PUSH32 0x3C22F47140594040D205A5533CFEDD86C9AB8622C39EAD03AFFB2D97052C794C DUP10 DUP10 DUP10 DUP10 DUP10 DUP10 PUSH1 0x40 MLOAD PUSH2 0x445 SWAP7 SWAP6 SWAP5 SWAP4 SWAP3 SWAP2 SWAP1 PUSH2 0xE1F JUMP JUMPDEST PUSH1 0x40 MLOAD DUP1 SWAP2 SUB SWAP1 LOG3 SWAP8 SWAP7 POP POP POP POP POP POP POP JUMP JUMPDEST PUSH0 DUP8 DUP8 DUP8 DUP8 DUP8 DUP8 DUP8 PUSH1 0x40 MLOAD PUSH1 0x20 ADD PUSH2 0x476 SWAP8 SWAP7 SWAP6 SWAP5 SWAP4 SWAP3 SWAP2 SWAP1 PUSH2 0xE74 JUMP JUMPDEST PUSH1 0x40 MLOAD PUSH1 0x20 DUP2 DUP4 SUB SUB DUP2 MSTORE SWAP1 PUSH1 0x40 MSTORE DUP1 MLOAD SWAP1 PUSH1 0x20 ADD KECCAK256 SWAP1 POP SWAP8 SWAP7 POP POP POP POP POP POP POP JUMP JUMPDEST PUSH0 DUP1 SLOAD SWAP1 PUSH2 0x100 EXP SWAP1 DIV PUSH20 0xFFFFFFFFFFFFFFFFFFFFFFFFFFFFFFFFFFFFFFFF AND DUP2 JUMP JUMPDEST PUSH1 0xA DUP2 JUMP JUMPDEST PUSH1 0x60 PUSH0 DUP1 SLOAD SWAP1 PUSH2 0x100 EXP SWAP1 DIV PUSH20 0xFFFFFFFFFFFFFFFFFFFFFFFFFFFFFFFFFFFFFFFF AND PUSH20 0xFFFFFFFFFFFFFFFFFFFFFFFFFFFFFFFFFFFFFFFF AND CALLER PUSH20 0xFFFFFFFFFFFFFFFFFFFFFFFFFFFFFFFFFFFFFFFF AND EQ PUSH2 0x547 JUMPI PUSH1 0x40 MLOAD PUSH32 0x74A2152700000000000000000000000000000000000000000000000000000000 DUP2 MSTORE PUSH1 0x4 ADD PUSH1 0x40 MLOAD DUP1 SWAP2 SUB SWAP1 REVERT JUMPDEST PUSH0 PUSH2 0x557 DUP10 DUP10 DUP10 DUP10 DUP10 DUP10 DUP10 PUSH2 0x458 JUMP JUMPDEST SWAP1 POP PUSH1 0x1 PUSH0 DUP3 DUP2 MSTORE PUSH1 0x20 ADD SWAP1 DUP2 MSTORE PUSH1 0x20 ADD PUSH0 KECCAK256 PUSH0 SWAP1 SLOAD SWAP1 PUSH2 0x100 EXP SWAP1 DIV PUSH1 0xFF AND PUSH2 0x5B8 JUMPI DUP1 PUSH1 0x40 MLOAD PUSH32 0x995C9D500000000000000000000000000000000000000000000000000000000 DUP2 MSTORE PUSH1 0x4 ADD PUSH2 0x5AF SWAP2 SWAP1 PUSH2 0xC37 JUMP JUMPDEST PUSH1 0x40 MLOAD DUP1 SWAP2 SUB SWAP1 REVERT JUMPDEST DUP3 TIMESTAMP LT ISZERO PUSH2 0x5FF JUMPI TIMESTAMP DUP4 PUSH1 0x40 MLOAD PUSH32 0x35FCE5B00000000000000000000000000000000000000000000000000000000 DUP2 MSTORE PUSH1 0x4 ADD PUSH2 0x5F6 SWAP3 SWAP2 SWAP1 PUSH2 0xD82 JUMP JUMPDEST PUSH1 0x40 MLOAD DUP1 SWAP2 SUB SWAP1 REVERT JUMPDEST PUSH2 0x3E8 DUP4 PUSH2 0x60D SWAP2 SWAP1 PUSH2 0xD4F JUMP JUMPDEST TIMESTAMP GT ISZERO PUSH2 0x660 JUMPI TIMESTAMP PUSH2 0x3E8 DUP5 PUSH2 0x623 SWAP2 SWAP1 PUSH2 0xD4F JUMP JUMPDEST PUSH1 0x40 MLOAD PUSH32 0x92AE26D100000000000000000000000000000000000000000000000000000000 DUP2 MSTORE PUSH1 0x4 ADD PUSH2 0x657 SWAP3 SWAP2 SWAP1 PUSH2 0xD82 JUMP JUMPDEST PUSH1 0x40 MLOAD DUP1 SWAP2 SUB SWAP1 REVERT JUMPDEST PUSH0 PUSH1 0x1 PUSH0 DUP4 DUP2 MSTORE PUSH1 0x20 ADD SWAP1 DUP2 MSTORE PUSH1 0x20 ADD PUSH0 KECCAK256 PUSH0 PUSH2 0x100 EXP DUP2 SLOAD DUP2 PUSH1 0xFF MUL NOT AND SWAP1 DUP4 ISZERO ISZERO MUL OR SWAP1 SSTORE POP PUSH1 0x60 PUSH0 DUP9 DUP9 SWAP1 POP GT ISZERO PUSH2 0x6D7 JUMPI DUP8 DUP8 PUSH1 0x40 MLOAD PUSH2 0x6A5 SWAP3 SWAP2 SWAP1 PUSH2 0xF05 JUMP JUMPDEST PUSH1 0x40 MLOAD DUP1 SWAP2 SUB SWAP1 KECCAK256 DUP7 DUP7 PUSH1 0x40 MLOAD PUSH1 0x20 ADD PUSH2 0x6C1 SWAP4 SWAP3 SWAP2 SWAP1 PUSH2 0xF68 JUMP JUMPDEST PUSH1 0x40 MLOAD PUSH1 0x20 DUP2 DUP4 SUB SUB DUP2 MSTORE SWAP1 PUSH1 0x40 MSTORE SWAP1 POP PUSH2 0x71E JUMP JUMPDEST DUP6 DUP6 DUP1 DUP1 PUSH1 0x1F ADD PUSH1 0x20 DUP1 SWAP2 DIV MUL PUSH1 0x20 ADD PUSH1 0x40 MLOAD SWAP1 DUP2 ADD PUSH1 0x40 MSTORE DUP1 SWAP4 SWAP3 SWAP2 SWAP1 DUP2 DUP2 MSTORE PUSH1 0x20 ADD DUP4 DUP4 DUP1 DUP3 DUP5 CALLDATACOPY PUSH0 DUP2 DUP5 ADD MSTORE PUSH1 0x1F NOT PUSH1 0x1F DUP3 ADD AND SWAP1 POP DUP1 DUP4 ADD SWAP3 POP POP POP POP POP POP POP SWAP1 POP JUMPDEST PUSH0 DUP1 DUP12 PUSH20 0xFFFFFFFFFFFFFFFFFFFFFFFFFFFFFFFFFFFFFFFF AND DUP12 DUP5 PUSH1 0x40 MLOAD PUSH2 0x746 SWAP2 SWAP1 PUSH2 0xFC1 JUMP JUMPDEST PUSH0 PUSH1 0x40 MLOAD DUP1 DUP4 SUB DUP2 DUP6 DUP8 GAS CALL SWAP3 POP POP POP RETURNDATASIZE DUP1 PUSH0 DUP2 EQ PUSH2 0x780 JUMPI PUSH1 0x40 MLOAD SWAP2 POP PUSH1 0x1F NOT PUSH1 0x3F RETURNDATASIZE ADD AND DUP3 ADD PUSH1 0x40 MSTORE RETURNDATASIZE DUP3 MSTORE RETURNDATASIZE PUSH0 PUSH1 0x20 DUP5 ADD RETURNDATACOPY PUSH2 0x785 JUMP JUMPDEST PUSH1 0x60 SWAP2 POP JUMPDEST POP SWAP2 POP SWAP2 POP DUP2 PUSH2 0x7C1 JUMPI PUSH1 0x40 MLOAD PUSH32 0xD9B4F81E00000000000000000000000000000000000000000000000000000000 DUP2 MSTORE PUSH1 0x4 ADD PUSH1 0x40 MLOAD DUP1 SWAP2 SUB SWAP1 REVERT JUMPDEST DUP12 PUSH20 0xFFFFFFFFFFFFFFFFFFFFFFFFFFFFFFFFFFFFFFFF AND DUP5 PUSH32 0xD1D5C3C892C18716BD88852091D1B63DC6849E9D7C37F69D566884BF954D4BD9 DUP14 DUP14 DUP14 DUP14 DUP14 DUP14 PUSH1 0x40 MLOAD PUSH2 0x812 SWAP7 SWAP6 SWAP5 SWAP4 SWAP3 SWAP2 SWAP1 PUSH2 0xE1F JUMP JUMPDEST PUSH1 0x40 MLOAD DUP1 SWAP2 SUB SWAP1 LOG3 DUP1 SWAP5 POP POP POP POP POP SWAP8 SWAP7 POP POP POP POP POP POP POP JUMP JUMPDEST PUSH2 0x3E8 DUP2 JUMP JUMPDEST PUSH0 DUP1 SLOAD SWAP1 PUSH2 0x100 EXP SWAP1 DIV PUSH20 0xFFFFFFFFFFFFFFFFFFFFFFFFFFFFFFFFFFFFFFFF AND PUSH20 0xFFFFFFFFFFFFFFFFFFFFFFFFFFFFFFFFFFFFFFFF AND CALLER PUSH20 0xFFFFFFFFFFFFFFFFFFFFFFFFFFFFFFFFFFFFFFFF AND EQ PUSH2 0x8B6 JUMPI PUSH1 0x40 MLOAD PUSH32 0x74A2152700000000000000000000000000000000000000000000000000000000 DUP2 MSTORE PUSH1 0x4 ADD PUSH1 0x40 MLOAD DUP1 SWAP2 SUB SWAP1 REVERT JUMPDEST PUSH1 0x1 PUSH0 DUP3 DUP2 MSTORE PUSH1 0x20 ADD SWAP1 DUP2 MSTORE PUSH1 0x20 ADD PUSH0 KECCAK256 PUSH0 SWAP1 SLOAD SWAP1 PUSH2 0x100 EXP SWAP1 DIV PUSH1 0xFF AND PUSH2 0x915 JUMPI DUP1 PUSH1 0x40 MLOAD PUSH32 0x995C9D500000000000000000000000000000000000000000000000000000000 DUP2 MSTORE PUSH1 0x4 ADD PUSH2 0x90C SWAP2 SWAP1 PUSH2 0xC37 JUMP JUMPDEST PUSH1 0x40 MLOAD DUP1 SWAP2 SUB SWAP1 REVERT JUMPDEST PUSH0 PUSH1 0x1 PUSH0 DUP4 DUP2 MSTORE PUSH1 0x20 ADD SWAP1 DUP2 MSTORE PUSH1 0x20 ADD PUSH0 KECCAK256 PUSH0 PUSH2 0x100 EXP DUP2 SLOAD DUP2 PUSH1 0xFF MUL NOT AND SWAP1 DUP4 ISZERO ISZERO MUL OR SWAP1 SSTORE POP DUP1 PUSH32 0xE8D9861DBC9C663ED3ACCD261BBE2FE01E0D3D9E5F51FA38523B265C7757A93A PUSH1 0x40 MLOAD PUSH1 0x40 MLOAD DUP1 SWAP2 SUB SWAP1 LOG2 POP JUMP JUMPDEST PUSH0 DUP1 REVERT JUMPDEST PUSH0 DUP1 REVERT JUMPDEST PUSH0 DUP2 SWAP1 POP SWAP2 SWAP1 POP JUMP JUMPDEST PUSH2 0x987 DUP2 PUSH2 0x975 JUMP JUMPDEST DUP2 EQ PUSH2 0x991 JUMPI PUSH0 DUP1 REVERT JUMPDEST POP JUMP JUMPDEST PUSH0 DUP2 CALLDATALOAD SWAP1 POP PUSH2 0x9A2 DUP2 PUSH2 0x97E JUMP JUMPDEST SWAP3 SWAP2 POP POP JUMP JUMPDEST PUSH0 PUSH1 0x20 DUP3 DUP5 SUB SLT ISZERO PUSH2 0x9BD JUMPI PUSH2 0x9BC PUSH2 0x96D JUMP JUMPDEST JUMPDEST PUSH0 PUSH2 0x9CA DUP5 DUP3 DUP6 ADD PUSH2 0x994 JUMP JUMPDEST SWAP2 POP POP SWAP3 SWAP2 POP POP JUMP JUMPDEST PUSH0 DUP2 ISZERO ISZERO SWAP1 POP SWAP2 SWAP1 POP JUMP JUMPDEST PUSH2 0x9E7 DUP2 PUSH2 0x9D3 JUMP JUMPDEST DUP3 MSTORE POP POP JUMP JUMPDEST PUSH0 PUSH1 0x20 DUP3 ADD SWAP1 POP PUSH2 0xA00 PUSH0 DUP4 ADD DUP5 PUSH2 0x9DE JUMP JUMPDEST SWAP3 SWAP2 POP POP JUMP JUMPDEST PUSH0 DUP2 SWAP1 POP SWAP2 SWAP1 POP JUMP JUMPDEST PUSH2 0xA18 DUP2 PUSH2 0xA06 JUMP JUMPDEST DUP3 MSTORE POP POP JUMP JUMPDEST PUSH0 PUSH1 0x20 DUP3 ADD SWAP1 POP PUSH2 0xA31 PUSH0 DUP4 ADD DUP5 PUSH2 0xA0F JUMP JUMPDEST SWAP3 SWAP2 POP POP JUMP JUMPDEST PUSH0 PUSH20 0xFFFFFFFFFFFFFFFFFFFFFFFFFFFFFFFFFFFFFFFF DUP3 AND SWAP1 POP SWAP2 SWAP1 POP JUMP JUMPDEST PUSH0 PUSH2 0xA60 DUP3 PUSH2 0xA37 JUMP JUMPDEST SWAP1 POP SWAP2 SWAP1 POP JUMP JUMPDEST PUSH2 0xA70 DUP2 PUSH2 0xA56 JUMP JUMPDEST DUP2 EQ PUSH2 0xA7A JUMPI PUSH0 DUP1 REVERT JUMPDEST POP JUMP JUMPDEST PUSH0 DUP2 CALLDATALOAD SWAP1 POP PUSH2 0xA8B DUP2 PUSH2 0xA67 JUMP JUMPDEST SWAP3 SWAP2 POP POP JUMP JUMPDEST PUSH2 0xA9A DUP2 PUSH2 0xA06 JUMP JUMPDEST DUP2 EQ PUSH2 0xAA4 JUMPI PUSH0 DUP1 REVERT JUMPDEST POP JUMP JUMPDEST PUSH0 DUP2 CALLDATALOAD SWAP1 POP PUSH2 0xAB5 DUP2 PUSH2 0xA91 JUMP JUMPDEST SWAP3 SWAP2 POP POP JUMP JUMPDEST PUSH0 DUP1 REVERT JUMPDEST PUSH0 DUP1 REVERT JUMPDEST PUSH0 DUP1 REVERT JUMPDEST PUSH0 DUP1 DUP4 PUSH1 0x1F DUP5 ADD SLT PUSH2 0xADC JUMPI PUSH2 0xADB PUSH2 0xABB JUMP JUMPDEST JUMPDEST DUP3 CALLDATALOAD SWAP1 POP PUSH8 0xFFFFFFFFFFFFFFFF DUP2 GT ISZERO PUSH2 0xAF9 JUMPI PUSH2 0xAF8 PUSH2 0xABF JUMP JUMPDEST JUMPDEST PUSH1 0x20 DUP4 ADD SWAP2 POP DUP4 PUSH1 0x1 DUP3 MUL DUP4 ADD GT ISZERO PUSH2 0xB15 JUMPI PUSH2 0xB14 PUSH2 0xAC3 JUMP JUMPDEST JUMPDEST SWAP3 POP SWAP3 SWAP1 POP JUMP JUMPDEST PUSH0 DUP1 DUP4 PUSH1 0x1F DUP5 ADD SLT PUSH2 0xB31 JUMPI PUSH2 0xB30 PUSH2 0xABB JUMP JUMPDEST JUMPDEST DUP3 CALLDATALOAD SWAP1 POP PUSH8 0xFFFFFFFFFFFFFFFF DUP2 GT ISZERO PUSH2 0xB4E JUMPI PUSH2 0xB4D PUSH2 0xABF JUMP JUMPDEST JUMPDEST PUSH1 0x20 DUP4 ADD SWAP2 POP DUP4 PUSH1 0x1 DUP3 MUL DUP4 ADD GT ISZERO PUSH2 0xB6A JUMPI PUSH2 0xB69 PUSH2 0xAC3 JUMP JUMPDEST JUMPDEST SWAP3 POP SWAP3 SWAP1 POP JUMP JUMPDEST PUSH0 DUP1 PUSH0 DUP1 PUSH0 DUP1 PUSH0 PUSH1 0xA0 DUP9 DUP11 SUB SLT ISZERO PUSH2 0xB8C JUMPI PUSH2 0xB8B PUSH2 0x96D JUMP JUMPDEST JUMPDEST PUSH0 PUSH2 0xB99 DUP11 DUP3 DUP12 ADD PUSH2 0xA7D JUMP JUMPDEST SWAP8 POP POP PUSH1 0x20 PUSH2 0xBAA DUP11 DUP3 DUP12 ADD PUSH2 0xAA7 JUMP JUMPDEST SWAP7 POP POP PUSH1 0x40 DUP9 ADD CALLDATALOAD PUSH8 0xFFFFFFFFFFFFFFFF DUP2 GT ISZERO PUSH2 0xBCB JUMPI PUSH2 0xBCA PUSH2 0x971 JUMP JUMPDEST JUMPDEST PUSH2 0xBD7 DUP11 DUP3 DUP12 ADD PUSH2 0xAC7 JUMP JUMPDEST SWAP6 POP SWAP6 POP POP PUSH1 0x60 DUP9 ADD CALLDATALOAD PUSH8 0xFFFFFFFFFFFFFFFF DUP2 GT ISZERO PUSH2 0xBFA JUMPI PUSH2 0xBF9 PUSH2 0x971 JUMP JUMPDEST JUMPDEST PUSH2 0xC06 DUP11 DUP3 DUP12 ADD PUSH2 0xB1C JUMP JUMPDEST SWAP4 POP SWAP4 POP POP PUSH1 0x80 PUSH2 0xC19 DUP11 DUP3 DUP12 ADD PUSH2 0xAA7 JUMP JUMPDEST SWAP2 POP POP SWAP3 SWAP6 SWAP9 SWAP2 SWAP5 SWAP8 POP SWAP3 SWAP6 POP JUMP JUMPDEST PUSH2 0xC31 DUP2 PUSH2 0x975 JUMP JUMPDEST DUP3 MSTORE POP POP JUMP JUMPDEST PUSH0 PUSH1 0x20 DUP3 ADD SWAP1 POP PUSH2 0xC4A PUSH0 DUP4 ADD DUP5 PUSH2 0xC28 JUMP JUMPDEST SWAP3 SWAP2 POP POP JUMP JUMPDEST PUSH2 0xC59 DUP2 PUSH2 0xA56 JUMP JUMPDEST DUP3 MSTORE POP POP JUMP JUMPDEST PUSH0 PUSH1 0x20 DUP3 ADD SWAP1 POP PUSH2 0xC72 PUSH0 DUP4 ADD DUP5 PUSH2 0xC50 JUMP JUMPDEST SWAP3 SWAP2 POP POP JUMP JUMPDEST PUSH0 DUP2 MLOAD SWAP1 POP SWAP2 SWAP1 POP JUMP JUMPDEST PUSH0 DUP3 DUP3 MSTORE PUSH1 0x20 DUP3 ADD SWAP1 POP SWAP3 SWAP2 POP POP JUMP JUMPDEST PUSH0 JUMPDEST DUP4 DUP2 LT ISZERO PUSH2 0xCAF JUMPI DUP1 DUP3 ADD MLOAD DUP2 DUP5 ADD MSTORE PUSH1 0x20 DUP2 ADD SWAP1 POP PUSH2 0xC94 JUMP JUMPDEST PUSH0 DUP5 DUP5 ADD MSTORE POP POP POP POP JUMP JUMPDEST PUSH0 PUSH1 0x1F NOT PUSH1 0x1F DUP4 ADD AND SWAP1 POP SWAP2 SWAP1 POP JUMP JUMPDEST PUSH0 PUSH2 0xCD4 DUP3 PUSH2 0xC78 JUMP JUMPDEST PUSH2 0xCDE DUP2 DUP6 PUSH2 0xC82 JUMP JUMPDEST SWAP4 POP PUSH2 0xCEE DUP2 DUP6 PUSH1 0x20 DUP7 ADD PUSH2 0xC92 JUMP JUMPDEST PUSH2 0xCF7 DUP2 PUSH2 0xCBA JUMP JUMPDEST DUP5 ADD SWAP2 POP POP SWAP3 SWAP2 POP POP JUMP JUMPDEST PUSH0 PUSH1 0x20 DUP3 ADD SWAP1 POP DUP2 DUP2 SUB PUSH0 DUP4 ADD MSTORE PUSH2 0xD1A DUP2 DUP5 PUSH2 0xCCA JUMP JUMPDEST SWAP1 POP SWAP3 SWAP2 POP POP JUMP JUMPDEST PUSH32 0x4E487B7100000000000000000000000000000000000000000000000000000000 PUSH0 MSTORE PUSH1 0x11 PUSH1 0x4 MSTORE PUSH1 0x24 PUSH0 REVERT JUMPDEST PUSH0 PUSH2 0xD59 DUP3 PUSH2 0xA06 JUMP JUMPDEST SWAP2 POP PUSH2 0xD64 DUP4 PUSH2 0xA06 JUMP JUMPDEST SWAP3 POP DUP3 DUP3 ADD SWAP1 POP DUP1 DUP3 GT ISZERO PUSH2 0xD7C JUMPI PUSH2 0xD7B PUSH2 0xD22 JUMP JUMPDEST JUMPDEST SWAP3 SWAP2 POP POP JUMP JUMPDEST PUSH0 PUSH1 0x40 DUP3 ADD SWAP1 POP PUSH2 0xD95 PUSH0 DUP4 ADD DUP6 PUSH2 0xA0F JUMP JUMPDEST PUSH2 0xDA2 PUSH1 0x20 DUP4 ADD DUP5 PUSH2 0xA0F JUMP JUMPDEST SWAP4 SWAP3 POP POP POP JUMP JUMPDEST PUSH0 DUP3 DUP3 MSTORE PUSH1 0x20 DUP3 ADD SWAP1 POP SWAP3 SWAP2 POP POP JUMP JUMPDEST DUP3 DUP2 DUP4 CALLDATACOPY PUSH0 DUP4 DUP4 ADD MSTORE POP POP POP JUMP JUMPDEST PUSH0 PUSH2 0xDD2 DUP4 DUP6 PUSH2 0xDA9 JUMP JUMPDEST SWAP4 POP PUSH2 0xDDF DUP4 DUP6 DUP5 PUSH2 0xDB9 JUMP JUMPDEST PUSH2 0xDE8 DUP4 PUSH2 0xCBA JUMP JUMPDEST DUP5 ADD SWAP1 POP SWAP4 SWAP3 POP POP POP JUMP JUMPDEST PUSH0 PUSH2 0xDFE DUP4 DUP6 PUSH2 0xC82 JUMP JUMPDEST SWAP4 POP PUSH2 0xE0B DUP4 DUP6 DUP5 PUSH2 0xDB9 JUMP JUMPDEST PUSH2 0xE14 DUP4 PUSH2 0xCBA JUMP JUMPDEST DUP5 ADD SWAP1 POP SWAP4 SWAP3 POP POP POP JUMP JUMPDEST PUSH0 PUSH1 0x80 DUP3 ADD SWAP1 POP PUSH2 0xE32 PUSH0 DUP4 ADD DUP10 PUSH2 0xA0F JUMP JUMPDEST DUP2 DUP2 SUB PUSH1 0x20 DUP4 ADD MSTORE PUSH2 0xE45 DUP2 DUP8 DUP10 PUSH2 0xDC7 JUMP JUMPDEST SWAP1 POP DUP2 DUP2 SUB PUSH1 0x40 DUP4 ADD MSTORE PUSH2 0xE5A DUP2 DUP6 DUP8 PUSH2 0xDF3 JUMP JUMPDEST SWAP1 POP PUSH2 0xE69 PUSH1 0x60 DUP4 ADD DUP5 PUSH2 0xA0F JUMP JUMPDEST SWAP8 SWAP7 POP POP POP POP POP POP POP JUMP JUMPDEST PUSH0 PUSH1 0xA0 DUP3 ADD SWAP1 POP PUSH2 0xE87 PUSH0 DUP4 ADD DUP11 PUSH2 0xC50 JUMP JUMPDEST PUSH2 0xE94 PUSH1 0x20 DUP4 ADD DUP10 PUSH2 0xA0F JUMP JUMPDEST DUP2 DUP2 SUB PUSH1 0x40 DUP4 ADD MSTORE PUSH2 0xEA7 DUP2 DUP8 DUP10 PUSH2 0xDC7 JUMP JUMPDEST SWAP1 POP DUP2 DUP2 SUB PUSH1 0x60 DUP4 ADD MSTORE PUSH2 0xEBC DUP2 DUP6 DUP8 PUSH2 0xDF3 JUMP JUMPDEST SWAP1 POP PUSH2 0xECB PUSH1 0x80 DUP4 ADD DUP5 PUSH2 0xA0F JUMP JUMPDEST SWAP9 SWAP8 POP POP POP POP POP POP POP POP JUMP JUMPDEST PUSH0 DUP2 SWAP1 POP SWAP3 SWAP2 POP POP JUMP JUMPDEST PUSH0 PUSH2 0xEEC DUP4 DUP6 PUSH2 0xED7 JUMP JUMPDEST SWAP4 POP PUSH2 0xEF9 DUP4 DUP6 DUP5 PUSH2 0xDB9 JUMP JUMPDEST DUP3 DUP5 ADD SWAP1 POP SWAP4 SWAP3 POP POP POP JUMP JUMPDEST PUSH0 PUSH2 0xF11 DUP3 DUP5 DUP7 PUSH2 0xEE1 JUMP JUMPDEST SWAP2 POP DUP2 SWAP1 POP SWAP4 SWAP3 POP POP POP JUMP JUMPDEST PUSH0 PUSH32 0xFFFFFFFF00000000000000000000000000000000000000000000000000000000 DUP3 AND SWAP1 POP SWAP2 SWAP1 POP JUMP JUMPDEST PUSH0 DUP2 SWAP1 POP SWAP2 SWAP1 POP JUMP JUMPDEST PUSH2 0xF62 PUSH2 0xF5D DUP3 PUSH2 0xF1D JUMP JUMPDEST PUSH2 0xF48 JUMP JUMPDEST DUP3 MSTORE POP POP JUMP JUMPDEST PUSH0 PUSH2 0xF73 DUP3 DUP7 PUSH2 0xF51 JUMP JUMPDEST PUSH1 0x4 DUP3 ADD SWAP2 POP PUSH2 0xF84 DUP3 DUP5 DUP7 PUSH2 0xEE1 JUMP JUMPDEST SWAP2 POP DUP2 SWAP1 POP SWAP5 SWAP4 POP POP POP POP JUMP JUMPDEST PUSH0 PUSH2 0xF9B DUP3 PUSH2 0xC78 JUMP JUMPDEST PUSH2 0xFA5 DUP2 DUP6 PUSH2 0xED7 JUMP JUMPDEST SWAP4 POP PUSH2 0xFB5 DUP2 DUP6 PUSH1 0x20 DUP7 ADD PUSH2 0xC92 JUMP JUMPDEST DUP1 DUP5 ADD SWAP2 POP POP SWAP3 SWAP2 POP POP JUMP JUMPDEST PUSH0 PUSH2 0xFCC DUP3 DUP5 PUSH2 0xF91 JUMP JUMPDEST SWAP2 POP DUP2 SWAP1 POP SWAP3 SWAP2 POP POP JUMP INVALID LOG2 PUSH5 0x6970667358 0x22 SLT KECCAK256 0x5C 0xFB BALANCE LOG2 0xE3 ISZERO 0xED CHAINID LOG2 DELEGATECALL 0xB5 0xC5 CALLDATACOPY 0x2D SIGNEXTEND SMOD DUP13 EXTCODEHASH 0xFB 0xC9 NUMBER STOP MUL DUP9 0x2F 0xEE SWAP1 CALLER 0x29 DUP2 PUSH2 0x2464 PUSH20 0x6F6C634300081600330000000000000000000000 "
				},
				"gasEstimates": {
					"creation": {
						"codeDepositCost": "821800",
						"executionCost": "25120",
						"totalCost": "846920"
					},
					"external": {
						"GRACE_PERIOD()": "391",
						"MAX_DELAY()": "348",
						"MIN_DELAY()": "347",
						"cancel(bytes32)": "infinite",
						"execute(address,uint256,string,bytes,uint256)": "infinite",
						"getTxId(address,uint256,string,bytes,uint256)": "infinite",
						"owner()": "2505",
						"queue(address,uint256,string,bytes,uint256)": "infinite",
						"queued(bytes32)": "2786"
					}
				},
				"methodIdentifiers": {
					"GRACE_PERIOD()": "c1a287e2",
					"MAX_DELAY()": "4125ff90",
					"MIN_DELAY()": "9f81aed7",
					"cancel(bytes32)": "c4d252f5",
					"execute(address,uint256,string,bytes,uint256)": "b0f8b142",
					"getTxId(address,uint256,string,bytes,uint256)": "8a1ce0b6",
					"owner()": "8da5cb5b",
					"queue(address,uint256,string,bytes,uint256)": "4b9915a5",
					"queued(bytes32)": "228250c9"
				}
			},
			"storageLayout": {
				"storage": [
					{
						"astId": 137,
						"contract": "Modules/Solidity/58. Time Lock.sol:TimeLock",
						"label": "owner",
						"offset": 0,
						"slot": "0",
						"type": "t_address"
					},
					{
						"astId": 141,
						"contract": "Modules/Solidity/58. Time Lock.sol:TimeLock",
						"label": "queued",
						"offset": 0,
						"slot": "1",
						"type": "t_mapping(t_bytes32,t_bool)"
					}
				],
				"types": {
					"t_address": {
						"encoding": "inplace",
						"label": "address",
						"numberOfBytes": "20"
					},
					"t_bool": {
						"encoding": "inplace",
						"label": "bool",
						"numberOfBytes": "1"
					},
					"t_bytes32": {
						"encoding": "inplace",
						"label": "bytes32",
						"numberOfBytes": "32"
					},
					"t_mapping(t_bytes32,t_bool)": {
						"encoding": "mapping",
						"key": "t_bytes32",
						"label": "mapping(bytes32 => bool)",
						"numberOfBytes": "32",
						"value": "t_bool"
					}
				}
			},
			"userdoc": {
				"kind": "user",
				"methods": {},
				"version": 1
			}
		}
	}
}