{
	"Modules/Solidity/75. Assembly Math.sol": {
		"AssemblyMath": {
			"abi": [
				{
					"inputs": [
						{
							"internalType": "uint256",
							"name": "x",
							"type": "uint256"
						},
						{
							"internalType": "uint256",
							"name": "y",
							"type": "uint256"
						},
						{
							"internalType": "uint256",
							"name": "b",
							"type": "uint256"
						}
					],
					"name": "fixed_point_mul",
					"outputs": [
						{
							"internalType": "uint256",
							"name": "z",
							"type": "uint256"
						}
					],
					"stateMutability": "pure",
					"type": "function"
				},
				{
					"inputs": [
						{
							"internalType": "uint256",
							"name": "x",
							"type": "uint256"
						},
						{
							"internalType": "uint256",
							"name": "y",
							"type": "uint256"
						}
					],
					"name": "sub",
					"outputs": [
						{
							"internalType": "uint256",
							"name": "z",
							"type": "uint256"
						}
					],
					"stateMutability": "pure",
					"type": "function"
				},
				{
					"inputs": [
						{
							"internalType": "uint256",
							"name": "x",
							"type": "uint256"
						},
						{
							"internalType": "uint256",
							"name": "y",
							"type": "uint256"
						}
					],
					"name": "yul_add",
					"outputs": [
						{
							"internalType": "uint256",
							"name": "z",
							"type": "uint256"
						}
					],
					"stateMutability": "pure",
					"type": "function"
				},
				{
					"inputs": [
						{
							"internalType": "uint256",
							"name": "x",
							"type": "uint256"
						},
						{
							"internalType": "uint256",
							"name": "b",
							"type": "uint256"
						}
					],
					"name": "yul_fixed_point_round",
					"outputs": [
						{
							"internalType": "uint256",
							"name": "z",
							"type": "uint256"
						}
					],
					"stateMutability": "pure",
					"type": "function"
				},
				{
					"inputs": [
						{
							"internalType": "uint256",
							"name": "x",
							"type": "uint256"
						},
						{
							"internalType": "uint256",
							"name": "y",
							"type": "uint256"
						}
					],
					"name": "yul_mul",
					"outputs": [
						{
							"internalType": "uint256",
							"name": "z",
							"type": "uint256"
						}
					],
					"stateMutability": "pure",
					"type": "function"
				}
			],
			"devdoc": {
				"kind": "dev",
				"methods": {},
				"version": 1
			},
			"evm": {
				"assembly": "    /* \"Modules/Solidity/75. Assembly Math.sol\":57:1650  contract AssemblyMath {... */\n  mstore(0x40, 0x80)\n  callvalue\n  dup1\n  iszero\n  tag_1\n  jumpi\n  0x00\n  dup1\n  revert\ntag_1:\n  pop\n  dataSize(sub_0)\n  dup1\n  dataOffset(sub_0)\n  0x00\n  codecopy\n  0x00\n  return\nstop\n\nsub_0: assembly {\n        /* \"Modules/Solidity/75. Assembly Math.sol\":57:1650  contract AssemblyMath {... */\n      mstore(0x40, 0x80)\n      callvalue\n      dup1\n      iszero\n      tag_1\n      jumpi\n      0x00\n      dup1\n      revert\n    tag_1:\n      pop\n      jumpi(tag_2, lt(calldatasize, 0x04))\n      shr(0xe0, calldataload(0x00))\n      dup1\n      0x13aadff8\n      eq\n      tag_3\n      jumpi\n      dup1\n      0x1ddb78a7\n      eq\n      tag_4\n      jumpi\n      dup1\n      0x7ad2c242\n      eq\n      tag_5\n      jumpi\n      dup1\n      0xb67d77c5\n      eq\n      tag_6\n      jumpi\n      dup1\n      0xe888b165\n      eq\n      tag_7\n      jumpi\n    tag_2:\n      0x00\n      dup1\n      revert\n        /* \"Modules/Solidity/75. Assembly Math.sol\":1284:1648  function fixed_point_mul(uint256 x, uint256 y, uint256 b)... */\n    tag_3:\n      tag_8\n      0x04\n      dup1\n      calldatasize\n      sub\n      dup2\n      add\n      swap1\n      tag_9\n      swap2\n      swap1\n      tag_10\n      jump\t// in\n    tag_9:\n      tag_11\n      jump\t// in\n    tag_8:\n      mload(0x40)\n      tag_12\n      swap2\n      swap1\n      tag_13\n      jump\t// in\n    tag_12:\n      mload(0x40)\n      dup1\n      swap2\n      sub\n      swap1\n      return\n        /* \"Modules/Solidity/75. Assembly Math.sol\":85:260  function yul_add(uint256 x, uint256 y) public pure returns (uint256 z) {... */\n    tag_4:\n      tag_14\n      0x04\n      dup1\n      calldatasize\n      sub\n      dup2\n      add\n      swap1\n      tag_15\n      swap2\n      swap1\n      tag_16\n      jump\t// in\n    tag_15:\n      tag_17\n      jump\t// in\n    tag_14:\n      mload(0x40)\n      tag_18\n      swap2\n      swap1\n      tag_13\n      jump\t// in\n    tag_18:\n      mload(0x40)\n      dup1\n      swap2\n      sub\n      swap1\n      return\n        /* \"Modules/Solidity/75. Assembly Math.sol\":596:1101  function yul_fixed_point_round(uint256 x, uint256 b)... */\n    tag_5:\n      tag_19\n      0x04\n      dup1\n      calldatasize\n      sub\n      dup2\n      add\n      swap1\n      tag_20\n      swap2\n      swap1\n      tag_16\n      jump\t// in\n    tag_20:\n      tag_21\n      jump\t// in\n    tag_19:\n      mload(0x40)\n      tag_22\n      swap2\n      swap1\n      tag_13\n      jump\t// in\n    tag_22:\n      mload(0x40)\n      dup1\n      swap2\n      sub\n      swap1\n      return\n        /* \"Modules/Solidity/75. Assembly Math.sol\":1107:1278  function sub(uint256 x, uint256 y) public pure returns (uint256 z) {... */\n    tag_6:\n      tag_23\n      0x04\n      dup1\n      calldatasize\n      sub\n      dup2\n      add\n      swap1\n      tag_24\n      swap2\n      swap1\n      tag_16\n      jump\t// in\n    tag_24:\n      tag_25\n      jump\t// in\n    tag_23:\n      mload(0x40)\n      tag_26\n      swap2\n      swap1\n      tag_13\n      jump\t// in\n    tag_26:\n      mload(0x40)\n      dup1\n      swap2\n      sub\n      swap1\n      return\n        /* \"Modules/Solidity/75. Assembly Math.sol\":266:552  function yul_mul(uint256 x, uint256 y) public pure returns (uint256 z) {... */\n    tag_7:\n      tag_27\n      0x04\n      dup1\n      calldatasize\n      sub\n      dup2\n      add\n      swap1\n      tag_28\n      swap2\n      swap1\n      tag_16\n      jump\t// in\n    tag_28:\n      tag_29\n      jump\t// in\n    tag_27:\n      mload(0x40)\n      tag_30\n      swap2\n      swap1\n      tag_13\n      jump\t// in\n    tag_30:\n      mload(0x40)\n      dup1\n      swap2\n      sub\n      swap1\n      return\n        /* \"Modules/Solidity/75. Assembly Math.sol\":1284:1648  function fixed_point_mul(uint256 x, uint256 y, uint256 b)... */\n    tag_11:\n        /* \"Modules/Solidity/75. Assembly Math.sol\":1387:1396  uint256 z */\n      0x00\n        /* \"Modules/Solidity/75. Assembly Math.sol\":1442:1443  x */\n      dup4\n        /* \"Modules/Solidity/75. Assembly Math.sol\":1461:1462  0 */\n      0x00\n        /* \"Modules/Solidity/75. Assembly Math.sol\":1456:1473  case 0 { z := 0 } */\n      dup2\n      eq\n      tag_33\n      jumpi\n        /* \"Modules/Solidity/75. Assembly Math.sol\":1524:1525  y */\n      dup4\n        /* \"Modules/Solidity/75. Assembly Math.sol\":1521:1522  x */\n      dup6\n        /* \"Modules/Solidity/75. Assembly Math.sol\":1517:1526  mul(x, y) */\n      mul\n        /* \"Modules/Solidity/75. Assembly Math.sol\":1512:1526  z := mul(x, y) */\n      swap2\n      pop\n        /* \"Modules/Solidity/75. Assembly Math.sol\":1567:1568  y */\n      dup4\n        /* \"Modules/Solidity/75. Assembly Math.sol\":1563:1564  x */\n      dup6\n        /* \"Modules/Solidity/75. Assembly Math.sol\":1560:1561  z */\n      dup4\n        /* \"Modules/Solidity/75. Assembly Math.sol\":1556:1565  div(z, x) */\n      div\n        /* \"Modules/Solidity/75. Assembly Math.sol\":1553:1569  eq(div(z, x), y) */\n      eq\n        /* \"Modules/Solidity/75. Assembly Math.sol\":1543:1587  if iszero(eq(div(z, x), y)) { revert(0, 0) } */\n      tag_34\n      jumpi\n        /* \"Modules/Solidity/75. Assembly Math.sol\":1583:1584  0 */\n      0x00\n        /* \"Modules/Solidity/75. Assembly Math.sol\":1580:1581  0 */\n      dup1\n        /* \"Modules/Solidity/75. Assembly Math.sol\":1573:1585  revert(0, 0) */\n      revert\n        /* \"Modules/Solidity/75. Assembly Math.sol\":1543:1587  if iszero(eq(div(z, x), y)) { revert(0, 0) } */\n    tag_34:\n        /* \"Modules/Solidity/75. Assembly Math.sol\":1616:1617  b */\n      dup3\n        /* \"Modules/Solidity/75. Assembly Math.sol\":1613:1614  z */\n      dup3\n        /* \"Modules/Solidity/75. Assembly Math.sol\":1609:1618  div(z, b) */\n      div\n        /* \"Modules/Solidity/75. Assembly Math.sol\":1604:1618  z := div(z, b) */\n      swap2\n      pop\n        /* \"Modules/Solidity/75. Assembly Math.sol\":1435:1632  switch x... */\n      jump(tag_32)\n        /* \"Modules/Solidity/75. Assembly Math.sol\":1456:1473  case 0 { z := 0 } */\n    tag_33:\n        /* \"Modules/Solidity/75. Assembly Math.sol\":1470:1471  0 */\n      0x00\n        /* \"Modules/Solidity/75. Assembly Math.sol\":1465:1471  z := 0 */\n      swap2\n      pop\n        /* \"Modules/Solidity/75. Assembly Math.sol\":1435:1632  switch x... */\n    tag_32:\n      pop\n        /* \"Modules/Solidity/75. Assembly Math.sol\":1284:1648  function fixed_point_mul(uint256 x, uint256 y, uint256 b)... */\n      swap4\n      swap3\n      pop\n      pop\n      pop\n      jump\t// out\n        /* \"Modules/Solidity/75. Assembly Math.sol\":85:260  function yul_add(uint256 x, uint256 y) public pure returns (uint256 z) {... */\n    tag_17:\n        /* \"Modules/Solidity/75. Assembly Math.sol\":145:154  uint256 z */\n      0x00\n        /* \"Modules/Solidity/75. Assembly Math.sol\":201:202  y */\n      dup2\n        /* \"Modules/Solidity/75. Assembly Math.sol\":198:199  x */\n      dup4\n        /* \"Modules/Solidity/75. Assembly Math.sol\":194:203  add(x, y) */\n      add\n        /* \"Modules/Solidity/75. Assembly Math.sol\":189:203  z := add(x, y) */\n      swap1\n      pop\n        /* \"Modules/Solidity/75. Assembly Math.sol\":225:226  x */\n      dup3\n        /* \"Modules/Solidity/75. Assembly Math.sol\":222:223  z */\n      dup2\n        /* \"Modules/Solidity/75. Assembly Math.sol\":219:227  lt(z, x) */\n      lt\n        /* \"Modules/Solidity/75. Assembly Math.sol\":216:244  if lt(z, x) { revert(0, 0) } */\n      iszero\n      tag_36\n      jumpi\n        /* \"Modules/Solidity/75. Assembly Math.sol\":240:241  0 */\n      0x00\n        /* \"Modules/Solidity/75. Assembly Math.sol\":237:238  0 */\n      dup1\n        /* \"Modules/Solidity/75. Assembly Math.sol\":230:242  revert(0, 0) */\n      revert\n        /* \"Modules/Solidity/75. Assembly Math.sol\":216:244  if lt(z, x) { revert(0, 0) } */\n    tag_36:\n        /* \"Modules/Solidity/75. Assembly Math.sol\":85:260  function yul_add(uint256 x, uint256 y) public pure returns (uint256 z) {... */\n      swap3\n      swap2\n      pop\n      pop\n      jump\t// out\n        /* \"Modules/Solidity/75. Assembly Math.sol\":596:1101  function yul_fixed_point_round(uint256 x, uint256 b)... */\n    tag_21:\n        /* \"Modules/Solidity/75. Assembly Math.sol\":694:703  uint256 z */\n      0x00\n        /* \"Modules/Solidity/75. Assembly Math.sol\":897:898  2 */\n      0x02\n        /* \"Modules/Solidity/75. Assembly Math.sol\":894:895  b */\n      dup3\n        /* \"Modules/Solidity/75. Assembly Math.sol\":890:899  div(b, 2) */\n      div\n        /* \"Modules/Solidity/75. Assembly Math.sol\":924:928  half */\n      dup1\n        /* \"Modules/Solidity/75. Assembly Math.sol\":921:922  x */\n      dup5\n        /* \"Modules/Solidity/75. Assembly Math.sol\":917:929  add(x, half) */\n      add\n        /* \"Modules/Solidity/75. Assembly Math.sol\":912:929  z := add(x, half) */\n      swap2\n      pop\n        /* \"Modules/Solidity/75. Assembly Math.sol\":962:963  b */\n      dup3\n        /* \"Modules/Solidity/75. Assembly Math.sol\":958:959  b */\n      dup4\n        /* \"Modules/Solidity/75. Assembly Math.sol\":955:956  z */\n      dup4\n        /* \"Modules/Solidity/75. Assembly Math.sol\":951:960  div(z, b) */\n      div\n        /* \"Modules/Solidity/75. Assembly Math.sol\":947:964  mul(div(z, b), b) */\n      mul\n        /* \"Modules/Solidity/75. Assembly Math.sol\":942:964  z := mul(div(z, b), b) */\n      swap2\n      pop\n        /* \"Modules/Solidity/75. Assembly Math.sol\":728:1095  {... */\n      pop\n        /* \"Modules/Solidity/75. Assembly Math.sol\":596:1101  function yul_fixed_point_round(uint256 x, uint256 b)... */\n      swap3\n      swap2\n      pop\n      pop\n      jump\t// out\n        /* \"Modules/Solidity/75. Assembly Math.sol\":1107:1278  function sub(uint256 x, uint256 y) public pure returns (uint256 z) {... */\n    tag_25:\n        /* \"Modules/Solidity/75. Assembly Math.sol\":1163:1172  uint256 z */\n      0x00\n        /* \"Modules/Solidity/75. Assembly Math.sol\":1216:1217  y */\n      dup2\n        /* \"Modules/Solidity/75. Assembly Math.sol\":1213:1214  x */\n      dup4\n        /* \"Modules/Solidity/75. Assembly Math.sol\":1210:1218  lt(x, y) */\n      lt\n        /* \"Modules/Solidity/75. Assembly Math.sol\":1207:1235  if lt(x, y) { revert(0, 0) } */\n      iszero\n      tag_39\n      jumpi\n        /* \"Modules/Solidity/75. Assembly Math.sol\":1231:1232  0 */\n      0x00\n        /* \"Modules/Solidity/75. Assembly Math.sol\":1228:1229  0 */\n      dup1\n        /* \"Modules/Solidity/75. Assembly Math.sol\":1221:1233  revert(0, 0) */\n      revert\n        /* \"Modules/Solidity/75. Assembly Math.sol\":1207:1235  if lt(x, y) { revert(0, 0) } */\n    tag_39:\n        /* \"Modules/Solidity/75. Assembly Math.sol\":1260:1261  y */\n      dup2\n        /* \"Modules/Solidity/75. Assembly Math.sol\":1257:1258  x */\n      dup4\n        /* \"Modules/Solidity/75. Assembly Math.sol\":1253:1262  sub(x, y) */\n      sub\n        /* \"Modules/Solidity/75. Assembly Math.sol\":1248:1262  z := sub(x, y) */\n      swap1\n      pop\n        /* \"Modules/Solidity/75. Assembly Math.sol\":1107:1278  function sub(uint256 x, uint256 y) public pure returns (uint256 z) {... */\n      swap3\n      swap2\n      pop\n      pop\n      jump\t// out\n        /* \"Modules/Solidity/75. Assembly Math.sol\":266:552  function yul_mul(uint256 x, uint256 y) public pure returns (uint256 z) {... */\n    tag_29:\n        /* \"Modules/Solidity/75. Assembly Math.sol\":326:335  uint256 z */\n      0x00\n        /* \"Modules/Solidity/75. Assembly Math.sol\":377:378  x */\n      dup3\n        /* \"Modules/Solidity/75. Assembly Math.sol\":396:397  0 */\n      0x00\n        /* \"Modules/Solidity/75. Assembly Math.sol\":391:408  case 0 { z := 0 } */\n      dup2\n      eq\n      tag_42\n      jumpi\n        /* \"Modules/Solidity/75. Assembly Math.sol\":459:460  y */\n      dup3\n        /* \"Modules/Solidity/75. Assembly Math.sol\":456:457  x */\n      dup5\n        /* \"Modules/Solidity/75. Assembly Math.sol\":452:461  mul(x, y) */\n      mul\n        /* \"Modules/Solidity/75. Assembly Math.sol\":447:461  z := mul(x, y) */\n      swap2\n      pop\n        /* \"Modules/Solidity/75. Assembly Math.sol\":502:503  y */\n      dup3\n        /* \"Modules/Solidity/75. Assembly Math.sol\":498:499  x */\n      dup5\n        /* \"Modules/Solidity/75. Assembly Math.sol\":495:496  z */\n      dup4\n        /* \"Modules/Solidity/75. Assembly Math.sol\":491:500  div(z, x) */\n      div\n        /* \"Modules/Solidity/75. Assembly Math.sol\":488:504  eq(div(z, x), y) */\n      eq\n        /* \"Modules/Solidity/75. Assembly Math.sol\":478:522  if iszero(eq(div(z, x), y)) { revert(0, 0) } */\n      tag_43\n      jumpi\n        /* \"Modules/Solidity/75. Assembly Math.sol\":518:519  0 */\n      0x00\n        /* \"Modules/Solidity/75. Assembly Math.sol\":515:516  0 */\n      dup1\n        /* \"Modules/Solidity/75. Assembly Math.sol\":508:520  revert(0, 0) */\n      revert\n        /* \"Modules/Solidity/75. Assembly Math.sol\":478:522  if iszero(eq(div(z, x), y)) { revert(0, 0) } */\n    tag_43:\n        /* \"Modules/Solidity/75. Assembly Math.sol\":370:536  switch x... */\n      jump(tag_41)\n        /* \"Modules/Solidity/75. Assembly Math.sol\":391:408  case 0 { z := 0 } */\n    tag_42:\n        /* \"Modules/Solidity/75. Assembly Math.sol\":405:406  0 */\n      0x00\n        /* \"Modules/Solidity/75. Assembly Math.sol\":400:406  z := 0 */\n      swap2\n      pop\n        /* \"Modules/Solidity/75. Assembly Math.sol\":370:536  switch x... */\n    tag_41:\n      pop\n        /* \"Modules/Solidity/75. Assembly Math.sol\":266:552  function yul_mul(uint256 x, uint256 y) public pure returns (uint256 z) {... */\n      swap3\n      swap2\n      pop\n      pop\n      jump\t// out\n        /* \"#utility.yul\":88:205   */\n    tag_45:\n        /* \"#utility.yul\":197:198   */\n      0x00\n        /* \"#utility.yul\":194:195   */\n      dup1\n        /* \"#utility.yul\":187:199   */\n      revert\n        /* \"#utility.yul\":334:411   */\n    tag_47:\n        /* \"#utility.yul\":371:378   */\n      0x00\n        /* \"#utility.yul\":400:405   */\n      dup2\n        /* \"#utility.yul\":389:405   */\n      swap1\n      pop\n        /* \"#utility.yul\":334:411   */\n      swap2\n      swap1\n      pop\n      jump\t// out\n        /* \"#utility.yul\":417:539   */\n    tag_48:\n        /* \"#utility.yul\":490:514   */\n      tag_57\n        /* \"#utility.yul\":508:513   */\n      dup2\n        /* \"#utility.yul\":490:514   */\n      tag_47\n      jump\t// in\n    tag_57:\n        /* \"#utility.yul\":483:488   */\n      dup2\n        /* \"#utility.yul\":480:515   */\n      eq\n        /* \"#utility.yul\":470:533   */\n      tag_58\n      jumpi\n        /* \"#utility.yul\":529:530   */\n      0x00\n        /* \"#utility.yul\":526:527   */\n      dup1\n        /* \"#utility.yul\":519:531   */\n      revert\n        /* \"#utility.yul\":470:533   */\n    tag_58:\n        /* \"#utility.yul\":417:539   */\n      pop\n      jump\t// out\n        /* \"#utility.yul\":545:684   */\n    tag_49:\n        /* \"#utility.yul\":591:596   */\n      0x00\n        /* \"#utility.yul\":629:635   */\n      dup2\n        /* \"#utility.yul\":616:636   */\n      calldataload\n        /* \"#utility.yul\":607:636   */\n      swap1\n      pop\n        /* \"#utility.yul\":645:678   */\n      tag_60\n        /* \"#utility.yul\":672:677   */\n      dup2\n        /* \"#utility.yul\":645:678   */\n      tag_48\n      jump\t// in\n    tag_60:\n        /* \"#utility.yul\":545:684   */\n      swap3\n      swap2\n      pop\n      pop\n      jump\t// out\n        /* \"#utility.yul\":690:1309   */\n    tag_10:\n        /* \"#utility.yul\":767:773   */\n      0x00\n        /* \"#utility.yul\":775:781   */\n      dup1\n        /* \"#utility.yul\":783:789   */\n      0x00\n        /* \"#utility.yul\":832:834   */\n      0x60\n        /* \"#utility.yul\":820:829   */\n      dup5\n        /* \"#utility.yul\":811:818   */\n      dup7\n        /* \"#utility.yul\":807:830   */\n      sub\n        /* \"#utility.yul\":803:835   */\n      slt\n        /* \"#utility.yul\":800:919   */\n      iszero\n      tag_62\n      jumpi\n        /* \"#utility.yul\":838:917   */\n      tag_63\n      tag_45\n      jump\t// in\n    tag_63:\n        /* \"#utility.yul\":800:919   */\n    tag_62:\n        /* \"#utility.yul\":958:959   */\n      0x00\n        /* \"#utility.yul\":983:1036   */\n      tag_64\n        /* \"#utility.yul\":1028:1035   */\n      dup7\n        /* \"#utility.yul\":1019:1025   */\n      dup3\n        /* \"#utility.yul\":1008:1017   */\n      dup8\n        /* \"#utility.yul\":1004:1026   */\n      add\n        /* \"#utility.yul\":983:1036   */\n      tag_49\n      jump\t// in\n    tag_64:\n        /* \"#utility.yul\":973:1036   */\n      swap4\n      pop\n        /* \"#utility.yul\":929:1046   */\n      pop\n        /* \"#utility.yul\":1085:1087   */\n      0x20\n        /* \"#utility.yul\":1111:1164   */\n      tag_65\n        /* \"#utility.yul\":1156:1163   */\n      dup7\n        /* \"#utility.yul\":1147:1153   */\n      dup3\n        /* \"#utility.yul\":1136:1145   */\n      dup8\n        /* \"#utility.yul\":1132:1154   */\n      add\n        /* \"#utility.yul\":1111:1164   */\n      tag_49\n      jump\t// in\n    tag_65:\n        /* \"#utility.yul\":1101:1164   */\n      swap3\n      pop\n        /* \"#utility.yul\":1056:1174   */\n      pop\n        /* \"#utility.yul\":1213:1215   */\n      0x40\n        /* \"#utility.yul\":1239:1292   */\n      tag_66\n        /* \"#utility.yul\":1284:1291   */\n      dup7\n        /* \"#utility.yul\":1275:1281   */\n      dup3\n        /* \"#utility.yul\":1264:1273   */\n      dup8\n        /* \"#utility.yul\":1260:1282   */\n      add\n        /* \"#utility.yul\":1239:1292   */\n      tag_49\n      jump\t// in\n    tag_66:\n        /* \"#utility.yul\":1229:1292   */\n      swap2\n      pop\n        /* \"#utility.yul\":1184:1302   */\n      pop\n        /* \"#utility.yul\":690:1309   */\n      swap3\n      pop\n      swap3\n      pop\n      swap3\n      jump\t// out\n        /* \"#utility.yul\":1315:1433   */\n    tag_50:\n        /* \"#utility.yul\":1402:1426   */\n      tag_68\n        /* \"#utility.yul\":1420:1425   */\n      dup2\n        /* \"#utility.yul\":1402:1426   */\n      tag_47\n      jump\t// in\n    tag_68:\n        /* \"#utility.yul\":1397:1400   */\n      dup3\n        /* \"#utility.yul\":1390:1427   */\n      mstore\n        /* \"#utility.yul\":1315:1433   */\n      pop\n      pop\n      jump\t// out\n        /* \"#utility.yul\":1439:1661   */\n    tag_13:\n        /* \"#utility.yul\":1532:1536   */\n      0x00\n        /* \"#utility.yul\":1570:1572   */\n      0x20\n        /* \"#utility.yul\":1559:1568   */\n      dup3\n        /* \"#utility.yul\":1555:1573   */\n      add\n        /* \"#utility.yul\":1547:1573   */\n      swap1\n      pop\n        /* \"#utility.yul\":1583:1654   */\n      tag_70\n        /* \"#utility.yul\":1651:1652   */\n      0x00\n        /* \"#utility.yul\":1640:1649   */\n      dup4\n        /* \"#utility.yul\":1636:1653   */\n      add\n        /* \"#utility.yul\":1627:1633   */\n      dup5\n        /* \"#utility.yul\":1583:1654   */\n      tag_50\n      jump\t// in\n    tag_70:\n        /* \"#utility.yul\":1439:1661   */\n      swap3\n      swap2\n      pop\n      pop\n      jump\t// out\n        /* \"#utility.yul\":1667:2141   */\n    tag_16:\n        /* \"#utility.yul\":1735:1741   */\n      0x00\n        /* \"#utility.yul\":1743:1749   */\n      dup1\n        /* \"#utility.yul\":1792:1794   */\n      0x40\n        /* \"#utility.yul\":1780:1789   */\n      dup4\n        /* \"#utility.yul\":1771:1778   */\n      dup6\n        /* \"#utility.yul\":1767:1790   */\n      sub\n        /* \"#utility.yul\":1763:1795   */\n      slt\n        /* \"#utility.yul\":1760:1879   */\n      iszero\n      tag_72\n      jumpi\n        /* \"#utility.yul\":1798:1877   */\n      tag_73\n      tag_45\n      jump\t// in\n    tag_73:\n        /* \"#utility.yul\":1760:1879   */\n    tag_72:\n        /* \"#utility.yul\":1918:1919   */\n      0x00\n        /* \"#utility.yul\":1943:1996   */\n      tag_74\n        /* \"#utility.yul\":1988:1995   */\n      dup6\n        /* \"#utility.yul\":1979:1985   */\n      dup3\n        /* \"#utility.yul\":1968:1977   */\n      dup7\n        /* \"#utility.yul\":1964:1986   */\n      add\n        /* \"#utility.yul\":1943:1996   */\n      tag_49\n      jump\t// in\n    tag_74:\n        /* \"#utility.yul\":1933:1996   */\n      swap3\n      pop\n        /* \"#utility.yul\":1889:2006   */\n      pop\n        /* \"#utility.yul\":2045:2047   */\n      0x20\n        /* \"#utility.yul\":2071:2124   */\n      tag_75\n        /* \"#utility.yul\":2116:2123   */\n      dup6\n        /* \"#utility.yul\":2107:2113   */\n      dup3\n        /* \"#utility.yul\":2096:2105   */\n      dup7\n        /* \"#utility.yul\":2092:2114   */\n      add\n        /* \"#utility.yul\":2071:2124   */\n      tag_49\n      jump\t// in\n    tag_75:\n        /* \"#utility.yul\":2061:2124   */\n      swap2\n      pop\n        /* \"#utility.yul\":2016:2134   */\n      pop\n        /* \"#utility.yul\":1667:2141   */\n      swap3\n      pop\n      swap3\n      swap1\n      pop\n      jump\t// out\n\n    auxdata: 0xa264697066735822122079903258a842e036657b6dffb68705f33c1abc34537caacd8e97dd7caf25df7a64736f6c63430008160033\n}\n",
				"bytecode": {
					"linkReferences": {},
					"object": "608060405234801561000f575f80fd5b506103108061001d5f395ff3fe608060405234801561000f575f80fd5b5060043610610055575f3560e01c806313aadff8146100595780631ddb78a7146100895780637ad2c242146100b9578063b67d77c5146100e9578063e888b16514610119575b5f80fd5b610073600480360381019061006e9190610224565b610149565b6040516100809190610283565b60405180910390f35b6100a3600480360381019061009e919061029c565b61017a565b6040516100b09190610283565b60405180910390f35b6100d360048036038101906100ce919061029c565b610192565b6040516100e09190610283565b60405180910390f35b61010360048036038101906100fe919061029c565b6101aa565b6040516101109190610283565b60405180910390f35b610133600480360381019061012e919061029c565b6101c2565b6040516101409190610283565b60405180910390f35b5f835f811461016e5783850291508385830414610164575f80fd5b8282049150610172565b5f91505b509392505050565b5f81830190508281101561018c575f80fd5b92915050565b5f600282048084019150828383040291505092915050565b5f818310156101b7575f80fd5b818303905092915050565b5f825f81146101e257828402915082848304146101dd575f80fd5b6101e6565b5f91505b5092915050565b5f80fd5b5f819050919050565b610203816101f1565b811461020d575f80fd5b50565b5f8135905061021e816101fa565b92915050565b5f805f6060848603121561023b5761023a6101ed565b5b5f61024886828701610210565b935050602061025986828701610210565b925050604061026a86828701610210565b9150509250925092565b61027d816101f1565b82525050565b5f6020820190506102965f830184610274565b92915050565b5f80604083850312156102b2576102b16101ed565b5b5f6102bf85828601610210565b92505060206102d085828601610210565b915050925092905056fea264697066735822122079903258a842e036657b6dffb68705f33c1abc34537caacd8e97dd7caf25df7a64736f6c63430008160033",
					"opcodes": "PUSH1 0x80 PUSH1 0x40 MSTORE CALLVALUE DUP1 ISZERO PUSH2 0xF JUMPI PUSH0 DUP1 REVERT JUMPDEST POP PUSH2 0x310 DUP1 PUSH2 0x1D PUSH0 CODECOPY PUSH0 RETURN INVALID PUSH1 0x80 PUSH1 0x40 MSTORE CALLVALUE DUP1 ISZERO PUSH2 0xF JUMPI PUSH0 DUP1 REVERT JUMPDEST POP PUSH1 0x4 CALLDATASIZE LT PUSH2 0x55 JUMPI PUSH0 CALLDATALOAD PUSH1 0xE0 SHR DUP1 PUSH4 0x13AADFF8 EQ PUSH2 0x59 JUMPI DUP1 PUSH4 0x1DDB78A7 EQ PUSH2 0x89 JUMPI DUP1 PUSH4 0x7AD2C242 EQ PUSH2 0xB9 JUMPI DUP1 PUSH4 0xB67D77C5 EQ PUSH2 0xE9 JUMPI DUP1 PUSH4 0xE888B165 EQ PUSH2 0x119 JUMPI JUMPDEST PUSH0 DUP1 REVERT JUMPDEST PUSH2 0x73 PUSH1 0x4 DUP1 CALLDATASIZE SUB DUP2 ADD SWAP1 PUSH2 0x6E SWAP2 SWAP1 PUSH2 0x224 JUMP JUMPDEST PUSH2 0x149 JUMP JUMPDEST PUSH1 0x40 MLOAD PUSH2 0x80 SWAP2 SWAP1 PUSH2 0x283 JUMP JUMPDEST PUSH1 0x40 MLOAD DUP1 SWAP2 SUB SWAP1 RETURN JUMPDEST PUSH2 0xA3 PUSH1 0x4 DUP1 CALLDATASIZE SUB DUP2 ADD SWAP1 PUSH2 0x9E SWAP2 SWAP1 PUSH2 0x29C JUMP JUMPDEST PUSH2 0x17A JUMP JUMPDEST PUSH1 0x40 MLOAD PUSH2 0xB0 SWAP2 SWAP1 PUSH2 0x283 JUMP JUMPDEST PUSH1 0x40 MLOAD DUP1 SWAP2 SUB SWAP1 RETURN JUMPDEST PUSH2 0xD3 PUSH1 0x4 DUP1 CALLDATASIZE SUB DUP2 ADD SWAP1 PUSH2 0xCE SWAP2 SWAP1 PUSH2 0x29C JUMP JUMPDEST PUSH2 0x192 JUMP JUMPDEST PUSH1 0x40 MLOAD PUSH2 0xE0 SWAP2 SWAP1 PUSH2 0x283 JUMP JUMPDEST PUSH1 0x40 MLOAD DUP1 SWAP2 SUB SWAP1 RETURN JUMPDEST PUSH2 0x103 PUSH1 0x4 DUP1 CALLDATASIZE SUB DUP2 ADD SWAP1 PUSH2 0xFE SWAP2 SWAP1 PUSH2 0x29C JUMP JUMPDEST PUSH2 0x1AA JUMP JUMPDEST PUSH1 0x40 MLOAD PUSH2 0x110 SWAP2 SWAP1 PUSH2 0x283 JUMP JUMPDEST PUSH1 0x40 MLOAD DUP1 SWAP2 SUB SWAP1 RETURN JUMPDEST PUSH2 0x133 PUSH1 0x4 DUP1 CALLDATASIZE SUB DUP2 ADD SWAP1 PUSH2 0x12E SWAP2 SWAP1 PUSH2 0x29C JUMP JUMPDEST PUSH2 0x1C2 JUMP JUMPDEST PUSH1 0x40 MLOAD PUSH2 0x140 SWAP2 SWAP1 PUSH2 0x283 JUMP JUMPDEST PUSH1 0x40 MLOAD DUP1 SWAP2 SUB SWAP1 RETURN JUMPDEST PUSH0 DUP4 PUSH0 DUP2 EQ PUSH2 0x16E JUMPI DUP4 DUP6 MUL SWAP2 POP DUP4 DUP6 DUP4 DIV EQ PUSH2 0x164 JUMPI PUSH0 DUP1 REVERT JUMPDEST DUP3 DUP3 DIV SWAP2 POP PUSH2 0x172 JUMP JUMPDEST PUSH0 SWAP2 POP JUMPDEST POP SWAP4 SWAP3 POP POP POP JUMP JUMPDEST PUSH0 DUP2 DUP4 ADD SWAP1 POP DUP3 DUP2 LT ISZERO PUSH2 0x18C JUMPI PUSH0 DUP1 REVERT JUMPDEST SWAP3 SWAP2 POP POP JUMP JUMPDEST PUSH0 PUSH1 0x2 DUP3 DIV DUP1 DUP5 ADD SWAP2 POP DUP3 DUP4 DUP4 DIV MUL SWAP2 POP POP SWAP3 SWAP2 POP POP JUMP JUMPDEST PUSH0 DUP2 DUP4 LT ISZERO PUSH2 0x1B7 JUMPI PUSH0 DUP1 REVERT JUMPDEST DUP2 DUP4 SUB SWAP1 POP SWAP3 SWAP2 POP POP JUMP JUMPDEST PUSH0 DUP3 PUSH0 DUP2 EQ PUSH2 0x1E2 JUMPI DUP3 DUP5 MUL SWAP2 POP DUP3 DUP5 DUP4 DIV EQ PUSH2 0x1DD JUMPI PUSH0 DUP1 REVERT JUMPDEST PUSH2 0x1E6 JUMP JUMPDEST PUSH0 SWAP2 POP JUMPDEST POP SWAP3 SWAP2 POP POP JUMP JUMPDEST PUSH0 DUP1 REVERT JUMPDEST PUSH0 DUP2 SWAP1 POP SWAP2 SWAP1 POP JUMP JUMPDEST PUSH2 0x203 DUP2 PUSH2 0x1F1 JUMP JUMPDEST DUP2 EQ PUSH2 0x20D JUMPI PUSH0 DUP1 REVERT JUMPDEST POP JUMP JUMPDEST PUSH0 DUP2 CALLDATALOAD SWAP1 POP PUSH2 0x21E DUP2 PUSH2 0x1FA JUMP JUMPDEST SWAP3 SWAP2 POP POP JUMP JUMPDEST PUSH0 DUP1 PUSH0 PUSH1 0x60 DUP5 DUP7 SUB SLT ISZERO PUSH2 0x23B JUMPI PUSH2 0x23A PUSH2 0x1ED JUMP JUMPDEST JUMPDEST PUSH0 PUSH2 0x248 DUP7 DUP3 DUP8 ADD PUSH2 0x210 JUMP JUMPDEST SWAP4 POP POP PUSH1 0x20 PUSH2 0x259 DUP7 DUP3 DUP8 ADD PUSH2 0x210 JUMP JUMPDEST SWAP3 POP POP PUSH1 0x40 PUSH2 0x26A DUP7 DUP3 DUP8 ADD PUSH2 0x210 JUMP JUMPDEST SWAP2 POP POP SWAP3 POP SWAP3 POP SWAP3 JUMP JUMPDEST PUSH2 0x27D DUP2 PUSH2 0x1F1 JUMP JUMPDEST DUP3 MSTORE POP POP JUMP JUMPDEST PUSH0 PUSH1 0x20 DUP3 ADD SWAP1 POP PUSH2 0x296 PUSH0 DUP4 ADD DUP5 PUSH2 0x274 JUMP JUMPDEST SWAP3 SWAP2 POP POP JUMP JUMPDEST PUSH0 DUP1 PUSH1 0x40 DUP4 DUP6 SUB SLT ISZERO PUSH2 0x2B2 JUMPI PUSH2 0x2B1 PUSH2 0x1ED JUMP JUMPDEST JUMPDEST PUSH0 PUSH2 0x2BF DUP6 DUP3 DUP7 ADD PUSH2 0x210 JUMP JUMPDEST SWAP3 POP POP PUSH1 0x20 PUSH2 0x2D0 DUP6 DUP3 DUP7 ADD PUSH2 0x210 JUMP JUMPDEST SWAP2 POP POP SWAP3 POP SWAP3 SWAP1 POP JUMP INVALID LOG2 PUSH5 0x6970667358 0x22 SLT KECCAK256 PUSH26 0x903258A842E036657B6DFFB68705F33C1ABC34537CAACD8E97DD PUSH29 0xAF25DF7A64736F6C634300081600330000000000000000000000000000 "
				},
				"gasEstimates": {
					"creation": {
						"codeDepositCost": "156800",
						"executionCost": "200",
						"totalCost": "157000"
					},
					"external": {
						"fixed_point_mul(uint256,uint256,uint256)": "infinite",
						"sub(uint256,uint256)": "infinite",
						"yul_add(uint256,uint256)": "infinite",
						"yul_fixed_point_round(uint256,uint256)": "infinite",
						"yul_mul(uint256,uint256)": "infinite"
					}
				},
				"methodIdentifiers": {
					"fixed_point_mul(uint256,uint256,uint256)": "13aadff8",
					"sub(uint256,uint256)": "b67d77c5",
					"yul_add(uint256,uint256)": "1ddb78a7",
					"yul_fixed_point_round(uint256,uint256)": "7ad2c242",
					"yul_mul(uint256,uint256)": "e888b165"
				}
			},
			"storageLayout": {
				"storage": [],
				"types": null
			},
			"userdoc": {
				"kind": "user",
				"methods": {},
				"version": 1
			}
		}
	}
}