{
	"data": {
		"bytecode": {
			"linkReferences": {},
			"object": "608060405234801561000f575f80fd5b506103ff8061001d5f395ff3fe608060405234801561000f575f80fd5b5060043610610034575f3560e01c8063335d00c214610038578063de6f24bb14610042575b5f80fd5b61004061005e565b005b61005c60048036038101906100579190610216565b6100e7565b005b7fdd970dd9b5bfe707922155b058a407655cb18288b807e2216442bca8ad83d6b5607b60405161008e9190610318565b60405180910390a13373ffffffffffffffffffffffffffffffffffffffff167f919a4e0615aef45fd56105241973bd25f287f1040399e7c9f97fa2ca1c2b5174607b6040516100dd9190610344565b60405180910390a2565b8273ffffffffffffffffffffffffffffffffffffffff163373ffffffffffffffffffffffffffffffffffffffff167fb3dbe9e9894ca2c11cb6c80bd0b0bccb9f5b41d612dbeeda0d5474de40b874fe84846040516101469291906103a7565b60405180910390a3505050565b5f80fd5b5f80fd5b5f73ffffffffffffffffffffffffffffffffffffffff82169050919050565b5f6101848261015b565b9050919050565b6101948161017a565b811461019e575f80fd5b50565b5f813590506101af8161018b565b92915050565b5f80fd5b5f80fd5b5f80fd5b5f8083601f8401126101d6576101d56101b5565b5b8235905067ffffffffffffffff8111156101f3576101f26101b9565b5b60208301915083600182028301111561020f5761020e6101bd565b5b9250929050565b5f805f6040848603121561022d5761022c610153565b5b5f61023a868287016101a1565b935050602084013567ffffffffffffffff81111561025b5761025a610157565b5b610267868287016101c1565b92509250509250925092565b5f82825260208201905092915050565b7f466f6f00000000000000000000000000000000000000000000000000000000005f82015250565b5f6102b7600383610273565b91506102c282610283565b602082019050919050565b5f819050919050565b5f819050919050565b5f819050919050565b5f6103026102fd6102f8846102cd565b6102df565b6102d6565b9050919050565b610312816102e8565b82525050565b5f6040820190508181035f83015261032f816102ab565b905061033e6020830184610309565b92915050565b5f6020820190506103575f830184610309565b92915050565b828183375f83830152505050565b5f601f19601f8301169050919050565b5f6103868385610273565b935061039383858461035d565b61039c8361036b565b840190509392505050565b5f6020820190508181035f8301526103c081848661037b565b9050939250505056fea26469706673582212202c682bd11aef5f90dcb22a5a170dde1f88f2075520bcd341ff1e1428a359764864736f6c63430008160033",
			"opcodes": "PUSH1 0x80 PUSH1 0x40 MSTORE CALLVALUE DUP1 ISZERO PUSH2 0xF JUMPI PUSH0 DUP1 REVERT JUMPDEST POP PUSH2 0x3FF DUP1 PUSH2 0x1D PUSH0 CODECOPY PUSH0 RETURN INVALID PUSH1 0x80 PUSH1 0x40 MSTORE CALLVALUE DUP1 ISZERO PUSH2 0xF JUMPI PUSH0 DUP1 REVERT JUMPDEST POP PUSH1 0x4 CALLDATASIZE LT PUSH2 0x34 JUMPI PUSH0 CALLDATALOAD PUSH1 0xE0 SHR DUP1 PUSH4 0x335D00C2 EQ PUSH2 0x38 JUMPI DUP1 PUSH4 0xDE6F24BB EQ PUSH2 0x42 JUMPI JUMPDEST PUSH0 DUP1 REVERT JUMPDEST PUSH2 0x40 PUSH2 0x5E JUMP JUMPDEST STOP JUMPDEST PUSH2 0x5C PUSH1 0x4 DUP1 CALLDATASIZE SUB DUP2 ADD SWAP1 PUSH2 0x57 SWAP2 SWAP1 PUSH2 0x216 JUMP JUMPDEST PUSH2 0xE7 JUMP JUMPDEST STOP JUMPDEST PUSH32 0xDD970DD9B5BFE707922155B058A407655CB18288B807E2216442BCA8AD83D6B5 PUSH1 0x7B PUSH1 0x40 MLOAD PUSH2 0x8E SWAP2 SWAP1 PUSH2 0x318 JUMP JUMPDEST PUSH1 0x40 MLOAD DUP1 SWAP2 SUB SWAP1 LOG1 CALLER PUSH20 0xFFFFFFFFFFFFFFFFFFFFFFFFFFFFFFFFFFFFFFFF AND PUSH32 0x919A4E0615AEF45FD56105241973BD25F287F1040399E7C9F97FA2CA1C2B5174 PUSH1 0x7B PUSH1 0x40 MLOAD PUSH2 0xDD SWAP2 SWAP1 PUSH2 0x344 JUMP JUMPDEST PUSH1 0x40 MLOAD DUP1 SWAP2 SUB SWAP1 LOG2 JUMP JUMPDEST DUP3 PUSH20 0xFFFFFFFFFFFFFFFFFFFFFFFFFFFFFFFFFFFFFFFF AND CALLER PUSH20 0xFFFFFFFFFFFFFFFFFFFFFFFFFFFFFFFFFFFFFFFF AND PUSH32 0xB3DBE9E9894CA2C11CB6C80BD0B0BCCB9F5B41D612DBEEDA0D5474DE40B874FE DUP5 DUP5 PUSH1 0x40 MLOAD PUSH2 0x146 SWAP3 SWAP2 SWAP1 PUSH2 0x3A7 JUMP JUMPDEST PUSH1 0x40 MLOAD DUP1 SWAP2 SUB SWAP1 LOG3 POP POP POP JUMP JUMPDEST PUSH0 DUP1 REVERT JUMPDEST PUSH0 DUP1 REVERT JUMPDEST PUSH0 PUSH20 0xFFFFFFFFFFFFFFFFFFFFFFFFFFFFFFFFFFFFFFFF DUP3 AND SWAP1 POP SWAP2 SWAP1 POP JUMP JUMPDEST PUSH0 PUSH2 0x184 DUP3 PUSH2 0x15B JUMP JUMPDEST SWAP1 POP SWAP2 SWAP1 POP JUMP JUMPDEST PUSH2 0x194 DUP2 PUSH2 0x17A JUMP JUMPDEST DUP2 EQ PUSH2 0x19E JUMPI PUSH0 DUP1 REVERT JUMPDEST POP JUMP JUMPDEST PUSH0 DUP2 CALLDATALOAD SWAP1 POP PUSH2 0x1AF DUP2 PUSH2 0x18B JUMP JUMPDEST SWAP3 SWAP2 POP POP JUMP JUMPDEST PUSH0 DUP1 REVERT JUMPDEST PUSH0 DUP1 REVERT JUMPDEST PUSH0 DUP1 REVERT JUMPDEST PUSH0 DUP1 DUP4 PUSH1 0x1F DUP5 ADD SLT PUSH2 0x1D6 JUMPI PUSH2 0x1D5 PUSH2 0x1B5 JUMP JUMPDEST JUMPDEST DUP3 CALLDATALOAD SWAP1 POP PUSH8 0xFFFFFFFFFFFFFFFF DUP2 GT ISZERO PUSH2 0x1F3 JUMPI PUSH2 0x1F2 PUSH2 0x1B9 JUMP JUMPDEST JUMPDEST PUSH1 0x20 DUP4 ADD SWAP2 POP DUP4 PUSH1 0x1 DUP3 MUL DUP4 ADD GT ISZERO PUSH2 0x20F JUMPI PUSH2 0x20E PUSH2 0x1BD JUMP JUMPDEST JUMPDEST SWAP3 POP SWAP3 SWAP1 POP JUMP JUMPDEST PUSH0 DUP1 PUSH0 PUSH1 0x40 DUP5 DUP7 SUB SLT ISZERO PUSH2 0x22D JUMPI PUSH2 0x22C PUSH2 0x153 JUMP JUMPDEST JUMPDEST PUSH0 PUSH2 0x23A DUP7 DUP3 DUP8 ADD PUSH2 0x1A1 JUMP JUMPDEST SWAP4 POP POP PUSH1 0x20 DUP5 ADD CALLDATALOAD PUSH8 0xFFFFFFFFFFFFFFFF DUP2 GT ISZERO PUSH2 0x25B JUMPI PUSH2 0x25A PUSH2 0x157 JUMP JUMPDEST JUMPDEST PUSH2 0x267 DUP7 DUP3 DUP8 ADD PUSH2 0x1C1 JUMP JUMPDEST SWAP3 POP SWAP3 POP POP SWAP3 POP SWAP3 POP SWAP3 JUMP JUMPDEST PUSH0 DUP3 DUP3 MSTORE PUSH1 0x20 DUP3 ADD SWAP1 POP SWAP3 SWAP2 POP POP JUMP JUMPDEST PUSH32 0x466F6F0000000000000000000000000000000000000000000000000000000000 PUSH0 DUP3 ADD MSTORE POP JUMP JUMPDEST PUSH0 PUSH2 0x2B7 PUSH1 0x3 DUP4 PUSH2 0x273 JUMP JUMPDEST SWAP2 POP PUSH2 0x2C2 DUP3 PUSH2 0x283 JUMP JUMPDEST PUSH1 0x20 DUP3 ADD SWAP1 POP SWAP2 SWAP1 POP JUMP JUMPDEST PUSH0 DUP2 SWAP1 POP SWAP2 SWAP1 POP JUMP JUMPDEST PUSH0 DUP2 SWAP1 POP SWAP2 SWAP1 POP JUMP JUMPDEST PUSH0 DUP2 SWAP1 POP SWAP2 SWAP1 POP JUMP JUMPDEST PUSH0 PUSH2 0x302 PUSH2 0x2FD PUSH2 0x2F8 DUP5 PUSH2 0x2CD JUMP JUMPDEST PUSH2 0x2DF JUMP JUMPDEST PUSH2 0x2D6 JUMP JUMPDEST SWAP1 POP SWAP2 SWAP1 POP JUMP JUMPDEST PUSH2 0x312 DUP2 PUSH2 0x2E8 JUMP JUMPDEST DUP3 MSTORE POP POP JUMP JUMPDEST PUSH0 PUSH1 0x40 DUP3 ADD SWAP1 POP DUP2 DUP2 SUB PUSH0 DUP4 ADD MSTORE PUSH2 0x32F DUP2 PUSH2 0x2AB JUMP JUMPDEST SWAP1 POP PUSH2 0x33E PUSH1 0x20 DUP4 ADD DUP5 PUSH2 0x309 JUMP JUMPDEST SWAP3 SWAP2 POP POP JUMP JUMPDEST PUSH0 PUSH1 0x20 DUP3 ADD SWAP1 POP PUSH2 0x357 PUSH0 DUP4 ADD DUP5 PUSH2 0x309 JUMP JUMPDEST SWAP3 SWAP2 POP POP JUMP JUMPDEST DUP3 DUP2 DUP4 CALLDATACOPY PUSH0 DUP4 DUP4 ADD MSTORE POP POP POP JUMP JUMPDEST PUSH0 PUSH1 0x1F NOT PUSH1 0x1F DUP4 ADD AND SWAP1 POP SWAP2 SWAP1 POP JUMP JUMPDEST PUSH0 PUSH2 0x386 DUP4 DUP6 PUSH2 0x273 JUMP JUMPDEST SWAP4 POP PUSH2 0x393 DUP4 DUP6 DUP5 PUSH2 0x35D JUMP JUMPDEST PUSH2 0x39C DUP4 PUSH2 0x36B JUMP JUMPDEST DUP5 ADD SWAP1 POP SWAP4 SWAP3 POP POP POP JUMP JUMPDEST PUSH0 PUSH1 0x20 DUP3 ADD SWAP1 POP DUP2 DUP2 SUB PUSH0 DUP4 ADD MSTORE PUSH2 0x3C0 DUP2 DUP5 DUP7 PUSH2 0x37B JUMP JUMPDEST SWAP1 POP SWAP4 SWAP3 POP POP POP JUMP INVALID LOG2 PUSH5 0x6970667358 0x22 SLT KECCAK256 0x2C PUSH9 0x2BD11AEF5F90DCB22A GAS OR 0xD 0xDE 0x1F DUP9 CALLCODE SMOD SSTORE KECCAK256 0xBC 0xD3 COINBASE SELFDESTRUCT 0x1E EQ 0x28 LOG3 MSIZE PUSH23 0x4864736F6C634300081600330000000000000000000000 "
		},
		"gasEstimates": {
			"creation": {
				"codeDepositCost": "204600",
				"executionCost": "243",
				"totalCost": "204843"
			},
			"external": {
				"examples()": "infinite",
				"sendMessage(address,string)": "infinite"
			}
		},
		"methodIdentifiers": {
			"examples()": "335d00c2",
			"sendMessage(address,string)": "de6f24bb"
		}
	},
	"abi": [
		{
			"anonymous": false,
			"inputs": [
				{
					"indexed": true,
					"internalType": "address",
					"name": "sender",
					"type": "address"
				},
				{
					"indexed": false,
					"internalType": "uint256",
					"name": "val",
					"type": "uint256"
				}
			],
			"name": "IndexedLog",
			"type": "event"
		},
		{
			"anonymous": false,
			"inputs": [
				{
					"indexed": false,
					"internalType": "string",
					"name": "message",
					"type": "string"
				},
				{
					"indexed": false,
					"internalType": "uint256",
					"name": "val",
					"type": "uint256"
				}
			],
			"name": "Log",
			"type": "event"
		},
		{
			"anonymous": false,
			"inputs": [
				{
					"indexed": true,
					"internalType": "address",
					"name": "_from",
					"type": "address"
				},
				{
					"indexed": true,
					"internalType": "address",
					"name": "_to",
					"type": "address"
				},
				{
					"indexed": false,
					"internalType": "string",
					"name": "message",
					"type": "string"
				}
			],
			"name": "Message",
			"type": "event"
		},
		{
			"inputs": [],
			"name": "examples",
			"outputs": [],
			"stateMutability": "nonpayable",
			"type": "function"
		},
		{
			"inputs": [
				{
					"internalType": "address",
					"name": "_to",
					"type": "address"
				},
				{
					"internalType": "string",
					"name": "message",
					"type": "string"
				}
			],
			"name": "sendMessage",
			"outputs": [],
			"stateMutability": "nonpayable",
			"type": "function"
		}
	]
}