{
	"data": {
		"bytecode": {
			"linkReferences": {},
			"object": "60806040526009600a62000014919062000300565b64c393e6d00062000026919062000350565b6005556009600a62000039919062000300565b6507a3c70420006200004c919062000350565b600655600560075560056008555f600a60146101000a81548160ff0219169083151502179055505f600a60156101000a81548160ff0219169083151502179055505f600a60166101000a81548160ff021916908315150217905550348015620000b3575f80fd5b505f620000c56200016760201b60201c565b9050805f806101000a81548173ffffffffffffffffffffffffffffffffffffffff021916908373ffffffffffffffffffffffffffffffffffffffff1602179055508073ffffffffffffffffffffffffffffffffffffffff165f73ffffffffffffffffffffffffffffffffffffffff167f8be0079c531659141344cd1fd0a4f28419497f9722a3daafe3b4186f6b6457e060405160405180910390a3506200039a565b5f33905090565b7f4e487b71000000000000000000000000000000000000000000000000000000005f52601160045260245ffd5b5f8160011c9050919050565b5f808291508390505b6001851115620001f857808604811115620001d057620001cf6200016e565b5b6001851615620001e05780820291505b8081029050620001f0856200019b565b9450620001b0565b94509492505050565b5f82620002125760019050620002e4565b8162000221575f9050620002e4565b81600181146200023a576002811462000245576200027b565b6001915050620002e4565b60ff8411156200025a57620002596200016e565b5b8360020a9150848211156200027457620002736200016e565b5b50620002e4565b5060208310610133831016604e8410600b8410161715620002b55782820a905083811115620002af57620002ae6200016e565b5b620002e4565b620002c48484846001620001a7565b92509050818404811115620002de57620002dd6200016e565b5b81810290505b9392505050565b5f819050919050565b5f60ff82169050919050565b5f6200030c82620002eb565b91506200031983620002f4565b9250620003487fffffffffffffffffffffffffffffffffffffffffffffffffffffffffffffffff848462000201565b905092915050565b5f6200035c82620002eb565b91506200036983620002eb565b92508282026200037981620002eb565b915082820484148315176200039357620003926200016e565b5b5092915050565b61349c80620003a85f395ff3fe608060405260043610610184575f3560e01c806385141a77116100d0578063c0ab60ea11610089578063f25f136c11610063578063f25f136c14610555578063f2fde38b1461056b578063f66895a314610593578063f87dc2c6146105bd5761018b565b8063c0ab60ea146104c7578063dcb1c2e5146104f1578063dd62ed3e146105195761018b565b806385141a77146103b9578063864701a5146103e35780638da5cb5b1461040d578063929e928a1461043757806395d89b4114610461578063a9059cbb1461048b5761018b565b8063313ce5671161013d57806370a082311161011757806370a0823114610329578063715018a614610365578063787c23e01461037b5780637c519ffb146103a35761018b565b8063313ce567146102af5780633490560d146102d95780636db79437146103015761018b565b806306fdde031461018f578063095ea7b3146101b957806318160ddd146101f55780631fdafcc51461021f57806323b872dd146102495780632598cdb2146102855761018b565b3661018b57005b5f80fd5b34801561019a575f80fd5b506101a36105e7565b6040516101b091906123b1565b60405180910390f35b3480156101c4575f80fd5b506101df60048036038101906101da9190612462565b610624565b6040516101ec91906124ba565b60405180910390f35b348015610200575f80fd5b50610209610641565b60405161021691906124e2565b60405180910390f35b34801561022a575f80fd5b50610233610667565b60405161024091906123b1565b60405180910390f35b348015610254575f80fd5b5061026f600480360381019061026a91906124fb565b6106a0565b60405161027c91906124ba565b60405180910390f35b348015610290575f80fd5b5061029961079b565b6040516102a6919061256b565b60405180910390f35b3480156102ba575f80fd5b506102c36107c0565b6040516102d0919061259f565b60405180910390f35b3480156102e4575f80fd5b506102ff60048036038101906102fa9190612462565b6107c8565b005b34801561030c575f80fd5b50610327600480360381019061032291906125b8565b610a94565b005b348015610334575f80fd5b5061034f600480360381019061034a91906125f6565b610b8b565b60405161035c91906124e2565b60405180910390f35b348015610370575f80fd5b50610379610bd1565b005b348015610386575f80fd5b506103a1600480360381019061039c91906125f6565b610d1f565b005b3480156103ae575f80fd5b506103b7610ede565b005b3480156103c4575f80fd5b506103cd611026565b6040516103da9190612630565b60405180910390f35b3480156103ee575f80fd5b506103f761102c565b60405161040491906124e2565b60405180910390f35b348015610418575f80fd5b50610421611032565b60405161042e9190612630565b60405180910390f35b348015610442575f80fd5b5061044b611059565b60405161045891906123b1565b60405180910390f35b34801561046c575f80fd5b50610475611092565b60405161048291906123b1565b60405180910390f35b348015610496575f80fd5b506104b160048036038101906104ac9190612462565b6110cf565b6040516104be91906124ba565b60405180910390f35b3480156104d2575f80fd5b506104db6110ec565b6040516104e891906123b1565b60405180910390f35b3480156104fc575f80fd5b50610517600480360381019061051291906125f6565b611125565b005b348015610524575f80fd5b5061053f600480360381019061053a9190612649565b6112e2565b60405161054c91906124e2565b60405180910390f35b348015610560575f80fd5b50610569611364565b005b348015610576575f80fd5b50610591600480360381019061058c91906125f6565b611481565b005b34801561059e575f80fd5b506105a761158f565b6040516105b491906124e2565b60405180910390f35b3480156105c8575f80fd5b506105d1611595565b6040516105de91906124ba565b60405180910390f35b60606040518060400160405280600481526020017f4765676500000000000000000000000000000000000000000000000000000000815250905090565b5f6106376106306115a8565b84846115af565b6001905092915050565b5f6009600a61065091906127e3565b66017dfcdece4000610662919061282d565b905090565b6040518060400160405280601a81526020017f416e6f6f70205341465520444556207c7c204e46412c44594f5200000000000081525081565b5f8060025f8673ffffffffffffffffffffffffffffffffffffffff1673ffffffffffffffffffffffffffffffffffffffff1681526020019081526020015f205f6106e86115a8565b73ffffffffffffffffffffffffffffffffffffffff1673ffffffffffffffffffffffffffffffffffffffff1681526020019081526020015f2054905082811015610767576040517f08c379a000000000000000000000000000000000000000000000000000000000815260040161075e906128de565b60405180910390fd5b610772858585611772565b61078f8561077e6115a8565b858461078a91906128fc565b6115af565b60019150509392505050565b60045f9054906101000a900473ffffffffffffffffffffffffffffffffffffffff1681565b5f6009905090565b6107d06115a8565b73ffffffffffffffffffffffffffffffffffffffff165f8054906101000a900473ffffffffffffffffffffffffffffffffffffffff1673ffffffffffffffffffffffffffffffffffffffff161461085c576040517f08c379a000000000000000000000000000000000000000000000000000000000815260040161085390612979565b60405180910390fd5b3073ffffffffffffffffffffffffffffffffffffffff168273ffffffffffffffffffffffffffffffffffffffff16036108ca576040517f08c379a00000000000000000000000000000000000000000000000000000000081526004016108c190612a07565b60405180910390fd5b5f811161090c576040517f08c379a000000000000000000000000000000000000000000000000000000000815260040161090390612a95565b60405180910390fd5b8173ffffffffffffffffffffffffffffffffffffffff166370a08231306040518263ffffffff1660e01b81526004016109459190612630565b602060405180830381865afa158015610960573d5f803e3d5ffd5b505050506040513d601f19601f820116820180604052508101906109849190612ac7565b8111156109c6576040517f08c379a00000000000000000000000000000000000000000000000000000000081526004016109bd90612b3c565b60405180910390fd5b8173ffffffffffffffffffffffffffffffffffffffff1663a9059cbb60045f9054906101000a900473ffffffffffffffffffffffffffffffffffffffff16836040518363ffffffff1660e01b8152600401610a22929190612bb5565b6020604051808303815f875af1158015610a3e573d5f803e3d5ffd5b505050506040513d601f19601f82011682018060405250810190610a629190612c06565b50807fc3cafad8c1a78aa542c18679d54d2e14cf1f08b516ac12071dcf9fd2d3701c2260405160405180910390a25050565b610a9c6115a8565b73ffffffffffffffffffffffffffffffffffffffff165f8054906101000a900473ffffffffffffffffffffffffffffffffffffffff1673ffffffffffffffffffffffffffffffffffffffff1614610b28576040517f08c379a0000000000000000000000000000000000000000000000000000000008152600401610b1f90612979565b60405180910390fd5b600a8211158015610b3a5750600a8111155b610b79576040517f08c379a0000000000000000000000000000000000000000000000000000000008152600401610b7090612c7b565b60405180910390fd5b81600781905550806008819055505050565b5f60015f8373ffffffffffffffffffffffffffffffffffffffff1673ffffffffffffffffffffffffffffffffffffffff1681526020019081526020015f20549050919050565b610bd96115a8565b73ffffffffffffffffffffffffffffffffffffffff165f8054906101000a900473ffffffffffffffffffffffffffffffffffffffff1673ffffffffffffffffffffffffffffffffffffffff1614610c65576040517f08c379a0000000000000000000000000000000000000000000000000000000008152600401610c5c90612979565b60405180910390fd5b5f73ffffffffffffffffffffffffffffffffffffffff165f8054906101000a900473ffffffffffffffffffffffffffffffffffffffff1673ffffffffffffffffffffffffffffffffffffffff167f8be0079c531659141344cd1fd0a4f28419497f9722a3daafe3b4186f6b6457e060405160405180910390a35f805f6101000a81548173ffffffffffffffffffffffffffffffffffffffff021916908373ffffffffffffffffffffffffffffffffffffffff160217905550565b610d276115a8565b73ffffffffffffffffffffffffffffffffffffffff165f8054906101000a900473ffffffffffffffffffffffffffffffffffffffff1673ffffffffffffffffffffffffffffffffffffffff1614610db3576040517f08c379a0000000000000000000000000000000000000000000000000000000008152600401610daa90612979565b60405180910390fd5b6001151560035f8373ffffffffffffffffffffffffffffffffffffffff1673ffffffffffffffffffffffffffffffffffffffff1681526020019081526020015f205f9054906101000a900460ff16151503610e43576040517f08c379a0000000000000000000000000000000000000000000000000000000008152600401610e3a90612ce3565b60405180910390fd5b600160035f8373ffffffffffffffffffffffffffffffffffffffff1673ffffffffffffffffffffffffffffffffffffffff1681526020019081526020015f205f6101000a81548160ff0219169083151502179055508073ffffffffffffffffffffffffffffffffffffffff167f7168e8adb718597b3ac83e2dfe415bea8ebaabb57fe933ffac2e0ed93b80718e60405160405180910390a250565b610ee66115a8565b73ffffffffffffffffffffffffffffffffffffffff165f8054906101000a900473ffffffffffffffffffffffffffffffffffffffff1673ffffffffffffffffffffffffffffffffffffffff1614610f72576040517f08c379a0000000000000000000000000000000000000000000000000000000008152600401610f6990612979565b60405180910390fd5b600a60149054906101000a900460ff1615610fc2576040517f08c379a0000000000000000000000000000000000000000000000000000000008152600401610fb990612d4b565b60405180910390fd5b6001600a60156101000a81548160ff0219169083151502179055506001600a60146101000a81548160ff0219169083151502179055507f0d151bf744092c3011c9f50766da412cca73acdbcaa74b879a5858adc258f93560405160405180910390a1565b61dead81565b60075481565b5f805f9054906101000a900473ffffffffffffffffffffffffffffffffffffffff16905090565b6040518060400160405280600681526020017f302e382e3230000000000000000000000000000000000000000000000000000081525081565b60606040518060400160405280600481526020017f4765676500000000000000000000000000000000000000000000000000000000815250905090565b5f6110e26110db6115a8565b8484611772565b6001905092915050565b6040518060400160405280600e81526020017f434120466f722050726573616c6500000000000000000000000000000000000081525081565b61112d6115a8565b73ffffffffffffffffffffffffffffffffffffffff165f8054906101000a900473ffffffffffffffffffffffffffffffffffffffff1673ffffffffffffffffffffffffffffffffffffffff16146111b9576040517f08c379a00000000000000000000000000000000000000000000000000000000081526004016111b090612979565b60405180910390fd5b5f151560035f8373ffffffffffffffffffffffffffffffffffffffff1673ffffffffffffffffffffffffffffffffffffffff1681526020019081526020015f205f9054906101000a900460ff16151503611248576040517f08c379a000000000000000000000000000000000000000000000000000000000815260040161123f90612db3565b60405180910390fd5b5f60035f8373ffffffffffffffffffffffffffffffffffffffff1673ffffffffffffffffffffffffffffffffffffffff1681526020019081526020015f205f6101000a81548160ff0219169083151502179055508073ffffffffffffffffffffffffffffffffffffffff167fdff643e1b752e1138794c958b6f565e4f003ba18d45383a40b582de82ced091e60405160405180910390a250565b5f60025f8473ffffffffffffffffffffffffffffffffffffffff1673ffffffffffffffffffffffffffffffffffffffff1681526020019081526020015f205f8373ffffffffffffffffffffffffffffffffffffffff1673ffffffffffffffffffffffffffffffffffffffff1681526020019081526020015f2054905092915050565b5f4790505f81116113aa576040517f08c379a00000000000000000000000000000000000000000000000000000000081526004016113a190612a95565b60405180910390fd5b478111156113ed576040517f08c379a00000000000000000000000000000000000000000000000000000000081526004016113e490612b3c565b60405180910390fd5b60045f9054906101000a900473ffffffffffffffffffffffffffffffffffffffff1673ffffffffffffffffffffffffffffffffffffffff166108fc8290811502906040515f60405180830381858888f19350505050158015611451573d5f803e3d5ffd5b507fc680f238873c988c7dc872ec40caca9d70edfe000c3d44a1b9410684db93767560405160405180910390a150565b6114896115a8565b73ffffffffffffffffffffffffffffffffffffffff165f8054906101000a900473ffffffffffffffffffffffffffffffffffffffff1673ffffffffffffffffffffffffffffffffffffffff1614611515576040517f08c379a000000000000000000000000000000000000000000000000000000000815260040161150c90612979565b60405180910390fd5b5f73ffffffffffffffffffffffffffffffffffffffff168173ffffffffffffffffffffffffffffffffffffffff1603611583576040517f08c379a000000000000000000000000000000000000000000000000000000000815260040161157a90612e41565b60405180910390fd5b61158c81611ef7565b50565b60085481565b600a60149054906101000a900460ff1681565b5f33905090565b5f73ffffffffffffffffffffffffffffffffffffffff168373ffffffffffffffffffffffffffffffffffffffff160361161d576040517f08c379a000000000000000000000000000000000000000000000000000000000815260040161161490612ecf565b60405180910390fd5b5f73ffffffffffffffffffffffffffffffffffffffff168273ffffffffffffffffffffffffffffffffffffffff160361168b576040517f08c379a000000000000000000000000000000000000000000000000000000000815260040161168290612f5d565b60405180910390fd5b8060025f8573ffffffffffffffffffffffffffffffffffffffff1673ffffffffffffffffffffffffffffffffffffffff1681526020019081526020015f205f8473ffffffffffffffffffffffffffffffffffffffff1673ffffffffffffffffffffffffffffffffffffffff1681526020019081526020015f20819055508173ffffffffffffffffffffffffffffffffffffffff168373ffffffffffffffffffffffffffffffffffffffff167f8c5be1e5ebec7d5bd14f71427d1e84f3dd0314c0f7b2291e5b200ac8c7c3b9258360405161176591906124e2565b60405180910390a3505050565b5f73ffffffffffffffffffffffffffffffffffffffff168373ffffffffffffffffffffffffffffffffffffffff16036117e0576040517f08c379a00000000000000000000000000000000000000000000000000000000081526004016117d790612feb565b60405180910390fd5b5f73ffffffffffffffffffffffffffffffffffffffff168273ffffffffffffffffffffffffffffffffffffffff160361184e576040517f08c379a000000000000000000000000000000000000000000000000000000000815260040161184590613079565b60405180910390fd5b5f8111611890576040517f08c379a000000000000000000000000000000000000000000000000000000000815260040161188790613107565b60405180910390fd5b5f60035f8573ffffffffffffffffffffffffffffffffffffffff1673ffffffffffffffffffffffffffffffffffffffff1681526020019081526020015f205f9054906101000a900460ff1615801561192f575060035f8473ffffffffffffffffffffffffffffffffffffffff1673ffffffffffffffffffffffffffffffffffffffff1681526020019081526020015f205f9054906101000a900460ff16155b156119a057600a60149054906101000a900460ff16611983576040517f08c379a000000000000000000000000000000000000000000000000000000000815260040161197a9061316f565b60405180910390fd5b606460075483611993919061282d565b61199d91906131ba565b90505b60035f8573ffffffffffffffffffffffffffffffffffffffff1673ffffffffffffffffffffffffffffffffffffffff1681526020019081526020015f205f9054906101000a900460ff1680611a3b575060035f8473ffffffffffffffffffffffffffffffffffffffff1673ffffffffffffffffffffffffffffffffffffffff1681526020019081526020015f205f9054906101000a900460ff165b15611a44575f90505b600a5f9054906101000a900473ffffffffffffffffffffffffffffffffffffffff1673ffffffffffffffffffffffffffffffffffffffff168373ffffffffffffffffffffffffffffffffffffffff16148015611acc57503073ffffffffffffffffffffffffffffffffffffffff168473ffffffffffffffffffffffffffffffffffffffff1614155b8015611b1f575060035f8573ffffffffffffffffffffffffffffffffffffffff1673ffffffffffffffffffffffffffffffffffffffff1681526020019081526020015f205f9054906101000a900460ff16155b8015611b72575060035f8473ffffffffffffffffffffffffffffffffffffffff1673ffffffffffffffffffffffffffffffffffffffff1681526020019081526020015f205f9054906101000a900460ff16155b15611b9457606460085483611b87919061282d565b611b9191906131ba565b90505b5f611b9e30610b8b565b9050600a60169054906101000a900460ff16158015611c0a5750600a5f9054906101000a900473ffffffffffffffffffffffffffffffffffffffff1673ffffffffffffffffffffffffffffffffffffffff168573ffffffffffffffffffffffffffffffffffffffff1614155b8015611c225750600a60159054906101000a900460ff165b8015611c2f575060055481115b15611c6957611c51611c4c84611c4784600654611fb8565b611fb8565b611fd0565b5f4790505f811115611c6757611c664761227d565b5b505b8260015f8773ffffffffffffffffffffffffffffffffffffffff1673ffffffffffffffffffffffffffffffffffffffff1681526020019081526020015f2054611cb291906128fc565b60015f8773ffffffffffffffffffffffffffffffffffffffff1673ffffffffffffffffffffffffffffffffffffffff1681526020019081526020015f20819055508183611cff91906128fc565b60015f8673ffffffffffffffffffffffffffffffffffffffff1673ffffffffffffffffffffffffffffffffffffffff1681526020019081526020015f2054611d4791906131ea565b60015f8673ffffffffffffffffffffffffffffffffffffffff1673ffffffffffffffffffffffffffffffffffffffff1681526020019081526020015f20819055508373ffffffffffffffffffffffffffffffffffffffff168573ffffffffffffffffffffffffffffffffffffffff167fddf252ad1be2c89b69c2b068fc378daa952ba7f163c4a11628f55a4df523b3ef8486611de391906128fc565b604051611df091906124e2565b60405180910390a35f821115611ef0578160015f3073ffffffffffffffffffffffffffffffffffffffff1673ffffffffffffffffffffffffffffffffffffffff1681526020019081526020015f2054611e4991906131ea565b60015f3073ffffffffffffffffffffffffffffffffffffffff1673ffffffffffffffffffffffffffffffffffffffff1681526020019081526020015f20819055503073ffffffffffffffffffffffffffffffffffffffff168573ffffffffffffffffffffffffffffffffffffffff167fddf252ad1be2c89b69c2b068fc378daa952ba7f163c4a11628f55a4df523b3ef84604051611ee791906124e2565b60405180910390a35b5050505050565b5f805f9054906101000a900473ffffffffffffffffffffffffffffffffffffffff169050815f806101000a81548173ffffffffffffffffffffffffffffffffffffffff021916908373ffffffffffffffffffffffffffffffffffffffff1602179055508173ffffffffffffffffffffffffffffffffffffffff168173ffffffffffffffffffffffffffffffffffffffff167f8be0079c531659141344cd1fd0a4f28419497f9722a3daafe3b4186f6b6457e060405160405180910390a35050565b5f818311611fc65782611fc8565b815b905092915050565b6001600a60166101000a81548160ff0219169083151502179055505f811161202d576040517f08c379a000000000000000000000000000000000000000000000000000000000815260040161202490613267565b60405180910390fd5b5f600267ffffffffffffffff81111561204957612048613285565b5b6040519080825280602002602001820160405280156120775781602001602082028036833780820191505090505b50905030815f8151811061208e5761208d6132b2565b5b602002602001019073ffffffffffffffffffffffffffffffffffffffff16908173ffffffffffffffffffffffffffffffffffffffff168152505060095f9054906101000a900473ffffffffffffffffffffffffffffffffffffffff1673ffffffffffffffffffffffffffffffffffffffff1663ad5c46486040518163ffffffff1660e01b8152600401602060405180830381865afa158015612132573d5f803e3d5ffd5b505050506040513d601f19601f8201168201806040525081019061215691906132f3565b8160018151811061216a576121696132b2565b5b602002602001019073ffffffffffffffffffffffffffffffffffffffff16908173ffffffffffffffffffffffffffffffffffffffff16815250506121d03060095f9054906101000a900473ffffffffffffffffffffffffffffffffffffffff16846115af565b60095f9054906101000a900473ffffffffffffffffffffffffffffffffffffffff1673ffffffffffffffffffffffffffffffffffffffff1663791ac947835f8430426040518663ffffffff1660e01b815260040161223295949392919061340e565b5f604051808303815f87803b158015612249575f80fd5b505af115801561225b573d5f803e3d5ffd5b50505050505f600a60166101000a81548160ff02191690831515021790555050565b5f81116122bf576040517f08c379a00000000000000000000000000000000000000000000000000000000081526004016122b690613267565b60405180910390fd5b60045f9054906101000a900473ffffffffffffffffffffffffffffffffffffffff1673ffffffffffffffffffffffffffffffffffffffff166108fc8290811502906040515f60405180830381858888f19350505050158015612323573d5f803e3d5ffd5b5050565b5f81519050919050565b5f82825260208201905092915050565b5f5b8381101561235e578082015181840152602081019050612343565b5f8484015250505050565b5f601f19601f8301169050919050565b5f61238382612327565b61238d8185612331565b935061239d818560208601612341565b6123a681612369565b840191505092915050565b5f6020820190508181035f8301526123c98184612379565b905092915050565b5f80fd5b5f73ffffffffffffffffffffffffffffffffffffffff82169050919050565b5f6123fe826123d5565b9050919050565b61240e816123f4565b8114612418575f80fd5b50565b5f8135905061242981612405565b92915050565b5f819050919050565b6124418161242f565b811461244b575f80fd5b50565b5f8135905061245c81612438565b92915050565b5f8060408385031215612478576124776123d1565b5b5f6124858582860161241b565b92505060206124968582860161244e565b9150509250929050565b5f8115159050919050565b6124b4816124a0565b82525050565b5f6020820190506124cd5f8301846124ab565b92915050565b6124dc8161242f565b82525050565b5f6020820190506124f55f8301846124d3565b92915050565b5f805f60608486031215612512576125116123d1565b5b5f61251f8682870161241b565b93505060206125308682870161241b565b92505060406125418682870161244e565b9150509250925092565b5f612555826123d5565b9050919050565b6125658161254b565b82525050565b5f60208201905061257e5f83018461255c565b92915050565b5f60ff82169050919050565b61259981612584565b82525050565b5f6020820190506125b25f830184612590565b92915050565b5f80604083850312156125ce576125cd6123d1565b5b5f6125db8582860161244e565b92505060206125ec8582860161244e565b9150509250929050565b5f6020828403121561260b5761260a6123d1565b5b5f6126188482850161241b565b91505092915050565b61262a816123f4565b82525050565b5f6020820190506126435f830184612621565b92915050565b5f806040838503121561265f5761265e6123d1565b5b5f61266c8582860161241b565b925050602061267d8582860161241b565b9150509250929050565b7f4e487b71000000000000000000000000000000000000000000000000000000005f52601160045260245ffd5b5f8160011c9050919050565b5f808291508390505b6001851115612709578086048111156126e5576126e4612687565b5b60018516156126f45780820291505b8081029050612702856126b4565b94506126c9565b94509492505050565b5f8261272157600190506127dc565b8161272e575f90506127dc565b8160018114612744576002811461274e5761277d565b60019150506127dc565b60ff8411156127605761275f612687565b5b8360020a91508482111561277757612776612687565b5b506127dc565b5060208310610133831016604e8410600b84101617156127b25782820a9050838111156127ad576127ac612687565b5b6127dc565b6127bf84848460016126c0565b925090508184048111156127d6576127d5612687565b5b81810290505b9392505050565b5f6127ed8261242f565b91506127f883612584565b92506128257fffffffffffffffffffffffffffffffffffffffffffffffffffffffffffffffff8484612712565b905092915050565b5f6128378261242f565b91506128428361242f565b92508282026128508161242f565b9150828204841483151761286757612866612687565b5b5092915050565b7f45524332303a207472616e7366657220616d6f756e74206578636565647320615f8201527f6c6c6f77616e6365000000000000000000000000000000000000000000000000602082015250565b5f6128c8602883612331565b91506128d38261286e565b604082019050919050565b5f6020820190508181035f8301526128f5816128bc565b9050919050565b5f6129068261242f565b91506129118361242f565b925082820390508181111561292957612928612687565b5b92915050565b7f4f776e61626c653a2063616c6c6572206973206e6f7420746865206f776e65725f82015250565b5f612963602083612331565b915061296e8261292f565b602082019050919050565b5f6020820190508181035f83015261299081612957565b9050919050565b7f4f776e65722063616e277420636c61696d20636f6e747261637427732062616c5f8201527f616e6365206f6620697473206f776e20746f6b656e7300000000000000000000602082015250565b5f6129f1603683612331565b91506129fc82612997565b604082019050919050565b5f6020820190508181035f830152612a1e816129e5565b9050919050565b7f416d6f756e742073686f756c642062652067726561746572207468616e207a655f8201527f726f000000000000000000000000000000000000000000000000000000000000602082015250565b5f612a7f602283612331565b9150612a8a82612a25565b604082019050919050565b5f6020820190508181035f830152612aac81612a73565b9050919050565b5f81519050612ac181612438565b92915050565b5f60208284031215612adc57612adb6123d1565b5b5f612ae984828501612ab3565b91505092915050565b7f496e73756666696369656e7420416d6f756e74000000000000000000000000005f82015250565b5f612b26601383612331565b9150612b3182612af2565b602082019050919050565b5f6020820190508181035f830152612b5381612b1a565b9050919050565b5f819050919050565b5f612b7d612b78612b73846123d5565b612b5a565b6123d5565b9050919050565b5f612b8e82612b63565b9050919050565b5f612b9f82612b84565b9050919050565b612baf81612b95565b82525050565b5f604082019050612bc85f830185612ba6565b612bd560208301846124d3565b9392505050565b612be5816124a0565b8114612bef575f80fd5b50565b5f81519050612c0081612bdc565b92915050565b5f60208284031215612c1b57612c1a6123d1565b5b5f612c2884828501612bf2565b91505092915050565b7f45524332303a2077726f6e67207461782076616c7565210000000000000000005f82015250565b5f612c65601783612331565b9150612c7082612c31565b602082019050919050565b5f6020820190508181035f830152612c9281612c59565b9050919050565b7f4163636f756e7420697320616c7265616479206578636c7564656400000000005f82015250565b5f612ccd601b83612331565b9150612cd882612c99565b602082019050919050565b5f6020820190508181035f830152612cfa81612cc1565b9050919050565b7f74726164696e6720697320616c7265616479206f70656e0000000000000000005f82015250565b5f612d35601783612331565b9150612d4082612d01565b602082019050919050565b5f6020820190508181035f830152612d6281612d29565b9050919050565b7f4163636f756e7420697320616c726561647920696e636c7564656400000000005f82015250565b5f612d9d601b83612331565b9150612da882612d69565b602082019050919050565b5f6020820190508181035f830152612dca81612d91565b9050919050565b7f4f776e61626c653a206e6577206f776e657220697320746865207a65726f20615f8201527f6464726573730000000000000000000000000000000000000000000000000000602082015250565b5f612e2b602683612331565b9150612e3682612dd1565b604082019050919050565b5f6020820190508181035f830152612e5881612e1f565b9050919050565b7f45524332303a20617070726f76652066726f6d20746865207a65726f206164645f8201527f7265737300000000000000000000000000000000000000000000000000000000602082015250565b5f612eb9602483612331565b9150612ec482612e5f565b604082019050919050565b5f6020820190508181035f830152612ee681612ead565b9050919050565b7f45524332303a20617070726f766520746f20746865207a65726f2061646472655f8201527f7373000000000000000000000000000000000000000000000000000000000000602082015250565b5f612f47602283612331565b9150612f5282612eed565b604082019050919050565b5f6020820190508181035f830152612f7481612f3b565b9050919050565b7f45524332303a207472616e736665722066726f6d20746865207a65726f2061645f8201527f6472657373000000000000000000000000000000000000000000000000000000602082015250565b5f612fd5602583612331565b9150612fe082612f7b565b604082019050919050565b5f6020820190508181035f83015261300281612fc9565b9050919050565b7f45524332303a207472616e7366657220746f20746865207a65726f20616464725f8201527f6573730000000000000000000000000000000000000000000000000000000000602082015250565b5f613063602383612331565b915061306e82613009565b604082019050919050565b5f6020820190508181035f83015261309081613057565b9050919050565b7f5472616e7366657220616d6f756e74206d7573742062652067726561746572205f8201527f7468616e207a65726f0000000000000000000000000000000000000000000000602082015250565b5f6130f1602983612331565b91506130fc82613097565b604082019050919050565b5f6020820190508181035f83015261311e816130e5565b9050919050565b7f54726164696e67206e6f7420656e61626c6564000000000000000000000000005f82015250565b5f613159601383612331565b915061316482613125565b602082019050919050565b5f6020820190508181035f8301526131868161314d565b9050919050565b7f4e487b71000000000000000000000000000000000000000000000000000000005f52601260045260245ffd5b5f6131c48261242f565b91506131cf8361242f565b9250826131df576131de61318d565b5b828204905092915050565b5f6131f48261242f565b91506131ff8361242f565b925082820190508082111561321757613216612687565b5b92915050565b7f616d6f756e74206d7573742062652067726565746572207468616e20300000005f82015250565b5f613251601d83612331565b915061325c8261321d565b602082019050919050565b5f6020820190508181035f83015261327e81613245565b9050919050565b7f4e487b71000000000000000000000000000000000000000000000000000000005f52604160045260245ffd5b7f4e487b71000000000000000000000000000000000000000000000000000000005f52603260045260245ffd5b5f815190506132ed81612405565b92915050565b5f60208284031215613308576133076123d1565b5b5f613315848285016132df565b91505092915050565b5f819050919050565b5f61334161333c6133378461331e565b612b5a565b61242f565b9050919050565b61335181613327565b82525050565b5f81519050919050565b5f82825260208201905092915050565b5f819050602082019050919050565b613389816123f4565b82525050565b5f61339a8383613380565b60208301905092915050565b5f602082019050919050565b5f6133bc82613357565b6133c68185613361565b93506133d183613371565b805f5b838110156134015781516133e8888261338f565b97506133f3836133a6565b9250506001810190506133d4565b5085935050505092915050565b5f60a0820190506134215f8301886124d3565b61342e6020830187613348565b818103604083015261344081866133b2565b905061344f6060830185612621565b61345c60808301846124d3565b969550505050505056fea2646970667358221220f78621e8f5b202e4692eceee0a00e61176d44f45a7a0078fd627fe9aa5ace9eb64736f6c63430008160033",
			"opcodes": "PUSH1 0x80 PUSH1 0x40 MSTORE PUSH1 0x9 PUSH1 0xA PUSH3 0x14 SWAP2 SWAP1 PUSH3 0x300 JUMP JUMPDEST PUSH5 0xC393E6D000 PUSH3 0x26 SWAP2 SWAP1 PUSH3 0x350 JUMP JUMPDEST PUSH1 0x5 SSTORE PUSH1 0x9 PUSH1 0xA PUSH3 0x39 SWAP2 SWAP1 PUSH3 0x300 JUMP JUMPDEST PUSH6 0x7A3C7042000 PUSH3 0x4C SWAP2 SWAP1 PUSH3 0x350 JUMP JUMPDEST PUSH1 0x6 SSTORE PUSH1 0x5 PUSH1 0x7 SSTORE PUSH1 0x5 PUSH1 0x8 SSTORE PUSH0 PUSH1 0xA PUSH1 0x14 PUSH2 0x100 EXP DUP2 SLOAD DUP2 PUSH1 0xFF MUL NOT AND SWAP1 DUP4 ISZERO ISZERO MUL OR SWAP1 SSTORE POP PUSH0 PUSH1 0xA PUSH1 0x15 PUSH2 0x100 EXP DUP2 SLOAD DUP2 PUSH1 0xFF MUL NOT AND SWAP1 DUP4 ISZERO ISZERO MUL OR SWAP1 SSTORE POP PUSH0 PUSH1 0xA PUSH1 0x16 PUSH2 0x100 EXP DUP2 SLOAD DUP2 PUSH1 0xFF MUL NOT AND SWAP1 DUP4 ISZERO ISZERO MUL OR SWAP1 SSTORE POP CALLVALUE DUP1 ISZERO PUSH3 0xB3 JUMPI PUSH0 DUP1 REVERT JUMPDEST POP PUSH0 PUSH3 0xC5 PUSH3 0x167 PUSH1 0x20 SHL PUSH1 0x20 SHR JUMP JUMPDEST SWAP1 POP DUP1 PUSH0 DUP1 PUSH2 0x100 EXP DUP2 SLOAD DUP2 PUSH20 0xFFFFFFFFFFFFFFFFFFFFFFFFFFFFFFFFFFFFFFFF MUL NOT AND SWAP1 DUP4 PUSH20 0xFFFFFFFFFFFFFFFFFFFFFFFFFFFFFFFFFFFFFFFF AND MUL OR SWAP1 SSTORE POP DUP1 PUSH20 0xFFFFFFFFFFFFFFFFFFFFFFFFFFFFFFFFFFFFFFFF AND PUSH0 PUSH20 0xFFFFFFFFFFFFFFFFFFFFFFFFFFFFFFFFFFFFFFFF AND PUSH32 0x8BE0079C531659141344CD1FD0A4F28419497F9722A3DAAFE3B4186F6B6457E0 PUSH1 0x40 MLOAD PUSH1 0x40 MLOAD DUP1 SWAP2 SUB SWAP1 LOG3 POP PUSH3 0x39A JUMP JUMPDEST PUSH0 CALLER SWAP1 POP SWAP1 JUMP JUMPDEST PUSH32 0x4E487B7100000000000000000000000000000000000000000000000000000000 PUSH0 MSTORE PUSH1 0x11 PUSH1 0x4 MSTORE PUSH1 0x24 PUSH0 REVERT JUMPDEST PUSH0 DUP2 PUSH1 0x1 SHR SWAP1 POP SWAP2 SWAP1 POP JUMP JUMPDEST PUSH0 DUP1 DUP3 SWAP2 POP DUP4 SWAP1 POP JUMPDEST PUSH1 0x1 DUP6 GT ISZERO PUSH3 0x1F8 JUMPI DUP1 DUP7 DIV DUP2 GT ISZERO PUSH3 0x1D0 JUMPI PUSH3 0x1CF PUSH3 0x16E JUMP JUMPDEST JUMPDEST PUSH1 0x1 DUP6 AND ISZERO PUSH3 0x1E0 JUMPI DUP1 DUP3 MUL SWAP2 POP JUMPDEST DUP1 DUP2 MUL SWAP1 POP PUSH3 0x1F0 DUP6 PUSH3 0x19B JUMP JUMPDEST SWAP5 POP PUSH3 0x1B0 JUMP JUMPDEST SWAP5 POP SWAP5 SWAP3 POP POP POP JUMP JUMPDEST PUSH0 DUP3 PUSH3 0x212 JUMPI PUSH1 0x1 SWAP1 POP PUSH3 0x2E4 JUMP JUMPDEST DUP2 PUSH3 0x221 JUMPI PUSH0 SWAP1 POP PUSH3 0x2E4 JUMP JUMPDEST DUP2 PUSH1 0x1 DUP2 EQ PUSH3 0x23A JUMPI PUSH1 0x2 DUP2 EQ PUSH3 0x245 JUMPI PUSH3 0x27B JUMP JUMPDEST PUSH1 0x1 SWAP2 POP POP PUSH3 0x2E4 JUMP JUMPDEST PUSH1 0xFF DUP5 GT ISZERO PUSH3 0x25A JUMPI PUSH3 0x259 PUSH3 0x16E JUMP JUMPDEST JUMPDEST DUP4 PUSH1 0x2 EXP SWAP2 POP DUP5 DUP3 GT ISZERO PUSH3 0x274 JUMPI PUSH3 0x273 PUSH3 0x16E JUMP JUMPDEST JUMPDEST POP PUSH3 0x2E4 JUMP JUMPDEST POP PUSH1 0x20 DUP4 LT PUSH2 0x133 DUP4 LT AND PUSH1 0x4E DUP5 LT PUSH1 0xB DUP5 LT AND OR ISZERO PUSH3 0x2B5 JUMPI DUP3 DUP3 EXP SWAP1 POP DUP4 DUP2 GT ISZERO PUSH3 0x2AF JUMPI PUSH3 0x2AE PUSH3 0x16E JUMP JUMPDEST JUMPDEST PUSH3 0x2E4 JUMP JUMPDEST PUSH3 0x2C4 DUP5 DUP5 DUP5 PUSH1 0x1 PUSH3 0x1A7 JUMP JUMPDEST SWAP3 POP SWAP1 POP DUP2 DUP5 DIV DUP2 GT ISZERO PUSH3 0x2DE JUMPI PUSH3 0x2DD PUSH3 0x16E JUMP JUMPDEST JUMPDEST DUP2 DUP2 MUL SWAP1 POP JUMPDEST SWAP4 SWAP3 POP POP POP JUMP JUMPDEST PUSH0 DUP2 SWAP1 POP SWAP2 SWAP1 POP JUMP JUMPDEST PUSH0 PUSH1 0xFF DUP3 AND SWAP1 POP SWAP2 SWAP1 POP JUMP JUMPDEST PUSH0 PUSH3 0x30C DUP3 PUSH3 0x2EB JUMP JUMPDEST SWAP2 POP PUSH3 0x319 DUP4 PUSH3 0x2F4 JUMP JUMPDEST SWAP3 POP PUSH3 0x348 PUSH32 0xFFFFFFFFFFFFFFFFFFFFFFFFFFFFFFFFFFFFFFFFFFFFFFFFFFFFFFFFFFFFFFFF DUP5 DUP5 PUSH3 0x201 JUMP JUMPDEST SWAP1 POP SWAP3 SWAP2 POP POP JUMP JUMPDEST PUSH0 PUSH3 0x35C DUP3 PUSH3 0x2EB JUMP JUMPDEST SWAP2 POP PUSH3 0x369 DUP4 PUSH3 0x2EB JUMP JUMPDEST SWAP3 POP DUP3 DUP3 MUL PUSH3 0x379 DUP2 PUSH3 0x2EB JUMP JUMPDEST SWAP2 POP DUP3 DUP3 DIV DUP5 EQ DUP4 ISZERO OR PUSH3 0x393 JUMPI PUSH3 0x392 PUSH3 0x16E JUMP JUMPDEST JUMPDEST POP SWAP3 SWAP2 POP POP JUMP JUMPDEST PUSH2 0x349C DUP1 PUSH3 0x3A8 PUSH0 CODECOPY PUSH0 RETURN INVALID PUSH1 0x80 PUSH1 0x40 MSTORE PUSH1 0x4 CALLDATASIZE LT PUSH2 0x184 JUMPI PUSH0 CALLDATALOAD PUSH1 0xE0 SHR DUP1 PUSH4 0x85141A77 GT PUSH2 0xD0 JUMPI DUP1 PUSH4 0xC0AB60EA GT PUSH2 0x89 JUMPI DUP1 PUSH4 0xF25F136C GT PUSH2 0x63 JUMPI DUP1 PUSH4 0xF25F136C EQ PUSH2 0x555 JUMPI DUP1 PUSH4 0xF2FDE38B EQ PUSH2 0x56B JUMPI DUP1 PUSH4 0xF66895A3 EQ PUSH2 0x593 JUMPI DUP1 PUSH4 0xF87DC2C6 EQ PUSH2 0x5BD JUMPI PUSH2 0x18B JUMP JUMPDEST DUP1 PUSH4 0xC0AB60EA EQ PUSH2 0x4C7 JUMPI DUP1 PUSH4 0xDCB1C2E5 EQ PUSH2 0x4F1 JUMPI DUP1 PUSH4 0xDD62ED3E EQ PUSH2 0x519 JUMPI PUSH2 0x18B JUMP JUMPDEST DUP1 PUSH4 0x85141A77 EQ PUSH2 0x3B9 JUMPI DUP1 PUSH4 0x864701A5 EQ PUSH2 0x3E3 JUMPI DUP1 PUSH4 0x8DA5CB5B EQ PUSH2 0x40D JUMPI DUP1 PUSH4 0x929E928A EQ PUSH2 0x437 JUMPI DUP1 PUSH4 0x95D89B41 EQ PUSH2 0x461 JUMPI DUP1 PUSH4 0xA9059CBB EQ PUSH2 0x48B JUMPI PUSH2 0x18B JUMP JUMPDEST DUP1 PUSH4 0x313CE567 GT PUSH2 0x13D JUMPI DUP1 PUSH4 0x70A08231 GT PUSH2 0x117 JUMPI DUP1 PUSH4 0x70A08231 EQ PUSH2 0x329 JUMPI DUP1 PUSH4 0x715018A6 EQ PUSH2 0x365 JUMPI DUP1 PUSH4 0x787C23E0 EQ PUSH2 0x37B JUMPI DUP1 PUSH4 0x7C519FFB EQ PUSH2 0x3A3 JUMPI PUSH2 0x18B JUMP JUMPDEST DUP1 PUSH4 0x313CE567 EQ PUSH2 0x2AF JUMPI DUP1 PUSH4 0x3490560D EQ PUSH2 0x2D9 JUMPI DUP1 PUSH4 0x6DB79437 EQ PUSH2 0x301 JUMPI PUSH2 0x18B JUMP JUMPDEST DUP1 PUSH4 0x6FDDE03 EQ PUSH2 0x18F JUMPI DUP1 PUSH4 0x95EA7B3 EQ PUSH2 0x1B9 JUMPI DUP1 PUSH4 0x18160DDD EQ PUSH2 0x1F5 JUMPI DUP1 PUSH4 0x1FDAFCC5 EQ PUSH2 0x21F JUMPI DUP1 PUSH4 0x23B872DD EQ PUSH2 0x249 JUMPI DUP1 PUSH4 0x2598CDB2 EQ PUSH2 0x285 JUMPI PUSH2 0x18B JUMP JUMPDEST CALLDATASIZE PUSH2 0x18B JUMPI STOP JUMPDEST PUSH0 DUP1 REVERT JUMPDEST CALLVALUE DUP1 ISZERO PUSH2 0x19A JUMPI PUSH0 DUP1 REVERT JUMPDEST POP PUSH2 0x1A3 PUSH2 0x5E7 JUMP JUMPDEST PUSH1 0x40 MLOAD PUSH2 0x1B0 SWAP2 SWAP1 PUSH2 0x23B1 JUMP JUMPDEST PUSH1 0x40 MLOAD DUP1 SWAP2 SUB SWAP1 RETURN JUMPDEST CALLVALUE DUP1 ISZERO PUSH2 0x1C4 JUMPI PUSH0 DUP1 REVERT JUMPDEST POP PUSH2 0x1DF PUSH1 0x4 DUP1 CALLDATASIZE SUB DUP2 ADD SWAP1 PUSH2 0x1DA SWAP2 SWAP1 PUSH2 0x2462 JUMP JUMPDEST PUSH2 0x624 JUMP JUMPDEST PUSH1 0x40 MLOAD PUSH2 0x1EC SWAP2 SWAP1 PUSH2 0x24BA JUMP JUMPDEST PUSH1 0x40 MLOAD DUP1 SWAP2 SUB SWAP1 RETURN JUMPDEST CALLVALUE DUP1 ISZERO PUSH2 0x200 JUMPI PUSH0 DUP1 REVERT JUMPDEST POP PUSH2 0x209 PUSH2 0x641 JUMP JUMPDEST PUSH1 0x40 MLOAD PUSH2 0x216 SWAP2 SWAP1 PUSH2 0x24E2 JUMP JUMPDEST PUSH1 0x40 MLOAD DUP1 SWAP2 SUB SWAP1 RETURN JUMPDEST CALLVALUE DUP1 ISZERO PUSH2 0x22A JUMPI PUSH0 DUP1 REVERT JUMPDEST POP PUSH2 0x233 PUSH2 0x667 JUMP JUMPDEST PUSH1 0x40 MLOAD PUSH2 0x240 SWAP2 SWAP1 PUSH2 0x23B1 JUMP JUMPDEST PUSH1 0x40 MLOAD DUP1 SWAP2 SUB SWAP1 RETURN JUMPDEST CALLVALUE DUP1 ISZERO PUSH2 0x254 JUMPI PUSH0 DUP1 REVERT JUMPDEST POP PUSH2 0x26F PUSH1 0x4 DUP1 CALLDATASIZE SUB DUP2 ADD SWAP1 PUSH2 0x26A SWAP2 SWAP1 PUSH2 0x24FB JUMP JUMPDEST PUSH2 0x6A0 JUMP JUMPDEST PUSH1 0x40 MLOAD PUSH2 0x27C SWAP2 SWAP1 PUSH2 0x24BA JUMP JUMPDEST PUSH1 0x40 MLOAD DUP1 SWAP2 SUB SWAP1 RETURN JUMPDEST CALLVALUE DUP1 ISZERO PUSH2 0x290 JUMPI PUSH0 DUP1 REVERT JUMPDEST POP PUSH2 0x299 PUSH2 0x79B JUMP JUMPDEST PUSH1 0x40 MLOAD PUSH2 0x2A6 SWAP2 SWAP1 PUSH2 0x256B JUMP JUMPDEST PUSH1 0x40 MLOAD DUP1 SWAP2 SUB SWAP1 RETURN JUMPDEST CALLVALUE DUP1 ISZERO PUSH2 0x2BA JUMPI PUSH0 DUP1 REVERT JUMPDEST POP PUSH2 0x2C3 PUSH2 0x7C0 JUMP JUMPDEST PUSH1 0x40 MLOAD PUSH2 0x2D0 SWAP2 SWAP1 PUSH2 0x259F JUMP JUMPDEST PUSH1 0x40 MLOAD DUP1 SWAP2 SUB SWAP1 RETURN JUMPDEST CALLVALUE DUP1 ISZERO PUSH2 0x2E4 JUMPI PUSH0 DUP1 REVERT JUMPDEST POP PUSH2 0x2FF PUSH1 0x4 DUP1 CALLDATASIZE SUB DUP2 ADD SWAP1 PUSH2 0x2FA SWAP2 SWAP1 PUSH2 0x2462 JUMP JUMPDEST PUSH2 0x7C8 JUMP JUMPDEST STOP JUMPDEST CALLVALUE DUP1 ISZERO PUSH2 0x30C JUMPI PUSH0 DUP1 REVERT JUMPDEST POP PUSH2 0x327 PUSH1 0x4 DUP1 CALLDATASIZE SUB DUP2 ADD SWAP1 PUSH2 0x322 SWAP2 SWAP1 PUSH2 0x25B8 JUMP JUMPDEST PUSH2 0xA94 JUMP JUMPDEST STOP JUMPDEST CALLVALUE DUP1 ISZERO PUSH2 0x334 JUMPI PUSH0 DUP1 REVERT JUMPDEST POP PUSH2 0x34F PUSH1 0x4 DUP1 CALLDATASIZE SUB DUP2 ADD SWAP1 PUSH2 0x34A SWAP2 SWAP1 PUSH2 0x25F6 JUMP JUMPDEST PUSH2 0xB8B JUMP JUMPDEST PUSH1 0x40 MLOAD PUSH2 0x35C SWAP2 SWAP1 PUSH2 0x24E2 JUMP JUMPDEST PUSH1 0x40 MLOAD DUP1 SWAP2 SUB SWAP1 RETURN JUMPDEST CALLVALUE DUP1 ISZERO PUSH2 0x370 JUMPI PUSH0 DUP1 REVERT JUMPDEST POP PUSH2 0x379 PUSH2 0xBD1 JUMP JUMPDEST STOP JUMPDEST CALLVALUE DUP1 ISZERO PUSH2 0x386 JUMPI PUSH0 DUP1 REVERT JUMPDEST POP PUSH2 0x3A1 PUSH1 0x4 DUP1 CALLDATASIZE SUB DUP2 ADD SWAP1 PUSH2 0x39C SWAP2 SWAP1 PUSH2 0x25F6 JUMP JUMPDEST PUSH2 0xD1F JUMP JUMPDEST STOP JUMPDEST CALLVALUE DUP1 ISZERO PUSH2 0x3AE JUMPI PUSH0 DUP1 REVERT JUMPDEST POP PUSH2 0x3B7 PUSH2 0xEDE JUMP JUMPDEST STOP JUMPDEST CALLVALUE DUP1 ISZERO PUSH2 0x3C4 JUMPI PUSH0 DUP1 REVERT JUMPDEST POP PUSH2 0x3CD PUSH2 0x1026 JUMP JUMPDEST PUSH1 0x40 MLOAD PUSH2 0x3DA SWAP2 SWAP1 PUSH2 0x2630 JUMP JUMPDEST PUSH1 0x40 MLOAD DUP1 SWAP2 SUB SWAP1 RETURN JUMPDEST CALLVALUE DUP1 ISZERO PUSH2 0x3EE JUMPI PUSH0 DUP1 REVERT JUMPDEST POP PUSH2 0x3F7 PUSH2 0x102C JUMP JUMPDEST PUSH1 0x40 MLOAD PUSH2 0x404 SWAP2 SWAP1 PUSH2 0x24E2 JUMP JUMPDEST PUSH1 0x40 MLOAD DUP1 SWAP2 SUB SWAP1 RETURN JUMPDEST CALLVALUE DUP1 ISZERO PUSH2 0x418 JUMPI PUSH0 DUP1 REVERT JUMPDEST POP PUSH2 0x421 PUSH2 0x1032 JUMP JUMPDEST PUSH1 0x40 MLOAD PUSH2 0x42E SWAP2 SWAP1 PUSH2 0x2630 JUMP JUMPDEST PUSH1 0x40 MLOAD DUP1 SWAP2 SUB SWAP1 RETURN JUMPDEST CALLVALUE DUP1 ISZERO PUSH2 0x442 JUMPI PUSH0 DUP1 REVERT JUMPDEST POP PUSH2 0x44B PUSH2 0x1059 JUMP JUMPDEST PUSH1 0x40 MLOAD PUSH2 0x458 SWAP2 SWAP1 PUSH2 0x23B1 JUMP JUMPDEST PUSH1 0x40 MLOAD DUP1 SWAP2 SUB SWAP1 RETURN JUMPDEST CALLVALUE DUP1 ISZERO PUSH2 0x46C JUMPI PUSH0 DUP1 REVERT JUMPDEST POP PUSH2 0x475 PUSH2 0x1092 JUMP JUMPDEST PUSH1 0x40 MLOAD PUSH2 0x482 SWAP2 SWAP1 PUSH2 0x23B1 JUMP JUMPDEST PUSH1 0x40 MLOAD DUP1 SWAP2 SUB SWAP1 RETURN JUMPDEST CALLVALUE DUP1 ISZERO PUSH2 0x496 JUMPI PUSH0 DUP1 REVERT JUMPDEST POP PUSH2 0x4B1 PUSH1 0x4 DUP1 CALLDATASIZE SUB DUP2 ADD SWAP1 PUSH2 0x4AC SWAP2 SWAP1 PUSH2 0x2462 JUMP JUMPDEST PUSH2 0x10CF JUMP JUMPDEST PUSH1 0x40 MLOAD PUSH2 0x4BE SWAP2 SWAP1 PUSH2 0x24BA JUMP JUMPDEST PUSH1 0x40 MLOAD DUP1 SWAP2 SUB SWAP1 RETURN JUMPDEST CALLVALUE DUP1 ISZERO PUSH2 0x4D2 JUMPI PUSH0 DUP1 REVERT JUMPDEST POP PUSH2 0x4DB PUSH2 0x10EC JUMP JUMPDEST PUSH1 0x40 MLOAD PUSH2 0x4E8 SWAP2 SWAP1 PUSH2 0x23B1 JUMP JUMPDEST PUSH1 0x40 MLOAD DUP1 SWAP2 SUB SWAP1 RETURN JUMPDEST CALLVALUE DUP1 ISZERO PUSH2 0x4FC JUMPI PUSH0 DUP1 REVERT JUMPDEST POP PUSH2 0x517 PUSH1 0x4 DUP1 CALLDATASIZE SUB DUP2 ADD SWAP1 PUSH2 0x512 SWAP2 SWAP1 PUSH2 0x25F6 JUMP JUMPDEST PUSH2 0x1125 JUMP JUMPDEST STOP JUMPDEST CALLVALUE DUP1 ISZERO PUSH2 0x524 JUMPI PUSH0 DUP1 REVERT JUMPDEST POP PUSH2 0x53F PUSH1 0x4 DUP1 CALLDATASIZE SUB DUP2 ADD SWAP1 PUSH2 0x53A SWAP2 SWAP1 PUSH2 0x2649 JUMP JUMPDEST PUSH2 0x12E2 JUMP JUMPDEST PUSH1 0x40 MLOAD PUSH2 0x54C SWAP2 SWAP1 PUSH2 0x24E2 JUMP JUMPDEST PUSH1 0x40 MLOAD DUP1 SWAP2 SUB SWAP1 RETURN JUMPDEST CALLVALUE DUP1 ISZERO PUSH2 0x560 JUMPI PUSH0 DUP1 REVERT JUMPDEST POP PUSH2 0x569 PUSH2 0x1364 JUMP JUMPDEST STOP JUMPDEST CALLVALUE DUP1 ISZERO PUSH2 0x576 JUMPI PUSH0 DUP1 REVERT JUMPDEST POP PUSH2 0x591 PUSH1 0x4 DUP1 CALLDATASIZE SUB DUP2 ADD SWAP1 PUSH2 0x58C SWAP2 SWAP1 PUSH2 0x25F6 JUMP JUMPDEST PUSH2 0x1481 JUMP JUMPDEST STOP JUMPDEST CALLVALUE DUP1 ISZERO PUSH2 0x59E JUMPI PUSH0 DUP1 REVERT JUMPDEST POP PUSH2 0x5A7 PUSH2 0x158F JUMP JUMPDEST PUSH1 0x40 MLOAD PUSH2 0x5B4 SWAP2 SWAP1 PUSH2 0x24E2 JUMP JUMPDEST PUSH1 0x40 MLOAD DUP1 SWAP2 SUB SWAP1 RETURN JUMPDEST CALLVALUE DUP1 ISZERO PUSH2 0x5C8 JUMPI PUSH0 DUP1 REVERT JUMPDEST POP PUSH2 0x5D1 PUSH2 0x1595 JUMP JUMPDEST PUSH1 0x40 MLOAD PUSH2 0x5DE SWAP2 SWAP1 PUSH2 0x24BA JUMP JUMPDEST PUSH1 0x40 MLOAD DUP1 SWAP2 SUB SWAP1 RETURN JUMPDEST PUSH1 0x60 PUSH1 0x40 MLOAD DUP1 PUSH1 0x40 ADD PUSH1 0x40 MSTORE DUP1 PUSH1 0x4 DUP2 MSTORE PUSH1 0x20 ADD PUSH32 0x4765676500000000000000000000000000000000000000000000000000000000 DUP2 MSTORE POP SWAP1 POP SWAP1 JUMP JUMPDEST PUSH0 PUSH2 0x637 PUSH2 0x630 PUSH2 0x15A8 JUMP JUMPDEST DUP5 DUP5 PUSH2 0x15AF JUMP JUMPDEST PUSH1 0x1 SWAP1 POP SWAP3 SWAP2 POP POP JUMP JUMPDEST PUSH0 PUSH1 0x9 PUSH1 0xA PUSH2 0x650 SWAP2 SWAP1 PUSH2 0x27E3 JUMP JUMPDEST PUSH7 0x17DFCDECE4000 PUSH2 0x662 SWAP2 SWAP1 PUSH2 0x282D JUMP JUMPDEST SWAP1 POP SWAP1 JUMP JUMPDEST PUSH1 0x40 MLOAD DUP1 PUSH1 0x40 ADD PUSH1 0x40 MSTORE DUP1 PUSH1 0x1A DUP2 MSTORE PUSH1 0x20 ADD PUSH32 0x416E6F6F70205341465520444556207C7C204E46412C44594F52000000000000 DUP2 MSTORE POP DUP2 JUMP JUMPDEST PUSH0 DUP1 PUSH1 0x2 PUSH0 DUP7 PUSH20 0xFFFFFFFFFFFFFFFFFFFFFFFFFFFFFFFFFFFFFFFF AND PUSH20 0xFFFFFFFFFFFFFFFFFFFFFFFFFFFFFFFFFFFFFFFF AND DUP2 MSTORE PUSH1 0x20 ADD SWAP1 DUP2 MSTORE PUSH1 0x20 ADD PUSH0 KECCAK256 PUSH0 PUSH2 0x6E8 PUSH2 0x15A8 JUMP JUMPDEST PUSH20 0xFFFFFFFFFFFFFFFFFFFFFFFFFFFFFFFFFFFFFFFF AND PUSH20 0xFFFFFFFFFFFFFFFFFFFFFFFFFFFFFFFFFFFFFFFF AND DUP2 MSTORE PUSH1 0x20 ADD SWAP1 DUP2 MSTORE PUSH1 0x20 ADD PUSH0 KECCAK256 SLOAD SWAP1 POP DUP3 DUP2 LT ISZERO PUSH2 0x767 JUMPI PUSH1 0x40 MLOAD PUSH32 0x8C379A000000000000000000000000000000000000000000000000000000000 DUP2 MSTORE PUSH1 0x4 ADD PUSH2 0x75E SWAP1 PUSH2 0x28DE JUMP JUMPDEST PUSH1 0x40 MLOAD DUP1 SWAP2 SUB SWAP1 REVERT JUMPDEST PUSH2 0x772 DUP6 DUP6 DUP6 PUSH2 0x1772 JUMP JUMPDEST PUSH2 0x78F DUP6 PUSH2 0x77E PUSH2 0x15A8 JUMP JUMPDEST DUP6 DUP5 PUSH2 0x78A SWAP2 SWAP1 PUSH2 0x28FC JUMP JUMPDEST PUSH2 0x15AF JUMP JUMPDEST PUSH1 0x1 SWAP2 POP POP SWAP4 SWAP3 POP POP POP JUMP JUMPDEST PUSH1 0x4 PUSH0 SWAP1 SLOAD SWAP1 PUSH2 0x100 EXP SWAP1 DIV PUSH20 0xFFFFFFFFFFFFFFFFFFFFFFFFFFFFFFFFFFFFFFFF AND DUP2 JUMP JUMPDEST PUSH0 PUSH1 0x9 SWAP1 POP SWAP1 JUMP JUMPDEST PUSH2 0x7D0 PUSH2 0x15A8 JUMP JUMPDEST PUSH20 0xFFFFFFFFFFFFFFFFFFFFFFFFFFFFFFFFFFFFFFFF AND PUSH0 DUP1 SLOAD SWAP1 PUSH2 0x100 EXP SWAP1 DIV PUSH20 0xFFFFFFFFFFFFFFFFFFFFFFFFFFFFFFFFFFFFFFFF AND PUSH20 0xFFFFFFFFFFFFFFFFFFFFFFFFFFFFFFFFFFFFFFFF AND EQ PUSH2 0x85C JUMPI PUSH1 0x40 MLOAD PUSH32 0x8C379A000000000000000000000000000000000000000000000000000000000 DUP2 MSTORE PUSH1 0x4 ADD PUSH2 0x853 SWAP1 PUSH2 0x2979 JUMP JUMPDEST PUSH1 0x40 MLOAD DUP1 SWAP2 SUB SWAP1 REVERT JUMPDEST ADDRESS PUSH20 0xFFFFFFFFFFFFFFFFFFFFFFFFFFFFFFFFFFFFFFFF AND DUP3 PUSH20 0xFFFFFFFFFFFFFFFFFFFFFFFFFFFFFFFFFFFFFFFF AND SUB PUSH2 0x8CA JUMPI PUSH1 0x40 MLOAD PUSH32 0x8C379A000000000000000000000000000000000000000000000000000000000 DUP2 MSTORE PUSH1 0x4 ADD PUSH2 0x8C1 SWAP1 PUSH2 0x2A07 JUMP JUMPDEST PUSH1 0x40 MLOAD DUP1 SWAP2 SUB SWAP1 REVERT JUMPDEST PUSH0 DUP2 GT PUSH2 0x90C JUMPI PUSH1 0x40 MLOAD PUSH32 0x8C379A000000000000000000000000000000000000000000000000000000000 DUP2 MSTORE PUSH1 0x4 ADD PUSH2 0x903 SWAP1 PUSH2 0x2A95 JUMP JUMPDEST PUSH1 0x40 MLOAD DUP1 SWAP2 SUB SWAP1 REVERT JUMPDEST DUP2 PUSH20 0xFFFFFFFFFFFFFFFFFFFFFFFFFFFFFFFFFFFFFFFF AND PUSH4 0x70A08231 ADDRESS PUSH1 0x40 MLOAD DUP3 PUSH4 0xFFFFFFFF AND PUSH1 0xE0 SHL DUP2 MSTORE PUSH1 0x4 ADD PUSH2 0x945 SWAP2 SWAP1 PUSH2 0x2630 JUMP JUMPDEST PUSH1 0x20 PUSH1 0x40 MLOAD DUP1 DUP4 SUB DUP2 DUP7 GAS STATICCALL ISZERO DUP1 ISZERO PUSH2 0x960 JUMPI RETURNDATASIZE PUSH0 DUP1 RETURNDATACOPY RETURNDATASIZE PUSH0 REVERT JUMPDEST POP POP POP POP PUSH1 0x40 MLOAD RETURNDATASIZE PUSH1 0x1F NOT PUSH1 0x1F DUP3 ADD AND DUP3 ADD DUP1 PUSH1 0x40 MSTORE POP DUP2 ADD SWAP1 PUSH2 0x984 SWAP2 SWAP1 PUSH2 0x2AC7 JUMP JUMPDEST DUP2 GT ISZERO PUSH2 0x9C6 JUMPI PUSH1 0x40 MLOAD PUSH32 0x8C379A000000000000000000000000000000000000000000000000000000000 DUP2 MSTORE PUSH1 0x4 ADD PUSH2 0x9BD SWAP1 PUSH2 0x2B3C JUMP JUMPDEST PUSH1 0x40 MLOAD DUP1 SWAP2 SUB SWAP1 REVERT JUMPDEST DUP2 PUSH20 0xFFFFFFFFFFFFFFFFFFFFFFFFFFFFFFFFFFFFFFFF AND PUSH4 0xA9059CBB PUSH1 0x4 PUSH0 SWAP1 SLOAD SWAP1 PUSH2 0x100 EXP SWAP1 DIV PUSH20 0xFFFFFFFFFFFFFFFFFFFFFFFFFFFFFFFFFFFFFFFF AND DUP4 PUSH1 0x40 MLOAD DUP4 PUSH4 0xFFFFFFFF AND PUSH1 0xE0 SHL DUP2 MSTORE PUSH1 0x4 ADD PUSH2 0xA22 SWAP3 SWAP2 SWAP1 PUSH2 0x2BB5 JUMP JUMPDEST PUSH1 0x20 PUSH1 0x40 MLOAD DUP1 DUP4 SUB DUP2 PUSH0 DUP8 GAS CALL ISZERO DUP1 ISZERO PUSH2 0xA3E JUMPI RETURNDATASIZE PUSH0 DUP1 RETURNDATACOPY RETURNDATASIZE PUSH0 REVERT JUMPDEST POP POP POP POP PUSH1 0x40 MLOAD RETURNDATASIZE PUSH1 0x1F NOT PUSH1 0x1F DUP3 ADD AND DUP3 ADD DUP1 PUSH1 0x40 MSTORE POP DUP2 ADD SWAP1 PUSH2 0xA62 SWAP2 SWAP1 PUSH2 0x2C06 JUMP JUMPDEST POP DUP1 PUSH32 0xC3CAFAD8C1A78AA542C18679D54D2E14CF1F08B516AC12071DCF9FD2D3701C22 PUSH1 0x40 MLOAD PUSH1 0x40 MLOAD DUP1 SWAP2 SUB SWAP1 LOG2 POP POP JUMP JUMPDEST PUSH2 0xA9C PUSH2 0x15A8 JUMP JUMPDEST PUSH20 0xFFFFFFFFFFFFFFFFFFFFFFFFFFFFFFFFFFFFFFFF AND PUSH0 DUP1 SLOAD SWAP1 PUSH2 0x100 EXP SWAP1 DIV PUSH20 0xFFFFFFFFFFFFFFFFFFFFFFFFFFFFFFFFFFFFFFFF AND PUSH20 0xFFFFFFFFFFFFFFFFFFFFFFFFFFFFFFFFFFFFFFFF AND EQ PUSH2 0xB28 JUMPI PUSH1 0x40 MLOAD PUSH32 0x8C379A000000000000000000000000000000000000000000000000000000000 DUP2 MSTORE PUSH1 0x4 ADD PUSH2 0xB1F SWAP1 PUSH2 0x2979 JUMP JUMPDEST PUSH1 0x40 MLOAD DUP1 SWAP2 SUB SWAP1 REVERT JUMPDEST PUSH1 0xA DUP3 GT ISZERO DUP1 ISZERO PUSH2 0xB3A JUMPI POP PUSH1 0xA DUP2 GT ISZERO JUMPDEST PUSH2 0xB79 JUMPI PUSH1 0x40 MLOAD PUSH32 0x8C379A000000000000000000000000000000000000000000000000000000000 DUP2 MSTORE PUSH1 0x4 ADD PUSH2 0xB70 SWAP1 PUSH2 0x2C7B JUMP JUMPDEST PUSH1 0x40 MLOAD DUP1 SWAP2 SUB SWAP1 REVERT JUMPDEST DUP2 PUSH1 0x7 DUP2 SWAP1 SSTORE POP DUP1 PUSH1 0x8 DUP2 SWAP1 SSTORE POP POP POP JUMP JUMPDEST PUSH0 PUSH1 0x1 PUSH0 DUP4 PUSH20 0xFFFFFFFFFFFFFFFFFFFFFFFFFFFFFFFFFFFFFFFF AND PUSH20 0xFFFFFFFFFFFFFFFFFFFFFFFFFFFFFFFFFFFFFFFF AND DUP2 MSTORE PUSH1 0x20 ADD SWAP1 DUP2 MSTORE PUSH1 0x20 ADD PUSH0 KECCAK256 SLOAD SWAP1 POP SWAP2 SWAP1 POP JUMP JUMPDEST PUSH2 0xBD9 PUSH2 0x15A8 JUMP JUMPDEST PUSH20 0xFFFFFFFFFFFFFFFFFFFFFFFFFFFFFFFFFFFFFFFF AND PUSH0 DUP1 SLOAD SWAP1 PUSH2 0x100 EXP SWAP1 DIV PUSH20 0xFFFFFFFFFFFFFFFFFFFFFFFFFFFFFFFFFFFFFFFF AND PUSH20 0xFFFFFFFFFFFFFFFFFFFFFFFFFFFFFFFFFFFFFFFF AND EQ PUSH2 0xC65 JUMPI PUSH1 0x40 MLOAD PUSH32 0x8C379A000000000000000000000000000000000000000000000000000000000 DUP2 MSTORE PUSH1 0x4 ADD PUSH2 0xC5C SWAP1 PUSH2 0x2979 JUMP JUMPDEST PUSH1 0x40 MLOAD DUP1 SWAP2 SUB SWAP1 REVERT JUMPDEST PUSH0 PUSH20 0xFFFFFFFFFFFFFFFFFFFFFFFFFFFFFFFFFFFFFFFF AND PUSH0 DUP1 SLOAD SWAP1 PUSH2 0x100 EXP SWAP1 DIV PUSH20 0xFFFFFFFFFFFFFFFFFFFFFFFFFFFFFFFFFFFFFFFF AND PUSH20 0xFFFFFFFFFFFFFFFFFFFFFFFFFFFFFFFFFFFFFFFF AND PUSH32 0x8BE0079C531659141344CD1FD0A4F28419497F9722A3DAAFE3B4186F6B6457E0 PUSH1 0x40 MLOAD PUSH1 0x40 MLOAD DUP1 SWAP2 SUB SWAP1 LOG3 PUSH0 DUP1 PUSH0 PUSH2 0x100 EXP DUP2 SLOAD DUP2 PUSH20 0xFFFFFFFFFFFFFFFFFFFFFFFFFFFFFFFFFFFFFFFF MUL NOT AND SWAP1 DUP4 PUSH20 0xFFFFFFFFFFFFFFFFFFFFFFFFFFFFFFFFFFFFFFFF AND MUL OR SWAP1 SSTORE POP JUMP JUMPDEST PUSH2 0xD27 PUSH2 0x15A8 JUMP JUMPDEST PUSH20 0xFFFFFFFFFFFFFFFFFFFFFFFFFFFFFFFFFFFFFFFF AND PUSH0 DUP1 SLOAD SWAP1 PUSH2 0x100 EXP SWAP1 DIV PUSH20 0xFFFFFFFFFFFFFFFFFFFFFFFFFFFFFFFFFFFFFFFF AND PUSH20 0xFFFFFFFFFFFFFFFFFFFFFFFFFFFFFFFFFFFFFFFF AND EQ PUSH2 0xDB3 JUMPI PUSH1 0x40 MLOAD PUSH32 0x8C379A000000000000000000000000000000000000000000000000000000000 DUP2 MSTORE PUSH1 0x4 ADD PUSH2 0xDAA SWAP1 PUSH2 0x2979 JUMP JUMPDEST PUSH1 0x40 MLOAD DUP1 SWAP2 SUB SWAP1 REVERT JUMPDEST PUSH1 0x1 ISZERO ISZERO PUSH1 0x3 PUSH0 DUP4 PUSH20 0xFFFFFFFFFFFFFFFFFFFFFFFFFFFFFFFFFFFFFFFF AND PUSH20 0xFFFFFFFFFFFFFFFFFFFFFFFFFFFFFFFFFFFFFFFF AND DUP2 MSTORE PUSH1 0x20 ADD SWAP1 DUP2 MSTORE PUSH1 0x20 ADD PUSH0 KECCAK256 PUSH0 SWAP1 SLOAD SWAP1 PUSH2 0x100 EXP SWAP1 DIV PUSH1 0xFF AND ISZERO ISZERO SUB PUSH2 0xE43 JUMPI PUSH1 0x40 MLOAD PUSH32 0x8C379A000000000000000000000000000000000000000000000000000000000 DUP2 MSTORE PUSH1 0x4 ADD PUSH2 0xE3A SWAP1 PUSH2 0x2CE3 JUMP JUMPDEST PUSH1 0x40 MLOAD DUP1 SWAP2 SUB SWAP1 REVERT JUMPDEST PUSH1 0x1 PUSH1 0x3 PUSH0 DUP4 PUSH20 0xFFFFFFFFFFFFFFFFFFFFFFFFFFFFFFFFFFFFFFFF AND PUSH20 0xFFFFFFFFFFFFFFFFFFFFFFFFFFFFFFFFFFFFFFFF AND DUP2 MSTORE PUSH1 0x20 ADD SWAP1 DUP2 MSTORE PUSH1 0x20 ADD PUSH0 KECCAK256 PUSH0 PUSH2 0x100 EXP DUP2 SLOAD DUP2 PUSH1 0xFF MUL NOT AND SWAP1 DUP4 ISZERO ISZERO MUL OR SWAP1 SSTORE POP DUP1 PUSH20 0xFFFFFFFFFFFFFFFFFFFFFFFFFFFFFFFFFFFFFFFF AND PUSH32 0x7168E8ADB718597B3AC83E2DFE415BEA8EBAABB57FE933FFAC2E0ED93B80718E PUSH1 0x40 MLOAD PUSH1 0x40 MLOAD DUP1 SWAP2 SUB SWAP1 LOG2 POP JUMP JUMPDEST PUSH2 0xEE6 PUSH2 0x15A8 JUMP JUMPDEST PUSH20 0xFFFFFFFFFFFFFFFFFFFFFFFFFFFFFFFFFFFFFFFF AND PUSH0 DUP1 SLOAD SWAP1 PUSH2 0x100 EXP SWAP1 DIV PUSH20 0xFFFFFFFFFFFFFFFFFFFFFFFFFFFFFFFFFFFFFFFF AND PUSH20 0xFFFFFFFFFFFFFFFFFFFFFFFFFFFFFFFFFFFFFFFF AND EQ PUSH2 0xF72 JUMPI PUSH1 0x40 MLOAD PUSH32 0x8C379A000000000000000000000000000000000000000000000000000000000 DUP2 MSTORE PUSH1 0x4 ADD PUSH2 0xF69 SWAP1 PUSH2 0x2979 JUMP JUMPDEST PUSH1 0x40 MLOAD DUP1 SWAP2 SUB SWAP1 REVERT JUMPDEST PUSH1 0xA PUSH1 0x14 SWAP1 SLOAD SWAP1 PUSH2 0x100 EXP SWAP1 DIV PUSH1 0xFF AND ISZERO PUSH2 0xFC2 JUMPI PUSH1 0x40 MLOAD PUSH32 0x8C379A000000000000000000000000000000000000000000000000000000000 DUP2 MSTORE PUSH1 0x4 ADD PUSH2 0xFB9 SWAP1 PUSH2 0x2D4B JUMP JUMPDEST PUSH1 0x40 MLOAD DUP1 SWAP2 SUB SWAP1 REVERT JUMPDEST PUSH1 0x1 PUSH1 0xA PUSH1 0x15 PUSH2 0x100 EXP DUP2 SLOAD DUP2 PUSH1 0xFF MUL NOT AND SWAP1 DUP4 ISZERO ISZERO MUL OR SWAP1 SSTORE POP PUSH1 0x1 PUSH1 0xA PUSH1 0x14 PUSH2 0x100 EXP DUP2 SLOAD DUP2 PUSH1 0xFF MUL NOT AND SWAP1 DUP4 ISZERO ISZERO MUL OR SWAP1 SSTORE POP PUSH32 0xD151BF744092C3011C9F50766DA412CCA73ACDBCAA74B879A5858ADC258F935 PUSH1 0x40 MLOAD PUSH1 0x40 MLOAD DUP1 SWAP2 SUB SWAP1 LOG1 JUMP JUMPDEST PUSH2 0xDEAD DUP2 JUMP JUMPDEST PUSH1 0x7 SLOAD DUP2 JUMP JUMPDEST PUSH0 DUP1 PUSH0 SWAP1 SLOAD SWAP1 PUSH2 0x100 EXP SWAP1 DIV PUSH20 0xFFFFFFFFFFFFFFFFFFFFFFFFFFFFFFFFFFFFFFFF AND SWAP1 POP SWAP1 JUMP JUMPDEST PUSH1 0x40 MLOAD DUP1 PUSH1 0x40 ADD PUSH1 0x40 MSTORE DUP1 PUSH1 0x6 DUP2 MSTORE PUSH1 0x20 ADD PUSH32 0x302E382E32300000000000000000000000000000000000000000000000000000 DUP2 MSTORE POP DUP2 JUMP JUMPDEST PUSH1 0x60 PUSH1 0x40 MLOAD DUP1 PUSH1 0x40 ADD PUSH1 0x40 MSTORE DUP1 PUSH1 0x4 DUP2 MSTORE PUSH1 0x20 ADD PUSH32 0x4765676500000000000000000000000000000000000000000000000000000000 DUP2 MSTORE POP SWAP1 POP SWAP1 JUMP JUMPDEST PUSH0 PUSH2 0x10E2 PUSH2 0x10DB PUSH2 0x15A8 JUMP JUMPDEST DUP5 DUP5 PUSH2 0x1772 JUMP JUMPDEST PUSH1 0x1 SWAP1 POP SWAP3 SWAP2 POP POP JUMP JUMPDEST PUSH1 0x40 MLOAD DUP1 PUSH1 0x40 ADD PUSH1 0x40 MSTORE DUP1 PUSH1 0xE DUP2 MSTORE PUSH1 0x20 ADD PUSH32 0x434120466F722050726573616C65000000000000000000000000000000000000 DUP2 MSTORE POP DUP2 JUMP JUMPDEST PUSH2 0x112D PUSH2 0x15A8 JUMP JUMPDEST PUSH20 0xFFFFFFFFFFFFFFFFFFFFFFFFFFFFFFFFFFFFFFFF AND PUSH0 DUP1 SLOAD SWAP1 PUSH2 0x100 EXP SWAP1 DIV PUSH20 0xFFFFFFFFFFFFFFFFFFFFFFFFFFFFFFFFFFFFFFFF AND PUSH20 0xFFFFFFFFFFFFFFFFFFFFFFFFFFFFFFFFFFFFFFFF AND EQ PUSH2 0x11B9 JUMPI PUSH1 0x40 MLOAD PUSH32 0x8C379A000000000000000000000000000000000000000000000000000000000 DUP2 MSTORE PUSH1 0x4 ADD PUSH2 0x11B0 SWAP1 PUSH2 0x2979 JUMP JUMPDEST PUSH1 0x40 MLOAD DUP1 SWAP2 SUB SWAP1 REVERT JUMPDEST PUSH0 ISZERO ISZERO PUSH1 0x3 PUSH0 DUP4 PUSH20 0xFFFFFFFFFFFFFFFFFFFFFFFFFFFFFFFFFFFFFFFF AND PUSH20 0xFFFFFFFFFFFFFFFFFFFFFFFFFFFFFFFFFFFFFFFF AND DUP2 MSTORE PUSH1 0x20 ADD SWAP1 DUP2 MSTORE PUSH1 0x20 ADD PUSH0 KECCAK256 PUSH0 SWAP1 SLOAD SWAP1 PUSH2 0x100 EXP SWAP1 DIV PUSH1 0xFF AND ISZERO ISZERO SUB PUSH2 0x1248 JUMPI PUSH1 0x40 MLOAD PUSH32 0x8C379A000000000000000000000000000000000000000000000000000000000 DUP2 MSTORE PUSH1 0x4 ADD PUSH2 0x123F SWAP1 PUSH2 0x2DB3 JUMP JUMPDEST PUSH1 0x40 MLOAD DUP1 SWAP2 SUB SWAP1 REVERT JUMPDEST PUSH0 PUSH1 0x3 PUSH0 DUP4 PUSH20 0xFFFFFFFFFFFFFFFFFFFFFFFFFFFFFFFFFFFFFFFF AND PUSH20 0xFFFFFFFFFFFFFFFFFFFFFFFFFFFFFFFFFFFFFFFF AND DUP2 MSTORE PUSH1 0x20 ADD SWAP1 DUP2 MSTORE PUSH1 0x20 ADD PUSH0 KECCAK256 PUSH0 PUSH2 0x100 EXP DUP2 SLOAD DUP2 PUSH1 0xFF MUL NOT AND SWAP1 DUP4 ISZERO ISZERO MUL OR SWAP1 SSTORE POP DUP1 PUSH20 0xFFFFFFFFFFFFFFFFFFFFFFFFFFFFFFFFFFFFFFFF AND PUSH32 0xDFF643E1B752E1138794C958B6F565E4F003BA18D45383A40B582DE82CED091E PUSH1 0x40 MLOAD PUSH1 0x40 MLOAD DUP1 SWAP2 SUB SWAP1 LOG2 POP JUMP JUMPDEST PUSH0 PUSH1 0x2 PUSH0 DUP5 PUSH20 0xFFFFFFFFFFFFFFFFFFFFFFFFFFFFFFFFFFFFFFFF AND PUSH20 0xFFFFFFFFFFFFFFFFFFFFFFFFFFFFFFFFFFFFFFFF AND DUP2 MSTORE PUSH1 0x20 ADD SWAP1 DUP2 MSTORE PUSH1 0x20 ADD PUSH0 KECCAK256 PUSH0 DUP4 PUSH20 0xFFFFFFFFFFFFFFFFFFFFFFFFFFFFFFFFFFFFFFFF AND PUSH20 0xFFFFFFFFFFFFFFFFFFFFFFFFFFFFFFFFFFFFFFFF AND DUP2 MSTORE PUSH1 0x20 ADD SWAP1 DUP2 MSTORE PUSH1 0x20 ADD PUSH0 KECCAK256 SLOAD SWAP1 POP SWAP3 SWAP2 POP POP JUMP JUMPDEST PUSH0 SELFBALANCE SWAP1 POP PUSH0 DUP2 GT PUSH2 0x13AA JUMPI PUSH1 0x40 MLOAD PUSH32 0x8C379A000000000000000000000000000000000000000000000000000000000 DUP2 MSTORE PUSH1 0x4 ADD PUSH2 0x13A1 SWAP1 PUSH2 0x2A95 JUMP JUMPDEST PUSH1 0x40 MLOAD DUP1 SWAP2 SUB SWAP1 REVERT JUMPDEST SELFBALANCE DUP2 GT ISZERO PUSH2 0x13ED JUMPI PUSH1 0x40 MLOAD PUSH32 0x8C379A000000000000000000000000000000000000000000000000000000000 DUP2 MSTORE PUSH1 0x4 ADD PUSH2 0x13E4 SWAP1 PUSH2 0x2B3C JUMP JUMPDEST PUSH1 0x40 MLOAD DUP1 SWAP2 SUB SWAP1 REVERT JUMPDEST PUSH1 0x4 PUSH0 SWAP1 SLOAD SWAP1 PUSH2 0x100 EXP SWAP1 DIV PUSH20 0xFFFFFFFFFFFFFFFFFFFFFFFFFFFFFFFFFFFFFFFF AND PUSH20 0xFFFFFFFFFFFFFFFFFFFFFFFFFFFFFFFFFFFFFFFF AND PUSH2 0x8FC DUP3 SWAP1 DUP2 ISZERO MUL SWAP1 PUSH1 0x40 MLOAD PUSH0 PUSH1 0x40 MLOAD DUP1 DUP4 SUB DUP2 DUP6 DUP9 DUP9 CALL SWAP4 POP POP POP POP ISZERO DUP1 ISZERO PUSH2 0x1451 JUMPI RETURNDATASIZE PUSH0 DUP1 RETURNDATACOPY RETURNDATASIZE PUSH0 REVERT JUMPDEST POP PUSH32 0xC680F238873C988C7DC872EC40CACA9D70EDFE000C3D44A1B9410684DB937675 PUSH1 0x40 MLOAD PUSH1 0x40 MLOAD DUP1 SWAP2 SUB SWAP1 LOG1 POP JUMP JUMPDEST PUSH2 0x1489 PUSH2 0x15A8 JUMP JUMPDEST PUSH20 0xFFFFFFFFFFFFFFFFFFFFFFFFFFFFFFFFFFFFFFFF AND PUSH0 DUP1 SLOAD SWAP1 PUSH2 0x100 EXP SWAP1 DIV PUSH20 0xFFFFFFFFFFFFFFFFFFFFFFFFFFFFFFFFFFFFFFFF AND PUSH20 0xFFFFFFFFFFFFFFFFFFFFFFFFFFFFFFFFFFFFFFFF AND EQ PUSH2 0x1515 JUMPI PUSH1 0x40 MLOAD PUSH32 0x8C379A000000000000000000000000000000000000000000000000000000000 DUP2 MSTORE PUSH1 0x4 ADD PUSH2 0x150C SWAP1 PUSH2 0x2979 JUMP JUMPDEST PUSH1 0x40 MLOAD DUP1 SWAP2 SUB SWAP1 REVERT JUMPDEST PUSH0 PUSH20 0xFFFFFFFFFFFFFFFFFFFFFFFFFFFFFFFFFFFFFFFF AND DUP2 PUSH20 0xFFFFFFFFFFFFFFFFFFFFFFFFFFFFFFFFFFFFFFFF AND SUB PUSH2 0x1583 JUMPI PUSH1 0x40 MLOAD PUSH32 0x8C379A000000000000000000000000000000000000000000000000000000000 DUP2 MSTORE PUSH1 0x4 ADD PUSH2 0x157A SWAP1 PUSH2 0x2E41 JUMP JUMPDEST PUSH1 0x40 MLOAD DUP1 SWAP2 SUB SWAP1 REVERT JUMPDEST PUSH2 0x158C DUP2 PUSH2 0x1EF7 JUMP JUMPDEST POP JUMP JUMPDEST PUSH1 0x8 SLOAD DUP2 JUMP JUMPDEST PUSH1 0xA PUSH1 0x14 SWAP1 SLOAD SWAP1 PUSH2 0x100 EXP SWAP1 DIV PUSH1 0xFF AND DUP2 JUMP JUMPDEST PUSH0 CALLER SWAP1 POP SWAP1 JUMP JUMPDEST PUSH0 PUSH20 0xFFFFFFFFFFFFFFFFFFFFFFFFFFFFFFFFFFFFFFFF AND DUP4 PUSH20 0xFFFFFFFFFFFFFFFFFFFFFFFFFFFFFFFFFFFFFFFF AND SUB PUSH2 0x161D JUMPI PUSH1 0x40 MLOAD PUSH32 0x8C379A000000000000000000000000000000000000000000000000000000000 DUP2 MSTORE PUSH1 0x4 ADD PUSH2 0x1614 SWAP1 PUSH2 0x2ECF JUMP JUMPDEST PUSH1 0x40 MLOAD DUP1 SWAP2 SUB SWAP1 REVERT JUMPDEST PUSH0 PUSH20 0xFFFFFFFFFFFFFFFFFFFFFFFFFFFFFFFFFFFFFFFF AND DUP3 PUSH20 0xFFFFFFFFFFFFFFFFFFFFFFFFFFFFFFFFFFFFFFFF AND SUB PUSH2 0x168B JUMPI PUSH1 0x40 MLOAD PUSH32 0x8C379A000000000000000000000000000000000000000000000000000000000 DUP2 MSTORE PUSH1 0x4 ADD PUSH2 0x1682 SWAP1 PUSH2 0x2F5D JUMP JUMPDEST PUSH1 0x40 MLOAD DUP1 SWAP2 SUB SWAP1 REVERT JUMPDEST DUP1 PUSH1 0x2 PUSH0 DUP6 PUSH20 0xFFFFFFFFFFFFFFFFFFFFFFFFFFFFFFFFFFFFFFFF AND PUSH20 0xFFFFFFFFFFFFFFFFFFFFFFFFFFFFFFFFFFFFFFFF AND DUP2 MSTORE PUSH1 0x20 ADD SWAP1 DUP2 MSTORE PUSH1 0x20 ADD PUSH0 KECCAK256 PUSH0 DUP5 PUSH20 0xFFFFFFFFFFFFFFFFFFFFFFFFFFFFFFFFFFFFFFFF AND PUSH20 0xFFFFFFFFFFFFFFFFFFFFFFFFFFFFFFFFFFFFFFFF AND DUP2 MSTORE PUSH1 0x20 ADD SWAP1 DUP2 MSTORE PUSH1 0x20 ADD PUSH0 KECCAK256 DUP2 SWAP1 SSTORE POP DUP2 PUSH20 0xFFFFFFFFFFFFFFFFFFFFFFFFFFFFFFFFFFFFFFFF AND DUP4 PUSH20 0xFFFFFFFFFFFFFFFFFFFFFFFFFFFFFFFFFFFFFFFF AND PUSH32 0x8C5BE1E5EBEC7D5BD14F71427D1E84F3DD0314C0F7B2291E5B200AC8C7C3B925 DUP4 PUSH1 0x40 MLOAD PUSH2 0x1765 SWAP2 SWAP1 PUSH2 0x24E2 JUMP JUMPDEST PUSH1 0x40 MLOAD DUP1 SWAP2 SUB SWAP1 LOG3 POP POP POP JUMP JUMPDEST PUSH0 PUSH20 0xFFFFFFFFFFFFFFFFFFFFFFFFFFFFFFFFFFFFFFFF AND DUP4 PUSH20 0xFFFFFFFFFFFFFFFFFFFFFFFFFFFFFFFFFFFFFFFF AND SUB PUSH2 0x17E0 JUMPI PUSH1 0x40 MLOAD PUSH32 0x8C379A000000000000000000000000000000000000000000000000000000000 DUP2 MSTORE PUSH1 0x4 ADD PUSH2 0x17D7 SWAP1 PUSH2 0x2FEB JUMP JUMPDEST PUSH1 0x40 MLOAD DUP1 SWAP2 SUB SWAP1 REVERT JUMPDEST PUSH0 PUSH20 0xFFFFFFFFFFFFFFFFFFFFFFFFFFFFFFFFFFFFFFFF AND DUP3 PUSH20 0xFFFFFFFFFFFFFFFFFFFFFFFFFFFFFFFFFFFFFFFF AND SUB PUSH2 0x184E JUMPI PUSH1 0x40 MLOAD PUSH32 0x8C379A000000000000000000000000000000000000000000000000000000000 DUP2 MSTORE PUSH1 0x4 ADD PUSH2 0x1845 SWAP1 PUSH2 0x3079 JUMP JUMPDEST PUSH1 0x40 MLOAD DUP1 SWAP2 SUB SWAP1 REVERT JUMPDEST PUSH0 DUP2 GT PUSH2 0x1890 JUMPI PUSH1 0x40 MLOAD PUSH32 0x8C379A000000000000000000000000000000000000000000000000000000000 DUP2 MSTORE PUSH1 0x4 ADD PUSH2 0x1887 SWAP1 PUSH2 0x3107 JUMP JUMPDEST PUSH1 0x40 MLOAD DUP1 SWAP2 SUB SWAP1 REVERT JUMPDEST PUSH0 PUSH1 0x3 PUSH0 DUP6 PUSH20 0xFFFFFFFFFFFFFFFFFFFFFFFFFFFFFFFFFFFFFFFF AND PUSH20 0xFFFFFFFFFFFFFFFFFFFFFFFFFFFFFFFFFFFFFFFF AND DUP2 MSTORE PUSH1 0x20 ADD SWAP1 DUP2 MSTORE PUSH1 0x20 ADD PUSH0 KECCAK256 PUSH0 SWAP1 SLOAD SWAP1 PUSH2 0x100 EXP SWAP1 DIV PUSH1 0xFF AND ISZERO DUP1 ISZERO PUSH2 0x192F JUMPI POP PUSH1 0x3 PUSH0 DUP5 PUSH20 0xFFFFFFFFFFFFFFFFFFFFFFFFFFFFFFFFFFFFFFFF AND PUSH20 0xFFFFFFFFFFFFFFFFFFFFFFFFFFFFFFFFFFFFFFFF AND DUP2 MSTORE PUSH1 0x20 ADD SWAP1 DUP2 MSTORE PUSH1 0x20 ADD PUSH0 KECCAK256 PUSH0 SWAP1 SLOAD SWAP1 PUSH2 0x100 EXP SWAP1 DIV PUSH1 0xFF AND ISZERO JUMPDEST ISZERO PUSH2 0x19A0 JUMPI PUSH1 0xA PUSH1 0x14 SWAP1 SLOAD SWAP1 PUSH2 0x100 EXP SWAP1 DIV PUSH1 0xFF AND PUSH2 0x1983 JUMPI PUSH1 0x40 MLOAD PUSH32 0x8C379A000000000000000000000000000000000000000000000000000000000 DUP2 MSTORE PUSH1 0x4 ADD PUSH2 0x197A SWAP1 PUSH2 0x316F JUMP JUMPDEST PUSH1 0x40 MLOAD DUP1 SWAP2 SUB SWAP1 REVERT JUMPDEST PUSH1 0x64 PUSH1 0x7 SLOAD DUP4 PUSH2 0x1993 SWAP2 SWAP1 PUSH2 0x282D JUMP JUMPDEST PUSH2 0x199D SWAP2 SWAP1 PUSH2 0x31BA JUMP JUMPDEST SWAP1 POP JUMPDEST PUSH1 0x3 PUSH0 DUP6 PUSH20 0xFFFFFFFFFFFFFFFFFFFFFFFFFFFFFFFFFFFFFFFF AND PUSH20 0xFFFFFFFFFFFFFFFFFFFFFFFFFFFFFFFFFFFFFFFF AND DUP2 MSTORE PUSH1 0x20 ADD SWAP1 DUP2 MSTORE PUSH1 0x20 ADD PUSH0 KECCAK256 PUSH0 SWAP1 SLOAD SWAP1 PUSH2 0x100 EXP SWAP1 DIV PUSH1 0xFF AND DUP1 PUSH2 0x1A3B JUMPI POP PUSH1 0x3 PUSH0 DUP5 PUSH20 0xFFFFFFFFFFFFFFFFFFFFFFFFFFFFFFFFFFFFFFFF AND PUSH20 0xFFFFFFFFFFFFFFFFFFFFFFFFFFFFFFFFFFFFFFFF AND DUP2 MSTORE PUSH1 0x20 ADD SWAP1 DUP2 MSTORE PUSH1 0x20 ADD PUSH0 KECCAK256 PUSH0 SWAP1 SLOAD SWAP1 PUSH2 0x100 EXP SWAP1 DIV PUSH1 0xFF AND JUMPDEST ISZERO PUSH2 0x1A44 JUMPI PUSH0 SWAP1 POP JUMPDEST PUSH1 0xA PUSH0 SWAP1 SLOAD SWAP1 PUSH2 0x100 EXP SWAP1 DIV PUSH20 0xFFFFFFFFFFFFFFFFFFFFFFFFFFFFFFFFFFFFFFFF AND PUSH20 0xFFFFFFFFFFFFFFFFFFFFFFFFFFFFFFFFFFFFFFFF AND DUP4 PUSH20 0xFFFFFFFFFFFFFFFFFFFFFFFFFFFFFFFFFFFFFFFF AND EQ DUP1 ISZERO PUSH2 0x1ACC JUMPI POP ADDRESS PUSH20 0xFFFFFFFFFFFFFFFFFFFFFFFFFFFFFFFFFFFFFFFF AND DUP5 PUSH20 0xFFFFFFFFFFFFFFFFFFFFFFFFFFFFFFFFFFFFFFFF AND EQ ISZERO JUMPDEST DUP1 ISZERO PUSH2 0x1B1F JUMPI POP PUSH1 0x3 PUSH0 DUP6 PUSH20 0xFFFFFFFFFFFFFFFFFFFFFFFFFFFFFFFFFFFFFFFF AND PUSH20 0xFFFFFFFFFFFFFFFFFFFFFFFFFFFFFFFFFFFFFFFF AND DUP2 MSTORE PUSH1 0x20 ADD SWAP1 DUP2 MSTORE PUSH1 0x20 ADD PUSH0 KECCAK256 PUSH0 SWAP1 SLOAD SWAP1 PUSH2 0x100 EXP SWAP1 DIV PUSH1 0xFF AND ISZERO JUMPDEST DUP1 ISZERO PUSH2 0x1B72 JUMPI POP PUSH1 0x3 PUSH0 DUP5 PUSH20 0xFFFFFFFFFFFFFFFFFFFFFFFFFFFFFFFFFFFFFFFF AND PUSH20 0xFFFFFFFFFFFFFFFFFFFFFFFFFFFFFFFFFFFFFFFF AND DUP2 MSTORE PUSH1 0x20 ADD SWAP1 DUP2 MSTORE PUSH1 0x20 ADD PUSH0 KECCAK256 PUSH0 SWAP1 SLOAD SWAP1 PUSH2 0x100 EXP SWAP1 DIV PUSH1 0xFF AND ISZERO JUMPDEST ISZERO PUSH2 0x1B94 JUMPI PUSH1 0x64 PUSH1 0x8 SLOAD DUP4 PUSH2 0x1B87 SWAP2 SWAP1 PUSH2 0x282D JUMP JUMPDEST PUSH2 0x1B91 SWAP2 SWAP1 PUSH2 0x31BA JUMP JUMPDEST SWAP1 POP JUMPDEST PUSH0 PUSH2 0x1B9E ADDRESS PUSH2 0xB8B JUMP JUMPDEST SWAP1 POP PUSH1 0xA PUSH1 0x16 SWAP1 SLOAD SWAP1 PUSH2 0x100 EXP SWAP1 DIV PUSH1 0xFF AND ISZERO DUP1 ISZERO PUSH2 0x1C0A JUMPI POP PUSH1 0xA PUSH0 SWAP1 SLOAD SWAP1 PUSH2 0x100 EXP SWAP1 DIV PUSH20 0xFFFFFFFFFFFFFFFFFFFFFFFFFFFFFFFFFFFFFFFF AND PUSH20 0xFFFFFFFFFFFFFFFFFFFFFFFFFFFFFFFFFFFFFFFF AND DUP6 PUSH20 0xFFFFFFFFFFFFFFFFFFFFFFFFFFFFFFFFFFFFFFFF AND EQ ISZERO JUMPDEST DUP1 ISZERO PUSH2 0x1C22 JUMPI POP PUSH1 0xA PUSH1 0x15 SWAP1 SLOAD SWAP1 PUSH2 0x100 EXP SWAP1 DIV PUSH1 0xFF AND JUMPDEST DUP1 ISZERO PUSH2 0x1C2F JUMPI POP PUSH1 0x5 SLOAD DUP2 GT JUMPDEST ISZERO PUSH2 0x1C69 JUMPI PUSH2 0x1C51 PUSH2 0x1C4C DUP5 PUSH2 0x1C47 DUP5 PUSH1 0x6 SLOAD PUSH2 0x1FB8 JUMP JUMPDEST PUSH2 0x1FB8 JUMP JUMPDEST PUSH2 0x1FD0 JUMP JUMPDEST PUSH0 SELFBALANCE SWAP1 POP PUSH0 DUP2 GT ISZERO PUSH2 0x1C67 JUMPI PUSH2 0x1C66 SELFBALANCE PUSH2 0x227D JUMP JUMPDEST JUMPDEST POP JUMPDEST DUP3 PUSH1 0x1 PUSH0 DUP8 PUSH20 0xFFFFFFFFFFFFFFFFFFFFFFFFFFFFFFFFFFFFFFFF AND PUSH20 0xFFFFFFFFFFFFFFFFFFFFFFFFFFFFFFFFFFFFFFFF AND DUP2 MSTORE PUSH1 0x20 ADD SWAP1 DUP2 MSTORE PUSH1 0x20 ADD PUSH0 KECCAK256 SLOAD PUSH2 0x1CB2 SWAP2 SWAP1 PUSH2 0x28FC JUMP JUMPDEST PUSH1 0x1 PUSH0 DUP8 PUSH20 0xFFFFFFFFFFFFFFFFFFFFFFFFFFFFFFFFFFFFFFFF AND PUSH20 0xFFFFFFFFFFFFFFFFFFFFFFFFFFFFFFFFFFFFFFFF AND DUP2 MSTORE PUSH1 0x20 ADD SWAP1 DUP2 MSTORE PUSH1 0x20 ADD PUSH0 KECCAK256 DUP2 SWAP1 SSTORE POP DUP2 DUP4 PUSH2 0x1CFF SWAP2 SWAP1 PUSH2 0x28FC JUMP JUMPDEST PUSH1 0x1 PUSH0 DUP7 PUSH20 0xFFFFFFFFFFFFFFFFFFFFFFFFFFFFFFFFFFFFFFFF AND PUSH20 0xFFFFFFFFFFFFFFFFFFFFFFFFFFFFFFFFFFFFFFFF AND DUP2 MSTORE PUSH1 0x20 ADD SWAP1 DUP2 MSTORE PUSH1 0x20 ADD PUSH0 KECCAK256 SLOAD PUSH2 0x1D47 SWAP2 SWAP1 PUSH2 0x31EA JUMP JUMPDEST PUSH1 0x1 PUSH0 DUP7 PUSH20 0xFFFFFFFFFFFFFFFFFFFFFFFFFFFFFFFFFFFFFFFF AND PUSH20 0xFFFFFFFFFFFFFFFFFFFFFFFFFFFFFFFFFFFFFFFF AND DUP2 MSTORE PUSH1 0x20 ADD SWAP1 DUP2 MSTORE PUSH1 0x20 ADD PUSH0 KECCAK256 DUP2 SWAP1 SSTORE POP DUP4 PUSH20 0xFFFFFFFFFFFFFFFFFFFFFFFFFFFFFFFFFFFFFFFF AND DUP6 PUSH20 0xFFFFFFFFFFFFFFFFFFFFFFFFFFFFFFFFFFFFFFFF AND PUSH32 0xDDF252AD1BE2C89B69C2B068FC378DAA952BA7F163C4A11628F55A4DF523B3EF DUP5 DUP7 PUSH2 0x1DE3 SWAP2 SWAP1 PUSH2 0x28FC JUMP JUMPDEST PUSH1 0x40 MLOAD PUSH2 0x1DF0 SWAP2 SWAP1 PUSH2 0x24E2 JUMP JUMPDEST PUSH1 0x40 MLOAD DUP1 SWAP2 SUB SWAP1 LOG3 PUSH0 DUP3 GT ISZERO PUSH2 0x1EF0 JUMPI DUP2 PUSH1 0x1 PUSH0 ADDRESS PUSH20 0xFFFFFFFFFFFFFFFFFFFFFFFFFFFFFFFFFFFFFFFF AND PUSH20 0xFFFFFFFFFFFFFFFFFFFFFFFFFFFFFFFFFFFFFFFF AND DUP2 MSTORE PUSH1 0x20 ADD SWAP1 DUP2 MSTORE PUSH1 0x20 ADD PUSH0 KECCAK256 SLOAD PUSH2 0x1E49 SWAP2 SWAP1 PUSH2 0x31EA JUMP JUMPDEST PUSH1 0x1 PUSH0 ADDRESS PUSH20 0xFFFFFFFFFFFFFFFFFFFFFFFFFFFFFFFFFFFFFFFF AND PUSH20 0xFFFFFFFFFFFFFFFFFFFFFFFFFFFFFFFFFFFFFFFF AND DUP2 MSTORE PUSH1 0x20 ADD SWAP1 DUP2 MSTORE PUSH1 0x20 ADD PUSH0 KECCAK256 DUP2 SWAP1 SSTORE POP ADDRESS PUSH20 0xFFFFFFFFFFFFFFFFFFFFFFFFFFFFFFFFFFFFFFFF AND DUP6 PUSH20 0xFFFFFFFFFFFFFFFFFFFFFFFFFFFFFFFFFFFFFFFF AND PUSH32 0xDDF252AD1BE2C89B69C2B068FC378DAA952BA7F163C4A11628F55A4DF523B3EF DUP5 PUSH1 0x40 MLOAD PUSH2 0x1EE7 SWAP2 SWAP1 PUSH2 0x24E2 JUMP JUMPDEST PUSH1 0x40 MLOAD DUP1 SWAP2 SUB SWAP1 LOG3 JUMPDEST POP POP POP POP POP JUMP JUMPDEST PUSH0 DUP1 PUSH0 SWAP1 SLOAD SWAP1 PUSH2 0x100 EXP SWAP1 DIV PUSH20 0xFFFFFFFFFFFFFFFFFFFFFFFFFFFFFFFFFFFFFFFF AND SWAP1 POP DUP2 PUSH0 DUP1 PUSH2 0x100 EXP DUP2 SLOAD DUP2 PUSH20 0xFFFFFFFFFFFFFFFFFFFFFFFFFFFFFFFFFFFFFFFF MUL NOT AND SWAP1 DUP4 PUSH20 0xFFFFFFFFFFFFFFFFFFFFFFFFFFFFFFFFFFFFFFFF AND MUL OR SWAP1 SSTORE POP DUP2 PUSH20 0xFFFFFFFFFFFFFFFFFFFFFFFFFFFFFFFFFFFFFFFF AND DUP2 PUSH20 0xFFFFFFFFFFFFFFFFFFFFFFFFFFFFFFFFFFFFFFFF AND PUSH32 0x8BE0079C531659141344CD1FD0A4F28419497F9722A3DAAFE3B4186F6B6457E0 PUSH1 0x40 MLOAD PUSH1 0x40 MLOAD DUP1 SWAP2 SUB SWAP1 LOG3 POP POP JUMP JUMPDEST PUSH0 DUP2 DUP4 GT PUSH2 0x1FC6 JUMPI DUP3 PUSH2 0x1FC8 JUMP JUMPDEST DUP2 JUMPDEST SWAP1 POP SWAP3 SWAP2 POP POP JUMP JUMPDEST PUSH1 0x1 PUSH1 0xA PUSH1 0x16 PUSH2 0x100 EXP DUP2 SLOAD DUP2 PUSH1 0xFF MUL NOT AND SWAP1 DUP4 ISZERO ISZERO MUL OR SWAP1 SSTORE POP PUSH0 DUP2 GT PUSH2 0x202D JUMPI PUSH1 0x40 MLOAD PUSH32 0x8C379A000000000000000000000000000000000000000000000000000000000 DUP2 MSTORE PUSH1 0x4 ADD PUSH2 0x2024 SWAP1 PUSH2 0x3267 JUMP JUMPDEST PUSH1 0x40 MLOAD DUP1 SWAP2 SUB SWAP1 REVERT JUMPDEST PUSH0 PUSH1 0x2 PUSH8 0xFFFFFFFFFFFFFFFF DUP2 GT ISZERO PUSH2 0x2049 JUMPI PUSH2 0x2048 PUSH2 0x3285 JUMP JUMPDEST JUMPDEST PUSH1 0x40 MLOAD SWAP1 DUP1 DUP3 MSTORE DUP1 PUSH1 0x20 MUL PUSH1 0x20 ADD DUP3 ADD PUSH1 0x40 MSTORE DUP1 ISZERO PUSH2 0x2077 JUMPI DUP2 PUSH1 0x20 ADD PUSH1 0x20 DUP3 MUL DUP1 CALLDATASIZE DUP4 CALLDATACOPY DUP1 DUP3 ADD SWAP2 POP POP SWAP1 POP JUMPDEST POP SWAP1 POP ADDRESS DUP2 PUSH0 DUP2 MLOAD DUP2 LT PUSH2 0x208E JUMPI PUSH2 0x208D PUSH2 0x32B2 JUMP JUMPDEST JUMPDEST PUSH1 0x20 MUL PUSH1 0x20 ADD ADD SWAP1 PUSH20 0xFFFFFFFFFFFFFFFFFFFFFFFFFFFFFFFFFFFFFFFF AND SWAP1 DUP2 PUSH20 0xFFFFFFFFFFFFFFFFFFFFFFFFFFFFFFFFFFFFFFFF AND DUP2 MSTORE POP POP PUSH1 0x9 PUSH0 SWAP1 SLOAD SWAP1 PUSH2 0x100 EXP SWAP1 DIV PUSH20 0xFFFFFFFFFFFFFFFFFFFFFFFFFFFFFFFFFFFFFFFF AND PUSH20 0xFFFFFFFFFFFFFFFFFFFFFFFFFFFFFFFFFFFFFFFF AND PUSH4 0xAD5C4648 PUSH1 0x40 MLOAD DUP2 PUSH4 0xFFFFFFFF AND PUSH1 0xE0 SHL DUP2 MSTORE PUSH1 0x4 ADD PUSH1 0x20 PUSH1 0x40 MLOAD DUP1 DUP4 SUB DUP2 DUP7 GAS STATICCALL ISZERO DUP1 ISZERO PUSH2 0x2132 JUMPI RETURNDATASIZE PUSH0 DUP1 RETURNDATACOPY RETURNDATASIZE PUSH0 REVERT JUMPDEST POP POP POP POP PUSH1 0x40 MLOAD RETURNDATASIZE PUSH1 0x1F NOT PUSH1 0x1F DUP3 ADD AND DUP3 ADD DUP1 PUSH1 0x40 MSTORE POP DUP2 ADD SWAP1 PUSH2 0x2156 SWAP2 SWAP1 PUSH2 0x32F3 JUMP JUMPDEST DUP2 PUSH1 0x1 DUP2 MLOAD DUP2 LT PUSH2 0x216A JUMPI PUSH2 0x2169 PUSH2 0x32B2 JUMP JUMPDEST JUMPDEST PUSH1 0x20 MUL PUSH1 0x20 ADD ADD SWAP1 PUSH20 0xFFFFFFFFFFFFFFFFFFFFFFFFFFFFFFFFFFFFFFFF AND SWAP1 DUP2 PUSH20 0xFFFFFFFFFFFFFFFFFFFFFFFFFFFFFFFFFFFFFFFF AND DUP2 MSTORE POP POP PUSH2 0x21D0 ADDRESS PUSH1 0x9 PUSH0 SWAP1 SLOAD SWAP1 PUSH2 0x100 EXP SWAP1 DIV PUSH20 0xFFFFFFFFFFFFFFFFFFFFFFFFFFFFFFFFFFFFFFFF AND DUP5 PUSH2 0x15AF JUMP JUMPDEST PUSH1 0x9 PUSH0 SWAP1 SLOAD SWAP1 PUSH2 0x100 EXP SWAP1 DIV PUSH20 0xFFFFFFFFFFFFFFFFFFFFFFFFFFFFFFFFFFFFFFFF AND PUSH20 0xFFFFFFFFFFFFFFFFFFFFFFFFFFFFFFFFFFFFFFFF AND PUSH4 0x791AC947 DUP4 PUSH0 DUP5 ADDRESS TIMESTAMP PUSH1 0x40 MLOAD DUP7 PUSH4 0xFFFFFFFF AND PUSH1 0xE0 SHL DUP2 MSTORE PUSH1 0x4 ADD PUSH2 0x2232 SWAP6 SWAP5 SWAP4 SWAP3 SWAP2 SWAP1 PUSH2 0x340E JUMP JUMPDEST PUSH0 PUSH1 0x40 MLOAD DUP1 DUP4 SUB DUP2 PUSH0 DUP8 DUP1 EXTCODESIZE ISZERO DUP1 ISZERO PUSH2 0x2249 JUMPI PUSH0 DUP1 REVERT JUMPDEST POP GAS CALL ISZERO DUP1 ISZERO PUSH2 0x225B JUMPI RETURNDATASIZE PUSH0 DUP1 RETURNDATACOPY RETURNDATASIZE PUSH0 REVERT JUMPDEST POP POP POP POP POP PUSH0 PUSH1 0xA PUSH1 0x16 PUSH2 0x100 EXP DUP2 SLOAD DUP2 PUSH1 0xFF MUL NOT AND SWAP1 DUP4 ISZERO ISZERO MUL OR SWAP1 SSTORE POP POP JUMP JUMPDEST PUSH0 DUP2 GT PUSH2 0x22BF JUMPI PUSH1 0x40 MLOAD PUSH32 0x8C379A000000000000000000000000000000000000000000000000000000000 DUP2 MSTORE PUSH1 0x4 ADD PUSH2 0x22B6 SWAP1 PUSH2 0x3267 JUMP JUMPDEST PUSH1 0x40 MLOAD DUP1 SWAP2 SUB SWAP1 REVERT JUMPDEST PUSH1 0x4 PUSH0 SWAP1 SLOAD SWAP1 PUSH2 0x100 EXP SWAP1 DIV PUSH20 0xFFFFFFFFFFFFFFFFFFFFFFFFFFFFFFFFFFFFFFFF AND PUSH20 0xFFFFFFFFFFFFFFFFFFFFFFFFFFFFFFFFFFFFFFFF AND PUSH2 0x8FC DUP3 SWAP1 DUP2 ISZERO MUL SWAP1 PUSH1 0x40 MLOAD PUSH0 PUSH1 0x40 MLOAD DUP1 DUP4 SUB DUP2 DUP6 DUP9 DUP9 CALL SWAP4 POP POP POP POP ISZERO DUP1 ISZERO PUSH2 0x2323 JUMPI RETURNDATASIZE PUSH0 DUP1 RETURNDATACOPY RETURNDATASIZE PUSH0 REVERT JUMPDEST POP POP JUMP JUMPDEST PUSH0 DUP2 MLOAD SWAP1 POP SWAP2 SWAP1 POP JUMP JUMPDEST PUSH0 DUP3 DUP3 MSTORE PUSH1 0x20 DUP3 ADD SWAP1 POP SWAP3 SWAP2 POP POP JUMP JUMPDEST PUSH0 JUMPDEST DUP4 DUP2 LT ISZERO PUSH2 0x235E JUMPI DUP1 DUP3 ADD MLOAD DUP2 DUP5 ADD MSTORE PUSH1 0x20 DUP2 ADD SWAP1 POP PUSH2 0x2343 JUMP JUMPDEST PUSH0 DUP5 DUP5 ADD MSTORE POP POP POP POP JUMP JUMPDEST PUSH0 PUSH1 0x1F NOT PUSH1 0x1F DUP4 ADD AND SWAP1 POP SWAP2 SWAP1 POP JUMP JUMPDEST PUSH0 PUSH2 0x2383 DUP3 PUSH2 0x2327 JUMP JUMPDEST PUSH2 0x238D DUP2 DUP6 PUSH2 0x2331 JUMP JUMPDEST SWAP4 POP PUSH2 0x239D DUP2 DUP6 PUSH1 0x20 DUP7 ADD PUSH2 0x2341 JUMP JUMPDEST PUSH2 0x23A6 DUP2 PUSH2 0x2369 JUMP JUMPDEST DUP5 ADD SWAP2 POP POP SWAP3 SWAP2 POP POP JUMP JUMPDEST PUSH0 PUSH1 0x20 DUP3 ADD SWAP1 POP DUP2 DUP2 SUB PUSH0 DUP4 ADD MSTORE PUSH2 0x23C9 DUP2 DUP5 PUSH2 0x2379 JUMP JUMPDEST SWAP1 POP SWAP3 SWAP2 POP POP JUMP JUMPDEST PUSH0 DUP1 REVERT JUMPDEST PUSH0 PUSH20 0xFFFFFFFFFFFFFFFFFFFFFFFFFFFFFFFFFFFFFFFF DUP3 AND SWAP1 POP SWAP2 SWAP1 POP JUMP JUMPDEST PUSH0 PUSH2 0x23FE DUP3 PUSH2 0x23D5 JUMP JUMPDEST SWAP1 POP SWAP2 SWAP1 POP JUMP JUMPDEST PUSH2 0x240E DUP2 PUSH2 0x23F4 JUMP JUMPDEST DUP2 EQ PUSH2 0x2418 JUMPI PUSH0 DUP1 REVERT JUMPDEST POP JUMP JUMPDEST PUSH0 DUP2 CALLDATALOAD SWAP1 POP PUSH2 0x2429 DUP2 PUSH2 0x2405 JUMP JUMPDEST SWAP3 SWAP2 POP POP JUMP JUMPDEST PUSH0 DUP2 SWAP1 POP SWAP2 SWAP1 POP JUMP JUMPDEST PUSH2 0x2441 DUP2 PUSH2 0x242F JUMP JUMPDEST DUP2 EQ PUSH2 0x244B JUMPI PUSH0 DUP1 REVERT JUMPDEST POP JUMP JUMPDEST PUSH0 DUP2 CALLDATALOAD SWAP1 POP PUSH2 0x245C DUP2 PUSH2 0x2438 JUMP JUMPDEST SWAP3 SWAP2 POP POP JUMP JUMPDEST PUSH0 DUP1 PUSH1 0x40 DUP4 DUP6 SUB SLT ISZERO PUSH2 0x2478 JUMPI PUSH2 0x2477 PUSH2 0x23D1 JUMP JUMPDEST JUMPDEST PUSH0 PUSH2 0x2485 DUP6 DUP3 DUP7 ADD PUSH2 0x241B JUMP JUMPDEST SWAP3 POP POP PUSH1 0x20 PUSH2 0x2496 DUP6 DUP3 DUP7 ADD PUSH2 0x244E JUMP JUMPDEST SWAP2 POP POP SWAP3 POP SWAP3 SWAP1 POP JUMP JUMPDEST PUSH0 DUP2 ISZERO ISZERO SWAP1 POP SWAP2 SWAP1 POP JUMP JUMPDEST PUSH2 0x24B4 DUP2 PUSH2 0x24A0 JUMP JUMPDEST DUP3 MSTORE POP POP JUMP JUMPDEST PUSH0 PUSH1 0x20 DUP3 ADD SWAP1 POP PUSH2 0x24CD PUSH0 DUP4 ADD DUP5 PUSH2 0x24AB JUMP JUMPDEST SWAP3 SWAP2 POP POP JUMP JUMPDEST PUSH2 0x24DC DUP2 PUSH2 0x242F JUMP JUMPDEST DUP3 MSTORE POP POP JUMP JUMPDEST PUSH0 PUSH1 0x20 DUP3 ADD SWAP1 POP PUSH2 0x24F5 PUSH0 DUP4 ADD DUP5 PUSH2 0x24D3 JUMP JUMPDEST SWAP3 SWAP2 POP POP JUMP JUMPDEST PUSH0 DUP1 PUSH0 PUSH1 0x60 DUP5 DUP7 SUB SLT ISZERO PUSH2 0x2512 JUMPI PUSH2 0x2511 PUSH2 0x23D1 JUMP JUMPDEST JUMPDEST PUSH0 PUSH2 0x251F DUP7 DUP3 DUP8 ADD PUSH2 0x241B JUMP JUMPDEST SWAP4 POP POP PUSH1 0x20 PUSH2 0x2530 DUP7 DUP3 DUP8 ADD PUSH2 0x241B JUMP JUMPDEST SWAP3 POP POP PUSH1 0x40 PUSH2 0x2541 DUP7 DUP3 DUP8 ADD PUSH2 0x244E JUMP JUMPDEST SWAP2 POP POP SWAP3 POP SWAP3 POP SWAP3 JUMP JUMPDEST PUSH0 PUSH2 0x2555 DUP3 PUSH2 0x23D5 JUMP JUMPDEST SWAP1 POP SWAP2 SWAP1 POP JUMP JUMPDEST PUSH2 0x2565 DUP2 PUSH2 0x254B JUMP JUMPDEST DUP3 MSTORE POP POP JUMP JUMPDEST PUSH0 PUSH1 0x20 DUP3 ADD SWAP1 POP PUSH2 0x257E PUSH0 DUP4 ADD DUP5 PUSH2 0x255C JUMP JUMPDEST SWAP3 SWAP2 POP POP JUMP JUMPDEST PUSH0 PUSH1 0xFF DUP3 AND SWAP1 POP SWAP2 SWAP1 POP JUMP JUMPDEST PUSH2 0x2599 DUP2 PUSH2 0x2584 JUMP JUMPDEST DUP3 MSTORE POP POP JUMP JUMPDEST PUSH0 PUSH1 0x20 DUP3 ADD SWAP1 POP PUSH2 0x25B2 PUSH0 DUP4 ADD DUP5 PUSH2 0x2590 JUMP JUMPDEST SWAP3 SWAP2 POP POP JUMP JUMPDEST PUSH0 DUP1 PUSH1 0x40 DUP4 DUP6 SUB SLT ISZERO PUSH2 0x25CE JUMPI PUSH2 0x25CD PUSH2 0x23D1 JUMP JUMPDEST JUMPDEST PUSH0 PUSH2 0x25DB DUP6 DUP3 DUP7 ADD PUSH2 0x244E JUMP JUMPDEST SWAP3 POP POP PUSH1 0x20 PUSH2 0x25EC DUP6 DUP3 DUP7 ADD PUSH2 0x244E JUMP JUMPDEST SWAP2 POP POP SWAP3 POP SWAP3 SWAP1 POP JUMP JUMPDEST PUSH0 PUSH1 0x20 DUP3 DUP5 SUB SLT ISZERO PUSH2 0x260B JUMPI PUSH2 0x260A PUSH2 0x23D1 JUMP JUMPDEST JUMPDEST PUSH0 PUSH2 0x2618 DUP5 DUP3 DUP6 ADD PUSH2 0x241B JUMP JUMPDEST SWAP2 POP POP SWAP3 SWAP2 POP POP JUMP JUMPDEST PUSH2 0x262A DUP2 PUSH2 0x23F4 JUMP JUMPDEST DUP3 MSTORE POP POP JUMP JUMPDEST PUSH0 PUSH1 0x20 DUP3 ADD SWAP1 POP PUSH2 0x2643 PUSH0 DUP4 ADD DUP5 PUSH2 0x2621 JUMP JUMPDEST SWAP3 SWAP2 POP POP JUMP JUMPDEST PUSH0 DUP1 PUSH1 0x40 DUP4 DUP6 SUB SLT ISZERO PUSH2 0x265F JUMPI PUSH2 0x265E PUSH2 0x23D1 JUMP JUMPDEST JUMPDEST PUSH0 PUSH2 0x266C DUP6 DUP3 DUP7 ADD PUSH2 0x241B JUMP JUMPDEST SWAP3 POP POP PUSH1 0x20 PUSH2 0x267D DUP6 DUP3 DUP7 ADD PUSH2 0x241B JUMP JUMPDEST SWAP2 POP POP SWAP3 POP SWAP3 SWAP1 POP JUMP JUMPDEST PUSH32 0x4E487B7100000000000000000000000000000000000000000000000000000000 PUSH0 MSTORE PUSH1 0x11 PUSH1 0x4 MSTORE PUSH1 0x24 PUSH0 REVERT JUMPDEST PUSH0 DUP2 PUSH1 0x1 SHR SWAP1 POP SWAP2 SWAP1 POP JUMP JUMPDEST PUSH0 DUP1 DUP3 SWAP2 POP DUP4 SWAP1 POP JUMPDEST PUSH1 0x1 DUP6 GT ISZERO PUSH2 0x2709 JUMPI DUP1 DUP7 DIV DUP2 GT ISZERO PUSH2 0x26E5 JUMPI PUSH2 0x26E4 PUSH2 0x2687 JUMP JUMPDEST JUMPDEST PUSH1 0x1 DUP6 AND ISZERO PUSH2 0x26F4 JUMPI DUP1 DUP3 MUL SWAP2 POP JUMPDEST DUP1 DUP2 MUL SWAP1 POP PUSH2 0x2702 DUP6 PUSH2 0x26B4 JUMP JUMPDEST SWAP5 POP PUSH2 0x26C9 JUMP JUMPDEST SWAP5 POP SWAP5 SWAP3 POP POP POP JUMP JUMPDEST PUSH0 DUP3 PUSH2 0x2721 JUMPI PUSH1 0x1 SWAP1 POP PUSH2 0x27DC JUMP JUMPDEST DUP2 PUSH2 0x272E JUMPI PUSH0 SWAP1 POP PUSH2 0x27DC JUMP JUMPDEST DUP2 PUSH1 0x1 DUP2 EQ PUSH2 0x2744 JUMPI PUSH1 0x2 DUP2 EQ PUSH2 0x274E JUMPI PUSH2 0x277D JUMP JUMPDEST PUSH1 0x1 SWAP2 POP POP PUSH2 0x27DC JUMP JUMPDEST PUSH1 0xFF DUP5 GT ISZERO PUSH2 0x2760 JUMPI PUSH2 0x275F PUSH2 0x2687 JUMP JUMPDEST JUMPDEST DUP4 PUSH1 0x2 EXP SWAP2 POP DUP5 DUP3 GT ISZERO PUSH2 0x2777 JUMPI PUSH2 0x2776 PUSH2 0x2687 JUMP JUMPDEST JUMPDEST POP PUSH2 0x27DC JUMP JUMPDEST POP PUSH1 0x20 DUP4 LT PUSH2 0x133 DUP4 LT AND PUSH1 0x4E DUP5 LT PUSH1 0xB DUP5 LT AND OR ISZERO PUSH2 0x27B2 JUMPI DUP3 DUP3 EXP SWAP1 POP DUP4 DUP2 GT ISZERO PUSH2 0x27AD JUMPI PUSH2 0x27AC PUSH2 0x2687 JUMP JUMPDEST JUMPDEST PUSH2 0x27DC JUMP JUMPDEST PUSH2 0x27BF DUP5 DUP5 DUP5 PUSH1 0x1 PUSH2 0x26C0 JUMP JUMPDEST SWAP3 POP SWAP1 POP DUP2 DUP5 DIV DUP2 GT ISZERO PUSH2 0x27D6 JUMPI PUSH2 0x27D5 PUSH2 0x2687 JUMP JUMPDEST JUMPDEST DUP2 DUP2 MUL SWAP1 POP JUMPDEST SWAP4 SWAP3 POP POP POP JUMP JUMPDEST PUSH0 PUSH2 0x27ED DUP3 PUSH2 0x242F JUMP JUMPDEST SWAP2 POP PUSH2 0x27F8 DUP4 PUSH2 0x2584 JUMP JUMPDEST SWAP3 POP PUSH2 0x2825 PUSH32 0xFFFFFFFFFFFFFFFFFFFFFFFFFFFFFFFFFFFFFFFFFFFFFFFFFFFFFFFFFFFFFFFF DUP5 DUP5 PUSH2 0x2712 JUMP JUMPDEST SWAP1 POP SWAP3 SWAP2 POP POP JUMP JUMPDEST PUSH0 PUSH2 0x2837 DUP3 PUSH2 0x242F JUMP JUMPDEST SWAP2 POP PUSH2 0x2842 DUP4 PUSH2 0x242F JUMP JUMPDEST SWAP3 POP DUP3 DUP3 MUL PUSH2 0x2850 DUP2 PUSH2 0x242F JUMP JUMPDEST SWAP2 POP DUP3 DUP3 DIV DUP5 EQ DUP4 ISZERO OR PUSH2 0x2867 JUMPI PUSH2 0x2866 PUSH2 0x2687 JUMP JUMPDEST JUMPDEST POP SWAP3 SWAP2 POP POP JUMP JUMPDEST PUSH32 0x45524332303A207472616E7366657220616D6F756E7420657863656564732061 PUSH0 DUP3 ADD MSTORE PUSH32 0x6C6C6F77616E6365000000000000000000000000000000000000000000000000 PUSH1 0x20 DUP3 ADD MSTORE POP JUMP JUMPDEST PUSH0 PUSH2 0x28C8 PUSH1 0x28 DUP4 PUSH2 0x2331 JUMP JUMPDEST SWAP2 POP PUSH2 0x28D3 DUP3 PUSH2 0x286E JUMP JUMPDEST PUSH1 0x40 DUP3 ADD SWAP1 POP SWAP2 SWAP1 POP JUMP JUMPDEST PUSH0 PUSH1 0x20 DUP3 ADD SWAP1 POP DUP2 DUP2 SUB PUSH0 DUP4 ADD MSTORE PUSH2 0x28F5 DUP2 PUSH2 0x28BC JUMP JUMPDEST SWAP1 POP SWAP2 SWAP1 POP JUMP JUMPDEST PUSH0 PUSH2 0x2906 DUP3 PUSH2 0x242F JUMP JUMPDEST SWAP2 POP PUSH2 0x2911 DUP4 PUSH2 0x242F JUMP JUMPDEST SWAP3 POP DUP3 DUP3 SUB SWAP1 POP DUP2 DUP2 GT ISZERO PUSH2 0x2929 JUMPI PUSH2 0x2928 PUSH2 0x2687 JUMP JUMPDEST JUMPDEST SWAP3 SWAP2 POP POP JUMP JUMPDEST PUSH32 0x4F776E61626C653A2063616C6C6572206973206E6F7420746865206F776E6572 PUSH0 DUP3 ADD MSTORE POP JUMP JUMPDEST PUSH0 PUSH2 0x2963 PUSH1 0x20 DUP4 PUSH2 0x2331 JUMP JUMPDEST SWAP2 POP PUSH2 0x296E DUP3 PUSH2 0x292F JUMP JUMPDEST PUSH1 0x20 DUP3 ADD SWAP1 POP SWAP2 SWAP1 POP JUMP JUMPDEST PUSH0 PUSH1 0x20 DUP3 ADD SWAP1 POP DUP2 DUP2 SUB PUSH0 DUP4 ADD MSTORE PUSH2 0x2990 DUP2 PUSH2 0x2957 JUMP JUMPDEST SWAP1 POP SWAP2 SWAP1 POP JUMP JUMPDEST PUSH32 0x4F776E65722063616E277420636C61696D20636F6E747261637427732062616C PUSH0 DUP3 ADD MSTORE PUSH32 0x616E6365206F6620697473206F776E20746F6B656E7300000000000000000000 PUSH1 0x20 DUP3 ADD MSTORE POP JUMP JUMPDEST PUSH0 PUSH2 0x29F1 PUSH1 0x36 DUP4 PUSH2 0x2331 JUMP JUMPDEST SWAP2 POP PUSH2 0x29FC DUP3 PUSH2 0x2997 JUMP JUMPDEST PUSH1 0x40 DUP3 ADD SWAP1 POP SWAP2 SWAP1 POP JUMP JUMPDEST PUSH0 PUSH1 0x20 DUP3 ADD SWAP1 POP DUP2 DUP2 SUB PUSH0 DUP4 ADD MSTORE PUSH2 0x2A1E DUP2 PUSH2 0x29E5 JUMP JUMPDEST SWAP1 POP SWAP2 SWAP1 POP JUMP JUMPDEST PUSH32 0x416D6F756E742073686F756C642062652067726561746572207468616E207A65 PUSH0 DUP3 ADD MSTORE PUSH32 0x726F000000000000000000000000000000000000000000000000000000000000 PUSH1 0x20 DUP3 ADD MSTORE POP JUMP JUMPDEST PUSH0 PUSH2 0x2A7F PUSH1 0x22 DUP4 PUSH2 0x2331 JUMP JUMPDEST SWAP2 POP PUSH2 0x2A8A DUP3 PUSH2 0x2A25 JUMP JUMPDEST PUSH1 0x40 DUP3 ADD SWAP1 POP SWAP2 SWAP1 POP JUMP JUMPDEST PUSH0 PUSH1 0x20 DUP3 ADD SWAP1 POP DUP2 DUP2 SUB PUSH0 DUP4 ADD MSTORE PUSH2 0x2AAC DUP2 PUSH2 0x2A73 JUMP JUMPDEST SWAP1 POP SWAP2 SWAP1 POP JUMP JUMPDEST PUSH0 DUP2 MLOAD SWAP1 POP PUSH2 0x2AC1 DUP2 PUSH2 0x2438 JUMP JUMPDEST SWAP3 SWAP2 POP POP JUMP JUMPDEST PUSH0 PUSH1 0x20 DUP3 DUP5 SUB SLT ISZERO PUSH2 0x2ADC JUMPI PUSH2 0x2ADB PUSH2 0x23D1 JUMP JUMPDEST JUMPDEST PUSH0 PUSH2 0x2AE9 DUP5 DUP3 DUP6 ADD PUSH2 0x2AB3 JUMP JUMPDEST SWAP2 POP POP SWAP3 SWAP2 POP POP JUMP JUMPDEST PUSH32 0x496E73756666696369656E7420416D6F756E7400000000000000000000000000 PUSH0 DUP3 ADD MSTORE POP JUMP JUMPDEST PUSH0 PUSH2 0x2B26 PUSH1 0x13 DUP4 PUSH2 0x2331 JUMP JUMPDEST SWAP2 POP PUSH2 0x2B31 DUP3 PUSH2 0x2AF2 JUMP JUMPDEST PUSH1 0x20 DUP3 ADD SWAP1 POP SWAP2 SWAP1 POP JUMP JUMPDEST PUSH0 PUSH1 0x20 DUP3 ADD SWAP1 POP DUP2 DUP2 SUB PUSH0 DUP4 ADD MSTORE PUSH2 0x2B53 DUP2 PUSH2 0x2B1A JUMP JUMPDEST SWAP1 POP SWAP2 SWAP1 POP JUMP JUMPDEST PUSH0 DUP2 SWAP1 POP SWAP2 SWAP1 POP JUMP JUMPDEST PUSH0 PUSH2 0x2B7D PUSH2 0x2B78 PUSH2 0x2B73 DUP5 PUSH2 0x23D5 JUMP JUMPDEST PUSH2 0x2B5A JUMP JUMPDEST PUSH2 0x23D5 JUMP JUMPDEST SWAP1 POP SWAP2 SWAP1 POP JUMP JUMPDEST PUSH0 PUSH2 0x2B8E DUP3 PUSH2 0x2B63 JUMP JUMPDEST SWAP1 POP SWAP2 SWAP1 POP JUMP JUMPDEST PUSH0 PUSH2 0x2B9F DUP3 PUSH2 0x2B84 JUMP JUMPDEST SWAP1 POP SWAP2 SWAP1 POP JUMP JUMPDEST PUSH2 0x2BAF DUP2 PUSH2 0x2B95 JUMP JUMPDEST DUP3 MSTORE POP POP JUMP JUMPDEST PUSH0 PUSH1 0x40 DUP3 ADD SWAP1 POP PUSH2 0x2BC8 PUSH0 DUP4 ADD DUP6 PUSH2 0x2BA6 JUMP JUMPDEST PUSH2 0x2BD5 PUSH1 0x20 DUP4 ADD DUP5 PUSH2 0x24D3 JUMP JUMPDEST SWAP4 SWAP3 POP POP POP JUMP JUMPDEST PUSH2 0x2BE5 DUP2 PUSH2 0x24A0 JUMP JUMPDEST DUP2 EQ PUSH2 0x2BEF JUMPI PUSH0 DUP1 REVERT JUMPDEST POP JUMP JUMPDEST PUSH0 DUP2 MLOAD SWAP1 POP PUSH2 0x2C00 DUP2 PUSH2 0x2BDC JUMP JUMPDEST SWAP3 SWAP2 POP POP JUMP JUMPDEST PUSH0 PUSH1 0x20 DUP3 DUP5 SUB SLT ISZERO PUSH2 0x2C1B JUMPI PUSH2 0x2C1A PUSH2 0x23D1 JUMP JUMPDEST JUMPDEST PUSH0 PUSH2 0x2C28 DUP5 DUP3 DUP6 ADD PUSH2 0x2BF2 JUMP JUMPDEST SWAP2 POP POP SWAP3 SWAP2 POP POP JUMP JUMPDEST PUSH32 0x45524332303A2077726F6E67207461782076616C756521000000000000000000 PUSH0 DUP3 ADD MSTORE POP JUMP JUMPDEST PUSH0 PUSH2 0x2C65 PUSH1 0x17 DUP4 PUSH2 0x2331 JUMP JUMPDEST SWAP2 POP PUSH2 0x2C70 DUP3 PUSH2 0x2C31 JUMP JUMPDEST PUSH1 0x20 DUP3 ADD SWAP1 POP SWAP2 SWAP1 POP JUMP JUMPDEST PUSH0 PUSH1 0x20 DUP3 ADD SWAP1 POP DUP2 DUP2 SUB PUSH0 DUP4 ADD MSTORE PUSH2 0x2C92 DUP2 PUSH2 0x2C59 JUMP JUMPDEST SWAP1 POP SWAP2 SWAP1 POP JUMP JUMPDEST PUSH32 0x4163636F756E7420697320616C7265616479206578636C756465640000000000 PUSH0 DUP3 ADD MSTORE POP JUMP JUMPDEST PUSH0 PUSH2 0x2CCD PUSH1 0x1B DUP4 PUSH2 0x2331 JUMP JUMPDEST SWAP2 POP PUSH2 0x2CD8 DUP3 PUSH2 0x2C99 JUMP JUMPDEST PUSH1 0x20 DUP3 ADD SWAP1 POP SWAP2 SWAP1 POP JUMP JUMPDEST PUSH0 PUSH1 0x20 DUP3 ADD SWAP1 POP DUP2 DUP2 SUB PUSH0 DUP4 ADD MSTORE PUSH2 0x2CFA DUP2 PUSH2 0x2CC1 JUMP JUMPDEST SWAP1 POP SWAP2 SWAP1 POP JUMP JUMPDEST PUSH32 0x74726164696E6720697320616C7265616479206F70656E000000000000000000 PUSH0 DUP3 ADD MSTORE POP JUMP JUMPDEST PUSH0 PUSH2 0x2D35 PUSH1 0x17 DUP4 PUSH2 0x2331 JUMP JUMPDEST SWAP2 POP PUSH2 0x2D40 DUP3 PUSH2 0x2D01 JUMP JUMPDEST PUSH1 0x20 DUP3 ADD SWAP1 POP SWAP2 SWAP1 POP JUMP JUMPDEST PUSH0 PUSH1 0x20 DUP3 ADD SWAP1 POP DUP2 DUP2 SUB PUSH0 DUP4 ADD MSTORE PUSH2 0x2D62 DUP2 PUSH2 0x2D29 JUMP JUMPDEST SWAP1 POP SWAP2 SWAP1 POP JUMP JUMPDEST PUSH32 0x4163636F756E7420697320616C726561647920696E636C756465640000000000 PUSH0 DUP3 ADD MSTORE POP JUMP JUMPDEST PUSH0 PUSH2 0x2D9D PUSH1 0x1B DUP4 PUSH2 0x2331 JUMP JUMPDEST SWAP2 POP PUSH2 0x2DA8 DUP3 PUSH2 0x2D69 JUMP JUMPDEST PUSH1 0x20 DUP3 ADD SWAP1 POP SWAP2 SWAP1 POP JUMP JUMPDEST PUSH0 PUSH1 0x20 DUP3 ADD SWAP1 POP DUP2 DUP2 SUB PUSH0 DUP4 ADD MSTORE PUSH2 0x2DCA DUP2 PUSH2 0x2D91 JUMP JUMPDEST SWAP1 POP SWAP2 SWAP1 POP JUMP JUMPDEST PUSH32 0x4F776E61626C653A206E6577206F776E657220697320746865207A65726F2061 PUSH0 DUP3 ADD MSTORE PUSH32 0x6464726573730000000000000000000000000000000000000000000000000000 PUSH1 0x20 DUP3 ADD MSTORE POP JUMP JUMPDEST PUSH0 PUSH2 0x2E2B PUSH1 0x26 DUP4 PUSH2 0x2331 JUMP JUMPDEST SWAP2 POP PUSH2 0x2E36 DUP3 PUSH2 0x2DD1 JUMP JUMPDEST PUSH1 0x40 DUP3 ADD SWAP1 POP SWAP2 SWAP1 POP JUMP JUMPDEST PUSH0 PUSH1 0x20 DUP3 ADD SWAP1 POP DUP2 DUP2 SUB PUSH0 DUP4 ADD MSTORE PUSH2 0x2E58 DUP2 PUSH2 0x2E1F JUMP JUMPDEST SWAP1 POP SWAP2 SWAP1 POP JUMP JUMPDEST PUSH32 0x45524332303A20617070726F76652066726F6D20746865207A65726F20616464 PUSH0 DUP3 ADD MSTORE PUSH32 0x7265737300000000000000000000000000000000000000000000000000000000 PUSH1 0x20 DUP3 ADD MSTORE POP JUMP JUMPDEST PUSH0 PUSH2 0x2EB9 PUSH1 0x24 DUP4 PUSH2 0x2331 JUMP JUMPDEST SWAP2 POP PUSH2 0x2EC4 DUP3 PUSH2 0x2E5F JUMP JUMPDEST PUSH1 0x40 DUP3 ADD SWAP1 POP SWAP2 SWAP1 POP JUMP JUMPDEST PUSH0 PUSH1 0x20 DUP3 ADD SWAP1 POP DUP2 DUP2 SUB PUSH0 DUP4 ADD MSTORE PUSH2 0x2EE6 DUP2 PUSH2 0x2EAD JUMP JUMPDEST SWAP1 POP SWAP2 SWAP1 POP JUMP JUMPDEST PUSH32 0x45524332303A20617070726F766520746F20746865207A65726F206164647265 PUSH0 DUP3 ADD MSTORE PUSH32 0x7373000000000000000000000000000000000000000000000000000000000000 PUSH1 0x20 DUP3 ADD MSTORE POP JUMP JUMPDEST PUSH0 PUSH2 0x2F47 PUSH1 0x22 DUP4 PUSH2 0x2331 JUMP JUMPDEST SWAP2 POP PUSH2 0x2F52 DUP3 PUSH2 0x2EED JUMP JUMPDEST PUSH1 0x40 DUP3 ADD SWAP1 POP SWAP2 SWAP1 POP JUMP JUMPDEST PUSH0 PUSH1 0x20 DUP3 ADD SWAP1 POP DUP2 DUP2 SUB PUSH0 DUP4 ADD MSTORE PUSH2 0x2F74 DUP2 PUSH2 0x2F3B JUMP JUMPDEST SWAP1 POP SWAP2 SWAP1 POP JUMP JUMPDEST PUSH32 0x45524332303A207472616E736665722066726F6D20746865207A65726F206164 PUSH0 DUP3 ADD MSTORE PUSH32 0x6472657373000000000000000000000000000000000000000000000000000000 PUSH1 0x20 DUP3 ADD MSTORE POP JUMP JUMPDEST PUSH0 PUSH2 0x2FD5 PUSH1 0x25 DUP4 PUSH2 0x2331 JUMP JUMPDEST SWAP2 POP PUSH2 0x2FE0 DUP3 PUSH2 0x2F7B JUMP JUMPDEST PUSH1 0x40 DUP3 ADD SWAP1 POP SWAP2 SWAP1 POP JUMP JUMPDEST PUSH0 PUSH1 0x20 DUP3 ADD SWAP1 POP DUP2 DUP2 SUB PUSH0 DUP4 ADD MSTORE PUSH2 0x3002 DUP2 PUSH2 0x2FC9 JUMP JUMPDEST SWAP1 POP SWAP2 SWAP1 POP JUMP JUMPDEST PUSH32 0x45524332303A207472616E7366657220746F20746865207A65726F2061646472 PUSH0 DUP3 ADD MSTORE PUSH32 0x6573730000000000000000000000000000000000000000000000000000000000 PUSH1 0x20 DUP3 ADD MSTORE POP JUMP JUMPDEST PUSH0 PUSH2 0x3063 PUSH1 0x23 DUP4 PUSH2 0x2331 JUMP JUMPDEST SWAP2 POP PUSH2 0x306E DUP3 PUSH2 0x3009 JUMP JUMPDEST PUSH1 0x40 DUP3 ADD SWAP1 POP SWAP2 SWAP1 POP JUMP JUMPDEST PUSH0 PUSH1 0x20 DUP3 ADD SWAP1 POP DUP2 DUP2 SUB PUSH0 DUP4 ADD MSTORE PUSH2 0x3090 DUP2 PUSH2 0x3057 JUMP JUMPDEST SWAP1 POP SWAP2 SWAP1 POP JUMP JUMPDEST PUSH32 0x5472616E7366657220616D6F756E74206D757374206265206772656174657220 PUSH0 DUP3 ADD MSTORE PUSH32 0x7468616E207A65726F0000000000000000000000000000000000000000000000 PUSH1 0x20 DUP3 ADD MSTORE POP JUMP JUMPDEST PUSH0 PUSH2 0x30F1 PUSH1 0x29 DUP4 PUSH2 0x2331 JUMP JUMPDEST SWAP2 POP PUSH2 0x30FC DUP3 PUSH2 0x3097 JUMP JUMPDEST PUSH1 0x40 DUP3 ADD SWAP1 POP SWAP2 SWAP1 POP JUMP JUMPDEST PUSH0 PUSH1 0x20 DUP3 ADD SWAP1 POP DUP2 DUP2 SUB PUSH0 DUP4 ADD MSTORE PUSH2 0x311E DUP2 PUSH2 0x30E5 JUMP JUMPDEST SWAP1 POP SWAP2 SWAP1 POP JUMP JUMPDEST PUSH32 0x54726164696E67206E6F7420656E61626C656400000000000000000000000000 PUSH0 DUP3 ADD MSTORE POP JUMP JUMPDEST PUSH0 PUSH2 0x3159 PUSH1 0x13 DUP4 PUSH2 0x2331 JUMP JUMPDEST SWAP2 POP PUSH2 0x3164 DUP3 PUSH2 0x3125 JUMP JUMPDEST PUSH1 0x20 DUP3 ADD SWAP1 POP SWAP2 SWAP1 POP JUMP JUMPDEST PUSH0 PUSH1 0x20 DUP3 ADD SWAP1 POP DUP2 DUP2 SUB PUSH0 DUP4 ADD MSTORE PUSH2 0x3186 DUP2 PUSH2 0x314D JUMP JUMPDEST SWAP1 POP SWAP2 SWAP1 POP JUMP JUMPDEST PUSH32 0x4E487B7100000000000000000000000000000000000000000000000000000000 PUSH0 MSTORE PUSH1 0x12 PUSH1 0x4 MSTORE PUSH1 0x24 PUSH0 REVERT JUMPDEST PUSH0 PUSH2 0x31C4 DUP3 PUSH2 0x242F JUMP JUMPDEST SWAP2 POP PUSH2 0x31CF DUP4 PUSH2 0x242F JUMP JUMPDEST SWAP3 POP DUP3 PUSH2 0x31DF JUMPI PUSH2 0x31DE PUSH2 0x318D JUMP JUMPDEST JUMPDEST DUP3 DUP3 DIV SWAP1 POP SWAP3 SWAP2 POP POP JUMP JUMPDEST PUSH0 PUSH2 0x31F4 DUP3 PUSH2 0x242F JUMP JUMPDEST SWAP2 POP PUSH2 0x31FF DUP4 PUSH2 0x242F JUMP JUMPDEST SWAP3 POP DUP3 DUP3 ADD SWAP1 POP DUP1 DUP3 GT ISZERO PUSH2 0x3217 JUMPI PUSH2 0x3216 PUSH2 0x2687 JUMP JUMPDEST JUMPDEST SWAP3 SWAP2 POP POP JUMP JUMPDEST PUSH32 0x616D6F756E74206D7573742062652067726565746572207468616E2030000000 PUSH0 DUP3 ADD MSTORE POP JUMP JUMPDEST PUSH0 PUSH2 0x3251 PUSH1 0x1D DUP4 PUSH2 0x2331 JUMP JUMPDEST SWAP2 POP PUSH2 0x325C DUP3 PUSH2 0x321D JUMP JUMPDEST PUSH1 0x20 DUP3 ADD SWAP1 POP SWAP2 SWAP1 POP JUMP JUMPDEST PUSH0 PUSH1 0x20 DUP3 ADD SWAP1 POP DUP2 DUP2 SUB PUSH0 DUP4 ADD MSTORE PUSH2 0x327E DUP2 PUSH2 0x3245 JUMP JUMPDEST SWAP1 POP SWAP2 SWAP1 POP JUMP JUMPDEST PUSH32 0x4E487B7100000000000000000000000000000000000000000000000000000000 PUSH0 MSTORE PUSH1 0x41 PUSH1 0x4 MSTORE PUSH1 0x24 PUSH0 REVERT JUMPDEST PUSH32 0x4E487B7100000000000000000000000000000000000000000000000000000000 PUSH0 MSTORE PUSH1 0x32 PUSH1 0x4 MSTORE PUSH1 0x24 PUSH0 REVERT JUMPDEST PUSH0 DUP2 MLOAD SWAP1 POP PUSH2 0x32ED DUP2 PUSH2 0x2405 JUMP JUMPDEST SWAP3 SWAP2 POP POP JUMP JUMPDEST PUSH0 PUSH1 0x20 DUP3 DUP5 SUB SLT ISZERO PUSH2 0x3308 JUMPI PUSH2 0x3307 PUSH2 0x23D1 JUMP JUMPDEST JUMPDEST PUSH0 PUSH2 0x3315 DUP5 DUP3 DUP6 ADD PUSH2 0x32DF JUMP JUMPDEST SWAP2 POP POP SWAP3 SWAP2 POP POP JUMP JUMPDEST PUSH0 DUP2 SWAP1 POP SWAP2 SWAP1 POP JUMP JUMPDEST PUSH0 PUSH2 0x3341 PUSH2 0x333C PUSH2 0x3337 DUP5 PUSH2 0x331E JUMP JUMPDEST PUSH2 0x2B5A JUMP JUMPDEST PUSH2 0x242F JUMP JUMPDEST SWAP1 POP SWAP2 SWAP1 POP JUMP JUMPDEST PUSH2 0x3351 DUP2 PUSH2 0x3327 JUMP JUMPDEST DUP3 MSTORE POP POP JUMP JUMPDEST PUSH0 DUP2 MLOAD SWAP1 POP SWAP2 SWAP1 POP JUMP JUMPDEST PUSH0 DUP3 DUP3 MSTORE PUSH1 0x20 DUP3 ADD SWAP1 POP SWAP3 SWAP2 POP POP JUMP JUMPDEST PUSH0 DUP2 SWAP1 POP PUSH1 0x20 DUP3 ADD SWAP1 POP SWAP2 SWAP1 POP JUMP JUMPDEST PUSH2 0x3389 DUP2 PUSH2 0x23F4 JUMP JUMPDEST DUP3 MSTORE POP POP JUMP JUMPDEST PUSH0 PUSH2 0x339A DUP4 DUP4 PUSH2 0x3380 JUMP JUMPDEST PUSH1 0x20 DUP4 ADD SWAP1 POP SWAP3 SWAP2 POP POP JUMP JUMPDEST PUSH0 PUSH1 0x20 DUP3 ADD SWAP1 POP SWAP2 SWAP1 POP JUMP JUMPDEST PUSH0 PUSH2 0x33BC DUP3 PUSH2 0x3357 JUMP JUMPDEST PUSH2 0x33C6 DUP2 DUP6 PUSH2 0x3361 JUMP JUMPDEST SWAP4 POP PUSH2 0x33D1 DUP4 PUSH2 0x3371 JUMP JUMPDEST DUP1 PUSH0 JUMPDEST DUP4 DUP2 LT ISZERO PUSH2 0x3401 JUMPI DUP2 MLOAD PUSH2 0x33E8 DUP9 DUP3 PUSH2 0x338F JUMP JUMPDEST SWAP8 POP PUSH2 0x33F3 DUP4 PUSH2 0x33A6 JUMP JUMPDEST SWAP3 POP POP PUSH1 0x1 DUP2 ADD SWAP1 POP PUSH2 0x33D4 JUMP JUMPDEST POP DUP6 SWAP4 POP POP POP POP SWAP3 SWAP2 POP POP JUMP JUMPDEST PUSH0 PUSH1 0xA0 DUP3 ADD SWAP1 POP PUSH2 0x3421 PUSH0 DUP4 ADD DUP9 PUSH2 0x24D3 JUMP JUMPDEST PUSH2 0x342E PUSH1 0x20 DUP4 ADD DUP8 PUSH2 0x3348 JUMP JUMPDEST DUP2 DUP2 SUB PUSH1 0x40 DUP4 ADD MSTORE PUSH2 0x3440 DUP2 DUP7 PUSH2 0x33B2 JUMP JUMPDEST SWAP1 POP PUSH2 0x344F PUSH1 0x60 DUP4 ADD DUP6 PUSH2 0x2621 JUMP JUMPDEST PUSH2 0x345C PUSH1 0x80 DUP4 ADD DUP5 PUSH2 0x24D3 JUMP JUMPDEST SWAP7 SWAP6 POP POP POP POP POP POP JUMP INVALID LOG2 PUSH5 0x6970667358 0x22 SLT KECCAK256 0xF7 DUP7 0x21 0xE8 CREATE2 0xB2 MUL 0xE4 PUSH10 0x2ECEEE0A00E61176D44F GASLIMIT 0xA7 LOG0 SMOD DUP16 0xD6 0x27 INVALID SWAP11 0xA5 0xAC 0xE9 0xEB PUSH5 0x736F6C6343 STOP ADDMOD AND STOP CALLER "
		},
		"gasEstimates": {
			"creation": {
				"codeDepositCost": "2693600",
				"executionCost": "infinite",
				"totalCost": "infinite"
			},
			"external": {
				"Contract_Dev()": "infinite",
				"Contract_Edition()": "infinite",
				"Contract_Version()": "infinite",
				"MarketingWallet()": "2642",
				"allowance(address,address)": "infinite",
				"approve(address,uint256)": "infinite",
				"balanceOf(address)": "2874",
				"buyTaxes()": "2470",
				"deadWallet()": "396",
				"decimals()": "384",
				"name()": "infinite",
				"owner()": "2582",
				"removeWhitelistWallet(address)": "30487",
				"renounceOwnership()": "30351",
				"rescueBEP20(address,uint256)": "infinite",
				"rescueBNB()": "infinite",
				"sellTaxes()": "2513",
				"setTrading()": "54071",
				"symbol()": "infinite",
				"totalSupply()": "infinite",
				"tradeEnable()": "2627",
				"transfer(address,uint256)": "infinite",
				"transferFrom(address,address,uint256)": "infinite",
				"transferOwnership(address)": "30736",
				"updateFees(uint256,uint256)": "infinite",
				"whitelistWallet(address)": "30511"
			},
			"internal": {
				"_approve(address,address,uint256)": "infinite",
				"_transfer(address,address,uint256)": "infinite",
				"min(uint256,uint256)": "63",
				"sendETHToFee(uint256)": "infinite",
				"swapTokensForEth(uint256)": "infinite"
			}
		},
		"methodIdentifiers": {
			"Contract_Dev()": "1fdafcc5",
			"Contract_Edition()": "c0ab60ea",
			"Contract_Version()": "929e928a",
			"MarketingWallet()": "2598cdb2",
			"allowance(address,address)": "dd62ed3e",
			"approve(address,uint256)": "095ea7b3",
			"balanceOf(address)": "70a08231",
			"buyTaxes()": "864701a5",
			"deadWallet()": "85141a77",
			"decimals()": "313ce567",
			"name()": "06fdde03",
			"owner()": "8da5cb5b",
			"removeWhitelistWallet(address)": "dcb1c2e5",
			"renounceOwnership()": "715018a6",
			"rescueBEP20(address,uint256)": "3490560d",
			"rescueBNB()": "f25f136c",
			"sellTaxes()": "f66895a3",
			"setTrading()": "7c519ffb",
			"symbol()": "95d89b41",
			"totalSupply()": "18160ddd",
			"tradeEnable()": "f87dc2c6",
			"transfer(address,uint256)": "a9059cbb",
			"transferFrom(address,address,uint256)": "23b872dd",
			"transferOwnership(address)": "f2fde38b",
			"updateFees(uint256,uint256)": "6db79437",
			"whitelistWallet(address)": "787c23e0"
		}
	},
	"abi": [
		{
			"inputs": [],
			"stateMutability": "nonpayable",
			"type": "constructor"
		},
		{
			"anonymous": false,
			"inputs": [
				{
					"indexed": true,
					"internalType": "address",
					"name": "owner",
					"type": "address"
				},
				{
					"indexed": true,
					"internalType": "address",
					"name": "spender",
					"type": "address"
				},
				{
					"indexed": false,
					"internalType": "uint256",
					"name": "value",
					"type": "uint256"
				}
			],
			"name": "Approval",
			"type": "event"
		},
		{
			"anonymous": false,
			"inputs": [
				{
					"indexed": true,
					"internalType": "uint256",
					"name": "_amount",
					"type": "uint256"
				}
			],
			"name": "ERC20TokensRecovered",
			"type": "event"
		},
		{
			"anonymous": false,
			"inputs": [],
			"name": "ETHBalanceRecovered",
			"type": "event"
		},
		{
			"anonymous": false,
			"inputs": [
				{
					"indexed": true,
					"internalType": "address",
					"name": "account",
					"type": "address"
				}
			],
			"name": "ExcludeFromFeeUpdated",
			"type": "event"
		},
		{
			"anonymous": false,
			"inputs": [
				{
					"indexed": true,
					"internalType": "uint256",
					"name": "_feeAmount",
					"type": "uint256"
				}
			],
			"name": "FeesUpdated",
			"type": "event"
		},
		{
			"anonymous": false,
			"inputs": [
				{
					"indexed": true,
					"internalType": "address",
					"name": "previousOwner",
					"type": "address"
				},
				{
					"indexed": true,
					"internalType": "address",
					"name": "newOwner",
					"type": "address"
				}
			],
			"name": "OwnershipTransferred",
			"type": "event"
		},
		{
			"anonymous": false,
			"inputs": [
				{
					"indexed": true,
					"internalType": "bool",
					"name": "state",
					"type": "bool"
				}
			],
			"name": "SwapBackSettingUpdated",
			"type": "event"
		},
		{
			"anonymous": false,
			"inputs": [],
			"name": "TradingOpenUpdated",
			"type": "event"
		},
		{
			"anonymous": false,
			"inputs": [
				{
					"indexed": true,
					"internalType": "address",
					"name": "from",
					"type": "address"
				},
				{
					"indexed": true,
					"internalType": "address",
					"name": "to",
					"type": "address"
				},
				{
					"indexed": false,
					"internalType": "uint256",
					"name": "value",
					"type": "uint256"
				}
			],
			"name": "Transfer",
			"type": "event"
		},
		{
			"anonymous": false,
			"inputs": [
				{
					"indexed": true,
					"internalType": "address",
					"name": "account",
					"type": "address"
				}
			],
			"name": "includeFromFeeUpdated",
			"type": "event"
		},
		{
			"inputs": [],
			"name": "Contract_Dev",
			"outputs": [
				{
					"internalType": "string",
					"name": "",
					"type": "string"
				}
			],
			"stateMutability": "view",
			"type": "function"
		},
		{
			"inputs": [],
			"name": "Contract_Edition",
			"outputs": [
				{
					"internalType": "string",
					"name": "",
					"type": "string"
				}
			],
			"stateMutability": "view",
			"type": "function"
		},
		{
			"inputs": [],
			"name": "Contract_Version",
			"outputs": [
				{
					"internalType": "string",
					"name": "",
					"type": "string"
				}
			],
			"stateMutability": "view",
			"type": "function"
		},
		{
			"inputs": [],
			"name": "MarketingWallet",
			"outputs": [
				{
					"internalType": "address payable",
					"name": "",
					"type": "address"
				}
			],
			"stateMutability": "view",
			"type": "function"
		},
		{
			"inputs": [
				{
					"internalType": "address",
					"name": "owner",
					"type": "address"
				},
				{
					"internalType": "address",
					"name": "spender",
					"type": "address"
				}
			],
			"name": "allowance",
			"outputs": [
				{
					"internalType": "uint256",
					"name": "",
					"type": "uint256"
				}
			],
			"stateMutability": "view",
			"type": "function"
		},
		{
			"inputs": [
				{
					"internalType": "address",
					"name": "spender",
					"type": "address"
				},
				{
					"internalType": "uint256",
					"name": "amount",
					"type": "uint256"
				}
			],
			"name": "approve",
			"outputs": [
				{
					"internalType": "bool",
					"name": "",
					"type": "bool"
				}
			],
			"stateMutability": "nonpayable",
			"type": "function"
		},
		{
			"inputs": [
				{
					"internalType": "address",
					"name": "account",
					"type": "address"
				}
			],
			"name": "balanceOf",
			"outputs": [
				{
					"internalType": "uint256",
					"name": "",
					"type": "uint256"
				}
			],
			"stateMutability": "view",
			"type": "function"
		},
		{
			"inputs": [],
			"name": "buyTaxes",
			"outputs": [
				{
					"internalType": "uint256",
					"name": "",
					"type": "uint256"
				}
			],
			"stateMutability": "view",
			"type": "function"
		},
		{
			"inputs": [],
			"name": "deadWallet",
			"outputs": [
				{
					"internalType": "address",
					"name": "",
					"type": "address"
				}
			],
			"stateMutability": "view",
			"type": "function"
		},
		{
			"inputs": [],
			"name": "decimals",
			"outputs": [
				{
					"internalType": "uint8",
					"name": "",
					"type": "uint8"
				}
			],
			"stateMutability": "pure",
			"type": "function"
		},
		{
			"inputs": [],
			"name": "name",
			"outputs": [
				{
					"internalType": "string",
					"name": "",
					"type": "string"
				}
			],
			"stateMutability": "pure",
			"type": "function"
		},
		{
			"inputs": [],
			"name": "owner",
			"outputs": [
				{
					"internalType": "address",
					"name": "",
					"type": "address"
				}
			],
			"stateMutability": "view",
			"type": "function"
		},
		{
			"inputs": [
				{
					"internalType": "address",
					"name": "account",
					"type": "address"
				}
			],
			"name": "removeWhitelistWallet",
			"outputs": [],
			"stateMutability": "nonpayable",
			"type": "function"
		},
		{
			"inputs": [],
			"name": "renounceOwnership",
			"outputs": [],
			"stateMutability": "nonpayable",
			"type": "function"
		},
		{
			"inputs": [
				{
					"internalType": "address",
					"name": "_tokenAddy",
					"type": "address"
				},
				{
					"internalType": "uint256",
					"name": "_amount",
					"type": "uint256"
				}
			],
			"name": "rescueBEP20",
			"outputs": [],
			"stateMutability": "nonpayable",
			"type": "function"
		},
		{
			"inputs": [],
			"name": "rescueBNB",
			"outputs": [],
			"stateMutability": "nonpayable",
			"type": "function"
		},
		{
			"inputs": [],
			"name": "sellTaxes",
			"outputs": [
				{
					"internalType": "uint256",
					"name": "",
					"type": "uint256"
				}
			],
			"stateMutability": "view",
			"type": "function"
		},
		{
			"inputs": [],
			"name": "setTrading",
			"outputs": [],
			"stateMutability": "nonpayable",
			"type": "function"
		},
		{
			"inputs": [],
			"name": "symbol",
			"outputs": [
				{
					"internalType": "string",
					"name": "",
					"type": "string"
				}
			],
			"stateMutability": "pure",
			"type": "function"
		},
		{
			"inputs": [],
			"name": "totalSupply",
			"outputs": [
				{
					"internalType": "uint256",
					"name": "",
					"type": "uint256"
				}
			],
			"stateMutability": "pure",
			"type": "function"
		},
		{
			"inputs": [],
			"name": "tradeEnable",
			"outputs": [
				{
					"internalType": "bool",
					"name": "",
					"type": "bool"
				}
			],
			"stateMutability": "view",
			"type": "function"
		},
		{
			"inputs": [
				{
					"internalType": "address",
					"name": "recipient",
					"type": "address"
				},
				{
					"internalType": "uint256",
					"name": "amount",
					"type": "uint256"
				}
			],
			"name": "transfer",
			"outputs": [
				{
					"internalType": "bool",
					"name": "",
					"type": "bool"
				}
			],
			"stateMutability": "nonpayable",
			"type": "function"
		},
		{
			"inputs": [
				{
					"internalType": "address",
					"name": "sender",
					"type": "address"
				},
				{
					"internalType": "address",
					"name": "recipient",
					"type": "address"
				},
				{
					"internalType": "uint256",
					"name": "amount",
					"type": "uint256"
				}
			],
			"name": "transferFrom",
			"outputs": [
				{
					"internalType": "bool",
					"name": "",
					"type": "bool"
				}
			],
			"stateMutability": "nonpayable",
			"type": "function"
		},
		{
			"inputs": [
				{
					"internalType": "address",
					"name": "newOwner",
					"type": "address"
				}
			],
			"name": "transferOwnership",
			"outputs": [],
			"stateMutability": "nonpayable",
			"type": "function"
		},
		{
			"inputs": [
				{
					"internalType": "uint256",
					"name": "newBuyFee",
					"type": "uint256"
				},
				{
					"internalType": "uint256",
					"name": "newSellFee",
					"type": "uint256"
				}
			],
			"name": "updateFees",
			"outputs": [],
			"stateMutability": "nonpayable",
			"type": "function"
		},
		{
			"inputs": [
				{
					"internalType": "address",
					"name": "account",
					"type": "address"
				}
			],
			"name": "whitelistWallet",
			"outputs": [],
			"stateMutability": "nonpayable",
			"type": "function"
		},
		{
			"stateMutability": "payable",
			"type": "receive"
		}
	]
}