{
	"data": {
		"bytecode": {
			"linkReferences": {},
			"object": "608060405234801561000f575f80fd5b506108368061001d5f395ff3fe60806040526004361061001d575f3560e01c80634d31a66b14610021575b5f80fd5b61003b6004803603810190610036919061032c565b610051565b6040516100489190610502565b60405180910390f35b606083839050868690501461009b576040517f08c379a00000000000000000000000000000000000000000000000000000000081526004016100929061057c565b60405180910390fd5b5f8484905067ffffffffffffffff8111156100b9576100b861059a565b5b6040519080825280602002602001820160405280156100ec57816020015b60608152602001906001900390816100d75790505b5090505f5b8787905081101561022d575f80898984818110610111576101106105c7565b5b9050602002016020810190610126919061064e565b73ffffffffffffffffffffffffffffffffffffffff16863461014891906106a6565b89898681811061015b5761015a6105c7565b5b905060200281019061016d91906106e2565b60405161017b929190610780565b5f6040518083038185875af1925050503d805f81146101b5576040519150601f19603f3d011682016040523d82523d5f602084013e6101ba565b606091505b5091509150816101ff576040517f08c379a00000000000000000000000000000000000000000000000000000000081526004016101f6906107e2565b60405180910390fd5b80848481518110610213576102126105c7565b5b6020026020010181905250505080806001019150506100f1565b508091505095945050505050565b5f80fd5b5f80fd5b5f80fd5b5f80fd5b5f80fd5b5f8083601f84011261026457610263610243565b5b8235905067ffffffffffffffff81111561028157610280610247565b5b60208301915083602082028301111561029d5761029c61024b565b5b9250929050565b5f8083601f8401126102b9576102b8610243565b5b8235905067ffffffffffffffff8111156102d6576102d5610247565b5b6020830191508360208202830111156102f2576102f161024b565b5b9250929050565b5f819050919050565b61030b816102f9565b8114610315575f80fd5b50565b5f8135905061032681610302565b92915050565b5f805f805f606086880312156103455761034461023b565b5b5f86013567ffffffffffffffff8111156103625761036161023f565b5b61036e8882890161024f565b9550955050602086013567ffffffffffffffff8111156103915761039061023f565b5b61039d888289016102a4565b935093505060406103b088828901610318565b9150509295509295909350565b5f81519050919050565b5f82825260208201905092915050565b5f819050602082019050919050565b5f81519050919050565b5f82825260208201905092915050565b5f5b8381101561041d578082015181840152602081019050610402565b5f8484015250505050565b5f601f19601f8301169050919050565b5f610442826103e6565b61044c81856103f0565b935061045c818560208601610400565b61046581610428565b840191505092915050565b5f61047b8383610438565b905092915050565b5f602082019050919050565b5f610499826103bd565b6104a381856103c7565b9350836020820285016104b5856103d7565b805f5b858110156104f057848403895281516104d18582610470565b94506104dc83610483565b925060208a019950506001810190506104b8565b50829750879550505050505092915050565b5f6020820190508181035f83015261051a818461048f565b905092915050565b5f82825260208201905092915050565b7f746172676574206c656e67746820213d2064617461206c656e677468000000005f82015250565b5f610566601c83610522565b915061057182610532565b602082019050919050565b5f6020820190508181035f8301526105938161055a565b9050919050565b7f4e487b71000000000000000000000000000000000000000000000000000000005f52604160045260245ffd5b7f4e487b71000000000000000000000000000000000000000000000000000000005f52603260045260245ffd5b5f73ffffffffffffffffffffffffffffffffffffffff82169050919050565b5f61061d826105f4565b9050919050565b61062d81610613565b8114610637575f80fd5b50565b5f8135905061064881610624565b92915050565b5f602082840312156106635761066261023b565b5b5f6106708482850161063a565b91505092915050565b7f4e487b71000000000000000000000000000000000000000000000000000000005f52601260045260245ffd5b5f6106b0826102f9565b91506106bb836102f9565b9250826106cb576106ca610679565b5b828204905092915050565b5f80fd5b5f80fd5b5f80fd5b5f80833560016020038436030381126106fe576106fd6106d6565b5b80840192508235915067ffffffffffffffff8211156107205761071f6106da565b5b60208301925060018202360383131561073c5761073b6106de565b5b509250929050565b5f81905092915050565b828183375f83830152505050565b5f6107678385610744565b935061077483858461074e565b82840190509392505050565b5f61078c82848661075c565b91508190509392505050565b7f63616c6c206661696c65640000000000000000000000000000000000000000005f82015250565b5f6107cc600b83610522565b91506107d782610798565b602082019050919050565b5f6020820190508181035f8301526107f9816107c0565b905091905056fea264697066735822122003008f6d2854f74ee0f24501673b2e0b75db89418cd6bfb204176450836c937464736f6c63430008160033",
			"opcodes": "PUSH1 0x80 PUSH1 0x40 MSTORE CALLVALUE DUP1 ISZERO PUSH2 0xF JUMPI PUSH0 DUP1 REVERT JUMPDEST POP PUSH2 0x836 DUP1 PUSH2 0x1D PUSH0 CODECOPY PUSH0 RETURN INVALID PUSH1 0x80 PUSH1 0x40 MSTORE PUSH1 0x4 CALLDATASIZE LT PUSH2 0x1D JUMPI PUSH0 CALLDATALOAD PUSH1 0xE0 SHR DUP1 PUSH4 0x4D31A66B EQ PUSH2 0x21 JUMPI JUMPDEST PUSH0 DUP1 REVERT JUMPDEST PUSH2 0x3B PUSH1 0x4 DUP1 CALLDATASIZE SUB DUP2 ADD SWAP1 PUSH2 0x36 SWAP2 SWAP1 PUSH2 0x32C JUMP JUMPDEST PUSH2 0x51 JUMP JUMPDEST PUSH1 0x40 MLOAD PUSH2 0x48 SWAP2 SWAP1 PUSH2 0x502 JUMP JUMPDEST PUSH1 0x40 MLOAD DUP1 SWAP2 SUB SWAP1 RETURN JUMPDEST PUSH1 0x60 DUP4 DUP4 SWAP1 POP DUP7 DUP7 SWAP1 POP EQ PUSH2 0x9B JUMPI PUSH1 0x40 MLOAD PUSH32 0x8C379A000000000000000000000000000000000000000000000000000000000 DUP2 MSTORE PUSH1 0x4 ADD PUSH2 0x92 SWAP1 PUSH2 0x57C JUMP JUMPDEST PUSH1 0x40 MLOAD DUP1 SWAP2 SUB SWAP1 REVERT JUMPDEST PUSH0 DUP5 DUP5 SWAP1 POP PUSH8 0xFFFFFFFFFFFFFFFF DUP2 GT ISZERO PUSH2 0xB9 JUMPI PUSH2 0xB8 PUSH2 0x59A JUMP JUMPDEST JUMPDEST PUSH1 0x40 MLOAD SWAP1 DUP1 DUP3 MSTORE DUP1 PUSH1 0x20 MUL PUSH1 0x20 ADD DUP3 ADD PUSH1 0x40 MSTORE DUP1 ISZERO PUSH2 0xEC JUMPI DUP2 PUSH1 0x20 ADD JUMPDEST PUSH1 0x60 DUP2 MSTORE PUSH1 0x20 ADD SWAP1 PUSH1 0x1 SWAP1 SUB SWAP1 DUP2 PUSH2 0xD7 JUMPI SWAP1 POP JUMPDEST POP SWAP1 POP PUSH0 JUMPDEST DUP8 DUP8 SWAP1 POP DUP2 LT ISZERO PUSH2 0x22D JUMPI PUSH0 DUP1 DUP10 DUP10 DUP5 DUP2 DUP2 LT PUSH2 0x111 JUMPI PUSH2 0x110 PUSH2 0x5C7 JUMP JUMPDEST JUMPDEST SWAP1 POP PUSH1 0x20 MUL ADD PUSH1 0x20 DUP2 ADD SWAP1 PUSH2 0x126 SWAP2 SWAP1 PUSH2 0x64E JUMP JUMPDEST PUSH20 0xFFFFFFFFFFFFFFFFFFFFFFFFFFFFFFFFFFFFFFFF AND DUP7 CALLVALUE PUSH2 0x148 SWAP2 SWAP1 PUSH2 0x6A6 JUMP JUMPDEST DUP10 DUP10 DUP7 DUP2 DUP2 LT PUSH2 0x15B JUMPI PUSH2 0x15A PUSH2 0x5C7 JUMP JUMPDEST JUMPDEST SWAP1 POP PUSH1 0x20 MUL DUP2 ADD SWAP1 PUSH2 0x16D SWAP2 SWAP1 PUSH2 0x6E2 JUMP JUMPDEST PUSH1 0x40 MLOAD PUSH2 0x17B SWAP3 SWAP2 SWAP1 PUSH2 0x780 JUMP JUMPDEST PUSH0 PUSH1 0x40 MLOAD DUP1 DUP4 SUB DUP2 DUP6 DUP8 GAS CALL SWAP3 POP POP POP RETURNDATASIZE DUP1 PUSH0 DUP2 EQ PUSH2 0x1B5 JUMPI PUSH1 0x40 MLOAD SWAP2 POP PUSH1 0x1F NOT PUSH1 0x3F RETURNDATASIZE ADD AND DUP3 ADD PUSH1 0x40 MSTORE RETURNDATASIZE DUP3 MSTORE RETURNDATASIZE PUSH0 PUSH1 0x20 DUP5 ADD RETURNDATACOPY PUSH2 0x1BA JUMP JUMPDEST PUSH1 0x60 SWAP2 POP JUMPDEST POP SWAP2 POP SWAP2 POP DUP2 PUSH2 0x1FF JUMPI PUSH1 0x40 MLOAD PUSH32 0x8C379A000000000000000000000000000000000000000000000000000000000 DUP2 MSTORE PUSH1 0x4 ADD PUSH2 0x1F6 SWAP1 PUSH2 0x7E2 JUMP JUMPDEST PUSH1 0x40 MLOAD DUP1 SWAP2 SUB SWAP1 REVERT JUMPDEST DUP1 DUP5 DUP5 DUP2 MLOAD DUP2 LT PUSH2 0x213 JUMPI PUSH2 0x212 PUSH2 0x5C7 JUMP JUMPDEST JUMPDEST PUSH1 0x20 MUL PUSH1 0x20 ADD ADD DUP2 SWAP1 MSTORE POP POP POP DUP1 DUP1 PUSH1 0x1 ADD SWAP2 POP POP PUSH2 0xF1 JUMP JUMPDEST POP DUP1 SWAP2 POP POP SWAP6 SWAP5 POP POP POP POP POP JUMP JUMPDEST PUSH0 DUP1 REVERT JUMPDEST PUSH0 DUP1 REVERT JUMPDEST PUSH0 DUP1 REVERT JUMPDEST PUSH0 DUP1 REVERT JUMPDEST PUSH0 DUP1 REVERT JUMPDEST PUSH0 DUP1 DUP4 PUSH1 0x1F DUP5 ADD SLT PUSH2 0x264 JUMPI PUSH2 0x263 PUSH2 0x243 JUMP JUMPDEST JUMPDEST DUP3 CALLDATALOAD SWAP1 POP PUSH8 0xFFFFFFFFFFFFFFFF DUP2 GT ISZERO PUSH2 0x281 JUMPI PUSH2 0x280 PUSH2 0x247 JUMP JUMPDEST JUMPDEST PUSH1 0x20 DUP4 ADD SWAP2 POP DUP4 PUSH1 0x20 DUP3 MUL DUP4 ADD GT ISZERO PUSH2 0x29D JUMPI PUSH2 0x29C PUSH2 0x24B JUMP JUMPDEST JUMPDEST SWAP3 POP SWAP3 SWAP1 POP JUMP JUMPDEST PUSH0 DUP1 DUP4 PUSH1 0x1F DUP5 ADD SLT PUSH2 0x2B9 JUMPI PUSH2 0x2B8 PUSH2 0x243 JUMP JUMPDEST JUMPDEST DUP3 CALLDATALOAD SWAP1 POP PUSH8 0xFFFFFFFFFFFFFFFF DUP2 GT ISZERO PUSH2 0x2D6 JUMPI PUSH2 0x2D5 PUSH2 0x247 JUMP JUMPDEST JUMPDEST PUSH1 0x20 DUP4 ADD SWAP2 POP DUP4 PUSH1 0x20 DUP3 MUL DUP4 ADD GT ISZERO PUSH2 0x2F2 JUMPI PUSH2 0x2F1 PUSH2 0x24B JUMP JUMPDEST JUMPDEST SWAP3 POP SWAP3 SWAP1 POP JUMP JUMPDEST PUSH0 DUP2 SWAP1 POP SWAP2 SWAP1 POP JUMP JUMPDEST PUSH2 0x30B DUP2 PUSH2 0x2F9 JUMP JUMPDEST DUP2 EQ PUSH2 0x315 JUMPI PUSH0 DUP1 REVERT JUMPDEST POP JUMP JUMPDEST PUSH0 DUP2 CALLDATALOAD SWAP1 POP PUSH2 0x326 DUP2 PUSH2 0x302 JUMP JUMPDEST SWAP3 SWAP2 POP POP JUMP JUMPDEST PUSH0 DUP1 PUSH0 DUP1 PUSH0 PUSH1 0x60 DUP7 DUP9 SUB SLT ISZERO PUSH2 0x345 JUMPI PUSH2 0x344 PUSH2 0x23B JUMP JUMPDEST JUMPDEST PUSH0 DUP7 ADD CALLDATALOAD PUSH8 0xFFFFFFFFFFFFFFFF DUP2 GT ISZERO PUSH2 0x362 JUMPI PUSH2 0x361 PUSH2 0x23F JUMP JUMPDEST JUMPDEST PUSH2 0x36E DUP9 DUP3 DUP10 ADD PUSH2 0x24F JUMP JUMPDEST SWAP6 POP SWAP6 POP POP PUSH1 0x20 DUP7 ADD CALLDATALOAD PUSH8 0xFFFFFFFFFFFFFFFF DUP2 GT ISZERO PUSH2 0x391 JUMPI PUSH2 0x390 PUSH2 0x23F JUMP JUMPDEST JUMPDEST PUSH2 0x39D DUP9 DUP3 DUP10 ADD PUSH2 0x2A4 JUMP JUMPDEST SWAP4 POP SWAP4 POP POP PUSH1 0x40 PUSH2 0x3B0 DUP9 DUP3 DUP10 ADD PUSH2 0x318 JUMP JUMPDEST SWAP2 POP POP SWAP3 SWAP6 POP SWAP3 SWAP6 SWAP1 SWAP4 POP JUMP JUMPDEST PUSH0 DUP2 MLOAD SWAP1 POP SWAP2 SWAP1 POP JUMP JUMPDEST PUSH0 DUP3 DUP3 MSTORE PUSH1 0x20 DUP3 ADD SWAP1 POP SWAP3 SWAP2 POP POP JUMP JUMPDEST PUSH0 DUP2 SWAP1 POP PUSH1 0x20 DUP3 ADD SWAP1 POP SWAP2 SWAP1 POP JUMP JUMPDEST PUSH0 DUP2 MLOAD SWAP1 POP SWAP2 SWAP1 POP JUMP JUMPDEST PUSH0 DUP3 DUP3 MSTORE PUSH1 0x20 DUP3 ADD SWAP1 POP SWAP3 SWAP2 POP POP JUMP JUMPDEST PUSH0 JUMPDEST DUP4 DUP2 LT ISZERO PUSH2 0x41D JUMPI DUP1 DUP3 ADD MLOAD DUP2 DUP5 ADD MSTORE PUSH1 0x20 DUP2 ADD SWAP1 POP PUSH2 0x402 JUMP JUMPDEST PUSH0 DUP5 DUP5 ADD MSTORE POP POP POP POP JUMP JUMPDEST PUSH0 PUSH1 0x1F NOT PUSH1 0x1F DUP4 ADD AND SWAP1 POP SWAP2 SWAP1 POP JUMP JUMPDEST PUSH0 PUSH2 0x442 DUP3 PUSH2 0x3E6 JUMP JUMPDEST PUSH2 0x44C DUP2 DUP6 PUSH2 0x3F0 JUMP JUMPDEST SWAP4 POP PUSH2 0x45C DUP2 DUP6 PUSH1 0x20 DUP7 ADD PUSH2 0x400 JUMP JUMPDEST PUSH2 0x465 DUP2 PUSH2 0x428 JUMP JUMPDEST DUP5 ADD SWAP2 POP POP SWAP3 SWAP2 POP POP JUMP JUMPDEST PUSH0 PUSH2 0x47B DUP4 DUP4 PUSH2 0x438 JUMP JUMPDEST SWAP1 POP SWAP3 SWAP2 POP POP JUMP JUMPDEST PUSH0 PUSH1 0x20 DUP3 ADD SWAP1 POP SWAP2 SWAP1 POP JUMP JUMPDEST PUSH0 PUSH2 0x499 DUP3 PUSH2 0x3BD JUMP JUMPDEST PUSH2 0x4A3 DUP2 DUP6 PUSH2 0x3C7 JUMP JUMPDEST SWAP4 POP DUP4 PUSH1 0x20 DUP3 MUL DUP6 ADD PUSH2 0x4B5 DUP6 PUSH2 0x3D7 JUMP JUMPDEST DUP1 PUSH0 JUMPDEST DUP6 DUP2 LT ISZERO PUSH2 0x4F0 JUMPI DUP5 DUP5 SUB DUP10 MSTORE DUP2 MLOAD PUSH2 0x4D1 DUP6 DUP3 PUSH2 0x470 JUMP JUMPDEST SWAP5 POP PUSH2 0x4DC DUP4 PUSH2 0x483 JUMP JUMPDEST SWAP3 POP PUSH1 0x20 DUP11 ADD SWAP10 POP POP PUSH1 0x1 DUP2 ADD SWAP1 POP PUSH2 0x4B8 JUMP JUMPDEST POP DUP3 SWAP8 POP DUP8 SWAP6 POP POP POP POP POP POP SWAP3 SWAP2 POP POP JUMP JUMPDEST PUSH0 PUSH1 0x20 DUP3 ADD SWAP1 POP DUP2 DUP2 SUB PUSH0 DUP4 ADD MSTORE PUSH2 0x51A DUP2 DUP5 PUSH2 0x48F JUMP JUMPDEST SWAP1 POP SWAP3 SWAP2 POP POP JUMP JUMPDEST PUSH0 DUP3 DUP3 MSTORE PUSH1 0x20 DUP3 ADD SWAP1 POP SWAP3 SWAP2 POP POP JUMP JUMPDEST PUSH32 0x746172676574206C656E67746820213D2064617461206C656E67746800000000 PUSH0 DUP3 ADD MSTORE POP JUMP JUMPDEST PUSH0 PUSH2 0x566 PUSH1 0x1C DUP4 PUSH2 0x522 JUMP JUMPDEST SWAP2 POP PUSH2 0x571 DUP3 PUSH2 0x532 JUMP JUMPDEST PUSH1 0x20 DUP3 ADD SWAP1 POP SWAP2 SWAP1 POP JUMP JUMPDEST PUSH0 PUSH1 0x20 DUP3 ADD SWAP1 POP DUP2 DUP2 SUB PUSH0 DUP4 ADD MSTORE PUSH2 0x593 DUP2 PUSH2 0x55A JUMP JUMPDEST SWAP1 POP SWAP2 SWAP1 POP JUMP JUMPDEST PUSH32 0x4E487B7100000000000000000000000000000000000000000000000000000000 PUSH0 MSTORE PUSH1 0x41 PUSH1 0x4 MSTORE PUSH1 0x24 PUSH0 REVERT JUMPDEST PUSH32 0x4E487B7100000000000000000000000000000000000000000000000000000000 PUSH0 MSTORE PUSH1 0x32 PUSH1 0x4 MSTORE PUSH1 0x24 PUSH0 REVERT JUMPDEST PUSH0 PUSH20 0xFFFFFFFFFFFFFFFFFFFFFFFFFFFFFFFFFFFFFFFF DUP3 AND SWAP1 POP SWAP2 SWAP1 POP JUMP JUMPDEST PUSH0 PUSH2 0x61D DUP3 PUSH2 0x5F4 JUMP JUMPDEST SWAP1 POP SWAP2 SWAP1 POP JUMP JUMPDEST PUSH2 0x62D DUP2 PUSH2 0x613 JUMP JUMPDEST DUP2 EQ PUSH2 0x637 JUMPI PUSH0 DUP1 REVERT JUMPDEST POP JUMP JUMPDEST PUSH0 DUP2 CALLDATALOAD SWAP1 POP PUSH2 0x648 DUP2 PUSH2 0x624 JUMP JUMPDEST SWAP3 SWAP2 POP POP JUMP JUMPDEST PUSH0 PUSH1 0x20 DUP3 DUP5 SUB SLT ISZERO PUSH2 0x663 JUMPI PUSH2 0x662 PUSH2 0x23B JUMP JUMPDEST JUMPDEST PUSH0 PUSH2 0x670 DUP5 DUP3 DUP6 ADD PUSH2 0x63A JUMP JUMPDEST SWAP2 POP POP SWAP3 SWAP2 POP POP JUMP JUMPDEST PUSH32 0x4E487B7100000000000000000000000000000000000000000000000000000000 PUSH0 MSTORE PUSH1 0x12 PUSH1 0x4 MSTORE PUSH1 0x24 PUSH0 REVERT JUMPDEST PUSH0 PUSH2 0x6B0 DUP3 PUSH2 0x2F9 JUMP JUMPDEST SWAP2 POP PUSH2 0x6BB DUP4 PUSH2 0x2F9 JUMP JUMPDEST SWAP3 POP DUP3 PUSH2 0x6CB JUMPI PUSH2 0x6CA PUSH2 0x679 JUMP JUMPDEST JUMPDEST DUP3 DUP3 DIV SWAP1 POP SWAP3 SWAP2 POP POP JUMP JUMPDEST PUSH0 DUP1 REVERT JUMPDEST PUSH0 DUP1 REVERT JUMPDEST PUSH0 DUP1 REVERT JUMPDEST PUSH0 DUP1 DUP4 CALLDATALOAD PUSH1 0x1 PUSH1 0x20 SUB DUP5 CALLDATASIZE SUB SUB DUP2 SLT PUSH2 0x6FE JUMPI PUSH2 0x6FD PUSH2 0x6D6 JUMP JUMPDEST JUMPDEST DUP1 DUP5 ADD SWAP3 POP DUP3 CALLDATALOAD SWAP2 POP PUSH8 0xFFFFFFFFFFFFFFFF DUP3 GT ISZERO PUSH2 0x720 JUMPI PUSH2 0x71F PUSH2 0x6DA JUMP JUMPDEST JUMPDEST PUSH1 0x20 DUP4 ADD SWAP3 POP PUSH1 0x1 DUP3 MUL CALLDATASIZE SUB DUP4 SGT ISZERO PUSH2 0x73C JUMPI PUSH2 0x73B PUSH2 0x6DE JUMP JUMPDEST JUMPDEST POP SWAP3 POP SWAP3 SWAP1 POP JUMP JUMPDEST PUSH0 DUP2 SWAP1 POP SWAP3 SWAP2 POP POP JUMP JUMPDEST DUP3 DUP2 DUP4 CALLDATACOPY PUSH0 DUP4 DUP4 ADD MSTORE POP POP POP JUMP JUMPDEST PUSH0 PUSH2 0x767 DUP4 DUP6 PUSH2 0x744 JUMP JUMPDEST SWAP4 POP PUSH2 0x774 DUP4 DUP6 DUP5 PUSH2 0x74E JUMP JUMPDEST DUP3 DUP5 ADD SWAP1 POP SWAP4 SWAP3 POP POP POP JUMP JUMPDEST PUSH0 PUSH2 0x78C DUP3 DUP5 DUP7 PUSH2 0x75C JUMP JUMPDEST SWAP2 POP DUP2 SWAP1 POP SWAP4 SWAP3 POP POP POP JUMP JUMPDEST PUSH32 0x63616C6C206661696C6564000000000000000000000000000000000000000000 PUSH0 DUP3 ADD MSTORE POP JUMP JUMPDEST PUSH0 PUSH2 0x7CC PUSH1 0xB DUP4 PUSH2 0x522 JUMP JUMPDEST SWAP2 POP PUSH2 0x7D7 DUP3 PUSH2 0x798 JUMP JUMPDEST PUSH1 0x20 DUP3 ADD SWAP1 POP SWAP2 SWAP1 POP JUMP JUMPDEST PUSH0 PUSH1 0x20 DUP3 ADD SWAP1 POP DUP2 DUP2 SUB PUSH0 DUP4 ADD MSTORE PUSH2 0x7F9 DUP2 PUSH2 0x7C0 JUMP JUMPDEST SWAP1 POP SWAP2 SWAP1 POP JUMP INVALID LOG2 PUSH5 0x6970667358 0x22 SLT KECCAK256 SUB STOP DUP16 PUSH14 0x2854F74EE0F24501673B2E0B75DB DUP10 COINBASE DUP13 0xD6 0xBF 0xB2 DIV OR PUSH5 0x50836C9374 PUSH5 0x736F6C6343 STOP ADDMOD AND STOP CALLER "
		},
		"gasEstimates": {
			"creation": {
				"codeDepositCost": "420400",
				"executionCost": "453",
				"totalCost": "420853"
			},
			"external": {
				"multiCall(address[],bytes[],uint256)": "infinite"
			}
		},
		"methodIdentifiers": {
			"multiCall(address[],bytes[],uint256)": "4d31a66b"
		}
	},
	"abi": [
		{
			"inputs": [
				{
					"internalType": "address[]",
					"name": "targets",
					"type": "address[]"
				},
				{
					"internalType": "bytes[]",
					"name": "data",
					"type": "bytes[]"
				},
				{
					"internalType": "uint256",
					"name": "quantity",
					"type": "uint256"
				}
			],
			"name": "multiCall",
			"outputs": [
				{
					"internalType": "bytes[]",
					"name": "",
					"type": "bytes[]"
				}
			],
			"stateMutability": "payable",
			"type": "function"
		}
	]
}