{
	"data": {
		"bytecode": {
			"linkReferences": {},
			"object": "60806040525f805f6101000a81548160ff021916908315150217905550348015610027575f80fd5b50610275806100355f395ff3fe608060405234801561000f575f80fd5b5060043610610038575f3560e01c8063162790551461009c57806395f11c0e146100cc57610039565b5b610042336100ea565b15610082576040517f08c379a000000000000000000000000000000000000000000000000000000000815260040161007990610165565b60405180910390fd5b60015f806101000a81548160ff0219169083151502179055005b6100b660048036038101906100b191906101e1565b6100ea565b6040516100c39190610226565b60405180910390f35b6100d46100fb565b6040516100e19190610226565b60405180910390f35b5f80823b90505f8111915050919050565b5f8054906101000a900460ff1681565b5f82825260208201905092915050565b7f6e6f20636f6e747261637420616c6c6f776564000000000000000000000000005f82015250565b5f61014f60138361010b565b915061015a8261011b565b602082019050919050565b5f6020820190508181035f83015261017c81610143565b9050919050565b5f80fd5b5f73ffffffffffffffffffffffffffffffffffffffff82169050919050565b5f6101b082610187565b9050919050565b6101c0816101a6565b81146101ca575f80fd5b50565b5f813590506101db816101b7565b92915050565b5f602082840312156101f6576101f5610183565b5b5f610203848285016101cd565b91505092915050565b5f8115159050919050565b6102208161020c565b82525050565b5f6020820190506102395f830184610217565b9291505056fea26469706673582212206c8845c63d8a20e849f3d34da275c2dbb89196fd41548f57b41dec914938ef3c64736f6c63430008160033",
			"opcodes": "PUSH1 0x80 PUSH1 0x40 MSTORE PUSH0 DUP1 PUSH0 PUSH2 0x100 EXP DUP2 SLOAD DUP2 PUSH1 0xFF MUL NOT AND SWAP1 DUP4 ISZERO ISZERO MUL OR SWAP1 SSTORE POP CALLVALUE DUP1 ISZERO PUSH2 0x27 JUMPI PUSH0 DUP1 REVERT JUMPDEST POP PUSH2 0x275 DUP1 PUSH2 0x35 PUSH0 CODECOPY PUSH0 RETURN INVALID PUSH1 0x80 PUSH1 0x40 MSTORE CALLVALUE DUP1 ISZERO PUSH2 0xF JUMPI PUSH0 DUP1 REVERT JUMPDEST POP PUSH1 0x4 CALLDATASIZE LT PUSH2 0x38 JUMPI PUSH0 CALLDATALOAD PUSH1 0xE0 SHR DUP1 PUSH4 0x16279055 EQ PUSH2 0x9C JUMPI DUP1 PUSH4 0x95F11C0E EQ PUSH2 0xCC JUMPI PUSH2 0x39 JUMP JUMPDEST JUMPDEST PUSH2 0x42 CALLER PUSH2 0xEA JUMP JUMPDEST ISZERO PUSH2 0x82 JUMPI PUSH1 0x40 MLOAD PUSH32 0x8C379A000000000000000000000000000000000000000000000000000000000 DUP2 MSTORE PUSH1 0x4 ADD PUSH2 0x79 SWAP1 PUSH2 0x165 JUMP JUMPDEST PUSH1 0x40 MLOAD DUP1 SWAP2 SUB SWAP1 REVERT JUMPDEST PUSH1 0x1 PUSH0 DUP1 PUSH2 0x100 EXP DUP2 SLOAD DUP2 PUSH1 0xFF MUL NOT AND SWAP1 DUP4 ISZERO ISZERO MUL OR SWAP1 SSTORE STOP JUMPDEST PUSH2 0xB6 PUSH1 0x4 DUP1 CALLDATASIZE SUB DUP2 ADD SWAP1 PUSH2 0xB1 SWAP2 SWAP1 PUSH2 0x1E1 JUMP JUMPDEST PUSH2 0xEA JUMP JUMPDEST PUSH1 0x40 MLOAD PUSH2 0xC3 SWAP2 SWAP1 PUSH2 0x226 JUMP JUMPDEST PUSH1 0x40 MLOAD DUP1 SWAP2 SUB SWAP1 RETURN JUMPDEST PUSH2 0xD4 PUSH2 0xFB JUMP JUMPDEST PUSH1 0x40 MLOAD PUSH2 0xE1 SWAP2 SWAP1 PUSH2 0x226 JUMP JUMPDEST PUSH1 0x40 MLOAD DUP1 SWAP2 SUB SWAP1 RETURN JUMPDEST PUSH0 DUP1 DUP3 EXTCODESIZE SWAP1 POP PUSH0 DUP2 GT SWAP2 POP POP SWAP2 SWAP1 POP JUMP JUMPDEST PUSH0 DUP1 SLOAD SWAP1 PUSH2 0x100 EXP SWAP1 DIV PUSH1 0xFF AND DUP2 JUMP JUMPDEST PUSH0 DUP3 DUP3 MSTORE PUSH1 0x20 DUP3 ADD SWAP1 POP SWAP3 SWAP2 POP POP JUMP JUMPDEST PUSH32 0x6E6F20636F6E747261637420616C6C6F77656400000000000000000000000000 PUSH0 DUP3 ADD MSTORE POP JUMP JUMPDEST PUSH0 PUSH2 0x14F PUSH1 0x13 DUP4 PUSH2 0x10B JUMP JUMPDEST SWAP2 POP PUSH2 0x15A DUP3 PUSH2 0x11B JUMP JUMPDEST PUSH1 0x20 DUP3 ADD SWAP1 POP SWAP2 SWAP1 POP JUMP JUMPDEST PUSH0 PUSH1 0x20 DUP3 ADD SWAP1 POP DUP2 DUP2 SUB PUSH0 DUP4 ADD MSTORE PUSH2 0x17C DUP2 PUSH2 0x143 JUMP JUMPDEST SWAP1 POP SWAP2 SWAP1 POP JUMP JUMPDEST PUSH0 DUP1 REVERT JUMPDEST PUSH0 PUSH20 0xFFFFFFFFFFFFFFFFFFFFFFFFFFFFFFFFFFFFFFFF DUP3 AND SWAP1 POP SWAP2 SWAP1 POP JUMP JUMPDEST PUSH0 PUSH2 0x1B0 DUP3 PUSH2 0x187 JUMP JUMPDEST SWAP1 POP SWAP2 SWAP1 POP JUMP JUMPDEST PUSH2 0x1C0 DUP2 PUSH2 0x1A6 JUMP JUMPDEST DUP2 EQ PUSH2 0x1CA JUMPI PUSH0 DUP1 REVERT JUMPDEST POP JUMP JUMPDEST PUSH0 DUP2 CALLDATALOAD SWAP1 POP PUSH2 0x1DB DUP2 PUSH2 0x1B7 JUMP JUMPDEST SWAP3 SWAP2 POP POP JUMP JUMPDEST PUSH0 PUSH1 0x20 DUP3 DUP5 SUB SLT ISZERO PUSH2 0x1F6 JUMPI PUSH2 0x1F5 PUSH2 0x183 JUMP JUMPDEST JUMPDEST PUSH0 PUSH2 0x203 DUP5 DUP3 DUP6 ADD PUSH2 0x1CD JUMP JUMPDEST SWAP2 POP POP SWAP3 SWAP2 POP POP JUMP JUMPDEST PUSH0 DUP2 ISZERO ISZERO SWAP1 POP SWAP2 SWAP1 POP JUMP JUMPDEST PUSH2 0x220 DUP2 PUSH2 0x20C JUMP JUMPDEST DUP3 MSTORE POP POP JUMP JUMPDEST PUSH0 PUSH1 0x20 DUP3 ADD SWAP1 POP PUSH2 0x239 PUSH0 DUP4 ADD DUP5 PUSH2 0x217 JUMP JUMPDEST SWAP3 SWAP2 POP POP JUMP INVALID LOG2 PUSH5 0x6970667358 0x22 SLT KECCAK256 PUSH13 0x8845C63D8A20E849F3D34DA275 0xC2 0xDB 0xB8 SWAP2 SWAP7 REVERT COINBASE SLOAD DUP16 JUMPI 0xB4 SAR 0xEC SWAP2 0x49 CODESIZE 0xEF EXTCODECOPY PUSH5 0x736F6C6343 STOP ADDMOD AND STOP CALLER "
		},
		"gasEstimates": {
			"creation": {
				"codeDepositCost": "125800",
				"executionCost": "24434",
				"totalCost": "150234"
			},
			"external": {
				"": "27073",
				"isContract(address)": "3243",
				"pwned()": "2463"
			}
		},
		"methodIdentifiers": {
			"isContract(address)": "16279055",
			"pwned()": "95f11c0e"
		}
	},
	"abi": [
		{
			"stateMutability": "nonpayable",
			"type": "fallback"
		},
		{
			"inputs": [
				{
					"internalType": "address",
					"name": "addr",
					"type": "address"
				}
			],
			"name": "isContract",
			"outputs": [
				{
					"internalType": "bool",
					"name": "",
					"type": "bool"
				}
			],
			"stateMutability": "view",
			"type": "function"
		},
		{
			"inputs": [],
			"name": "pwned",
			"outputs": [
				{
					"internalType": "bool",
					"name": "",
					"type": "bool"
				}
			],
			"stateMutability": "view",
			"type": "function"
		}
	]
}