{
	"data": {
		"bytecode": {
			"linkReferences": {},
			"object": "608060405234801561000f575f80fd5b506102398061001d5f395ff3fe60806040526004361061001d575f3560e01c806393e84cd914610021575b5f80fd5b61002961002b565b005b670de0b6b3a76400003414610075576040517f08c379a000000000000000000000000000000000000000000000000000000000815260040161006c9061017d565b60405180910390fd5b5f479050676124fee993bc00008111156100c4576040517f08c379a00000000000000000000000000000000000000000000000000000000081526004016100bb906101e5565b60405180910390fd5b676124fee993bc00008103610120573373ffffffffffffffffffffffffffffffffffffffff166108fc676124fee993bc000090811502906040515f60405180830381858888f1935050505015801561011e573d5f803e3d5ffd5b505b50565b5f82825260208201905092915050565b7f6e6f7420312065746865720000000000000000000000000000000000000000005f82015250565b5f610167600b83610123565b915061017282610133565b602082019050919050565b5f6020820190508181035f8301526101948161015b565b9050919050565b7f67616d65206f76657200000000000000000000000000000000000000000000005f82015250565b5f6101cf600983610123565b91506101da8261019b565b602082019050919050565b5f6020820190508181035f8301526101fc816101c3565b905091905056fea2646970667358221220835a728c0d96a10532706d134b3433607211b23cee17b751d365086123c648c564736f6c63430008160033",
			"opcodes": "PUSH1 0x80 PUSH1 0x40 MSTORE CALLVALUE DUP1 ISZERO PUSH2 0xF JUMPI PUSH0 DUP1 REVERT JUMPDEST POP PUSH2 0x239 DUP1 PUSH2 0x1D PUSH0 CODECOPY PUSH0 RETURN INVALID PUSH1 0x80 PUSH1 0x40 MSTORE PUSH1 0x4 CALLDATASIZE LT PUSH2 0x1D JUMPI PUSH0 CALLDATALOAD PUSH1 0xE0 SHR DUP1 PUSH4 0x93E84CD9 EQ PUSH2 0x21 JUMPI JUMPDEST PUSH0 DUP1 REVERT JUMPDEST PUSH2 0x29 PUSH2 0x2B JUMP JUMPDEST STOP JUMPDEST PUSH8 0xDE0B6B3A7640000 CALLVALUE EQ PUSH2 0x75 JUMPI PUSH1 0x40 MLOAD PUSH32 0x8C379A000000000000000000000000000000000000000000000000000000000 DUP2 MSTORE PUSH1 0x4 ADD PUSH2 0x6C SWAP1 PUSH2 0x17D JUMP JUMPDEST PUSH1 0x40 MLOAD DUP1 SWAP2 SUB SWAP1 REVERT JUMPDEST PUSH0 SELFBALANCE SWAP1 POP PUSH8 0x6124FEE993BC0000 DUP2 GT ISZERO PUSH2 0xC4 JUMPI PUSH1 0x40 MLOAD PUSH32 0x8C379A000000000000000000000000000000000000000000000000000000000 DUP2 MSTORE PUSH1 0x4 ADD PUSH2 0xBB SWAP1 PUSH2 0x1E5 JUMP JUMPDEST PUSH1 0x40 MLOAD DUP1 SWAP2 SUB SWAP1 REVERT JUMPDEST PUSH8 0x6124FEE993BC0000 DUP2 SUB PUSH2 0x120 JUMPI CALLER PUSH20 0xFFFFFFFFFFFFFFFFFFFFFFFFFFFFFFFFFFFFFFFF AND PUSH2 0x8FC PUSH8 0x6124FEE993BC0000 SWAP1 DUP2 ISZERO MUL SWAP1 PUSH1 0x40 MLOAD PUSH0 PUSH1 0x40 MLOAD DUP1 DUP4 SUB DUP2 DUP6 DUP9 DUP9 CALL SWAP4 POP POP POP POP ISZERO DUP1 ISZERO PUSH2 0x11E JUMPI RETURNDATASIZE PUSH0 DUP1 RETURNDATACOPY RETURNDATASIZE PUSH0 REVERT JUMPDEST POP JUMPDEST POP JUMP JUMPDEST PUSH0 DUP3 DUP3 MSTORE PUSH1 0x20 DUP3 ADD SWAP1 POP SWAP3 SWAP2 POP POP JUMP JUMPDEST PUSH32 0x6E6F742031206574686572000000000000000000000000000000000000000000 PUSH0 DUP3 ADD MSTORE POP JUMP JUMPDEST PUSH0 PUSH2 0x167 PUSH1 0xB DUP4 PUSH2 0x123 JUMP JUMPDEST SWAP2 POP PUSH2 0x172 DUP3 PUSH2 0x133 JUMP JUMPDEST PUSH1 0x20 DUP3 ADD SWAP1 POP SWAP2 SWAP1 POP JUMP JUMPDEST PUSH0 PUSH1 0x20 DUP3 ADD SWAP1 POP DUP2 DUP2 SUB PUSH0 DUP4 ADD MSTORE PUSH2 0x194 DUP2 PUSH2 0x15B JUMP JUMPDEST SWAP1 POP SWAP2 SWAP1 POP JUMP JUMPDEST PUSH32 0x67616D65206F7665720000000000000000000000000000000000000000000000 PUSH0 DUP3 ADD MSTORE POP JUMP JUMPDEST PUSH0 PUSH2 0x1CF PUSH1 0x9 DUP4 PUSH2 0x123 JUMP JUMPDEST SWAP2 POP PUSH2 0x1DA DUP3 PUSH2 0x19B JUMP JUMPDEST PUSH1 0x20 DUP3 ADD SWAP1 POP SWAP2 SWAP1 POP JUMP JUMPDEST PUSH0 PUSH1 0x20 DUP3 ADD SWAP1 POP DUP2 DUP2 SUB PUSH0 DUP4 ADD MSTORE PUSH2 0x1FC DUP2 PUSH2 0x1C3 JUMP JUMPDEST SWAP1 POP SWAP2 SWAP1 POP JUMP INVALID LOG2 PUSH5 0x6970667358 0x22 SLT KECCAK256 DUP4 GAS PUSH19 0x8C0D96A10532706D134B3433607211B23CEE17 0xB7 MLOAD 0xD3 PUSH6 0x86123C648C5 PUSH5 0x736F6C6343 STOP ADDMOD AND STOP CALLER "
		},
		"gasEstimates": {
			"creation": {
				"codeDepositCost": "113800",
				"executionCost": "157",
				"totalCost": "113957"
			},
			"external": {
				"play()": "infinite"
			}
		},
		"methodIdentifiers": {
			"play()": "93e84cd9"
		}
	},
	"abi": [
		{
			"inputs": [],
			"name": "play",
			"outputs": [],
			"stateMutability": "payable",
			"type": "function"
		}
	]
}