{
	"data": {
		"bytecode": {
			"linkReferences": {},
			"object": "60a06040523373ffffffffffffffffffffffffffffffffffffffff1660808173ffffffffffffffffffffffffffffffffffffffff168152505060805161086c6100575f395f818161026901526102a7015261086c5ff3fe608060405234801561000f575f80fd5b5060043610610055575f3560e01c8063197917e7146100595780636a5d490a146100755780638da5cb5b146100a5578063bb838ac6146100c3578063ed05582b146100f3575b5f80fd5b610073600480360381019061006e9190610478565b610123565b005b61008f600480360381019061008a91906104ef565b610238565b60405161009c9190610529565b60405180910390f35b6100ad610267565b6040516100ba9190610551565b60405180910390f35b6100dd60048036038101906100d89190610478565b61028b565b6040516100ea9190610584565b60405180910390f35b61010d6004803603810190610108919061059d565b61034c565b60405161011a9190610529565b60405180910390f35b5f8054906101000a900460ff1615610170576040517f08c379a000000000000000000000000000000000000000000000000000000000815260040161016790610635565b60405180910390fd5b60015f806101000a81548160ff021916908315150217905550610196858585858561028b565b6101d5576040517f08c379a00000000000000000000000000000000000000000000000000000000081526004016101cc9061069d565b60405180910390fd5b8473ffffffffffffffffffffffffffffffffffffffff166108fc8590811502906040515f60405180830381858888f19350505050158015610218573d5f803e3d5ffd5b505f805f6101000a81548160ff0219169083151502179055505050505050565b5f8160405160200161024a919061072f565b604051602081830303815290604052805190602001209050919050565b7f000000000000000000000000000000000000000000000000000000000000000081565b5f80610297878761034c565b90505f6102a382610238565b90507f000000000000000000000000000000000000000000000000000000000000000073ffffffffffffffffffffffffffffffffffffffff166001828689896040515f81526020016040526040516102fe9493929190610763565b6020604051602081039080840390855afa15801561031e573d5f803e3d5ffd5b5050506020604051035173ffffffffffffffffffffffffffffffffffffffff16149250505095945050505050565b5f828260405160200161036092919061080b565b60405160208183030381529060405280519060200120905092915050565b5f80fd5b5f73ffffffffffffffffffffffffffffffffffffffff82169050919050565b5f6103ab82610382565b9050919050565b6103bb816103a1565b81146103c5575f80fd5b50565b5f813590506103d6816103b2565b92915050565b5f819050919050565b6103ee816103dc565b81146103f8575f80fd5b50565b5f81359050610409816103e5565b92915050565b5f819050919050565b6104218161040f565b811461042b575f80fd5b50565b5f8135905061043c81610418565b92915050565b5f60ff82169050919050565b61045781610442565b8114610461575f80fd5b50565b5f813590506104728161044e565b92915050565b5f805f805f60a086880312156104915761049061037e565b5b5f61049e888289016103c8565b95505060206104af888289016103fb565b94505060406104c08882890161042e565b93505060606104d18882890161042e565b92505060806104e288828901610464565b9150509295509295909350565b5f602082840312156105045761050361037e565b5b5f6105118482850161042e565b91505092915050565b6105238161040f565b82525050565b5f60208201905061053c5f83018461051a565b92915050565b61054b816103a1565b82525050565b5f6020820190506105645f830184610542565b92915050565b5f8115159050919050565b61057e8161056a565b82525050565b5f6020820190506105975f830184610575565b92915050565b5f80604083850312156105b3576105b261037e565b5b5f6105c0858286016103c8565b92505060206105d1858286016103fb565b9150509250929050565b5f82825260208201905092915050565b7f6c6f636b656400000000000000000000000000000000000000000000000000005f82015250565b5f61061f6006836105db565b915061062a826105eb565b602082019050919050565b5f6020820190508181035f83015261064c81610613565b9050919050565b7f696e76616c6964207369676e61747572650000000000000000000000000000005f82015250565b5f6106876011836105db565b915061069282610653565b602082019050919050565b5f6020820190508181035f8301526106b48161067b565b9050919050565b5f81905092915050565b7f19457468657265756d205369676e6564204d6573736167653a0a3332000000005f82015250565b5f6106f9601c836106bb565b9150610704826106c5565b601c82019050919050565b5f819050919050565b6107296107248261040f565b61070f565b82525050565b5f610739826106ed565b91506107458284610718565b60208201915081905092915050565b61075d81610442565b82525050565b5f6080820190506107765f83018761051a565b6107836020830186610754565b610790604083018561051a565b61079d606083018461051a565b95945050505050565b5f8160601b9050919050565b5f6107bc826107a6565b9050919050565b5f6107cd826107b2565b9050919050565b6107e56107e0826103a1565b6107c3565b82525050565b5f819050919050565b610805610800826103dc565b6107eb565b82525050565b5f61081682856107d4565b60148201915061082682846107f4565b602082019150819050939250505056fea2646970667358221220883e48410f3d16e930491d4a939785b8a4fc0ddf4aa49555c8d52839164185f964736f6c63430008160033",
			"opcodes": "PUSH1 0xA0 PUSH1 0x40 MSTORE CALLER PUSH20 0xFFFFFFFFFFFFFFFFFFFFFFFFFFFFFFFFFFFFFFFF AND PUSH1 0x80 DUP2 PUSH20 0xFFFFFFFFFFFFFFFFFFFFFFFFFFFFFFFFFFFFFFFF AND DUP2 MSTORE POP POP PUSH1 0x80 MLOAD PUSH2 0x86C PUSH2 0x57 PUSH0 CODECOPY PUSH0 DUP2 DUP2 PUSH2 0x269 ADD MSTORE PUSH2 0x2A7 ADD MSTORE PUSH2 0x86C PUSH0 RETURN INVALID PUSH1 0x80 PUSH1 0x40 MSTORE CALLVALUE DUP1 ISZERO PUSH2 0xF JUMPI PUSH0 DUP1 REVERT JUMPDEST POP PUSH1 0x4 CALLDATASIZE LT PUSH2 0x55 JUMPI PUSH0 CALLDATALOAD PUSH1 0xE0 SHR DUP1 PUSH4 0x197917E7 EQ PUSH2 0x59 JUMPI DUP1 PUSH4 0x6A5D490A EQ PUSH2 0x75 JUMPI DUP1 PUSH4 0x8DA5CB5B EQ PUSH2 0xA5 JUMPI DUP1 PUSH4 0xBB838AC6 EQ PUSH2 0xC3 JUMPI DUP1 PUSH4 0xED05582B EQ PUSH2 0xF3 JUMPI JUMPDEST PUSH0 DUP1 REVERT JUMPDEST PUSH2 0x73 PUSH1 0x4 DUP1 CALLDATASIZE SUB DUP2 ADD SWAP1 PUSH2 0x6E SWAP2 SWAP1 PUSH2 0x478 JUMP JUMPDEST PUSH2 0x123 JUMP JUMPDEST STOP JUMPDEST PUSH2 0x8F PUSH1 0x4 DUP1 CALLDATASIZE SUB DUP2 ADD SWAP1 PUSH2 0x8A SWAP2 SWAP1 PUSH2 0x4EF JUMP JUMPDEST PUSH2 0x238 JUMP JUMPDEST PUSH1 0x40 MLOAD PUSH2 0x9C SWAP2 SWAP1 PUSH2 0x529 JUMP JUMPDEST PUSH1 0x40 MLOAD DUP1 SWAP2 SUB SWAP1 RETURN JUMPDEST PUSH2 0xAD PUSH2 0x267 JUMP JUMPDEST PUSH1 0x40 MLOAD PUSH2 0xBA SWAP2 SWAP1 PUSH2 0x551 JUMP JUMPDEST PUSH1 0x40 MLOAD DUP1 SWAP2 SUB SWAP1 RETURN JUMPDEST PUSH2 0xDD PUSH1 0x4 DUP1 CALLDATASIZE SUB DUP2 ADD SWAP1 PUSH2 0xD8 SWAP2 SWAP1 PUSH2 0x478 JUMP JUMPDEST PUSH2 0x28B JUMP JUMPDEST PUSH1 0x40 MLOAD PUSH2 0xEA SWAP2 SWAP1 PUSH2 0x584 JUMP JUMPDEST PUSH1 0x40 MLOAD DUP1 SWAP2 SUB SWAP1 RETURN JUMPDEST PUSH2 0x10D PUSH1 0x4 DUP1 CALLDATASIZE SUB DUP2 ADD SWAP1 PUSH2 0x108 SWAP2 SWAP1 PUSH2 0x59D JUMP JUMPDEST PUSH2 0x34C JUMP JUMPDEST PUSH1 0x40 MLOAD PUSH2 0x11A SWAP2 SWAP1 PUSH2 0x529 JUMP JUMPDEST PUSH1 0x40 MLOAD DUP1 SWAP2 SUB SWAP1 RETURN JUMPDEST PUSH0 DUP1 SLOAD SWAP1 PUSH2 0x100 EXP SWAP1 DIV PUSH1 0xFF AND ISZERO PUSH2 0x170 JUMPI PUSH1 0x40 MLOAD PUSH32 0x8C379A000000000000000000000000000000000000000000000000000000000 DUP2 MSTORE PUSH1 0x4 ADD PUSH2 0x167 SWAP1 PUSH2 0x635 JUMP JUMPDEST PUSH1 0x40 MLOAD DUP1 SWAP2 SUB SWAP1 REVERT JUMPDEST PUSH1 0x1 PUSH0 DUP1 PUSH2 0x100 EXP DUP2 SLOAD DUP2 PUSH1 0xFF MUL NOT AND SWAP1 DUP4 ISZERO ISZERO MUL OR SWAP1 SSTORE POP PUSH2 0x196 DUP6 DUP6 DUP6 DUP6 DUP6 PUSH2 0x28B JUMP JUMPDEST PUSH2 0x1D5 JUMPI PUSH1 0x40 MLOAD PUSH32 0x8C379A000000000000000000000000000000000000000000000000000000000 DUP2 MSTORE PUSH1 0x4 ADD PUSH2 0x1CC SWAP1 PUSH2 0x69D JUMP JUMPDEST PUSH1 0x40 MLOAD DUP1 SWAP2 SUB SWAP1 REVERT JUMPDEST DUP5 PUSH20 0xFFFFFFFFFFFFFFFFFFFFFFFFFFFFFFFFFFFFFFFF AND PUSH2 0x8FC DUP6 SWAP1 DUP2 ISZERO MUL SWAP1 PUSH1 0x40 MLOAD PUSH0 PUSH1 0x40 MLOAD DUP1 DUP4 SUB DUP2 DUP6 DUP9 DUP9 CALL SWAP4 POP POP POP POP ISZERO DUP1 ISZERO PUSH2 0x218 JUMPI RETURNDATASIZE PUSH0 DUP1 RETURNDATACOPY RETURNDATASIZE PUSH0 REVERT JUMPDEST POP PUSH0 DUP1 PUSH0 PUSH2 0x100 EXP DUP2 SLOAD DUP2 PUSH1 0xFF MUL NOT AND SWAP1 DUP4 ISZERO ISZERO MUL OR SWAP1 SSTORE POP POP POP POP POP POP JUMP JUMPDEST PUSH0 DUP2 PUSH1 0x40 MLOAD PUSH1 0x20 ADD PUSH2 0x24A SWAP2 SWAP1 PUSH2 0x72F JUMP JUMPDEST PUSH1 0x40 MLOAD PUSH1 0x20 DUP2 DUP4 SUB SUB DUP2 MSTORE SWAP1 PUSH1 0x40 MSTORE DUP1 MLOAD SWAP1 PUSH1 0x20 ADD KECCAK256 SWAP1 POP SWAP2 SWAP1 POP JUMP JUMPDEST PUSH32 0x0 DUP2 JUMP JUMPDEST PUSH0 DUP1 PUSH2 0x297 DUP8 DUP8 PUSH2 0x34C JUMP JUMPDEST SWAP1 POP PUSH0 PUSH2 0x2A3 DUP3 PUSH2 0x238 JUMP JUMPDEST SWAP1 POP PUSH32 0x0 PUSH20 0xFFFFFFFFFFFFFFFFFFFFFFFFFFFFFFFFFFFFFFFF AND PUSH1 0x1 DUP3 DUP7 DUP10 DUP10 PUSH1 0x40 MLOAD PUSH0 DUP2 MSTORE PUSH1 0x20 ADD PUSH1 0x40 MSTORE PUSH1 0x40 MLOAD PUSH2 0x2FE SWAP5 SWAP4 SWAP3 SWAP2 SWAP1 PUSH2 0x763 JUMP JUMPDEST PUSH1 0x20 PUSH1 0x40 MLOAD PUSH1 0x20 DUP2 SUB SWAP1 DUP1 DUP5 SUB SWAP1 DUP6 GAS STATICCALL ISZERO DUP1 ISZERO PUSH2 0x31E JUMPI RETURNDATASIZE PUSH0 DUP1 RETURNDATACOPY RETURNDATASIZE PUSH0 REVERT JUMPDEST POP POP POP PUSH1 0x20 PUSH1 0x40 MLOAD SUB MLOAD PUSH20 0xFFFFFFFFFFFFFFFFFFFFFFFFFFFFFFFFFFFFFFFF AND EQ SWAP3 POP POP POP SWAP6 SWAP5 POP POP POP POP POP JUMP JUMPDEST PUSH0 DUP3 DUP3 PUSH1 0x40 MLOAD PUSH1 0x20 ADD PUSH2 0x360 SWAP3 SWAP2 SWAP1 PUSH2 0x80B JUMP JUMPDEST PUSH1 0x40 MLOAD PUSH1 0x20 DUP2 DUP4 SUB SUB DUP2 MSTORE SWAP1 PUSH1 0x40 MSTORE DUP1 MLOAD SWAP1 PUSH1 0x20 ADD KECCAK256 SWAP1 POP SWAP3 SWAP2 POP POP JUMP JUMPDEST PUSH0 DUP1 REVERT JUMPDEST PUSH0 PUSH20 0xFFFFFFFFFFFFFFFFFFFFFFFFFFFFFFFFFFFFFFFF DUP3 AND SWAP1 POP SWAP2 SWAP1 POP JUMP JUMPDEST PUSH0 PUSH2 0x3AB DUP3 PUSH2 0x382 JUMP JUMPDEST SWAP1 POP SWAP2 SWAP1 POP JUMP JUMPDEST PUSH2 0x3BB DUP2 PUSH2 0x3A1 JUMP JUMPDEST DUP2 EQ PUSH2 0x3C5 JUMPI PUSH0 DUP1 REVERT JUMPDEST POP JUMP JUMPDEST PUSH0 DUP2 CALLDATALOAD SWAP1 POP PUSH2 0x3D6 DUP2 PUSH2 0x3B2 JUMP JUMPDEST SWAP3 SWAP2 POP POP JUMP JUMPDEST PUSH0 DUP2 SWAP1 POP SWAP2 SWAP1 POP JUMP JUMPDEST PUSH2 0x3EE DUP2 PUSH2 0x3DC JUMP JUMPDEST DUP2 EQ PUSH2 0x3F8 JUMPI PUSH0 DUP1 REVERT JUMPDEST POP JUMP JUMPDEST PUSH0 DUP2 CALLDATALOAD SWAP1 POP PUSH2 0x409 DUP2 PUSH2 0x3E5 JUMP JUMPDEST SWAP3 SWAP2 POP POP JUMP JUMPDEST PUSH0 DUP2 SWAP1 POP SWAP2 SWAP1 POP JUMP JUMPDEST PUSH2 0x421 DUP2 PUSH2 0x40F JUMP JUMPDEST DUP2 EQ PUSH2 0x42B JUMPI PUSH0 DUP1 REVERT JUMPDEST POP JUMP JUMPDEST PUSH0 DUP2 CALLDATALOAD SWAP1 POP PUSH2 0x43C DUP2 PUSH2 0x418 JUMP JUMPDEST SWAP3 SWAP2 POP POP JUMP JUMPDEST PUSH0 PUSH1 0xFF DUP3 AND SWAP1 POP SWAP2 SWAP1 POP JUMP JUMPDEST PUSH2 0x457 DUP2 PUSH2 0x442 JUMP JUMPDEST DUP2 EQ PUSH2 0x461 JUMPI PUSH0 DUP1 REVERT JUMPDEST POP JUMP JUMPDEST PUSH0 DUP2 CALLDATALOAD SWAP1 POP PUSH2 0x472 DUP2 PUSH2 0x44E JUMP JUMPDEST SWAP3 SWAP2 POP POP JUMP JUMPDEST PUSH0 DUP1 PUSH0 DUP1 PUSH0 PUSH1 0xA0 DUP7 DUP9 SUB SLT ISZERO PUSH2 0x491 JUMPI PUSH2 0x490 PUSH2 0x37E JUMP JUMPDEST JUMPDEST PUSH0 PUSH2 0x49E DUP9 DUP3 DUP10 ADD PUSH2 0x3C8 JUMP JUMPDEST SWAP6 POP POP PUSH1 0x20 PUSH2 0x4AF DUP9 DUP3 DUP10 ADD PUSH2 0x3FB JUMP JUMPDEST SWAP5 POP POP PUSH1 0x40 PUSH2 0x4C0 DUP9 DUP3 DUP10 ADD PUSH2 0x42E JUMP JUMPDEST SWAP4 POP POP PUSH1 0x60 PUSH2 0x4D1 DUP9 DUP3 DUP10 ADD PUSH2 0x42E JUMP JUMPDEST SWAP3 POP POP PUSH1 0x80 PUSH2 0x4E2 DUP9 DUP3 DUP10 ADD PUSH2 0x464 JUMP JUMPDEST SWAP2 POP POP SWAP3 SWAP6 POP SWAP3 SWAP6 SWAP1 SWAP4 POP JUMP JUMPDEST PUSH0 PUSH1 0x20 DUP3 DUP5 SUB SLT ISZERO PUSH2 0x504 JUMPI PUSH2 0x503 PUSH2 0x37E JUMP JUMPDEST JUMPDEST PUSH0 PUSH2 0x511 DUP5 DUP3 DUP6 ADD PUSH2 0x42E JUMP JUMPDEST SWAP2 POP POP SWAP3 SWAP2 POP POP JUMP JUMPDEST PUSH2 0x523 DUP2 PUSH2 0x40F JUMP JUMPDEST DUP3 MSTORE POP POP JUMP JUMPDEST PUSH0 PUSH1 0x20 DUP3 ADD SWAP1 POP PUSH2 0x53C PUSH0 DUP4 ADD DUP5 PUSH2 0x51A JUMP JUMPDEST SWAP3 SWAP2 POP POP JUMP JUMPDEST PUSH2 0x54B DUP2 PUSH2 0x3A1 JUMP JUMPDEST DUP3 MSTORE POP POP JUMP JUMPDEST PUSH0 PUSH1 0x20 DUP3 ADD SWAP1 POP PUSH2 0x564 PUSH0 DUP4 ADD DUP5 PUSH2 0x542 JUMP JUMPDEST SWAP3 SWAP2 POP POP JUMP JUMPDEST PUSH0 DUP2 ISZERO ISZERO SWAP1 POP SWAP2 SWAP1 POP JUMP JUMPDEST PUSH2 0x57E DUP2 PUSH2 0x56A JUMP JUMPDEST DUP3 MSTORE POP POP JUMP JUMPDEST PUSH0 PUSH1 0x20 DUP3 ADD SWAP1 POP PUSH2 0x597 PUSH0 DUP4 ADD DUP5 PUSH2 0x575 JUMP JUMPDEST SWAP3 SWAP2 POP POP JUMP JUMPDEST PUSH0 DUP1 PUSH1 0x40 DUP4 DUP6 SUB SLT ISZERO PUSH2 0x5B3 JUMPI PUSH2 0x5B2 PUSH2 0x37E JUMP JUMPDEST JUMPDEST PUSH0 PUSH2 0x5C0 DUP6 DUP3 DUP7 ADD PUSH2 0x3C8 JUMP JUMPDEST SWAP3 POP POP PUSH1 0x20 PUSH2 0x5D1 DUP6 DUP3 DUP7 ADD PUSH2 0x3FB JUMP JUMPDEST SWAP2 POP POP SWAP3 POP SWAP3 SWAP1 POP JUMP JUMPDEST PUSH0 DUP3 DUP3 MSTORE PUSH1 0x20 DUP3 ADD SWAP1 POP SWAP3 SWAP2 POP POP JUMP JUMPDEST PUSH32 0x6C6F636B65640000000000000000000000000000000000000000000000000000 PUSH0 DUP3 ADD MSTORE POP JUMP JUMPDEST PUSH0 PUSH2 0x61F PUSH1 0x6 DUP4 PUSH2 0x5DB JUMP JUMPDEST SWAP2 POP PUSH2 0x62A DUP3 PUSH2 0x5EB JUMP JUMPDEST PUSH1 0x20 DUP3 ADD SWAP1 POP SWAP2 SWAP1 POP JUMP JUMPDEST PUSH0 PUSH1 0x20 DUP3 ADD SWAP1 POP DUP2 DUP2 SUB PUSH0 DUP4 ADD MSTORE PUSH2 0x64C DUP2 PUSH2 0x613 JUMP JUMPDEST SWAP1 POP SWAP2 SWAP1 POP JUMP JUMPDEST PUSH32 0x696E76616C6964207369676E6174757265000000000000000000000000000000 PUSH0 DUP3 ADD MSTORE POP JUMP JUMPDEST PUSH0 PUSH2 0x687 PUSH1 0x11 DUP4 PUSH2 0x5DB JUMP JUMPDEST SWAP2 POP PUSH2 0x692 DUP3 PUSH2 0x653 JUMP JUMPDEST PUSH1 0x20 DUP3 ADD SWAP1 POP SWAP2 SWAP1 POP JUMP JUMPDEST PUSH0 PUSH1 0x20 DUP3 ADD SWAP1 POP DUP2 DUP2 SUB PUSH0 DUP4 ADD MSTORE PUSH2 0x6B4 DUP2 PUSH2 0x67B JUMP JUMPDEST SWAP1 POP SWAP2 SWAP1 POP JUMP JUMPDEST PUSH0 DUP2 SWAP1 POP SWAP3 SWAP2 POP POP JUMP JUMPDEST PUSH32 0x19457468657265756D205369676E6564204D6573736167653A0A333200000000 PUSH0 DUP3 ADD MSTORE POP JUMP JUMPDEST PUSH0 PUSH2 0x6F9 PUSH1 0x1C DUP4 PUSH2 0x6BB JUMP JUMPDEST SWAP2 POP PUSH2 0x704 DUP3 PUSH2 0x6C5 JUMP JUMPDEST PUSH1 0x1C DUP3 ADD SWAP1 POP SWAP2 SWAP1 POP JUMP JUMPDEST PUSH0 DUP2 SWAP1 POP SWAP2 SWAP1 POP JUMP JUMPDEST PUSH2 0x729 PUSH2 0x724 DUP3 PUSH2 0x40F JUMP JUMPDEST PUSH2 0x70F JUMP JUMPDEST DUP3 MSTORE POP POP JUMP JUMPDEST PUSH0 PUSH2 0x739 DUP3 PUSH2 0x6ED JUMP JUMPDEST SWAP2 POP PUSH2 0x745 DUP3 DUP5 PUSH2 0x718 JUMP JUMPDEST PUSH1 0x20 DUP3 ADD SWAP2 POP DUP2 SWAP1 POP SWAP3 SWAP2 POP POP JUMP JUMPDEST PUSH2 0x75D DUP2 PUSH2 0x442 JUMP JUMPDEST DUP3 MSTORE POP POP JUMP JUMPDEST PUSH0 PUSH1 0x80 DUP3 ADD SWAP1 POP PUSH2 0x776 PUSH0 DUP4 ADD DUP8 PUSH2 0x51A JUMP JUMPDEST PUSH2 0x783 PUSH1 0x20 DUP4 ADD DUP7 PUSH2 0x754 JUMP JUMPDEST PUSH2 0x790 PUSH1 0x40 DUP4 ADD DUP6 PUSH2 0x51A JUMP JUMPDEST PUSH2 0x79D PUSH1 0x60 DUP4 ADD DUP5 PUSH2 0x51A JUMP JUMPDEST SWAP6 SWAP5 POP POP POP POP POP JUMP JUMPDEST PUSH0 DUP2 PUSH1 0x60 SHL SWAP1 POP SWAP2 SWAP1 POP JUMP JUMPDEST PUSH0 PUSH2 0x7BC DUP3 PUSH2 0x7A6 JUMP JUMPDEST SWAP1 POP SWAP2 SWAP1 POP JUMP JUMPDEST PUSH0 PUSH2 0x7CD DUP3 PUSH2 0x7B2 JUMP JUMPDEST SWAP1 POP SWAP2 SWAP1 POP JUMP JUMPDEST PUSH2 0x7E5 PUSH2 0x7E0 DUP3 PUSH2 0x3A1 JUMP JUMPDEST PUSH2 0x7C3 JUMP JUMPDEST DUP3 MSTORE POP POP JUMP JUMPDEST PUSH0 DUP2 SWAP1 POP SWAP2 SWAP1 POP JUMP JUMPDEST PUSH2 0x805 PUSH2 0x800 DUP3 PUSH2 0x3DC JUMP JUMPDEST PUSH2 0x7EB JUMP JUMPDEST DUP3 MSTORE POP POP JUMP JUMPDEST PUSH0 PUSH2 0x816 DUP3 DUP6 PUSH2 0x7D4 JUMP JUMPDEST PUSH1 0x14 DUP3 ADD SWAP2 POP PUSH2 0x826 DUP3 DUP5 PUSH2 0x7F4 JUMP JUMPDEST PUSH1 0x20 DUP3 ADD SWAP2 POP DUP2 SWAP1 POP SWAP4 SWAP3 POP POP POP JUMP INVALID LOG2 PUSH5 0x6970667358 0x22 SLT KECCAK256 DUP9 RETURNDATACOPY BASEFEE COINBASE 0xF RETURNDATASIZE AND 0xE9 ADDRESS 0x49 SAR 0x4A SWAP4 SWAP8 DUP6 0xB8 LOG4 0xFC 0xD 0xDF 0x4A LOG4 SWAP6 SSTORE 0xC8 0xD5 0x28 CODECOPY AND COINBASE DUP6 0xF9 PUSH5 0x736F6C6343 STOP ADDMOD AND STOP CALLER "
		},
		"gasEstimates": {
			"creation": {
				"codeDepositCost": "431200",
				"executionCost": "infinite",
				"totalCost": "infinite"
			},
			"external": {
				"getEthHash(bytes32)": "infinite",
				"getHash(address,uint256)": "infinite",
				"owner()": "infinite",
				"verify(address,uint256,bytes32,bytes32,uint8)": "infinite",
				"withdraw(address,uint256,bytes32,bytes32,uint8)": "infinite"
			}
		},
		"methodIdentifiers": {
			"getEthHash(bytes32)": "6a5d490a",
			"getHash(address,uint256)": "ed05582b",
			"owner()": "8da5cb5b",
			"verify(address,uint256,bytes32,bytes32,uint8)": "bb838ac6",
			"withdraw(address,uint256,bytes32,bytes32,uint8)": "197917e7"
		}
	},
	"abi": [
		{
			"inputs": [],
			"stateMutability": "payable",
			"type": "constructor"
		},
		{
			"inputs": [
				{
					"internalType": "bytes32",
					"name": "h",
					"type": "bytes32"
				}
			],
			"name": "getEthHash",
			"outputs": [
				{
					"internalType": "bytes32",
					"name": "",
					"type": "bytes32"
				}
			],
			"stateMutability": "pure",
			"type": "function"
		},
		{
			"inputs": [
				{
					"internalType": "address",
					"name": "to",
					"type": "address"
				},
				{
					"internalType": "uint256",
					"name": "amount",
					"type": "uint256"
				}
			],
			"name": "getHash",
			"outputs": [
				{
					"internalType": "bytes32",
					"name": "",
					"type": "bytes32"
				}
			],
			"stateMutability": "pure",
			"type": "function"
		},
		{
			"inputs": [],
			"name": "owner",
			"outputs": [
				{
					"internalType": "address",
					"name": "",
					"type": "address"
				}
			],
			"stateMutability": "view",
			"type": "function"
		},
		{
			"inputs": [
				{
					"internalType": "address",
					"name": "to",
					"type": "address"
				},
				{
					"internalType": "uint256",
					"name": "amount",
					"type": "uint256"
				},
				{
					"internalType": "bytes32",
					"name": "r",
					"type": "bytes32"
				},
				{
					"internalType": "bytes32",
					"name": "s",
					"type": "bytes32"
				},
				{
					"internalType": "uint8",
					"name": "v",
					"type": "uint8"
				}
			],
			"name": "verify",
			"outputs": [
				{
					"internalType": "bool",
					"name": "",
					"type": "bool"
				}
			],
			"stateMutability": "view",
			"type": "function"
		},
		{
			"inputs": [
				{
					"internalType": "address",
					"name": "to",
					"type": "address"
				},
				{
					"internalType": "uint256",
					"name": "amount",
					"type": "uint256"
				},
				{
					"internalType": "bytes32",
					"name": "r",
					"type": "bytes32"
				},
				{
					"internalType": "bytes32",
					"name": "s",
					"type": "bytes32"
				},
				{
					"internalType": "uint8",
					"name": "v",
					"type": "uint8"
				}
			],
			"name": "withdraw",
			"outputs": [],
			"stateMutability": "nonpayable",
			"type": "function"
		}
	]
}